:020000040800F2
:100000000000082035CB0008C5C30008C7C300089E
:10001000C9C30008CBC30008CDC30008000000001E
:10002000000000000000000000000000CFC3000836
:10003000D1C3000800000000D3C30008D5C30008E6
:1000400085CB000885CB000885CB000885CB000850
:1000500085CB000885CB0008D9C30008DFC30008A2
:1000600085CB000885CB000885CB000885CB000830
:1000700085CB000885CB000885CB000885CB000820
:1000800085CB000885CB000885CB000885CB000810
:1000900085CB000885CB000885CB000885CB000800
:1000A00085CB000885CB000885CB000885CB0008F0
:1000B00085CB000885CB0008E5C3000885CB000888
:1000C00085CB000885CB000885CB000885CB0008D0
:1000D00085CB0008F1C3000885CB000885CB00085C
:1000E00085CB000885CB000885CB000885CB0008B0
:1000F00085CB000885CB000885CB000885CB0008A0
:1001000085CB000885CB0008FDC3000885CB00081F
:1001100009C4000815C4000821C400082DC4000843
:1001200085CB000885CB000885CB000885CB00086F
:1001300085CB000839C4000885CB000885CB0008B2
:1001400045C4000851C4000885CB000885CB0008D1
:1001500085CB000885CB000885CB000885CB00083F
:1001600085CB000885CB000885CB000885CB00082F
:1001700085CB000885CB000885CB00080000000077
:1001800085CB000885CB000855C4000885CB000846
:1001900085CB000885CB000885CB000885CB0008FF
:1001A00085CB000885CB000885CB000885CB0008EF
:1001B00085CB000885CB000885CB000885CB0008DF
:1001C00085CB000885CB000885CB000885CB0008CF
:1001D00085CB000885CB000885CB000885CB0008BF
:1001E00085CB000861C400086DC4000885CB0008F9
:0801F00085CB000885CB000857
:1002000010B5054C237833B9044B13B10448AFF350
:1002100000800123237010BDDC03002000000000DB
:10022000C456010808B5034B1BB103490348AFF39B
:10023000008008BD00000000E0030020C456010853
:1002400010F8012B11F8013B012A28BF9A42F7D080
:10025000D01A7047034613F8012B002AFBD1181A55
:10026000013870470000000000000000000000009E
:1002700001F0FF01102A2BDB10F0070F08D010F857
:10028000013B013A8B422DD010F0070F42B3F6D15B
:10029000F0B441EA012141EA014122F007047FF074
:1002A00000070023F0E80256083C85EA010586EACB
:1002B000010685FA47F5A3FA87F586FA47F6A5FA07
:1002C00087F68EB9EED1F0BC01F0FF0102F0070213
:1002D00032B110F8013B013A83EA010313B1F8D1BE
:1002E0000020704701387047002D06BF354603389F
:1002F000073815F0010F07D1013015F4807F02BFD8
:10030000013015F4C03F0130F0BC0138704700BF28
:1003100053B94AB9002908BF00281CBF4FF0FF316C
:100320004FF0FF3000F074B9ADF1080C6DE904CE68
:1003300000F006F8DDF804E0DDE9022304B07047C0
:100340002DE9F047089D04468E46002B4DD18A4288
:10035000944669D9B2FA82F252B101FA02F3C2F1BB
:10036000200120FA01F10CFA02FC41EA030E94404C
:100370004FEA1C48210CBEFBF8F61FFA8CF708FB6D
:1003800016E341EA034306FB07F199420AD91CEB45
:10039000030306F1FF3080F01F81994240F21C8177
:1003A000023E63445B1AA4B2B3FBF8F008FB1033BF
:1003B00044EA034400FB07F7A7420AD91CEB0404F4
:1003C00000F1FF3380F00A81A74240F207816444C4
:1003D000023840EA0640E41B00261DB1D440002349
:1003E000C5E900433146BDE8F0878B4209D9002DAD
:1003F00000F0EF800026C5E9000130463146BDE837
:10040000F087B3FA83F6002E4AD18B4202D38242A0
:1004100000F2F980841A61EB030301209E46002D4F
:10042000E0D0C5E9004EDDE702B9FFDEB2FA82F2A4
:10043000002A40F09280A1EB0C014FEA1C471FFA02
:100440008CFE0126200CB1FBF7F307FB131140EAE9
:1004500001410EFB03F0884208D91CEB010103F1B6
:10046000FF3802D2884200F2CB804346091AA4B278
:10047000B1FBF7F007FB101144EA01440EFB00FE4C
:10048000A64508D91CEB040400F1FF3102D2A645B1
:1004900000F2BB800846A4EB0E0440EA03409CE750
:1004A000C6F12007B34022FA07FC4CEA030C20FAFD
:1004B00007F401FA06F31C43F9404FEA1C4900FA1D
:1004C00006F3B1FBF9F8200C1FFA8CFE09FB18119A
:1004D00040EA014108FB0EF0884202FA06F20BD90D
:1004E0001CEB010108F1FF3A80F08880884240F25D
:1004F0008580A8F102086144091AA4B2B1FBF9F0A1
:1005000009FB101144EA014100FB0EFE8E4508D99B
:100510001CEB010100F1FF346CD28E456AD9023820
:10052000614440EA0840A0FB0294A1EB0E01A14205
:10053000C846A64656D353D05DB1B3EB080261EB73
:100540000E0101FA07F722FA06F3F1401F43C5E94D
:10055000007100263146BDE8F087C2F12003D84083
:100560000CFA02FC21FA03F3914001434FEA1C47C5
:100570001FFA8CFEB3FBF7F007FB10360B0C43EAB7
:10058000064300FB0EF69E4204FA02F408D91CEB67
:10059000030300F1FF382FD29E422DD90238634465
:1005A0009B1B89B2B3FBF7F607FB163341EA034105
:1005B00006FB0EF38B4208D91CEB010106F1FF3854
:1005C00016D28B4214D9023E6144C91A46EA00464B
:1005D00038E72E46284605E70646E3E61846F8E6DD
:1005E0004B45A9D2B9EB020864EB0C0E0138A3E726
:1005F0004646EAE7204694E74046D1E7D0467BE707
:10060000023B614432E7304609E76444023842E77E
:10061000704700BF10B54418A4B2082C12D8C0F11E
:100620000700002380B2127842EA0322C1F10103DD
:100630001844134B80B253F821308340134023FAFF
:1006400000F010BD102C08D8C0F10F00002480B2BB
:1006500012F8013B43EA0423E5E7182C137887BF1F
:1006600001321C46C0F11700002488BFC0F11F00F2
:1006700012F8013B94BF80B280B243EA0424E7E75A
:10068000E0560108F0B54518ADB2082D24D8C0F1E8
:10069000070014460125002680B22478032D44EA81
:1006A0000624214E56F82160C1F10101084403EAF5
:1006B000060380B206FA00F103FA00F024EA010111
:1006C00040EA01002CD0042D27D0022D02D1030ACC
:1006D00002F8013B1070F0BD102D0AD8C0F10F00D8
:1006E00014460225002780B214F8016B46EA07265B
:1006F000D3E7182D17780AD8C0F117001446032540
:10070000002780B214F8016B46EA0727ECE7C0F136
:100710001F00541C042580B2F4E7030E02F8013BCD
:10072000030C02F8013BD2E7E056010810B5242380
:100730001C4C1D492370012304F1320063703023E7
:10074000A3704023E370C02323714E2363712623DB
:10075000A37113F0D8FD154904F1640013F0D3FD23
:10076000134904F1960013F0CEFD124904F1C800BC
:1007700013F0C9FD104904F1FA0013F0C4FD0F494C
:1007800004F5967013F0BFFD0D4904F5AF7013F03A
:10079000BAFD0C4904F5C87013F0B5FD0A4B0922E7
:1007A0001A7010BDFD030020645701086F5701083F
:1007B0007F5701088F570108A2570108B557010854
:1007C000C8570108D2570108FC03002007B54FF6AF
:1007D000FF7301A901900122074810F0AAF8074B06
:1007E0000222186800238068194613F097FC0198CC
:1007F00003B05DF804FB00BF4CD900203802002094
:1008000010B508210E480DF095FD1021B0FA80F4C6
:100810000B480DF08FFD00284FEA54144FF400519F
:100820000CBF02200020044306480DF083FD002881
:10083000054B0CBF0420002004431C7010BD00BFFA
:100840000028024000200240A01200200D4B2DE99C
:10085000F041074693F800800B4C0026F5B2A845FE
:1008600001D8FF250BE020460136FFF7F3FC2146B7
:1008700002463846323413F02FFB0028EED12846CA
:10088000BDE8F081FC030020FD03002030B5002509
:100890009BB06022294602A8019513F055FB6B4BD3
:1008A000186807F0ABF909280AD81BB030BD002042
:1008B0000CF090F804F168030DEB030404F8640CE9
:1008C0000020ECB20CF072F801350028EFD1002CBA
:1008D000EBD004F1680301A90DEB030505F8640CE6
:1008E0005B4813F039FB214601A8FFF7AFFF092849
:1008F00000F2A980DFE800F0050C284359718191CE
:100900009A9F544B012254481A7013F0C1FBCCE754
:1009100004F16703514952480DEB030414F8642CA9
:10092000303A13F019FB14F8643C303BDBB2012B76
:1009300006D84C4A137040F2052007F0B1FCB4E72A
:10094000494813F0A5FBF6E704F167034749484817
:100950000DEB030414F8642C303A13F0FDFA45480B
:1009600013F096FB444B14F8642C1968303A41F0AC
:1009700010011A711960414813F0EEFADBE704F137
:1009800067033F493A480DEB030414F8642C303AEE
:1009900013F0E2FA3B4813F07BFB14F8643C364A50
:1009A0002021303B11601371E5E704F167033649FC
:1009B0002F480DEB030414F8642C303A13F0CCFAF2
:1009C000324813F065FB2C4B1A6842F400721A602F
:1009D00014F8642C303A1A71ADE704F167032C491E
:1009E00023480DEB030414F8642C303A13F0B4FAE6
:1009F000214B1A6842F00102E9E704F16703254937
:100A00001B480DEB030414F8642C303A13F0A4FADD
:100A1000194B1A6842F00202D9E71F491F4813F028
:100A20009BFA0022144B1A60FF22D4E71C491D4890
:100A300013F092FA39E715F8652C1B49303A0C4847
:100A400013F08AFA31E708485FE700BFB4C7002017
:100A5000D7570108EA0B0020ED5701082F040020AA
:100A60002D580108EB0B00203F58010861040020BD
:100A7000595801087258010864290020815801085A
:100A80009304002094580108C5040020A4580108CC
:100A9000F7040020290500205B050020BF5801084D
:100AA0008D050020CC580108BF05002070B5104C02
:100AB000206807F0A3F8B0F57A6F18D90D4D0E4EE7
:100AC0002B8832889A420BD053B10C4813F0E0FACD
:100AD00031880B4813F040FA29880A4813F03CFA91
:100AE00040F2092007F0DCFB0CF052F9206070BDE9
:100AF000F8030020E60B0020E80B0020E158010875
:100B000003590108125901082DE9F84FDFF8C49183
:100B10000025DFF8C4814F462C464E46DFF8BCB1B5
:100B200017F8013B2BB908EB050202212046FFF71D
:100B3000A9FD17F8013C012B05D108EB05020221A4
:100B40002046FFF79FFD17F8013C022B05D108EB6B
:100B5000050219462046FFF795FD17F8013C032BC7
:100B600005D108EB050202212046FFF78BFDDBF8DB
:100B7000000007F043F843F6982398420FD917F87E
:100B8000013C63B1032308EB050202212046FFF775
:100B900079FD444B012244481A6013F0DDF9023418
:100BA000E4B2082C03D101350024EDB2B8E7072DDB
:100BB000B6D1062CB4D1002119F8012BCBB20131EA
:100BC000013A022AF8D8394A4FF0000A384DDFF8C6
:100BD0001091DFF81081137089F8003088F8003028
:100BE0002B78344F0133344C34482B7087F800A0F5
:100BF00013F04EFA2378042B11D1314B1A78012AC5
:100C00000DD1DBF8000006F0F9FF42F6E0622C4B54
:100C1000904204D92B4883F800A013F09DF92B785B
:100C2000DFF880A0FA2B16D106232B703B78043B0B
:100C3000012B1FD82378042B1CD1DAF80030012BAC
:100C40002BD8214813F024FA002302222B702270A3
:100C50003360B38012E0043B012BE7D82378022BEA
:100C6000E4D11A4813F014FA002304223B702270D6
:100C70003360B380DAF80030012BDED84FF47A62AB
:100C80000021134813F060F90023084A89F8003066
:100C900088F800301370BDE8F88F0133CAF80030CF
:100CA000CFE700BFE8130020225901089823002055
:100CB000A9120020D6130020000200209459010838
:100CC00001020020DA590108335A0108025A0108CA
:100CD000F4130020DF130020D713002094230020FA
:100CE000992300209A23002010B5074C206806F0B5
:100CF00085FF41F65833984204D9FFF705FF0CF001
:100D000047F8206010BD00BF9C230020FF23014452
:100D100070B51C46064D074E884202D143EA0420B6
:100D200070BD10F8012B5A40AB5C6340B45CF3E734
:100D3000000000200001002038B505460C46FFF7F2
:100D4000E5FF2B195A782B5D43EA02231B1A584200
:100D5000584138BD2DE9F04780460D46DFF8F49044
:100D6000354E5FFA88F420460BF020FE002856D05E
:100D700020460BF02FFE01460446484613F0ECF8DF
:100D800033780B3B032B53D8DFE803F002111B2908
:100D9000631EDBB21E2BE4D80E2CE2D0274B284A70
:100DA0001C701368013313600C233370D9E7032CD4
:100DB000D7D1244B224A1C701368013313600D23D2
:100DC000F3E71C2C1E4B06D11F4A14701A6801321F
:100DD0001A600E23E9E700221A600B23E5E7174BA0
:100DE000174F1B782B70174B1B786B70164B1B78AB
:100DF000AB703B68202BEC549CBF01333B60D7F8B1
:100E000000A0BAF1210FACD128461F21FFF794FFB3
:100E10000B25044628B10023504635703B60BDE8E1
:100E2000F0870A4813F034F9204635703C60F6E745
:100E3000074813F091F894E702020020EC13002019
:100E4000F0130020ED130020EE130020665A010875
:100E5000725A01085F5A010870B5224D4FF496721C
:100E600001202946FFF776FF00283AD02C78631E30
:100E70001E2B32D8AB7DFF2B06D11B4B0022214607
:100E80001A481A5513F068F8AB7DBF2B0CD1164BDE
:100E90000122214616481A5513F05EF8154B1A68C0
:100EA000012A04BF02221A60AB7D7F2B0BD10E4BAF
:100EB0000226214610481E5513F04EF80D4B1A68B5
:100EC000012A08BF1E60AB7D3F2B06D1064B0322D3
:100ED00021460A481A5513F03FF80BF059FF084B0A
:100EE000186070BDAA120020DF1300207D5A01088F
:100EF000C75A0108E8130020105B01085C5B010879
:100F0000942300202DE9F04105460BF041FF2F4BC3
:100F100006465A1992F82D20022A16D018222C4C77
:100F20006A43144494F80380B8F1000F1ED1294994
:100F30000A44D6785EB922793AB103EB8503264894
:100F4000D3F89C1113F008F82671BDE8F081012E4A
:100F5000FBD12279002AF8D003EB85031F48D3F890
:100F60009C1112F0F9FF84F80480EEE7B8F1010F4C
:100F7000EBD118490A44D7788FB92279012AE4D0F5
:100F800003EB85031648D3F89C1112F0E5FF154BCF
:100F9000276143F82560144B43F82560E3E7012FF0
:100FA000D3D12279012AD0D003EB85030F48D3F89F
:100FB0009C1112F0D1FF0B4B277143F825600A4BAF
:100FC00043F8256000232361BFE700BF480F0020DE
:100FD00088350020D0320020A75B0108E15B0108C2
:100FE0001A5C0108402D0020682D0020525C010889
:100FF0002DE9F843DFF83C81044608EB000393F841
:101000002D30022B72D018223C4D3D4E4243A91880
:1010100032448B689268934231D082B309790129B6
:1010200002D13849095C51BB9B1A374A002BB8BF23
:101030005B42012B02D1135D032B59D118270023EA
:1010400032486743135508EB840305EB070937441F
:10105000D3F89C1112F080FFD9F808102C4812F038
:101060007BFFB9682B4812F077FF2B4813F010F87C
:101070002A4BBA6803EB0413C9F808209A601822B7
:101080006243A9183244CB68D26893422ED06AB327
:101090000979012902D11B49095D39BB9B1A204AF4
:1010A000002BB8BF5B42012B02D1135D032B22D171
:1010B0001827002308EB84081A48674313553D445A
:1010C000D8F89C113E4412F047FFE968164812F028
:1010D00043FFF168154812F03FFF154812F0D8FFA2
:1010E0000E48F36800EB0414EB60E360BDE8F8839E
:1010F00001331355C3E701331355F7E78835002053
:10110000D03200202E2A0020E82300208C5C010829
:10111000CE5C0108F25C0108165D010884290020FC
:10112000F22300203E5D0108805D0108A45D0108F6
:10113000C85D0108480F0020F8B50024164D174F70
:10114000E6B295F82030B34224D957F8260001348E
:1011500006F054FDD5F818329842F1D918231049F9
:1011600000220C2073430F4DCC18CE5462700E4AEF
:1011700000FB06225278A2700FCC0FC594E8030042
:1011800085E8030040F2012007F08AF80BF000FE2A
:1011900047F82600F8BD00BF480F0020B0340020FB
:1011A000883500206C350020EC28002038B5054635
:1011B0000024E3B20134E95C01B938BD00200BF032
:1011C0002DFCF6E7F0B5ADF5057D0E460021044691
:1011D000174605A84FF4FE72049112F0B5FE76B3DF
:1011E0004F48FFF7E3FF621C10210020FFF712FABF
:1011F0004C49024604A813F057F804A8FFF7D6FF9D
:10120000E21C10210020FFF705FA4749024604A816
:1012100013F04AF804A8FFF7C9FFE21D08210020D7
:10122000FFF7F8F905464148FFF7C0FFE8B201387B
:10123000052866D8DFE800F0055F656165633C4816
:10124000CFE7002E55D03B48FFF7B0FF3A48FFF7F5
:10125000ADFF621D08210020FFF7DCF93749024687
:1012600004A813F021F804A8FFF7A0FFA21D08218D
:101270000020FFF7CFF93249024604A813F014F812
:1012800004A8FFF793FF04F1080210210020FFF7E4
:10129000C1F92C4982B2054604A813F005F804A848
:1012A000FFF784FFAB062ED5E37B04A8A27A039355
:1012B000A37B25490293637B0193237B0093E37A0D
:1012C00012F0F2FF04A8FFF771FF204B1B78012BEF
:1012D0000CD127441E4DBC4217D13EB9F6221C4901
:1012E00004A812F0E1FF04A8FFF760FF0DF5057DEB
:1012F000F0BD1848A8E71848A6E71848A4E718481A
:10130000A2E71848A0E71848DDE714F8012B2946A2
:1013100004A812F0C9FF04A8FFF748FFDBE700BFED
:10132000F05D0108F85D0108005E0108085E010833
:10133000F45D01080C5E0108F25D0108375E0108EA
:10134000415E01084B5E0108555E0108EB0B002071
:10135000BA690108135E01081A5E01081E5E0108E1
:10136000225E0108265E0108775E01082DE9F04340
:101370009BB006460F460021154602A86022019147
:1013800012F0E2FD3378B4464FF0F00E8DF80430E1
:10139000012318465C1C03F16802B842E4B20DEB6D
:1013A000020151D3F623DFF8F09001F8643C19F8FC
:1013B0000530012B0AD1334B93F8803033B9324BCF
:1013C0001B78012B02D13148FFF7F0FEDFF8CC800B
:1013D00008EB050393F82D30012B09D12C4B214646
:1013E00001A853F8252006F045FD002309F8053033
:1013F000454495F82D30022B06D10DF10408002547
:10140000A4B2ABB29C4236D81F4D2B78012B02D12F
:101410001E48FFF7CBFE1B4C94F8802032B101210F
:101420002046FFF7CFFE002384F880303A460021A3
:101430003046FFF7C7FE2B78012B02D11548FFF786
:10144000B5FE1BB0BDE8F0831CF8012F0130EF2A78
:10145000C0B281BF01F864EC04F16801023302F00C
:101460000F0289BF0DEB010401F8642C04F8642C11
:10147000DCB223468EE718F8011B032001350BF080
:10148000CDFABEE7C0330020EB0B00208A5E0108D6
:10149000D8310020E85E01089C340020480F00206D
:1014A0002DE9F043002791B0044638223946DFF891
:1014B000D89202A8019712F047FDF42301AA08214F
:1014C00038469F4EFFF7DEF80DF1050209EB840365
:1014D00010213846D3F89C31FFF7D4F80DF10702FC
:1014E00009EB840310213846D3F8C431FFF7CAF85A
:1014F00032685107C2F3800340F109813379A34276
:101500001BD1C8258F480EF08DF8B0FBF5F303FB17
:1015100015058D4812F0BCFD394601358B4812F097
:101520001BFD8B48EDB2294612F016FD2B460DF13E
:10153000090208213846FFF7A5F833684FEA041876
:10154000844F13F0080FC3F3C00000F0E580337937
:10155000A3421BD1C8257B480EF064F8B0FBF5F31D
:1015600003FB15057C4812F093FD07EB08037B484D
:10157000997812F0F1FC2946794812F0EDFC2B46DF
:101580000DF10A0208210020FFF77CF801230DF17C
:101590000B0208210020FFF775F807EB080505236B
:1015A00003AA10210020EB80FFF76CF817230DF140
:1015B0000E0208210020FFF765F801230DF10F024C
:1015C00010210020FFF75EF8664B0DF1110220217B
:1015D0000020FFF757F800230DF1150210211846DF
:1015E000FFF750F800230DF1170210211846FFF7FE
:1015F00049F800230DF1190210211846FFF742F8AF
:1016000000230DF11B0210211846FFF73BF8AB68D1
:10161000554A07EB08051821002093420DF11D02E1
:101620008CBF03F1FF330133EB60FFF72BF8182277
:101630004E4B0821002002FB0433EA68DA604C4B71
:101640001A5DB22A94BF01320A221A5508AA1B5DFC
:10165000FFF718F801230DF1210208210020FFF700
:1016600011F801230DF1220208210020FFF70AF8EA
:1016700000230DF1230208211846FFF703F8336811
:101680009A0653D53379A34250D17D252D480DF0CC
:10169000C9FF4744B0FBF5F303FB1505354812F0CD
:1016A000F7FCF9780135344812F056FCFB78EDB2BE
:1016B0003248AB4204BF023DEDB2294612F04CFC69
:1016C0002B4609AA08210020FEF7DCFF00230DF1BC
:1016D000250208211846FEF7D5FF222101A808F0AF
:1016E000FFFF0DF12602034620210020FEF7CAFF6E
:1016F00033689B051ED53379A3421BD1204812F0D5
:10170000C7FC204812F028FC11B0BDE8F0830DF1B1
:101710000902082118460EE707EB08020821937812
:101720000133DBB293700DF10A022DE7A14499F861
:10173000EB30C6E72246262101A8FFF717FEE3E7B4
:1017400064290020A8BB0020455F0108685F0108EC
:10175000875F010884290020A65F0108C95F01088E
:10176000E85F0108AF32E233EFFFFF008835002069
:10177000040200200760010837600108506001087A
:101780006B60010880600108480F00202DE9F047D8
:101790004FF000089EB004463822414610A89E4DE6
:1017A0002701CDF83C8012F0CFFB3C224146684631
:1017B0009A4E12F0C9FBF4236A4608214046FEF710
:1017C00061FF0DF1010205EB8403102105EB840597
:1017D0004046D3F89C31FEF755FFD5F8C431904D03
:1017E0000DF1030210214046FEF74CFF2B6813F069
:1017F000040F00F0F7802B79A34240F0F3804FF004
:10180000C80988480DF00EFFB0FBF9F303FB190976
:10181000854812F03DFCF3198448597812F09CFB7E
:101820004946834812F098FB4B4608210DF105020A
:101830000020FEF727FF2B68190740F1D6802B798F
:10184000A34240F0D2804FF0C80876480DF0EAFE7F
:10185000B0FBF8F303FB1808764812F019FCF319F3
:101860007548997812F078FB4146744812F074FB81
:1018700043460DF1060208210020DFF8E081FEF763
:1018800001FF02230DF1070208210020DFF8D0A19B
:10189000FEF7F8FE18F80430012B40F0A98004F0A0
:1018A00025FC674A04EB440310680AEB43014AF83D
:1018B0001300938863488B8012F0EAFB00206823B2
:1018C00002AA102108F804004FF00609FEF7DAFE1C
:1018D0000DF10A02082109FB04F900200AEB0908AE
:1018E00098F80530FEF7CEFE98F804300DF10B02A3
:1018F00008210020FEF7C6FE98F8033003AA08214D
:101900000020FEF7BFFE1AF809300DF10D02082184
:101910000020FEF7B7FE98F801300DF10E02082105
:101920000020FEF7AFFE98F802300DF110080DF11F
:101930000F0208210020FEF7A5FE012342460821E0
:101940000020FEF79FFE00230DF11102082118462A
:10195000FEF798FE01230DF1120208210020FEF788
:1019600091FE2B689A0748D52B79A34245D12D4883
:101970003E440DF057FE8146334812F089FBF16872
:10198000324812F0E9FA4946314812F0E5FA4B467E
:101990000FAA18210020FEF775FE6A460DF13F03DD
:1019A0001646083303CE464543F8080C43F8041C9A
:1019B0003246F5D131880FA8B278198016219A7075
:1019C00008F08EFE0DF11302034620210020FEF7E1
:1019D00059FE2B689B0513D4224617216846FFF752
:1019E000C5FC16E0F3195B781FE7F3199B7840E715
:1019F000282302AA1021002066E73E44F368C7E7C7
:101A00002B79A342E8D1134812F042FB124812F09E
:101A1000A3FA1EB0BDE8F087480F002084290020FB
:101A200064290020A8BB002092600108B56001086D
:101A3000D3600108A65F0108C95F0108E85F0108DB
:101A4000A43E0020F2600108076101082A61010834
:101A50004B6101086B60010880600108B42300201D
:101A6000FC2300202DE9F04F4FF000089FB0044602
:101A70003822414601A8AE4D2601CDF8008012F073
:101A800063FA3822414610A8CDF83C8012F05CFA87
:101A9000F4236A4608214046A64FFEF7F3FD0DF1F8
:101AA000010205EB8403102105EB84054046D3F8C1
:101AB0009C31FEF7E7FDD5F8C4310DF1030210218A
:101AC00040469D4DFEF7DEFD3B6813F0040F00F02D
:101AD00001813B79A34240F0FD804FF0C80997484F
:101AE0000DF0A0FDB0FBF9F303FB1909944812F0C7
:101AF000CFFAAB199348597812F02EFA494692481A
:101B000012F02AFA4B460DF1050208210020DFF8F9
:101B100068A2FEF7B7FD3B6813F0080F00F0DD8008
:101B20003B79A34240F0D9804FF0C80883480DF0BC
:101B300079FDB0FBF8F303FB1808844812F0A8FA0B
:101B4000AB198348997812F007FA4146814812F0A0
:101B500003FA43460DF1060208210020FEF792FD2C
:101B600001238AF8003004230DF107020821002028
:101B7000FEF788FDAB19DFF80482988818F8043066
:101B800010F0080000F0B780012B02AA4FF01001FE
:101B90004FF000000CBF68232823FEF773FDAB193C
:101BA0009B88990640F1AF8018F80430DFF8D0B177
:101BB000012B11D104F09AFA674A04EB4403106830
:101BC0000BEB43014BF81300938864488B8012F0B1
:101BD0005FFA002308F804304FF006090DF10A02FD
:101BE0000821002009FB04F90BEB090898F80530DF
:101BF000FEF748FD98F804300DF10B020821002093
:101C0000FEF740FD98F8033003AA08210020FEF7F4
:101C100039FD1BF809300DF10D02082100204FF0AD
:101C20001009FEF72FFD98F801300DF10E02082182
:101C30000020FEF727FD98F802300DF10F02082171
:101C40000020FEF71FFD3B689A075FD53B79A34252
:101C50005CD13A4835440DF0E5FC414BB0FBF3F85C
:101C6000C8EB0848A0EB08283E4812F011FAE968D2
:101C70003D4812F071F941463C4812F06DF9434677
:101C80000FAA18210020FEF7FDFC0023DAB2013371
:101C90004A4511463DD303310FA808F021FD20210C
:101CA00003460DEB09020020FEF7ECFC002309F1CE
:101CB00004018AF800303B689B0531D53B79A3428B
:101CC0002ED12B4812F0E4F92A4812F045F91FB042
:101CD000BDE8F08FAB195B7815E7AA190020082141
:101CE00093788AF800000133DBB293700DF106029D
:101CF000FEF7C8FC37E7012B02AA4FF010010CBF1A
:101D00006423242349E74FF00A099CE73544EB6834
:101D1000B6E778326A4412F8781C02F8391CB5E745
:101D2000224601F0FE016846FFF720FBCFE700BF27
:101D3000480F00206429002084290020A8BB00202F
:101D4000455F01086E6101088B610108A65F01080B
:101D5000AA610108C7610108A43E0020F2600108E1
:101D600000FFFF00076101082A6101084B610108BB
:101D70006B6001088060010841340020B42300201A
:101D8000FC2300202DE9F0434FF0000891B00446F9
:101D900038224146744D02A8CDF8048012F0D4F8E0
:101DA000F42301AA08214046704EFEF76BFC0DF1AA
:101DB000050205EB8403102105EB84054046D3F8AA
:101DC0009C312701FEF75EFCD5F8C4310DF1070206
:101DD00010214046664DFEF755FC336813F0040FA2
:101DE00000F0AE803379A34240F0AA804FF0C809DA
:101DF00060480DF017FCB0FBF9F303FB19095E48CE
:101E000012F046F9EB195D48597812F0A5F84946E9
:101E10005B4812F0A1F84B460DF1090208210020A1
:101E2000FEF730FC33681A0740F18D803379A34206
:101E300040F089804FF0C8084E480DF0F3FB3D4458
:101E4000B0FBF8F303FB18084E4812F021F9A9780B
:101E50004D4812F081F841464C4812F07DF8434657
:101E60000DF10A0208210020494DFEF70BFC062364
:101E70000DF10B0208210020DFF82881FEF702FC9B
:101E80002B5D012B65D104F031F9424A04EB440388
:101E9000106808EB430148F8130093883E488B8094
:101EA00012F0F6F80020692303AA1021285506270E
:101EB000FEF7E8FB0DF10E0208216743002008EB56
:101EC00007056B79FEF7DEFB2B790DF10F02082178
:101ED0000020FEF7D7FBEB7804AA08210020FEF7CC
:101EE000D1FB18F807300DF1110208210020FEF790
:101EF000C9FB6B780DF1120208210020FEF7C2FB2E
:101F0000AB780DF1130208210020FEF7BBFB102176
:101F100001A808F0E5FB05AA034620210020FEF7F2
:101F2000B1FB33689B0519D53379A34216D11B4801
:101F300012F0AEF81A4812F00FF811B0BDE8F083B5
:101F4000EB195B7868E73D44AB780133DBB2AB70EB
:101F500086E7292303AA10210020A8E7224614219E
:101F600001A8FFF703FAE8E7480F002064290020E2
:101F700084290020A8BB0020455F01086E6101088C
:101F80008B610108A65F0108AA610108C761010809
:101F9000B4230020A43E0020F26001086B60010819
:101FA00080600108FC2300202DE9FF47624C0027D8
:101FB000624812F06DF894F82110614811F0CCFFDE
:101FC000D4F818125F4811F0C7FFD4F81C125E480D
:101FD00011F0C2FFD4F820125C4811F0BDFFD4F814
:101FE00024125B4811F0B8FFDFF89481B4F8F610C2
:101FF0005848DFF8909111F0AFFFDFF88CA194F80A
:1020000021104F4811F0A8FF94F82130FDB2AB42E7
:1020100034D894F83A30002694F8382094F83710E1
:1020200000934D4894F8393011F096FF94F84430FD
:1020300094F84020029394F8433094F83F100193B1
:1020400094F8423045480093DFF8408194F84130DD
:10205000DFF83C9111F080FFDFF838A1B4F8F610FA
:102060003F4811F079FF94F82030F5B2AB4223D805
:10207000324804B0BDE8F04712F00AB804EB850618
:1020800029464046013796F84E30019396F84D3078
:10209000009396F84C3096F84B2011F05DFFB6F89F
:1020A000FA202946484611F057FFB6F8FC20294689
:1020B000504611F051FFA7E7691C404611F04CFF54
:1020C000484604EB850367190136D3F89C1111F0DB
:1020D00043FF504604EB8503D3F8C41111F03CFFD5
:1020E000204804EB4503B3F8EC1111F035FF97F8E5
:1020F000EB101D4811F030FF97F823101B4811F02A
:102100002BFF97F82D101A4811F026FF05F18A03CE
:10211000184854F8231011F01FFF05F194039E3561
:10212000154854F8231011F017FF54F825101348E0
:1021300011F012FF97E700BF480F0020E861010887
:10214000396201085B6201087E620108A862010829
:10215000D4620108FF620108676301088363010814
:10216000EB820108F6630108126401082A64010881
:102170003B6401084E640108696401088264010837
:102180002A6301084763010857630108B163010826
:10219000C4630108DD6301082DE9F0470026214DE5
:1021A000DFF89480DFF894A0F4B295F82030A342D1
:1021B00001D8BDE8F08758F8240088B304F19407EB
:1021C00005F01CFD55F82730984229D95AF824000B
:1021D00005F014FD55F82730984221D9DFF86090BA
:1021E00019F80430012B1BD00F4B53F82430B3F5F2
:1021F0007A7F15D958F82400012705F0FFFC4FF429
:102200007A71B0FBF1F1094811F0A6FE084B2146A6
:1022100020461F55FFF744F9064B09F804701F5577
:102220000136C1E7480F0020F02C00209C64010813
:102230009C340020242A0020402D0020F42E002071
:10224000422A00202DE9F8430026DFF86080DFF8FD
:102250006090154FF4B298F82030A34201D8BDE841
:10226000F883182303FB04931B79012B05D008EB9B
:10227000040393F82D30022B13D13B5D012B10D1B9
:10228000A51C07EB8505686805F0B8FC322808D95D
:1022900021462046FFF77AFA00233B554FF0FF33E3
:1022A0006B600136D6E700BFD8340020480F00200D
:1022B000883500202DE9F84300261B4FDFF8788091
:1022C000DFF8789097F82030F4B2A34201D8BDE847
:1022D000F88358F8240020B3182505FB0495EB7803
:1022E000FBB105F08BFC04F18A0357F823309842C8
:1022F00017D907EB84014FF47A720C48D1F89C117E
:10230000B3FBF2F211F028FE58F82410084811F03F
:1023100023FE0AF03DFD0146064811F01DFE002394
:10232000EB700136CEE700BF480F0020C8640108FB
:10233000FB64010829650108682D0020883500200C
:102340002DE9F041214E0546331893F82330012B37
:1023500002D00120BDE8F0811D4B1B78012BF8D184
:1023600006231C4A4FF46167434302EB0308D05C29
:1023700003F09AFE044698F8010003F095FE02B2BD
:1023800098F80200C2EB0212920007FB042403F04B
:102390008BFE044403F0AAFE0F4A53781078C3EB77
:1023A00003139900937807FB00111944611A00295F
:1023B000B8BF49420129CCDD06EB85050748D5F8B1
:1023C0009C2111F0C9FD0020C4E700BF480F002088
:1023D000502A0020FC230020AA3E0020346501087A
:1023E0002DE9F04F0E4605461446DFF8C093053E32
:1023F0002DED028B83B008EE103A0AF0C9FC0746B7
:10240000B1B2284608F06CF98046AA1920210020B4
:10241000FEF700F98045009013D009EB8404C94809
:10242000D4F89C1111F098FD0099C74811F094FD63
:102430004146C64803B0BDEC028BBDE8F04F11F039
:102440008BBD04F1F408C24B4FF0010AC14E09EBF9
:10245000480805F11D0203F804A01021002006F829
:1024600004A0FEF7D7F8B8F8042083B283469A4256
:10247000B94B1DD003F804A009EB8403B748D3F887
:102480009C1111F069FDB6481FFA8BF111F064FD43
:10249000B8F80410B34811F05FFDB34909EB0A0026
:1024A000FDF7CEFE30B103B0BDEC028BBDE8F08F7E
:1024B00000221A5509EB040A05F124020821002024
:1024C000FEF7A8F89AF8EB305FFA80F8434540F041
:1024D0002081A64B4FF0010BDFF8D482102143F886
:1024E000247005EB0B02A24B4FEA441A06F804B025
:1024F00000261E5530469F4B43F8247008EB4417C6
:10250000FEF788F881B238829B4811F025FDEA1C5D
:1025100010213046FEF77EF8F88181B2974811F01D
:102520001BFD6A1D08213046FEF774F8AA1D08211C
:1025300008F80A003046FEF76DF8EA1D08217870A9
:102540003046FEF767F805F10802B87010213046F2
:10255000FEF760F88A4B80B203EB04139880830681
:1025600000F128810A26AA190821002008EB441A44
:10257000FEF750F8721C63018AF803002A44102108
:1025800000200193FEF746F8F21C0423AAF812007B
:10259000AF18A85803EB441306F10902A14448F808
:1025A000030008EB0301BB882A440020754F8B8091
:1025B0001021FEF72FF806F10B02AAF814001021E3
:1025C0002A440020FEF726F806F10D02AAF81600AC
:1025D00010212A440020FEF71DF806F10F02AAF888
:1025E000180018212A440020FEF714F81822644B22
:1025F000082102FB047203EB041B906006F1120237
:10260000CBF8080000202A44FEF704F85C4BC0B267
:10261000082122018BF80200985406F113020020D1
:102620002A44FDF7F7FF06F114028AF80A00082190
:102630002A440020FDF7EEFF99F8EB30C0B206F116
:10264000150A83428BF803000CD04F4811F020FD8F
:1026500099F8EB104D4811F07FFC9BF803104C48A3
:1026600011F07AFC05EB0A0208210020FDF7D2FFE9
:1026700006F11602630108212A4408EB030989F8D0
:102680000B000020FDF7C6FFC1B2012989F80C102C
:1026900006F1170905D03F4811F05EFC3E4811F0E5
:1026A000F7FC05EB090208210020FDF7B3FF06F156
:1026B0001802630120212A44384D984488F80D00FF
:1026C0000020FDF7A7FF18EE101AC8F81C002046DE
:1026D000FEF7E6FE1823009A6343FE18FC5404EB51
:1026E00044037261012207EBC307727172700FCF4E
:1026F0000FC597E8030085E8030040F2012005F0CC
:10270000CFFD002373700AF043FB254B43F82400F0
:10271000C9E609EB84032348D3F89C1111F01CFC93
:102720009AF8EB10194811F017FC4146184811F0BF
:1027300013FC0D491C48FDF783FD00283FF4C9AE8A
:10274000B1E600BF726501088D6501089C6501084E
:102750002E2A0020B8310020AA230020AB650108F2
:10276000E36501080566010827660108402D002081
:10277000422A0020F02C0020336601083A66010846
:1027800084290020883500209166010869660108C7
:102790007D660108AB660108D66601086C3500202D
:1027A000B034002041660108490F0020480F002086
:1027B000DC2400204FF0060A05F10A020821304609
:1027C000FDF728FF0AFB04FA194B05F10B0208215B
:1027D00003EB0A0778713046FDF71CFF05F10C0288
:1027E000082138713046FDF715FF05F10D0208216B
:1027F000F8703046FDF70EFF0D4B05F10E02082173
:1028000003F80A003046FDF705FF05F10F02082125
:1028100078703046FDF7FEFEB8702046FFF790FD59
:10282000044B10B11E5510269DE603F804B0FAE7DC
:10283000FC230020B42300202DE9F8430026154F87
:10284000DFF85490DFF85480F4B297F82030A342B8
:1028500001D8BDE8F8830C252046FEF7C9FB05FB2F
:102860000495686805F0CAF904F18A0357F8233023
:1028700098420DD96B78012B0AD158F824206B6847
:102880009A4205D000236B700AF082FA48F82400BF
:102890000136D9E7480F0020EC2800205C300020EA
:1028A0002DE9F74F42494348FDF7CAFC002878D18B
:1028B00003B0BDE8F08F002955D1002223F8142081
:1028C0000AF066FA49F8240008F1010897F8203068
:1028D0005FFA88F4A342EBD93B1993F82D30012B12
:1028E000F2D059F8240005F089F941F28733984273
:1028F00004D9314B33F81430012BE1D1DFF8DCB0CF
:10290000DFF8DCA01BF804302C4E012B0ED12C4B31
:102910001B5D5BB914236343F218534402F11401A5
:1029200052F8040B8A4243F8040BF9D1142565438D
:102930000AEB05023544518A6B8A019299422ED0E6
:10294000204B53F8240005F059F9B0F57A7FBBD33A
:10295000019A0121184B528A23F81410698A002A1F
:10296000A9D10029A9D1164B14251BF80420195D03
:102970006543154811F0F0FAAA4407EB84032E448E
:102980001248D3F89C1111F0E7FABAF81210104867
:1029900011F0E2FA718A0F4811F0DEFA90E7064B67
:1029A0008BE74FF000080C4FDFF838908EE700BF40
:1029B00027660108490F0020AC2E00201C2F0020A4
:1029C000A6340020902D0020EF660108FA66010869
:1029D0000467010812670108480F0020E82E002054
:1029E000E42D0020C023002070B50446184E0AF0E4
:1029F000CFF918230546174803FB04639A78164B52
:102A0000012A12D11549025541F824500C2101FB2D
:102A100004335D605A70182303FB04667378012B3E
:102A200004BF0F4B43F8245070BD0C22002102FB61
:102A3000043301559D600B485970142303FB0402B5
:102A4000104651821022013011F07EFAE3E700BFF8
:102A5000D0320020E82E0020E42F0020C02E0020DD
:102A6000F42E00201C2F0020084B034410B593F8CF
:102A70002D300446022B04D0FEF744FA2046FEF720
:102A8000B7FA2046BDE81040FFF7AEBF480F002060
:102A90002DE9F84F26492748FDF7D2FB002840D101
:102AA000BDE8F88F58F8240005F0A8F804F19E035B
:102AB00056F8233098422DD958F8243059F824205C
:102AC0009A4227D04FF0140A49F8243006EB8403C9
:102AD00019480AFB04FA194DD3F89C114FF0000B6A
:102AE00011F03AFA0AF10100154B1022284455441E
:102AF000594603F804B011F027FAA5F812B01823CC
:102B0000104D03FB0455286905F078F8286120462C
:102B1000FFF76AFF0137FCB296F82030A342C1D814
:102B2000BEE70027084EDFF82480DFF82490F2E7A4
:102B300027660108490F002021670108E42D0020C5
:102B4000A634002088350020480F0020B82D002032
:102B50007431002038B5134D286805F04FF8B0F5F2
:102B60007A7F1ED9104C1421104B226801FB0233CE
:102B70000F4A591853F8040B8B4242F8040BF9D151
:102B800040F2072005F08CFB23680A4A013392F8D3
:102B900020202360934204BF002323600AF0F8F84A
:102BA000286038BD0032002084350020E42D00204C
:102BB00078360020480F00202DE9F04FB94CADF2D7
:102BC000B46DB94894F8221011F0C6F994F8223087
:102BD000002B00F063814FF45672002168460026F6
:102BE00011F0B2F94FF4567201253746DFF8F08242
:102BF00000210DEB020011F0A7F994F82020F3B2A8
:102C00009A4272D8002D40F04281A6494FF4567284
:102C1000A648A84611F070F9A54B0122A548D6AEEA
:102C20001A7011F035FAA448AE4694F820902B465D
:102C300000F2791100F2C91C2A465FFA8EF7B945F5
:102C400065D80DB18DF82020B8F1000F01D08DF8B6
:102C5000783394F821506B46924A0021C8B204326E
:102C60000433854200F2BE809DF82050002D31D003
:102C7000AE002A460DF123018F4811F03DF92A4696
:102C80000DF12D018D4811F037F9324667A92FB2A9
:102C90008B4811F031F9324671A98A4811F02CF9AC
:102CA0007BA97A00884811F027F92A460DF1EB013B
:102CB000864811F021F932468AA9854811F01CF99D
:102CC000324694A9834811F017F932469EA98248EA
:102CD00011F012F99DF87833002B40F09D800DF231
:102CE000B46DBDE8F04FFFF75FB9234493F82D3082
:102CF000022B0AD0012B06D12FB1002594F8221007
:102D0000404611F029F9013677E70127FBE7877A7A
:102D1000012F34D10DEB020A05780DEB820B8AF8F6
:102D200023500D688AF82D70CBF89C518D6ACBF832
:102D3000C4510DEB4205BCF800B0A5F8ECB190F819
:102D4000C8508AF8EB5002F18A0AD1F88C504DF83D
:102D50002A5002F1940AD1F8B4504DF82A5002F1E9
:102D60009E0AD1F8DC5001324DF82A50D2B23D46CD
:102D70000EF1010E013004310CF1020C5DE7022F5F
:102D8000F6D106EB030890F800A088F82D7088F8BB
:102D900023A006EB830A0F68CAF89C718F6ACAF8F1
:102DA000C47106EB4307BCF800A0A7F8ECA190F8AB
:102DB000C87088F8EB7003F18A08D1F88C7046F877
:102DC000287003F19408D1F8B47046F8287003F124
:102DD0009E08D1F8DC70013346F82870DBB24FF062
:102DE0000108C5E792F84700013183F8470092F8DF
:102DF000480083F8480092F8490083F8490092F8A7
:102E00004A0083F84A00B2F8F600A3F8F600B2F8D8
:102E1000F800A3F8F80021E72B440DF27B310DF206
:102E2000F4420DF24456DBB2601911F8017B52F8FE
:102E300004CB80F823704F7A80F82D7004EB85075F
:102E4000C7F89CC1BC46576ACCF8C47104EB45076F
:102E500036F802CBA7F8ECC191F8C77080F8EB7098
:102E600005F18A00D2F8887044F8207005F19400CA
:102E7000D2F8B07044F8207005F19E000135D2F808
:102E8000D870EDB244F82070AB42CDD127E713489B
:102E90000DF2B46DBDE8F04F11F0FAB80DF2B46D5B
:102EA000BDE8F08F480F002041670108EC0B0020BF
:102EB000CC3200209C6701086B0F0020750F0020AA
:102EC000E41000200C1100203411002033100020E9
:102ED0007011002098110020C0110020086801081E
:102EE000696701082DE9F8431B4B1B78012B30D192
:102EF0001A4CA222002100252046194E11F024F878
:102F0000DFF864C0BCF80030238096F82080EBB274
:102F100098451ED903F16600124F002106EB800090
:102F2000CAB2904513D957F8049B8E4642680131C6
:102F30004A45F5D10CEB0E1204EB0313911C12322F
:102F4000023351F8040B914243F8040BF9D10135D7
:102F5000DBE7BDE8F88300BFCC3200203824002036
:102F6000480F0020880D0020D83600202DE9F04FB2
:102F70004FF0000914460646D44F4FEA04182DEDD1
:102F8000028BA7B008EE103A029109F001FF7C22F3
:102F90004946009007A8CDF8189010F0D5FFCC490D
:102FA000CC48FDF74DF9002800F03282CA4B1A6870
:102FB000D20740F1F8811B79A34240F0F481C74D5C
:102FC000C7480CF02FFBB0FBF5F5C5EB0545A0EBB2
:102FD0000525C44811F05CF807EB0803C24899685E
:102FE00010F0BAFF2946C14810F0B6FF2B4606AADA
:102FF00018210020FDF746FB029A0023A2F1050AE2
:10300000D9B201335145C0F2D281033106A806EB93
:103010000A0B07F065FB814620215A460020FDF788
:10302000F9FA814505464BD0721D08210020019216
:10303000FDF7F0FA019A002840F0C081AC4811F089
:1030400027F88022002106A810F07EFF07EB080376
:1030500006AA18219B6800200133FDF713FB00230B
:10306000D9B201338A4500F3B781033106A807F0CE
:1030700037FB81465A4620210020FDF7CBFA8145D7
:10308000054640F0B08107EB08099A4811F000F8B6
:103090002946994810F060FFD9F80810974810F0B9
:1030A0005BFFD9F8081096480131C9F8081010F0F4
:1030B00053FF1822934B02FB0433D9F808209A607F
:1030C000009A0021904B4FF0300ADFF8689243F8E5
:1030D00024208E4B43F8242001228D4B1A5504EBFB
:1030E0004413402209EB4303184610F02DFF029AC7
:1030F000314610F001FFBDF80830721C1021059315
:103100004223002003FB0499059BA9F84030DFF817
:103110002892FDF77FFA81B20AFB049AAAF82800E8
:103120007C4810F019FFF21C10210020FDF772FA04
:10313000AAF8260081B207EB080A774810F00CFFC6
:10314000721D08210020FDF765FAB21D8AF8020001
:1031500008210020FDF75EFAC0B28AF80100D8B954
:103160006E4B6F4803EB8403D3F89C1110F0F4FE10
:10317000DAF80C106B4810F0EFFEDAF80C106A4821
:103180000131CAF80C1010F0E7FE18225D4B02FB6B
:103190000433DAF80C20DA60F21D0821002007EB76
:1031A000080AFDF737FA3023102106F1080203FB65
:1031B000049989F802000020FDF72CFA44491FFA0F
:1031C00080F94448AAF80490FDF73AF818B949F094
:1031D0000809AAF80490B844B8F804309B0640F1F6
:1031E0001B814FF00609DFF854A106F10A020821FD
:1031F00009FB04F90020FDF70DFA06F10B020AEBBA
:103200000908082188F805000020FDF703FA06F1F7
:103210000C02082188F804000020FDF7FBF906F1F4
:103220000D02082188F803000020FDF7F3F906F1EC
:103230000E0208210AF809000020FDF7EBF906F15B
:103240000F02082188F801000020FDF7E3F988F853
:1032500002002046FFF774F8344B002800F0DA80B3
:1032600000224FF0100A1A5507EB0417DFF8C89038
:103270004FF0300806EB0A02BB88082108FB0498CF
:10328000002003F008030AF102070393FDF7C2F9D7
:10329000C1B288F80300264810F05EFE0AF1010270
:1032A000082100203244FDF7B5F998F8033088F87A
:1032B00004004FF0000813F0070F4FEAD30314BFC8
:1032C0000133DBB2019304EB440339E0842900208D
:1032D00027660108490F00206429002000FFFF0035
:1032E000A8BB00201A680108396801085F68010856
:1032F000856801089F680108B6680108D36801085D
:10330000F068010888350020402D0020682D00203D
:10331000C2310020336601083A660108480F0020D8
:103320004B6901088D6901089D690108B4230020DB
:10333000AC6901085C2A00200C270020FC23002037
:10334000BDF804A04FEA031B0BF105039944CDF827
:1033500010901FFA88F317FA88F29A4592B25ED855
:1033600057440A20DFF85883BBB2049310F00CFED8
:10337000BA4B234493F82D30022B08D13023B848A0
:1033800003FB0483597901F0010110F0E5FD0BF115
:1033900015074FF0300B4FF0000A4744DFF8208349
:1033A0000BFB048B55E007EB08039B681FE601F15C
:1033B0009802715C6A4402F87D1C21E60821002015
:1033C000FDF728F901283FF439AEA44AA54802EBDD
:1033D0008404D4F89C110CE001F19802715C6A44F9
:1033E00002F87D1C3CE69D4A9F4802EB8404D4F819
:1033F0009C1110F0B1FD29469C4810F0ADFD4946E6
:103400009B4810F0A9FD27B0BDEC028BBDE8F08F02
:10341000054655E6012224E74FF00A0A24E7324424
:1034200008210020FDF7F6F8049BC2B2414603F8DC
:10343000010B08F101088F48049310F08DFD88E717
:103440000AF1010A324408210020FDF7E3F807F8E9
:10345000010B1FFA8AF3049A9BF8041012FA8AF2FD
:10346000994292B2ECD818EE101A2046FEF78AFC68
:10347000814B0122814F1A5503EB8403009ADA60D5
:10348000182303FB04731B79012B11D17C4B4622BB
:103490000021184610F058FD059A048031468280BC
:1034A0000630029A10F028FD40F2032004F0F8FEE6
:1034B0006A4B234493F82D30022B00F0B880039B15
:1034C0001E1E18BF012604EB8403DFF8F8811022CA
:1034D00000219B0003F1010B029308EB0B0A5046FD
:1034E00010F032FD019A4946504610F005FD514654
:1034F000019A002007F082F81422019B6243DFF852
:10350000C8A108EB020108F802404B744882029BF4
:10351000002E4AD00AEB0B091022002101934846E5
:1035200010F012FD019B0AEB03024344114603F124
:10353000140053F804CB834241F804CBF9D1514B2A
:10354000009943F82410142303FB04A3598A4E4B1B
:1035500033F81400884228D023F8141013464B4A3D
:1035600003F1140153F8040B8B4242F8040BF9D118
:1035700040F2072004F094FE454B33F81430A3B911
:10358000444B09F1100203EB0413023359F8041BF6
:10359000914543F8041BF9D1FFF7A4FC40F2191040
:1035A00004F07EFE3C4B009A1A6018234FF0140979
:1035B000634309FB04A907EB0308FC540123B9F892
:1035C0001220C8F8145088F8013004EB4403A8F81E
:1035D0000620022207EBC30788F8026088F805205E
:1035E0002E4D0FCF0FC597E8030085E8030040F28A
:1035F0000120002504F054FE294B009A294943F884
:1036000024200C23284A88F80150002E00F08380E3
:10361000009D03FB04222548556040F82450567055
:103620000E554FF4807122480AF08FFEEBE63023EE
:1036300003FB048898F8056016F0010646D11D4882
:1036400010F026FD1C4B0122314648461A55102227
:103650001A4B1E5510F078FC35E700BF480F0020CC
:10366000C0690108376901081A6901088D650108F8
:103670009C650108B3690108D83400208835002012
:103680008C360020902D00209C31002078360020C0
:10369000AC2E0020D8360020E02D00206C35002014
:1036A000B0340020A6340020EC280020B82D0020E3
:1036B000001C0240D6690108A0230020512A0020E6
:1036C0000C27002004320020E42D0020039B03B3CC
:1036D000DFF868A01AF80480B8F1010F7FF4F3AEA8
:1036E000144E1548315D0131C9B2315510F034FC2A
:1036F000335D032B06D900230AF804300423335525
:103700004646E0E6102200214846002610F01CFC48
:10371000D9E6039ED7E60D550AEB0B0003FB042404
:10372000009B10222946A360657010F00DFCA9F8DB
:10373000125076E7512A0020E6690108A0230020F4
:103740002DE9F04FB5B00E461446814609F020FB36
:10375000002100907C2215A8149110F0F5FB0E4971
:10376000422303FB0413B3F84030B3421AD104EBF5
:1037700044133246484601EB430110F0ADFB88B9D3
:10378000064A074802EB8404D4F89C1110F0E4FBCD
:1037900035B0BDE8F08F00BF5C2A0020480F002044
:1037A000F8690108053E20210020D04F09EB060BE7
:1037B0005A46FCF72FFFCE4B01901A6812F0010F0A
:1037C00000F0E6811B79A34240F0E281C948182548
:1037D0000BF028FFC84BB0FBF3F8C8EB0848A0EB90
:1037E0000828C64810F054FC05FB0473C4489968C7
:1037F00010F0B2FB4146C34810F0AEFB434614AA9A
:1038000029460020FCF73EFF0023D9B20133B14224
:10381000C0F2C481033114A806F062FF019B804608
:1038200009F1050A834248D0524608210020FCF7DE
:10383000F1FE0546002840F0D081B34810F028FC86
:103840008022294614A810F07FFB182114AA2846CC
:1038500001FB04739B680133FCF714FFE9B20135E7
:103860008E4200F3A381033114A806F039FF054608
:103870005A4620210020FCF7CDFE8542064640F046
:103880009D811826A14810F003FC29466643A048F4
:1038900010F062FB9F4837449F4DB96805EB041553
:1038A00010F05AFBB9689D480131B960A96010F069
:1038B00053FB9B4B1E44AB68B36009F1010210211E
:1038C0000020FCF7A7FEADF8480081B2954810F043
:1038D00043FB09F1030210210020FCF79BFEADF829
:1038E000460081B2904810F037FB52460821002074
:1038F000FCF790FE09F1060208210020FCF78AFE81
:1039000009F1070208210020FCF784FE09F10802F2
:103910008DF8220010210020FCF77CFE820683B285
:10392000019340F1688109F10A0208210020102763
:10393000FCF770FE09F10B0208210020FCF76AFE7B
:1039400009F10C0208210020FCF764FE09F10D02C8
:1039500008210020FCF75EFE09F10E02082100207C
:10396000FCF758FE09F10F0208210020FCF752FE77
:1039700009EB0702082100200DF1250AFCF74AFE99
:103980004FF00008C5B2694829468DF8235010F061
:10399000E3FA7A1C082100204A440237FCF73AFE79
:1039A00015F0070F4FEAD5055FFA80FB14BF01350C
:1039B000EDB28DF824B0AEB21FFA88F317FA88F290
:1039C0009E4292B200F219813E440DF135080A2060
:1039D000B6B210F0D9FAB3441FFA8BFB5E4540F043
:1039E0001B81102200210DF10D0027B210F0ACFA5E
:1039F0002A460DF125010DF10D0010F07DFA2A4641
:103A00000DF10D01002006F0F9FD494BADF81E0047
:103A100023448DF81D508DF80C4093F82D30012B68
:103A200040F09680019B1B0740F19280DFF81C81DB
:103A3000142303FB04835B8A834200F0898007EB35
:103A4000870510220021AD00681C08EB00063046F7
:103A500010F07AFA08EB05030DF10C0C0DF11C0EB9
:103A60001A466546083203CD754542F8080C42F8FF
:103A7000041CAC46F5D12868106000992D4A42F824
:103A80002410142202FB0482518A2B4A32F81400BB
:103A900088425DD022F8141003F11401274A53F82C
:103AA000040B8B4242F8040BF9D140F2072004F0DA
:103AB000F7FB234B33F81430002B49D1214B304610
:103AC00006F1100203EB0413023350F8041B90427A
:103AD00043F8041BF9D1FFF705FA40F2191004F07E
:103AE000DFFB194B009A1A6032E000BFD032002091
:103AF00064290020A8BB002000FFFF001A6801080D
:103B0000396801085F68010885680108396A010899
:103B1000B66801085B6A010884290020F068010882
:103B200088350020336601083A660108906A01086A
:103B3000480F0020902D00209C3100207836002076
:103B4000AC2E0020D8360020E02D0020E42D0020EF
:103B50001823374D07EB4707364E6343EC5405EB0C
:103B60000308012305EBC70588F801300FCD0FC608
:103B700095E8030086E8030040F2012004F090FB82
:103B80000023009A88F801302B4B43F82420FFE5EE
:103B9000182114AA01FB04739B6832E601F1D002DC
:103BA00019F801106A4402F87D1C2EE601F1D003D9
:103BB00019F801206B4403F87D2C4FE61F4A20487A
:103BC00002EB8404D4F89C1110F0C6F931461D486C
:103BD00010F0C2F929461C48D8E5184A184802EBEB
:103BE0008404D4F89C1110F0B7F90199154810F02D
:103BF000B3F94146EFE70A27BAE64A440821002014
:103C0000FCF708FD4146C2B20AF8010B0F4808F163
:103C1000010810F0A1F9CFE609EB060201360821F0
:103C20000020FCF7F7FC08F8010BB6B2D6E600BF9F
:103C3000883500206C350020B0340020480F00206B
:103C4000746A01088D6501089C650108986A01087D
:103C50002DE9F04F4FF000091446054624228A460C
:103C60004946D64F4FEA04182DED028B8DB008EE71
:103C7000103A03A8CDF8089010F066F909F088F81A
:103C8000CF490090CF48FCF7DBFA002800F01882FB
:103C9000CD4B1A68D10740F1E0811B79A34240F077
:103CA000DC814FF6FF76C9480BF0BCFCB0FBF6F6A2
:103CB000C6EB0646861BC64810F0EAF907EB080378
:103CC000C448996810F048F93146C34810F044F9E7
:103CD000334602AA18210020AAF1050AFCF7D2FCFB
:103CE0000023D9B201335145C0F2BB81033102A890
:103CF00006F0F6FC834605EB0A0220210020FCF7C3
:103D000089FC8345064647D06A1D08210020DFF85C
:103D10000493FCF77FFC04F16603C0B2012800F2B3
:103D2000C28109EB8303AD48596810F015F92822C8
:103D3000002102A810F008F907EB080302AA1821D5
:103D40009B6800200133FCF79DFC0023D9B20133AE
:103D50008A4500F38D81033102A806F0C1FC86423A
:103D6000824640F08C8107EB08099D4810F090F9DD
:103D70009C48D9F8081010F0EFF8D9F808109A48C4
:103D80000131C9F8081010F0E7F81822974B02FB30
:103D90000433D9F808209A60DFF87C924FF00C0ABF
:103DA0006A1C10210AFB049A0020FCF733FC07EB85
:103DB000080BAAF80600EA1C10210020FCF72AFCD8
:103DC0006A1DAAF8040008210020DFF848A2FCF7C9
:103DD00021FCAA1D8BF8020008210020FCF71AFC28
:103DE000C0B28BF80100D0B90AEB84038048D3F845
:103DF0009C1110F0B1F8DBF80C107E4810F0ACF814
:103E0000DBF80C107C480131CBF80C1010F0A4F852
:103E10001822764B02FB0433DBF80C20DA60EA1D33
:103E20000821002007EB080BFCF7F4FB0C23102102
:103E300005F1080203FB049989F802000020FCF751
:103E4000E9FB5F491FFA80F95E48ABF80490FCF784
:103E5000F7F918B949F00809ABF8049007EB080323
:103E60009B889A0640D505F10A0208210020DFF858
:103E7000ACB1FCF7CFFB062305F10B02082163432D
:103E80000BEB0309019389F805000020FCF7C2FB46
:103E900005F10C02082189F804000020FCF7BAFBA8
:103EA00005F10D02082189F803000020FCF7B2FBA0
:103EB000019B05F10E0208210BF803000020FCF71E
:103EC000A9FB05F10F02082189F801000020FCF789
:103ED000A1FB89F802002046FEF732FA474B002882
:103EE00000F0F08000221A55474418EE101A2046C0
:103EF0003E4DBF884FF01808FDF7B4FD009A404BC7
:103F000008FB045807F00807DFF8149143F8242051
:103F10003C4BD8F8100043F8242003F06FFE0AEB66
:103F20000403C8F8100093F82D30022B40F0E28013
:103F3000354BDFF8F0801A5DDFF8ECB0032A00F2B1
:103F4000C380302303FB04835B79DB0700F1BC8073
:103F50001BF80430012B40F0B780002718234FF0E6
:103F6000140ADFF8C8C063430AFB049B05EB03088F
:103F7000EC54BBF8122004EB4403C8F8146001268B
:103F8000A8F8062005EBC305042288F8016088F82C
:103F9000027088F805200FCDACE80F0095E803000B
:103FA00000258CE8030040F2012004F079F9174B5A
:103FB000009A174943F824200C2239E08429002074
:103FC00027660108490F002064290020A8BB0020B3
:103FD0001B680108A76A01085F680108CB6A01082D
:103FE0009F680108EF6A0108066B01088835002008
:103FF0004B690108526B01085D6B0108B423002076
:10400000402D0020682D0020512A0020B0340020CF
:10401000A6340020480F002094260020FC23002016
:10402000E42D00200C270020A02300206C35002068
:10403000624B88F80150002F00F0AF80009D02FB1A
:1040400004335F485D6040F824505F700F554FF4B3
:1040500080715C480AF079F920E007EB08039B685F
:1040600037E601F13002695C6A4402F8251C38E643
:1040700001F13002695C6A4402F8251C66E609EB2E
:1040800084045148D4F89C110FF066FF31464F4824
:104090000FF062FF51464E480FF05EFF0DB0BDECD1
:1040A000028BBDE8F08F09EB83094A48D9F8041068
:1040B0000FF052FF314645480FF04EFF5946EAE7F0
:1040C000064669E601220EE70AEB840A4248DAF85E
:1040D0009C110FF041FF1BF8041040480FF03CFF0B
:1040E00030233F4803FB048898F8051001F00101D4
:1040F0000FF032FF002F3FF430AF04EB84020021B9
:104100004FEA8208102208F1010009EB0007384647
:104110000FF01AFF334A09EB08034244194602F133
:10412000140052F804CB824241F804CBF9D1142296
:1041300002FB0492518A2C4A32F81400884201D1C1
:1041400001270BE722F8141003F11401274A53F852
:10415000040B8B4242F8040BF9D140F2072004F023
:104160009FF8234B33F81430002BE9D1214B38460C
:1041700007F1100203EB0413023350F8041B9042C2
:1041800043F8041BF9D1FEF7ADFE40F2191004F01C
:1041900087F8194B009A1A60D2E702FB04331AFB26
:1041A0000460009A0D5548449A60294610225D70BB
:1041B0000FF0CAFEABF8125049E700BFEC28002010
:1041C000B82D0020001C02401E6B01088D650108FF
:1041D0009C6501083C6B0108686B0108756B010860
:1041E0008A6B0108043200209C31002078360020C0
:1041F000AC2E0020D8360020E02D00202DE9F04F15
:104200000F4605461446053F2DED028B83B008EEA0
:10421000103A08F0BDFD0646B9B2284606F060FA2D
:104220008146EA1920210020C64FFCF7F3F98145A9
:10423000804613D007EB8404C348D4F89C110FF0D8
:104240008BFE4146C1480FF087FE4946C04803B087
:10425000BDEC028BBDE8F04F0FF07EBEBD4B6A1C7B
:104260001021002043F824604FF00C0ABA4BDFF80D
:1042700040B343F82460FCF7CDF9B84BEA1C102199
:104280000AFB043A0BEB0419AAF806000020FCF71D
:10429000C1F96A1DAAF8040008210020FCF7BAF948
:1042A000AA1D2301082189F8020000200193FCF7D0
:1042B000B1F9EA1D082189F801000020FCF7AAF9EC
:1042C00010218AF8020005F108020020FCF7A2F98B
:1042D000A3491FFA80FA781CA9F804A0FBF7B0FFE5
:1042E00018B94AF0080AA9F804A023015B449B8886
:1042F0009A063FD54FF0060A05F10A020821002070
:10430000FCF788F90AFB04FA964B05F10B02082129
:1043100003EB0A0989F805000020FCF77BF905F199
:104320000C02082189F804000020FCF773F905F15C
:104330000D02082189F803000020FCF76BF9894B76
:1043400005F10E02082103F80A000020FCF762F9CB
:1043500005F10F02082189F801000020FCF75AF945
:1043600089F802002046FDF7EBFF7F4B002865D05F
:1043700000221A55230118EE101A20460FFA84F96C
:104380005B449D88FDF76EFB3B1905F0080593F82B
:104390002D30022B69D1754BDFF818A21A5DDFF8BA
:1043A00018B2032A4CD8302303FB04A35B79DB0744
:1043B00046D41BF80430012B42D1002718236C4D42
:1043C00009EB490906226343DFF8F0C105EB030A54
:1043D000EC5405EBC905CAF814804FF001088AF8BF
:1043E00005208AF801808AF802700FCDACE80F0032
:1043F00095E8030000258CE8030040F2012003F05B
:104400004FFF5C4B5C4A43F824608AF801505B4BD9
:10441000002F00F0848017550C22594902FB043309
:1044200041F824605F705E604FF48071554803B0BE
:10443000BDEC028BBDE8F04F09F087BF012298E781
:1044400007EB84075048D7F89C110FF085FD1BF847
:1044500004104E480FF080FD30234D4803FB04A3A9
:10446000597901F001010FF077FD002DA5D009EB7E
:104470008902484F00214FEA820A10220AF1010006
:104480003D1828460FF060FD434A07EB0A035244EB
:10449000194602F1140052F804CB824241F804CBD1
:1044A000F9D1142202FB0472518A3C4A32F81400FA
:1044B000884201D1012781E722F8141003F1140189
:1044C000374A53F8040B8B4242F8040BF9D140F2FF
:1044D000072003F0E5FE1822254B02FB04331422CB
:1044E00002FB04777A8ADA802E4B33F81430002BE3
:1044F000E0D12D4B284605F1100203EB04130233E3
:1045000050F8041B904243F8041BF9D1FEF7EAFC73
:1045100040F2191003F0C4FE244B1E60CAE7155583
:104520000C221427294602FB0433102217FB0480B7
:104530009E60184E5D7007FB046430440FF004FD6C
:10454000658271E7480F0020986B01088D650108AE
:104550009C650108402D0020682D00201C260020AD
:1045600027660108FC230020B4230020512A0020E4
:1045700088350020B0340020A6340020EC2800202C
:10458000B82D0020001C0240686B0108756B010803
:104590008A6B0108E42D0020043200209C310020A9
:1045A00078360020AC2E0020D8360020E02D0020E8
:1045B000842900200C270020A02300206C35002037
:1045C0002DE9F74F06460F4608F0E2FB8F4B804679
:1045D0001B78DBB18E4DF21C10210020FCF71AF87D
:1045E00095F820101FFA80FA05F5CE7200235FFAC5
:1045F00083F949451CD8874B1B78012B15D15146AF
:10460000854803B0BDE8F04F0FF0A6BC08F0C0FB32
:1046100042F20F739842DDD980480FF039FD80498E
:104620008048FBF70DFE0028D4D003B0BDE8F08F22
:1046300052F8040B1C4601335045D8D104F1700BDD
:104640001021721C002005EB8B0BFBF7E3FFDBF85E
:10465000043081B28B4210D0734801910FF018FDE5
:10466000019972480FF078FCDBF80420514670483D
:1046700003B0BDE8F04F0FF06FBC6E4B1A68D20666
:104680001ED51B794B451BD16B4801910FF000FDE6
:1046900001996A480FF060FC40F24D11684895F8A6
:1046A00020A00FF059FC40F24D1195F820305345F1
:1046B00008D8644801910FF0EBFC01996248A0E72B
:1046C000CA46F2E7534BDFF8C0B11B78012B0FD17C
:1046D0001BF80410012908D0022964D02B1993F883
:1046E0002D30022B61D1594800E059480FF0D0FC21
:1046F000584B1BF8042053F8241091420AD0564915
:10470000564841F82480564943F8242041F8248033
:104710000FF0BEFC1BF80420524BDFF870B11A55A5
:104720005BF8240003F06AFA04F18A0355F8233099
:1047300098420ED3484B05EB84054B4843F8248040
:10474000474BD5F89C114BF8248043F824800FF098
:1047500003FC464B812200214BF8248018460FF0C1
:10476000F3FB3A46FFB231460FF0C6FB0821F21DBB
:1047700080F880700020FBF74DFF18223C4B054667
:10478000484602FB04330122DA703A4B43F8248096
:10479000FEF76AF9E9B24B1E052B34D8DFE803F0C7
:1047A00009121B21332A3448A0E734480FF0D4FB08
:1047B0009EE753464A463946304603B0BDE8F04FBF
:1047C000FDF70EBE53464A463946304603B0BDE8B3
:1047D000F04FFEF7CBBB2A4803B0BDE8F04F0FF017
:1047E00057BC53464A463946304603B0BDE8F04F01
:1047F000FFF72EBA53464A463946304603B0BDE865
:10480000F04FFFF7FBBC1F48FBE600BF0302002090
:10481000480F0020EB0B0020F66B0108B66B010877
:1048200027660108490F0020326C01084E6C010810
:10483000706C010864290020A86C01082B75010820
:10484000C96C0108D76C01080B6D0108466D0108A1
:10485000286D01084C310020402D00207C6D01089E
:10486000682D0020382A0020926D0108C0330020F6
:1048700088350020182D0020376D01085B6D010878
:10488000AE6D0108CF6D0108CC310020243100202D
:1048900070B50024A0B00D467C220646214601A832
:1048A0000094ADB20FF050FB224623469D4291B2D8
:1048B00004D86846FFF784FE20B070BDF15C20A8E4
:1048C000F02910FA82F002F1010202BF01339BB21B
:1048D000F15C03F1010308BF61F00F019BB200F826
:1048E000801CE3E710B50024A0B07C22214601A87B
:1048F00000940FF029FB03F0E5FA08B920B010BDD1
:1049000003F0ECFAF42802D0F62809D094B104F1AF
:104910008002631C0DEB020404F8800CDCB2EAE7B1
:10492000611C04F1800311F0FF010DEB030404F896
:10493000800C01D10024DEE70F29DFD96846FFF79C
:10494000A7FFDBE770B50024A0B07C22214601A8B8
:1049500000940FF0F9FA1E4B93F82230CBB11D4BA7
:10496000186803F04BF9132813D91B4E032008F0E5
:104970001DF870B1032008F02DF8014605463046B9
:104980000FF0EAFA7E2C06D98022214613480FF058
:10499000E3FA20B070BDF42D03D0F62D0AD0002C20
:1049A000E4D004F18002631C0DEB020404F8805C87
:1049B000DCB2DBE7611C04F18003C9B20DEB030438
:1049C0000F2904F8805CE4D96846FFF761FFE0E74F
:1049D000480F002038C90020EB6D0108F26D010876
:1049E00070B5204D2B78012B01D106F043F81E49FC
:1049F0001E48FBF725FC10B901232B7070BD1C4C21
:104A00001C4E206803F0FAF8D6F81C329842F5D311
:104A1000194B20681A688242F0D0002418602C706C
:104A200003F0ECF84FF47A71B0FBF1F113480FF09A
:104A300093FA13480FF02CFB96F8202021461148DA
:104A400002EB4202D2000FF07FFA2146A2220E486A
:104A50000FF07AFAFEF746FA40F21910BDE87040FE
:104A600003F01EBC0302002027660108490F002046
:104A7000B4310020480F0020B03100201B6E010827
:104A8000486E0108D0320020D83600202DE9F04FC2
:104A90000026AFB0DFF83883A622314604A8B64F0F
:104AA00003960FF051FAD8F8000003F0A7F8D7F8F2
:104AB0002032984200F2C4802FB0BDE8F08F3AF85F
:104AC000153009EB0514012B04F1020472D1AB4936
:104AD000AB48FBF7B5FB00286CD007EB8505A94870
:104AE000D5F89C110FF038FA1022002120460FF063
:104AF0002BFA013697F82030F5B2AB42DFD89F4948
:104B00009F48FBF79DFBA04B002840F0A0800122AE
:104B10001A709E4D2B78012B1BD101F0E7FA9C49AE
:104B20000026DFF884A2DFF888B2DFF8A8928B783D
:104B30004A78984809780FF00FFAFEF7D3F9B4B223
:104B400097F82030B4EB031FC0F291800A200FF0D9
:104B50001BFAFEF7C7F940F2191003F0A1FB8749D1
:104B60008748FBF76DFB002840F0BA808A4C20682C
:104B700003F044F8B0F5FA6F4FF0A0028749884877
:104B8000C0F0B5800FF0B8F97E238DF80C308DF8A9
:104B90000D308DF80E302B78012B02D181480FF0AB
:104BA00077FA814B0DF10F02804D1E780223298880
:104BB0007F4F75E01BF805107E4B4A1E5B5D51422E
:104BC0005141012B714B08BF41F002011B78012BB1
:104BD00008D107EB850378480191D3F89C210FF0A9
:104BE000BBF90199022911D003291CD001297FF4B6
:104BF0007BAF724B142202FB05356B1C113553F849
:104C0000042BAB4244F8042BF9D172E76C4B14220D
:104C100002FB05356B1C113553F8042BAB4244F8ED
:104C2000042BF9D165E7664B142202FB05356B1C9A
:104C3000113553F8042BAB4244F8042BF9D158E753
:104C4000DFF86891DFF890A1DFF890B152E71C78A7
:104C5000002C7FF45EAF5B480FF01AFA5A480FF051
:104C600017FAA222214651480FF06EF951E79AF83F
:104C700000306BB94D4B23440134997848460FF00E
:104C80006BF9230702D10A200FF07EF9013656E7AF
:104C90000BEB0403F0E746BBE85C10700133013214
:104CA000981E80B28142F6D8CB1C2EAA2EA812FAEA
:104CB00083F37F2203F8AC2C0B1D10FA83F303F867
:104CC000AC2C4B1D063110FA83F303A8C9B203F8CC
:104CD000AC2C3E4B1A6803F01FF908F059F820601D
:104CE00008F056F8C8F80000E6E6D85DD5E70FF002
:104CF000F3F80028F4D0A022284929480FF0FCF846
:104D00007E238DF80C308DF80D308DF80E302B7819
:104D1000012B02D123480FF0BBF9234B0DF10F02F9
:104D2000224C1D7802232188214E04E00DBBE05C5B
:104D3000107001330132981E80B28142F6D82EAA3B
:104D4000CB1C2EA812FA83F37F2203F8AC2C0B1D88
:104D500010FA83F303F8AC2C4B1D063110FA83F3E1
:104D600003A8C9B203F8AC2C184B1A6803F0D4F8A6
:104D7000B6E7985DDCE700BF480F00202766010812
:104D8000490F00206A6E010803020020EB0B00208F
:104D9000AA3E0020D06E0108D4360020DA3600206A
:104DA00084300020F56E0108CC320020D836002077
:104DB00038240020A63400207E6E01081C2F00201D
:104DC000E42D00208F6E0108B36E0108D831002059
:104DD000E02D0020BA690108AC2E0020E82E00204A
:104DE0001F4D204C08B5FCF737F8FBF77DFF0BF0A3
:104DF0005FFF284609F05DFE05F026FE03F0E2FCA9
:104E0000FBF744FDFFF76EFDFFF79CFDFFF73EFE4D
:104E1000FCF792F9FFF7E4FDFDF73AFEFDF70CFD14
:104E2000FDF710FAFDF7B8F9FDF744FA01F026FA9C
:104E3000FDF736FDFDF78EFE07F076FAFBF736FE3E
:104E400023784BB1084B0322054C1A7007F0CCF9BC
:104E5000204609F02EFEF9E707F044FEC3E700BF45
:104E600028B30020EA0B0020A2120020154B5A6F35
:104E7000002A1ADB5A6F520019D45A6F910018D4C5
:104E80005A6FD20017D45A6F110116D45A6F5201BB
:104E900015D45B6F13F0007F14BF07200020094A70
:104EA000536F43F08073536770470120F7E7022088
:104EB000F5E70320F3E70420F1E70520EFE70620FC
:104EC000EDE700BF0038024007289ABF024B53F8B5
:104ED00020000248704700BFCC6F0108146F010822
:104EE0002DE9F0411C4CA06802F088FE1B4BD3F862
:104EF000342390422DD3D3F828331427184EC3F30C
:104F0000CF055B07DFF860801CBF0135ADB207F04D
:104F10003FFFA060002413480FF0BAF8AC4208D35A
:104F20000A200FF031F840F21910BDE8F04103F00B
:104F3000B7B93CB1B4FBF7F307FB134313B90A202D
:104F40000FF022F816F8011B404601340FF004F868
:104F5000E4E7BDE8F08100BF9C3D0020480F002041
:104F6000AE3D0020C87B0108BA690108F8B54A4C7B
:104F7000606802F043FE494906464948FBF760F97C
:104F8000002800F08780474DB5F82633D5F82C234C
:104F900053439E420AD3444B62681B689A4205D031
:104FA000424B5A7895F821339A4207D82378002B40
:104FB00035D03F4BD3F88030002B30D021783D489E
:104FC0000EF0CAFF23783A48D9074FF0000144BFDA
:104FD00023F00103237023789A074FF0840244BF23
:104FE00023F0020323700EF0AFFF3222002132487B
:104FF0000EF0AAFF8422002130480EF0A5FF002306
:105000002F4A3048C2E90033284AC2E900332E4A09
:10501000C2E900330FF03CF86268234B1A602B4E54
:10502000306802F0EBFDD5F83C33984223D9284F85
:105030003B78012B1FD1002426480FF029F8842249
:1050400021461B483C700EF07FFF322221461A4851
:105050000EF07AFF8422214618480EF075FF184B97
:105060001848C3E90044114BC3E90044164BC3E997
:1050700000440FF00DF8306802F0C0FDD5F83C3365
:10508000984207D2124B1B78012B03D1BDE8F840A0
:1050900005F0F0BCF8BD00BF9C3D0020276601086C
:1050A000490F0020480F0020643B0020643E002090
:1050B000F43B0020EC6F0108AC3D0020E03D0020F7
:1050C0006C3E00201C700108743E0020683B0020EC
:1050D000F03B00203370010838B51B4C1B4D606855
:1050E00002F08CFDB5F82633D5F82C2353439842B3
:1050F00004D3174B1A780AB100221A70606802F0C4
:105100007DFDD5F8383398420BD9124B6268196887
:105110008A4206D01A6040F20120BDE8384003F010
:10512000BFB80D4D286802F069FDB0F57A7F09D946
:10513000606802F063FDB0F5FA6F03D907F028FE4E
:105140002860E8E738BD00BF9C3D0020480F0020E4
:105150006C3E0020883E00208C3E0020F8B561495E
:105160006148FBF76DF8002837D0604C604D20682F
:105170002B6898420AD007F00BFE20605D4C5E4A17
:1051800023785BBB137803F0FE032AE002F036FDC0
:10519000B0F57A7FEFD2286802F030FD574BD3F894
:1051A0003C33984219D9564B28681A68824214D069
:1051B000186002F023FD4FF47A71B0FBF1F1514811
:1051C0000EF0CAFE296850480EF0C6FE4F4A13780A
:1051D00099075CBF43F002031370F8BD137843F0E6
:1051E00001034B4E317841B143F002031370032B9E
:1051F00033D8DFE803F0744E056D03F0FD03F5E7E7
:10520000616873688B423CD0424F3B78012B24D1BC
:1052100041480EF0A1FE716840480EF09DFE00234B
:105220003F483B700EF034FF84223E493E480EF06A
:1052300063FE3D4B3D4A03F1300C1F461E460832CB
:1052400003CE664542F8080C42F8041C3346F5D1FB
:1052500033881380D7F880306360284B627893F8E6
:1052600021339A4297D3294F3B7813F0010692D10C
:105270002F480EF00DFF3B78667043F001033B7042
:1052800089E70023214A6370137823F00103137028
:10529000E3E7726863689A4212D026480EF0F8FE7F
:1052A00063780133DBB2022B6370D6D91E4BD3F87F
:1052B0008030002BD1D040F2072002F0F1FFCCE784
:1052C000124A137823F00103137000236370C4E7BC
:1052D000726863689A42F3D016480EF0D9FE63787C
:1052E0000133F3E727660108490F00207C3E0020C8
:1052F000683B00206C3E0020633B0020480F0020EC
:10530000803E00201B6E0108EC7001089C3D0020CF
:10531000643E0020843E0020507001086770010840
:105320007E7001086C3B0020F43B0020AC3D002067
:10533000D5700108B170010838B5204D204C2846C1
:105340000EF0A6FEB4F822131E480EF005FEB4F8C7
:1053500024131D480EF000FE94F820131B480EF095
:10536000FBFDD4F830131A480EF0F6FDD4F83813CC
:1053700018480EF0F1FDD4F83C1317480EF0ECFD80
:1053800094F8211315480EF0E7FDD4F828131448BB
:105390000EF0E2FDD4F82C1312480EF0DDFDB4F847
:1053A000261311480EF0D8FDD4F834130F480EF030
:1053B000D3FD2846BDE838400EF06ABE12710108E0
:1053C000480F00206571010888710108AB71010860
:1053D000CE710108F2710108167201083A720108D3
:1053E0005D72010881720108A5720108C872010886
:1053F00010B52423104C11492370012304F132000D
:1054000063703023A3704023E370C02323714E23C5
:1054100063712623A3710EF076FF094904F164003D
:105420000EF071FF074904F196000EF06CFF064B79
:1054300004221A7010BD00BF7B370020645701089A
:10544000C8570108D25701087A3700200D4B2DE9C3
:10545000F041074693F800800B4C0026F5B2A845B2
:1054600001D8FF250BE020460136FAF7F3FE21466E
:105470000246384632340EF02FFD0028EED1284681
:10548000BDE8F0817A3700207B37002030B5002559
:105490009BB06022294602A801950EF055FD664B8F
:1054A000186802F0ABFB09280AD81BB030BD0020F9
:1054B00007F090FA04F168030DEB030404F8640CA0
:1054C0000020ECB207F072FA01350028EFD1002C71
:1054D000EBD004F1680301A96B4403F8640C57484E
:1054E0000EF03AFD214601A8FFF7B0FF0C2800F2AC
:1054F000A080DFE800F0070E2A37424C56606A743D
:105500007E8994004E4B01224E481A700EF0C0FD69
:10551000CBE704F167034C494C480DEB030414F846
:10552000642C303A0EF018FD14F8643C303BDBB2CA
:10553000022B06D8464A137040F2052002F0B0FE56
:10554000B3E744480EF0A4FDF6E7434943480EF0A4
:1055500003FD43480EF09CFD424A136843F00103EB
:105560001360E9E740493D480EF0F6FC3F480EF075
:105570008FFD3C4B02221A60DEE73D4937480EF0B2
:10558000EBFC3C480EF084FD364B0422F3E73A492D
:1055900032480EF0E1FC39480EF07AFD314B08221A
:1055A000E9E737492D480EF0D7FC36480EF070FD7C
:1055B0002C4B1022DFE7344928480EF0CDFC33484D
:1055C0000EF066FD274B2022D5E7314931480EF019
:1055D000C3FC31480EF05CFD224B4022CBE72F4943
:1055E0001E480EF0B9FC2E480EF052FD1D4B8022D5
:1055F000C1E72C4919480EF0AFFC2B480EF048FDCE
:10560000184B4FF48072B6E7284914480EF0A4FCFA
:1056100027480EF03DFD134B4FF40072ABE72549D0
:105620000E480EF099FC24480EF032FD0D4B00227E
:10563000A1E708486AE700BFB4C70020D7570108B0
:10564000EA0B0020ED570108AD3700202D58010866
:10565000EB0B00203F580108DF370020BF5801083E
:10566000EF7E0108344B0020113800206D7F0108C7
:1056700043380020AB7F010875380020E17F010826
:10568000A738002019800108D9380020137D0108AF
:105690000B390020CC580108EC7201083D3900207C
:1056A000FF7201086F390020817E0108A1390020B6
:1056B00017730108D33900203473010830B5002472
:1056C000064D824201D8204630BD0B5C013063405C
:1056D000DBB255F8233083EA1424F2E7C8760108D8
:1056E0002DE9F0410027CCB004464FF494723946BE
:1056F00002A80EF029FC01AD264E532322460DF1DF
:1057000017002B7006F118017388A5F80130B388D3
:10571000A5F80330B3796B71E223AB71B37A6B7286
:10572000D6F80B30CDF80E30B6F80F30ADF8123099
:10573000737C8DF81430B38AA5F811300EF0DCFBC1
:1057400004F11300224606F19801134E1FFA80F867
:1057500015FA80F00EF0D0FB294644443846A4B236
:10576000E31E2F55A21C0634A5F8073092B2A4B24E
:10577000FFF7A4FFA850BBB29C4202D84CB0BDE8D2
:10578000F08115F8011B013796F8200307F046F960
:10579000F1E700BF783C0020480F002070B5FFF70C
:1057A0008DFF89580446884208D005480EF0D4FB86
:1057B000214604480EF0D0FB002070BD0120FCE71C
:1057C0003E730108557301082DE9F84381460F46E1
:1057D0000026DFF8FC80394D484607F0E7F804461C
:1057E000002857D0484607F0F5F898F80030013BFC
:1057F000042BF1D801A252F823F000BF1158000881
:1058000021580008D957000839580008575800088F
:105810005328E1D101232B80022388F80030DBE7F5
:105820002B88082B04D1092338722B800423F4E73A
:10583000F85401332B80CFE72B880121FA1832F876
:10584000026C1F4AF8540B44118002222B801D4B1E
:105850001A800523E1E71A4A2C8813883855B34289
:1058600028D2013317499BB21380621CB3422A80AD
:105870000A8802F101020A80AED1033C002601230E
:10588000A4B22E8088F80030042C06D834460E4886
:105890000EF0FEFB2046BDE8F8832246394630462E
:1058A000FFF77CFF05460028F4D108482C460EF08F
:1058B000EFFBEFE7002601232E80AEE7923E0020AB
:1058C000903E0020943E00206D7301086A5A010842
:1058D0000E0200202DE9F04F0024ADF53D7D4FF480
:1058E00094729B4F214672A871940EF02DFB7C227E
:1058F000214609A808940EF027FB4FF4967271A96F
:1059000097F82003FFF760FF0528054659D94FF4A3
:105910008071904871AEDFF86C924FF00A0808F081
:1059200014FD8D480EF0B4FB013416F8011B4846F7
:10593000A4B20EF011FBA54238D10A200EF024FBD0
:105940004FF49272002128A80EF0FEFA9DF8C4319F
:10595000BDF8C5818DF8A030B7F82433ADF8A48028
:10596000434534D1BDF8C791B7F82233ADF8A290C2
:105970004B450DD079480EF08BFBB7F822134A4601
:1059800077480EF0E9FA77497748FAF759FCD0B929
:105990009DF8C961AA2E8DF8A66028D19DF8CA117C
:1059A000E1298DF8A71029D0704824E0B4FBF8F362
:1059B00008FB13439BB2002BB6D10A200EF0E4FA89
:1059C000B2E70028BCD10DF53D7DBDE8F08F6848F9
:1059D0000EF05EFBB7F82413424661480EF0BCFAA5
:1059E00060496148FAF72CFC0028BBD0EBE7BB2EDE
:1059F000D4D031465F480EF0AFFAE4E7BDF8CB31C2
:105A00009DF8D5110593ADF8A83011299DF8CD3139
:105A10008DF8B21006938DF8AA30DDF8CE31CDF8AE
:105A2000AB30BDF8D231ADF8AF309DF8D4318DF840
:105A3000B13001D05048DEE7BDF8D631ADF8B43012
:105A40002D9DB5F5806F02D929464C48D3E7D7F88C
:105A50002843A5420CD043494348FAF7F1FB28B14B
:105A60002A46214646480EF077FAACE7C7F8285395
:105A70006B07C5F3CF0408AF76A918BF01342EA871
:105A800018BFA4B222460EF037FA76AB3846002291
:105A900091B28C4231D8630004F114020DF59C7A66
:105AA0000DF5E27E9BB292B2D44603F1150080B2AE
:105AB000511C89B2884227D103F1140B224608A950
:105AC0004EA804931FFA8BFB0EF006FA049B079076
:105AD00070B300252B4E2C480EF0DAFAABB29C4284
