:020000040800F2
:100000000000082039C80008C9C00008CBC000089B
:10001000CDC00008CFC00008D1C00008000000001B
:10002000000000000000000000000000D3C0000835
:10003000D5C0000800000000D7C00008D9C00008E3
:1000400089C8000889C8000889C8000889C800084C
:1000500089C8000889C80008DDC00008E3C000089E
:1000600089C8000889C8000889C8000889C800082C
:1000700089C8000889C8000889C8000889C800081C
:1000800089C8000889C8000889C8000889C800080C
:1000900089C8000889C8000889C8000889C80008FC
:1000A00089C8000889C8000889C8000889C80008EC
:1000B00089C8000889C80008E9C0000889C8000884
:1000C00089C8000889C8000889C8000889C80008CC
:1000D00089C80008F5C0000889C8000889C8000858
:1000E00089C8000889C8000889C8000889C80008AC
:1000F00089C8000889C8000889C8000889C800089C
:1001000089C8000889C8000801C1000889C800081A
:100110000DC1000819C1000825C1000831C100083F
:1001200089C8000889C8000889C8000889C800086B
:1001300089C800083DC1000889C8000889C80008AE
:1001400049C1000855C1000889C8000889C80008CD
:1001500089C8000889C8000889C8000889C800083B
:1001600089C8000889C8000889C8000889C800082B
:1001700089C8000889C8000889C800080000000074
:1001800089C8000889C8000859C1000889C8000842
:1001900089C8000889C8000889C8000889C80008FB
:1001A00089C8000889C8000889C8000889C80008EB
:1001B00089C8000889C8000889C8000889C80008DB
:1001C00089C8000889C8000889C8000889C80008CB
:1001D00089C8000889C8000889C8000889C80008BB
:1001E00089C8000865C1000871C1000889C80008F5
:0801F00089C8000889C8000855
:1002000010B5054C237833B9044B13B10448AFF350
:1002100000800123237010BDDC03002000000000DB
:10022000C853010808B5034B1BB103490348AFF39A
:10023000008008BD00000000E0030020C853010852
:1002400010F8012B11F8013B012A28BF9A42F7D080
:10025000D01A7047034613F8012B002AFBD1181A55
:10026000013870470000000000000000000000009E
:1002700001F0FF01102A2BDB10F0070F08D010F857
:10028000013B013A8B422DD010F0070F42B3F6D15B
:10029000F0B441EA012141EA014122F007047FF074
:1002A00000070023F0E80256083C85EA010586EACB
:1002B000010685FA47F5A3FA87F586FA47F6A5FA07
:1002C00087F68EB9EED1F0BC01F0FF0102F0070213
:1002D00032B110F8013B013A83EA010313B1F8D1BE
:1002E0000020704701387047002D06BF354603389F
:1002F000073815F0010F07D1013015F4807F02BFD8
:10030000013015F4C03F0130F0BC0138704700BF28
:1003100053B94AB9002908BF00281CBF4FF0FF316C
:100320004FF0FF3000F074B9ADF1080C6DE904CE68
:1003300000F006F8DDF804E0DDE9022304B07047C0
:100340002DE9F047089D04468E46002B4DD18A4288
:10035000944669D9B2FA82F252B101FA02F3C2F1BB
:10036000200120FA01F10CFA02FC41EA030E94404C
:100370004FEA1C48210CBEFBF8F61FFA8CF708FB6D
:1003800016E341EA034306FB07F199420AD91CEB45
:10039000030306F1FF3080F01F81994240F21C8177
:1003A000023E63445B1AA4B2B3FBF8F008FB1033BF
:1003B00044EA034400FB07F7A7420AD91CEB0404F4
:1003C00000F1FF3380F00A81A74240F207816444C4
:1003D000023840EA0640E41B00261DB1D440002349
:1003E000C5E900433146BDE8F0878B4209D9002DAD
:1003F00000F0EF800026C5E9000130463146BDE837
:10040000F087B3FA83F6002E4AD18B4202D38242A0
:1004100000F2F980841A61EB030301209E46002D4F
:10042000E0D0C5E9004EDDE702B9FFDEB2FA82F2A4
:10043000002A40F09280A1EB0C014FEA1C471FFA02
:100440008CFE0126200CB1FBF7F307FB131140EAE9
:1004500001410EFB03F0884208D91CEB010103F1B6
:10046000FF3802D2884200F2CB804346091AA4B278
:10047000B1FBF7F007FB101144EA01440EFB00FE4C
:10048000A64508D91CEB040400F1FF3102D2A645B1
:1004900000F2BB800846A4EB0E0440EA03409CE750
:1004A000C6F12007B34022FA07FC4CEA030C20FAFD
:1004B00007F401FA06F31C43F9404FEA1C4900FA1D
:1004C00006F3B1FBF9F8200C1FFA8CFE09FB18119A
:1004D00040EA014108FB0EF0884202FA06F20BD90D
:1004E0001CEB010108F1FF3A80F08880884240F25D
:1004F0008580A8F102086144091AA4B2B1FBF9F0A1
:1005000009FB101144EA014100FB0EFE8E4508D99B
:100510001CEB010100F1FF346CD28E456AD9023820
:10052000614440EA0840A0FB0294A1EB0E01A14205
:10053000C846A64656D353D05DB1B3EB080261EB73
:100540000E0101FA07F722FA06F3F1401F43C5E94D
:10055000007100263146BDE8F087C2F12003D84083
:100560000CFA02FC21FA03F3914001434FEA1C47C5
:100570001FFA8CFEB3FBF7F007FB10360B0C43EAB7
:10058000064300FB0EF69E4204FA02F408D91CEB67
:10059000030300F1FF382FD29E422DD90238634465
:1005A0009B1B89B2B3FBF7F607FB163341EA034105
:1005B00006FB0EF38B4208D91CEB010106F1FF3854
:1005C00016D28B4214D9023E6144C91A46EA00464B
:1005D00038E72E46284605E70646E3E61846F8E6DD
:1005E0004B45A9D2B9EB020864EB0C0E0138A3E726
:1005F0004646EAE7204694E74046D1E7D0467BE707
:10060000023B614432E7304609E76444023842E77E
:10061000704700BF10B54418A4B2082C12D8C0F11E
:100620000700002380B2127842EA0322C1F10103DD
:100630001844134B80B253F821308340134023FAFF
:1006400000F010BD102C08D8C0F10F00002480B2BB
:1006500012F8013B43EA0423E5E7182C137887BF1F
:1006600001321C46C0F11700002488BFC0F11F00F2
:1006700012F8013B94BF80B280B243EA0424E7E75A
:10068000E4530108F0B54518ADB2082D24D8C0F1E7
:10069000070014460125002680B22478032D44EA81
:1006A0000624214E56F82160C1F10101084403EAF5
:1006B000060380B206FA00F103FA00F024EA010111
:1006C00040EA01002CD0042D27D0022D02D1030ACC
:1006D00002F8013B1070F0BD102D0AD8C0F10F00D8
:1006E00014460225002780B214F8016B46EA07265B
:1006F000D3E7182D17780AD8C0F117001446032540
:10070000002780B214F8016B46EA0727ECE7C0F136
:100710001F00541C042580B2F4E7030E02F8013BCD
:10072000030C02F8013BD2E7E453010810B524237F
:100730001C4C1D492370012304F1320063703023E7
:10074000A3704023E370C02323714E2363712623DB
:10075000A37113F05AFC154904F1640013F055FC21
:10076000134904F1960013F050FC124904F1C8003B
:1007700013F04BFC104904F1FA0013F046FC0F494A
:1007800004F5967013F041FC0D4904F5AF7013F0B9
:100790003CFC0C4904F5C87013F037FC0A4B0922E5
:1007A0001A7010BDFD03002068540108735401083D
:1007B0008354010893540108A6540108B954010850
:1007C000CC540108D6540108FC03002007B54FF6AD
:1007D000FF7301A90190012207480FF02CFF074B7E
:1007E0000222186800238068194613F019FB01984B
:1007F00003B05DF804FB00BFA0D800203802002041
:1008000010B508210E480DF017FC1021B0FA80F445
:100810000B480DF011FC00284FEA54144FF400511E
:100820000CBF02200020044306480DF005FC002800
:10083000054B0CBF0420002004431C7010BD00BFFA
:100840000028024000200240A01200200D4B2DE99C
:10085000F041074693F800800B4C0026F5B2A845FE
:1008600001D8FF250BE020460136FFF7F3FC2146B7
:1008700002463846323413F0B1F90028EED128464A
:10088000BDE8F081FC030020FD03002030B5002509
:100890009BB06022294602A8019513F0D7F96B4B53
:1008A000186807F097F809280AD81BB030BD002057
:1008B0000BF012FF04F168030DEB030404F8640C61
:1008C0000020ECB20BF0F4FE01350028EFD1002C33
:1008D000EBD004F1680301A90DEB030505F8640CE6
:1008E0005B4813F0BBF9214601A8FFF7AFFF0928C9
:1008F00000F2A980DFE800F0050C284359718191CE
:100900009A9F544B012254481A7013F043FACCE7D3
:1009100004F16703514952480DEB030414F8642CA9
:10092000303A13F09BF914F8643C303BDBB2012BF6
:1009300006D84C4A137040F2052007F079FBB4E763
:10094000494813F027FAF6E704F167034749484896
:100950000DEB030414F8642C303A13F07FF945488A
:1009600013F018FA444B14F8642C1968303A41F02B
:1009700010011A711960414813F070F9DBE704F1B6
:1009800067033F493A480DEB030414F8642C303AEE
:1009900013F064F93B4813F0FDF914F8643C364A4F
:1009A0002021303B11601371E5E704F167033649FC
:1009B0002F480DEB030414F8642C303A13F04EF971
:1009C000324813F0E7F92C4B1A6842F400721A60AF
:1009D00014F8642C303A1A71ADE704F167032C491E
:1009E00023480DEB030414F8642C303A13F036F965
:1009F000214B1A6842F00102E9E704F16703254937
:100A00001B480DEB030414F8642C303A13F026F95C
:100A1000194B1A6842F00202D9E71F491F4813F028
:100A20001DF90022144B1A60FF22D4E71C491D480F
:100A300013F014F939E715F8652C1B49303A0C48C6
:100A400013F00CF931E708485FE700BF08C7002042
:100A5000DB540108EA0B0020F15401082F040020A8
:100A600031550108EB0B00204355010861040020BB
:100A70005D55010876550108642900208555010857
:100A80009304002098550108C5040020A8550108CA
:100A9000F7040020290500205B050020C35501084C
:100AA0008D050020D0550108BF05002070B5104C01
:100AB000206806F08FFFB0F57A6F18D90D4D0E4EF5
:100AC0002B8832889A420BD053B10C4813F062F94C
:100AD00031880B4813F0C2F829880A4813F0BEF891
:100AE00040F20A2007F0A4FA0BF0D4FF206070BD9A
:100AF000F8030020E60B0020E80B0020E555010874
:100B000007560108165601082DE9F84FDFF8C49181
:100B10000025DFF8C4814F462C464E46DFF8BCB1B5
:100B200017F8013B2BB908EB050202212046FFF71D
:100B3000A9FD17F8013C012B05D108EB05020221A4
:100B40002046FFF79FFD17F8013C022B05D108EB6B
:100B5000050219462046FFF795FD17F8013C032BC7
:100B600005D108EB050202212046FFF78BFDDBF8DB
:100B7000000006F02FFF43F6982398420FD917F88C
:100B8000013C63B1032308EB050202212046FFF775
:100B900079FD444B012244481A6013F05FF8023497
:100BA000E4B2082C03D101350024EDB2B8E7072DDB
:100BB000B6D1062CB4D1002119F8012BCBB20131EA
:100BC000013A022AF8D8394A4FF0000A384DDFF8C6
:100BD0001091DFF81081137089F8003088F8003028
:100BE0002B78344F0133344C34482B7087F800A0F5
:100BF00013F0D0F82378042B11D1314B1A78012A45
:100C00000DD1DBF8000006F0E5FE42F6E0622C4B69
:100C1000904204D92B4883F800A013F01FF82B78DA
:100C2000DFF880A0FA2B16D106232B703B78043B0B
:100C3000012B1FD82378042B1CD1DAF80030012BAC
:100C40002BD8214813F0A6F8002302222B70227023
:100C50003360B38012E0043B012BE7D82378022BEA
:100C6000E4D11A4813F096F8002304223B70227056
:100C70003360B380DAF80030012BDED84FF47A62AB
:100C80000021134812F0E2FF0023084A89F80030DF
:100C900088F800301370BDE8F88F0133CAF80030CF
:100CA000CFE700BFE8130020265601089823002054
:100CB000A9120020D6130020000200209856010837
:100CC00001020020DE5601083757010806570108C7
:100CD000F4130020DF130020D713002094230020FA
:100CE000992300209A23002010B5074C206806F0B5
:100CF00071FE41F65833984204D9FFF705FF0BF017
:100D0000C9FE206010BD00BF9C230020FF230144CA
:100D100070B51C46064D074E884202D143EA0420B6
:100D200070BD10F8012B5A40AB5C6340B45CF3E734
:100D3000000000200001002038B505460C46FFF7F2
:100D4000E5FF2B195A782B5D43EA02231B1A584200
:100D5000584138BD2DE9F04780460D46DFF8F49044
:100D6000354E5FFA88F420460BF0A2FC002856D0DE
:100D700020460BF0B1FC01460446484612F06EFFD7
:100D800033780B3B032B53D8DFE803F002111B2908
:100D9000631EDBB21E2BE4D80E2CE2D0274B284A70
:100DA0001C701368013313600C233370D9E7032CD4
:100DB000D7D1244B224A1C701368013313600D23D2
:100DC000F3E71C2C1E4B06D11F4A14701A6801321F
:100DD0001A600E23E9E700221A600B23E5E7174BA0
:100DE000174F1B782B70174B1B786B70164B1B78AB
:100DF000AB703B68202BEC549CBF01333B60D7F8B1
:100E000000A0BAF1210FACD128461F21FFF794FFB3
:100E10000B25044628B10023504635703B60BDE8E1
:100E2000F0870A4812F0B6FF204635703C60F6E7BE
:100E3000074812F013FF94E702020020EC13002091
:100E4000F0130020ED130020EE1300206A57010874
:100E5000765701086357010870B5224D4FF496721A
:100E600001202946FFF776FF00283AD02C78631E30
:100E70001E2B32D8AB7DFF2B06D11B4B0022214607
:100E80001A481A5512F0EAFEAB7DBF2B0CD1164B57
:100E90000122214616481A5512F0E0FE154B1A6839
:100EA000012A04BF02221A60AB7D7F2B0BD10E4BAF
:100EB0000226214610481E5512F0D0FE0D4B1A682E
:100EC000012A08BF1E60AB7D3F2B06D1064B0322D3
:100ED00021460A481A5512F0C1FE0BF0DBFD084B03
:100EE000186070BDAA120020DF130020815701088E
:100EF000CB570108E8130020145801086058010876
:100F0000942300202DE9F04FB5B00E4614468246DA
:100F10000BF0C0FD002100907C2215A8149112F066
:100F200095FE0E49422303FB0413B3F84030B3424D
:100F30001AD104EB44133246504601EB430112F040
:100F40004DFE88B9064A074802EB8404D4F89C1188
:100F500012F084FE35B0BDE8F08F00BF5C2A00209F
:100F6000480F0020AB580108053E20210020CF4F3C
:100F70000AEB060B5A46FFF74DFBCD4B81461A682C
:100F800012F0010F00F0D8811B79A34240F0D48108
:100F9000C84818250EF0C8F9C74BB0FBF3F8C8EBEA
:100FA0000848A0EB0828C54812F0F4FE05FB0473BE
:100FB000C348996812F052FE4146C24812F04EFEF4
:100FC000434614AA29460020FFF75CFB0023D9B250
:100FD0000133B142C0F2B681033114A809F048FAD6
:100FE00081450AF10508019048D0424608210020B9
:100FF000FFF710FB0546002840F0C381B24812F00D
:10100000C9FE8022294614A812F020FE182114AA35
:10101000284601FB04739B680133FFF733FBE9B2F9
:1010200001358E4200F39681033114A809F020FAAD
:1010300005465A4620210020FFF7ECFA8542064675
:1010400040F090811826A14812F0A4FE294666437C
:101050009F4812F003FE9F4837449F4DB96805EB47
:10106000041512F0FBFDB9689C480131B960A96014
:1010700012F0F4FD9A4B1E44AB68B3600AF1010212
:1010800010210020FFF7C6FAADF8480081B295485C
:1010900012F0E4FD0AF1030210210020FFF7BAFA72
:1010A000ADF8460081B2904812F0D8FD42460821C2
:1010B0000020FFF7AFFA0AF1060208210020FFF72F
:1010C000A9FA0AF1070208210020FFF7A3FA0AF1A2
:1010D00008028DF8220010210020FFF79BFA8206FB
:1010E00083B2019340F15B810AF10A0208210020DA
:1010F0004FF01008FFF78EFA0AF10B0208210020CA
:10110000FFF788FA0AF10C0208210020FFF782FAA3
:101110000AF10D0208210020FFF77CFA0AF10E0205
:1011200008210020FFF776FA0AF10F0208210020BB
:10113000FFF770FA0AEB0802082100200DF1250BD9
:10114000FFF768FA4FF00009C5B2684829468DF8E4
:10115000235012F083FD08F10102082100205244BF
:1011600008F10208FFF756FA15F0070F4FEAD50508
:10117000C7B214BF0135EDB28DF82470AEB21FFABC
:1011800089F318FA89F29E4292B200F20B8146442A
:101190000DF135090A20B6B212F078FD3744BFB21E
:1011A000BE4240F00E81102200210DF10D0027B249
:1011B00012F04CFD2A460DF125010DF10D0012F043
:1011C0001DFD2A460DF10D01002009F0DFF8484B06
:1011D000ADF81E0023448DF81D508DF80C4093F897
:1011E0002D30012B55D1019B1B0752D5DFF81C81F7
:1011F000142303FB04835B8A83424AD007EB8705F1
:1012000010220021AD00681C08EB0006304612F0E9
:101210001DFD08EB05030DF10C0C0DF11C0E1A461B
:101220006546083203CD754542F8080C42F8041CA7
:10123000AC46F5D12868106000992E4A42F8241077
:10124000142202FB0482518A2B4A32F8140088428D
:101250001FD022F8141003F11401284A53F8040B8C
:101260008B4242F8040BF9D14FF4027006F0E0FE15
:10127000234B33F8143063B9224B304606F1100289
:1012800003EB0413023350F8041B904243F8041B91
:10129000F9D11823124D07EB47071B4E6343EC545B
:1012A00005EB0308012305EBC70531E030320020D0
:1012B00064290020FCBA002000FFFF00EC58010860
:1012C0000B59010831590108575901087159010892
:1012D00093590108B059010884290020C95901080F
:1012E000E83400202D5A0108345A01083B5A0108FD
:1012F000480F0020902D0020FC300020D835002021
:10130000AC2E002032360020CC340020E42D00200A
:1013100088F801300FCD0FC695E8030086E803007A
:1013200040F2022006F084FE0023009A88F8013083
:10133000294B43F824200DE6182114AA01FB04735D
:101340009B6840E601F1D0021AF801106A4402F8E5
:101350007D1C3CE601F1D0031AF801206B4403F830
:101360007D2C5CE61D4A1E4802EB8404D4F89C11D7
:1013700012F074FC31461B4812F070FC29461A48E2
:10138000E6E5164A164802EB8404D4F89C1112F0E4
:1013900065FC4946134812F061FC0199EFE74FF0F4
:1013A0000A08C7E6524408210020FFF733F94946EE
:1013B000C2B20BF8010B0D4809F1010912F04EFC05
:1013C000DDE60AEB0602013608210020FFF722F9CC
:1013D00009F8010BB6B2E3E610340020480F0020F4
:1013E000F35901080F5A01081E5A0108435A01080F
:1013F0002DE9F04105460BF04DFB2B4B07465A19E2
:1014000092F82D20022A13D01822284C6A43144443
:10141000E678EEB926490A44D7785FB922793AB11D
:1014200003EB85032348D3F89C1112F017FC2771B6
:10143000BDE8F081012FFBD12279002AF8D003EB1F
:1014400085031D48D3F89C1112F008FC2671EFE7C4
:10145000012EEDD116490A4492F80380B8F1000F2D
:1014600012D12279012AE3D003EB85031348D3F884
:101470009C1112F0F3FB124BC4F8108043F8257056
:10148000104B43F82570E1E7B8F1010FD0D1227974
:10149000002ACDD003EB85030B48D3F89C1112F042
:1014A000DDFB00232371C3E7480F0020E834002050
:1014B00030320020525A01088C5A0108C55A0108DE
:1014C000402D0020682D0020FD5A01082DE9F84329
:1014D000DFF83C81044608EB000393F82D30022B23
:1014E00072D018223C4D3D4E4243A91832448B68BD
:1014F0009268934231D082B30979012902D13849E7
:10150000095C51BB9B1A374A002BB8BF5B42012BC9
:1015100002D1135D032B59D11827002332486743AA
:10152000135508EB840305EB07093744D3F89C11E6
:1015300012F094FBD9F808102C4812F08FFBB96810
:101540002B4812F08BFB2B4812F024FC2A4BBA6874
:1015500003EB0413C9F808209A6018226243A91803
:101560003244CB68D26893422ED06AB309790129FC
:1015700002D11B49095D39BB9B1A204A002BB8BF19
:101580005B42012B02D1135D032B22D118270023CC
:1015900008EB84081A48674313553D44D8F89C115A
:1015A0003E4412F05BFBE968164812F057FBF16805
:1015B000154812F053FB154812F0ECFB0E48F36887
:1015C00000EB0414EB60E360BDE8F88301331355CE
:1015D000C3E701331355F7E7E83400203032002029
:1015E0002E2A0020E8230020395B01087B5B0108DC
:1015F0009F5B0108C35B010884290020F2230020BF
:10160000EB5B01082D5C0108515C0108755C010869
:10161000480F0020F8B50024164D174FE6B295F894
:101620002030B34224D957F82600013406F0D2F90D
:10163000D5F818329842F1D91823104900220C200D
:1016400073430F4DCC18CE5462700E4A00FB062235
:101650005278A2700FCC0FC594E8030085E8030010
:1016600040F2022006F0E4FC0BF014FA47F82600E2
:10167000F8BD00BF480F002010340020E8340020DF
:10168000CC340020EC28002038B505460024E3B215
:101690000134E95C01B938BD00200BF041F8F6E7F0
:1016A000F0B5ADF5057D0E4600210446174605A8A8
:1016B0004FF4FE72049112F0C9FA76B34F48FFF767
:1016C000E3FF621C10210020FEF7A4FF4C490246F4
:1016D00004A812F06BFC04A8FFF7D6FFE21C10214F
:1016E0000020FEF797FF4749024604A812F05EFC6F
:1016F00004A8FFF7C9FFE21D08210020FEF78AFFBA
:1017000005464148FFF7C0FFE8B20138052866D812
:10171000DFE800F0055F656165633C48CFE7002EB8
:1017200055D03B48FFF7B0FF3A48FFF7ADFF621DC9
:1017300008210020FEF76EFF3749024604A812F088
:1017400035FC04A8FFF7A0FFA21D08210020FEF72A
:1017500061FF3249024604A812F028FC04A8FFF7F2
:1017600093FF04F1080210210020FEF753FF2C49DB
:1017700082B2054604A812F019FC04A8FFF784FF02
:10178000AB062ED5E37B04A8A27A0393A37B25495D
:101790000293637B0193237B0093E37A12F006FCB0
:1017A00004A8FFF771FF204B1B78012B0CD12744B5
:1017B0001E4DBC4217D13EB9F6221C4904A812F0B6
:1017C000F5FB04A8FFF760FF0DF5057DF0BD184897
:1017D000A8E71848A6E71848A4E71848A2E7184859
:1017E000A0E71848DDE714F8012B294604A812F0F9
:1017F000DDFB04A8FFF748FFDBE700BF9D5C0108A5
:10180000A55C0108AD5C0108B55C0108A15C01089C
:10181000B95C01089F5C0108E45C0108EE5C01080A
:10182000F85C0108025D0108EB0B0020446601082A
:10183000C05C0108C75C0108CB5C0108CF5C0108F3
:10184000D35C0108245D01082DE9F0439BB00646F6
:101850000F460021154602A86022019112F0F6F908
:101860003378B4464FF0F00E8DF80430012318465B
:101870005C1C03F16802B842E4B20DEB020151D3E3
:10188000F623DFF8F09001F8643C19F80530012BDD
:101890000AD1334B93F8803033B9324B1B78012B8C
:1018A00002D13148FFF7F0FEDFF8CC8008EB0503EA
:1018B00093F82D30012B09D12C4B214601A853F868
:1018C000252006F0C3F9002309F80530454495F8B2
:1018D0002D30022B06D10DF104080025A4B2ABB2C5
:1018E0009C4236D81F4D2B78012B02D11E48FFF7A2
:1018F000CBFE1B4C94F8802032B101212046FFF72B
:10190000CFFE002384F880303A4600213046FFF7AE
:10191000C7FE2B78012B02D11548FFF7B5FE1BB08F
:10192000BDE8F0831CF8012F0130EF2AC0B281BF5F
:1019300001F864EC04F16801023302F00F0289BF80
:101940000DEB010401F8642C04F8642CDCB223468E
:101950008EE718F8011B032001350AF0E1FEBEE70F
:1019600020330020EB0B0020375D010838310020C8
:10197000955D0108FC330020480F00202DE9F0435D
:10198000002791B0044638223946DFF8D89202A8E1
:10199000019712F05BF9F42301AA082138469F4E03
:1019A000FEF770FE0DF1050209EB840310213846A5
:1019B000D3F89C31FEF766FE0DF1070209EB8403B4
:1019C00010213846D3F8C431FEF75CFE3268510767
:1019D000C2F3800340F109813379A3421BD1C825AA
:1019E0008F480DF0A1FCB0FBF5F303FB15058D4806
:1019F00012F0D0F9394601358B4812F02FF98B4897
:101A0000EDB2294612F02AF92B460DF10902082100
:101A10003846FEF737FE33684FEA0418844F13F058
:101A2000080FC3F3C00000F0E5803379A3421BD157
:101A3000C8257B480DF078FCB0FBF5F303FB1505DA
:101A40007C4812F0A7F907EB08037B48997812F05D
:101A500005F92946794812F001F92B460DF10A02E1
:101A600008210020FEF70EFE01230DF10B020821D4
:101A70000020FEF707FE07EB0805052303AA102147
:101A80000020EB80FEF7FEFD17230DF10E0208216A
:101A90000020FEF7F7FD01230DF10F0210210020B9
:101AA000FEF7F0FD664B0DF1110220210020FEF73C
:101AB000E9FD00230DF1150210211846FEF7E2FDA5
:101AC00000230DF1170210211846FEF7DBFD00235D
:101AD0000DF1190210211846FEF7D4FD00230DF177
:101AE0001B0210211846FEF7CDFDAB68554A07EBE7
:101AF00008051821002093420DF11D028CBF03F14F
:101B0000FF330133EB60FEF7BDFD18224E4B082179
:101B1000002002FB0433EA68DA604C4B1A5DB22AFB
:101B200094BF01320A221A5508AA1B5DFEF7AAFDCE
:101B300001230DF1210208210020FEF7A3FD01235E
:101B40000DF1220208210020FEF79CFD00230DF17B
:101B5000230208211846FEF795FD33689A0653D5EF
:101B60003379A34250D17D252D480DF0DDFB47444C
:101B7000B0FBF5F303FB1505354812F00BF9F978C6
:101B80000135344812F06AF8FB78EDB23248AB42C6
:101B900004BF023DEDB2294612F060F82B4609AAB7
:101BA00008210020FEF76EFD00230DF1250208211B
:101BB0001846FEF767FD222101A808F059FC0DF137
:101BC0002602034620210020FEF75CFD33689B05BA
:101BD0001ED53379A3421BD1204812F0DBF82048F0
:101BE00012F03CF811B0BDE8F0830DF109020821B4
:101BF00018460EE707EB0802082193780133DBB2A1
:101C000093700DF10A022DE7A14499F8EB30C6E775
:101C10002246262101A8FFF717FEE3E764290020EA
:101C2000FCBA0020F25D0108155E0108345E01086F
:101C300084290020535E0108765E0108955E010844
:101C4000AF32E233EFFFFF00E8340020040200204F
:101C5000B45E0108E45E0108FD5E0108185F01083A
:101C60002D5F0108480F00202DE9F0474FF00008D4
:101C70009EB004463822414610A89E4D2701CDF85B
:101C80003C8011F0E3FF3C22414668469A4E11F039
:101C9000DDFFF4236A4608214046FEF7F3FC0DF110
:101CA000010205EB8403102105EB84054046D3F8BF
:101CB0009C31FEF7E7FCD5F8C431904D0DF10302DD
:101CC00010214046FEF7DEFC2B6813F0040F00F0F5
:101CD000F7802B79A34240F0F3804FF0C809884881
:101CE0000DF022FBB0FBF9F303FB1909854812F054
:101CF00051F8F3198448597811F0B0FF49468348E8
:101D000011F0ACFF4B4608210DF105020020FEF753
:101D1000B9FC2B68190740F1D6802B79A34240F01B
:101D2000D2804FF0C80876480DF0FEFAB0FBF8F309
:101D300003FB1808764812F02DF8F31975489978C6
:101D400011F08CFF4146744811F088FF43460DF1B5
:101D5000060208210020DFF8E081FEF793FC022351
:101D60000DF1070208210020DFF8D0A1FEF78AFC60
:101D700018F80430012B40F0A98004F0B7F8674A46
:101D800004EB440310680AEB43014AF813009388FC
:101D900063488B8011F0FEFF0020682302AA102107
:101DA00008F804004FF00609FEF76CFC0DF10A027A
:101DB000082109FB04F900200AEB090898F805300E
:101DC000FEF760FC98F804300DF10B0208210020AA
:101DD000FEF758FC98F8033003AA08210020FEF70C
:101DE00051FC1AF809300DF10D0208210020FEF710
:101DF00049FC98F801300DF10E0208210020FEF791
:101E000041FC98F802300DF110080DF10F02082185
:101E10000020FEF737FC0123424608210020FEF790
:101E200031FC00230DF1110208211846FEF72AFCAF
:101E300001230DF1120208210020FEF723FC2B687C
:101E40009A0748D52B79A34245D12D483E440DF041
:101E50006BFA8146334811F09DFFF168324811F06A
:101E6000FDFE4946314811F0F9FE4B460FAA1821F4
:101E70000020FEF707FC6A460DF13F0316460833C3
:101E800003CE464543F8080C43F8041C3246F5D10E
:101E900031880FA8B278198016219A7008F0E8FAF4
:101EA0000DF11302034620210020FEF7EBFB2B6807
:101EB0009B0513D4224617216846FFF7C5FC16E0A0
:101EC000F3195B781FE7F3199B7840E7282302AAF0
:101ED0001021002066E73E44F368C7E72B79A34250
:101EE000E8D1134811F056FF124811F0B7FE1EB0AA
:101EF000BDE8F087480F00208429002064290020D5
:101F0000FCBA00203F5F0108625F0108805F0108A2
:101F1000535E0108765E0108955E0108003E0020D0
:101F20009F5F0108B45F0108D75F0108F85F0108EF
:101F3000185F01082D5F0108B4230020FC23002056
:101F40002DE9F04F4FF000089FB00446382241467B
:101F500001A8AE4D2601CDF8008011F077FE3822A1
:101F6000414610A8CDF83C8011F070FEF4236A467B
:101F700008214046A64FFEF785FB0DF1010205EB57
:101F80008403102105EB84054046D3F89C31FEF70D
:101F900079FBD5F8C4310DF10302102140469D4D67
:101FA000FEF770FB3B6813F0040F00F001813B79F2
:101FB000A34240F0FD804FF0C80997480DF0B4F9F6
:101FC000B0FBF9F303FB1909944811F0E3FEAB19D8
:101FD0009348597811F042FE4946924811F03EFE6E
:101FE0004B460DF1050208210020DFF868A2FEF73C
:101FF00049FB3B6813F0080F00F0DD803B79A342FA
:1020000040F0D9804FF0C80883480DF08DF9B0FB3F
:10201000F8F303FB1808844811F0BCFEAB198348A1
:10202000997811F01BFE4146814811F017FE434696
:102030000DF1060208210020FEF724FB01238AF897
:10204000003004230DF1070208210020FEF71AFBDF
:10205000AB19DFF80482988818F8043010F00800F3
:1020600000F0B780012B02AA4FF010014FF00000E2
:102070000CBF68232823FEF705FBAB199B88990644
:1020800040F1AF8018F80430DFF8D0B1012B11D146
:1020900003F02CFF674A04EB440310680BEB430189
:1020A0004BF81300938864488B8011F073FE002373
:1020B00008F804304FF006090DF10A02082100204B
:1020C00009FB04F90BEB090898F80530FEF7DAFA7A
:1020D00098F804300DF10B0208210020FEF7D2FA27
:1020E00098F8033003AA08210020FEF7CBFA1BF86A
:1020F00009300DF10D02082100204FF01009FEF704
:10210000C1FA98F801300DF10E0208210020FEF707
:10211000B9FA98F802300DF10F0208210020FEF7FD
:10212000B1FA3B689A075FD53B79A3425CD13A4844
:1021300035440DF0F9F8414BB0FBF3F8C8EB084813
:10214000A0EB08283E4811F025FEE9683D4811F053
:1021500085FD41463C4811F081FD43460FAA1821F8
:102160000020FEF78FFA0023DAB201334A45114608
:102170003DD303310FA808F07BF9202103460DEB76
:1021800009020020FEF77EFA002309F104018AF813
:1021900000303B689B0531D53B79A3422ED12B48BB
:1021A00011F0F8FD2A4811F059FD1FB0BDE8F08F7D
:1021B000AB195B7815E7AA190020082193788AF8F3
:1021C00000000133DBB293700DF10602FEF75AFAFC
:1021D00037E7012B02AA4FF010010CBF6423242320
:1021E00049E74FF00A099CE73544EB68B6E77832D7
:1021F0006A4412F8781C02F8391CB5E7224601F04F
:10220000FE016846FFF720FBCFE700BF480F002024
:102210006429002084290020FCBA0020F25D010816
:102220001B60010838600108535E0108576001080F
:1022300074600108003E00209F5F010800FFFF005E
:10224000B45F0108D75F0108F85F0108185F010853
:102250002D5F0108A1330020B4230020FC230020BF
:102260002DE9F0434FF0000891B004463822414672
:10227000744D02A8CDF8048011F0E8FCF42301AA03
:1022800008214046704EFEF7FDF90DF1050205EB01
:102290008403102105EB84054046D3F89C312701C7
:1022A000FEF7F0F9D5F8C4310DF1070210214046D0
:1022B000664DFEF7E7F9336813F0040F00F0AE80C7
:1022C0003379A34240F0AA804FF0C80960480DF06E
:1022D0002BF8B0FBF9F303FB19095E4811F05AFD26
:1022E000EB195D48597811F0B9FC49465B4811F08B
:1022F000B5FC4B460DF1090208210020FEF7C2F99A
:1023000033681A0740F18D803379A34240F0898009
:102310004FF0C8084E480DF007F83D44B0FBF8F305
:1023200003FB18084E4811F035FDA9784D4811F00F
:1023300095FC41464C4811F091FC43460DF10A02D0
:1023400008210020494DFEF79DF906230DF10B02EF
:1023500008210020DFF82881FEF794F92B5D012B7E
:1023600065D103F0C3FD424A04EB4403106808EB57
:10237000430148F8130093883E488B8011F00AFD12
:102380000020692303AA102128550627FEF77AF9B1
:102390000DF10E0208216743002008EB07056B7959
:1023A000FEF770F92B790DF10F0208210020FEF7DE
:1023B00069F9EB7804AA08210020FEF763F918F800
:1023C00007300DF1110208210020FEF75BF96B7850
:1023D0000DF1120208210020FEF754F9AB780DF13F
:1023E000130208210020FEF74DF9102101A808F082
:1023F0003FF805AA034620210020FEF743F9336881
:102400009B0519D53379A34216D11B4811F0C2FCA4
:102410001A4811F023FC11B0BDE8F083EB195B788A
:1024200068E73D44AB780133DBB2AB7086E7292324
:1024300003AA10210020A8E72246142101A8FFF7D3
:1024400003FAE8E7480F00206429002084290020CF
:10245000FCBA0020F25D01081B6001083860010829
:10246000535E01085760010874600108B42300201E
:10247000003E00209F5F0108185F01082D5F0108E2
:10248000FC2300202DE9FF47624C0027624811F031
:1024900081FC94F82110614811F0E0FBD4F8181287
:1024A0005F4811F0DBFBD4F81C125E4811F0D6FB3C
:1024B000D4F820125C4811F0D1FBD4F824125B4808
:1024C00011F0CCFBDFF89481B4F8F8105848DFF82D
:1024D000909111F0C3FBDFF88CA194F821104F48C4
:1024E00011F0BCFB94F82130FDB2AB4234D894F823
:1024F0003E30002694F83C2094F83B1000934D4861
:1025000094F83D3011F0AAFB94F84A3094F8462034
:10251000029394F8493094F84510019394F84830A8
:1025200045480093DFF8408194F84730DFF83C914C
:1025300011F094FBDFF838A1B4F8F8103F4811F01F
:102540008DFB94F82030F5B2AB4223D8324804B06A
:10255000BDE8F04711F01EBC04EB85062946404655
:10256000013796F89E30019396F89D30009396F8C7
:102570009C3096F89B2011F071FBB6F84A21294651
:10258000484611F06BFBB6F84C212946504611F035
:1025900065FBA7E7691C404611F060FB484604EB69
:1025A000850367190136D3F89C1111F057FB50468B
:1025B00004EB8503D3F8C41111F050FB204804EB61
:1025C0004503B3F8001211F049FB97F8EB101D48D2
:1025D00011F044FB97F823101B4811F03FFB97F8CC
:1025E0002D101A4811F03AFB05F18A03184854F8E7
:1025F000231011F033FB05F194039E35154854F870
:10260000231011F02BFB54F82510134811F026FB72
:1026100097E700BF480F002095600108E6600108B9
:10262000086101082B6101085561010881610108F9
:10263000AC6101081462010830620108D27F010810
:10264000A3620108BF620108D7620108E8620108BD
:10265000FB620108166301082F630108D7610108B6
:10266000F4610108046201085E62010871620108F8
:102670008A6201082DE9F0470026234DDFF89C808F
:10268000DFF89C90F4B295F82030A34201D8BDE861
:10269000F08758F82400A8B304F1940705F09AF9DC
:1026A00055F8273003F57A7398422BD959F824004E
:1026B00005F090F955F8273003F57A73984221D93F
:1026C000DFF860A01AF80430012B1BD00F4B53F831
:1026D0002430B3F57A7F15D958F82400012705F086
:1026E00079F94FF47A71B0FBF1F1094811F0B6FABB
:1026F000084B214620461F55FFF740F9064B0AF8C4
:1027000004701F550136BDE7480F0020F02C002053
:1027100049630108FC330020242A0020402D0020BA
:10272000F42E0020422A00202DE9F8430026DFF88D
:102730006080DFF86090154FF4B298F82030A34223
:1027400001D8BDE8F883182303FB04931B79012B00
:1027500005D008EB040393F82D30022B13D13B5D19
:10276000012B10D1A51C07EB8505686805F032F92F
:10277000322808D921462046FFF776FA00233B5538
:102780004FF0FF336B600136D6E700BF38340020CE
:10279000480F0020E83400202DE9F84300261B4FA5
:1027A000DFF87880DFF8789097F82030F4B2A34211
:1027B00001D8BDE8F88358F8240020B3182505FB9C
:1027C0000495EB78FBB105F005F904F18A0357F89D
:1027D0002330984217D907EB84014FF47A720C48E2
:1027E000D1F89C11B3FBF2F211F038FA58F824102A
:1027F000084811F033FA0AF04DF90146064811F085
:102800002DFA0023EB700136CEE700BF480F002001
:1028100075630108A8630108D6630108682D0020CC
:10282000E83400202DE9F041214E0546331893F895
:102830002330012B02D00120BDE8F0811D4B1B7815
:10284000012BF8D106231C4A4FF46167434302EB86
:102850000308D05C03F028FB044698F8010003F05D
:1028600023FB02B298F80200C2EB0212920007FBAF
:10287000042403F019FB044403F038FB0F4A537897
:102880001078C3EB03139900937807FB00111944E8
:10289000611A0029B8BF49420129CCDD06EB850544
:1028A0000748D5F89C2111F0D9F90020C4E700BFF2
:1028B000480F0020502A0020FC230020063E002064
:1028C000E16301082DE9F04F0E4605461446DFF896
:1028D000C093053E2DED028B83B008EE103A0AF04E
:1028E000D9F80746B1B2284607F0C2FD8046AA19BA
:1028F00020210020FDF78EFE8045009013D009EBCB
:102900008404C948D4F89C1111F0A8F90099C7486B
:1029100011F0A4F94146C64803B0BDEC028BBDE8F6
:10292000F04F11F09BB904F1FE08C24B4FF0010AC1
:10293000C14E09EB480805F11D0203F804A010215F
:10294000002006F804A0FDF765FEB8F8042083B265
:1029500083469A42B94B1DD003F804A009EB8403C7
:10296000B748D3F89C1111F079F9B6481FFA8BF1EA
:1029700011F074F9B8F80410B34811F06FF9B349C5
:1029800009EB0A00FDF75CFC30B103B0BDEC028B33
:10299000BDE8F08F00221A5509EB040A05F1240264
:1029A00008210020FDF736FE9AF8EB305FFA80F838
:1029B000434540F02081A64B4FF0010BDFF8D48255
:1029C000102143F8247005EB0B02A24B4FEA441A86
:1029D00006F804B000261E5530469F4B43F824707D
:1029E00008EB4417FDF716FE81B238829B4811F0C0
:1029F00035F9EA1C10213046FDF70CFEF88181B252
:102A0000974811F02BF96A1D08213046FDF702FEA8
:102A1000AA1D082108F80A003046FDF7FBFDEA1D53
:102A2000082178703046FDF7F5FD05F10802B87011
:102A300010213046FDF7EEFD8A4B80B203EB041304
:102A40009880830600F128810A26AA19082100200F
:102A500008EB441AFDF7DEFD721C63018AF80300DF
:102A60002A44102100200193FDF7D4FDF21C042319
:102A7000AAF81200AF18A85803EB441306F1090294
:102A8000A14448F8030008EB0301BB882A44002056
:102A9000754F8B801021FDF7BDFD06F10B02AAF8E2
:102AA000140010212A440020FDF7B4FD06F10D02A8
:102AB000AAF8160010212A440020FDF7ABFD06F10C
:102AC0000F02AAF8180018212A440020FDF7A2FDE1
:102AD0001822644B082102FB047203EB041B906074
:102AE00006F11202CBF8080000202A44FDF792FDFF
:102AF0005C4BC0B2082122018BF80200985406F109
:102B0000130200202A44FDF785FD06F114028AF81D
:102B10000A0008212A440020FDF77CFD99F8EB30DB
:102B2000C0B206F1150A83428BF803000CD04F485F
:102B300011F030F999F8EB104D4811F08FF89BF82F
:102B400003104C4811F08AF805EB0A020821002016
:102B5000FDF760FD06F11602630108212A4408EB27
:102B6000030989F80B000020FDF754FDC1B20129CB
:102B700089F80C1006F1170905D03F4811F06EF8DE
:102B80003E4811F007F905EB090208210020FDF786
:102B900041FD06F11802630120212A44384D984472
:102BA00088F80D000020FDF735FD18EE101AC8F862
:102BB0001C002046FEF7E2FE1823009A6343FE182D
:102BC000FC5404EB44037261012207EBC3077271EA
:102BD00072700FCF0FC597E8030085E8030040F23D
:102BE000022005F025FA0023737009F053FF254BEE
:102BF00043F82400C9E609EB84032348D3F89C1169
:102C000011F02CF89AF8EB10194811F027F841460A
:102C1000184811F023F80D491C48FDF711FB002856
:102C20003FF4C9AEB1E600BF1F6401080F5A0108A6
:102C30001E5A01082E2A002018310020AA23002045
:102C40003A6401087264010894640108B6640108DA
:102C5000402D0020422A0020F02C00202D5A01088F
:102C6000345A010884290020E83400201265010844
:102C7000EA640108FE6401082C6501085765010833
:102C8000CC34002010340020C2640108490F002019
:102C9000480F0020DC2400204FF0060A05F10A024C
:102CA00008213046FDF7B6FC0AFB04FA194B05F182
:102CB0000B02082103EB0A0778713046FDF7AAFCE6
:102CC00005F10C02082138713046FDF7A3FC05F12F
:102CD0000D020821F8703046FDF79CFC0D4B05F104
:102CE0000E02082103F80A003046FDF793FC05F1B7
:102CF0000F02082178703046FDF78CFCB870204632
:102D0000FFF790FD044B10B11E5510269DE603F809
:102D100004B0FAE7FC230020B42300202DE9F04F93
:102D20004FF0000914460646D44F4FEA04182DED23
:102D3000028BA7B008EE103A029109F0ABFE7C229C
:102D40004946009007A8CDF8189010F07FFFCC49B5
:102D5000CC48FDF775FA002800F03282CA4B1A6899
:102D6000D20740F1F8811B79A34240F0F481C74DAE
:102D7000C7480CF0D9FAB0FBF5F5C5EB0545A0EB5B
:102D80000525C44811F006F807EB0803C248996806
:102D900010F064FF2946C14810F060FF2B4606AAD8
:102DA00018210020FDF76EFC029A0023A2F1050A0B
:102DB000D9B201335145C0F2D281033106A806EBE6
:102DC0000A0B07F055FB814620215A460020FDF7EB
:102DD00021FC814505464BD0721D0821002001923F
:102DE000FDF718FC019A002840F0C081AC4810F0B3
:102DF000D1FF8022002106A810F028FF07EB08036E
:102E000006AA18219B6800200133FDF73BFC002334
:102E1000D9B201338A4500F3B781033106A807F020
:102E200027FB81465A4620210020FDF7F3FB814510
:102E3000054640F0B08107EB08099A4810F0AAFF58
:102E40002946994810F00AFFD9F80810974810F061
:102E500005FFD9F8081096480131C9F8081010F09C
:102E6000FDFE1822934B02FB0433D9F808209A6028
:102E7000009A0021904B4FF0300ADFF8689243F837
:102E800024208E4B43F8242001228D4B1A5504EB4D
:102E90004413402209EB4303184610F0D7FE029A70
:102EA000314610F0ABFEBDF80830721C10210593BE
:102EB0004223002003FB0499059BA9F84030DFF86A
:102EC0002892FDF7A7FB81B20AFB049AAAF8280012
:102ED0007C4810F0C3FEF21C10210020FDF79AFB85
:102EE000AAF8260081B207EB080A774810F0B6FE70
:102EF000721D08210020FDF78DFBB21D8AF802002B
:102F000008210020FDF786FBC0B28AF80100D8B97D
:102F10006E4B6F4803EB8403D3F89C1110F09EFEB8
:102F2000DAF80C106B4810F099FEDAF80C106A48C9
:102F30000131CAF80C1010F091FE18225D4B02FB13
:102F40000433DAF80C20DA60F21D0821002007EBC8
:102F5000080AFDF75FFB3023102106F1080203FB8E
:102F6000049989F802000020FDF754FB44491FFA38
:102F700080F94448AAF80490FDF762F918B949F0BD
:102F80000809AAF80490B844B8F804309B0640F148
:102F90001B814FF00609DFF854A106F10A0208214F
:102FA00009FB04F90020FDF735FB06F10B020AEBE3
:102FB0000908082188F805000020FDF72BFB06F121
:102FC0000C02082188F804000020FDF723FB06F11D
:102FD0000D02082188F803000020FDF71BFB06F115
:102FE0000E0208210AF809000020FDF713FB06F184
:102FF0000F02082188F801000020FDF70BFB88F87C
:1030000002002046FFF70EFC344B002800F0DA8067
:1030100000224FF0100A1A5507EB0417DFF8C8908A
:103020004FF0300806EB0A02BB88082108FB049821
:10303000002003F008030AF102070393FDF7EAFA00
:10304000C1B288F80300264810F008FE0AF1010218
:10305000082100203244FDF7DDFA98F8033088F8A3
:1030600004004FF0000813F0070F4FEAD30314BF1A
:103070000133DBB2019304EB440339E084290020DF
:10308000B6640108490F00206429002000FFFF00FA
:10309000FCBA0020EC5801080B590108315901080D
:1030A000575901087065010893590108876501089F
:1030B000C9590108E8340020402D0020682D002067
:1030C000223100202D5A0108345A0108480F0020EF
:1030D000D56501081766010827660108B42300209A
:1030E000366601085C2A00200C270020FC23002003
:1030F000BDF804A04FEA031B0BF105039944CDF87A
:1031000010901FFA88F317FA88F29A4592B25ED8A7
:1031100057440A20DFF88083BBB2049310F0B6FD59
:10312000C44B234493F82D30022B08D13023C248DE
:1031300003FB0483597901F0010110F08FFD0BF1BD
:1031400015074FF0300B4FF0000A4744DFF8488373
:103150000BFB048B55E007EB08039B681FE601F1AE
:103160009802715C6A4402F87D1C21E60821002067
:10317000FDF750FA01283FF439AEAE4AAF4802EBF2
:103180008404D4F89C110CE001F19802715C6A444B
:1031900002F87D1C3CE6A74AA94802EB8404D4F857
:1031A0009C1110F05BFD2946A64810F057FD4946DA
:1031B000A54810F053FD27B0BDEC028BBDE8F08FA1
:1031C000054655E6012224E74FF00A0A24E7324477
:1031D00008210020FDF71EFA049BC2B2414603F805
:1031E000010B08F101089948049310F037FD88E7B6
:1031F0000AF1010A324408210020FDF70BFA07F812
:10320000010B1FFA8AF3049A9BF8041012FA8AF24F
:10321000994292B2ECD818EE101A2046FFF720F827
:103220008B4B01228B4F1A5503EB8403009ADA6013
:10323000182303FB04731B79012B11D1864B462203
:103240000021184610F002FD059A04803146828064
:103250000630029A10F0D2FC4FF4017004F0E8FE40
:10326000744B234493F82D30022B00F0AF80039B66
:103270001E1E18BF012604EB8403DFF820821022F3
:1032800000219B0003F1010B029308EB0B0A50464F
:1032900010F0DCFC019A4946504610F0AFFC514654
:1032A000019A002007F072F81422019B6243DFF8B4
:1032B000F0A108EB020108F802404B744882029B1F
:1032C000002E41D00AEB0B09102200210193484641
:1032D00010F0BCFC019B0AEB03024344114603F1CE
:1032E000140053F804CB834241F804CBF9D15B4B73
:1032F000009943F82410142303FB04A3598A584B64
:1033000033F8140088421FD023F814101346554A8E
:1033100003F1140153F8040B8B4242F8040BF9D16A
:103320004FF4027004F084FE4F4B33F814305BB955
:103330004E4B09F1100203EB0413023359F8041B3E
:10334000914543F8041BF9D118234FF01409634346
:1033500009FB04A907EB0308FC540123B9F8122068
:10336000C8F8145088F8013004EB4403A8F806208C
:10337000022207EBC30788F8026088F805203C4D5D
:103380000FCF0FC597E8030085E8030040F2022045
:10339000002504F04DFE374B009A374943F82420AE
:1033A0000C23364A88F80150002E00F08480009DDE
:1033B00003FB04223248556040F8245056700E55E5
:1033C0004FF480712F480AF042FEF4E6302303FBED
:1033D000048898F8056016F001060DD12A4810F00F
:1033E000D9FC2A4B0122314648461A551022284B57
:1033F0001E5510F02BFC3EE7039B002B59D0DFF845
:103400008CA01AF80480B8F1010F7FF434AF204E7D
:103410002048315D0131C9B2315510F01FFC335DD8
:10342000032B3FD900230AF80430042333554646C2
:1034300021E700BF480F00204A660108C165010866
:10344000A46501080F5A01081E5A01083D660108CB
:1034500038340020E8340020EC350020902D002086
:10346000FC300020D8350020AC2E00203236002061
:10347000CC3400201034002006340020EC2800203A
:10348000B82D0020001C024060660108A023002027
:10349000512A0020706601080C27002064310020AA
:1034A000E42D0020102200214846002610F0CEFB1B
:1034B000E1E6039EDFE60D550AEB0B0003FB042457
:1034C000009B10222946A360657010F0BFFBA9F88D
:1034D000125075E72DE9F04F4FF0000914460546EC
:1034E00024228A464946D64F4FEA04182DED028B16
:1034F0008DB008EE103A03A8CDF8089010F0A6FBA6
:1035000009F0C8FACF490090CF48FCF799FE00288F
:1035100000F01882CD4B1A68D10740F1E0811B7989
:10352000A34240F0DC814FF6FF76C9480BF0FCFE69
:10353000B0FBF6F6C6EB0646861BC64810F02AFC22
:1035400007EB0803C448996810F088FB3146C3486C
:1035500010F084FB334602AA18210020AAF1050AC4
:10356000FDF790F80023D9B201335145C0F2BB8179
:10357000033102A806F07CFF834605EB0A022021F6
:103580000020FDF747F88345064647D06A1D08210D
:103590000020DFF80493FDF73DF804F16603C0B2A4
:1035A000012800F2C28109EB8303AD48596810F08D
:1035B00055FB2822002102A810F048FB07EB080366
:1035C00002AA18219B6800200133FDF75BF8002355
:1035D000D9B201338A4500F38D81033102A806F088
:1035E00047FF8642824640F08C8107EB08099D48E0
:1035F00010F0D0FB9C48D9F8081010F02FFBD9F838
:1036000008109A480131C9F8081010F027FB182259
:10361000974B02FB0433D9F808209A60DFF87C92BC
:103620004FF00C0A6A1C10210AFB049A0020FCF7D8
:10363000F1FF07EB080BAAF80600EA1C1021002096
:10364000FCF7E8FF6A1DAAF8040008210020DFF853
:1036500048A2FCF7DFFFAA1D8BF80200082100201A
:10366000FCF7D8FFC0B28BF80100D0B90AEB840395
:103670008048D3F89C1110F0F1FADBF80C107E486A
:1036800010F0ECFADBF80C107C480131CBF80C1090
:1036900010F0E4FA1822764B02FB0433DBF80C201E
:1036A000DA60EA1D0821002007EB080BFCF7B2FFE7
:1036B0000C23102105F1080203FB049989F802008C
:1036C0000020FCF7A7FF5F491FFA80F95E48ABF8BE
:1036D0000490FCF7B5FD18B949F00809ABF804905F
:1036E00007EB08039B889A0640D505F10A020821DA
:1036F0000020DFF8ACB1FCF78DFF062305F10B02CB
:10370000082163430BEB0309019389F805000020AE
:10371000FCF780FF05F10C02082189F80400002065
:10372000FCF778FF05F10D02082189F8030000205D
:10373000FCF770FF019B05F10E0208210BF8030056
:103740000020FCF767FF05F10F02082189F801004E
:103750000020FCF75FFF89F802002046FFF762F8BF
:10376000474B002800F0F08000221A55474418EE1D
:10377000101A20463E4DBF884FF01808FEF7E0FBB8
:10378000009A404B08FB045807F00807DFF8149133
:1037900043F824203C4BD8F8100043F8242004F0D0
:1037A00019F90AEB0403C8F8100093F82D30022B26
:1037B00040F0E280354BDFF8F0801A5DDFF8ECB0C6
:1037C000032A00F2C380302303FB04835B79DB0709
:1037D00000F1BC801BF80430012B40F0B7800027BB
:1037E00018234FF0140ADFF8C8C063430AFB049B98
:1037F00005EB0308EC54BBF8122004EB4403C8F8B3
:1038000014600126A8F8062005EBC305042288F8F9
:10381000016088F8027088F805200FCDACE80F0031
:1038200095E8030000258CE8030040F2022004F034
:10383000FFFB174B009A174943F824200C2239E06C
:1038400084290020B6640108490F00206429002063
:10385000FCBA0020ED5801088266010831590108C0
:10386000A666010870650108CA660108E1660108DC
:10387000E8340020D56501082D6701083867010884
:10388000B4230020402D0020682D0020512A002064
:103890001034002006340020480F00209426002019
:1038A000FC230020E42D00200C270020A023002072
:1038B000CC3400205D4B88F80150002F00F0A6802A
:1038C000009D02FB04335A485D6040F824505F704D
:1038D0000F554FF4807157480AF0B9FB20E007EB11
:1038E00008039B6837E601F13002695C6A4402F81C
:1038F000251C38E601F13002695C6A4402F8251C97
:1039000066E609EB84044C48D4F89C1110F0A6F943
:1039100031464A4810F0A2F95146494810F09EF944
:103920000DB0BDEC028BBDE8F08F09EB8309454873
:10393000D9F8041010F092F93146404810F08EF991
:103940005946EAE7064669E601220EE70AEB840AD1
:103950003D48DAF89C1110F081F91BF804103B483F
:1039600010F07CF930233A4803FB048898F80510DE
:1039700001F0010110F072F9002F3FF430AF04EBB9
:10398000840200214FEA8208102208F1010009EBAD
:103990000007384610F05AF92E4A09EB0803424452
:1039A000194602F1140052F804CB824241F804CBCC
:1039B000F9D1142202FB0492518A274A32F81400EA
:1039C000884201D101270BE722F8141003F11401FA
:1039D000224A53F8040B8B4242F8040BF9D14FF4FE
:1039E000027004F025FB1E4B33F81430002BE9D194
:1039F0001C4B384607F1100203EB0413023350F856
:103A0000041B904243F8041BF9D1DBE702FB0433AB
:103A10001AFB0460009A0D5548449A60294610220A
:103A20005D7010F013F9ABF8125052E7EC2800204B
:103A3000B82D0020001C0240F96601080F5A010849
:103A40001E5A0108176701084367010850670108FB
:103A50006567010864310020FC300020D835002063
:103A6000AC2E0020323600202DE9F04F0F460546DF
:103A70001446053F2DED028B83B008EE103A09F095
:103A800009F80646B9B2284606F0F2FC8146EA1962
:103A900020210020C24FFCF7BDFD8145804613D098
:103AA00007EB8404BF48D4F89C1110F0D7F84146C6
:103AB000BD4810F0D3F84946BC4803B0BDEC028BBA
:103AC000BDE8F04F10F0CAB8B94B6A1C10210020B5
:103AD00043F824604FF00C0AB64BDFF82CB343F8E0
:103AE0002460FCF797FDB44BEA1C10210AFB043A52
:103AF0000BEB0419AAF806000020FCF78BFD6A1DE9
:103B0000AAF8040008210020FCF784FDAA1D230167
:103B1000082189F8020000200193FCF77BFDEA1DD3
:103B2000082189F801000020FCF774FD10218AF8B3
:103B3000020005F108020020FCF76CFD9F491FFA06
:103B400080FA781CA9F804A0FCF77AFB18B94AF0AF
:103B5000080AA9F804A023015B449B889A063FD574
:103B60004FF0060A05F10A0208210020FCF752FD79
:103B70000AFB04FA924B05F10B02082103EB0A0938
:103B800089F805000020FCF745FD05F10C0208212D
:103B900089F804000020FCF73DFD05F10D02082125
:103BA00089F803000020FCF735FD854B05F10E0276
:103BB000082103F80A000020FCF72CFD05F10F0294
:103BC000082189F801000020FCF724FD89F8020093
:103BD0002046FEF727FE7B4B002864D000221A55B2
:103BE000230118EE101A20460FFA84F95B449D88D1
:103BF000FEF7A6F93B1905F0080593F82D30022BC6
:103C000068D1714BDFF804A21A5DDFF804B2032A11
:103C10004BD8302303FB04A35B79DB0745D41BF8A7
:103C20000430012B41D100271823684D09EB4909C5
:103C300006226343DFF8DCC105EB030AEC5405EB15
:103C4000C905CAF814804FF001088AF805208AF8DF
:103C500001808AF802700FCDACE80F0095E80300F0
:103C600000258CE8030040F2022004F0E1F9584BF3
:103C7000584A43F824608AF80150574B002F7BD0F4
:103C800017550C22554902FB043341F824605F703C
:103C90005E604FF48071524803B0BDEC028BBDE80A
:103CA000F04F0AF0D4B9012299E707EB84074D4899
:103CB000D7F89C110FF0D2FF1BF804104A480FF000
:103CC000CDFF3023494803FB04A3597901F00101DA
:103CD0000FF0C4FF002DA6D009EB8902444F00214C
:103CE0004FEA820A10220AF101003D1828460FF01F
:103CF000ADFF404A07EB0A035244194602F1140093
:103D000052F804CB824241F804CBF9D1142202FBD1
:103D10000472518A384A32F81400884201D10127CE
:103D200082E722F8141003F11401344A53F8040B0B
:103D30008B4242F8040BF9D14FF4027004F078F989
:103D40001822224B02FB0433142202FB04777A8AE6
:103D5000DA802B4B33F81430002BE0D1294B284666
:103D600005F1100203EB0413023350F8041B9042D8
:103D700043F8041BF9D1D2E715550C221427294624
:103D800002FB0433102217FB04809E60184E5D7006
:103D900007FB046430440FF059FF658279E700BFE8
:103DA000480F0020736701080F5A01081E5A0108C6
:103DB000402D0020682D00201C260020B66401083C
:103DC000FC230020B4230020512A0020E8340020E6
:103DD0001034002006340020EC280020B82D0020EC
:103DE000001C02404367010850670108656701082D
:103DF000E42D002064310020FC300020D835002064
:103E0000AC2E002032360020842900200C27002010
:103E1000A0230020CC3400202DE9F8430026154FC4
:103E2000DFF85490DFF85480F4B297F82030A342C2
:103E300001D8BDE8F8830C252046FDF747FB05FBBC
:103E40000495686803F0C6FD04F18A0357F823302F
:103E500098420DD96B78012B0AD158F824206B6851
:103E60009A4205D000236B7008F014FE48F8240035
:103E70000136D9E7480F0020EC2800205C300020F4
:103E80002DE9F74F42494348FCF7DAF9002878D189
:103E900003B0BDE8F08F002955D1002223F814208B
:103EA00008F0F8FD49F8240008F1010897F82030DF
:103EB0005FFA88F4A342EBD93B1993F82D30012B1C
:103EC000F2D059F8240003F085FD41F2873398427F
:103ED00004D9314B33F81430012BE1D1DFF8DCB0D9
:103EE000DFF8DCA01BF804302C4E012B0ED12C4B3C
:103EF0001B5D5BB914236343F218534402F11401B0
:103F000052F8040B8A4243F8040BF9D11425654397
:103F10000AEB05023544518A6B8A019299422ED0F0
:103F2000204B53F8240003F055FDB0F57A7FBBD346
:103F3000019A0121184B528A23F81410698A002A29
:103F4000A9D10029A9D1164B14251BF80420195D0D
:103F5000654315480FF082FEAA4407EB84032E4404
:103F60001248D3F89C110FF079FEBAF812101048DD
:103F70000FF074FE718A0F480FF070FE90E7064B49
:103F80008BE74FF000080C4FDFF838908EE700BF4A
:103F9000B6640108490F0020AC2E00201C2F002021
:103FA00006340020902D0020916701089C670108CD
:103FB000A6670108B4670108480F0020E82E00201A
:103FC000E42D0020C023002070B50446184E08F0F0
:103FD00061FD18230546174803FB04639A78164BC6
:103FE000012A12D11549025541F824500C2101FB38
:103FF00004335D605A70182303FB04667378012B49
:1040000004BF0F4B43F8245070BD0C22002102FB6B
:10401000043301559D600B485970142303FB0402BF
:1040200010465182102201300FF010FEE3E700BF6E
:1040300030320020E82E0020E42F0020C02E002087
:10404000F42E00201C2F0020084B034410B593F8D9
:104050002D300446022B04D0FDF7CAF92046FDF7A7
:1040600035FA2046BDE81040FFF7AEBF480F0020EC
:104070002DE9F74F06460F4608F00CFD8F4B8046A2
:104080001B78DBB18E4DF21C10210020FCF7C2FA28
:1040900095F820101FFA80FA05F5CE7200235FFA1A
:1040A00083F949451CD8874B1B78012B15D1514604
:1040B000854803B0BDE8F04F0FF0D0BD08F0EAFC32
:1040C00042F20F739842DDD980480FF063FE8049B9
:1040D0008048FCF7B5F80028D4D003B0BDE8F08FD5
:1040E00052F8040B1C4601335045D8D104F1700B33
:1040F0001021721C002005EB8B0BFCF78BFADBF810
:10410000043081B28B4210D0734801910FF042FE0F
:10411000019972480FF0A2FDDBF804205146704867
:1041200003B0BDE8F04F0FF099BD6E4B1A68D20690
:104130001ED51B794B451BD16B4801910FF02AFE10
:1041400001996A480FF08AFD40F24D11684895F8D0
:1041500020A00FF083FD40F24D1195F8203053451B
:1041600008D8644801910FF015FE01996248A0E754
:10417000CA46F2E7534BDFF8C0B11B78012B0FD1D1
:104180001BF80410012908D0022964D02B1993F8D8
:104190002D30022B61D1594800E059480FF0FAFD4B
:1041A000584B1BF8042053F8241091420AD056496A
:1041B000564841F82480564943F8242041F8248089
:1041C0000FF0E8FD1BF80420524BDFF870B11A55D0
:1041D0005BF8240003F0FEFB04F18A0355F823305A
:1041E00098420ED3484B05EB84054B4843F8248096
:1041F000474BD5F89C114BF8248043F824800FF0EE
:104200002DFD464B812200214BF8248018460FF0EB
:104210001DFD3A46FFB231460FF0F0FC0821F21DB9
:1042200080F880700020FCF7F5F918223C4B054619
:10423000484602FB04330122DA703A4B43F82480EB
:10424000FFF702FFE9B24B1E052B34D8DFE803F07D
:1042500009121B21332A3448A0E734480FF0FEFC32
:104260009EE753464A463946304603B0BDE8F04F14
:10427000FEF728BB53464A463946304603B0BDE8F0
:10428000F04FFEF74BBD2A4803B0BDE8F04F0FF0EA
:1042900081BD53464A463946304603B0BDE8F04F2B
:1042A000FFF718B953464A463946304603B0BDE8D1
:1042B000F04FFFF7D9BB1F48FBE600BF0302002009
:1042C000480F0020EB0B002003680108C3670108BA
:1042D000B6640108490F00203F6801085B680108C7
:1042E0007D68010864290020B5680108277201086B
:1042F000D6680108E46801081869010853690108D3
:1043000035690108AC300020402D00208969010882
:10431000682D0020382A00209F69010820330020E2
:10432000E8340020182D002044690108686901085C
:10433000BB690108DC6901082C31002084300020B1
:1043400070B50024A0B00D467C220646214601A887
:104350000094ADB20FF07AFC224623469D4291B202
:1043600004D86846FFF784FE20B070BDF15C20A839
:10437000F02910FA82F002F1010202BF01339BB270
:10438000F15C03F1010308BF61F00F019BB200F87B
:10439000801CE3E710B50024A0B07C22214601A8D0
:1043A00000940FF053FC03F079FC08B920B010BD65
:1043B00003F080FCF42802D0F62809D094B104F16F
:1043C0008002631C0DEB020404F8800CDCB2EAE707
:1043D000611C04F1800311F0FF010DEB030404F8EC
:1043E000800C01D10024DEE70F29DFD96846FFF7F2
:1043F000A7FFDBE770B50024A0B07C22214601A80E
:1044000000940FF023FC1E4B93F82230CBB11D4BD0
:10441000186803F0DFFA132813D91B4E032008F0A5
:1044200047F970B1032008F057F9014605463046B8
:104430000FF014FC7E2C06D98022214613480FF081
:104440000DFC20B070BDF42D03D0F62D0AD0002C49
:10445000E4D004F18002631C0DEB020404F8805CDC
:10446000DCB2DBE7611C04F18003C9B20DEB03048D
:104470000F2904F8805CE4D96846FFF761FFE0E7A4
:10448000480F00208CC80020F8690108FF69010866
:104490002DE9F84F26492748FBF7D2FE002840D1E6
:1044A000BDE8F88F58F8240003F094FA04F19E0355
:1044B00056F8233098422DD958F8243059F8242042
:1044C0009A4227D04FF0140A49F8243006EB8403AF
:1044D00019480AFB04FA194DD3F89C114FF0000B50
:1044E0000FF0BCFB0AF10100154B10222844554483
:1044F000594603F804B00FF0A9FBA5F812B0182331
:10450000104D03FB0455286903F064FA2861204626
:10451000FFF75AFD0137FCB296F82030A342C1D80C
:10452000BEE70027084EDFF82480DFF82490F2E78A
:10453000B6640108490F0020286A0108E42D002014
:1045400006340020E8340020480F0020B82D002059
:10455000D430002038B5134D286803F03BFAB0F58D
:104560007A7F1ED9104C1421104B226801FB0233B4
:104570000F4A591853F8040B8B4242F8040BF9D137
:104580004FF4027003F054FD23680A4A013392F895
:1045900020202360934204BF0023236008F07AFAAE
:1045A000286038BD60310020E4340020E42D002074
:1045B000D8350020480F00202DE9F04FB94CADF25E
:1045C000B46DB94894F822100FF048FB94F82230EB
:1045D000002B00F063814FF45672002168460026DC
:1045E0000FF034FB4FF4567201253746DFF8F082A6
:1045F00000210DEB02000FF029FB94F82020F3B20C
:104600009A4272D8002D40F04281A6494FF456726A
:10461000A648A8460FF0F2FAA54B0122A548D6AE4F
:104620001A700FF0B7FBA448AE4694F820902B46C2
:1046300000F2791100F2DD1C2A465FFA8EF7B945C7
:1046400065D80DB18DF82020B8F1000F01D08DF89C
:10465000783394F821506B46924A0021C8B2043254
:104660000433854200F2BE809DF82050002D31D0E9
:10467000AE002A460DF123018F480FF0BFFA2A46FB
:104680000DF12D018D480FF0B9FA324667A92FB20E
:104690008B480FF0B3FA324671A98A480FF0AEFA90
:1046A00080A97A0088480FF0A9FA2A460DF1EB019B
:1046B00086480FF0A3FA32468AA985480FF09EFA81
:1046C000324694A983480FF099FA32469EA982484F
:1046D0000FF094FA9DF87833002B40F09D800DF296
:1046E000B46DBDE8F04FFDF7CDBE234493F82D30F7
:1046F000022B0AD0012B06D12FB1002594F82210ED
:1047000040460FF0ABFA013677E70127FBE7877ADF
:10471000012F34D10DEB020A05780DEB820B8AF8DC
:1047200023500D688AF82D70CBF89C518D6ACBF818
:10473000C4510DEB4205BCF800B0A5F800B290F8EA
:10474000C8508AF8EB5002F18A0AD1F88C504DF823
:104750002A5002F1940AD1F8B4504DF82A5002F1CF
:104760009E0AD1F8DC5001324DF82A50D2B23D46B3
:104770000EF1010E013004310CF1020C5DE7022F45
:10478000F6D106EB030890F800A088F82D7088F8A1
:1047900023A006EB830A0F68CAF89C718F6ACAF8D7
:1047A000C47106EB4307BCF800A0A7F800A290F87C
:1047B000C87088F8EB7003F18A08D1F88C7046F85D
:1047C000287003F19408D1F8B47046F8287003F10A
:1047D0009E08D1F8DC70013346F82870DBB24FF048
:1047E0000108C5E792F89700013183F8970092F825
:1047F000980083F8980092F8990083F8990092F84D
:104800009A0083F89A00B2F84601A3F84601B2F87C
:104810004801A3F8480121E72B440DF27B310DF24A
:10482000F4420DF5AB66DBB2601911F8017B52F86A
:1048300004CB80F823704F7A80F82D7004EB850745
:10484000C7F89CC1BC46576ACCF8C47104EB450755
:1048500036F802CBA7F800C291F8C77080F8EB7069
:1048600005F18A00D2F8887044F8207005F19400B0
:10487000D2F8B07044F8207005F19E000135D2F8EE
:10488000D870EDB244F82070AB42CDD127E7134881
:104890000DF2B46DBDE8F04F0FF07CBA0DF2B46DBF
:1048A000BDE8F08F480F0020486A0108EC0B00209B
:1048B0002C320020A36A01086B0F0020750F002026
:1048C000E41000200C1100204811002033100020BB
:1048D0007011002098110020C01100200F6B0108FA
:1048E000706A01082DE9F8431B4B1B78012B30D16E
:1048F0001A4CA222002100252046194E0FF0A6F9DD
:10490000DFF864C0BCF80030238096F82080EBB25A
:1049100098451ED903F16600124F002106EB800076
:10492000CAB2904513D957F8049B8E4642680131AC
:104930004A45F5D10CEB0E1204EB0313911C123215
:10494000023351F8040B914243F8040BF9D10135BD
:10495000DBE7BDE8F88300BF2C32002038240020BC
:10496000480F0020880D00203236002070B5204D01
:104970002B78012B01D105F045FF1E491E48FBF79E
:104980005FFC10B901232B7070BD1C4C1C4E2068BD
:1049900003F020F8D6F81C329842F5D3194B206862
:1049A0001A688242F0D0002418602C7003F012F8CC
:1049B0004FF47A71B0FBF1F113480FF04FF913483F
:1049C0000FF0E8F996F820202146114802EB420248
:1049D000D2000FF03BF92146A2220E480FF036F923
:1049E000FFF780FF40F21910BDE8704003F020BBD4
:1049F00003020020B6640108490F00201431002092
:104A0000480F002010310020216B01084E6B010877
:104A100030320020323600202DE9F74FDFF8BC811C
:104A20005E4ED8F8000002F0D5FFD6F8203298424A
:104A300000F2978003B0BDE8F08F06EB850309EB29
:104A40000514D3F89C213AF815300234012B4BD1D0
:104A5000534954480192FBF7F3FB019A002843D0D5
:104A6000114651480FF0FAF81022002120460FF0AD
:104A7000EDF8013796F82030FDB2AB42DDD84B4B54
:104A80001C7884B94A480FF085F94A480FF082F93A
:104A9000A222214648480FF0D9F8FFF723FF40F241
:104AA000191003F0C5FA454B1B78012B17D1444967
:104AB0000025DFF82C91DFF82CA1424F8B784A7843
:104AC000414809780FF0CAF8FFF70CFFACB296F82E
:104AD0002030B4EB031F4CDB0A200FF0D7F807F0AF
:104AE000D9FFC8F80000A5E71BF80510374B481E92
:104AF0005B5D41424141012B354808BF41F0020155
:104B000001910FF0ABF80199022910D003291BD0B5
:104B10000129A9D12F4B142202FB05356B1C11353D
:104B200053F8042BAB4244F8042BF9D1A1E72A4BEC
:104B3000142202FB05356B1C113553F8042BAB42D4
:104B400044F8042BF9D194E7234B142202FB0535DA
:104B50006B1C113553F8042BAB4244F8042BF9D1EC
:104B600087E70027DFF85090DFF87CA0DFF87CB003
:104B700080E799F800306BB90F4B234401349978E2
:104B800038460FF06BF8230702D10A200FF07EF8A9
:104B900001359BE70AEB0403F0E700BF480F002054
:104BA000B6640108490F0020706B01080302002061
:104BB000956B0108B96B010832360020EB0B002021
:104BC000063E002044660108D66B0108063400202A
:104BD000846B01081C2F0020E42D0020E02D002014
:104BE0002C32002038240020AC2E0020E82E00209B
:104BF0001F4D204C08B5FCF72FF9FCF775F80BF0AA
:104C0000D9FE284609F0D7FD05F0E6FD03F0A2FC29
:104C1000FBF73CFEFFF7BEFBFFF7ECFBFFF7FCFEEC
:104C2000FCF7F8FCFFF7A2FEFFF732FCFFF7F4F801
:104C3000FDF77AFDFDF71EFDFDF7AEFD01F01EFA52
:104C4000FFF71EF9FFF786FC07F0F0F9FBF72EFFE0
:104C500023784BB1084B0322054C1A7007F046F934
:104C6000204609F0A8FDF9E707F0BEFDC3E700BF45
:104C700084B20020EA0B0020A2120020154B5A6FCC
:104C8000002A1ADB5A6F520019D45A6F910018D4B7
:104C90005A6FD20017D45A6F110116D45A6F5201AD
:104CA00015D45B6F13F0007F14BF07200020094A62
:104CB000536F43F08073536770470120F7E702207A
:104CC000F5E70320F3E70420F1E70520EFE70620EE
:104CD000EDE700BF0038024007289ABF024B53F8A7
:104CE00020000248704700BFB46C0108FB6B01084C
:104CF0002DE9F0411A4CA06802F06CFE194BD3F874
:104D00003423904229D3D3F828331427164EC3F303
:104D1000CF055B07DFF858801CBF0135ADB207F047
:104D2000B9FEA060002411480FF034F8AC4204D35F
:104D30000A20BDE8F0410EF0A9BF3CB1B4FBF7F387
:104D400007FB134313B90A200EF0A0FF16F8011B4E
:104D5000404601340EF082FFE8E7BDE8F08100BF75
:104D6000F83C0020480F00200A3D0020D46C0108C8
:104D700044660108F8B54A4C606802F02BFE4949C8
:104D800006464948FBF75CFA002800F08780474D4B
:104D9000B5F82633D5F82C2353439E420AD3444B0F
:104DA00062681B689A4205D0424B5A7895F82133C5
:104DB0009A4207D82378002B35D03F4BD3F8803068
:104DC000002B30D021783D480EF048FF23783A4838
:104DD000D9074FF0000144BF23F00103237023786B
:104DE0009A074FF0840244BF23F0020323700EF0B1
:104DF0002DFF3222002132480EF028FF84220021AC
:104E000030480EF023FF00232F4A3048C2E9003318
:104E1000284AC2E900332E4AC2E900330EF0BAFF35
:104E20006268234B1A602B4E306802F0D3FDD5F830
:104E30003C33984223D9284F3B78012B1FD10024C3
:104E400026480EF0A7FF842221461B483C700EF036
:104E5000FDFE322221461A480EF0F8FE8422214639
:104E600018480EF0F3FE184B1848C3E90044114BE4
:104E7000C3E90044164BC3E900440EF08BFF3068D1
:104E800002F0A8FDD5F83C33984207D2124B1B78AC
:104E9000012B03D1BDE8F84005F0B4BCF8BD00BF5C
:104EA000F83C0020B6640108490F0020480F00209C
:104EB000C03A0020C03D0020503B0020E86C0108B3
:104EC000083D00203C3D0020C83D0020186D010831
:104ED000D03D0020C43A00204C3B00202F6D01083B
:104EE00038B51B4C1B4D606802F074FDB5F82633D5
:104EF000D5F82C235343984204D3174B1A780AB1A0
:104F000000221A70606802F065FDD5F838339842C7
:104F10000BD9124B626819688A4206D01A6040F2B7
:104F20000220BDE8384003F083B80D4D286802F038
:104F300051FDB0F57A7F09D9606802F04BFDB0F5FC
:104F4000FA6F03D907F0A6FD2860E8E738BD00BF77
:104F5000F83C0020480F0020C83D0020E43D002020
:104F6000E83D0020F8B561496148FBF769F9002880
:104F700037D0604C604D20682B6898420AD007F00B
:104F800089FD20605D4C5E4A23785BBB137803F09B
:104F9000FE032AE002F01EFDB0F57A7FEFD228680A
:104FA00002F018FD574BD3F83C33984219D9564BB1
:104FB00028681A68824214D0186002F00BFD4FF482
:104FC0007A71B0FBF1F151480EF048FE2968504863
:104FD0000EF044FE4F4A137899075CBF43F002037A
:104FE0001370F8BD137843F001034B4E317841B193
:104FF00043F002031370032B33D8DFE803F0744E41
:10500000056D03F0FD03F5E7616873688B423CD0E2
:10501000424F3B78012B24D141480EF01FFE7168AE
:1050200040480EF01BFE00233F483B700EF0B2FEDE
:1050300084223E493E480EF0E1FD3D4B3D4A03F1DE
:10504000300C1F461E46083203CE664542F8080C57
:1050500042F8041C3346F5D133881380D7F88030EA
:105060006360284B627893F821339A4297D3294F93
:105070003B7813F0010692D12F480EF08BFE3B785F
:10508000667043F001033B7089E70023214A637097
:10509000137823F001031370E3E7726863689A42A0
:1050A00012D026480EF076FE63780133DBB2022B75
:1050B0006370D6D91E4BD3F88030002BD1D04FF47B
:1050C000027002F0B5FFCCE7124A137823F0010317
:1050D000137000236370C4E7726863689A42F3D068
:1050E00016480EF057FE63780133F3E7B664010803
:1050F000490F0020D83D0020C43A0020C83D0020C0
:10510000BD3A0020480F0020DC3D0020216B010843
:10511000E86D0108F83C0020C03D0020E03D002083
:105120004C6D0108636D01087A6D0108C83A0020D2
:10513000503B0020083D0020D16D0108AD6D0108F5
:1051400038B5204D204C28460EF024FEB4F822132A
:105150001E480EF083FDB4F824131D480EF07EFDAA
:1051600094F820131B480EF079FDD4F830131A4838
:105170000EF074FDD4F8381318480EF06FFDD4F813
:105180003C1317480EF06AFD94F8211315480EF0F1
:1051900065FDD4F8281314480EF060FDD4F82C13E4
:1051A00012480EF05BFDB4F8261311480EF056FDC0
:1051B000D4F834130F480EF051FD2846BDE83840AE
:1051C0000EF0E8BD0E6E0108480F0020616E010868
:1051D000846E0108A76E0108CA6E0108EE6E010810
:1051E000126F0108366F0108596F01087D6F0108C1
:1051F000A16F0108C46F010810B52423104C114998
:105200002370012304F1320063703023A370402324
:10521000E370C02323714E2363712623A3710EF024
:10522000F4FE094904F164000EF0EFFE074904F1B1
:1052300096000EF0EAFE064B04221A7010BD00BF65
:10524000D536002068540108CC540108D654010812
:10525000D43600200D4B2DE9F041074693F800802D
:105260000B4C0026F5B2A84501D8FF250BE02046DF
:105270000136FAF7EFFF21460246384632340EF087
:10528000ADFC0028EED12846BDE8F081D4360020E0
:10529000D536002030B500259BB06022294602A8F3
:1052A00001950EF0D3FC664B186802F093FB0928B9
:1052B0000AD81BB030BD002007F00EFA04F16803D5
:1052C0000DEB030404F8640C0020ECB207F0F0F9D5
:1052D00001350028EFD1002CEBD004F1680301A9BF
:1052E0006B4403F8640C57480EF0B8FC214601A843
:1052F000FFF7B0FF0C2800F2A080DFE800F0070EF7
:105300002A37424C56606A747E8994004E4B0122C3
:105310004E481A700EF03EFDCBE704F167034C498E
:105320004C480DEB030414F8642C303A0EF096FC54
:1053300014F8643C303BDBB2022B06D8464A1370AB
:1053400040F2052002F074FEB3E744480EF022FD5F
:10535000F6E7434943480EF081FC43480EF01AFD3E
:10536000424A136843F001031360E9E740493D48AE
:105370000EF074FC3F480EF00DFD3C4B02221A600B
:10538000DEE73D4937480EF069FC3C480EF002FD6F
:10539000364B0422F3E73A4932480EF05FFC3948B5
:1053A0000EF0F8FC314B0822E9E737492D480EF0A2
:1053B00055FC36480EF0EEFC2C4B1022DFE734494A
:1053C00028480EF04BFC33480EF0E4FC274B20221B
:1053D000D5E7314931480EF041FC31480EF0DAFC96
:1053E000224B4022CBE72F491E480EF037FC2E48B7
:1053F0000EF0D0FC1D4B8022C1E72C4919480EF05D
:105400002DFC2B480EF0C6FC184B4FF48072B6E70B
:10541000284914480EF022FC27480EF0BBFC134B21
:105420004FF40072ABE725490E480EF017FC2448F4
:105430000EF0B0FC0D4B0022A1E708486AE700BF60
:1054400008C70020DB540108EA0B0020F1540108D2
:105450000737002031550108EB0B002043550108A8
:1054600039370020C3550108D67B0108904A002037
:105470006B370020547C01089D370020927C010886
:10548000CF370020C87C010801380020007D0108CA
:1054900033380020FA79010865380020D05501081A
:1054A000E86F010897380020FB6F0108C938002019
:1054B000687B0108FB380020137001082D3900209B
:1054C0003070010830B50024064D824201D82046D4
:1054D00030BD0B5C01306340DBB255F8233083EA0A
:1054E0001424F2E7C47301082DE9F0410027CCB081
:1054F00004464FF49472394602A80EF0A7FB01ADA2
:10550000264E532322460DF117002B7006F1180189
:105510007388A5F80130B388A5F80330B3796B71AF
:10552000E223AB71B37A6B72D6F80B30CDF80E3044
:10553000B6F80F30ADF81230737C8DF81430B38AA2
:10554000A5F811300EF05AFB04F11300224606F1C3
:105550009801134E1FFA80F815FA80F00EF04EFBFA
:10556000294644443846A4B2E31E2F55A21C0634F3
:10557000A5F8073092B2A4B2FFF7A4FFA850BBB2BF
:105580009C4202D84CB0BDE8F08115F8011B0137F0
:1055900096F8200307F0C4F8F1E700BFD43B0020E1
:1055A000480F002070B5FFF78DFF895804468842E8
:1055B00008D005480EF052FB214604480EF04EFB81
:1055C000002070BD0120FCE73A700108517001080D
:1055D0002DE9F84381460F460026DFF8FC80394D5F
:1055E000484607F065F80446002857D0484607F0BB
:1055F00073F898F80030013B042BF1D801A252F85F
:1056000023F000BF1956000829560008E15500088C
:10561000415600085F5600085328E1D101232B8032
:10562000022388F80030DBE72B88082B04D10923FC
:1056300038722B800423F4E7F85401332B80CFE732
:105640002B880121FA1832F8026C1F4AF8540B44D7
:10565000118002222B801D4B1A800523E1E71A4A94
:105660002C8813883855B34228D2013317499BB28E
:105670001380621CB3422A800A8802F101020A8068
:10568000AED1033C00260123A4B22E8088F800305E
:10569000042C06D834460E480EF07CFB2046BDE8AC
:1056A000F883224639463046FFF77CFF054600283E
:1056B000F4D108482C460EF06DFBEFE700260123DD
:1056C0002E80AEE7EE3D0020EC3D0020F03D0020B6
:1056D000697001086E5701080E0200202DE9F04F95
:1056E0000024ADF53D7D4FF494729B4F214672A886
:1056F00071940EF0ABFA7C22214609A808940EF0B2
:10570000A5FA4FF4967271A997F82003FFF760FF8E
:105710000528054659D94FF48071904871AEDFF8DD
:105720006C924FF00A0808F092FC8D480EF032FBA4
:10573000013416F8011B4846A4B20EF08FFAA542B8
:1057400038D10A200EF0A2FA4FF49272002128A854
:105750000EF07CFA9DF8C431BDF8C5818DF8A030FB
:10576000B7F82433ADF8A480434534D1BDF8C791D0
:10577000B7F82233ADF8A2904B450DD079480EF022
:1057800009FBB7F822134A4677480EF067FA7749C3
:105790007748FAF755FDD0B99DF8C961AA2E8DF862
:1057A000A66028D19DF8CA11E1298DF8A71029D04B
:1057B000704824E0B4FBF8F308FB13439BB2002BC2
:1057C000B6D10A200EF062FAB2E70028BCD10DF57E
:1057D0003D7DBDE8F08F68480EF0DCFAB7F8241381
:1057E000424661480EF03AFA60496148FAF728FDEE
:1057F0000028BBD0EBE7BB2ED4D031465F480EF07B
:105800002DFAE4E7BDF8CB319DF8D5110593ADF83D
:10581000A83011299DF8CD318DF8B21006938DF87E
:10582000AA30DDF8CE31CDF8AB30BDF8D231ADF8CD
:10583000AF309DF8D4318DF8B13001D05048DEE75B
:10584000BDF8D631ADF8B4302D9DB5F5806F02D9D5
:1058500029464C48D3E7D7F82843A5420CD0434902
:105860004348FAF7EDFC28B12A46214646480EF097
:10587000F5F9ACE7C7F828536B07C5F3CF0408AFB9
:1058800076A918BF01342EA818BFA4B222460EF084
:10589000B5F976AB3846002291B28C4231D863001C
:1058A00004F114020DF59C7A0DF5E27E9BB292B2E2
:1058B000D44603F1150080B2511C89B2884227D129
:1058C00003F1140B224608A94EA804931FFA8BFB80
:1058D0000EF084F9049B079070B300252B4E2C48E2
:1058E0000EF058FAABB29C4218D80025274E294832
:1058F0000EF050FAABB29C4217D827480EF04AFA85
:1059000065E713F8011B0132C94300F8011BC3E727
:105910001EF802200CF8012B0A46CDE71AF8011BED
:10592000304601350EF09AF9DCE717F8011B3046D6
:1059300001350EF093F9DDE771A95A461220049360
:10594000FFF7C0FD51F80B200746049B90426E9272
:1059500026D0014611488AE7480F0020001C02406B
:105960006F700108CC700108AB700108B6640108C3
:10597000490F00202F71010879700108F9700108A2
:1059800064710108A8710108F971010844660108F1
:105990003572010881720108A4720108B57201080C
:1059A0001833DFF89CB1DFF89CA19BB2CB5AADF85D
:1059B000BC3107F06FF828A94FF49272CAF80400BE
:1059C00058460EF01BF94C4B012220465F604B4FAE
:1059D0001A70FFF789FD22462EA938460EF00EF9FF
:1059E000DBF81831DFF860B1224639460493584697
:1059F000C7F880300EF0F2F818B322463946584600
:105A00000EF0FCF8049B302207993D48CBF880301B
:105A10000EF01CF92246394639480EF0EFF807F02F
:105A200039F8CAF8080037480EF0B4F940F20220FD
:105A300002F0FEFA344B5B681BB94FF4027002F0BF
:105A4000F7FA32480EF0A6F9414631480EF006F951
:105A5000494630484FF000090EF000F931462E4813
:105A60000A260EF0FBF8E1212C480EF0F7F8059914
:105A70002B480EF0F3F806992A480EF0EFF89DF83F
:105A8000B1309DF8AD2002939DF8B0309DF8AE1076
:105A900001939DF8AF30244800939DF8AC300EF090
:105AA000DDF8112121480EF0D9F8214F294621486F
:105AB000124D0EF0D3F8DFF894801F480EF0CEF8A8
:105AC0001FFA89F39C4204D80A200EF0DFF81B4825
:105AD00014E743B1B3FBF6F206FB12339BB213B9E2
