:020000040800F2
:100000000000082065560108994A01089F4A010826
:10001000A54A0108AB4A0108B14A010800000000E6
:10002000000000000000000000000000B74A0108C6
:10003000C54A010800000000D34A0108E14A01084E
:10004000B5560108B5560108B5560108B556010860
:10005000B5560108B5560108ED4A0108FB4A0108EA
:10006000B5560108B5560108B5560108B556010840
:10007000B5560108B5560108B5560108B556010830
:10008000B5560108B5560108B5560108B556010820
:10009000B5560108B5560108B5560108B556010810
:1000A000B5560108B5560108B5560108B556010800
:1000B000B5560108B5560108094B0108B5560108A7
:1000C000B5560108B5560108B5560108B5560108E0
:1000D000B55601081D4B0108B5560108B556010873
:1000E000B5560108B5560108B5560108B5560108C0
:1000F000B5560108B5560108B5560108B5560108B0
:10010000B5560108B5560108314B0108B55601082E
:10011000454B0108594B01086D4B0108814B010803
:10012000B5560108B5560108B5560108B55601087F
:10013000B5560108954B0108B5560108B55601089A
:10014000A94B0108BD4B0108B5560108B556010879
:10015000B5560108B5560108B5560108B55601084F
:10016000B5560108B5560108B5560108B55601083F
:10017000B5560108B5560108B55601080000000043
:10018000B5560108B5560108D14B0108B55601080E
:10019000B5560108B5560108B5560108B55601080F
:1001A000B5560108B5560108B5560108B5560108FF
:1001B000B5560108B5560108B5560108B5560108EF
:1001C000B5560108B5560108B5560108B5560108DF
:1001D000B5560108B5560108B5560108B5560108CF
:1001E000B5560108E54B0108F94B0108B556010861
:0801F000B5560108B5560108DF
:1002000010B5054C237833B9044B13B10448AFF350
:1002100000800123237010BDE402002000000000D4
:10022000B83F020808B5034B1BB103490348AFF3BD
:10023000008008BD00000000E8020020B83F02086E
:1002400010F8012B11F8013B012A28BF9A42F7D080
:10025000D01A7047034613F8012B002AFBD1181A55
:10026000013870470000000000000000000000009E
:1002700001F0FF01102A2BDB10F0070F08D010F857
:10028000013B013A8B422DD010F0070F42B3F6D15B
:10029000F0B441EA012141EA014122F007047FF074
:1002A00000070023F0E80256083C85EA010586EACB
:1002B000010685FA47F5A3FA87F586FA47F6A5FA07
:1002C00087F68EB9EED1F0BC01F0FF0102F0070213
:1002D00032B110F8013B013A83EA010313B1F8D1BE
:1002E0000020704701387047002D06BF354603389F
:1002F000073815F0010F07D1013015F4807F02BFD8
:10030000013015F4C03F0130F0BC0138704700BF28
:1003100053B94AB9002908BF00281CBF4FF0FF316C
:100320004FF0FF3000F074B9ADF1080C6DE904CE68
:1003300000F006F8DDF804E0DDE9022304B07047C0
:100340002DE9F047089D04468E46002B4DD18A4288
:10035000944669D9B2FA82F252B101FA02F3C2F1BB
:10036000200120FA01F10CFA02FC41EA030E94404C
:100370004FEA1C48210CBEFBF8F61FFA8CF708FB6D
:1003800016E341EA034306FB07F199420AD91CEB45
:10039000030306F1FF3080F01F81994240F21C8177
:1003A000023E63445B1AA4B2B3FBF8F008FB1033BF
:1003B00044EA034400FB07F7A7420AD91CEB0404F4
:1003C00000F1FF3380F00A81A74240F207816444C4
:1003D000023840EA0640E41B00261DB1D440002349
:1003E000C5E900433146BDE8F0878B4209D9002DAD
:1003F00000F0EF800026C5E9000130463146BDE837
:10040000F087B3FA83F6002E4AD18B4202D38242A0
:1004100000F2F980841A61EB030301209E46002D4F
:10042000E0D0C5E9004EDDE702B9FFDEB2FA82F2A4
:10043000002A40F09280A1EB0C014FEA1C471FFA02
:100440008CFE0126200CB1FBF7F307FB131140EAE9
:1004500001410EFB03F0884208D91CEB010103F1B6
:10046000FF3802D2884200F2CB804346091AA4B278
:10047000B1FBF7F007FB101144EA01440EFB00FE4C
:10048000A64508D91CEB040400F1FF3102D2A645B1
:1004900000F2BB800846A4EB0E0440EA03409CE750
:1004A000C6F12007B34022FA07FC4CEA030C20FAFD
:1004B00007F401FA06F31C43F9404FEA1C4900FA1D
:1004C00006F3B1FBF9F8200C1FFA8CFE09FB18119A
:1004D00040EA014108FB0EF0884202FA06F20BD90D
:1004E0001CEB010108F1FF3A80F08880884240F25D
:1004F0008580A8F102086144091AA4B2B1FBF9F0A1
:1005000009FB101144EA014100FB0EFE8E4508D99B
:100510001CEB010100F1FF346CD28E456AD9023820
:10052000614440EA0840A0FB0294A1EB0E01A14205
:10053000C846A64656D353D05DB1B3EB080261EB73
:100540000E0101FA07F722FA06F3F1401F43C5E94D
:10055000007100263146BDE8F087C2F12003D84083
:100560000CFA02FC21FA03F3914001434FEA1C47C5
:100570001FFA8CFEB3FBF7F007FB10360B0C43EAB7
:10058000064300FB0EF69E4204FA02F408D91CEB67
:10059000030300F1FF382FD29E422DD90238634465
:1005A0009B1B89B2B3FBF7F607FB163341EA034105
:1005B00006FB0EF38B4208D91CEB010106F1FF3854
:1005C00016D28B4214D9023E6144C91A46EA00464B
:1005D00038E72E46284605E70646E3E61846F8E6DD
:1005E0004B45A9D2B9EB020864EB0C0E0138A3E726
:1005F0004646EAE7204694E74046D1E7D0467BE707
:10060000023B614432E7304609E76444023842E77E
:10061000704700BF80B487B000AF03463A60FB80EC
:100620000B46BB80FA88BB8813443B823B8A082B6D
:1006300006D8FB88C3F10703FB8001237B8219E006
:100640003B8A102B06D8FB88C3F10F03FB800223E3
:100650007B820FE03B8A182B06D8FB88C3F1170377
:10066000FB8003237B8205E0FB88C3F11F03FB8033
:1006700004237B8200237B617B8A013B032B34D8DC
:1006800001A252F823F000BFD5060008BF060008FB
:10069000A9060008990600083B685A1C3A601B78B6
:1006A0001A467B6913437B617B691B027B613B6854
:1006B0005A1C3A601B781A467B6913437B617B693D
:1006C0001B027B613B685A1C3A601B781A467B69A7
:1006D00013437B617B691B027B613B685A1C3A6058
:1006E0001B781A467B6913437B61FA88BB88D31A4F
:1006F0009BB20133FB81BB880B4A52F82330BB60AD
:10070000FB89BA6802FA03F37A6913407B61FB89BB
:100710007A6922FA03F37B617B6918461C37BD4670
:100720005DF8047B704700BF0000002080B48BB0F0
:1007300000AFBA607B600346FB810B46BB81BB68A0
:10074000FB61FA89BB8913447B837B8B082B06D81A
:10075000FB89C3F10703FB8101237B8419E07B8BB9
:10076000102B06D8FB89C3F10F03FB8102237B8486
:100770000FE07B8B182B06D8FB89C3F11703FB8195
:1007800003237B8405E0FB89C3F11F03FB81042362
:100790007B8400237B627B8C013B032B31D801A23D
:1007A00052F823F0F1070008DB070008C50700082E
:1007B000B5070008BB685A1CBA601B781A467B6AEA
:1007C00013437B627B6A1B027B62BB685A1CBA6064
:1007D0001B781A467B6A13437B627B6A1B027B622F
:1007E000BB685A1CBA601B781A467B6A13437B624B
:1007F0007B6A1B027B62BB681B781A467B6A1343C9
:100800007B62FA89BB89D31A9BB201333B83BB89D4
:10081000234A52F823307B617A687B6913407B60FE
:100820003B8B7A6802FA03F37B603B8B7A6902FAAE
:1008300003F3DB437A6A13407B627A6A7B68134373
:100840007B627B8C013B032B23D801A252F823F05F
:100850008B0800087D0800086F0800086108000880
:100860007B6A190EFB695A1CFA61CAB21A707B6A5C
:10087000190CFB695A1CFA61CAB21A707B6A190A10
:10088000FB695A1CFA61CAB21A707B6ADAB2FB6958
:100890001A707B6A18462C37BD465DF8047B70479A
:1008A00084000020B0B483B000AF0023FB71FB795B
:1008B0006E4A322101FB03F3134424221A70FB79A0
:1008C0006A4A322101FB03F31344013301221A70F7
:1008D000FB79664A322101FB03F3134402333022D1
:1008E0001A70FB79614A322101FB03F3134403338D
:1008F00040221A70FB795D4A322101FB03F3134455
:100900000433C0221A70FB79584A322101FB03F3E9
:10091000134405334E221A70FB79544A322101FBED
:1009200003F31344063326221A70FB790133FB715B
:10093000FB795A1CFA711A46322302FB03F34B4A25
:1009400013444B491A460B4603CB1060516019887B
:100950009B7811819372FB795A1CFA711A463223E3
:1009600002FB03F3414A1344424A1C4615460FCD8D
:1009700020606160A260E360FB795A1CFA711A463C
:10098000322302FB03F3394A13443B4A1C46154603
:100990000FCD20606160A260E360FB795A1CFA71A0
:1009A0001A46322302FB03F3304A1344334A1D46EE
:1009B00014460FCC28606960AA60EB602388A27897
:1009C0002B821346AB74FB795A1CFA711A463223F8
:1009D00002FB03F3254A1344294A1D4614460FCC53
:1009E00028606960AA60EB602388A2782B82134696
:1009F000AB74FB795A1CFA711A46322302FB03F3DB
:100A00001A4A13441F4A1D4614460FCC28606960D9
:100A1000AA60EB602388A2782B821346AB74FB7923
:100A20005A1CFA711A46322302FB03F30F4A13448D
:100A300015491A460B4603CB106051601B88138181
:100A4000FB795A1CFA711A46322302FB03F3074A58
:100A500013440E4A1068186012791A710C4AFB7917
:100A6000137000BF0C37BD46B0BC7047500A002061
:100A7000D03F0208DC3F0208EC3F0208FC3F0208BE
:100A8000104002082440020838400208444002088E
:100A9000380E002080B582B000AF7860391D4FF667
:100AA000FF73012207481AF08FFD074B1B689868F7
:100AB00000230222002122F0BBF87B681846083789
:100AC000BD4680BDE8BC00204001002080B582B05A
:100AD00000AF0023FB711D4B3B6008211C4817F041
:100AE00063FC0346002B0CBF01230023DBB25AB288
:100AF00097F9073013435BB2FB711021144817F0CC
:100B000053FC0346002B01D1022300E000235AB21C
:100B100097F9073013435BB2FB714FF400510D4856
:100B200017F042FC0346002B01D1042300E0002310
:100B30005AB297F9073013435BB2FB713B68FA79FD
:100B40001A7000BF0837BD4680BD00BF480A0020AC
:100B5000002802400020024080B59AB000AF002378
:100B600087F86730002387F86630002387F8653000
:100B700000233B603B1D60220021184621F07EFED1
:100B8000C04B1B6818460EF03DF90346092B40F296
:100B9000758110E0002014F027FC034687F86530CB
:100BA00097F866305A1C87F8662068333B4497F8FC
:100BB000652003F8682C002014F0D6FB0346002BB8
:100BC000E8D197F86630002B00F04E8197F8663038
:100BD00068333B44002203F8682C3B461946AA4878
:100BE00021F034FF97F866203B461146184600F086
:100BF00079F90346092B00F2338101A252F823F060
:100C0000290C0008370C00089B0C0008F10C0008A8
:100C10004D0D0008970D0008DB0D00081F0E0008A1
:100C20003B0E0008450E0008984B01221A709848A8
:100C300021F0A8FF19E197F86630013B68333B4487
:100C400013F8683C303B1A469249934821F0FEFE67
:100C500097F86630013B68333B4413F8683C2F2B10
:100C600014D997F86630013B68333B4413F8683C6D
:100C7000312B0BD897F86630013B68333B4413F8AF
:100C8000683C303BDAB2854B1A7002E0844821F0B0
:100C900079FF012387F86730E7E097F86630013B7A
:100CA00068333B4413F8683C303B1A467D497E4824
:100CB00021F0CCFE7D4821F065FF7D4B1B6843F0A1
:100CC00010037B4A136097F86630013B68333B445E
:100CD00013F8683C303BDAB2754B1A71012387F880
:100CE0006730734B1B681946724821F0AFFEBCE0B9
:100CF00097F86630013B68333B4413F8683C303B5F
:100D00001A466D49684821F0A1FE6C4821F03AFF6F
:100D1000674B00221A60664B1B6843F02003644A4D
:100D2000136097F86630013B68333B4413F8683C26
:100D3000303BDAB25E4B1A71012387F867305C4BA7
:100D40001B6819465B4821F081FE8EE097F86630FB
:100D5000013B68333B4413F8683C303B1A46584922
:100D6000514821F073FE574821F00CFF504B1B688F
:100D700043F400734E4A136097F86630013B6833C2
:100D80003B4413F8683C303BDAB2494B1A710123FB
:100D900087F8673069E097F86630013B68333B4479
:100DA00013F8683C303B1A4647493F4821F04EFE55
:100DB0003F4B1B6843F001033D4A136097F86630D0
:100DC000013B68333B4413F8683C303BDAB2384BA4
:100DD0001A71012387F8673047E097F86630013BC6
:100DE00068333B4413F8683C303B1A4637492E4879
:100DF00021F02CFE2E4B1B6843F002032C4A13609B
:100E000097F86630013B68333B4413F8683C303B4D
:100E1000DAB2274B1A71012387F8673025E02C4995
:100E20002C4821F013FE224B00221A60204BFF2297
:100E30001A71012387F8673017E02749274821F006
:100E400005FE12E097F86630013B68333B4413F827
:100E5000683C303B1A462249134821F0F7FD04E074
:100E60000F4821F08FFE00E000BF97F86730012B9C
:100E700005D140F205200EF079FD00E000BF683793
:100E8000BD4680BDA8A000204C40020844060020BA
:100E900064400208820A0020A4400208450600209F
:100EA000B8400208B40A0020D4400208F04002080A
:100EB0005C19002000410208E60A002014410208E3
:100EC000180B0020244102084A0B00207C0B002054
:100ED000AE0B002040410208E00B00205041020808
:100EE000120C002090B585B000AF78600B46FB7007
:100EF0000023FB731CE0FB7B322202FB03F3114A4D
:100F00009C18FB7B322202FB03F30E4A1344184663
:100F1000FFF7A0F903461A462146786821F076FCCF
:100F20000346002B01D1FB7B08E0FB7B0133FB7305
:100F3000054B1B78FA7B9A42DDD3FF231846143702
:100F4000BD4690BD500A0020380E002080B5A2B0EA
:100F500000AF002387F8853000237B6007F108038A
:100F60007C220021184621F089FC002387F8873075
:100F7000002387F886303AE00EF006FB034687F838
:100F8000853097F88530F42B02D0F62B0CD01BE07F
:100F900097F887305A1C87F8872088333B4497F8A6
:100FA000852003F8842C1EE097F887305A1C87F8B8
:100FB000872088333B4497F8852003F8842C97F8E2
:100FC000873087F886300EE097F88730002B0AD0FC
:100FD00097F887305A1C87F8872088333B4497F866
:100FE000852003F8842C97F88630002B05D10EF06D
:100FF000B7FA0346002BBFD100E000BF97F8863058
:10100000002B0DD097F887300F2B06D997F8872043
:101010003B1D1146184600F0A3F8002387F88730DF
:1010200000BF8837BD4680BD80B5A2B000AF0023A9
:1010300087F8853000237B6007F108037C220021BC
:10104000184621F01BFC002387F88730002387F81F
:101050008630404B93F82230002B74D03E4B1B68F7
:1010600018460DF0CFFE0346132B6ED94AE003203D
:1010700014F0BAF9034687F8853097F887307E2B4D
:101080000AD997F8873080221946344821F0DEFCCF
:10109000002387F887303DE097F88530F42B02D0A5
:1010A000F62B0CD01BE097F887305A1C87F8872066
:1010B00088333B4497F8852003F8842C1EE097F88A
:1010C00087305A1C87F8872088333B4497F885205F
:1010D00003F8842C97F8873087F886300EE097F86D
:1010E0008730002B0AD097F887305A1C87F8872062
:1010F00088333B4497F8852003F8842C97F8863092
:10110000002B06D1032014F02FF90346002BAED19B
:1011100000E000BF97F88630002B17D097F8873093
:101120000F2B06D997F887203B1D1146184600F073
:1011300017F8002387F887303B1D802200211846CE
:1011400021F09CFB02E000BF00E000BF8837BD46F5
:1011500080BD00BF04030020A4A000208C41020831
:1011600080B5A4B000AF78600B46FB700023FB6035
:1011700007F110037C220021184621F07FFB002399
:10118000A7F88E300023A7F88C300023A7F88E3004
:101190000023A7F88C3034E0B7F88C307A68134419
:1011A0001B78F02B18D1B7F88C307A681344197873
:1011B000B7F88C3001337A6813441A78B7F88E3058
:1011C0000A43D2B290333B4403F8842CB7F88C30F6
:1011D0000133A7F88C300AE0B7F88C307A681A44EB
:1011E000B7F88E30127890333B4403F8842CB7F86C
:1011F0008E300133A7F88E30B7F88C300133A7F862
:101200008C30FB789BB2B7F88C209A42C4D3B7F8E5
:101210008E2007F10C031146184600F005F800BFB8
:101220009037BD4680BD000080B588B000AF7860C3
:101230000B467B800023FB750023FB770023BB77E5
:101240000023BB6100233B6114F0F6FBF860A74B61
:101250001B78002B11D114F0EFFB034642F20F7202
:1012600093420AD9A24821F08DFCA249A248FEF778
:10127000E7FF0346002B40F0A1817B6803331A4649
:1012800010210020FFF7C6F903469BB23B610BE03B
:10129000FB7F9A4A66339B0013445B683A699A4223
:1012A00009D0FB7F0133FB77944B93F82030FA7F12
:1012B0009A42EDD300E000BF904B93F82030FA7FC4
:1012C0009A4209D38E4B1B78012B40F07981396902
:1012D0008C4821F0BBFB73E17B6801331A46102177
:1012E0000020FFF797F903469BB2BB61FB7F834A5F
:1012F00070339B0013445B68BA699A4212D08248EB
:1013000021F040FCB969814821F0A0FBFB7F7B4ABA
:1013100070339B0013445B681A4639697C4821F09E
:1013200095FB4EE1FB7FBB777A4B1B681B0903F0F3
:101330000103002B16D0774B1B79BA7F9A4211D14B
:10134000754821F01FFCB969744821F07FFB40F219
:101350004D13BB61694B93F82030BB77B969704876
:1013600021F074FB654B93F82030BA7F9A4207D383
:101370006C4821F007FCB9696B4821F067FB20E15C
:101380005F4B1B78012B21D1FB7F684AD35C012B7B
:1013900002D0022B04D007E0654821F0F3FB15E0F2
:1013A000644821F0EFFB11E0FB7F544A134493F8AB
:1013B0002D30022B03D1604821F0E4FB06E0FB7FD7
:1013C0005A4AD35C19465D4821F040FBFB7F5C4ADA
:1013D00052F82330FA7F55498A5C934214D0FB7F40
:1013E0005849FA6841F82320FB7F5749FA6841F8C9
:1013F0002320FB7F4D4AD25CFB7F1146504A42F8C6
:101400002310524821F0BEFBFA7FFB7F4749895CDD
:101410004F4AD154FB7F4F4A52F8233018460DF003
:10142000F1FC0246FB7F35498A3351F823309A425A
:1014300018D3FB7F4749FA6841F82320FB7F4149D5
:10144000FA6841F82320FB7F3F49FA6841F82320DE
:10145000FB7F2A4A66339B0013445B6819463E486B
:1014600021F0F4FAFB7F3B49FA6841F823208122FE
:1014700000213A4821F002FA7B881A4679683748F9
:1014800021F0D4F97B88DAB2344B83F880207B6872
:1014900007331A4608210020FFF7BCF80346FB7506
:1014A000FA7F2F4913465B001344DB000B440333E0
:1014B00001221A70FB7F2B49FA6841F82320FB7F39
:1014C000184606F015FCFB7D013B052B70D801A2E8
:1014D00052F823F0691500087915000889150008ED
:1014E00091150008B1150008A11500080801002099
:1014F000B8410208F8410208050300200403002057
:101500004506002004420208404202085C420208EC
:10151000804202085C190020B8420208DC4202083E
:10152000EC420208FC42020830430208801000200E
:1015300050430208604302087043020888430208CF
:101540007C0F0020A40F0020CC0F0020AC43020829
:101550002410002030100020C4430208101C00207A
:1015600074160020740E00207B88D9B2BB7FFA7FEE
:10157000786800F02DF824E07B88D9B2BB7FFA7F31
:10158000786801F0C3FB1CE00F4821F0FBFA18E07B
:101590007B88D9B2BB7FFA7F786803F061FE10E0E8
:1015A0007B88D9B2BB7FFA7F786805F061F808E0E4
:1015B000FB7D1946054821F049FA02E000BF00E032
:1015C00000BF2037BD4680BDE04302080444020846
:1015D00090B589B000AF7860084611461A460346B8
:1015E000FB700B46BB7013467B7000237B8300238C
:1015F0007B7600237B6100233B6114F01DFAF860C9
:101600000023FB830023BB83FB789BB2053B9BB28B
:101610001946786811F038FE7861FB78053B7A68E6
:101620001A44BB8B20211846FEF7F4FF38613A6953
:101630007B699A4213D0BB78294A66339B001344D6
:101640005B681946274821F001FA3969264821F0DC
:10165000FDF97969254821F0F9F900F032BEBB782F
:10166000234A0121D154BB78224A0121D1547B68FD
:1016700003F11D02BB8B10211846FEF7CBFF03467A
:101680007B83BB78164AF4335B0013449B887A8BC8
:101690009A423DD0BB78184A0121D154BB78104AF8
:1016A00066339B0013445B681946144821F0CEF959
:1016B0007B8B1946124821F0C9F9BB78084AF433EC
:1016C0005B0013449B8819460E4821F0BFF90E4970
:1016D0000E48FEF7B5FD0346002B1DD000F0F1BD0E
:1016E00004030020204402083C4402084C44020841
:1016F000F40F00200C100020001000205C440208B1
:1017000094440208B8440208F84102080503002086
:10171000BB78AB4A0021D1547B6803F12402BB8B18
:1017200008211846FEF776FF03467B76BB78A54A6C
:10173000134493F8EB307A7E9A421FD0BB78A14ACB
:1017400066339B0013445B6819469F4821F07EF97D
:10175000BB789C4A134493F8EB3019469B4821F020
:1017600075F97B7E19469A4821F070F999499A4893
:10177000FEF766FD0346002B40F0A285BB78974933
:10178000FA6841F82320BB78954A0121D154BB78EF
:10179000944A0021D154BB789349FA6841F8232038
:1017A000B7F91C300833002B00DA0733DB109AB28C
:1017B000FB8B1344FB83BB8B08339BB21BB25A4297
:1017C00003F0070302F0070258BF53421BB2BB836A
:1017D000FB8B7A681A44BB8B10211846FEF71AFF60
:1017E0000246BB7891B2814A5B01134410330A462A
:1017F0001A80BB787D4A5B01134410331B8819465D
:101800007B4821F023F9B7F91C301033002B00DAA4
:101810000733DB109AB2FB8B1344FB83BB8B103373
:101820009BB21BB25A4203F0070302F0070258BFF3
:1018300053421BB2BB83FB8B7A681A44BB8B1021CB
:101840001846FEF7E7FE0246BB7891B2674A5B0195
:1018500013440E330A461A80BB78644A5B01134472
:101860000E331B881946634821F0F0F8B7F91C3095
:101870001033002B00DA0733DB109AB2FB8B1344D2
:10188000FB83BB8B10339BB21BB25A4203F007039E
:1018900002F0070258BF53421BB2BB83FB8B7A682E
:1018A0001A44BB8B08211846FEF7B4FE0246BB78EB
:1018B000D1B24E4A5B0113440A461A70B7F91C3084
:1018C0000833002B00DA0733DB109AB2FB8B13448A
:1018D000FB83BB8B08339BB21BB25A4203F0070356
:1018E00002F0070258BF53421BB2BB83FB8B7A68DE
:1018F0001A44BB8B08211846FEF78CFE0246BB78C3
:10190000D1B23A4A5B01134401330A461A70B7F95F
:101910001C300833002B00DA0733DB109AB2FB8B44
:101920001344FB83BB8B08339BB21BB25A4203F0B8
:10193000070302F0070258BF53421BB2BB83FB8B65
:101940007A681A44BB8B08211846FEF763FE0246EC
:10195000BB78D1B2254A5B01134402330A461A70A0
:10196000B7F91C300833002B00DA0733DB109AB2CA
:10197000FB8B1344FB83BB8B08339BB21BB25A42D5
:1019800003F0070302F0070258BF53421BB2BB83A8
:10199000FB8B7A681A44BB8B10211846FEF73AFE7F
:1019A0000246BB7891B2144A1B01134404330A4621
:1019B0001A80B7F91C301033002B1FDA07331DE0F3
:1019C0000010002004030020DC4402080445020843
:1019D00018450208F841020805030020A40F002062
:1019E0000C1000208C1000209810002064120020A1
:1019F0002C45020834450208C4110020DB109AB2BD
:101A0000FB8B1344FB83BB8B10339BB21BB25A423C
:101A100003F0070302F0070258BF53421BB2BB8317
:101A2000BB788E4A1B01134404331B8803F0200348
:101A3000002B00F01D81FB8B7A681A44BB8B0821B8
:101A40001846FEF7E7FD0346BA78D8B28449134634
:101A50005B0013445B000B44053302461A70B7F970
:101A60001C300833002B00DA0733DB109AB2FB8BF3
:101A70001344FB83BB8B08339BB21BB25A4203F067
:101A8000070302F0070258BF53421BB2BB83FB8B14
:101A90007A681A44BB8B08211846FEF7BBFD034643
:101AA000BA78D8B26E4913465B0013445B000B440E
:101AB000043302461A70B7F91C300833002B00DAE1
:101AC0000733DB109AB2FB8B1344FB83BB8B0833C9
:101AD0009BB21BB25A4203F0070302F0070258BF41
:101AE00053421BB2BB83FB8B7A681A44BB8B082121
:101AF0001846FEF78FFD0346BA78D8B25849134608
:101B00005B0013445B000B44033302461A70B7F9C1
:101B10001C300833002B00DA0733DB109AB2FB8B42
:101B20001344FB83BB8B08339BB21BB25A4203F0B6
:101B3000070302F0070258BF53421BB2BB83FB8B63
:101B40007A681A44BB8B08211846FEF763FD0346EA
:101B5000BA78D8B2424913465B0013445B000B4489
:101B600002461A70B7F91C300833002B00DA07332D
:101B7000DB109AB2FB8B1344FB83BB8B08339BB205
:101B80001BB25A4203F0070302F0070258BF534248
:101B90001BB2BB83FB8B7A681A44BB8B08211846A7
:101BA000FEF738FD0346BA78D8B22D4913465B00DC
:101BB00013445B000B44013302461A70B7F91C3022
:101BC0000833002B00DA0733DB109AB2FB8B134487
:101BD000FB83BB8B08339BB21BB25A4203F0070353
:101BE00002F0070258BF53421BB2BB83FB8B7A68DB
:101BF0001A44BB8B08211846FEF70CFD0346BA7841
:101C0000D8B2174913465B0013445B000B44023300
:101C100002461A70B7F91C300833002B00DA07337C
:101C2000DB109AB2FB8B1344FB83BB8B08339BB254
:101C30001BB25A4203F0070302F0070258BF534297
:101C40001BB2BB83BB78184607F060F80346002B35
:101C50000AD0BB78034A0021D15409E0C411002006
:101C600088110020D8100020BB78A44A0121D1544B
:101C7000FB8B7A681A44BB8B08211846FEF7CAFC16
:101C80000246BB78D1B29E4A5B01134403330A4635
:101C90001A70B7F91C300833002B00DA0733DB1059
:101CA0009AB2FB8B1344FB83BB8B08339BB21BB2F2
:101CB0005A4203F0070302F0070258BF53421BB217
:101CC000BB83FB8B7A681A44BB8B10211846FEF746
:101CD000A1FC0246BB7891B2894A5B0113441233DE
:101CE0000A461A80B7F91C301033002B00DA07338C
:101CF000DB109AB2FB8B1344FB83BB8B10339BB27C
:101D00001BB25A4203F0070302F0070258BF5342C6
:101D10001BB2BB83BB785B01794A1344181DFB8B54
:101D20007A6813440622194620F080FDB7F91C306A
:101D30001033002B00DA0733DB109AB2FB8B13440D
:101D4000FB83BB8B10339BB21BB25A4203F00703D9
:101D500002F0070258BF53421BB2BB83B7F91C30D5
:101D60001033002B00DA0733DB109AB2FB8B1344DD
:101D7000FB83BB8B10339BB21BB25A4203F00703A9
:101D800002F0070258BF53421BB2BB83B7F91C30A5
:101D90001033002B00DA0733DB109AB2FB8B1344AD
:101DA000FB83BB8B10339BB21BB25A4203F0070379
:101DB00002F0070258BF53421BB2BB83FB8B7A6809
:101DC0001A44BB8B10211846FEF724FC0246BB7850
:101DD00091B24B4A5B01134414330A461A80B7F997
:101DE0001C301033002B00DA0733DB109AB2FB8B68
:101DF0001344FB83BB8B10339BB21BB25A4203F0DC
:101E0000070302F0070258BF53421BB2BB83FB8B90
:101E10007A681A44BB8B10211846FEF7FBFB02467A
:101E2000BB7891B2364A5B01134416330A461A80D6
:101E3000B7F91C301033002B00DA0733DB109AB2ED
:101E4000FB8B1344FB83BB8B10339BB21BB25A42F8
:101E500003F0070302F0070258BF53421BB2BB83D3
:101E6000FB8B7A681A44BB8B10211846FEF7D2FB15
:101E70000246BB7891B2224A5B01134418330A46EA
:101E80001A80B7F91C301033002B00DA0733DB104F
:101E90009AB2FB8B1344FB83BB8B10339BB21BB2F8
:101EA0005A4203F0070302F0070258BF53421BB225
:101EB000BB83FB8B7A681A44BC78BB8B182118460D
:101EC000FEF7A8FB02460F4923010B4408331A60B2
:101ED000BB78BA780B491B010B44083319680A48D0
:101EE00013465B001344DB00034408331960B7F961
:101EF0001C301833002B09DA073307E0D810002014
:101F000064120020C411002074160020DB109AB265
:101F1000FB8B1344FB83BB8B18339BB21BB25A421F
:101F200003F0070302F0070258BF53421BB2BB8302
:101F3000FB8B7A681A44BB8B08211846FEF76AFBB4
:101F40000246BB78D1B2B14A1B0113440A461A704B
:101F5000BA78BB78AD4912010A441178AB4A1B012B
:101F6000134402330A461A70B7F91C300833002BA9
:101F700000DA0733DB109AB2FB8B1344FB83BB8B75
:101F800008339BB21BB25A4203F0070302F0070268
:101F900058BF53421BB2BB83FB8B7A681A44BB8B7E
:101FA00008211846FEF736FB0246BB78D1B2984AA4
:101FB0005B0113440A330A461A70B7F91C30083320
:101FC000002B00DA0733DB109AB2FB8B1344FB8340
:101FD000BB8B08339BB21BB25A4203F0070302F0DB
:101FE000070258BF53421BB2BB83FB8B7A681A446B
:101FF000BB8B08211846FEF70DFB0246BB78D1B219
:10200000824A1B01134403330A461A70B7F91C3085
:102010000833002B00DA0733DB109AB2FB8B134432
:10202000FB83BB8B08339BB21BB25A4203F00703FE
:1020300002F0070258BF53421BB2BB83BB78734AFE
:102040001B01134403331A78BB7872490B4493F88D
:10205000EB309A4215D0704820F094FDBB786D4A61
:10206000134493F8EB3019466C4820F0EFFCBB7832
:10207000664A1B01134403331B781946684820F055
:10208000E5FCFB8B7A681A44BB8B08211846FEF7E7
:10209000C1FA0246BB78D1B25D4A5B0113440B33EF
:1020A0000A461A70B7F91C300833002B00DA0733E0
:1020B000DB109AB2FB8B1344FB83BB8B08339BB2C0
:1020C0001BB25A4203F0070302F0070258BF534203
:1020D0001BB2BB83FB8B7A681A44BB8B0821184662
:1020E000FEF798FA0246BB78D1B2494A5B01134425
:1020F0000C330A461A70B7F91C300833002B00DA8B
:102100000733DB109AB2FB8B1344FB83BB8B083382
:102110009BB21BB25A4203F0070302F0070258BFFA
:1021200053421BB2BB83BB78394A5B0113440C3367
:102130001B78012B0CD0BB78354A5B0113440C3360
:102140001B781946374820F081FC374820F01AFDEB
:10215000FB8B7A681A44BB8B08211846FEF75AFAA3
:102160000246BB78D1B22A4A5B0113440D330A46BA
:102170001A70B7F91C300833002B00DA0733DB1074
:102180009AB2FB8B1344FB83BB8B08339BB21BB20D
:102190005A4203F0070302F0070258BF53421BB232
:1021A000BB83FB8B7A681A44BC78BB8B2021184612
:1021B000FEF730FA0246164963010B441C331A60DD
:1021C000B7F91C302033002B00DA0733DB109AB24A
:1021D000FB8B1344FB83BB8B20339BB21BB25A4255
:1021E00003F0070302F0070258BF53421BB2BB8340
:1021F0007A78BB781146184600F06CF8BA780B492B
:1022000013465B001344DB0012E000BFC411002042
:1022100064120020040300203C4502080445020823
:102220001845020858450208844502087416002023
:102230000B4414333A691A60BA78234913465B0099
:102240001344DB000B44053301221A70BA781E498F
:1022500013465B001344DB000B44BA781A70BA785B
:10226000194913465B001344DB000B440133012280
:102270001A7018220021154820F000FBBA78134686
:102280005B001344DB00104A1344182219460F4820
:1022900020F0CCFA40F201200DF068FBBA780A4930
:1022A00013465B001344DB000B44013300221A7019
:1022B000BC7813F0C1FB0346054A42F8243000E025
:1022C00000BF2437BD4690BD74160020541800206E
:1022D000440E002090B597B000AF03460A46FB714C
:1022E0001346BB710023FB6007F110033822002165
:1022F000184620F0C3FA00233B650023A7F84E30B0
:102300000023A7F84C30B7F84E3007F10C021A44FE
:10231000B7F84C00F4230821FEF708FAB7F94C305F
:102320000833002B00DA0733DB109AB2B7F84E30CF
:102330001344A7F84E30B7F84C3008339BB21BB2A9
:102340005A4203F0070302F0070258BF53421BB280
:10235000A7F84C30B7F84E3007F10C021A44FB795D
:10236000774966339B000B445B68B7F84C0010213B
:10237000FEF7DCF9B7F94C301033002B00DA0733E5
:10238000DB109AB2B7F84E301344A7F84E30B7F8C6
:102390004C3010339BB21BB25A4203F0070302F0D9
:1023A000070258BF53421BB2A7F84C30B7F84E3063
:1023B00007F10C021A44FB79614970339B000B440E
:1023C0005B68B7F84C001021FEF7B0F9B7F94C3054
:1023D0001033002B00DA0733DB109AB2B7F84E3017
:1023E0001344A7F84E30B7F84C3010339BB21BB2F1
:1023F0005A4203F0070302F0070258BF53421BB2D0
:10240000A7F84C304F4B1B689B0803F00103002BCF
:1024100031D04C4B1B79FA799A4237D1002387F897
:102420004B30494817F0BAFF0246484BA3FB021352
:102430009B09C82101FB03F3D31ADBB2013387F8F0
:102440004B30434820F09EFB0021424820F0FEFA2A
:1024500097F84B301946404820F0F8FAB7F84E305C
:1024600007F10C021A4497F84B30B7F84C000821DA
:10247000FEF75CF90AE0B7F84E3007F10C021A4497
:10248000B7F84C0000230821FEF750F9B7F94C309B
:102490000833002B00DA0733DB109AB2B7F84E305E
:1024A0001344A7F84E30B7F84C3008339BB21BB238
:1024B0005A4203F0070302F0070258BF53421BB20F
:1024C000A7F84C301F4B1B68DB0803F00103002BFF
:1024D0004CD01C4B1B79FA799A4265D1002387F8BE
:1024E0004A30194817F05AFF0246184BA3FB021353
:1024F0009B09C82101FB03F3D31A87F84A30174818
:1025000020F040FBFB79164A1B01134402331B7871
:102510001946144820F09AFA97F84A30194612489A
:1025200020F094FAB7F84E3007F10C021A4497F8ED
:102530004A30B7F84C000821FEF7F8F834E000BF45
:10254000040300205C190020209D00201F85EB5112
:10255000A0450208C4450208E445020804460208F2
:10256000C41100202846020848460208B7F84E3039
:1025700007F10C02D118FB79C4481A010244023257
:1025800012780132D4B2C1481A0102440232204604
:102590001070BE4A1B01134402331B78B7F84C007D
:1025A0000A460821FEF7C2F8B7F94C300833002B71
:1025B00000DA0733DB109AB2B7F84E301344A7F8AD
:1025C0004E30B7F84C3008339BB21BB25A4203F07E
:1025D000070302F0070258BF53421BB2A7F84C3062
:1025E000B7F84E3007F10C021A44B7F84C0001233B
:1025F0000821FEF79BF8B7F94C300833002B00DABE
:102600000733DB109AB2B7F84E301344A7F84E30B8
:10261000B7F84C3008339BB21BB25A4203F00703A1
:1026200002F0070258BF53421BB2A7F84C30FB79A7
:10263000964A1B011344063305221A80B7F84E3020
:1026400007F10C021A44FB7990491B010B44063335
:102650001B88B7F84C001021FEF768F8B7F94C302A
:102660001033002B00DA0733DB109AB2B7F84E3084
:102670001344A7F84E30B7F84C3010339BB21BB25E
:102680005A4203F0070302F0070258BF53421BB23D
:10269000A7F84C30B7F84E3007F10C021A44B7F8DF
:1026A0004C0017230821FEF741F8B7F94C300833E6
:1026B000002B00DA0733DB109AB2B7F84E30134420
:1026C000A7F84E30B7F84C3008339BB21BB25A42D1
:1026D00003F0070302F0070258BF53421BB2A7F8EA
:1026E0004C30B7F84E3007F10C021A44B7F84C00E2
:1026F00001231021FEF71AF8B7F94C301033002BE4
:1027000000DA0733DB109AB2B7F84E301344A7F85B
:102710004E30B7F84C3010339BB21BB25A4203F024
:10272000070302F0070258BF53421BB2A7F84C3010
:10273000B7F84E3007F10C021A44B7F84C00544B6E
:102740002021FDF7F3FFB7F94C302033002B00DADE
:102750000733DB109AB2B7F84E301344A7F84E3067
:10276000B7F84C3020339BB21BB25A4203F0070338
:1027700002F0070258BF53421BB2A7F84C30B7F81B
:102780004E3007F10C021A44B7F84C000023102118
:10279000FDF7CCFFB7F94C301033002B00DA0733CC
:1027A000DB109AB2B7F84E301344A7F84E30B7F8A2
:1027B0004C3010339BB21BB25A4203F0070302F0B5
:1027C000070258BF53421BB2A7F84C30B7F84E303F
:1027D00007F10C021A44B7F84C0000231021FDF752
:1027E000A5FFB7F94C301033002B00DA0733DB10AC
:1027F0009AB2B7F84E301344A7F84E30B7F84C30C1
:1028000010339BB21BB25A4203F0070302F00702D7
:1028100058BF53421BB2A7F84C30B7F84E3007F1FF
:102820000C021A44B7F84C0000231021FDF77EFF7C
:10283000B7F94C301033002B00DA0733DB109AB2B3
:10284000B7F84E301344A7F84E30B7F84C30103379
:102850009BB21BB25A4203F0070302F0070258BFB3
:1028600053421BB2A7F84C30B7F84E3007F10C02B8
:102870001A44B7F84C0000231021FDF757FFB7F9B1
:102880004C301033002B05DA073303E0C41100206D
:10289000AF32E233DB109AB2B7F84E301344A7F8E8
:1028A0004E30B7F84C3010339BB21BB25A4203F093
:1028B000070302F0070258BF53421BB2A7F84C307F
:1028C000FB79B24A1B01134408331B68B04A934298
:1028D0000DD9FB79AD4A1B01134408331A68FB7903
:1028E000013AAA491B010B440C331A600CE0FB7936
:1028F000A64A1B01134408331A68FB790132A34925
:102900001B010B440C331A60B7F84E3007F10C0270
:102910001A44FB799D491B010B440C331B68B7F823
:102920004C001821FDF702FFFB79FA7997491B014A
:102930000B440C331968974813465B001344DB00C3
:1029400003440C331960B7F94C301833002B00DA0C
:102950000733DB109AB2B7F84E301344A7F84E3065
:10296000B7F84C3018339BB21BB25A4203F007033E
:1029700002F0070258BF53421BB2A7F84C30FB7954
:10298000854AD25C0132D1B2834AD154FB79824A62
:10299000D35CB32B04D8FB797F4AD35C002B03D1E3
:1029A000FB797D4A0A21D154B7F84E3007F10C0269
:1029B0001A44FB797849CB5CB7F84C000821FDF745
:1029C000B5FEB7F94C300833002B00DA0733DB10C3
:1029D0009AB2B7F84E301344A7F84E30B7F84C30DF
:1029E00008339BB21BB25A4203F0070302F00702FE
:1029F00058BF53421BB2A7F84C30B7F84E3007F11E
:102A00000C021A44B7F84C0001230821FDF78EFE92
:102A1000B7F94C300833002B00DA0733DB109AB2D9
:102A2000B7F84E301344A7F84E30B7F84C3008339F
:102A30009BB21BB25A4203F0070302F0070258BFD1
:102A400053421BB2A7F84C30B7F84E3007F10C02D6
:102A50001A44B7F84C0001230821FDF767FEB7F9C7
:102A60004C300833002B00DA0733DB109AB2B7F88A
:102A70004E301344A7F84E30B7F84C3008339BB2B1
:102A80001BB25A4203F0070302F0070258BF534239
:102A90001BB2A7F84C30B7F84E3007F10C021A44BD
:102AA000B7F84C0000230821FDF740FEB7F94C3081
:102AB0000833002B00DA0733DB109AB2B7F84E3038
:102AC0001344A7F84E30B7F84C3008339BB21BB212
:102AD0005A4203F0070302F0070258BF53421BB2E9
:102AE000A7F84C302D4B1B685B0903F00103002B4A
:102AF00060D02A4B1B79FA799A425BD10C2387F874
:102B00005730274817F04AFC0146264BA3FB012308
:102B1000DA0813465B019B1A9B001344CA1AD3B20E
:102B2000013387F85730204820F02CF8FB79174AFA
:102B30001B01134403331B7819461C481FF086FF02
:102B4000FB79124A1B01134403331B7897F8572073
:102B50009A4208D1FB790D4A1B01134403331B78B9
:102B6000023B87F8573097F85730194610481FF046
:102B70006DFFB7F84E3007F10C021A4497F8573042
:102B8000B7F84C000821FDF7D1FD22E0C411002068
:102B9000EFFFFF00741600200C0100205C190020DC
:102BA000209D0020D34D6210684602089846020816
:102BB000B4460208B7F84E3007F10C021A44FB790C
:102BC0004E490B4493F8EB30B7F84C000821FDF761
:102BD000ADFDB7F94C300833002B00DA0733DB10BA
:102BE0009AB2B7F84E301344A7F84E30B7F84C30CD
:102BF00008339BB21BB25A4203F0070302F00702EC
:102C000058BF53421BB2A7F84C30B7F84E3007F10B
:102C10000C021A44B7F84C0000230821FDF786FD8A
:102C2000B7F94C300833002B00DA0733DB109AB2C7
:102C3000B7F84E301344A7F84E30B7F84C3008338D
:102C40009BB21BB25A4203F0070302F0070258BFBF
:102C500053421BB2A7F84C30B7F84E2007F10C03D3
:102C60001146184610F010FB3865B7F84E3007F1E2
:102C70000C021A44B7F84C003B6D2021FDF756FDBD
:102C8000B7F94C302033002B00DA0733DB109AB24F
:102C9000B7F84E301344A7F84E30B7F84C30203315
:102CA0009BB21BB25A4203F0070302F0070258BF5F
:102CB00053421BB2A7F84C30114B1B685B0A03F060
:102CC0000103002B0BD00E4B1B79FA799A4206D1E7
:102CD0000C481FF057FF0C481FF0B8FE09E0B7F88A
:102CE0004E30D9B2FA7907F10C03184604F068FCAB
:102CF00000BF00BF5C37BD4690BD00BF040300208D
:102D00005C190020D0460208E846020890B599B048
:102D100000AF7860084611461A460346FB700B4622
:102D2000BB7013467B700023A7F85E300023FB6462
:102D30000023BB6512F080FEB864002387F857308B
:102D4000002387F85630002387F855300023BB60F6
:102D500007F10C033822002118461FF08FFD0023D5
:102D6000A7F852300023A7F85030A149A148FDF739
:102D700067FA0346002B00F038819F4B1B6803F075
:102D80000103002B2DD09C4B1B79BA789A4228D195
:102D900016237B64994817F001FB0246984BA3FB6E
:102DA0000213D90D0B461B045B1A1B02D31A7B645A
:102DB00094481FF0E7FEBB78934A1B011344083385
:102DC0001B68194691481FF041FE796C90481FF02E
:102DD0003DFE07F108027B6C18210020FDF7A6FCE0
:102DE0000BE0BB78884A1B01134408331B6807F1CA
:102DF000080218210020FDF799FC002387F85630BF
:102E000010E097F856307A681A4497F85630033332
:102E1000127860333B4403F8582C97F8563001334E
:102E200087F8563097F85620FB78053B9A42E8DB46
:102E300097F856309BB203339AB207F10803114654
:102E4000184610F021FAF864FB78053B7A681A44BA
:102E5000B7F8503020211846FDF7DCFBB865FA6C56
:102E6000BB6D9A4200F0EC807B6805331A4608215E
:102E70000020FDF7CFFB0346002B0AD07B6805330B
:102E80001A4608210020FDF7C5FB0346012B40F040
:102E9000988060481FF076FE07F108033C2200216D
:102EA00018461FF0EBFCBB78574A1B01134408334C
:102EB0001B68013307F1080218210020FDF736FCDA
:102EC000002387F8563010E097F856307A681A4495
:102ED00097F856300333127860333B4403F8582C8C
:102EE00097F85630013387F8563097F85620FB781C
:102EF000053B9A42E8DB97F856309BB203339AB20F
:102F000007F108031146184610F0BEF9F864FB7883
:102F1000053B7A681A44B7F8503020211846FDF76F
:102F200079FBB865FA6CBB6D9A4236D13A481FF00E
:102F300029FEB96D39481FF089FDBB78324A1B0163
:102F4000134408331B68194635481FF07FFDBB78D2
:102F50002D491A010A440832126801322A491B011C
:102F60000B4408331A60BB78274A1B01134408330B
:102F70001B6819462B481FF069FDBB78BA782249B7
:102F80001B010B4408331968274813465B001344A0
:102F9000DB0003440833196053E0BB78234A6633EF
:102FA0009B0013445B68194621481FF04FFDB96D23
:102FB00020481FF04BFDF96C1F481FF047FD00F043
:102FC000ACBEBB78194A66339B0013445B68194654
:102FD0001A481FF03BFDB96D16481FF037FDF96C1C
:102FE00015481FF033FD00F098BE00BF29E000BF78
:102FF000F8410208050300205C190020209D0020F4
:1030000001800080FC460208C41100201C47020811
:10301000444702086C47020888470208A047020894
:10302000C0470208E047020874160020040300208D
:103030000C4802083C4402084C4402082C48020890
:1030400000BFBB78C349BA6C41F82320BB78C249A2
:10305000BA6C41F82320BB78C04A0121D154BA7818
:1030600013465B0113445B00BD4A13444022002118
:1030700018461FF003FCBA7813465B0113445B004B
:10308000B74A1344FA78796818461FF0CFFBBA782C
:10309000FB7898B2B24913465B0113445B000B44C2
:1030A000403302461A80B7F950300833002B00DA5B
:1030B0000733DB109AB2B7F852301344A7F85230F6
:1030C000B7F8503008339BB21BB25A4203F00703E3
:1030D00002F0070258BF53421BB2A7F85030B7F8AE
:1030E00052307A681A44B7F8503010211846FDF76C
:1030F00091FA0346BA7898B29A4913465B00134492
:103100001B010B44283302461A80BA7895491346AE
:103110005B0013441B010B4428331B88194692485B
:103120001FF094FCB7F950301033002B00DA07334E
:10313000DB109AB2B7F852301344A7F85230B7F800
:10314000503010339BB21BB25A4203F0070302F017
:10315000070258BF53421BB2A7F85030B7F852309D
:103160007A681A44B7F8503010211846FDF752FA21
:103170000346BA7898B27B4913465B0013441B019F
:103180000B44263302461A80BA78764913465B0010
:1031900013441B010B4426331B88194673481FF048
:1031A00055FCB7F950301033002B00DA0733DB1031
:1031B0009AB2B7F852301344A7F85230B7F85030EB
:1031C00010339BB21BB25A4203F0070302F007020E
:1031D00058BF53421BB2A7F85030B7F852307A6844
:1031E0001A44B7F8503008211846FDF713FA024682
:1031F000BB78D1B25E4A1B01134402330A461A70EF
:10320000B7F950300833002B00DA0733DB109AB2DD
:10321000B7F852301344A7F85230B7F8503008339B
:103220009BB21BB25A4203F0070302F0070258BFD9
:1032300053421BB2A7F85030B7F852307A681A449C
:10324000B7F8503008211846FDF7E4F90246BB787C
:10325000D1B2474A1B01134401330A461A70BB78A6
:10326000434A1B01134401331B78002B38D1BB7830
:10327000404A66339B0013445B6819463E481FF082
:10328000E5FBBB783A4A1B0113440C331B68194613
:103290003A481FF0DBFBBB7835491A010A440C326F
:1032A0001268013232491B010B440C331A60BB789F
:1032B0002F4A1B0113440C331B68194630481FF07A
:1032C000C5FBBB78BA782A491B010B440C3319683B
:1032D0002C4813465B001344DB0003440C33196095
:1032E000B7F950300833002B00DA0733DB109AB2FD
:1032F000B7F852301344A7F85230B7F850300833BB
:103300009BB21BB25A4203F0070302F0070258BFF8
:1033100053421BB2A7F85030B7F852307A681A44BB
:10332000B7F8503008211846FDF774F90346BA780B
:10333000D8B20C4913465B0013441B010B44023303
:1033400002461A70B7F950300833002B1CDA0733E5
:103350001AE000BFA40F0020CC0F0020181000209E
:103360007C190020A41300202C45020834450208D3
:10337000C4110020040300204048020884480208C9
:103380009448020874160020DB109AB2B7F8523045
:103390001344A7F85230B7F8503008339BB21BB231
:1033A0005A4203F0070302F0070258BF53421BB210
:1033B000A7F85030B7F852307A681A44B7F850304E
:1033C00010211846FDF726F90246BB7891B2BD4A96
:1033D0001B01134404330A461A80BB49BB48FCF75F
:1033E0002FFF0346002B0FD1BB78B64A1B011344B5
:1033F00004331A88BB7842F0080291B2B14A1B012B
:10340000134404330A461A80B7F950301033002BA6
:1034100000DA0733DB109AB2B7F852301344A7F83A
:103420005230B7F8503010339BB21BB25A4203F0FF
:10343000070302F0070258BF53421BB2A7F85030EF
:10344000BB78A04A1B01134404331B8803F02003FC
:10345000002B00F04581B7F852307A681A44B7F86B
:10346000503008211846FDF7D5F80346BA78D8B28F
:10347000974913465B0013445B000B440533024637
:103480001A70B7F950300833002B00DA0733DB101D
:103490009AB2B7F852301344A7F85230B7F8503008
:1034A00008339BB21BB25A4203F0070302F0070233
:1034B00058BF53421BB2A7F85030B7F852307A6861
:1034C0001A44B7F8503008211846FDF7A3F8034610
:1034D000BA78D8B27E4913465B0013445B000B44B4
:1034E000043302461A70B7F950300833002B00DA63
:1034F0000733DB109AB2B7F852301344A7F85230B2
:10350000B7F8503008339BB21BB25A4203F007039E
:1035100002F0070258BF53421BB2A7F85030B7F869
:1035200052307A681A44B7F8503008211846FDF72F
:1035300071F80346BA78D8B2654913465B00134464
:103540005B000B44033302461A70B7F9503008335E
:10355000002B00DA0733DB109AB2B7F8523013446D
:10356000A7F85230B7F8503008339BB21BB25A421A
:1035700003F0070302F0070258BF53421BB2A7F83B
:103580005030B7F852307A681A44B7F850300821F2
:103590001846FDF73FF80346BA78D8B24C491346AF
:1035A0005B0013445B000B4402461A70B7F95030BD
:1035B0000833002B00DA0733DB109AB2B7F8523029
:1035C0001344A7F85230B7F8503008339BB21BB2FF
:1035D0005A4203F0070302F0070258BF53421BB2DE
:1035E000A7F85030B7F852307A681A44B7F850301C
:1035F00008211846FDF70EF80346BA78D8B23449C8
:1036000013465B0013445B000B44013302461A70FF
:10361000B7F950300833002B00DA0733DB109AB2C9
:10362000B7F852301344A7F85230B7F85030083387
:103630009BB21BB25A4203F0070302F0070258BFC5
:1036400053421BB2A7F85030B7F852307A681A4488
:10365000B7F8503008211846FCF7DCFF0346BA786B
:10366000D8B21B4913465B0013445B000B44023382
:1036700002461A70B7F950300833002B00DA0733CE
:10368000DB109AB2B7F852301344A7F85230B7F8AB
:10369000503008339BB21BB25A4203F0070302F0CA
:1036A000070258BF53421BB2A7F85030BB781846E8
:1036B00005F02CFB0346002B0ED0BB78054A0021F9
:1036C000D1540DE0C4110020F84102080503002088
:1036D00088110020D8100020BB78864A0121D154DF
:1036E000BB78854A1B01134404331B8803F008038D
:1036F000002B02D0012387F85530B7F852307A6892
:103700001A44B7F8503008211846FCF783FF0346E7
:10371000BA78D8B2794913465B0013441B010B44B5
:10372000033302461A70B7F950300833002B00DA21
:103730000733DB109AB2B7F852301344A7F852306F
:10374000B7F8503008339BB21BB25A4203F007035C
:1037500002F0070258BF53421BB2A7F85030BA78A4
:10376000664913465B0013441B010B4403331B786B
:10377000194663481FF06AF9B7F852307A681A445C
:10378000B7F8503008211846FCF744FF0346BA78D2
:10379000D8B25A4913465B0013441B010B4404334F
:1037A00002461A70B7F950300833002B00DA07339D
:1037B000DB109AB2B7F852301344A7F85230B7F87A
:1037C000503008339BB21BB25A4203F0070302F099
:1037D000070258BF53421BB2A7F85030BA78474986
:1037E00013465B0013441B010B4403331B7803F0A7
:1037F000070387F8573097F85730002B0ED0BA7868
:103800003E4913465B0013441B010B4403331B78F2
:10381000DB08DBB2013387F857300BE0BA78374961
:1038200013465B0013441B010B4403331B78DB0876
:1038300087F857300023A7F85E304CE0B7F85230D5
:103840007A681A44B7F8503008211846FCF7E2FEAF
:103850000346BA78B7F85E10DCB2284813465B001E
:1038600013441B0103440B44053322461A70B7F876
:103870005E00BA78B7F85E10204C13465B00134424
:103880001B0123440B4405331B781A4601461D488F
:103890001FF0DCF8B7F950300833002B00DA07339B
:1038A000DB109AB2B7F852301344A7F85230B7F889
:1038B000503008339BB21BB25A4203F0070302F0A8
:1038C000070258BF53421BB2A7F85030B7F85E301A
:1038D0000133A7F85E3097F857309BB2B7F85E20F7
:1038E0009A42ABD30A201FF0C9F80023A7F85E3034
:1038F00044E000BFD8100020C4110020A413002011
:10390000A4480208AC480208B7F852307A681A4452
:10391000B7F8503008211846FCF77CFE0346BA7809
:10392000B7F85E10DCB2C44813465B0013441B01B9
:1039300003440B44153322461A70B7F9503008334C
:10394000002B00DA0733DB109AB2B7F85230134479
:10395000A7F85230B7F8503008339BB21BB25A4226
:1039600003F0070302F0070258BF53421BB2A7F847
:103970005030B7F85E300133A7F85E30BA78AE4900
:1039800013465B0013441B010B4404331B789BB2AA
:10399000B7F85E209A42B7D37A78BB7811461846BA
:1039A00003F06EFABB78A54A0121D154BB78A34A33
:1039B00002339B001344BA6C5A60BA78A04913468C
:1039C0005B001344DB000B4404331B78012B16D13E
:1039D000462200219B481EF051FFBB789AB2994BBA
:1039E0001A80FB789AB2974B9A80FB781A467968CE
:1039F00095481EF01BFF40F203200BF0B7FFBA788A
:103A000013469B0013449B00904A13440133102239
:103A1000002118461EF032FFBA7813469B0013446B
:103A20009B008A4A1344581CBA7813465B0013441F
:103A30001B01814A1344053397F8572019461EF09D
:103A4000F5FEBA7813469B0013449B007F4A13444B
:103A5000013397F8572012B2BC78194600200FF0B6
:103A600059FB03461946794A23469B0023449B0091
:103A7000134412330A461A80BA78744913469B00DD
:103A800013449B000B44113397F857201A70BA78EF
:103A90006E4913469B0013449B000B44BA781A707E
:103AA00097F85530012B72D1BA7813469B00134416
:103AB0009B00674A134401331022002118461EF070
:103AC000DDFEBA7813469B0013449B00604A9818A9
:103AD000BA7813469B0013449B005C4A134414229B
:103AE00019461EF0A3FEBB785A49BA6C41F8232050
:103AF000BB78594A32F81310BA78554813469B00E0
:103B000013449B00034412331B8899423FD0BA7878
:103B1000B9784F4813469B0013449B00034412336B
:103B20001A884D4B23F81120142200214B481EF017
:103B3000A5FEBA7813469B0013449B00444A1344E5
:103B40001422194645481EF071FE40F207200BF082
:103B50000DFFBB78424A32F81330002B17D1BB78E7
:103B60001B01404A1344981CBA7813469B00134427
:103B70009B00374A13440133102219461EF056FEAB
:103B800040F219100BF0F2FE374ABB6C1360B978A3
:103B9000BA782F480B469B000B449B00034412331A
:103BA0001888274913465B001344DB000B44063397
:103BB00002461A80BA78224913465B001344DB00A0
:103BC0000B441433BA6D1A60BA781D4913465B0072
:103BD0001344DB000B44053302221A70BA781849EB
:103BE00013465B001344DB000B44BA781A70BA78B2
:103BF000134913465B001344DB000B4401330122DD
:103C00001A70BA780E4913465B001344DB000B446C
:103C1000023397F855201A701822002113481EF01D
:103C20002DFEBA7813465B001344DB00044A1344AC
:103C3000182219461CE000BFA4130020941C002089
:103C400074160020841800208A180020B81D002057
:103C5000801E0020D80E0020000F00201020002021
:103C6000C40E0020E4100020700E00205418002024
:103C70002B481EF0DBFD40F201200BF077FEBA78F6
:103C8000284913465B001344DB000B440133002238
:103C90001A70BB782449BA6C41F8232097F8553044
:103CA000012B1DD1BB782149BA6C41F82320BA7889
:103CB0001F4913465B0013449B000B440433BA6C4A
:103CC0001A60BA781A4913465B0013449B000B44F0
:103CD000013301221A70BB78164A0121D15417E032
:103CE000BB78144A0021D154BA78114913465B00BD
:103CF00013449B000B440833BA6C1A60BA780C4921
:103D000013465B0013449B000B44013300221A70DE
:103D10004FF48071084814F078FB6437BD4690BDBD
:103D20005418002074160020440E0020140F0020A8
:103D3000C81C0020640F0020001C024090B5A5B0F4
:103D400000AF03460A46FB711346BB710023BB64F8
:103D500007F14C033822002118461EF08FFD002386
:103D6000FB6007F110033822002118461EF086FD83
:103D7000002387F88F300023A7F88C300023A7F8A2
:103D80008A3007F148033C22002118461EF076FDD8
:103D9000B7F88C3007F148021A44B7F88A00F423C8
:103DA0000821FCF7C3FCB7F98A300833002B00DA8E
:103DB0000733DB109AB2B7F88C301344A7F88C3075
:103DC000B7F88A3008339BB21BB25A4203F007039C
:103DD00002F0070258BF53421BB2A7F88A30B7F867
:103DE0008C3007F148021A44FB79C64966339B00C0
:103DF0000B445B68B7F88A001021FCF797FCB7F911
:103E00008A301033002B00DA0733DB109AB2B7F890
:103E10008C301344A7F88C30B7F88A3010339BB23B
:103E20001BB25A4203F0070302F0070258BF534285
:103E30001BB2A7F88A30B7F88C3007F148021A4451
:103E4000FB79B04970339B000B445B68B7F88A007C
:103E50001021FCF76BFCB7F98A301033002B00DA25
:103E60000733DB109AB2B7F88C301344A7F88C30C4
:103E7000B7F88A3010339BB21BB25A4203F00703E3
:103E800002F0070258BF53421BB2A7F88A309E4B7C
:103E90001B689B0803F00103002B35D09A4B1B795C
:103EA000FA799A4230D1002387F88930974816F082
:103EB00075FA0246964BA3FB02139B09C82101FB2E
:103EC00003F3D31A87F8893092481EF05BFEFB7922
:103ED000914A1B01134401331B7819468F481EF089
:103EE000B5FD97F8893019468D481EF0AFFDB7F83B
:103EF0008C3007F148021A4497F88930B7F88A00E5
:103F00000821FCF713FC0FE0B7F88C3007F14802EA
:103F10001A44FB7980491B010B4401331B78B7F825
:103F20008A000821FCF702FCB7F98A300833002B1D
:103F300000DA0733DB109AB2B7F88C301344A7F8D5
:103F40008C30B7F88A3008339BB21BB25A4203F068
:103F5000070302F0070258BF53421BB2A7F88A308A
:103F6000694B1B68DB0803F00103002B35D0664B5F
:103F70001B79FA799A4230D1002387F88830634858
:103F800016F00CFA0246624BA3FB02139B09C821F0
:103F900001FB03F3D31A87F8883062481EF0F2FD64
:103FA000FB795D4A1B01134402331B7819465E48B6
:103FB0001EF04CFD97F8883019465C481EF046FD0F
:103FC000B7F88C3007F148021A4497F88830B7F8F0
:103FD0008A000821FCF7AAFB0FE0B7F88C3007F144
:103FE00048021A44FB794C491B010B4402331B78ED
:103FF000B7F88A000821FCF799FBB7F98A30083333
:10400000002B00DA0733DB109AB2B7F88C30134478
:10401000A7F88C30B7F88A3008339BB21BB25A42EB
:1040200003F0070302F0070258BF53421BB2A7F880
:104030008A30B7F88C3007F148021A44B7F88A0082
:1040400002230821FCF772FBB7F98A300833002BF2
:1040500000DA0733DB109AB2B7F88C301344A7F8B4
:104060008C30B7F88A3008339BB21BB25A4203F047
:10407000070302F0070258BF53421BB2A7F88A3069
:10408000FB792B4AD35C012B5AD107F037FAFA7926
:1040900013465B0013445B00264A1344264A11680A
:1040A000196092889A8025481EF06CFDFB79204AA1
:1040B0000021D154B7F88C3007F148021A44B7F800
:1040C0008A0068231021FCF731FBB7F98A301033DE
:1040D000002B00DA0733DB109AB2B7F88C301344A8
:1040E000A7F88C30B7F88A3010339BB21BB25A4213
:1040F00003F0070302F0070258BF53421BB2A7F8B0
:104100008A3044E0040300205C190020209D002038
:104110001F85EB51BC480208C4110020E04802088A
:1041200000490208044602082846020848460208D8
:10413000D810002088110020902800202049020873
:10414000B7F88C3007F148021A44B7F88A002823E0
:104150001021FCF7EBFAB7F98A301033002B00DAA4
:104160000733DB109AB2B7F88C301344A7F88C30C1
:10417000B7F88A3010339BB21BB25A4203F00703E0
:1041800002F0070258BF53421BB2A7F88A30B7F8B3
:104190008C3007F14802D118FA79CD4813465B00FC
:1041A00013445B00034405331B78B7F88A000A46C2
:1041B0000821FCF7BBFAB7F98A300833002B00DA84
:1041C0000733DB109AB2B7F88C301344A7F88C3061
:1041D000B7F88A3008339BB21BB25A4203F0070388
:1041E00002F0070258BF53421BB2A7F88A30B7F853
:1041F0008C3007F14802D118FA79B54813465B00B4
:1042000013445B00034404331B78B7F88A000A4662
:104210000821FCF78BFAB7F98A300833002B00DA53
:104220000733DB109AB2B7F88C301344A7F88C3000
:10423000B7F88A3008339BB21BB25A4203F0070327
:1042400002F0070258BF53421BB2A7F88A30B7F8F2
:104250008C3007F14802D118FA799D4813465B006B
:1042600013445B00034403331B78B7F88A000A4603
:104270000821FCF75BFAB7F98A300833002B00DA23
:104280000733DB109AB2B7F88C301344A7F88C30A0
:10429000B7F88A3008339BB21BB25A4203F00703C7
:1042A00002F0070258BF53421BB2A7F88A30B7F892
:1042B0008C3007F14802D118FA79854813465B0023
:1042C00013445B0003441B78B7F88A000A460821B0
:1042D000FCF72CFAB7F98A300833002B00DA0733E1
:1042E000DB109AB2B7F88C301344A7F88C30B7F8CB
:1042F0008A3008339BB21BB25A4203F0070302F024
:10430000070258BF53421BB2A7F88A30B7F88C3067
:1043100007F14802D118FA796D4813465B0013443F
:104320005B00034401331B78B7F88A000A46082172
:10433000FCF7FCF9B7F98A300833002B00DA0733B1
:10434000DB109AB2B7F88C301344A7F88C30B7F86A
:104350008A3008339BB21BB25A4203F0070302F0C3
:10436000070258BF53421BB2A7F88A30B7F88C3007
:1043700007F14802D118FA79554813465B001344F7
:104380005B00034402331B78B7F88A000A46082111
:10439000FCF7CCF9B7F98A300833002B00DA073381
:1043A000DB109AB2B7F88C301344A7F88C30B7F80A
:1043B0008A3008339BB21BB25A4203F0070302F063
:1043C000070258BF53421BB2A7F88A30B7F88C30A7
:1043D00007F148021A44B7F88A0001230821FCF7C4
:1043E000A5F9B7F98A300833002B00DA0733DB1060
:1043F0009AB2B7F88C301344A7F88C30B7F88A30EB
:1044000008339BB21BB25A4203F0070302F00702C3
:1044100058BF53421BB2A7F88A30B7F88C3007F167
:1044200048021A44B7F88A0000230821FCF77EF9F5
:10443000B7F98A300833002B00DA0733DB109AB261
:10444000B7F88C301344A7F88C30B7F88A300833AB
:104450009BB21BB25A4203F0070302F0070258BF97
:1044600053421BB2A7F88A30B7F88C3007F14802E4
:104470001A44B7F88A0001230821FCF757F9B7F965
:104480008A300833002B00DA0733DB109AB2B7F812
:104490008C301344A7F88C30B7F88A3008339BB2BD
:1044A0001BB25A4203F0070302F0070258BF5342FF
:1044B0001BB2A7F88A30074B1B685B0803F00103A7
:1044C000002B2CD0034B1B79FA799A4227D103E0B9
:1044D000881100205C1900200023C7F884304E4862
:1044E00015F05CFFC7F884004C481EF04BFBFB79CD
:1044F0004B4A1B0113440C331B68194649481EF0F4
:10450000A5FAD7F8841048481EF0A0FA07F10C026B
:10451000D7F8843018210020FCF708F90BE0FB796C
:104520003F4A1B0113440C331B6807F10C0218218E
:104530000020FCF7FBF8002387F88F3011E097F894
:104540008F2097F88F30033390323A4412F8482C7A
:1045500090333B4403F8842C97F88F30013387F86D
:104560008F3097F88F309BB2B7F88C209A42E6D8FC
:10457000B7F88C3007F14802D41897F88F309BB207
:1045800003339AB207F10C03114618460EF07CFE75
:104590000346B7F88A0022462021FCF7C7F8B7F98E
:1045A0008A302033002B00DA0733DB109AB2B7F8D9
:1045B0008C301344A7F88C30B7F88A3020339BB284
:1045C0001BB25A4203F0070302F0070258BF5342DE
:1045D0001BB2A7F88A30154B1B685B0A03F0010376
:1045E000002B0BD0114B1B79FA799A4206D1104857
:1045F0001EF0C8FA0F481EF029FA09E0B7F88C300F
:10460000D9B2FA7907F14803184602F0D9FF00BF82
:1046100000BF9437BD4690BD209D00203849020858
:10462000C41100205C490208804902085C1900207E
:10463000D0460208E846020880B5C0B000AF7860F6
:10464000084611461A460346FB700B46BB701346DC
:104650007B700023A7F8FE300023C7F8F03000235A
:10466000C7F8EC3011F0E8F9C7F8E800002387F844
:10467000FD30002387F8FC30002387F8FB3000234F
:104680007B6607F168037C22002118461EF0F6F8CD
:104690000023A7F8F8300023A7F8F630FB7899B28A
:1046A000BA78C34813465B0113445B0003444033AC
:1046B0001B8899421AD1BA7813465B0113445B00F8
:1046C000BB4A1344FA78194678681EF09FF80346EF
:1046D000002B0BD1BB78B74A66339B0013445B6851
:1046E0001946B5481EF0B2F900F0A0BDFB78053BB5
:1046F0007A681A44B7F8F63020211846FBF78AFF8B
:10470000C7F8EC00AD4B1B6803F00103002B34D05D
:10471000AA4B1B79BA789A422FD11623C7F8E430F6
:10472000A74815F03BFE0246A64BA3FB0213D90D8A
:104730000B461B045B1A1B02D31AC7F8E430A248CD
:104740001EF020FABA78A14913465B001344DB003F
:104750000B4408331B6819469D481EF077F9D7F8BB
:10476000E4109C481EF072F907F16402D7F8E430B7
:1047700018210020FBF7DAFF0EE0BA7893491346C0
:104780005B001344DB000B4408331B6807F1640231
:1047900018210020FBF7CAFF002387F8FC3011E046
:1047A00097F8FC307A681A4497F8FC300333127893
:1047B00003F580733B4403F89C2C97F8FC300133DD
:1047C00087F8FC3097F8FC20FB78053B9A42E7DB42
:1047D00097F8FC309BB203339AB207F16403114699
:1047E00018460EF051FDC7F8F000D7F8F020D7F8C2
:1047F000EC309A4200F004817B6805331A460821A8
:104800000020FBF707FF0346002B40F0BA807248F8
:104810001EF0B8F907F164038022002118461EF04B
:104820002DF8BA78694913465B001344DB000B444A
:1048300008331B68013307F1640218210020FBF7DD
:1048400075FF002387F8FC3011E097F8FC307A6898
:104850001A4497F8FC300333127803F580733B4415
:1048600003F89C2C97F8FC30013387F8FC3097F85C
:10487000FC20FB78053B9A42E7DB97F8FC309BB2C3
:1048800003339AB207F16403114618460EF0FCFC9C
:10489000C7F8F000FB78053B7A681A44B7F8F630A1
:1048A00020211846FBF7B6FEC7F8EC00D7F8F02039
:1048B000D7F8EC309A424ED148481EF063F9D7F849
:1048C000EC1047481EF0C2F8BA78404913465B0026
:1048D0001344DB000B4408331B68194641481EF0A3
:1048E000B5F8BA78394913465B001344DB000B4432
:1048F00008331B68591C354813465B001344DB0022
:10490000034408331960B978304813465B001344F8
:10491000DB00034408331A6833480B0103440833AF
:104920001A60BB78304A1B01134408331B681946D0
:104930002E481EF08BF8BB78BA782B491B010B442C
:10494000083319682A4813465B001344DB0003440C
:104950000833196055E0BB78164A66339B00134450
:104960005B68194623481EF071F8D7F8EC1022480E
:104970001EF06CF8D7F8F01020481EF067F800F031
:1049800055BCBB780B4A66339B0013445B681946E1
:1049900018481EF05BF8D7F8EC1017481EF056F8D0
:1049A000D7F8F01015481EF051F800F03FBC00BFDA
:1049B0007C19002004030020A44902085C1900208F
:1049C000209D002001800080FC4602086417002022
:1049D0001C470208444702086C470208E8490208DD
:1049E000A04702080C4A0208C4110020E047020850
:1049F00074160020284A02083C4402084C4402086D
:104A000000BFB7F9F6300833002B00DA0733DB10AC
:104A10009AB2B7F8F8301344A7F8F830B7F8F63080
:104A200008339BB21BB25A4203F0070302F007029D
:104A300058BF53421BB2A7F8F630B7F8F8307A687F
:104A40001A44B7F8F63010211846FBF7E3FD034689
:104A50009BB2A7F85C30B7F85C301946C6481DF029
:104A6000F5FFB7F9F6301033002B00DA0733DB100F
:104A70009AB2B7F8F8301344A7F8F830B7F8F63020
:104A800010339BB21BB25A4203F0070302F0070235
:104A900058BF53421BB2A7F8F630B7F8F8307A681F
:104AA0001A44B7F8F63010211846FBF7B3FD034659
:104AB0009BB2A7F85A30B7F85A301946AF481DF0E4
:104AC000C5FFB7F9F6301033002B00DA0733DB10DF
:104AD0009AB2B7F8F8301344A7F8F830B7F8F630C0
:104AE00010339BB21BB25A4203F0070302F00702D5
:104AF00058BF53421BB2A7F8F630B7F8F8307A68BF
:104B00001A44B7F8F63008211846FBF783FD034630
:104B1000DBB287F82530B7F9F6300833002B00DA1E
:104B20000733DB109AB2B7F8F8301344A7F8F8301F
:104B3000B7F8F63008339BB21BB25A4203F00703B2
:104B400002F0070258BF53421BB2A7F8F630B7F87D
:104B5000F8307A681A44B7F8F63008211846FBF79F
:104B600059FD0346DBB287F82630B7F9F630083333
:104B7000002B00DA0733DB109AB2B7F8F830134491
:104B8000A7F8F830B7F8F63008339BB21BB25A4298
:104B900003F0070302F0070258BF53421BB2A7F805
:104BA000F630B7F8F8307A681A44B7F8F6300821CA
:104BB0001846FBF72FFD0346DBB287F83630B7F90E
:104BC000F6300833002B00DA0733DB109AB2B7F85F
:104BD000F8301344A7F8F830B7F8F63008339BB232
:104BE0001BB25A4203F0070302F0070258BF5342B8
:104BF0001BB2A7F8F630B7F8F8307A681A44B7F85D
:104C0000F63010211846FBF705FD03469BB23B85A5
:104C1000B7F9F6301033002B00DA0733DB109AB205
:104C2000B7F8F8301344A7F8F830B7F8F630103377
:104C30009BB21BB25A4203F0070302F0070258BFAF
:104C400053421BB2A7F8F6303B8D03F02003002B34
:104C500000F0FE80B7F8F8307A681A44B7F8F630FA
:104C600008211846FBF7D6FC0346DBB287F8213053
:104C7000B7F9F6300833002B00DA0733DB109AB2AD
:104C8000B7F8F8301344A7F8F830B7F8F63008331F
:104C90009BB21BB25A4203F0070302F0070258BF4F
:104CA00053421BB2A7F8F630B7F8F8307A681A44C6
:104CB000B7F8F63008211846FBF7ACFC0346DBB228
:104CC00087F82030B7F9F6300833002B00DA0733C5
:104CD000DB109AB2B7F8F8301344A7F8F830B7F8F9
:104CE000F63008339BB21BB25A4203F0070302F0BE
:104CF000070258BF53421BB2A7F8F630B7F8F83096
:104D00007A681A44B7F8F63008211846FBF782FC97
:104D10000346DBB2FB77B7F9F6300833002B00DA35
:104D20000733DB109AB2B7F8F8301344A7F8F8301D
:104D3000B7F8F63008339BB21BB25A4203F00703B0
:104D400002F0070258BF53421BB2A7F8F630B7F87B
:104D5000F8307A681A44B7F8F63008211846FBF79D
:104D600059FC0346DBB23B77B7F9F6300833002B2A
:104D700006DA073304E000BF2C4502083445020878
:104D8000DB109AB2B7F8F8301344A7F8F830B7F848
:104D9000F63008339BB21BB25A4203F0070302F00D
:104DA000070258BF53421BB2A7F8F630B7F8F830E5
:104DB0007A681A44B7F8F63008211846FBF72AFC3F
:104DC0000346DBB27B77B7F9F6300833002B00DA05
:104DD0000733DB109AB2B7F8F8301344A7F8F8306D
:104DE000B7F8F63008339BB21BB25A4203F0070300
:104DF00002F0070258BF53421BB2A7F8F630B7F8CB
:104E0000F8307A681A44B7F8F63008211846FBF7EC
:104E100001FC0346DBB2BB77B7F9F6300833002B51
:104E200000DA0733DB109AB2B7F8F8301344A7F86A
:104E3000F830B7F8F63008339BB21BB25A4203F091
:104E4000070302F0070258BF53421BB2A7F8F6301F
:104E50003B8D03F00803002B02D0012387F8FB30C1
:104E6000B7F8F8307A681A44B7F8F63008211846CF
:104E7000FBF7D0FB0346DBB287F83730B7F9F630E3
:104E80000833002B00DA0733DB109AB2B7F8F8309A
:104E90001344A7F8F830B7F8F63008339BB21BB2CA
:104EA0005A4203F0070302F0070258BF53421BB2F5
:104EB000A7F8F63097F8373019464B481DF0C6FD75
:104EC000B7F8F8307A681A44B7F8F630082118466F
:104ED000FBF7A0FB0346DBB287F83830B7F9F630B2
:104EE0000833002B00DA0733DB109AB2B7F8F8303A
:104EF0001344A7F8F830B7F8F63008339BB21BB26A
:104F00005A4203F0070302F0070258BF53421BB294
:104F1000A7F8F63097F8373003F0070387F8FD302D
:104F200097F8FD30002B07D097F83730DB08DBB25D
:104F3000013387F8FD3004E097F83730DB0887F855
:104F4000FD300023A7F8FE3040E0B7F8F8307A686B
:104F50001A44B7F8F63008211846FBF75BFB024607
:104F6000B7F8FE30D2B203F580733B4403F8C72C88
:104F7000B7F8FE10B7F8FE3003F580733B4413F822
:104F8000C73C1A4619481DF061FDB7F9F6300833E1
:104F9000002B00DA0733DB109AB2B7F8F83013446D
:104FA000A7F8F830B7F8F63008339BB21BB25A4274
:104FB00003F0070302F0070258BF53421BB2A7F8E1
:104FC000F630B7F8FE300133A7F8FE3097F8FD3021
:104FD0009BB2B7F8FE209A42B7D30A201DF04EFDCF
:104FE0000023A7F8FE3037E0444A02084C4A020882
:104FF000B7F8F8307A681A44B7F8F630082118463E
:10500000FBF708FB0246B7F8FE30D2B203F5807317
:105010003B4403F8B72CB7F9F6300833002B00DA1D
:105020000733DB109AB2B7F8F8301344A7F8F8301A
:10503000B7F8F63008339BB21BB25A4203F00703AD
:1050400002F0070258BF53421BB2A7F8F630B7F878
:10505000FE300133A7F8FE3097F838309BB2B7F82E
:10506000FE209A42C4D307F1080301331022002125
:1050700018461DF003FC97F8FD2007F13403591D75
:1050800007F10803013318461DF0D0FB97F8FD30F7
:105090001AB207F108030133194600200EF03AF85E
:1050A00003467B8397F8FD307B76BB783B72BB78F9
:1050B000604A134493F82D30012B7FD197F8FB30D1
:1050C000012B7BD1798BBA785B4813469B00134444
:1050D0009B00034412331B8899426FD0BA78134661
:1050E0009B0013449B00544A1344013310220021B7
:1050F00018461DF0C3FBBA7813469B0013449B006F
:105100004D4A134407F10801142218461DF08EFB86
:10511000BB784A49D7F8E82041F82320BB78484AB1
:1051200032F81310BA78444813469B0013449B008E
:10513000034412331B88994240D0BA78B9783E486C
:1051400013469B0013449B00034412331A883C4BC4
:1051500023F81120142200213A481DF08FFBBA7861
:1051600013469B0013449B00334A134414221946F0
:1051700034481DF05BFB40F207200AF0F7FBBB78D8
:10518000314A32F81330002B18D1BB781B012F4A5B
:105190001344981CBA7813469B0013449B00264A7C
:1051A00013440133102219461DF040FB40F2191040
:1051B0000AF0DCFB264AD7F8E8301360BA782549B4
:1051C00013465B001344DB000B44BA781A70BA78BC
:1051D000204913465B001344DB000B4401330122DA
:1051E0001A70182200211C481DF048FBBA7813469B
:1051F0005B001344DB00174A134418221946164873
:105200001DF014FB40F201200AF0B0FBBA781149FE
:1052100013465B001344DB000B44013300221A7079
:10522000BB780E49D7F8E82041F8232007F58077AE
:10523000BD4680BD04030020801E0020D80E002043
:10524000000F002010200020C40E0020E4100020D9
:10525000700E00207416002054180020440E002008
:1052600090B595B000AF7860084611461A460346DF
:10527000FB700B46BB7013467B700023BB6007F1CD
:105280000C032422002118461DF0F8FA002387F8A9
:105290004F3000233B640023BB64002387F8473072
:1052A00010F0CAFBF863002387F83B3000233B87EC
:1052B0000023FB869A499B48FAF7C2FF0346002B5E
:1052C00000F02C81984B1B6803F00103002B2CD0BD
:1052D000954B1B79BA789A4227D100233B639348B8
:1052E00015F05CF80246924BA3FB0213D90B0B4658
:1052F0001B045B1AD31A3B638E481DF043FCBB783A
:105300008D4A1B01134408331B6819468B481DF056
:105310009DFB396B8A481DF099FB07F108023B6B36
:1053200018210020FBF702FA0BE0BB78824A1B0130
:10533000134408331B6807F1080218210020FBF70B
:10534000F5F9002387F84F3010E097F84F307A686E
:105350001A4497F84F300333127850333B4403F824
:10536000482C97F84F30013387F84F3097F84F208B
:10537000FB78053B9A42E8DB97F84F309BB203334A
:105380009AB207F10803114618460DF07DFF386404
:10539000FB78053B7A681A44FB8E20211846FBF700
:1053A00039F9B8643A6CBB6C9A4200F0DF807B68D4
:1053B00005331A4608210020FBF72CF9034687F82D
:1053C0003B3097F83B30002B04D097F83B30012B53
:1053D00040F09080BB785B4A66339B0013445B6867
:1053E000194659481DF032FB07F108032822002115
:1053F00018461DF043FABB784F4A1B01134408338B
:105400001B68013307F1080218210020FBF78EF911
:10541000002387F84F3010E097F84F307A681A442D
:1054200097F84F300333127850333B4403F8482C3D
:1054300097F84F30013387F84F3097F84F20FB78BB
:10544000053B9A42E8DB97F84F309BB203339AB2A0
:1054500007F10803114618460DF016FF38643A6C40
:10546000BB6C9A4232D139481DF08CFBBB78324A72
:105470001B01134408331B68194635481DF0E6FA32
:10548000BB782D491A010A440832126801322A49B0
:105490001B010B4408331A60BB78274A1B011344D5
:1054A00008331B6819462B481DF0D0FABB78BA7830
:1054B00021491B010B4408331968274813465B0038
:1054C0001344DB0003440833196050E0BB781D4AE5
:1054D00066339B0013445B68194620481DF0B6FAFA
:1054E000B96C1F481DF0B2FA396C1E481DF0AEFAB7
:1054F00000F033BCBB78134A66339B0013445B68EF
:10550000194619481DF0A2FAB96C15481DF09EFA0B
:10551000396C14481DF09AFA00F01FBC00BF26E059
:10552000F8410208050300205C190020209D00209E
:10553000018000805C4A0208C41100207C4A0208F5
:105540004447020804030020A04A020888470208D2
:10555000C44A0208DC4A020874160020F44A020811
:105560003C4402084C440208144B020800BFB7F93F
:1055700036300833002B00DA0733DB109AB23B8F4A
:1055800013443B87FB8E08339BB21BB25A4203F095
:10559000070302F0070258BF53421BB2FB863B8F42
:1055A0007A681A44FB8E10211846FBF733F803463D
:1055B000BA7898B2AB4913465B0013449B000B4486
:1055C000063302461A80B7F936301033002B00DA62
:1055D0000733DB109AB23B8F13443B87FB8E1033AB
:1055E0009BB21BB25A4203F0070302F0070258BFF6
:1055F00053421BB2FB863B8F7A681A44FB8E102104
:105600001846FBF707F80346BA7898B2954913464F
:105610005B0013449B000B44043302461A80B7F925
:1056200036301033002B00DA0733DB109AB23B8F91
:1056300013443B87FB8E10339BB21BB25A4203F0DC
:10564000070302F0070258BF53421BB2FB863B8F91
:105650007A681A44FB8E08211846FAF7DBFF0246E7
:10566000BB78D1B2804A1B01134402330A461A7038
:10567000B7F936300833002B00DA0733DB109AB263
:105680003B8F13443B87FB8E08339BB21BB25A42BD
:1056900003F0070302F0070258BF53421BB2FB8618
:1056A0003B8F7A681A44FB8E08211846FAF7B2FF3E
:1056B0000246BB78D1B26C4A1B01134401330A463F
:1056C0001A70BB78684A1B01134401331B78002B06
:1056D00038D1BB78654A66339B0013445B68194632
:1056E00063481DF0B3F9BB785F4A1B0113440C33C8
:1056F0001B6819465F481DF0A9F9BB785A491A0181
:105700000A440C321268013257491B010B440C3316
:105710001A60BB78544A1B0113440C331B681946AA
:1057200055481DF093F9BB78BA784F491B010B44DB
:105730000C331968514813465B001344DB000344E3
:105740000C331960B7F936300833002B00DA073311
:10575000DB109AB23B8F13443B87FB8E08339BB21E
:105760001BB25A4203F0070302F0070258BF53422C
:105770001BB2FB863B8F7A681A44FB8E08211846C1
:10578000FAF748FF0346BA78D8B2364913465B00A9
:1057900013449B000B44023302461A70B7F93630AB
:1057A0000833002B00DA0733DB109AB23B8F134427
:1057B0003B87FB8E08339BB21BB25A4203F00703B0
:1057C00002F0070258BF53421BB2FB863B8F7A6838
:1057D0001A44FB8E10211846FAF71CFF0246BB78CC
:1057E00091B2214A1B01134404330A461A8024490A
:1057F0002448FAF725FD0346002B0FD1BB781A4A3F
:105800001B01134404331A88BB7842F0080291B29A
:10581000154A1B01134404330A461A80B7F936307F
:105820001033002B00DA0733DB109AB23B8F13449E
:105830003B87FB8E10339BB21BB25A4203F0070327
:1058400002F0070258BF53421BB2FB86BB78064AE0
:105850001B01134404331B8803F02003002B00F0CA
:105860002F8111E0FC150020C4110020040300204A
:10587000404802082C4B0208384B020874160020DE
:10588000F8410208050300203B8F7A681A44FB8E1A
:1058900008211846FAF7BEFE0346BA78D8B2844902
:1058A00013465B0013445B000B44053302461A7039
:1058B000B7F936300833002B00DA0733DB109AB221
:1058C0003B8F13443B87FB8E08339BB21BB25A427B
:1058D00003F0070302F0070258BF53421BB2FB86D6
:1058E0003B8F7A681A44FB8E08211846FAF792FE1D
:1058F0000346BA78D8B26E4913465B0013445B0086
:105900000B44043302461A70B7F936300833002BC3
:1059100000DA0733DB109AB23B8F13443B87FB8ED0
:1059200008339BB21BB25A4203F0070302F007028E
:1059300058BF53421BB2FB863B8F7A681A44FB8EDA
:1059400008211846FAF766FE0346BA78D8B25849D5
:1059500013465B0013445B000B44033302461A708A
:10596000B7F936300833002B00DA0733DB109AB270
:105970003B8F13443B87FB8E08339BB21BB25A42CA
:1059800003F0070302F0070258BF53421BB2FB8625
:105990003B8F7A681A44FB8E08211846FAF73AFEC4
:1059A0000346BA78D8B2424913465B0013445B0001
:1059B0000B4402461A70B7F936300833002B00DA70
:1059C0000733DB109AB23B8F13443B87FB8E0833BF
:1059D0009BB21BB25A4203F0070302F0070258BF02
:1059E00053421BB2FB863B8F7A681A44FB8E082118
:1059F0001846FAF70FFE0346BA78D8B22C49134678
:105A00005B0013445B000B44013302461A70B7F984
:105A100036300833002B00DA0733DB109AB23B8FA5
:105A200013443B87FB8E08339BB21BB25A4203F0F0
:105A3000070302F0070258BF53421BB2FB863B8F9D
:105A40007A681A44FB8E08211846FAF7E3FD0346EC
:105A5000BA78D8B2164913465B0013445B000B4476
:105A6000023302461A70B7F936300833002B00DAD9
:105A70000733DB109AB23B8F13443B87FB8E08330E
:105A80009BB21BB25A4203F0070302F0070258BF51
:105A900053421BB2FB86BB78184603F037F9034626
:105AA000002B09D0BB78034A0021D15408E000BF85
:105AB00088110020D8100020BB78A94A0121D154B8
:105AC000BB78A84A1B01134404331B8803F0080366
:105AD000002B02D0012387F847307A78BB78114633
