:020000040800F2
:1000000000000820D5B80008ADB10008AFB1000865
:10001000B1B10008B3B10008B5B10008000000009C
:10002000000000000000000000000000B7B1000860
:10003000B9B1000800000000BBB10008BDB1000864
:1000400025B9000825B9000825B9000825B9000818
:1000500025B9000825B90008C1B10008C7B10008DA
:1000600025B9000825B9000825B9000825B90008F8
:1000700025B9000825B9000825B9000825B90008E8
:1000800025B9000825B9000825B9000825B90008D8
:1000900025B9000825B9000825B9000825B90008C8
:1000A00025B9000825B9000825B9000825B90008B8
:1000B00025B9000825B90008CDB1000825B9000808
:1000C00025B9000825B9000825B9000825B9000898
:1000D00025B90008D9B1000825B9000825B90008DC
:1000E00025B9000825B9000825B9000825B9000878
:1000F00025B9000825B9000825B9000825B9000868
:1001000025B9000825B90008E5B1000825B900089F
:10011000F1B10008FDB1000809B2000815B20008ED
:1001200025B9000825B9000825B9000825B9000837
:1001300025B9000821B2000825B9000825B9000832
:100140002DB2000839B2000825B9000825B9000809
:1001500025B9000825B9000825B9000825B9000807
:1001600025B9000825B9000825B9000825B90008F7
:1001700025B9000825B9000825B9000800000000CD
:1001800025B9000825B900083DB2000825B90008C6
:1001900025B9000825B9000825B9000825B90008C7
:1001A00025B9000825B9000825B9000825B90008B7
:1001B00025B9000825B9000825B9000825B90008A7
:1001C00025B9000825B9000825B9000825B9000897
:1001D00025B9000825B9000825B9000825B9000887
:1001E00025B9000849B2000855B2000825B9000831
:0801F00025B9000825B900083B
:1002000010B5054C237833B9044B13B10448AFF350
:1002100000800123237010BDD801002000000000E1
:100220006444010808B5034B1BB103490348AFF30D
:10023000008008BD00000000DC01002064440108CB
:1002400010F8012B11F8013B012A28BF9A42F7D080
:10025000D01A7047034613F8012B002AFBD1181A55
:10026000013870470000000000000000000000009E
:1002700001F0FF01102A2BDB10F0070F08D010F857
:10028000013B013A8B422DD010F0070F42B3F6D15B
:10029000F0B441EA012141EA014122F007047FF074
:1002A00000070023F0E80256083C85EA010586EACB
:1002B000010685FA47F5A3FA87F586FA47F6A5FA07
:1002C00087F68EB9EED1F0BC01F0FF0102F0070213
:1002D00032B110F8013B013A83EA010313B1F8D1BE
:1002E0000020704701387047002D06BF354603389F
:1002F000073815F0010F07D1013015F4807F02BFD8
:10030000013015F4C03F0130F0BC0138704700BF28
:1003100053B94AB9002908BF00281CBF4FF0FF316C
:100320004FF0FF3000F074B9ADF1080C6DE904CE68
:1003300000F006F8DDF804E0DDE9022304B07047C0
:100340002DE9F047089D04468E46002B4DD18A4288
:10035000944669D9B2FA82F252B101FA02F3C2F1BB
:10036000200120FA01F10CFA02FC41EA030E94404C
:100370004FEA1C48210CBEFBF8F61FFA8CF708FB6D
:1003800016E341EA034306FB07F199420AD91CEB45
:10039000030306F1FF3080F01F81994240F21C8177
:1003A000023E63445B1AA4B2B3FBF8F008FB1033BF
:1003B00044EA034400FB07F7A7420AD91CEB0404F4
:1003C00000F1FF3380F00A81A74240F207816444C4
:1003D000023840EA0640E41B00261DB1D440002349
:1003E000C5E900433146BDE8F0878B4209D9002DAD
:1003F00000F0EF800026C5E9000130463146BDE837
:10040000F087B3FA83F6002E4AD18B4202D38242A0
:1004100000F2F980841A61EB030301209E46002D4F
:10042000E0D0C5E9004EDDE702B9FFDEB2FA82F2A4
:10043000002A40F09280A1EB0C014FEA1C471FFA02
:100440008CFE0126200CB1FBF7F307FB131140EAE9
:1004500001410EFB03F0884208D91CEB010103F1B6
:10046000FF3802D2884200F2CB804346091AA4B278
:10047000B1FBF7F007FB101144EA01440EFB00FE4C
:10048000A64508D91CEB040400F1FF3102D2A645B1
:1004900000F2BB800846A4EB0E0440EA03409CE750
:1004A000C6F12007B34022FA07FC4CEA030C20FAFD
:1004B00007F401FA06F31C43F9404FEA1C4900FA1D
:1004C00006F3B1FBF9F8200C1FFA8CFE09FB18119A
:1004D00040EA014108FB0EF0884202FA06F20BD90D
:1004E0001CEB010108F1FF3A80F08880884240F25D
:1004F0008580A8F102086144091AA4B2B1FBF9F0A1
:1005000009FB101144EA014100FB0EFE8E4508D99B
:100510001CEB010100F1FF346CD28E456AD9023820
:10052000614440EA0840A0FB0294A1EB0E01A14205
:10053000C846A64656D353D05DB1B3EB080261EB73
:100540000E0101FA07F722FA06F3F1401F43C5E94D
:10055000007100263146BDE8F087C2F12003D84083
:100560000CFA02FC21FA03F3914001434FEA1C47C5
:100570001FFA8CFEB3FBF7F007FB10360B0C43EAB7
:10058000064300FB0EF69E4204FA02F408D91CEB67
:10059000030300F1FF382FD29E422DD90238634465
:1005A0009B1B89B2B3FBF7F607FB163341EA034105
:1005B00006FB0EF38B4208D91CEB010106F1FF3854
:1005C00016D28B4214D9023E6144C91A46EA00464B
:1005D00038E72E46284605E70646E3E61846F8E6DD
:1005E0004B45A9D2B9EB020864EB0C0E0138A3E726
:1005F0004646EAE7204694E74046D1E7D0467BE707
:10060000023B614432E7304609E76444023842E77E
:10061000704700BF10B54418A4B2082C12D8C0F11E
:100620000700002380B2127842EA0322C1F10103DD
:100630001844134B80B253F821308340134023FAFF
:1006400000F010BD102C08D8C0F10F00002480B2BB
:1006500012F8013B43EA0423E5E7182C137887BF1F
:1006600001321C46C0F11700002488BFC0F11F00F2
:1006700012F8013B94BF80B280B243EA0424E7E75A
:1006800080440108F0B54518ADB2082D24D8C0F15A
:10069000070014460125002680B22478032D44EA81
:1006A0000624214E56F82160C1F10101084403EAF5
:1006B000060380B206FA00F103FA00F024EA010111
:1006C00040EA01002CD0042D27D0022D02D1030ACC
:1006D00002F8013B1070F0BD102D0AD8C0F10F00D8
:1006E00014460225002780B214F8016B46EA07265B
:1006F000D3E7182D17780AD8C0F117001446032540
:10070000002780B214F8016B46EA0727ECE7C0F136
:100710001F00541C042580B2F4E7030E02F8013BCD
:10072000030C02F8013BD2E78044010810B52423F2
:100730001C4C1D492370012304F1320063703023E7
:10074000A3704023E370C02323714E2363712623DB
:10075000A37112F0A8FC154904F1640012F0A3FC87
:10076000134904F1960012F09EFC124904F1C800EE
:1007700012F099FC104904F1FA0012F094FC0F49B0
:1007800004F5967012F08FFC0D4904F5AF7012F06D
:100790008AFC0C4904F5C87012F085FC0A4B09224A
:1007A0001A7010BDF5010020044501080F4501082D
:1007B0001F4501082F45010842450108554501081C
:1007C0006845010872450108F401002007B54FF69D
:1007D000FF7301A90190012207480EF07AFF074B31
:1007E0000222186800238068194612F067FB0198FE
:1007F00003B05DF804FB00BF94C10020340000206A
:1008000010B508210E480CF065FC1021B0FA80F4F8
:100810000B480CF05FFC00284FEA54144FF40051D1
:100820000CBF02200020044306480CF053FC0028B3
:10083000054B0CBF0420002004431C7010BD00BFFA
:1008400000280240002002403C0D00200D4B2DE905
:10085000F041074693F800800B4C0026F5B2A845FE
:1008600001D8FF250BE020460136FFF7F3FC2146B7
:1008700002463846323412F0FFF90028EED12846FD
:10088000BDE8F081F4010020F501002030B500251D
:100890009BB06022294602A8019512F025FA6B4B05
:1008A000186806F06BFC09280AD81BB030BD002080
:1008B0000AF060FF04F168030DEB030404F8640C14
:1008C0000020ECB20AF042FF01350028EFD1002CE5
:1008D000EBD004F1680301A90DEB030505F8640CE6
:1008E0005B4812F009FA214601A8FFF7AFFF09287B
:1008F00000F2A980DFE800F0050C284359718191CE
:100900009A9F544B012254481A7012F091FACCE786
:1009100004F16703514952480DEB030414F8642CA9
:10092000303A12F0E9F914F8643C303BDBB2012BA9
:1009300006D84C4A137040F2052006F04DFFB4E78C
:10094000494812F075FAF6E704F167034749484849
:100950000DEB030414F8642C303A12F0CDF945483D
:1009600012F066FA444B14F8642C1968303A41F0DE
:1009700010011A711960414812F0BEF9DBE704F169
:1009800067033F493A480DEB030414F8642C303AEE
:1009900012F0B2F93B4812F04BFA14F8643C364AB4
:1009A0002021303B11601371E5E704F167033649FC
:1009B0002F480DEB030414F8642C303A12F09CF924
:1009C000324812F035FA2C4B1A6842F400721A6061
:1009D00014F8642C303A1A71ADE704F167032C491E
:1009E00023480DEB030414F8642C303A12F084F918
:1009F000214B1A6842F00102E9E704F16703254937
:100A00001B480DEB030414F8642C303A12F074F90F
:100A1000194B1A6842F00202D9E71F491F4812F029
:100A20006BF90022144B1A60FF22D4E71C491D48C1
:100A300012F062F939E715F8652C1B49303A0C4879
:100A400012F05AF931E708485FE700BFFCAF002019
:100A500077450108DD0900208D45010827020020A7
:100A6000CD450108DE090020DF45010859020020BC
:100A7000F9450108124601086412002021460108C8
:100A80008B02002034460108BD02002044460108C4
:100A9000EF02002021030020530300205F460108DD
:100AA000850300206C460108B70300202DE9F04FB4
:100AB000B5B00E46144682460BF03AF8002100907D
:100AC0007C2215A8149112F00FF90E49422303FB62
:100AD0000413B3F84030B3421AD104EB4413324646
:100AE000504601EB430112F0C7F888B9064A07489F
:100AF00002EB8404D4F89C1112F0FEF835B0BDE886
:100B0000F08F00BF5C130020E4090020814601083B
:100B1000053E20210020CF4F0AEB060B5A46FFF777
:100B200079FDCD4B81461A6812F0010F00F0D88193
:100B30001B79A34240F0D481C84818250DF042FC2F
:100B4000C74BB0FBF3F8C8EB0848A0EB0828C54832
:100B500012F06EF905FB0473C348996812F0CCF8E3
:100B60004146C24812F0C8F8434614AA294600205C
:100B7000FFF788FD0023D9B20133B142C0F2B6813C
:100B8000033114A808F00EFD81450AF10508019013
:100B900048D0424608210020FFF73CFD05460028CA
:100BA00040F0C381B24812F043F98022294614A8CC
:100BB00012F09AF8182114AA284601FB04739B68C6
:100BC0000133FFF75FFDE9B201358E4200F39681F4
:100BD000033114A808F0E6FC05465A4620210020FF
:100BE000FFF718FD8542064640F090811826A1487F
:100BF00012F01EF9294666439F4812F07DF89F487F
:100C000037449F4DB96805EB041512F075F8B968C3
:100C10009C480131B960A96012F06EF89A4B1E44ED
:100C2000AB68B3600AF1010210210020FFF7F2FC6B
:100C3000ADF8480081B2954812F05EF80AF103025F
:100C400010210020FFF7E6FCADF8460081B2904885
:100C500012F052F8424608210020FFF7DBFC0AF1AF
:100C6000060208210020FFF7D5FC0AF1070208213F
:100C70000020FFF7CFFC0AF108028DF822001021B6
:100C80000020FFF7C7FC820683B2019340F15B812D
:100C90000AF10A02082100204FF01008FFF7BAFC01
:100CA0000AF10B0208210020FFF7B4FC0AF10C0244
:100CB00008210020FFF7AEFC0AF10D0208210020F8
:100CC000FFF7A8FC0AF10E0208210020FFF7A2FCA2
:100CD0000AF10F0208210020FFF79CFC0AEB080232
:100CE000082100200DF1250BFFF794FC4FF00009BF
:100CF000C5B2684829468DF8235011F0FDFF08F170
:100D0000010208210020524408F10208FFF782FC8A
:100D100015F0070F4FEAD505C7B214BF0135EDB284
:100D20008DF82470AEB21FFA89F318FA89F29E4248
:100D300092B200F20B8146440DF135090A20B6B299
:100D400011F0F2FF3744BFB2BE4240F00E811022D4
:100D500000210DF10D0027B211F0C6FF2A460DF15A
:100D600025010DF10D0011F097FF2A460DF10D013F
:100D7000002008F0A5FB484BADF81E0023448DF879
:100D80001D508DF80C4093F82D30012B55D1019B4F
:100D90001B0752D5DFF81C81142303FB04835B8AF5
:100DA00083424AD007EB870510220021AD00681C62
:100DB00008EB0006304611F097FF08EB05030DF134
:100DC0000C0C0DF11C0E1A466546083203CD754514
:100DD00042F8080C42F8041CAC46F5D128681060B3
:100DE00000992E4A42F82410142202FB0482518AF0
:100DF0002B4A32F8140088421FD022F8141003F155
:100E00001401284A53F8040B8B4242F8040BF9D121
:100E10004FF4027006F0E0FC234B33F8143063B952
:100E2000224B304606F1100203EB0413023350F854
:100E3000041B904243F8041BF9D11823124D07EB11
:100E400047071B4E6343EC5405EB0308012305EBF6
:100E5000C70531E02C1B002064120020F0A3002005
:100E600000FFFF00C2460108E146010807470108EC
:100E70002D470108474701086947010886470108CF
:100E8000841200209F470108E41D00200348010848
:100E90000A48010811480108E409002090160020C2
:100EA000FC190020D41E0020AC1700202E1F0020AB
:100EB000C81D0020E416002088F801300FCD0FC6B1
:100EC00095E8030086E8030040F2022006F084FC67
:100ED0000023009A88F80130294B43F824200DE6BE
:100EE000182114AA01FB04739B6840E601F1D002AB
:100EF0001AF801106A4402F87D1C3CE601F1D003A7
:100F00001AF801206B4403F87D2C5CE61D4A1E484C
:100F100002EB8404D4F89C1111F0EEFE31461B481C
:100F200011F0EAFE29461A48E6E5164A164802EB91
:100F30008404D4F89C1111F0DFFE4946134811F0E7
:100F4000DBFE0199EFE74FF00A08C7E6524408219B
:100F50000020FFF75FFB4946C2B20BF8010B0D48BA
:100F600009F1010911F0C8FEDDE60AEB06020136BF
:100F700008210020FFF74EFB09F8010BB6B2E3E6AB
:100F80000C1D0020E4090020C9470108E5470108BD
:100F9000F4470108194801082DE9F04105460AF017
:100FA000C7FD2B4B07465A1992F82D20022A13D061
:100FB0001822284C6A431444E678EEB926490A44BC
:100FC000D7785FB922793AB103EB85032348D3F888
:100FD0009C1111F091FE2771BDE8F081012FFBD12A
:100FE0002279002AF8D003EB85031D48D3F89C1121
:100FF00011F082FE2671EFE7012EEDD116490A4469
:1010000092F80380B8F1000F12D12279012AE3D0BF
:1010100003EB85031348D3F89C1111F06DFE124BBE
:10102000C4F8108043F82570104B43F82570E1E7B1
:10103000B8F1010FD0D12279002ACDD003EB85037E
:101040000B48D3F89C1111F057FE00232371C3E71E
:10105000E4090020E41D00202C1B00202848010882
:10106000624801089B4801084016002068160020CD
:10107000D34801082DE9F843DFF83C81044608EB2A
:10108000000393F82D30022B72D018223C4D3D4EB8
:101090004243A91832448B689268934231D082B39C
:1010A0000979012902D13849095C51BB9B1A374A99
:1010B000002BB8BF5B42012B02D1135D032B59D12A
:1010C0001827002332486743135508EB840305EBC8
:1010D00007093744D3F89C1111F00EFED9F8081017
:1010E0002C4811F009FEB9682B4811F005FE2B4879
:1010F00011F09EFE2A4BBA6803EB0413C9F80820CE
:101100009A6018226243A9183244CB68D26893428D
:101110002ED06AB30979012902D11B49095D39BB77
:101120009B1A204A002BB8BF5B42012B02D1135DF2
:10113000032B22D11827002308EB84081A486743A1
:1011400013553D44D8F89C113E4411F0D5FDE96893
:10115000164811F0D1FDF168154811F0CDFD154884
:1011600011F066FE0E48F36800EB0414EB60E360D8
:10117000BDE8F88301331355C3E701331355F7E78F
:10118000E41D00202C1B00202E1300208C0D0020BD
:101190000F49010851490108754901089949010899
:1011A00084120020960D0020C1490108034A01085D
:1011B000274A01084B4A0108E4090020F8B5002439
:1011C000164D174FE6B295F82030B34224D957F8A0
:1011D0002600013405F0D2FFD5F818329842F1D933
:1011E0001823104900220C2073430F4DCC18CE5405
:1011F00062700E4A00FB06225278A2700FCC0FC517
:1012000094E8030085E8030040F2022006F0E4FAC7
:101210000AF08EFC47F82600F8BD00BFE409002064
:101220000C1D0020E41D0020C81D0020EC11002032
:1012300070B51F4D2B78012B01D108F07DFB1D49A6
:101240001D48FEF7FDFF10B901232B7070BD1B4C2C
:101250001B4E206805F092FFD6F81C329842F5D359
:10126000184B20681A688242F0D0002418602C7055
:1012700005F084FF4FF47A71B0FBF1F1124811F0E0
:101280003BFD124811F0D4FD96F82020214610486D
:1012900002EB4202D20011F027FD2146A2220D48A6
:1012A00011F022FD40F21910BDE8704006F094BA2A
:1012B00000000020734A0108E5090020141A0020EC
:1012C000E4090020101A00207F4A0108AC4A0108F6
:1012D0002C1B00202E1F00202DE9F74FDFF89C81EA
:1012E000574ED8F8000005F049FFD6F82032984252
:1012F00000F2918003B0BDE8F08F06EB850309EBA7
:101300000514D3F89C213AF815300234012B45D14D
:101310004C494D480192FEF793FF019A00283DD0B9
:1013200011464A4811F0E8FC10220021204611F035
:10133000DBFC013796F82030FDB2AB42DDD8444BE0
:101340001C7874B9434811F073FD434811F070FDE7
:10135000A2222146414811F0C7FC40F2191006F0C4
:101360003BFA3F4B1B78012B13D13E4900253B4FE5
:10137000DFF80C918B784A783B48097811F0BCFC77
:10138000ACB296F82030B4EB031F4CDB0A2011F00E
:10139000CBFC0AF0CDFBC8F80000ABE71BF805104A
:1013A000324B481E5B5D41424141012B304808BF32
:1013B00041F00201019111F09FFC0199022910D026
:1013C00003291BD00129AFD12A4B142202FB05357A
:1013D0006B1C113553F8042BAB4244F8042BF9D1A4
:1013E000A7E7254B142202FB05356B1C113553F87A
:1013F000042BAB4244F8042BF9D19AE71E4B14227C
:1014000002FB05356B1C113553F8042BAB4244F835
:10141000042BF9D18DE70027DFF84090DFF864A0B6
:10142000DFF864B086E73B1901344846997811F03B
:1014300063FC230702D10A2011F076FC01359FE7F7
:10144000E4090020734A0108E5090020CE4A01089A
:1014500000000020F34A0108174B01082E1F00204E
:10146000DE09002002270020344B0108021D002065
:10147000E24A01081C180020E4160020E0160020B3
:10148000F6540108AC170020E817002038B50546CF
:101490000024E3B20134E95C01B938BD00200AF050
:1014A0008DF9F6E7F0B5ADF5057D0E460021044651
:1014B000174605A84FF4FE72049111F015FC76B39F
:1014C0004F48FFF7E3FF621C10210020FFF7A2F84E
:1014D0004C49024604A811F0B7FD04A8FFF7D6FF57
:1014E000E21C10210020FFF795F84749024604A8A6
:1014F00011F0AAFD04A8FFF7C9FFE21D0821002092
:10150000FFF788F805464148FFF7C0FFE8B2013809
:10151000052866D8DFE800F0055F656165633C4833
:10152000CFE7002E55D03B48FFF7B0FF3A48FFF712
:10153000ADFF621D08210020FFF76CF83749024615
:1015400004A811F081FD04A8FFF7A0FFA21D082147
:101550000020FFF75FF83249024604A811F074FD3D
:1015600004A8FFF793FF04F1080210210020FFF701
:1015700051F82C4982B2054604A811F065FD04A873
:10158000FFF784FFAB062ED5E37B04A8A27A039372
:10159000A37B25490293637B0193237B0093E37A2A
:1015A00011F052FD04A8FFF771FF204B1B78012BAF
:1015B0000CD127441E4DBC4217D13EB9F6221C491E
:1015C00004A811F041FD04A8FFF760FF0DF5057DAB
:1015D000F0BD1848A8E71848A6E71848A4E7184837
:1015E000A2E71848A0E71848DDE714F8012B2946C0
:1015F00004A811F029FD04A8FFF748FFDBE700BFAE
:10160000594B0108614B0108694B0108714B0108F6
:101610005D4B0108754B01085B4B0108A04B0108AD
:10162000AA4B0108B44B0108BE4B0108DE0900209B
:10163000F65401087C4B0108834B0108874B0108D5
:101640008B4B01088F4B0108E04B01082DE9F0435B
:101650009BB006460F460021154602A86022019164
:1016600011F042FB3378B4464FF0F00E8DF80430A1
:10167000012318465C1C03F16802B842E4B20DEB8A
:10168000020151D3F623DFF8F09001F8643C19F819
:101690000530012B0AD1334B93F8803033B9324BEC
:1016A0001B78012B02D13148FFF7F0FEDFF8CC8028
:1016B00008EB050393F82D30012B09D12C4B214663
:1016C00001A853F8252005F095FE002309F8053000
:1016D000454495F82D30022B06D10DF10408002564
:1016E000A4B2ABB29C4236D81F4D2B78012B02D14D
:1016F0001E48FFF7CBFE1B4C94F8802032B101212D
:101700002046FFF7CFFE002384F880303A460021C0
:101710003046FFF7C7FE2B78012B02D11548FFF7A3
:10172000B5FE1BB0BDE8F0831CF8012F0130EF2A95
:10173000C0B281BF01F864EC04F16801023302F029
:101740000F0289BF0DEB010401F8642C04F8642C2E
:10175000DCB223468EE718F8011B032001350AF09E
:101760002DF8BEE71C1C0020DE090020F34B010809
:10177000381A0020514C0108F81C0020E409002010
:101780002DE9F043002791B0044638223946DFF8AE
:10179000D89202A8019711F0A7FAF42301AA082110
:1017A00038469F4EFEF76EFF0DF1050209EB8403EC
:1017B00010213846D3F89C31FEF764FF0DF1070283
:1017C00009EB840310213846D3F8C431FEF75AFFE1
:1017D00032685107C2F3800340F109813379A34293
:1017E0001BD1C8258F480CF0EDFDB0FBF5F303FBD2
:1017F00015058D4811F01CFB394601358B4811F059
:101800007BFA8B48EDB2294611F076FA2B460DF1A2
:10181000090208213846FEF735FF33684FEA0418FD
:10182000844F13F0080FC3F3C00000F0E580337954
:10183000A3421BD1C8257B480CF0C4FDB0FBF5F3D7
:1018400003FB15057C4811F0F3FA07EB08037B480E
:10185000997811F051FA2946794811F04DFA2B4642
:101860000DF10A0208210020FEF70CFF01230DF103
:101870000B0208210020FEF705FF07EB08050523F2
:1018800003AA10210020EB80FEF7FCFE17230DF1C8
:101890000E0208210020FEF7F5FE01230DF10F02D4
:1018A00010210020FEF7EEFE664B0DF11102202103
:1018B0000020FEF7E7FE00230DF115021021184667
:1018C000FEF7E0FE00230DF1170210211846FEF787
:1018D000D9FE00230DF1190210211846FEF7D2FEA1
:1018E00000230DF11B0210211846FEF7CBFEAB685A
:1018F000554A07EB08051821002093420DF11D02FF
:101900008CBF03F1FF330133EB60FEF7BBFE1822FF
:101910004E4B0821002002FB0433EA68DA604C4B8E
:101920001A5DB22A94BF01320A221A5508AA1B5D19
:10193000FEF7A8FE01230DF1210208210020FEF789
:10194000A1FE01230DF1220208210020FEF79AFEDC
:1019500000230DF1230208211846FEF793FE336899
:101960009A0653D53379A34250D17D252D480CF0EA
:1019700029FD4744B0FBF5F303FB1505354811F08D
:1019800057FAF9780135344811F0B6F9FB78EDB221
:101990003248AB4204BF023DEDB2294611F0ACF92A
:1019A0002B4609AA08210020FEF76CFE00230DF14A
:1019B000250208211846FEF765FE222101A807F03E
:1019C000F1FD0DF12602034620210020FEF75AFE0C
:1019D00033689B051ED53379A3421BD1204811F0F3
:1019E00027FA204811F088F911B0BDE8F0830DF115
:1019F0000902082118460EE707EB08020821937830
:101A00000133DBB293700DF10A022DE7A14499F87E
:101A1000EB30C6E72246262101A8FFF717FEE3E7D1
:101A200064120020F0A30020AE4C0108D14C010844
:101A3000F04C0108841200200F4D0108324D0108BE
:101A4000514D0108AF32E233EFFFFF00E41D0020EB
:101A500001000020704D0108A04D0108B94D01089A
:101A6000D44D0108E94D0108E40900202DE9F047B3
:101A70004FF000089EB004463822414610A89E4D03
:101A80002701CDF83C8011F02FF93C2241466846F1
:101A90009A4E11F029F9F4236A4608214046FEF7D0
:101AA000F1FD0DF1010205EB8403102105EB840526
:101AB0004046D3F89C31FEF7E5FDD5F8C431904D92
:101AC0000DF1030210214046FEF7DCFD2B6813F0F8
:101AD000040F00F0F7802B79A34240F0F3804FF021
:101AE000C80988480CF06EFCB0FBF9F303FB190938
:101AF000854811F09DF9F3198448597811F0FCF8E4
:101B00004946834811F0F8F84B4608210DF10502CB
:101B10000020FEF7B7FD2B68190740F1D6802B791E
:101B2000A34240F0D2804FF0C80876480CF04AFC3F
:101B3000B0FBF8F303FB1808764811F079F9F319B4
:101B40007548997811F0D8F84146744811F0D4F8E6
:101B500043460DF1060208210020DFF8E081FEF780
:101B600091FD02230DF1070208210020DFF8D0A12A
:101B7000FEF788FD18F80430012B40F0A98003F02F
:101B80008BFD674A04EB440310680AEB43014AF8F3
:101B90001300938863488B8011F04AF90020682372
:101BA00002AA102108F804004FF00609FEF76AFDAA
:101BB0000DF10A02082109FB04F900200AEB0908CB
:101BC00098F80530FEF75EFD98F804300DF10B0231
:101BD00008210020FEF756FD98F8033003AA0821DB
:101BE0000020FEF74FFD1AF809300DF10D02082113
:101BF0000020FEF747FD98F801300DF10E02082194
:101C00000020FEF73FFD98F802300DF110080DF1AD
:101C10000F0208210020FEF735FD0123424608216E
:101C20000020FEF72FFD00230DF1110208211846B8
:101C3000FEF728FD01230DF1120208210020FEF716
:101C400021FD2B689A0748D52B79A34245D12D4811
:101C50003E440CF0B7FB8146334811F0E9F8F168D7
:101C6000324811F049F84946314811F045F84B46E1
:101C70000FAA18210020FEF705FD6A460DF13F036B
:101C80001646083303CE464543F8080C43F8041CB7
:101C90003246F5D131880FA8B278198016219A7092
:101CA00007F080FC0DF11302034620210020FEF70F
:101CB000E9FC2B689B0513D4224617216846FFF7E1
:101CC000C5FC16E0F3195B781FE7F3199B7840E732
:101CD000282302AA1021002066E73E44F368C7E7E4
:101CE0002B79A342E8D1134811F0A2F8124811F061
:101CF00003F81EB0BDE8F087E4090020841200203C
:101D000064120020F0A30020FB4D01081E4E0108C4
:101D10003C4E01080F4D0108324D0108514D01089C
:101D2000FC2600205B4E0108704E0108934E01080E
:101D3000B44E0108D44D0108E94D0108590D0020A9
:101D4000A00D00202DE9F04F4FF000089FB0044691
:101D50003822414601A8AE4D2601CDF8008010F092
:101D6000C3FF3822414610A8CDF83C8010F0BCFFDC
:101D7000F4236A4608214046A64FFEF783FC0DF186
:101D8000010205EB8403102105EB84054046D3F8DE
:101D90009C31FEF777FCD5F8C4310DF10302102118
:101DA00040469D4DFEF76EFC3B6813F0040F00F0BB
:101DB00001813B79A34240F0FD804FF0C80997486C
:101DC0000CF000FBB0FBF9F303FB1909944811F088
:101DD0002FF8AB199348597810F08EFF4946924876
:101DE00010F08AFF4B460DF1050208210020DFF8B4
:101DF00068A2FEF747FC3B6813F0080F00F0DD8097
:101E00003B79A34240F0D9804FF0C80883480CF0DA
:101E1000D9FAB0FBF8F303FB1808844811F008F86E
:101E2000AB198348997810F067FF4146814810F05C
:101E300063FF43460DF1060208210020FEF722FC55
:101E400001238AF8003004230DF107020821002045
:101E5000FEF718FCAB19DFF80482988818F80430F4
:101E600010F0080000F0B780012B02AA4FF010011B
:101E70004FF000000CBF68232823FEF703FCAB19CA
:101E80009B88990640F1AF8018F80430DFF8D0B194
:101E9000012B11D103F000FC674A04EB44031068E6
:101EA0000BEB43014BF81300938864488B8010F0D0
:101EB000BFFF002308F804304FF006090DF10A02B5
:101EC0000821002009FB04F90BEB090898F80530FC
:101ED000FEF7D8FB98F804300DF10B020821002022
:101EE000FEF7D0FB98F8033003AA08210020FEF784
:101EF000C9FB1BF809300DF10D02082100204FF03D
:101F00001009FEF7BFFB98F801300DF10E02082111
:101F10000020FEF7B7FB98F802300DF10F02082100
:101F20000020FEF7AFFB3B689A075FD53B79A342E1
:101F30005CD13A4835440CF045FA414BB0FBF3F81C
:101F4000C8EB0848A0EB08283E4810F071FFE9688C
:101F50003D4810F0D1FE41463C4810F0CDFE4346CE
:101F60000FAA18210020FEF78DFB0023DAB20133FF
:101F70004A4511463DD303310FA807F013FB20213A
:101F800003460DEB09020020FEF77CFB002309F15C
:101F900004018AF800303B689B0531D53B79A342A8
:101FA0002ED12B4810F044FF2A4810F0A5FE1FB098
:101FB000BDE8F08FAB195B7815E7AA19002008215E
:101FC00093788AF800000133DBB293700DF10602BA
:101FD000FEF758FB37E7012B02AA4FF010010CBFA8
:101FE0006423242349E74FF00A099CE73544EB6852
:101FF000B6E778326A4412F8781C02F8391CB5E763
:10200000224601F0FE016846FFF720FBCFE700BF44
:10201000E40900206412002084120020F0A30020B4
:10202000AE4C0108D74E0108F44E01080F4D0108CF
:10203000134F0108304F0108FC2600205B4E0108B9
:1020400000FFFF00704E0108934E0108B44E0108D6
:10205000D44D0108E94D01089D1C0020590D0020B8
:10206000A00D00202DE9F0434FF0000891B0044688
:1020700038224146744D02A8CDF8048010F034FE99
:10208000F42301AA08214046704EFEF7FBFA0DF139
:10209000050205EB8403102105EB84054046D3F8C7
:1020A0009C312701FEF7EEFAD5F8C4310DF1070295
:1020B00010214046664DFEF7E5FA336813F0040F31
:1020C00000F0AE803379A34240F0AA804FF0C809F7
:1020D00060480CF077F9B0FBF9F303FB19095E488F
:1020E00010F0A6FEEB195D48597810F005FE494640
:1020F0005B4810F001FE4B460DF10902082100205B
:10210000FEF7C0FA33681A0740F18D803379A34295
:1021100040F089804FF0C8084E480CF053F93D4418
:10212000B0FBF8F303FB18084E4810F081FEA978C5
:102130004D4810F0E1FD41464C4810F0DDFD4346AE
:102140000DF10A0208210020494DFEF79BFA0623F3
:102150000DF10B0208210020DFF82881FEF792FA2A
:102160002B5D012B65D103F097FA424A04EB44033F
:10217000106808EB430148F8130093883E488B80B1
:1021800010F056FE0020692303AA102128550627C7
:10219000FEF778FA0DF10E0208216743002008EBE4
:1021A00007056B79FEF76EFA2B790DF10F02082106
:1021B0000020FEF767FAEB7804AA08210020FEF75A
:1021C00061FA18F807300DF1110208210020FEF71E
:1021D00059FA6B780DF1120208210020FEF752FA2D
:1021E000AB780DF1130208210020FEF74BFA102105
:1021F00001A807F0D7F905AA034620210020FEF721
:1022000041FA33689B0519D53379A34216D11B488F
:1022100010F00EFE1A4810F06FFD11B0BDE8F0830B
:10222000EB195B7868E73D44AB780133DBB2AB7008
:1022300086E7292303AA10210020A8E722461421BB
:1022400001A8FFF703FAE8E7E40900206412002080
:1022500084120020F0A30020AE4C0108D74E0108E4
:10226000F44E01080F4D0108134F0108304F0108CB
:10227000590D0020FC2600205B4E0108D44D0108BA
:10228000E94D0108A00D00202DE9FF47624C002711
:10229000624810F0CDFD94F82110614810F02CFD3B
:1022A000D4F818125F4810F027FDD4F81C125E48CD
:1022B00010F022FDD4F820125C4810F01DFDD4F877
:1022C00024125B4810F018FDDFF89481B4F8F81080
:1022D0005848DFF8909110F00FFDDFF88CA194F8CA
:1022E00021104F4810F008FD94F82130FDB2AB42A8
:1022F00034D894F83E30002694F83C2094F83B10F3
:1023000000934D4894F83D3010F0F6FC94F84A30B4
:1023100094F84620029394F8493094F845100193BC
:1023200094F8483045480093DFF8408194F84730EE
:10233000DFF83C9110F0E0FCDFF838A1B4F8F810B9
:102340003F4810F0D9FC94F82030F5B2AB4223D8C6
:10235000324804B0BDE8F04710F06ABD04EB8506D2
:1023600029464046013796F89E30019396F89D30F5
:10237000009396F89C3096F89B2010F0BDFCB6F8C0
:102380004A212946484610F0B7FCB6F84C212946A8
:10239000504610F0B1FCA7E7691C404610F0ACFCB9
:1023A000484604EB850367190136D3F89C1110F0F9
:1023B000A3FC504604EB8503D3F8C41110F09CFC39
:1023C000204804EB4503B3F8001210F095FC97F891
:1023D000EB101D4810F090FC97F823101B4810F0EC
:1023E0008BFC97F82D101A4810F086FC05F18A0333
:1023F000184854F8231010F07FFC05F194039E3523
:10240000154854F8231010F077FC54F825101348A1
:1024100010F072FC97E700BFE4090020514F01085B
:10242000A44F0108C64F0108E94F010813500108E5
:102430003F5001086A500108D2500108EE500108CF
:102440008E6C0108615101087D5101089551010808
:10245000A6510108B9510108D4510108ED510108F4
:1024600095500108B2500108C25001081C510108E2
:102470002F510108485101082DE9F0470026234D4E
:10248000DFF89C80DFF89C90F4B295F82030A342EE
:1024900001D8BDE8F08758F82400A8B304F19407E8
:1024A00004F06CFE55F8273003F57A7398422BD967
:1024B00059F8240004F062FE55F8273003F57A73CA
:1024C000984221D9DFF860A01AF80430012B1BD004
:1024D0000F4B53F82430B3F57A7F15D958F8240000
:1024E000012704F04BFE4FF47A71B0FBF1F109487B
:1024F00010F002FC084B214620461F55FFF740F91B
:10250000064B0AF804701F550136BDE7E4090020A8
:10251000F015002007520108F81C002024130020A9
:1025200040160020F4170020421300202DE9F84344
:102530000026DFF86080DFF86090154FF4B298F85D
:102540002030A34201D8BDE8F883182303FB04938D
:102550001B79012B05D008EB040393F82D30022BD7
:1025600013D13B5D012B10D1A51C07EB85056868D5
:1025700004F004FE322808D921462046FFF776FAF7
:1025800000233B554FF0FF336B600136D6E700BFA9
:10259000341D0020E4090020E41D00202DE9F8434B
:1025A00000261B4FDFF87880DFF8789097F820300E
:1025B000F4B2A34201D8BDE8F88358F8240020B350
:1025C000182505FB0495EB78FBB104F0D7FD04F169
:1025D0008A0357F82330984217D907EB84014FF448
:1025E0007A720C48D1F89C11B3FBF2F210F084FB24
:1025F00058F82410084810F07FFB09F099FA0146BA
:10260000064810F079FB0023EB700136CEE700BFDF
:10261000E40900203352010866520108945201086F
:1026200068160020E41D00202DE9F041214E0546EA
:10263000331893F82330012B02D00120BDE8F0813C
:102640001D4B1B78012BF8D106231C4A4FF4616700
:10265000434302EB0308D05C02F0FCFF044698F809
:10266000010002F0F7FF02B298F80200C2EB02127A
:10267000920007FB042402F0EDFF044403F00CF881
:102680000F4A53781078C3EB03139900937807FB34
:1026900000111944611A0029B8BF49420129CCDD53
:1026A00006EB85050748D5F89C2110F025FB002096
:1026B000C4E700BFE409002050130020A00D002053
:1026C000022700209F5201082DE9F04F0E460546D3
:1026D0001446DFF8C093053E2DED028B83B008EE63
:1026E000103A09F025FA0746B1B2284606F05AFF1B
:1026F0008046AA1920210020FDF78CFF804500901C
:1027000013D009EB8404C948D4F89C1110F0F4FAF2
:102710000099C74810F0F0FA4146C64803B0BDEC36
:10272000028BBDE8F04F10F0E7BA04F1FE08C24B8F
:102730004FF0010AC14E09EB480805F11D0203F8EC
:1027400004A01021002006F804A0FDF763FFB8F8EC
:10275000042083B283469A42B94B1DD003F804A0EB
:1027600009EB8403B748D3F89C1110F0C5FAB648BA
:102770001FFA8BF110F0C0FAB8F80410B34810F04B
:10278000BBFAB34909EB0A00FDF75AFD30B103B0BB
:10279000BDEC028BBDE8F08F00221A5509EB040A4C
:1027A00005F1240208210020FDF734FF9AF8EB30F0
:1027B0005FFA80F8434540F02081A64B4FF0010BB3
:1027C000DFF8D482102143F8247005EB0B02A24BF2
:1027D0004FEA441A06F804B000261E5530469F4BB7
:1027E00043F8247008EB4417FDF714FF81B23882D8
:1027F0009B4810F081FAEA1C10213046FDF70AFFD1
:10280000F88181B2974810F077FA6A1D08213046A6
:10281000FDF700FFAA1D082108F80A003046FDF761
:10282000F9FEEA1D082178703046FDF7F3FE05F148
:102830000802B87010213046FDF7ECFE8A4B80B2DA
:1028400003EB04139880830600F128810A26AA1955
:102850000821002008EB441AFDF7DCFE721C63011E
:102860008AF803002A44102100200193FDF7D2FECC
:10287000F21C0423AAF81200AF18A85803EB441363
:1028800006F10902A14448F8030008EB0301BB88E4
:102890002A440020754F8B801021FDF7BBFE06F106
:1028A0000B02AAF8140010212A440020FDF7B2FE02
:1028B00006F10D02AAF8160010212A440020FDF7A7
:1028C000A9FE06F10F02AAF8180018212A440020D8
:1028D000FDF7A0FE1822644B082102FB047203EBF3
:1028E000041B906006F11202CBF8080000202A4475
:1028F000FDF790FE5C4BC0B2082122018BF802006C
:10290000985406F1130200202A44FDF783FE06F1D5
:1029100014028AF80A0008212A440020FDF77AFEF2
:1029200099F8EB30C0B206F1150A83428BF8030028
:102930000CD04F4810F07CFA99F8EB104D4810F08D
:10294000DBF99BF803104C4810F0D6F905EB0A02AE
:1029500008210020FDF75EFE06F116026301082142
:102960002A4408EB030989F80B000020FDF752FE0A
:10297000C1B2012989F80C1006F1170905D03F48AA
:1029800010F0BAF93E4810F053FA05EB090208219D
:102990000020FDF73FFE06F11802630120212A44C2
:1029A000384D984488F80D000020FDF733FE18EEEE
:1029B000101AC8F81C002046FEF7E2FE1823009A01
:1029C0006343FE18FC5404EB44037261012207EBDD
:1029D000C307727172700FCF0FC597E8030085E8C7
:1029E000030040F2022004F0F7FE0023737009F0A8
:1029F0009FF8254B43F82400C9E609EB84032348DC
:102A0000D3F89C1110F078F99AF8EB10194810F0EF
:102A100073F94146184810F06FF90D491C48FDF74D
:102A20000FFC00283FF4C9AEB1E600BFDD5201083B
:102A3000E5470108F44701082E130020181A00206A
:102A40004F0D0020F852010830530108525301087D
:102A5000734A01084016002042130020F0150020A0
:102A6000034801080A48010884120020E41D0020E0
:102A7000C45301089C530108B0530108DE530108F8
:102A800009540108C81D00200C1D002074530108C2
:102A9000E5090020E4090020DC0D00204FF0060AC3
:102AA00005F10A0208213046FDF7B4FD0AFB04FADD
:102AB000194B05F10B02082103EB0A077871304628
:102AC000FDF7A8FD05F10C02082138713046FDF72D
:102AD000A1FD05F10D020821F8703046FDF79AFDC1
:102AE0000D4B05F10E02082103F80A003046FDF7F0
:102AF00091FD05F10F02082178703046FDF78AFD3F
:102B0000B8702046FFF790FD044B10B11E551026FB
:102B10009DE603F804B0FAE7A00D0020590D00204F
:102B20002DE9F04F4FF0000914460646D44F4FEA06
:102B300004182DED028BA7B008EE103A029108F0B0
:102B4000F7FF7C224946009007A8CDF8189010F0B6
:102B5000CBF8CC49CC48FDF773FB002800F032825B
:102B6000CA4B1A68D20740F1F8811B79A34240F0A2
:102B7000F481C74DC7480BF025FCB0FBF5F5C5EB5C
:102B80000545A0EB0525C44810F052F907EB0803F2
:102B9000C248996810F0B0F82946C14810F0ACF866
:102BA0002B4606AA18210020FDF76CFD029A00238F
:102BB000A2F1050AD9B201335145C0F2D2810331E5
:102BC00006A806EB0A0B06F0EDFC814620215A46CA
:102BD0000020FDF71FFD814505464BD0721D0821E1
:102BE00000200192FDF716FD019A002840F0C081F7
:102BF000AC4810F01DF98022002106A810F074F8EE
:102C000007EB080306AA18219B6800200133FDF793
:102C100039FD0023D9B201338A4500F3B78103316E
:102C200006A806F0BFFC81465A4620210020FDF789
:102C3000F1FC8145054640F0B08107EB08099A4850
:102C400010F0F6F82946994810F056F8D9F808100F
:102C5000974810F051F8D9F8081096480131C9F892
:102C6000081010F049F81822934B02FB0433D9F8EE
:102C700008209A60009A0021904B4FF0300ADFF84C
:102C8000689243F824208E4B43F8242001228D4B78
:102C90001A5504EB4413402209EB4303184610F085
:102CA00023F8029A31460FF0F7FFBDF80830721C86
:102CB000102105934223002003FB0499059BA9F8EA
:102CC0004030DFF82892FDF7A5FC81B20AFB049A98
:102CD000AAF828007C4810F00FF8F21C1021002000
:102CE000FDF798FCAAF8260081B207EB080A77489E
:102CF00010F002F8721D08210020FDF78BFCB21DB8
:102D00008AF8020008210020FDF784FCC0B28AF88E
:102D10000100D8B96E4B6F4803EB8403D3F89C11C4
:102D20000FF0EAFFDAF80C106B480FF0E5FFDAF865
:102D30000C106A480131CAF80C100FF0DDFF1822A0
:102D40005D4B02FB0433DAF80C20DA60F21D082137
:102D5000002007EB080AFDF75DFC3023102106F187
:102D6000080203FB049989F802000020FDF752FCD9
:102D700044491FFA80F94448AAF80490FDF760FA24
:102D800018B949F00809AAF80490B844B8F8043012
:102D90009B0640F11B814FF00609DFF854A106F1B4
:102DA0000A02082109FB04F90020FDF733FC06F1B3
:102DB0000B020AEB0908082188F805000020FDF73E
:102DC00029FC06F10C02082188F804000020FDF718
:102DD00021FC06F10D02082188F803000020FDF710
:102DE00019FC06F10E0208210AF809000020FDF77F
:102DF00011FC06F10F02082188F801000020FDF700
:102E000009FC88F802002046FFF70EFC344B00282E
:102E100000F0DA8000224FF0100A1A5507EB041771
:102E2000DFF8C8904FF0300806EB0A02BB88082193
:102E300008FB0498002003F008030AF1020703933B
:102E4000FDF7E8FBC1B288F8030026480FF054FFF5
:102E50000AF10102082100203244FDF7DBFB98F85B
:102E6000033088F804004FF0000813F0070F4FEA12
:102E7000D30314BF0133DBB2019304EB440339E005
:102E800084120020734A0108E50900206412002022
:102E900000FFFF00F0A30020C2460108E146010840
:102EA000074701082D470108225401086947010816
:102EB000395401089F470108E41D002040160020F6
:102EC00068160020221A0020034801080A48010859
:102ED000E409002087540108C9540108D9540108A5
:102EE000590D0020E85401085C1300200C1000204C
:102EF000A00D0020BDF804A04FEA031B0BF1050351
:102F00009944CDF810901FFA88F317FA88F29A4581
:102F100092B25ED857440A20DFF88083BBB2049394
:102F20000FF002FFC44B234493F82D30022B08D13D
:102F30003023C24803FB0483597901F001010FF0EB
:102F4000DBFE0BF115074FF0300B4FF0000A474442
:102F5000DFF848830BFB048B55E007EB08039B6805
:102F60001FE601F19802715C6A4402F87D1C21E6BB
:102F700008210020FDF74EFB01283FF439AEAE4A90
:102F8000AF4802EB8404D4F89C110CE001F19802E4
:102F9000715C6A4402F87D1C3CE6A74AA94802EB32
:102FA0008404D4F89C110FF0A7FE2946A6480FF020
:102FB000A3FE4946A5480FF09FFE27B0BDEC028B4B
:102FC000BDE8F08F054655E6012224E74FF00A0AD6
:102FD00024E7324408210020FDF71CFB049BC2B209
:102FE000414603F8010B08F10108994804930FF0DA
:102FF00083FE88E70AF1010A324408210020FDF728
:1030000009FB07F8010B1FFA8AF3049A9BF80410D6
:1030100012FA8AF2994292B2ECD818EE101A2046AF
:10302000FFF720F88B4B01228B4F1A5503EB8403DB
:10303000009ADA60182303FB04731B79012B11D16A
:10304000864B4622002118460FF04EFE059A04805A
:10305000314682800630029A0FF01EFE4FF4017056
:1030600004F0BAFB744B234493F82D30022B00F08C
:10307000AF80039B1E1E18BF012604EB8403DFF8FC
:103080002082102200219B0003F1010B029308EB28
:103090000B0A50460FF028FE019A494650460FF0A1
:1030A000FBFD5146019A002006F00AFA1422019B0A
:1030B0006243DFF8F0A108EB020108F802404B740C
:1030C0004882029B002E41D00AEB0B0910220021FE
:1030D000019348460FF008FE019B0AEB03024344AC
:1030E000114603F1140053F804CB834241F804CB9A
:1030F000F9D15B4B009943F82410142303FB04A37C
:10310000598A584B33F8140088421FD023F8141002
:103110001346554A03F1140153F8040B8B4242F84D
:10312000040BF9D14FF4027004F056FB4F4B33F807
:1031300014305BB94E4B09F1100203EB0413023358
:1031400059F8041B914543F8041BF9D118234FF09B
:103150001409634309FB04A907EB0308FC5401238A
:10316000B9F81220C8F8145088F8013004EB440371
:10317000A8F80620022207EBC30788F8026088F847
:1031800005203C4D0FCF0FC597E8030085E80300ED
:1031900040F20220002504F01FFB374B009A37490C
:1031A00043F824200C23364A88F80150002E00F002
:1031B0008480009D03FB04223248556040F824506F
:1031C00056700E554FF480712F4809F08EFFF4E6CB
:1031D000302303FB048898F8056016F001060DD132
:1031E0002A480FF025FE2A4B0122314648461A553F
:1031F0001022284B1E550FF077FD3EE7039B002B56
:1032000059D0DFF88CA01AF80480B8F1010F7FF4D0
:1032100034AF204E2048315D0131C9B231550FF035
:103220006BFD335D032B3FD900230AF804300423E0
:103230003355464621E700BFE4090020FC5401084D
:103240007354010856540108E5470108F447010882
:10325000EF540108341D0020E41D0020E81E00206A
:1032600090160020FC190020D41E0020AC1700206E
:103270002E1F0020C81D00200C1D0020021D002054
:10328000EC110020B8160020001C02401255010865
:10329000450D002051130020225501080C1000207C
:1032A000641A0020E416002010220021484600265F
:1032B0000FF01AFDE1E6039EDFE60D550AEB0B0069
:1032C00003FB0424009B10222946A36065700FF0C5
:1032D0000BFDA9F8125075E72DE9F04F4FF00009EA
:1032E0001446054624228A464946D64F4FEA04181A
:1032F0002DED028B8DB008EE103A03A8CDF80890A2
:103300000FF0F2FC08F014FCCF490090CF48FCF716
:1033100097FF002800F01882CD4B1A68D10740F1C2
:10332000E0811B79A34240F0DC814FF6FF76C9486B
:103330000BF048F8B0FBF6F6C6EB0646861BC6480F
:103340000FF076FD07EB0803C44899680FF0D4FC32
:103350003146C3480FF0D0FC334602AA18210020A2
:10336000AAF1050AFDF78EF90023D9B201335145C0
:10337000C0F2BB81033102A806F014F9834605EBC5
:103380000A0220210020FDF745F98345064647D073
:103390006A1D08210020DFF80493FDF73BF904F1D2
:1033A0006603C0B2012800F2C28109EB8303AD4875
:1033B00059680FF0A1FC2822002102A80FF094FC0C
:1033C00007EB080302AA18219B6800200133FDF7D0
:1033D00059F90023D9B201338A4500F38D810331B5
:1033E00002A806F0DFF88642824640F08C8107EBA7
:1033F00008099D480FF01CFD9C48D9F808100FF0F3
:103400007BFCD9F808109A480131C9F808100FF070
:1034100073FC1822974B02FB0433D9F808209A60FA
:10342000DFF87C924FF00C0A6A1C10210AFB049A08
:103430000020FDF7EFF807EB080BAAF80600EA1CDE
:1034400010210020FDF7E6F86A1DAAF80400082103
:103450000020DFF848A2FDF7DDF8AA1D8BF8020076
:1034600008210020FDF7D6F8C0B28BF80100D0B9D2
:103470000AEB84038048D3F89C110FF03DFCDBF885
:103480000C107E480FF038FCDBF80C107C48013142
:10349000CBF80C100FF030FC1822764B02FB0433F3
:1034A000DBF80C20DA60EA1D0821002007EB080B8E
:1034B000FDF7B0F80C23102105F1080203FB049975
:1034C00089F802000020FDF7A5F85F491FFA80F98E
:1034D0005E48ABF80490FCF7B3FE18B949F0080950
:1034E000ABF8049007EB08039B889A0640D505F1DA
:1034F0000A0208210020DFF8ACB1FDF78BF80623A3
:1035000005F10B02082163430BEB0309019389F8D2
:1035100005000020FDF77EF805F10C02082189F86E
:1035200004000020FDF776F805F10D02082189F866
:1035300003000020FDF76EF8019B05F10E02082143
:103540000BF803000020FDF765F805F10F020821D4
:1035500089F801000020FDF75DF889F80200204697
:10356000FFF762F8474B002800F0F08000221A5560
:10357000474418EE101A20463E4DBF884FF01808F9
:10358000FEF7E0FB009A404B08FB045807F00807E1
:10359000DFF8149143F824203C4BD8F8100043F88E
:1035A000242003F0EBFD0AEB0403C8F8100093F8A5
:1035B0002D30022B40F0E280354BDFF8F0801A5DB1
:1035C000DFF8ECB0032A00F2C380302303FB04834E
:1035D0005B79DB0700F1BC801BF80430012B40F065
:1035E000B780002718234FF0140ADFF8C8C06343E0
:1035F0000AFB049B05EB0308EC54BBF8122004EB18
:103600004403C8F814600126A8F8062005EBC3059A
:10361000042288F8016088F8027088F805200FCD30
:10362000ACE80F0095E8030000258CE8030040F2A9
:10363000022004F0D1F8174B009A174943F82420D0
:103640000C2239E084120020734A0108E5090020A9
:1036500064120020F0A30020C3460108345501087D
:103660000747010858550108225401087C550108F4
:1036700093550108E41D002087540108DF55010817
:10368000EA550108590D0020401600206816002058
:10369000511300200C1D0020021D0020E409002011
:1036A000940F0020A00D0020E41600200C10002034
:1036B000450D0020C81D00205D4B88F80150002FEB
:1036C00000F0A680009D02FB04335A485D6040F87C
:1036D00024505F700F554FF48071574809F005FD75
:1036E00020E007EB08039B6837E601F13002695CD4
:1036F0006A4402F8251C38E601F13002695C6A442C
:1037000002F8251C66E609EB84044C48D4F89C11A9
:103710000FF0F2FA31464A480FF0EEFA51464948A6
:103720000FF0EAFA0DB0BDEC028BBDE8F08F09EBAB
:1037300083094548D9F804100FF0DEFA31464048B5
:103740000FF0DAFA5946EAE7064669E601220EE783
:103750000AEB840A3D48DAF89C110FF0CDFA1BF809
:1037600004103B480FF0C8FA30233A4803FB0488A2
:1037700098F8051001F001010FF0BEFA002F3FF498
:1037800030AF04EB840200214FEA8208102208F1D6
:10379000010009EB000738460FF0A6FA2E4A09EBA4
:1037A00008034244194602F1140052F804CB824245
:1037B00041F804CBF9D1142202FB0492518A274A22
:1037C00032F81400884201D101270BE722F81410C7
:1037D00003F11401224A53F8040B8B4242F8040B04
:1037E000F9D14FF4027003F0F7FF1E4B33F8143099
:1037F000002BE9D11C4B384607F1100203EB0413F0
:10380000023350F8041B904243F8041BF9D1DBE764
:1038100002FB04331AFB0460009A0D5548449A6079
:10382000294610225D700FF05FFAABF8125052E794
:10383000EC110020B8160020001C0240AB55010816
:10384000E5470108F4470108C9550108F555010885
:103850000256010817560108641A0020FC190020BE
:10386000D41E0020AC1700202E1F00202DE9F04FA1
:103870000F4605461446053F2DED028B83B008EE3A
:10388000103A08F055F90646B9B2284605F08AFE06
:103890008146EA1920210020C24FFCF7BBFE81457A
:1038A000804613D007EB8404BF48D4F89C110FF076
:1038B00023FA4146BD480FF01FFA4946BC4803B001
:1038C000BDEC028BBDE8F04F0FF016BAB94B6A1C85
:1038D0001021002043F824604FF00C0AB64BDFF8AB
:1038E0002CB343F82460FCF795FEB44BEA1C10217E
:1038F0000AFB043A0BEB0419AAF806000020FCF7B7
:1039000089FE6A1DAAF8040008210020FCF782FE47
:10391000AA1D2301082189F8020000200193FCF769
:1039200079FEEA1D082189F801000020FCF772FEEB
:1039300010218AF8020005F108020020FCF76AFE57
:103940009F491FFA80FA781CA9F804A0FCF778FCBC
:1039500018B94AF0080AA9F804A023015B449B881F
:103960009A063FD54FF0060A05F10A020821002009
:10397000FCF750FE0AFB04FA924B05F10B020821FA
:1039800003EB0A0989F805000020FCF743FE05F166
:103990000C02082189F804000020FCF73BFE05F129
:1039A0000D02082189F803000020FCF733FE854B47
:1039B00005F10E02082103F80A000020FCF72AFE98
:1039C00005F10F02082189F801000020FCF722FE12
:1039D00089F802002046FEF727FE7B4B002864D0C2
:1039E00000221A55230118EE101A20460FFA84F906
:1039F0005B449D88FEF7A6F93B1905F0080593F88E
:103A00002D30022B68D1714BDFF804A21A5DDFF86C
:103A100004B2032A4BD8302303FB04A35B79DB07F2
:103A200045D41BF80430012B41D100271823684DE1
:103A300009EB490906226343DFF8DCC105EB030A01
:103A4000EC5405EBC905CAF814804FF001088AF858
:103A500005208AF801808AF802700FCDACE80F00CB
:103A600095E8030000258CE8030040F2022003F0F3
:103A7000B3FE584B584A43F824608AF80150574B1C
:103A8000002F7BD017550C22554902FB043341F817
:103A900024605F705E604FF48071524803B0BDECEB
:103AA000028BBDE8F04F09F020BB012299E707EB3C
:103AB00084074D48D7F89C110FF01EF91BF804102D
:103AC0004A480FF019F93023494803FB04A35979F8
:103AD00001F001010FF010F9002DA6D009EB8902C9
:103AE000444F00214FEA820A10220AF101003D18DA
:103AF00028460FF0F9F8404A07EB0A0352441946EA
:103B000002F1140052F804CB824241F804CBF9D1FF
:103B1000142202FB0472518A384A32F81400884297
:103B200001D1012782E722F8141003F11401344A6D
:103B300053F8040B8B4242F8040BF9D14FF4027096
:103B400003F04AFE1822224B02FB0433142202FB2C
:103B500004777A8ADA802B4B33F81430002BE0D1CB
:103B6000294B284605F1100203EB0413023350F8E9
:103B7000041B904243F8041BF9D1D2E715550C22DF
:103B80001427294602FB0433102217FB04809E6091
:103B9000184E5D7007FB046430440FF0A5F8658291
:103BA00079E700BFE409002025560108E547010830
:103BB000F447010840160020681600201C0F002062
:103BC000734A0108A00D0020590D00205113002058
:103BD000E41D00200C1D0020021D0020EC1100201F
:103BE000B8160020001C0240F555010802560108D5
:103BF00017560108E4160020641A0020FC19002062
:103C0000D41E0020AC1700202E1F0020841200209C
:103C10000C100020450D0020C81D00202DE9F843A0
:103C20000026154FDFF85490DFF85480F4B297F86F
:103C30002030A34201D8BDE8F8830C252046FDF7CB
:103C400019FA05FB0495686803F098FA04F18A03F1
:103C500057F8233098420DD96B78012B0AD158F8C8
:103C600024206B689A4205D000236B7007F060FF38
:103C700048F824000136D9E7E4090020EC110020BF
:103C80005C1900202DE9F74F42494348FCF7D8FA68
:103C9000002878D103B0BDE8F08F002955D100226B
:103CA00023F8142007F044FF49F8240008F1010824
:103CB00097F820305FFA88F4A342EBD93B1993F8C8
:103CC0002D30012BF2D059F8240003F057FA41F2BD
:103CD0008733984204D9314B33F81430012BE1D1AA
:103CE000DFF8DCB0DFF8DCA01BF804302C4E012B31
:103CF0000ED12C4B1B5D5BB914236343F218534464
:103D000002F1140152F8040B8A4243F8040BF9D172
:103D1000142565430AEB05023544518A6B8A0192EA
:103D200099422ED0204B53F8240003F027FAB0F527
:103D30007A7FBBD3019A0121184B528A23F81410C1
:103D4000698A002AA9D10029A9D1164B14251BF88C
:103D50000420195D654315480EF0CEFFAA4407EB19
:103D600084032E441248D3F89C110EF0C5FFBAF814
:103D7000121010480EF0C0FF718A0F480EF0BCFF01
:103D800090E7064B8BE74FF000080C4FDFF83890B8
:103D90008EE700BF734A0108E5090020AC17002038
:103DA0001C180020021D0020901600204356010818
:103DB0004E5601085856010866560108E4090020CD
:103DC000E8170020E4160020640D002070B50446BA
:103DD000184E07F0ADFE18230546174803FB046391
:103DE0009A78164B012A12D11549025541F82450F0
:103DF0000C2101FB04335D605A70182303FB046639
:103E00007378012B04BF0F4B43F8245070BD0C2274
:103E1000002102FB043301559D600B4859701423A7
:103E200003FB040210465182102201300EF05CFFA9
:103E3000E3E700BF2C1B0020E8170020E418002057
:103E4000C0170020F41700201C180020084B034462
:103E500010B593F82D300446022B04D0FDF79CF8E2
:103E60002046FDF707F92046BDE81040FFF7AEBF3A
:103E7000E40900202DE9F74F06460F4607F058FEEB
:103E80008F4B80461B78DBB18E4DF21C1021002039
:103E9000FCF7C0FB95F820101FFA80FA05F5CE72EA
:103EA00000235FFA83F949451CD8874B1B78012B07
:103EB00015D15146854803B0BDE8F04F0EF01CBF48
:103EC00007F036FE42F20F739842DDD980480EF0BB
:103ED000AFFF80498048FCF7B3F90028D4D003B085
:103EE000BDE8F08F52F8040B1C4601335045D8D181
:103EF00004F1700B1021721C002005EB8B0BFCF7FA
:103F000089FBDBF8043081B28B4210D073480191F9
:103F10000EF08EFF019972480EF0EEFEDBF80420E1
:103F20005146704803B0BDE8F04F0EF0E5BE6E4B51
:103F30001A68D2061ED51B794B451BD16B480191DF
:103F40000EF076FF01996A480EF0D6FE40F24D1150
:103F5000684895F820A00EF0CFFE40F24D1195F87C
:103F60002030534508D8644801910EF061FF019953
:103F70006248A0E7CA46F2E7534BDFF8C0B11B78AE
:103F8000012B0FD11BF80410012908D0022964D09D
:103F90002B1993F82D30022B61D1594800E0594874
:103FA0000EF046FF584B1BF8042053F824109142A2
:103FB0000AD05649564841F82480564943F82420EF
:103FC00041F824800EF034FF1BF80420524BDFF838
:103FD00070B11A555BF8240003F0D0F804F18A039D
:103FE00055F8233098420ED3484B05EB84054B48D7
:103FF00043F82480474BD5F89C114BF8248043F8B4
:1040000024800EF079FE464B812200214BF824805B
:1040100018460EF069FE3A46FFB231460EF03CFEFD
:104020000821F21D80F880700020FCF7F3FA1822B6
:104030003C4B0546484602FB04330122DA703A4BFA
:1040400043F82480FFF702FFE9B24B1E052B34D85A
:10405000DFE803F009121B21332A3448A0E7344873
:104060000EF04AFE9EE753464A463946304603B0B4
:10407000BDE8F04FFEF728BB53464A463946304666
:1040800003B0BDE8F04FFEF74BBD2A4803B0BDE8D2
:10409000F04F0EF0CDBE53464A463946304603B087
:1040A000BDE8F04FFFF718B953464A463946304647
:1040B00003B0BDE8F04FFFF7D9BB1F48FBE600BFD8
:1040C00000000020E4090020DE090020B5560108A8
:1040D00075560108734A0108E5090020F1560108E8
:1040E0000D5701082F570108641200206757010877
:1040F0008857010896570108A4570108D8570108A6
:1041000013580108F5570108AC190020401600208B
:104110004958010868160020381300205F5801082C
:104120001C1C0020E41D0020181600200458010863
:10413000285801087B5801089C5801082C1A0020B7
:104140008419002070B50024A0B00D467C220646DC
:10415000214601A80094ADB20EF0C6FD22462346CA
:104160009D4291B204D86846FFF784FE20B070BD2E
:10417000F15C20A8F02910FA82F002F1010202BFDE
:1041800001339BB2F15C03F1010308BF61F00F0141
:104190009BB200F8801CE3E710B50024A0B07C229D
:1041A000214601A800940EF09FFD03F04BF908B9D9
:1041B00020B010BD03F052F9F42802D0F62809D03F
:1041C00094B104F18002631C0DEB020404F8800C2E
:1041D000DCB2EAE7611C04F1800311F0FF010DEB92
:1041E000030404F8800C01D10024DEE70F29DFD995
:1041F0006846FFF7A7FFDBE710B50024A0B07C22DC
:10420000214601A800940EF06FFD1B4B93F822305D
:104210009BB11A4B186802F0B1FF13280DD9032087
:1042200007F094FA48B1032007F0A4FA7E2C06D9CF
:104230008022214612480EF05FFD20B010BDF42808
:1042400003D0F6280AD0002CE9D004F18002631CC8
:104250000DEB020404F8800CDCB2E0E7611C04F111
:104260008003C9B20DEB03040F2904F8800CE4D9D4
:104270006846FFF767FFE0E7E409002080B100200F
:10428000B85801082DE9F84F26492748FBF7D8FF11
:10429000002840D1BDE8F88F58F8240002F06EFFE6
:1042A00004F19E0356F8233098422DD958F8243053
:1042B00059F824209A4227D04FF0140A49F82430A4
:1042C00006EB840319480AFB04FA194DD3F89C1134
:1042D0004FF0000B0EF010FD0AF10100154B1022FB
:1042E00028445544594603F804B00EF0FDFCA5F8E7
:1042F00012B01823104D03FB0455286902F03EFF4D
:1043000028612046FFF762FD0137FCB296F82030A5
:10431000A342C1D8BEE70027084EDFF82480DFF8AB
:104320002490F2E7734A0108E5090020E1580108EA
:10433000E4160020021D0020E41D0020E4090020F6
:10434000B8160020D419002038B5134D286802F0A3
:1043500015FFB0F57A7F1ED9104C1421104B22683E
:1043600001FB02330F4A591853F8040B8B4242F8F1
:10437000040BF9D14FF4027003F02EFA23680A4AB5
:10438000013392F820202360934204BF002323606E
:1043900007F0CEFB286038BD601A0020E01D002029
:1043A000E4160020D41E0020E40900201C4D1D4C02
:1043B00008B50BF04DFB284609F04BFA05F0A6FABC
:1043C00003F05CFCFCF762FAFFF7E6FEFFF714FF70
:1043D000FCF782FFFCF7F2FEFCF72AFFFFF752FF23
:1043E000FFF71CFCFEF7A2F8FEF746F8FEF7D6F83A
:1043F00001F01AFAFFF746FCFFF7A6FF06F088FE69
:1044000023784BB1084B0322054C1A7006F000FECE
:10441000204609F01EFAF9E707F034FAC9E700BFB1
:10442000789B0020DD0900203E0D0020154B5A6FBF
:10443000002A1ADB5A6F520019D45A6F910018D40F
:104440005A6FD20017D45A6F110116D45A6F520105
:1044500015D45B6F13F0007F14BF07200020094ABA
:10446000536F43F08073536770470120F7E70220D2
:10447000F5E70320F3E70420F1E70520EFE7062046
:10448000EDE700BF0038024007289ABF024B53F8FF
:1044900020000248704700BFBC59010801590108BB
:1044A0002DE9F0411A4CA06802F068FE194BD3F8D0
:1044B0003423904229D3D3F828331427164EC3F35C
:1044C000CF055B07DFF858801CBF0135ADB207F0A0
:1044D0002FFBA060002411480EF0AAFCAC4204D3CC
:1044E0000A20BDE8F0410EF01FBC3CB1B4FBF7F36D
:1044F00007FB134313B90A200EF016FC16F8011B34
:10450000404601340EF0F8FBE8E7BDE8F08100BF5B
:10451000F4250020E409002006260020DC590108CB
:10452000F6540108F8B54A4C606802F027FE494984
:1045300006464948FBF784FE002800F08780474D77
:10454000B5F82633D5F82C2353439E420AD3444B67
:1045500062681B689A4205D0424B5A7895F821331D
:104560009A4207D82378002B35D03F4BD3F88030C0
:10457000002B30D021783D480EF0BEFB23783A481E
:10458000D9074FF0000144BF23F0010323702378C3
:104590009A074FF0840244BF23F0020323700EF009
:1045A000A3FB3222002132480EF09EFB8422002120
:1045B00030480EF099FB00232F4A3048C2E90033FF
:1045C000284AC2E900332E4AC2E900330EF030FC1B
:1045D0006268234B1A602B4E306802F0CFFDD5F88D
:1045E0003C33984223D9284F3B78012B1FD100241C
:1045F00026480EF01DFC842221461B483C700EF01C
:1046000073FB322221461A480EF06EFB84222146AB
:1046100018480EF069FB184B1848C3E90044114BC9
:10462000C3E90044164BC3E900440EF001FC3068B6
:1046300002F0A4FDD5F83C33984207D2124B1B7808
:10464000012B03D1BDE8F84005F076B9F8BD00BFF5
:10465000F4250020734A0108E5090020E409002040
:10466000BC230020BC2600204C240020F059010867
:104670000426002038260020C4260020205A0108E5
:10468000CC260020C023002048240020375A0108EF
:1046900038B51B4C1B4D606802F070FDB5F8263331
:1046A000D5F82C235343984204D3174B1A780AB1F8
:1046B00000221A70606802F061FDD5F83833984224
:1046C0000BD9124B626819688A4206D01A6040F210
:1046D0000220BDE8384003F07FB80D4D286802F095
:1046E0004DFDB0F57A7F09D9606802F047FDB0F55D
:1046F000FA6F03D907F01CFA2860E8E738BD00BF5D
:10470000F4250020E4090020C4260020E026002033
:10471000E4260020F8B561496148FBF791FD0028C7
:1047200037D0604C604D20682B6898420AD007F063
:10473000FFF920605D4C5E4A23785BBB137803F081
:10474000FE032AE002F01AFDB0F57A7FEFD2286866
:1047500002F014FD574BD3F83C33984219D9564B0D
:1047600028681A68824214D0186002F007FD4FF4DE
:104770007A71B0FBF1F151480EF0BEFA2968504849
:104780000EF0BAFA4F4A137899075CBF43F0020360
:104790001370F8BD137843F001034B4E317841B1EB
:1047A00043F002031370032B33D8DFE803F0744E99
:1047B000056D03F0FD03F5E7616873688B423CD03B
:1047C000424F3B78012B24D141480EF095FA716895
:1047D00040480EF091FA00233F483B700EF028FB52
:1047E00084223E493E480EF057FA3D4B3D4A03F1C4
:1047F000300C1F461E46083203CE664542F8080CB0
:1048000042F8041C3346F5D133881380D7F8803042
:104810006360284B627893F821339A4297D3294FEB
:104820003B7813F0010692D12F480EF001FB3B7844
:10483000667043F001033B7089E70023214A6370EF
:10484000137823F001031370E3E7726863689A42F8
:1048500012D026480EF0ECFA63780133DBB2022B5B
:104860006370D6D91E4BD3F88030002BD1D04FF4D3
:10487000027002F0B1FFCCE7124A137823F0010373
:10488000137000236370C4E7726863689A42F3D0C0
:1048900016480EF0CDFA63780133F3E7734A010846
:1048A000E5090020D4260020C0230020C4260020D3
:1048B000B9230020E4090020D82600207F4A0108FF
:1048C000F05A0108F4250020BC260020DC26002038
:1048D000545A01086B5A0108825A0108C423002067
:1048E0004C24002004260020D95A0108B55A01089A
:1048F00038B5204D204C28460EF09AFAB4F8221311
:104900001E480EF0F9F9B4F824131D480EF0F4F91E
:1049100094F820131B480EF0EFF9D4F830131A481E
:104920000EF0EAF9D4F8381318480EF0E5F9D4F887
:104930003C1317480EF0E0F994F8211315480EF0D7
:10494000DBF9D4F8281314480EF0D6F9D4F82C1358
:1049500012480EF0D1F9B4F8261311480EF0CCF934
:10496000D4F834130F480EF0C7F92846BDE8384094
:104970000EF05EBA514F0108E4090020165B0108F1
:10498000395B01085C5B01087F5B0108A35B0108E0
:10499000C75B0108EB5B01080E5C0108325C010893
:1049A000565C0108795C010810B52423104C1149AC
:1049B0002370012304F1320063703023A37040237D
:1049C000E370C02323714E2363712623A3710EF07D
:1049D0006AFB094904F164000EF065FB074904F124
:1049E00096000EF060FB064B04221A7010BD00BF4B
:1049F000D11F0020044501086845010872450108DF
:104A0000D01F00200D4B2DE9F041074693F80080A0
:104A10000B4C0026F5B2A84501D8FF250BE0204637
:104A20000136FBF717FC21460246384632340EF0B9
:104A300023F90028EED12846BDE8F081D01F0020E0
:104A4000D11F002030B500259BB06022294602A866
:104A500001950EF049F9664B186802F08FFB0928A2
:104A60000AD81BB030BD002006F084FE04F16803B4
:104A70000DEB030404F8640C0020ECB206F066FEB3
:104A800001350028EFD1002CEBD004F1680301A917
:104A90006B4403F8640C57480EF02EF9214601A828
:104AA000FFF7B0FF0C2800F2A080DFE800F0070E4F
:104AB0002A37424C56606A747E8994004E4B01221C
:104AC0004E481A700EF0B4F9CBE704F167034C4975
:104AD0004C480DEB030414F8642C303A0EF00CF93A
:104AE00014F8643C303BDBB2022B06D8464A137004
:104AF00040F2052002F070FEB3E744480EF098F94A
:104B0000F6E7434943480EF0F7F843480EF090F9B2
:104B1000424A136843F001031360E9E740493D4806
:104B20000EF0EAF83F480EF083F93C4B02221A607F
:104B3000DEE73D4937480EF0DFF83C480EF078F9E3
:104B4000364B0422F3E73A4932480EF0D5F839489B
:104B50000EF06EF9314B0822E9E737492D480EF087
:104B6000CBF836480EF064F92C4B1022DFE73449BD
:104B700028480EF0C1F833480EF05AF9274B20228E
:104B8000D5E7314931480EF0B7F831480EF050F909
:104B9000224B4022CBE72F491E480EF0ADF82E489D
:104BA0000EF046F91D4B8022C1E72C4919480EF042
:104BB000A3F82B480EF03CF9184B4FF48072B6E77F
:104BC000284914480EF098F827480EF031F9134B95
:104BD0004FF40072ABE725490E480EF08DF82448DB
:104BE0000EF026F90D4B0022A1E708486AE700BF46
:104BF000FCAF002077450108DD0900208D45010844
:104C000003200020CD450108DE090020DF45010812
:104C1000352000205F460108926801088C3300208F
:104C20006720002010690108992000204E690108C2
:104C3000CB20002084690108FD200020BC69010808
:104C40002F210020B6660108612100206C46010872
:104C50009D5C010893210020B05C0108C521002063
:104C600024680108F7210020C85C010829220020DF
:104C7000E55C010830B50024064D824201D820468B
:104C800030BD0B5C01306340DBB255F8233083EA62
:104C90001424F2E7806001082DE9F0410027CCB030
:104CA00004464FF49472394602A80EF01DF801AD87
:104CB000264E532322460DF117002B7006F11801E2
:104CC0007388A5F80130B388A5F80330B3796B7108
:104CD000E223AB71B37A6B72D6F80B30CDF80E309D
:104CE000B6F80F30ADF81230737C8DF81430B38AFB
:104CF000A5F811300DF0D0FF04F11300224606F1A3
:104D00009801134E1FFA80F815FA80F00DF0C4FFD9
:104D1000294644443846A4B2E31E2F55A21C06344B
:104D2000A5F8073092B2A4B2FFF7A4FFA850BBB217
:104D30009C4202D84CB0BDE8F08115F8011B013748
:104D400096F8200306F03AFDF1E700BFD0240020DA
:104D5000E409002070B5FFF78DFF895804468842AA
:104D600008D005480DF0C8FF214604480DF0C4FFE7
:104D7000002070BD0120FCE7EF5C0108065D010822
:104D80002DE9F84381460F460026DFF8FC80394DB7
:104D9000484606F0DBFC0446002857D0484606F09B
:104DA000E9FC98F80030013B042BF1D801A252F83D
:104DB00023F000BFC94D0008D94D0008914D0008EF
:104DC000F14D00080F4E00085328E1D101232B803C
:104DD000022388F80030DBE72B88082B04D1092355
:104DE00038722B800423F4E7F85401332B80CFE78B
:104DF0002B880121FA1832F8026C1F4AF8540B4430
:104E0000118002222B801D4B1A800523E1E71A4AEC
:104E10002C8813883855B34228D2013317499BB2E6
:104E20001380621CB3422A800A8802F101020A80C0
:104E3000AED1033C00260123A4B22E8088F80030B6
:104E4000042C06D834460E480DF0F2FF2046BDE88B
:104E5000F883224639463046FFF77CFF0546002896
:104E6000F4D108482C460DF0E3FFEFE700260123BC
:104E70002E80AEE7EA260020E8260020EC2600205F
:104E80001E5D0108245D01080B0000202DE9F04F94
:104E90000024ADF53D7D4FF494729B4F214672A8DE
:104EA00071940DF021FF7C22214609A808940DF091
:104EB0001BFF4FF4967271A997F82003FFF760FF6C
:104EC0000528054659D94FF48071904871AEDFF836
:104ED0006C924FF00A0808F008F98D480DF0A8FF11
:104EE000013416F8011B4846A4B20DF005FFA54297
:104EF00038D10A200DF018FF4FF49272002128A833
:104F00000DF0F2FE9DF8C431BDF8C5818DF8A030DA
:104F1000B7F82433ADF8A480434534D1BDF8C79128
:104F2000B7F82233ADF8A2904B450DD079480DF07B
:104F30007FFFB7F822134A4677480DF0DDFE774928
:104F40007748FBF77DF9D0B99DF8C961AA2E8DF895
:104F5000A66028D19DF8CA11E1298DF8A71029D0A3
:104F6000704824E0B4FBF8F308FB13439BB2002B1A
:104F7000B6D10A200DF0D8FEB2E70028BCD10DF55D
:104F80003D7DBDE8F08F68480DF052FFB7F824135F
:104F9000424661480DF0B0FE60496148FBF750F9A8
:104FA0000028BBD0EBE7BB2ED4D031465F480DF0D4
:104FB000A3FEE4E7BDF8CB319DF8D5110593ADF81C
:104FC000A83011299DF8CD318DF8B21006938DF8D7
:104FD000AA30DDF8CE31CDF8AB30BDF8D231ADF826
:104FE000AF309DF8D4318DF8B13001D05048DEE7B4
:104FF000BDF8D631ADF8B4302D9DB5F5806F02D92E
:1050000029464C48D3E7D7F82843A5420CD043495A
:105010004348FBF715F928B12A46214646480DF0CA
:105020006BFEACE7C7F828536B07C5F3CF0408AF96
:1050300076A918BF01342EA818BFA4B222460DF0DD
:105040002BFE76AB3846002291B28C4231D86300F9
:1050500004F114020DF59C7A0DF5E27E9BB292B23A
:10506000D44603F1150080B2511C89B2884227D181
:1050700003F1140B224608A94EA804931FFA8BFBD8
:105080000DF0FAFD049B079070B300252B4E2C48C1
:105090000DF0CEFEABB29C4218D80025274E294811
:1050A0000DF0C6FEABB29C4217D827480DF0C0FEEB
:1050B00065E713F8011B0132C94300F8011BC3E780
:1050C0001EF802200CF8012B0A46CDE71AF8011B46
:1050D000304601350DF010FEDCE717F8011B3046B5
:1050E00001350DF009FEDDE771A95A46122004933F
:1050F000FFF7C0FD51F80B200746049B90426E92CB
:1051000026D0014611488AE7E4090020001C02402D
:105110002C5D0108895D0108685D0108734A01087A
:10512000E5090020EC5D0108365D0108B65D010867
:10513000215E0108655E0108B65E0108F6540108AB
:10514000F05E01083C5F01085F5F0108705F0108C5
:105150001833DFF89CB1DFF89CA19BB2CB5AADF8B5
:10516000BC3106F0E5FC28A94FF49272CAF804009D
:1051700058460DF091FD4C4B012220465F604B4F8D
:105180001A70FFF789FD22462EA938460DF084FDDE
:10519000DBF81831DFF860B12246394604935846EF
:1051A000C7F880300DF068FD18B3224639465846DE
:1051B0000DF072FD049B302207993D48CBF88030FA
:1051C0000DF092FD2246394639480DF065FD06F096
:1051D000AFFCCAF8080037480DF02AFE40F2022062
:1051E00002F0FAFA344B5B681BB94FF4027002F01C
:1051F000F3FA32480DF01CFE414631480DF07CFDBB
:10520000494630484FF000090DF076FD31462E48F2
:105210000A260DF071FDE1212C480DF06DFD059978
:105220002B480DF069FD06992A480DF065FD9DF8A3
:10523000B1309DF8AD2002939DF8B0309DF8AE10CE
:1052400001939DF8AF30244800939DF8AC300DF0E9
:1052500053FD112121480DF04FFD214F29462148D2
:10526000124D0DF049FDDFF894801F480DF044FD0C
:105270001FFA89F39C4204D80A200DF055FD1B4803
:1052800014E743B1B3FBF6F206FB12339BB213B93A
:1052900038460DF031FD15F8011B404609F10109B2
:1052A0000DF02AFDE4E700BFC42600204C240020B6
:1052B00006260020B05F0108BC260020C75F010859
:1052C000EE5F0108F65F0108FE5F01080760010854
:1052D00010600108186001082060010842600108A0
:1052E000686001084B60010854600108C85F01084C
:1052F000D0240020F425002038260020F654010890
:10530000134D144C08B505F003FF02F0B7FC04F090
:10531000FDFA284608F09DFAFFF7B8FDFFF7C0F840
:10532000FFF700F9FFF7B4F9FFF7F4F9FFF78AFB8D
:1053300023784BB1084B0322054C1A70204608F025
:1053400088FA05F065FEF9E706F09CFADBE700BF96
:10535000789B0020DD0900203E0D00202DE9F34759
:1053600007460C4690463B4EDFF80491FDB22846B6
:1053700006F0ECF948B34FF0010A374889F800A06D
:1053800008F067FA284606F0F5F9054606F07AFABD
:105390003278324B022A09D0032A51D0524547D1E4
:1053A000242D45D125701A8002223BE0242D36D0D1
:1053B000262D03D0052D37D1032233E01F8800228C
:1053C000BD1E1A802DB2954204DA0026304602B086
:1053D000BDE8F08705F1010886F800A0625D294666
:1053E00014F808301E48009343460DF085FC29460A
:1053F000204604F08BF8064638B114F808203EB277
:10540000615D18480DF078FCE0E717480DF074FC7A
:1054100014F80820615D15480DF06EFCD6E7257084
:10542000A3F800A0327003E01A88A55401321A8054
:105430001A8842459AD30122327000221A8093E7DB
:1054400005F0FD02242A01D0052DADD11A88A554FE
:105450000132A8E70D000020789B0020F0260020F4
:1054600080640108A5640108B7640108AC64010800
:10547000440D0020F0B5002385B0044640F2DB5611
:10548000ADF80C30154FCDE901338DF8061004212D
:1054900024238DF807200DEB01008DF8043004F073
:1054A00059F826239DF809209DF808100C488DF81E
:1054B0000A300DF021FC06F03BFB0546284601F0C2
:1054C0005DFEB04206D9062201A9204606F0A8F9E1
:1054D00005B0F0BD384608F0BCF9EFE7789B002036
:1054E000C164010830B585B000240A22054601A92F
:1054F000ADF80C40CDE90144FFF730FFA04216DDC6
:105500009DF80530F3B99DF80640012C12D19DF8A5
:105510000740012C16D10E480DF08AFC02222146CC
:105520002846FFF7A7FF06F003FB0A4B186020464A
:1055300005B030BD022C05D19DF80730012B01D1FB
:105540000548E9E7054800240DF072FCEFE700BFCD
:10555000DC640108400D0020F26401080A650108BE
:105560002DE9F84307460D469046344EDFF8E090AB
:10557000FCB2204606F0EAF828B3204606F0FAF816
:10558000044606F07FF9484608F063F932782C4B60
:10559000022A09D0032A47D0012A3DD1242C3BD12D
:1055A0002C701A80022231E0242C2CD0262C03D01F
:1055B000052C2DD1032229E01F880022BC1E1A8051
:1055C00024B2944203DA00263046BDE8F883012372
:1055D0002146284604F10108337003F097FF064680
:1055E00038B115F808203EB2295D16480DF084FB4D
:1055F000EAE715480DF080FB15F80820295D1348EF
:105600000DF07AFBE0E701212C701980327003E085
:105610001A88AC5401321A801A884245A8D3012254
:10562000327000221A80A1E704F0FD02242A01D082
:10563000052CB7D11A88AC540132B2E70C00002017
:10564000EE2600201A650108B7640108D26401083B
:10565000789B0020030900F00F0003EB830300EBAD
:105660004300C0B270470A22B0FBF2F302FB130002
:1056700000EB0310C0B27047064B5A79092A06D9CD
:10568000187928B1D878003818BF01207047002059
:10569000704700BFF22600202DE9F041072386B0B5
:1056A0004FF47A7100221E480492CDF81320CDE900
:1056B000013104ABD0210093012307F073FF9DF863
:1056C0001080184A4046FFF7C5FF9DF81170907092
:1056D0003846FFF7BFFF9DF8126050703046FFF765
:1056E000B9FF9DF8145010702846FFF7B3FF9DF8DE
:1056F0001540D0702046FFF7ADFF9DF816101071D1
:105700000846FFF7A7FF084B507183F802805F70CF
:105710001E70DD701C71597106B0BDE8F08100BFCC
:10572000D09A002002270020FC260020F0B587B088
:10573000002605AF0496ADF81460BE70FFF79CFF1D
:1057400020B935480DF074FB07B0F0BD3349012492
:10575000334B4FF47A7588781C70FFF784FF8DF80F
:1057600010004878FFF77FFF8DF811000878FFF7E9
:105770007AFF8DF81200C878FFF775FF8DF81300D7
:105780000879FFF770FF8DF814004879D021FFF7F2
:105790006AFF04AB32468DF815000093234621487A
:1057A000CDE9014507F024FE0DF111032246D02179
:1057B000009323461B48CDE9014507F019FE0DF182
:1057C00012030222D021009323461648CDE9014559
:1057D00007F00EFE0DF113030422D021009323469F
:1057E0001048CDE9014507F003FE23460522D021EC
:1057F00000970C48CDE9014507F0FAFD0DF11503BE
:105800000622D021009323460648CDE9014507F042
:10581000EFFDFFF741FF97E72B650108F226002017
:1058200050130020D09A002010B5064C206801F0DB
:10583000A5FCB0F57A7F04D3FFF72EFF06F078F9C8
:10584000206010BDF826002038B54B080138002430
:10585000023B9BB29D1CA2B2934201D801200BE0F7
:1058600010F8011F0134425DD243D2B29142F2D00E
:1058700002480DF041FA002038BD00BF4A6501081A
:10588000F0B5C900002506464FF0010C8CB22B463E
:105890002846A9B28C4200D8F0BDCF0801F007011C
:1058A000072913D0F75D47FA01F1C90744BF175C18
:1058B0000CFA03F103F1010348BF3943DBB248BFDF
:1058C0001154082B02BF0130002380B20135E0E7FC
:1058D000F8B52A4C2A4D606801F050FCD5F8183311
:1058E000984235D92188274E274FB1F5807F3378EC
:1058F0003A782ED1012B34D1012A2CD1234931F809
:10590000042B23480DF0C8F9D5F81C337A889A4245
:1059100008D37288934205D84FF4007200211C48C6
:105920000DF0E2F9B5F8FE221A49D30852071A4AD7
:1059300018BF013319481380FAF782FC28B1637845
:105940001BB940F2191001F047FF06F0F1F8606052
:10595000F8BD012B05D152B96378012B07D110494D
:10596000CDE7012A03D113B96378012BC6D04FF4D8
:105970000072002106480DF0B7F9C5E7182B00208A
:10598000E40900200A2B0020BE480020342B002010
:10599000C4480020734A0108C2480020E5090020DD
:1059A000382D002010B50A4CA06801F0E7FB094B28
:1059B000D3F80833984209D9074B002240F202205D
:1059C0005A7001F009FF06F0B3F8A06010BD00BFE7
:1059D000182B0020E4090020BE48002038B5114BE8
:1059E000114DD868114C60B101F0C8FBD5F81433E3
:1059F000984206D9237823B10D480DF019FA0023F7
:105A00002370D5F81C3362889A420AD9094A528811
:105A1000934206D2237823B107480DF009FA0023F8
:105A2000237038BD182B0020E4090020BE48002058
:105A30007F6501080A2B00209C65010810B5074C02
:105A4000206901F09BFBB0F57A7F06D94FF4027014
:105A500001F0C2FE06F06CF8206110BD182B00208A
:105A600010B5104C606901F089FBB0F5FA7F17D9C9
:105A70000D4B1B784BB90D4B1B78012B05D14FF407
:105A800001720B490B480DF007F9094B094A5B8875
:105A900052889B1A18BF0123237006F049F86061F1
:105AA00010BD00BF182B0020BE4800200A2B00208C
:105AB000382D0020342B002010B5114C6378012BB9
:105AC00001D103F039FFA06901F058FB0D4BD3F869
:105AD0000C33984212D30C4BA0691A6890420DD037
