:020000040800F2
:1000000000000820B1A60008A59F0008A79F0008CF
:10001000A99F0008AB9F0008AD9F000800000000EA
:10002000000000000000000000000000AF9F00087A
:10003000B19F000800000000B39F0008B59F0008B2
:1000400001A7000801A7000801A7000801A70008F0
:1000500001A7000801A70008B99F0008BF9F00087A
:1000600001A7000801A7000801A7000801A70008D0
:1000700001A7000801A7000801A7000801A70008C0
:1000800001A7000801A7000801A7000801A70008B0
:1000900001A7000801A7000801A7000801A70008A0
:1000A00001A7000801A7000801A7000801A7000890
:1000B00001A7000801A70008C59F000801A70008C4
:1000C00001A7000801A7000801A7000801A7000870
:1000D00001A70008D19F000801A7000801A7000898
:1000E00001A7000801A7000801A7000801A7000850
:1000F00001A7000801A7000801A7000801A7000840
:1001000001A7000801A70008DD9F000801A700085B
:10011000E99F0008F59F000801A000080DA0000855
:1001200001A7000801A7000801A7000801A700080F
:1001300001A7000819A0000801A7000801A70008EE
:1001400025A0000831A0000801A7000801A70008A9
:1001500001A7000801A7000801A7000801A70008DF
:1001600001A7000801A7000801A7000801A70008CF
:1001700001A7000801A7000801A70008000000006F
:1001800001A7000801A7000835A0000801A7000882
:1001900001A7000801A7000801A7000801A700089F
:1001A00001A7000801A7000801A7000801A700088F
:1001B00001A7000801A7000801A7000801A700087F
:1001C00001A7000801A7000801A7000801A700086F
:1001D00001A7000801A7000801A7000801A700085F
:1001E00001A7000841A000084DA0000801A70008D1
:0801F00001A7000801A70008A7
:1002000010B5054C237833B9044B13B10448AFF350
:1002100000800123237010BDD801002000000000E1
:100220004032010808B5034B1BB103490348AFF343
:10023000008008BD00000000DC0100204032010801
:1002400010F8012B11F8013B012A28BF9A42F7D080
:10025000D01A7047034613F8012B002AFBD1181A55
:10026000013870470000000000000000000000009E
:1002700001F0FF01102A2BDB10F0070F08D010F857
:10028000013B013A8B422DD010F0070F42B3F6D15B
:10029000F0B441EA012141EA014122F007047FF074
:1002A00000070023F0E80256083C85EA010586EACB
:1002B000010685FA47F5A3FA87F586FA47F6A5FA07
:1002C00087F68EB9EED1F0BC01F0FF0102F0070213
:1002D00032B110F8013B013A83EA010313B1F8D1BE
:1002E0000020704701387047002D06BF354603389F
:1002F000073815F0010F07D1013015F4807F02BFD8
:10030000013015F4C03F0130F0BC0138704700BF28
:1003100053B94AB9002908BF00281CBF4FF0FF316C
:100320004FF0FF3000F074B9ADF1080C6DE904CE68
:1003300000F006F8DDF804E0DDE9022304B07047C0
:100340002DE9F047089D04468E46002B4DD18A4288
:10035000944669D9B2FA82F252B101FA02F3C2F1BB
:10036000200120FA01F10CFA02FC41EA030E94404C
:100370004FEA1C48210CBEFBF8F61FFA8CF708FB6D
:1003800016E341EA034306FB07F199420AD91CEB45
:10039000030306F1FF3080F01F81994240F21C8177
:1003A000023E63445B1AA4B2B3FBF8F008FB1033BF
:1003B00044EA034400FB07F7A7420AD91CEB0404F4
:1003C00000F1FF3380F00A81A74240F207816444C4
:1003D000023840EA0640E41B00261DB1D440002349
:1003E000C5E900433146BDE8F0878B4209D9002DAD
:1003F00000F0EF800026C5E9000130463146BDE837
:10040000F087B3FA83F6002E4AD18B4202D38242A0
:1004100000F2F980841A61EB030301209E46002D4F
:10042000E0D0C5E9004EDDE702B9FFDEB2FA82F2A4
:10043000002A40F09280A1EB0C014FEA1C471FFA02
:100440008CFE0126200CB1FBF7F307FB131140EAE9
:1004500001410EFB03F0884208D91CEB010103F1B6
:10046000FF3802D2884200F2CB804346091AA4B278
:10047000B1FBF7F007FB101144EA01440EFB00FE4C
:10048000A64508D91CEB040400F1FF3102D2A645B1
:1004900000F2BB800846A4EB0E0440EA03409CE750
:1004A000C6F12007B34022FA07FC4CEA030C20FAFD
:1004B00007F401FA06F31C43F9404FEA1C4900FA1D
:1004C00006F3B1FBF9F8200C1FFA8CFE09FB18119A
:1004D00040EA014108FB0EF0884202FA06F20BD90D
:1004E0001CEB010108F1FF3A80F08880884240F25D
:1004F0008580A8F102086144091AA4B2B1FBF9F0A1
:1005000009FB101144EA014100FB0EFE8E4508D99B
:100510001CEB010100F1FF346CD28E456AD9023820
:10052000614440EA0840A0FB0294A1EB0E01A14205
:10053000C846A64656D353D05DB1B3EB080261EB73
:100540000E0101FA07F722FA06F3F1401F43C5E94D
:10055000007100263146BDE8F087C2F12003D84083
:100560000CFA02FC21FA03F3914001434FEA1C47C5
:100570001FFA8CFEB3FBF7F007FB10360B0C43EAB7
:10058000064300FB0EF69E4204FA02F408D91CEB67
:10059000030300F1FF382FD29E422DD90238634465
:1005A0009B1B89B2B3FBF7F607FB163341EA034105
:1005B00006FB0EF38B4208D91CEB010106F1FF3854
:1005C00016D28B4214D9023E6144C91A46EA00464B
:1005D00038E72E46284605E70646E3E61846F8E6DD
:1005E0004B45A9D2B9EB020864EB0C0E0138A3E726
:1005F0004646EAE7204694E74046D1E7D0467BE707
:10060000023B614432E7304609E76444023842E77E
:10061000704700BF10B54418A4B2082C12D8C0F11E
:100620000700002380B2127842EA0322C1F10103DD
:100630001844134B80B253F821308340134023FAFF
:1006400000F010BD102C08D8C0F10F00002480B2BB
:1006500012F8013B43EA0423E5E7182C137887BF1F
:1006600001321C46C0F11700002488BFC0F11F00F2
:1006700012F8013B94BF80B280B243EA0424E7E75A
:100680005C320108F0B54518ADB2082D24D8C0F190
:10069000070014460125002680B22478032D44EA81
:1006A0000624214E56F82160C1F10101084403EAF5
:1006B000060380B206FA00F103FA00F024EA010111
:1006C00040EA01002CD0042D27D0022D02D1030ACC
:1006D00002F8013B1070F0BD102D0AD8C0F10F00D8
:1006E00014460225002780B214F8016B46EA07265B
:1006F000D3E7182D17780AD8C0F117001446032540
:10070000002780B214F8016B46EA0727ECE7C0F136
:100710001F00541C042580B2F4E7030E02F8013BCD
:10072000030C02F8013BD2E75C32010810B5242328
:100730001C4C1D492370012304F1320063703023E7
:10074000A3704023E370C02323714E2363712623DB
:10075000A37111F096FB154904F1640011F091FBAF
:10076000134904F1960011F08CFB124904F1C80002
:1007700011F087FB104904F1FA0011F082FB0F49D8
:1007800004F5967011F07DFB0D4904F5AF7011F082
:1007900078FB0C4904F5C87011F073FB0A4B092271
:1007A0001A7010BDF5010020E0320108EB3201089B
:1007B000FB3201080B3301081E33010831330108F5
:1007C000443301084E330108F401002007B54FF609
:1007D000FF7301A90190012207480DF068FE074B45
:1007E0000222186800238068194611F055FA019812
:1007F00003B05DF804FB00BFE0B800203400002027
:1008000010B508210E480BF053FB1021B0FA80F40C
:100810000B480BF04DFB00284FEA54144FF40051E5
:100820000CBF02200020044306480BF041FB0028C7
:10083000054B0CBF0420002004431C7010BD00BFFA
:100840000028024000200240240D00200D4B2DE91D
:10085000F041074693F800800B4C0026F5B2A845FE
:1008600001D8FF250BE020460136FFF7F3FC2146B7
:1008700002463846323411F0EDF80028EED1284611
:10088000BDE8F081F4010020F501002030B500251D
:100890009BB06022294602A8019511F013F96B4B19
:1008A000186806F0A7FA09280AD81BB030BD002046
:1008B00009F04EFE04F168030DEB030404F8640C28
:1008C0000020ECB209F030FE01350028EFD1002CF9
:1008D000EBD004F1680301A90DEB030505F8640CE6
:1008E0005B4811F0F7F8214601A8FFF7AFFF092890
:1008F00000F2A980DFE800F0050C284359718191CE
:100900009A9F544B012254481A7011F07FF9CCE79A
:1009100004F16703514952480DEB030414F8642CA9
:10092000303A11F0D7F814F8643C303BDBB2012BBD
:1009300006D84C4A137040F2052006F089FDB4E752
:10094000494811F063F9F6E704F16703474948485D
:100950000DEB030414F8642C303A11F0BBF8454851
:1009600011F054F9444B14F8642C1968303A41F0F2
:1009700010011A711960414811F0ACF8DBE704F17D
:1009800067033F493A480DEB030414F8642C303AEE
:1009900011F0A0F83B4811F039F914F8643C364ADC
:1009A0002021303B11601371E5E704F167033649FC
:1009B0002F480DEB030414F8642C303A11F08AF838
:1009C000324811F023F92C4B1A6842F400721A6075
:1009D00014F8642C303A1A71ADE704F167032C491E
:1009E00023480DEB030414F8642C303A11F072F82C
:1009F000214B1A6842F00102E9E704F16703254937
:100A00001B480DEB030414F8642C303A11F062F823
:100A1000194B1A6842F00202D9E71F491F4811F02A
:100A200059F80022144B1A60FF22D4E71C491D48D4
:100A300011F050F839E715F8652C1B49303A0C488D
:100A400011F048F831E708485FE700BF48A70020E9
:100A500053330108DD090020693301082702002013
:100A6000A9330108DE090020BB3301085902002028
:100A7000D5330108EE33010820120020FD330108B0
:100A80008B02002010340108BD0200202034010830
:100A9000EF02002021030020530300203B34010813
:100AA0008503002048340108B70300202DE9F04FEA
:100AB000B5B00E461446824609F028FF002100908A
:100AC0007C2215A8149110F0FDFF0E49422303FB70
:100AD0000413B3F84030B3421AD104EB4413324646
:100AE000504601EB430110F0B5FF88B9064A0748AC
:100AF00002EB8404D4F89C1110F0ECFF35B0BDE893
:100B0000F08F00BF0E130020E40900205D340108BF
:100B1000053E20210020CF4F0AEB060B5A46FFF777
:100B200079FDCD4B81461A6812F0010F00F0D88193
:100B30001B79A34240F0D481C84818250CF030FB43
:100B4000C74BB0FBF3F8C8EB0848A0EB0828C54832
:100B500011F05CF805FB0473C348996810F0BAFF04
:100B60004146C24810F0B6FF434614AA2946002069
:100B7000FFF788FD0023D9B20133B142C0F2B6813C
:100B8000033114A808F088F981450AF1050801909D
:100B900048D0424608210020FFF73CFD05460028CA
:100BA00040F0C381B24811F031F88022294614A8E0
:100BB00010F088FF182114AA284601FB04739B68D3
:100BC0000133FFF75FFDE9B201358E4200F39681F4
:100BD000033114A808F060F905465A462021002088
:100BE000FFF718FD8542064640F090811826A1487F
:100BF00011F00CF8294666439F4810F06BFF9F48A0
:100C000037449F4DB96805EB041510F063FFB968D0
:100C10009C480131B960A96010F05CFF9A4B1E44FA
:100C2000AB68B3600AF1010210210020FFF7F2FC6B
:100C3000ADF8480081B2954810F04CFF0AF103026C
:100C400010210020FFF7E6FCADF8460081B2904885
:100C500010F040FF424608210020FFF7DBFC0AF1BC
:100C6000060208210020FFF7D5FC0AF1070208213F
:100C70000020FFF7CFFC0AF108028DF822001021B6
:100C80000020FFF7C7FC820683B2019340F15B812D
:100C90000AF10A02082100204FF01008FFF7BAFC01
:100CA0000AF10B0208210020FFF7B4FC0AF10C0244
:100CB00008210020FFF7AEFC0AF10D0208210020F8
:100CC000FFF7A8FC0AF10E0208210020FFF7A2FCA2
:100CD0000AF10F0208210020FFF79CFC0AEB080232
:100CE000082100200DF1250BFFF794FC4FF00009BF
:100CF000C5B2684829468DF8235010F0EBFE08F184
:100D0000010208210020524408F10208FFF782FC8A
:100D100015F0070F4FEAD505C7B214BF0135EDB284
:100D20008DF82470AEB21FFA89F318FA89F29E4248
:100D300092B200F20B8146440DF135090A20B6B299
:100D400010F0E0FE3744BFB2BE4240F00E811022E8
:100D500000210DF10D0027B210F0B4FE2A460DF16E
:100D600025010DF10D0010F085FE2A460DF10D0153
:100D7000002008F01FF8484BADF81E0023448DF802
:100D80001D508DF80C4093F82D30012B55D1019B4F
:100D90001B0752D5DFF81C81142303FB04835B8AF5
:100DA00083424AD007EB870510220021AD00681C62
:100DB00008EB0006304610F085FE08EB05030DF148
:100DC0000C0C0DF11C0E1A466546083203CD754514
:100DD00042F8080C42F8041CAC46F5D128681060B3
:100DE00000992E4A42F82410142202FB0482518AF0
:100DF0002B4A32F8140088421FD022F8141003F155
:100E00001401284A53F8040B8B4242F8040BF9D121
:100E10004FF4027006F01CFB234B33F8143063B917
:100E2000224B304606F1100203EB0413023350F854
:100E3000041B904243F8041BF9D11823124D07EB11
:100E400047071B4E6343EC5405EB0308012305EBF6
:100E5000C70531E0EC1A002020120020409B002042
:100E600000FFFF009E340108BD340108E33401088F
:100E700009350108233501084535010862350108A7
:100E8000401200207B3501089C1D0020DF35010841
:100E9000E6350108ED350108E4090020441600207C
:100EA000BC1900208C1E00206C170020E61E0020BC
:100EB000801D0020A416002088F801300FCD0FC639
:100EC00095E8030086E8030040F2022006F0C0FA2D
:100ED0000023009A88F80130294B43F824200DE6BE
:100EE000182114AA01FB04739B6840E601F1D002AB
:100EF0001AF801106A4402F87D1C3CE601F1D003A7
:100F00001AF801206B4403F87D2C5CE61D4A1E484C
:100F100002EB8404D4F89C1110F0DCFD31461B4830
:100F200010F0D8FD29461A48E6E5164A164802EBA5
:100F30008404D4F89C1110F0CDFD4946134810F0FC
:100F4000C9FD0199EFE74FF00A08C7E652440821AE
:100F50000020FFF75FFB4946C2B20BF8010B0D48BA
:100F600009F1010910F0B6FDDDE60AEB06020136D3
:100F700008210020FFF74EFB09F8010BB6B2E3E6AB
:100F8000C41C0020E4090020A5350108C135010872
:100F9000D0350108F53501082DE9F041054609F085
:100FA000B5FC2B4B07465A1992F82D20022A13D074
:100FB0001822284C6A431444E678EEB926490A44BC
:100FC000D7785FB922793AB103EB85032348D3F888
:100FD0009C1110F07FFD2771BDE8F081012FFBD13E
:100FE0002279002AF8D003EB85031D48D3F89C1121
:100FF00010F070FD2671EFE7012EEDD116490A447D
:1010000092F80380B8F1000F12D12279012AE3D0BF
:1010100003EB85031348D3F89C1110F05BFD124BD2
:10102000C4F8108043F82570104B43F82570E1E7B1
:10103000B8F1010FD0D12279002ACDD003EB85037E
:101040000B48D3F89C1110F045FD00232371C3E732
:10105000E40900209C1D0020EC1A00200436010841
:101060003E36010877360108F41500201C160020D2
:10107000AF3601082DE9F843DFF83C81044608EB60
:10108000000393F82D30022B72D018223C4D3D4EB8
:101090004243A91832448B689268934231D082B39C
:1010A0000979012902D13849095C51BB9B1A374A99
:1010B000002BB8BF5B42012B02D1135D032B59D12A
:1010C0001827002332486743135508EB840305EBC8
:1010D00007093744D3F89C1110F0FCFCD9F808102C
:1010E0002C4810F0F7FCB9682B4810F0F3FC2B48A3
:1010F00010F08CFD2A4BBA6803EB0413C9F80820E2
:101100009A6018226243A9183244CB68D26893428D
:101110002ED06AB30979012902D11B49095D39BB77
:101120009B1A204A002BB8BF5B42012B02D1135DF2
:10113000032B22D11827002308EB84081A486743A1
:1011400013553D44D8F89C113E4410F0C3FCE968A7
:10115000164810F0BFFCF168154810F0BBFC1548AC
:1011600010F054FD0E48F36800EB0414EB60E360EC
:10117000BDE8F88301331355C3E701331355F7E78F
:101180009C1D0020EC1A0020EA120020480D0020CF
:10119000EB3601082D370108513701087537010872
:1011A00040120020520D00209D370108DF37010852
:1011B0000338010827380108E4090020F8B50024A5
:1011C000154D164F95F82030E6B2B34223D957F8A3
:1011D0002600013405F00EFED5F818329842F1D9F8
:1011E00018230F4C0C220F4D03FB064400236370A1
:1011F0000D4B02FB06335B78A3700FCC0FC594E850
:10120000030085E8030040F2022006F021F909F00E
:101210007DFB47F82600F8BDE4090020C41C00202F
:101220009C1D0020801D0020A811002038B51D4DF8
:101230002B78012B01D107F0F9FF1B491B48FEF762
:10124000FFFF10B901232B7038BD194C206805F041
:10125000D1FD184BD3F81C329842F5D3164B2068B9
:101260001A688242F0D0002418602C7005F0C2FD8C
:101270004FF47A71B0FBF1F1104810F02BFC1048DC
:1012800010F0C4FC214618220E4810F01BFC214629
:10129000A2220D4810F016FC40F21910BDE83840AB
:1012A00006F0D6B8000000204F380108E5090020FC
:1012B000D4190020E4090020D01900205B3801086F
:1012C00088380108EC1A0020E61E00202DE9F843BA
:1012D000344E354D306805F08DFDD5F820329842FA
:1012E0003BD93249681CFEF7ABFF314B38B90122BC
:1012F0001A7000212F4C304F4FF0140C3DE01C7839
:10130000002CF6D12D4810F081FC2D4810F07EFC09
:10131000A2222146274810F0D5FB40F2191006F012
:1013200097F8284B1B78012B14D127490027DFF8A9
:101330008480DFF89C908B784A782448097810F0F4
:10134000C9FBBCB295F82030B4EB031F1BDB0A20AD
:1013500010F0D8FB09F0DAFA3060BDE8F88304EB4E
:1013600003120CFB03730232581C113350F804EBC8
:10137000984242F804EBF9D1013195F82020CBB224
:101380009A42ECD8CDE708EB04030134484699783B
:1013900010F0A0FB230702D10A2010F0B3FB0137A5
:1013A000CFE700BFA0160020E40900204F38010855
:1013B00000000020E61E0020A4160020AA38010824
:1013C000CE380108DE090020BA260020EB380108DB
:1013D000AD42010838B505460024E3B20134E95CAA
:1013E00001B938BD002009F0D7F8F6E7F0B5ADF542
:1013F000057D0E4600210446174605A84FF4FE72EF
:10140000049110F05FFB76B34F48FFF7E3FF621CD7
:1014100010210020FFF7FEF84C49024604A810F006
:1014200001FD04A8FFF7D6FFE21C10210020FFF702
:10143000F1F84749024604A810F0F4FC04A8FFF7AD
:10144000C9FFE21D08210020FFF7E4F805464148E6
:10145000FFF7C0FFE8B20138052866D8DFE800F0E2
:10146000055F656165633C48CFE7002E55D03B487A
:10147000FFF7B0FF3A48FFF7ADFF621D08210020DB
:10148000FFF7C8F83749024604A810F0CBFC04A8BF
:10149000FFF7A0FFA21D08210020FFF7BBF832498B
:1014A000024604A810F0BEFC04A8FFF793FF04F165
:1014B000080210210020FFF7ADF82C4982B2054642
:1014C00004A810F0AFFC04A8FFF784FFAB062ED5EC
:1014D000E37B04A8A27A0393A37B25490293637B51
:1014E0000193237B0093E37A10F09CFC04A8FFF7A0
:1014F00071FF204B1B78012B0CD127441E4DBC42A1
:1015000017D13EB9F6221C4904A810F08BFC04A8A0
:10151000FFF760FF0DF5057DF0BD1848A8E71848F6
:10152000A6E71848A4E71848A2E71848A0E7184813
:10153000DDE714F8012B294604A810F073FC04A879
:10154000FFF748FFDBE700BF103901081839010831
:101550002039010828390108143901082C390108FB
:101560001239010857390108613901086B3901083E
:1015700075390108DE090020AD4201083339010840
:101580003A3901083E390108423901084639010853
:10159000973901082DE9F0439BB006460F4600211C
:1015A000154602A86022019110F08CFA3378B446F7
:1015B0004FF0F00E8DF80430012318465C1C03F147
:1015C0006802B842E4B20DEB020151D3F623DFF812
:1015D000F09001F8643C19F80530012B0AD1334B27
:1015E00093F8803033B9324B1B78012B02D131484C
:1015F000FFF7F0FEDFF8CC8008EB050393F82D3001
:10160000012B09D12C4B214601A853F8252005F0C8
:101610002DFD002309F80530454495F82D30022BA7
:1016200006D10DF104080025A4B2ABB29C4236D815
:101630001F4D2B78012B02D11E48FFF7CBFE1B4C10
:1016400094F8802032B101212046FFF7CFFE00231D
:1016500084F880303A4600213046FFF7C7FE2B78E9
:10166000012B02D11548FFF7B5FE1BB0BDE8F08392
:101670001CF8012F0130EF2AC0B281BF01F864ECE1
:1016800004F16801023302F00F0289BF0DEB01047F
:1016900001F8642C04F8642CDCB223468EE718F8B9
:1016A000011B0320013508F077FFBEE7DC1B00209B
:1016B000DE090020AA390108F8190020083A0108BB
:1016C000B81C0020E40900202DE9F043002791B068
:1016D000044638223946DFF8D89202A8019710F064
:1016E000F1F9F42301AA082138469F4EFEF7CAFFFC
:1016F0000DF1050209EB840310213846D3F89C3123
:10170000FEF7C0FF0DF1070209EB840310213846F4
:10171000D3F8C431FEF7B6FF32685107C2F3800335
:1017200040F109813379A3421BD1C8258F480BF0C2
:1017300037FDB0FBF5F303FB15058D4810F066FA95
:10174000394601358B4810F0C5F98B48EDB2294672
:1017500010F0C0F92B460DF1090208213846FEF7BA
:1017600091FF33684FEA0418844F13F0080FC3F356
:10177000C00000F0E5803379A3421BD1C8257B4827
:101780000BF00EFDB0FBF5F303FB15057C4810F0E4
:101790003DFA07EB08037B48997810F09BF929463E
:1017A000794810F097F92B460DF10A020821002024
:1017B000FEF768FF01230DF10B0208210020FEF760
:1017C00061FF07EB0805052303AA10210020EB8029
:1017D000FEF758FF17230DF10E0208210020FEF737
:1017E00051FF01230DF10F0210210020FEF74AFFE7
:1017F000664B0DF1110220210020FEF743FF00236C
:101800000DF1150210211846FEF73CFF00230DF1E3
:10181000170210211846FEF735FF00230DF11902BB
:1018200010211846FEF72EFF00230DF11B02102198
:101830001846FEF727FFAB68554A07EB0805182145
:10184000002093420DF11D028CBF03F1FF330133E1
:10185000EB60FEF717FF18224E4B0821002002FB19
:101860000433EA68DA604C4B1A5DB22A94BF013245
:101870000A221A5508AA1B5DFEF704FF01230DF189
:10188000210208210020FEF7FDFE01230DF12202B6
:1018900008210020FEF7F6FE00230DF123020821A7
:1018A0001846FEF7EFFE33689A0653D53379A34204
:1018B00050D17D252D480BF073FC4744B0FBF5F368
:1018C00003FB1505354810F0A1F9F97801353448C6
:1018D00010F000F9FB78EDB23248AB4204BF023D94
:1018E000EDB2294610F0F6F82B4609AA082100208F
:1018F000FEF7C8FE00230DF1250208211846FEF769
:10190000C1FE222101A807F0C7FA0DF12602034605
:1019100020210020FEF7B6FE33689B051ED53379E3
:10192000A3421BD1204810F071F9204810F0D2F8E2
:1019300011B0BDE8F0830DF10902082118460EE749
:1019400007EB0802082193780133DBB293700DF1A5
:101950000A022DE7A14499F8EB30C6E7224626217A
:1019600001A8FFF717FEE3E720120020409B0020AC
:10197000653A0108883A0108A73A01084012002098
:10198000C63A0108E93A0108083B0108AF32E233E0
:10199000EFFFFF009C1D002001000020273B0108F5
:1019A000573B0108703B01088B3B0108A03B010835
:1019B000E40900202DE9F0474FF000089EB00446EE
:1019C0003822414610A89E4D2701CDF83C8010F0EA
:1019D00079F83C22414668469A4E10F073F8F42399
:1019E0006A4608214046FEF74DFE0DF1010205EB67
:1019F0008403102105EB84054046D3F89C31FEF7A3
:101A000041FED5F8C431904D0DF10302102140463E
:101A1000FEF738FE2B6813F0040F00F0F7802B79E7
:101A2000A34240F0F3804FF0C80988480BF0B8FBA0
:101A3000B0FBF9F303FB1909854810F0E7F8F31937
:101A40008448597810F046F84946834810F042F827
:101A50004B4608210DF105020020FEF713FE2B680E
:101A6000190740F1D6802B79A34240F0D2804FF085
:101A7000C80876480BF094FBB0FBF8F303FB18089A
:101A8000764810F0C3F8F3197548997810F022F8E9
:101A90004146744810F01EF843460DF10602082135
:101AA0000020DFF8E081FEF7EDFD02230DF10702D3
:101AB00008210020DFF8D0A1FEF7E4FD18F804307B
:101AC000012B40F0A98003F023FC674A04EB440398
:101AD00010680AEB43014AF81300938863488B802F
:101AE00010F094F80020682302AA102108F80400DE
:101AF0004FF00609FEF7C6FD0DF10A02082109FBA9
:101B000004F900200AEB090898F80530FEF7BAFD41
:101B100098F804300DF10B0208210020FEF7B2FD09
:101B200098F8033003AA08210020FEF7ABFD1AF84D
:101B300009300DF10D0208210020FEF7A3FD98F8F1
:101B400001300DF10E0208210020FEF79BFD98F8F0
:101B500002300DF110080DF10F0208210020FEF7F0
:101B600091FD0123424608210020FEF78BFD002352
:101B70000DF1110208211846FEF784FD01230DF135
:101B8000120208210020FEF77DFD2B689A0748D538
:101B90002B79A34245D12D483E440BF001FB8146F1
:101BA000334810F033F8F16832480FF093FF49469C
:101BB00031480FF08FFF4B460FAA18210020FEF787
:101BC00061FD6A460DF13F031646083303CE4645D4
:101BD00043F8080C43F8041C3246F5D131880FA8AD
:101BE000B278198016219A7007F056F90DF1130298
:101BF000034620210020FEF745FD2B689B0513D4EA
:101C0000224617216846FFF7C5FC16E0F3195B78FA
:101C10001FE7F3199B7840E7282302AA1021002030
:101C200066E73E44F368C7E72B79A342E8D113483F
:101C30000FF0ECFF12480FF04DFF1EB0BDE8F0872B
:101C4000E40900204012002020120020409B0020C8
:101C5000B23B0108D53B0108F33B0108C63A010835
:101C6000E93A0108083B0108B4260020123C0108AB
:101C7000273C01084A3C01086B3C01088B3B0108EA
:101C8000A03B0108370D00205C0D00202DE9F04F2E
:101C90004FF000089FB004463822414601A8AE4DDF
:101CA0002601CDF800800FF00DFF3822414610A824
:101CB000CDF83C800FF006FFF4236A460821404629
:101CC000A64FFEF7DFFC0DF1010205EB84031021A6
:101CD00005EB84054046D3F89C31FEF7D3FCD5F8DC
:101CE000C4310DF10302102140469D4DFEF7CAFCA0
:101CF0003B6813F0040F00F001813B79A34240F0F0
:101D0000FD804FF0C80997480BF04AFAB0FBF9F391
:101D100003FB190994480FF079FFAB1993485978E0
:101D20000FF0D8FE494692480FF0D4FE4B460DF115
:101D3000050208210020DFF868A2FEF7A3FC3B683B
:101D400013F0080F00F0DD803B79A34240F0D9800A
:101D50004FF0C80883480BF023FAB0FBF8F303FBFD
:101D6000180884480FF052FFAB19834899780FF098
:101D7000B1FE414681480FF0ADFE43460DF106022B
:101D800008210020FEF77EFC01238AF8003004239E
:101D90000DF1070208210020FEF774FCAB19DFF8F3
:101DA0000482988818F8043010F0080000F0B7801A
:101DB000012B02AA4FF010014FF000000CBF682366
:101DC0002823FEF75FFCAB199B88990640F1AF8092
:101DD00018F80430DFF8D0B1012B11D103F098FAD4
:101DE000674A04EB440310680BEB43014BF8130004
:101DF000938864488B800FF009FF002308F80430B3
:101E00004FF006090DF10A020821002009FB04F930
:101E10000BEB090898F80530FEF734FC98F804300D
:101E20000DF10B0208210020FEF72CFC98F803307E
:101E300003AA08210020FEF725FC1BF809300DF14C
:101E40000D02082100204FF01009FEF71BFC98F846
:101E500001300DF10E0208210020FEF713FC98F866
:101E600002300DF10F0208210020FEF70BFC3B6849
:101E70009A075FD53B79A3425CD13A4835440BF0D1
:101E80008FF9414BB0FBF3F8C8EB0848A0EB0828EA
:101E90003E480FF0BBFEE9683D480FF01BFE41468F
:101EA0003C480FF017FE43460FAA18210020FEF70A
:101EB000E9FB0023DAB201334A4511463DD3033131
:101EC0000FA806F0E9FF202103460DEB09020020D0
:101ED000FEF7D8FB002309F104018AF800303B68C3
:101EE0009B0531D53B79A3422ED12B480FF08EFEB6
:101EF0002A480FF0EFFD1FB0BDE8F08FAB195B78FB
:101F000015E7AA190020082193788AF80000013308
:101F1000DBB293700DF10602FEF7B4FB37E7012B3D
:101F200002AA4FF010010CBF6423242349E74FF0AD
:101F30000A099CE73544EB68B6E778326A4412F840
:101F4000781C02F8391CB5E7224601F0FE0168460C
:101F5000FFF720FBCFE700BFE4090020201200209C
:101F600040120020409B0020653A01088E3C010889
:101F7000AB3C0108C63A0108CA3C0108E73C01082D
:101F8000B4260020123C010800FFFF00273C010896
:101F90004A3C01086B3C01088B3B0108A03B01084F
:101FA0005D1C0020370D00205C0D00202DE9F04362
:101FB0004FF0000891B0044638224146744D02A803
:101FC000CDF804800FF07EFDF42301AA08214046DD
:101FD000704EFEF757FB0DF1050205EB840310214F
:101FE00005EB84054046D3F89C312701FEF74AFBF8
:101FF000D5F8C4310DF1070210214046664DFEF7B9
:1020000041FB336813F0040F00F0AE803379A34234
:1020100040F0AA804FF0C80960480BF0C1F8B0FB4F
:10202000F9F303FB19095E480FF0F0FDEB195D4869
:1020300059780FF04FFD49465B480FF04BFD4B467A
:102040000DF1090208210020FEF71CFB33681A0776
:1020500040F18D803379A34240F089804FF0C80869
:102060004E480BF09DF83D44B0FBF8F303FB180815
:102070004E480FF0CBFDA9784D480FF02BFD41469F
:102080004C480FF027FD43460DF10A0208210020BD
:10209000494DFEF7F7FA06230DF10B020821002047
:1020A000DFF82881FEF7EEFA2B5D012B65D103F0F6
:1020B0002FF9424A04EB4403106808EB430148F847
:1020C000130093883E488B800FF0A0FD0020692309
:1020D00003AA102128550627FEF7D4FA0DF10E02A7
:1020E00008216743002008EB07056B79FEF7CAFA61
:1020F0002B790DF10F0208210020FEF7C3FAEB78CF
:1021000004AA08210020FEF7BDFA18F807300DF1E7
:10211000110208210020FEF7B5FA6B780DF11202CA
:1021200008210020FEF7AEFAAB780DF1130208216A
:102130000020FEF7A7FA102101A806F0ADFE05AABF
:10214000034620210020FEF79DFA33689B0519D530
:102150003379A34216D11B480FF058FD1A480FF0EF
:10216000B9FC11B0BDE8F083EB195B7868E73D443A
:10217000AB780133DBB2AB7086E7292303AA1021C9
:102180000020A8E72246142101A8FFF703FAE8E798
:10219000E40900202012002040120020409B002073
:1021A000653A01088E3C0108AB3C0108C63A0108BB
:1021B000CA3C0108E73C0108370D0020B426002086
:1021C000123C01088B3B0108A03B01085C0D00207C
:1021D0002DE9FF47624C002762480FF017FD94F885
:1021E000211061480FF076FCD4F818125F480FF008
:1021F00071FCD4F81C125E480FF06CFCD4F820126D
:102200005C480FF067FCD4F824125B480FF062FCC6
:10221000DFF89481B4F8F8105848DFF890910FF087
:1022200059FCDFF88CA194F821104F480FF052FCB4
:1022300094F82130FDB2AB4234D894F83E300026F9
:1022400094F83C2094F83B1000934D4894F83D30AE
:102250000FF040FC94F84A3094F84620029394F82A
:10226000493094F84510019394F84830454800935C
:10227000DFF8408194F84730DFF83C910FF02AFCFA
:10228000DFF838A1B4F8F8103F480FF023FC94F8B9
:102290002030F5B2AB4223D8324804B0BDE8F04755
:1022A0000FF0B4BC04EB850629464046013796F88A
:1022B0009E30019396F89D30009396F89C3096F8E6
:1022C0009B200FF007FCB6F84A21294648460FF03C
:1022D00001FCB6F84C21294650460FF0FBFBA7E75E
:1022E000691C40460FF0F6FB484604EB850367196E
:1022F0000136D3F89C110FF0EDFB504604EB85033B
:10230000D3F8C4110FF0E6FB204804EB4503B3F803
:1023100000120FF0DFFB97F8EB101D480FF0DAFB0F
:1023200097F823101B480FF0D5FB97F82D101A488B
:102330000FF0D0FB05F18A03184854F823100FF072
:10234000C9FB05F194039E35154854F823100FF08E
:10235000C1FB54F8251013480FF0BCFB97E700BFF2
:10236000E4090020083D01085B3D01087D3D0108AE
:10237000A03D0108CA3D0108F63D0108213E0108C3
:10238000893E0108A53E0108CE590108183F010801
:10239000343F01084C3F01085D3F0108703F0108D0
:1023A0008B3F0108A43F01084C3E0108693E01082B
:1023B000793E0108D33E0108E63E0108FF3E0108D0
:1023C0002DE9F0470026234DDFF89C80DFF89C9034
:1023D000F4B295F82030A34201D8BDE8F08758F850
:1023E0002400A8B304F1940704F004FD55F8273045
:1023F00003F57A7398422BD959F8240004F0FAFCBB
:1024000055F8273003F57A73984221D9DFF860A098
:102410001AF80430012B1BD00F4B53F82430B3F5BE
:102420007A7F15D958F82400012704F0E3FC4FF413
:102430007A71B0FBF1F109480FF04CFB084B2146D3
:1024400020461F55FFF740F9064B0AF804701F5548
:102450000136BDE7E4090020A4150020BE3F0108B5
:10246000B81C0020E0120020F4150020B417002052
:10247000FE1200202DE9F8430026DFF86080DFF827
:102480006090154FF4B298F82030A34201D8BDE80F
:10249000F883182303FB04931B79012B05D008EB69
:1024A000040393F82D30022B13D13B5D012B10D187
:1024B000A51C07EB8505686804F09CFC322808D948
:1024C00021462046FFF776FA00233B554FF0FF33B5
:1024D0006B600136D6E700BFEC1C0020E409002049
:1024E0009C1D00202DE9F84300261B4FDFF8788063
:1024F000DFF8789097F82030F4B2A34201D8BDE815
:10250000F88358F8240020B3182505FB0495EB78D0
:10251000FBB104F06FFC04F18A0357F823309842B2
:1025200017D907EB84014FF47A720C48D1F89C114B
:10253000B3FBF2F20FF0CEFA58F8241008480FF06F
:10254000C9FA08F0E3F9014606480FF0C3FA002380
:10255000EB700136CEE700BFE4090020EA3F010836
:102560001D4001084B4001081C1600209C1D002046
:102570002DE9F041214E0546331893F82330012B05
:1025800002D00120BDE8F0811D4B1B78012BF8D152
:1025900006231C4A4FF46167434302EB0308D05CF7
:1025A00002F094FE044698F8010002F08FFE02B299
:1025B00098F80200C2EB0212920007FB042402F01A
:1025C00085FE044402F0A4FE0F4A53781078C3EB52
:1025D00003139900937807FB00111944611A00292D
:1025E000B8BF49420129CCDD06EB85050748D5F87F
:1025F0009C210FF06FFA0020C4E700BFE40900201F
:102600000C1300205C0D0020BA2600205640010863
:102610002DE9F04F0E4605461446DFF8C093053EFF
:102620002DED028B83B008EE103A08F06FF90746E3
:10263000B1B2284606F030FC8046AA1920210020BD
:10264000FDF7E8FF8045009013D009EB8404C948EA
:10265000D4F89C110FF03EFA0099C7480FF03AFAEF
:102660004146C64803B0BDEC028BBDE8F04F0FF009
:1026700031BA04F1FE08C24B4FF0010AC14E09EB1A
:10268000480805F11D0203F804A01021002006F8F7
:1026900004A0FDF7BFFFB8F8042083B283469A4236
:1026A000B94B1DD003F804A009EB8403B748D3F855
:1026B0009C110FF00FFAB6481FFA8BF10FF00AFACF
:1026C000B8F80410B3480FF005FAB34909EB0A0053
:1026D000FDF7B6FD30B103B0BDEC028BBDE8F08F65
:1026E00000221A5509EB040A05F1240208210020F2
:1026F000FDF790FF9AF8EB305FFA80F8434540F021
:102700002081A64B4FF0010BDFF8D482102143F853
:10271000247005EB0B02A24B4FEA441A06F804B0F2
:1027200000261E5530469F4B43F8247008EB441793
:10273000FDF770FF81B238829B480FF0CBF9EA1C9D
:1027400010213046FDF766FFF88181B297480FF0FF
:10275000C1F96A1D08213046FDF75CFFAA1D08215A
:1027600008F80A003046FDF755FFEA1D0821787089
:102770003046FDF74FFF05F10802B87010213046D2
:10278000FDF748FF8A4B80B203EB04139880830661
:1027900000F128810A26AA190821002008EB441A12
:1027A000FDF738FF721C63018AF803002A441021E8
:1027B00000200193FDF72EFFF21C0423AAF812005B
:1027C000AF18A85803EB441306F10902A14448F8D6
:1027D000030008EB0301BB882A440020754F8B805F
:1027E0001021FDF717FF06F10B02AAF814001021C3
:1027F0002A440020FDF70EFF06F10D02AAF816008C
:1028000010212A440020FDF705FF06F10F02AAF867
:10281000180018212A440020FDF7FCFE1822644B02
:10282000082102FB047203EB041B906006F1120204
:10283000CBF8080000202A44FDF7ECFE5C4BC0B248
:10284000082122018BF80200985406F1130200209F
:102850002A44FDF7DFFE06F114028AF80A00082177
:102860002A440020FDF7D6FE99F8EB30C0B206F1FD
:10287000150A83428BF803000CD04F480FF0C6F9BD
:1028800099F8EB104D480FF025F99BF803104C48D0
:102890000FF020F905EB0A0208210020FDF7BAFE2F
:1028A00006F11602630108212A4408EB030989F89E
:1028B0000B000020FDF7AEFEC1B2012989F80C1013
:1028C00006F1170905D03F480FF004F93E480FF014
:1028D0009DF905EB090208210020FDF79BFE06F19A
:1028E0001802630120212A44384D984488F80D00CD
:1028F0000020FDF78FFE18EE101AC8F81C002046C5
:10290000FEF7E2FE1823009A6343FE18FC5404EB22
:1029100044037261012207EBC307727172700FCF1B
:102920000FC597E8030085E8030040F2022004F099
:102930008FFD0023737007F0E9FF254B43F8240057
:10294000C9E609EB84032348D3F89C110FF0C2F8C1
:102950009AF8EB1019480FF0BDF8414618480FF0EF
:10296000B9F80D491C48FDF76BFC00283FF4C9AECF
:10297000B1E600BF94400108C1350108D035010817
:10298000EA120020D81900202D0D0020AF400108C8
:10299000E7400108094101084F380108F4150020FB
:1029A000FE120020A4150020DF350108E6350108DD
:1029B000401200209C1D00207B410108534101086A
:1029C0006741010895410108C0410108801D0020B0
:1029D000C41C00202B410108E5090020E409002067
:1029E000980D00204FF0060A05F10A020821304632
:1029F000FDF710FE0AFB04FA194B05F10B02082142
:102A000003EB0A0778713046FDF704FE05F10C026E
:102A1000082138713046FDF7FDFD05F10D02082152
:102A2000F8703046FDF7F6FD0D4B05F10E0208215A
:102A300003F80A003046FDF7EDFD05F10F0208210D
:102A400078703046FDF7E6FDB8702046FFF790FD40
:102A5000044B10B11E5510269DE603F804B0FAE7AA
:102A60005C0D0020370D00202DE9F04F4FF00009DC
:102A700014460546D44F4FEA04182DED028B99B049
:102A800008EE103A039107F041FF382249460190C1
:102A90000AA8CDF824900FF015F8CC49CC48FDF7E2
:102AA000CFFB002800F0ED82CA4B1A68D20740F134
:102AB000B3821B79A34240F0AF82C74EC7480AF0E9
:102AC0006FFBB0FBF6F6C6EB0646A0EB0626C44845
:102AD0000FF09CF807EB0803C24899680EF0FAFF64
:102AE0003146C1480EF0F6FF334609AA18210020EE
:102AF000FDF7C8FD039A0023A2F1050AD9B20133FC
:102B00005145C0F28D82033109A805EB0A0B06F08E
:102B1000C3F9814620215A460020FDF77BFD8145FF
:102B200006464BD06A1D082100200292FDF772FD77
:102B3000029A002840F07B82AC480FF067F83C22F4
:102B4000002109A80EF0BEFF07EB080309AA18210F
:102B50009B6800200133FDF795FD0023D9B20133B6
:102B60008A4500F37282033109A806F095F981467F
:102B70005A4620210020FDF74DFD8145064640F0D4
:102B80006B8207EB08099A480FF040F831469948E4
:102B90000EF0A0FFD9F8081097480EF09BFFD9F867
:102BA000081096480131C9F808100EF093FF18225A
:102BB000934B02FB0433D9F808209A60019A002154
:102BC000904B4FF0300ADFF8689243F824208E4B88
:102BD00043F8242001228D4B1A5504EB4413402264
:102BE00009EB430318460EF06DFF039A29460EF0D9
:102BF00041FFBDF80C306A1C1021049342230020D1
:102C000003FB0499049BA9F84030DFF82892FDF7F4
:102C100001FD81B20AFB049AAAF828007C480EF054
:102C200059FFEA1C10210020FDF7F4FCAAF8260049
:102C300081B207EB080A77480EF04CFF6A1D0821A5
:102C40000020FDF7E7FCAA1D8AF8020008210020F9
:102C5000FDF7E0FCC0B28AF80100D8B96E4B6F48AE
:102C600003EB8403D3F89C110EF034FFDAF80C1058
:102C70006B480EF02FFFDAF80C106A480131CAF8E1
:102C80000C100EF027FF18225D4B02FB0433DAF81C
:102C90000C20DA60EA1D0821002007EB080AFDF786
:102CA000B9FC3023102105F1080203FB049989F8CF
:102CB00002000020FDF7AEFC44491FFA80F94448A9
:102CC000AAF80490FDF7BCFA18B949F00809AAF867
:102CD0000490B844B8F804309B0640F1D6814FF018
:102CE0000609DFF854A105F10A02082109FB04F9DD
:102CF0000020FDF78FFC05F10B020AEB0908082103
:102D000088F805000020FDF785FC05F10C0208217C
:102D100088F804000020FDF77DFC05F10D02082174
:102D200088F803000020FDF775FC05F10E0208216C
:102D30000AF809000020FDF76DFC05F10F020821DB
:102D400088F801000020FDF765FC88F802002046A5
:102D5000FFF70EFC344B002800F0958100224FF065
:102D600010081A5507EB0417DFF8C8900821002057
:102D7000BB88302703F0080207FB0497C3F3C003A6
:102D8000029205EB08020793FDF744FCC1B2F8700C
:102D900026480EF09FFE08F10102082100202A4477
:102DA00008F10208FDF736FC387104EB4403FF78A4
:102DB0004FEA031A17F0070F4FEAD7070AF1050386
:102DC00014BF0137FFB239E0401200204F3801082C
:102DD000E50900202012002000FFFF00409B00209A
:102DE0009E340108BD340108E334010809350108A7
:102DF000D941010845350108F04101087B3501083A
:102E00009C1D0020F41500201C160020E219002053
:102E1000DF350108E6350108E40900203E420108DB
:102E20008042010890420108370D00209F420108AE
:102E30000E130020C80F00205C0D00204B444FF003
:102E400000091FFA87FBCDE905331FFA89F318FA49
:102E500089F29B4592B200F21B810A20C3444FF0D5
:102E600030090AF115080EF04DFE9B4B1FFA8BFB43
:102E70004FF0000A984409FB04391FFA8AF399F8C5
:102E800004101BFA8AF2994292B200F2128118EEF3
:102E9000101A2046FFF78AF8904B01221A5503EBCF
:102EA0008403019ADA6018228D4B02FB04331B79EC
:102EB000012B11D18B4B4622002118460EF002FE49
:102EC000049A0480294682800630039A0EF0D2FDCF
:102ED0004FF4017004F0BCFA04EB840ADFF850826E
:102EE000102200214FEA8A0A0FFA84F90AF101053B
:102EF00008EB050318460EF0E5FD3A4605990EF07D
:102F0000B9FD3A460146002005F054FF14236343FF
:102F100008EB030208F80340029B57745082724F7B
:102F2000002B3DD03D4410220021D04428460EF015
:102F3000C9FD07EB0A0308F114011A4658F8040BFF
:102F4000884542F8040BF9D1684A019942F82410E7
:102F5000142202FB0472518A654A32F81400884236
:102F60001ED022F8141003F11401624A53F8040B26
:102F70008B4242F8040BF9D14FF4027004F068FA66
:102F80005D4B33F814305BB95C4B05F1100203EB79
:102F90000413023355F8041B954243F8041BF9D17E
:102FA000142118224E4B09EB4909624301FB0477B7
:102FB00003EBC9099D189C54798A6E610126E9804A
:102FC0000221079A69716E70AA704D4FB9E80F001F
:102FD0000FC799E8030087E8030040F2022004F0DD
:102FE00037FA0023019A6B700298464B464943F822
:102FF00024200C23454A002865D0019D03FB0422B0
:103000004348556040F8245056700E554FF4807177
:10301000404808F058FF2FE007EB08039B6864E581
:1030200001F16002695C6A4402F8391C66E5082116
:103030000020FDF7EFFA01283FF47EAD364A37480D
:1030400002EB8404D4F89C110CE001F16002695C8D
:103050006A4402F8391C81E52F4A314802EB8404A6
:10306000D4F89C110EF036FD31462E480EF032FD9C
:1030700049462D480EF02EFD19B0BDEC028BBDE87F
:10308000F08F06469AE5012269E64FF00A0869E6E4
:103090002A4408210020FDF7BDFA069BC2B249462A
:1030A00003F8010B09F10109204806930EF012FD07
:1030B000CBE62A44082100200AF1010AFDF7AAFA0A
:1030C00008F8010BD9E60298085503FB0424019B7C
:1030D0006070A3609AE700BFC80F0020EC1C0020BE
:1030E0009C1D0020A01E0020A416002044160020D5
:1030F000BC1900208C1E00206C170020E61E00204A
:10310000801D0020C41C002094160020A81100205F
:103110006C160020001C0240E40900202A4201082D
:103120000D420108C1350108D0350108A642010849
:10313000241A00202DE9F04F4FF0000A14460546EE
:10314000242289465146D34F4FEA04182DED028BB5
:103150008DB008EE103A03A8CDF808A00EF0B2FC2E
:1031600007F0D4FBCC490090CC48FDF769F8002863
:1031700000F03A82CA4B1A68D20740F102821B79EA
:10318000A34240F0FE814FF6FF76C6480AF008F8E9
:10319000B0FBF6F6C6EB0646861BC3480EF036FDBE
:1031A00007EB0803C14899680EF094FC3146C0480B
:1031B0000EF090FC334602AA18210020A9F105095F
:1031C000FDF760FA0023D9B201334945C0F2DD8131
:1031D000033102A805F060FE834605EB09022021B9
:1031E0000020FDF717FA8345064647D06A1D0821DF
:1031F0000020DFF8D4A2FDF70DFA04F16603C0B297
:10320000012800F2E4810AEB8303AA4859680EF012
:1032100061FC2822002102A80EF054FC07EB0803F1
:1032200002AA18219B6800200133FDF72BFA002326
:10323000D9B20133894500F3AF81033102A805F00B
:103240002BFE8642814640F0AE8107EB08099A4882
:103250000EF0DCFC9948D9F808100EF03BFCD9F8C8
:10326000081097480131C9F808100EF033FC1822F5
:10327000944B02FB0433D9F808209A60DFF878A257
:103280004FF00C096A1C102109FB04A90020FDF76E
:10329000C1F907EB080BA9F80600EA1C1021002071
:1032A000FDF7B8F96A1DA9F8040008210020DFF82D
:1032B0001492FDF7AFF9AA1D8BF802000821002037
:1032C000FDF7A8F9C0B28BF80100D0B97E4B7F485A
:1032D00003EB8403D3F89C110EF0FCFBDBF80C101D
:1032E0007B480EF0F7FBDBF80C107A480131CBF885
:1032F0000C100EF0EFFB1823DBF80C2003FB0493FB
:10330000DA60EA1D0821002007EB080BFDF782F9BF
:103310000C23102105F1080203FB04AA8AF802001D
:103320000020FDF777F95C491FFA80FA5B48ABF89B
:1033300004A0FCF785FF18B94AF0080AABF804A00E
:1033400007EB08039B889B0640D505F10A0208217C
:103350000020DFF8A8B1FDF75DF9062305F10B02A7
:10336000082163430BEB030A01938AF80500002050
:10337000FDF750F905F10C0208218AF8040000203D
:10338000FDF748F905F10D0208218AF80300002035
:10339000FDF740F9019B05F10E0208210BF803002F
:1033A0000020FDF737F905F10F0208218AF8010026
:1033B0000020FDF72FF98AF802002046FFF7D8F821
:1033C000454B002800F0128100221A55474418EEA0
:1033D000101A20461825BB880FFA84F805FB0495BF
:1033E000DFF81CA103F00807C3F3C0030193FEF745
:1033F0004DFC009A394B286943F82420384B43F898
:10340000242003F0F7FC2861002F7BD008EB880B09
:10341000102200214FEA8B0B0BF101055544284681
:103420000EF050FB2F4A0AEB0B0393441A460BF1A4
:1034300014015BF8040B8B4542F8040BF9D11422FC
:1034400002FB04A2518A284A32F81400884259D05B
:1034500022F8141003F11401244A53F8040B8B4290
:1034600042F8040BF9D14FF4027003F0F1FF204B46
:1034700033F81430002B45D11E4B05F1100203EB3D
:103480000413023355F8041B954243F8041BF9D189
:1034900038E000BF401200204F380108E509002045
:1034A00020120020409B00209F340108B3420108F5
:1034B000E3340108D7420108D9410108FB42010861
:1034C000124301089C1D0020E40900203E4201082F
:1034D0005E43010869430108370D0020F415002000
:1034E0001C160020241A0020BC1900208C1E00206D
:1034F0006C170020E61E0020500F00205C0D0020FD
:10350000A41600201422182308EB4808DFF814C181
:10351000634302FB04AA09EB030509F80340BAF868
:10352000122009EBC8096E610126EA800422019B82
:103530006A716E70AB70B9E80F00ACE80F0099E8E3
:1035400003008CE8030040F2022003F081FF002317
:10355000009A6B702A4B2B4943F824200C232A4AEB
:10356000002F45D0009D03FB04222848556040F8F9
:10357000245056700E554FF48071254808F0A3FC76
:1035800020E007EB08039B6815E601F13002695C57
:103590006A4402F8251C16E601F13002695C6A44AF
:1035A00002F8251C44E60AEB84041A48D4F89C115E
:1035B0000EF090FA314618480EF08CFA494617483A
:1035C0000EF088FA0DB0BDEC028BBDE8F08F0AEB6F
:1035D000830A1348DAF804100EF07CFA31460E48DC
:1035E0000EF078FA5946EAE7064647E60122ECE68D
:1035F0000F5503FB0424009B6770A360BBE700BF6B
:10360000C41C002094160020A81100206C16002075
:10361000001C02402A430108C1350108D0350108C9
:1036200048430108801D00202DE9F04F0F46054654
:103630001446053F2DED028B83B008EE103A07F0DB
:1036400065F90646B9B2284605F026FC8046EA1917
:1036500020210020FCF7DEFF8045074614D0A64A53
:10366000A64802EB8404D4F89C110EF033FA3946D4
:10367000A3480EF02FFA4146A24803B0BDEC028BDE
:10368000BDE8F04F0EF026BA9F4B6A1C10210020B7
:1036900043F824604FF00C0A9C4B4FEA041BDFF800
:1036A000B08243F82460FCF7B5FF994B08EB04198E
:1036B000EA1C0AFB043A1021AAF806000020FCF7D5
:1036C000A9FF6A1DAAF8040008210020FCF7A2FF48
:1036D000AA1D082189F802000020FCF79BFFEA1DC3
:1036E000082189F801000020FCF794FF10218AF8D6
:1036F000020005F108020020FCF78CFF85491FFA43
:1037000080FA8548A9F804A0FCF79AFD18B94AF098
:10371000080AA9F804A008EB0B039B889B0640D578
:103720004FF0060A05F10A0208210020FCF772FF9B
:103730000AFB04FA794B05F10B02082103EB0A0995
:1037400089F805000020FCF765FF05F10C0208214F
:1037500089F804000020FCF75DFF05F10D02082147
:1037600089F803000020FCF755FF6C4B05F10E02B1
:10377000082103F80A000020FCF74CFF05F10F02B6
:10378000082189F801000020FCF744FF89F80200B5
:103790002046FEF7EDFE624B002800F0A2800022DA
:1037A0001A55D84418EE101A20460FFA84FBB8F8C0
:1037B00004A0FEF76BFA0AF00808CAF3C00AB8F1D1
:1037C000000F4FD00BEB8B03DFF888911022002104
:1037D0009B00581C019309EB000528460EF072F976
:1037E000019B504909EB03020B44114603F11400FD
:1037F00053F804CB834241F804CBF9D1142303FBE3
:103800000493598A484B33F8140088422AD023F88D
:1038100014101346454A03F1140153F8040B8B426C
:1038200042F8040BF9D14FF4027003F011FE182294
:103830003F4B02FB0433142202FB0499B9F8122017
:10384000DA803C4B33F8143063B93B4B284605F122
:10385000100203EB0413023350F8041B904243F8A8
:10386000041BF9D11823324D0BEB4B0B062263439B
:10387000DFF8E4C005EB0309EC5405EBCB05C9F810
:103880001470012789F8052089F8017089F802A0D1
:103890000FCDACE80F0095E803008CE8030040F280
:1038A000022003F0D5FD0023244A89F80130244B7F
:1038B00043F82460234BB8F1000F14D01F550C239C
:1038C000214941F8246003FB0424677066604FF4CB
:1038D00080711E4803B0BDEC028BBDE8F04F08F0CC
:1038E000F2BA01225CE703F804800C2303FB0424F2
:1038F000A66084F80180EAE7E40900207443010827
:10390000C1350108D0350108F41500201C1600202F
:10391000D80E00204F380108E50900205C0D00207A
:10392000370D0020241A0020BC1900208C1E002016
:103930009C1D00206C170020E61E0020A81100200E
:10394000C41C0020941600206C160020001C0240AD
:1039500040120020A4160020801D00202DE9F8430D
:103960000026154FDFF85490DFF85480F4B297F832
:103970002030A34201D8BDE8F8830C252046FDF78E
:1039800079FB05FB0495686803F034FA04F18A03B7
:1039900057F8233098420DD96B78012B0AD158F88B
:1039A00024206B689A4205D000236B7006F0AEFFAE
:1039B00048F824000136D9E7E4090020A8110020C6
:1039C0001C1900202DE9F0472E492F48FCF738FC40
:1039D00028B12E4E306803F00DFAC8284BD8BDE848
:1039E000F08718F804302A49012B2A4D0ED12A4BB2
:1039F0001B5D5BB914236343EA180B4402F1140006
:103A000052F804CB824243F804CBF9D11423634328
:103A100001EB03091D44B9F812206B8A9A4227D0A2
:103A20001E4B53F8240003F0E5F9B0F57A7F13D369
:103A300007EB84031A48D3F89C110EF04BF8B9F841
:103A4000121018480EF046F8698A17480EF042F82E
:103A5000164B012223F814200AF1010A97F82030AE
:103A60005FFA8AF4A342BCD806F050FF3060B6E794
:103A70000E4B0022EEE74FF0000A0D4FDFF83480C6
:103A8000ECE700BF4F380108E5090020440D002095
:103A9000A4160020DC1700209416002044160020F5
:103AA000924301089C430108AA4301086C170020B7
:103AB000E4090020A817002070B5044606F026FF90
:103AC000114A1823114D03FB04239978104B012947
:103AD00012D1104E295546F824000C2606FB04335B
:103AE00058605970182303FB04225378012B04BF3C
:103AF000094B43F8240070BD002129550C2505FB16
:103B0000043398605970EDE7EC1A0020A8170020E4
:103B1000A418002080170020B4170020084B03448D
:103B200010B593F82D300446022B04D0FDF734FA7B
:103B30002046FDF79FFA2046BDE81040FFF7BCBFC6
:103B4000E40900202DE9F74F06460F4606F0DEFE99
:103B50008F4B80461B78DBB18E4DF21C102100206C
:103B6000FCF758FD95F820101FFA80FA05F5CE7283
:103B700000235FFA83F949451CD8874B1B78012B3A
:103B800015D15146854803B0BDE8F04F0DF0A2BFF6
:103B900006F0BCFE42F20F739842DDD980480EF069
:103BA00035F880498048FCF74BFB0028D4D003B09F
:103BB000BDE8F08F52F8040B1C4601335045D8D1B4
:103BC00004F1700B1021721C002005EB8B0BFCF72D
:103BD00021FDDBF8043081B28B4210D07348019193
:103BE0000EF014F8019972480DF074FFDBF8042010
:103BF0005146704803B0BDE8F04F0DF06BBF6E4BFF
:103C00001A68D2061ED51B794B451BD16B48019112
:103C10000DF0FCFF01996A480DF05CFF40F24D1178
:103C2000684895F820A00DF055FF40F24D1195F829
:103C30002030534508D8644801910DF0E7FF019901
:103C40006248A0E7CA46F2E7534BDFF8C0B11B78E1
:103C5000012B0FD11BF80410012908D0022964D0D0
:103C60002B1993F82D30022B61D1594800E05948A7
:103C70000DF0CCFF584B1BF8042053F82410914250
:103C80000AD05649564841F82480564943F8242022
:103C900041F824800DF0BAFF1BF80420524BDFF8E6
:103CA00070B11A555BF8240003F0A4F804F18A03FC
:103CB00055F8233098420ED3484B05EB84054B480A
:103CC00043F82480474BD5F89C114BF8248043F8E7
:103CD00024800DF0FFFE464B812200214BF824800A
:103CE00018460DF0EFFE3A46FFB231460DF0C2FE27
:103CF0000821F21D80F880700020FCF78BFC182250
:103D00003C4B0546484602FB04330122DA703A4B2D
:103D100043F82480FFF702FFE9B24B1E052B34D88D
:103D2000DFE803F009121B21332A3448A0E73448A6
:103D30000DF0D0FE9EE753464A463946304603B062
:103D4000BDE8F04FFEF764BC53464A46394630465C
:103D500003B0BDE8F04FFEF787BE2A4803B0BDE8C8
:103D6000F04F0DF053BF53464A463946304603B034
:103D7000BDE8F04FFFF7DEB953464A4639463046B4
:103D800003B0BDE8F04FFFF74FBC1F48FBE600BF94
:103D900000000020E4090020DE090020F9430108AA
:103DA000B94301084F380108E509002035440108EE
:103DB000514401087344010820120020AB4401085B
:103DC000CC440108DA440108E84401081C45010814
:103DD00057450108394501086C190020F4150020E9
:103DE0008D4501081C160020F4120020A34501088F
:103DF000DC1B00209C1D0020CC150020484501083C
:103E00006C450108BF450108E0450108EC19002098
:103E10004419002070B50024A0B00D467C2206464F
:103E2000214601A80094ADB20DF04CFE2246234677
:103E30009D4291B204D86846FFF784FE20B070BD61
:103E4000F15C20A8F02910FA82F002F1010202BF11
:103E500001339BB2F15C03F1010308BF61F00F0174
:103E60009BB200F8801CE3E710B50024A0B07C22D0
:103E7000214601A800940DF025FE03F01FF908B9B2
:103E800020B010BD03F026F9F42802D0F62809D09E
:103E900094B104F18002631C0DEB020404F8800C61
:103EA000DCB2EAE7611C04F1800311F0FF010DEBC5
:103EB000030404F8800C01D10024DEE70F29DFD9C8
:103EC0006846FFF7A7FFDBE710B50024A0B07C220F
:103ED000214601A800940DF0F5FD1B4B93F822300C
:103EE0009BB11A4B186802F085FF13280DD90320E7
:103EF00006F01AFB48B1032006F02AFB7E2C06D9F7
:103F00008022214612480DF0E5FD20B010BDF428B6
:103F100003D0F6280AD0002CE9D004F18002631CFB
:103F20000DEB020404F8800CDCB2E0E7611C04F144
:103F30008003C9B20DEB03040F2904F8800CE4D907
:103F40006846FFF767FFE0E7E4090020CCA80020FF
:103F5000FC4501082DE9F8431D491E48FCF770F99E
:103F600078BBBDE8F88358F8240002F043FF04F161
:103F70009E0356F8233098421CD958F8243059F83B
:103F800024209A4216D049F8243006EB84031248C4
:103F9000D3F89C110DF09EFD104B0022104D1A55C8
:103FA000182303FB0455286902F024FF28612046EA
:103FB000FFF782FD0137FCB296F82030A342D2D839
:103FC000CFE70027074EDFF82080DFF82090F2E7E8
:103FD0004F380108E5090020254601089416002005
:103FE0009C1D0020E40900206C160020941900207C
:103FF00038B5134D286802F0FDFEB0F57A7F1ED962
:10400000104C1421104B226801FB02330F4A59183F
:1040100053F8040B8B4242F8040BF9D14FF40270B1
:1040200003F016FA23680A4A013392F8202023602D
:10403000934204BF0023236006F068FC286038BD6B
:10404000201A0020981D0020A41600208C1E00209D
:10405000E40900201C4D1D4C08B50AF0E7FB28467A
:1040600008F0E5FA05F0CCF803F0DEFBFCF70EFCF7
:10407000FFF7FAFEFFF728FFFDF728F9FDF79EF896
:10408000FDF7D4F8FFF766FFFFF768FCFEF7F2F9DB
:10409000FEF796F9FEF726FA01F002FAFFF792FC16
:1040A000FFF7A6FF05F030FF23784BB1084B032242
:1040B000054C1A7005F0A8FE204608F0B8FAF9E79A
:1040C00006F0CEFAC9E700BF309B0020DD090020D2
:1040D000260D0020154B5A6F002A1ADB5A6F52002A
:1040E00019D45A6F910018D45A6FD20017D45A6F4E
:1040F000110116D45A6F520115D45B6F13F0007F73
:1041000014BF07200020094A536F43F080735367A0
:1041100070470120F7E70220F5E70320F3E70420CA
:10412000F1E70520EFE70620EDE700BF0038024089
:1041300007289ABF024B53F820000248704700BF7F
:1041400000470108454601082DE9F041194CA068D7
:1041500002F050FE184BD3F83423904227D3B3F823
:1041600028331427154EDD085B07DFF8588018BF89
:10417000013506F0CBFBA060002411480DF046FD90
:10418000AC4204D30A20BDE8F0410DF0BBBC3CB109
:10419000B4FBF7F307FB134313B90A200DF0B2FC8D
:1041A00016F8011B404601340DF094FCE8E7BDE829
:1041B000F08100BFAC250020E4090020BE250020CE
:1041C00020470108AD420108F8B54A4C606802F08A
:1041D00011FE494906464948FCF732F8002800F02C
:1041E0008780474DB5F82633D5F82C2353439E429C
:1041F0000AD3444B62681B689A4205D0424B5A78F6
:1042000095F821339A4207D82378002B35D03F4BBD
:10421000D3F88030002B30D021783D480DF05AFC87
:1042200023783A48D9074FF0000144BF23F0010337
:10423000237023789A074FF0840244BF23F00203CF
:1042400023700DF03FFC3222002132480DF03AFC81
:104250008422002130480DF035FC00232F4A3048DD
:10426000C2E90033284AC2E900332E4AC2E90033CA
:104270000DF0CCFC6268234B1A602B4E306802F0C4
:10428000B9FDD5F83C33984223D9284F3B78012B10
:104290001FD1002426480DF0B9FC842221461B487A
:1042A0003C700DF00FFC322221461A480DF00AFC3A
:1042B0008422214618480DF005FC184B1848C3E924
:1042C0000044114BC3E90044164BC3E900440DF010
:1042D0009DFC306802F08EFDD5F83C33984207D241
:1042E000124B1B78012B03D1BDE8F84004F09EBFB0
:1042F000F8BD00BFAC2500204F380108E5090020BB
:10430000E4090020742300207426002004240020E7
:1043100034470108BC250020F02500207C26002021
:104320006447010884260020782300200024002010
:104330007B47010838B51B4C1B4D606802F05AFDE5
:10434000B5F82633D5F82C235343984204D3174BA2
:104350001A780AB100221A70606802F04BFDD5F895
:10436000383398420BD9124B626819688A4206D0DA
:104370001A6040F20220BDE8384003F069B80D4DE4
:10438000286802F037FDB0F57A7F09D9606802F03D
:1043900031FDB0F5FA6F03D906F0B8FA2860E8E706
:1043A00038BD00BFAC250020E40900207C26002099
:1043B000982600209C260020F8B55E4C5E4D2068B3
:1043C0002B6898420AD006F0A1FA20605B4C5C4A48
:1043D00023785BBB137803F0FE032AE002F00AFDAA
:1043E000B0F57A7FEFD2286802F004FD554BD3F880
:1043F0003C33984219D9544B28681A68824214D029
:10440000186002F0F7FC4FF47A71B0FBF1F14F48FD
:104410000DF060FB29684E480DF05CFB4D4A1378A7
:1044200099075CBF43F002031370F8BD137843F0A3
:104430000103494E317841B143F002031370032B5D
:1044400033D8DFE803F0744E056D03F0FD03F5E7A4
:10445000616873688B423CD0404F3B78012B24D17C
:104460003F480DF037FB71683E480DF033FB0023E9
:104470003D483B700DF0CAFB84223C493C480DF09E
:10448000F9FA3B4B3B4A03F1300C1F461E460832FB
:1044900003CE664542F8080C42F8041C3346F5D1B9
:1044A00033881380D7F880306360264B627893F8A6
:1044B00021339A4297D3274F3B7813F0010692D1CC
:1044C0002D480DF0A3FB3B78667043F001033B7071
:1044D00089E700231F4A6370137823F001031370E8
:1044E000E3E7726863689A4212D024480DF08EFBAD
:1044F00063780133DBB2022B6370D6D91C4BD3F83F
:104500008030002BD1D04FF4027002F0A1FFCCE735
:10451000104A137823F00103137000236370C4E77B
:10452000726863689A42F3D014480DF06FFB6378A9
:104530000133F3E78C260020782300207C2600201E
:1045400071230020E4090020902600205B38010838
:1045500034480108AC250020742600209426002051
:1045600098470108AF470108C64701087C2300208F
:1045700004240020BC2500201D480108F94701083B
:1045800038B5204D204C28460DF040FBB4F82213DE
:104590001E480DF09FFAB4F824131D480DF09AFA46
:1045A00094F820131B480DF095FAD4F830131A48EC
:1045B0000DF090FAD4F8381318480DF08BFAD4F8AF
:1045C0003C1317480DF086FA94F8211315480DF0A6
:1045D00081FAB4F8281314480DF07CFAD4F82C139F
:1045E00012480DF077FAB4F8261311480DF072FA5C
:1045F000D4F834130F480DF06DFA2846BDE8384062
:104600000DF004BB083D0108E40900205A480108E8
:104610007D480108A0480108C3480108E74801088F
:104620000B4901082F490108524901087549010841
:1046300099490108BC49010810B52423104C1149BF
:104640002370012304F1320063703023A3704023F0
:10465000E370C02323714E2363712623A3710DF0F1
:1046600010FC094904F164000DF00BFC074904F14A
:1046700096000DF006FC064B04221A7010BD00BF18
:10468000891F0020E0320108443301084E3301083D
:10469000881F00200D4B2DE9F041074693F800805C
:1046A0000B4C0026F5B2A84501D8FF250BE02046AB
:1046B0000136FBF7CFFD21460246384632340DF075
:1046C000C9F90028EED12846BDE8F081881F0020F6
:1046D000891F002030B500259BB06022294602A822
:1046E00001950DF0EFF9664B186802F083FB09287D
:1046F0000AD81BB030BD002005F02AFF04F1680382
:104700000DEB030404F8640C0020ECB205F00CFF80
:1047100001350028EFD1002CEBD004F1680301A98A
:104720006B4403F8640C57480DF0D4F9214601A8F6
:10473000FFF7B0FF0C2800F2A080DFE800F0070EC2
:104740002A37424C56606A747E8994004E4B01228F
:104750004E481A700DF05AFACBE704F167034C4942
:104760004C480DEB030414F8642C303A0DF0B2F908
:1047700014F8643C303BDBB2022B06D8464A137077
:1047800040F2052002F064FEB3E744480DF03EFA23
:10479000F6E7434943480DF09DF943480DF036FADA
:1047A000424A136843F001031360E9E740493D487A
:1047B0000DF090F93F480DF029FA3C4B02221A60A7
:1047C000DEE73D4937480DF085F93C480DF01EFA0B
:1047D000364B0422F3E73A4932480DF07BF9394869
:1047E0000DF014FA314B0822E9E737492D480DF056
:1047F00071F936480DF00AFA2C4B1022DFE73449E4
:1048000028480DF067F933480DF000FA274B2022B5
:10481000D5E7314931480DF05DF931480DF0F6F931
:10482000224B4022CBE72F491E480DF053F92E486A
:104830000DF0ECF91D4B8022C1E72C4919480DF011
:1048400049F92B480DF0E2F9184B4FF48072B6E7A6
:10485000284914480DF03EF927480DF0D7F9134BBD
:104860004FF40072ABE725490E480DF033F92448A8
:104870000DF0CCF90D4B0022A1E708486AE700BF14
:1048800048A7002053330108DD09002069330108DF
:10489000BB1F0020A9330108DE090020BB3301083B
:1048A000ED1F00203B340108D2550108443300209D
:1048B0001F20002050560108512000208E5601086C
:1048C00083200020C4560108B5200020FC560108B2
:1048D000E7200020F6530108192100204834010880
:1048E000E04901084B210020F34901087D21002007
:1048F00064550108AF2100200B4A0108E121002086
:10490000284A010830B50024064D824201D82046CD
:1049100030BD0B5C01306340DBB255F8233083EAD5
:104920001424F2E7C04D01082DE9F0410027CCB076
:1049300004464FF49472394602A80DF0C3F801AD55
:10494000264E532322460DF117002B7006F1160157
:104950007388A5F80130B388A5F80330B3796B717B
:10496000E223AB71B37A6B72D6F80B30CDF80E3010
:10497000B6F80F30ADF81230737C8DF81430B38A6E
:10498000A5F811300DF076F804F11300224606F177
:104990009601134E1FFA80F815FA80F00DF06AF8B0
:1049A000294644443846A4B2E31E2F55A21C0634BF
:1049B000A5F8073092B2A4B2FFF7A4FFA850BBB28B
:1049C0009C4202D84CB0BDE8F08115F8011B0137BC
:1049D00096F8200305F0E0FDF1E700BF88240020F1
:1049E000E409002070B5FFF78DFF8958044688421E
:1049F00008D005480DF06EF8214604480DF06AF81D
:104A0000002070BD0120FCE7324A0108494A010834
:104A10002DE9F84381460F460026DFF8FC80394D2A
:104A2000484605F081FD0446002857D0484605F069
:104A30008FFD98F80030013B042BF1D801A252F809
:104A400023F000BF594A0008694A0008214A0008BB
:104A5000814A00089F4A00085328E1D101232B8096
:104A6000022388F80030DBE72B88082B04D10923C8
:104A700038722B800423F4E7F85401332B80CFE7FE
:104A80002B880121FA1832F8026C1F4AF8540B44A3
:104A9000118002222B801D4B1A800523E1E71A4A60
:104AA0002C8813883855B34228D2013317499BB25A
:104AB0001380621CB3422A800A8802F101020A8034
:104AC000AED1033C00260123A4B22E8088F800302A
:104AD000042C06D834460E480DF098F82046BDE860
:104AE000F883224639463046FFF77CFF054600280A
:104AF000F4D108482C460DF089F8EFE70026012391
:104B00002E80AEE7A2260020A0260020A4260020AA
:104B1000614A0108674A01080B0000202DE9F04FA7
:104B20000024ADF53D7D4FF49472954F214672A857
:104B300071940CF0C7FF7C22214609A808940CF060
:104B4000C1FF4FF4967271A997F82003FFF760FF39
:104B5000052805463FD94FF480718A4871AEDFF8C9
:104B600048924FF00A0807F0AEF987480DF04EF86A
:104B7000013416F8011B4846A4B20CF0ABFFA54265
:104B80001ED10A200CF0BEFF4FF49272002128A81B
:104B90000CF098FF9DF8C431BDF8C5818DF8A030A8
:104BA000B7F82433ADF8A48043451AD077480DF008
:104BB0002DF84246B7F8241375480CF08BFF0CE033
:104BC000B4FBF8F308FB13439BB2002BD0D10A20AF
:104BD0000CF098FFCCE70028D6D10DF53D7DBDE85F
:104BE000F08FBDF8C791B7F82233ADF8A2904B45CE
:104BF00006D068480DF00AF84A46B7F82213DBE7FA
:104C00009DF8C961AA2E8DF8A66006D0BB2E04D0EF
:104C1000314661480CF05EFFDFE79DF8CA11E129DB
:104C20008DF8A71001D05D48F4E7BDF8CB319DF8B1
:104C3000D5110593ADF8A83011299DF8CD318DF827
:104C4000B21006938DF8AA30DDF8CE31CDF8AB3036
:104C5000BDF8D231ADF8AF309DF8D4318DF8B13018
:104C600001D04F48D6E7BDF8D651B5F5806FADF805
:104C7000B45002D929464B48CCE7B7F82813A942CB
:104C800044D16B074FEAD5044BD108AF224676A931
:104C90000DF1B6000CF0EEFE76AB3846002291B274
:104CA0008C4241D8630004F114020DF59B7A0DF596
:104CB000E27E9BB292B2D44603F1150080B2511C41
:104CC00089B2884237D103F1140B224608A90DF5A9
:104CD0009B7004931FFA8BFB0CF0BCFE049B0790A7
:104CE00000283CD00025304E30480CF08FFFABB28E
:104CF0009C4226D800252C4E2D480CF087FFABB2E5
:104D00009C4225D82B480CF081FF66E72A462A48AA
:104D10000CF0E0FE29492A48FBF792FA0028B0D1AE
:104D20005BE70134A4B2B0E713F8011B0132C943B9
:104D300000F8011BB3E71EF802200CF8012B0A460D
:104D4000BDE71AF8011B304601350CF0C3FECEE773
:104D500017F8011B304601350CF0BCFECFE771A9F6
:104D60005A4612200493FFF7CDFD51F80B20074659
:104D7000049B90426E9227D0014612481DE700BF67
:104D8000E4090020001C02406F4A0108794A01082A
:104D9000AB4A0108CC4A0108F94A01082F4B010827
:104DA000644B0108A84B0108AD420108324C0108D0
:104DB0007E4C0108A14C0108F84B01084F3801084E
:104DC000E5090020B24C01081833DFF89CB1DFF888
:104DD0009CA19BB2CB5AADF8BC3105F097FD28A938
:104DE0004FF49272CAF8040058460CF043FE4C4B44
:104DF000012220465F604B4F1A70FFF795FD224657
:104E00000DF1B60138460CF035FEDBF81831DFF84D
:104E100060B12246394604935846C7F880300CF0FA
:104E200019FE18B32246394658460CF023FE049B5F
:104E3000302207993C48CBF880300CF043FE2246E4
:104E4000394639480CF016FE05F060FDCAF8080036
:104E500036480CF0DBFE40F2022002F0F9FA344B47
:104E60005B681BB94FF4027002F0F2FA31480CF0A3
:104E7000CDFE414630480CF02DFE49462F484FF0FC
:104E800000090CF027FE31462D480A260CF022FEC0
:104E9000E1212C480CF01EFE05992B480CF01AFE5F
:104EA00006992A480CF016FE9DF8B1309DF8AD2009
:104EB00002939DF8B0309DF8AE1001939DF8AF308D
:104EC000234800939DF8AC300CF004FE11212148DA
:104ED0000CF000FE204F29462048124D0CF0FAFD40
:104EE000DFF890801E480CF0F5FD1FFA89F39C4214
:104EF00004D80A200CF006FE1A4804E743B1B3FBBD
:104F0000F6F206FB12339BB213B938460CF0E2FD01
:104F100015F8011B404609F101090CF0DBFDE4E73F
:104F20007C26002004240020BE250020F24C01082D
:104F300074260020094D0108304D0108384D010844
:104F4000404D0108494D0108524D01085A4D0108D4
:104F5000624D0108844D0108A94D01088D4D0108DD
:104F6000954D01080A4D010888240020AC25002039
:104F7000F0250020AD420108134D144C08B504F093
:104F8000C3FF02F051FC04F03BF9284607F04FFB49
:104F9000FFF7C4FDFFF7D8F8FFF716F9FFF7CAF9D6
:104FA000FFF70AFAFFF796FB23784BB1084B032271
:104FB000054C1A70204607F03AFB04F025FFF9E78C
:104FC00005F04EFBDBE700BF309B0020DD09002031
:104FD000260D00202DE9F34707460C4690463B4E30
:104FE000DFF80491FDB2284605F09EFA48B34FF071
:104FF000010A374889F800A007F019FB284605F098
:10500000A7FA054605F02CFB3278324B022A09D06C
:10501000032A51D0524547D1242D45D125701A80FD
:1050200002223BE0242D36D0262D03D0052D37D18A
:10503000032233E01F880022BD1E1A802DB2954244
:1050400004DA0026304602B0BDE8F08705F1010819
:1050500086F800A0625D294614F808301E480093C7
:1050600043460CF037FD2946204603F0C9FE0646AC
:1050700038B114F808203EB2615D18480CF02AFDE2
:10508000E0E717480CF026FD14F80820615D15488C
:105090000CF020FDD6E72570A3F800A0327003E0E5
:1050A0001A88A55401321A801A8842459AD30122DF
:1050B000327000221A8093E705F0FD02242A01D005
:1050C000052DADD11A88A5540132A8E70D000020A6
:1050D000309B0020A8260020C0510108E55101089E
:1050E000F7510108EC5101082C0D0020F0B5002308
:1050F00085B0044640F2DB56ADF80C30154FCDE9D3
:1051000001338DF80610042124238DF807200DEBC0
:1051100001008DF8043003F097FE26239DF8092046
:105120009DF808100C488DF80A300CF0D3FC05F0FF
:10513000EDFB0546284601F05DFEB04206D9062289
:1051400001A9204605F05AFA05B0F0BD384607F02F
:105150006EFAEFE7309B00200152010830B585B0B0
:1051600000240A22054601A9ADF80C40CDE901440E
:10517000FFF730FFA04216DD9DF80530F3B99DF82A
:105180000640012C12D19DF80740012C16D10E4883
:105190000CF03CFD022221462846FFF7A7FF05F050
:1051A000B5FB0A4B1860204605B030BD022C05D176
:1051B0009DF80730012B01D10548E9E70548002497
:1051C0000CF024FDEFE700BF1C520108280D002061
:1051D000325201084A5201082DE9F84307460D46AC
:1051E0009046344EDFF8E090FCB2204605F09CF982
:1051F00028B3204605F0ACF9044605F031FA4846DC
:1052000007F015FA32782C4B022A09D0032A47D02E
:10521000012A3DD1242C3BD12C701A80022231E08E
:10522000242C2CD0262C03D0052C2DD1032229E0B0
:105230001F880022BC1E1A8024B2944203DA002682
:105240003046BDE8F88301232146284604F10108D1
:10525000337003F0D5FD064638B115F808203EB28C
:10526000295D16480CF036FCEAE715480CF032FCD4
:1052700015F80820295D13480CF02CFCE0E701210B
:105280002C701980327003E01A88AC5401321A80F5
:105290001A884245A8D30122327000221A80A1E761
:1052A00004F0FD02242A01D0052CB7D11A88AC5491
:1052B0000132B2E70C000020A62600205A52010855
:1052C000F751010812520108309B0020030900F039
:1052D0000F0003EB830300EB4300C0B270470A22C8
:1052E000B0FBF2F302FB130000EB0310C0B27047F7
:1052F000064B5A79092A06D9187928B1D878003886
:1053000018BF012070470020704700BFAA26002068
:105310002DE9F041072386B04FF47A7100221E4830
:105320000492CDF81320CDE9013104ABD0210093D4
:10533000012307F025F89DF81080184A4046FFF732
:10534000C5FF9DF8117090703846FFF7BFFF9DF8BC
:10535000126050703046FFF7B9FF9DF8145010707E
:105360002846FFF7B3FF9DF81540D0702046FFF7A1
:10537000ADFF9DF8161010710846FFF7A7FF084B08
:10538000507183F802805F701E70DD701C7159715E
:1053900006B0BDE8F08100BF889A0020BA26002040
:1053A000B4260020F0B587B0002605AF0496ADF80E
:1053B0001460BE70FFF79CFF20B935480CF026FC46
:1053C00007B0F0BD33490124334B4FF47A75887828
:1053D0001C70FFF784FF8DF810004878FFF77FFFFF
:1053E0008DF811000878FFF77AFF8DF81200C87861
:1053F000FFF775FF8DF813000879FFF770FF8DF840
:1054000014004879D021FFF76AFF04AB32468DF8CB
:105410001500009323462148CDE9014506F0D6FE4C
:105420000DF111032246D021009323461B48CDE9FC
:10543000014506F0CBFE0DF112030222D0210093AC
:1054400023461648CDE9014506F0C0FE0DF11303D1
:105450000422D021009323461048CDE9014506F0EF
:10546000B5FE23460522D02100970C48CDE9014521
:1054700006F0ACFE0DF115030622D0210093234661
:105480000648CDE9014506F0A1FEFFF741FF97E789
:105490006B520108AA2600200C130020889A0020D5
:1054A00010B5064C206801F0A5FCB0F57A7F04D356
:1054B000FFF72EFF05F02AFA206010BDB02600206D
:1054C00038B54B0801380024023B9BB29D1CA2B2A8
:1054D000934201D801200BE010F8011F0134425D16
:1054E000D243D2B29142F2D002480CF0F3FA00203B
:1054F00038BD00BF8A520108F0B5C9000025064634
:105500004FF0010C8CB22B462846A9B28C4200D831
:10551000F0BDCF0801F00701072913D0F75D47FA66
:1055200001F1C90744BF175C0CFA03F103F1010351
:1055300048BF3943DBB248BF1154082B02BF0130CA
:10554000002380B20135E0E7F8B52A4C2A4D6068A7
:1055500001F050FCD5F81833984235D92188274EF0
:10556000274FB1F5807F33783A782ED1012B34D193
:10557000012A2CD1234931F8042B23480CF07AFA64
:10558000D5F81C337A889A4208D37288934205D89A
:105590004FF4007200211C480CF094FAB5F8FE227A
:1055A0001A49D30852071A4A18BF01331948138001
:1055B000FAF746FE28B163781BB940F2191001F0E2
:1055C00047FF05F0A3F96060F8BD012B05D152B982
:1055D0006378012B07D11049CDE7012A03D113B914
:1055E0006378012BC6D04FF40072002106480CF0FE
:1055F00069FAC5E7D02A0020E4090020C22A002069
:1056000076480020EC2A00207C4800204F38010812
:105610007A480020E5090020F02C002010B50A4C43
:10562000A06801F0E7FB094BD3F80833984209D989
:10563000074B002240F202205A7001F009FF05F0EA
:1056400065F9A06010BD00BFD02A0020E409002049
:105650007648002038B5114B114DD868114C60B117
:1056600001F0C8FBD5F81433984206D9237823B14A
:105670000D480CF0CBFA00232370D5F81C33628858
:105680009A420AD9094A5288934206D2237823B112
:1056900007480CF0BBFA0023237038BDD02A002045
:1056A000E409002076480020BF520108C22A0020E9
:1056B000DC52010810B5074C206901F09BFBB0F5E6
:1056C0007A7F06D94FF4027001F0C2FE05F01EF990
:1056D000206110BDD02A002010B5104C606901F087
:1056E00089FBB0F5FA7F17D90D4B1B784BB90D4BE1
:1056F0001B78012B05D14FF401720B490B480CF0BC
:10570000B9F9094B094A5B8852889B1A18BF0123D3
:10571000237005F0FBF8606110BD00BFD02A0020A7
:1057200076480020C22A0020F02C0020EC2A00201D
:1057300010B5114C6378012B01D103F077FDA069FE
:1057400001F058FB0D4BD3F80C33984212D30C4B9D
:10575000A0691A6890420DD000221860627001F0B2
:1057600049FB4FF47A71BDE81040B0FBF1F10548F8
:105770000CF0B0B910BD00BFD02A0020E409002011
:10578000BC2A00205B38010810B52423294C2A4983
:105790002370012304F1320063703023A37040238F
:1057A000E370C02323714E2363712623A3710CF091
:1057B00068FB224904F164000CF063FB204904F10A
:1057C00096000CF05EFB1F4904F1C8000CF059FB79
:1057D0001D4904F1FA000CF054FB1C4904F59670C5
:1057E0000CF04FFB1A4904F5AF700CF04AFB194955
:1057F00004F5C8700CF045FB174904F5E1700CF096
:1058000040FB164904F5FA700CF03BFB144904F216
:1058100026200CF036FB134904F516700CF031FB12
:10582000114904F28A200CF02CFB104B0E221A7046
:1058300010BD00BFC7260020E0320108D255010884
:10584000505601088E560108C4560108FC5601083E
:10585000FF520108E0490108F349010864550108B5
:105860000B4A0108443301084E330108C6260020C4
:105870000D4B2DE9F041074693F800800B4C0026B4
:10588000F5B2A84501D8FF250BE020460136FAF70E
:10589000E1FC21460246384632340CF0DBF80028A1
:1058A000EED12846BDE8F081C6260020C72600209C
:1058B00030B500259BB06022294602A801950CF066
:1058C00001F9664B186801F095FA09280AD81BB04F
:1058D00030BD002004F03CFE04F168030DEB03042E
:1058E00004F8640C0020ECB204F01EFE0135002820
:1058F000EFD1002CEBD004F1680301A96B4403F84D
:10590000640C57480CF0E6F8214601A8FFF7B0FFF9
:105910000C2800F2A080DFE800F0070E2A37424C86
:1059200056606A747E8994004E4B01224E481A706C
:105930000CF06CF9CBE704F167034C494C480DEBD4
:10594000030414F8642C303A0CF0C4F814F8643CE6
:10595000303BDBB2022B06D8464A137040F20520DA
:1059600001F076FDB3E744480CF050F9F6E74349FF
:1059700043480CF0AFF843480CF048F9424A13682A
:1059800043F001031360E9E740493D480CF0A2F8F9
:105990003F480CF03BF93C4B02221A60DEE73D49E0
:1059A00037480CF097F83C480CF030F9364B04229D
:1059B000F3E73A4932480CF08DF839480CF026F9F3
:1059C000314B0822E9E737492D480CF083F8364877
:1059D0000CF01CF92C4B1022DFE7344928480CF05E
:1059E00079F833480CF012F9274B2022D5E73149DA
:1059F00031480CF06FF831480CF008F9224B402286
:105A0000CBE72F491E480CF065F82E480CF0FEF845
:105A10001D4B8022C1E72C4919480CF05BF82B483C
:105A20000CF0F4F8184B4FF48072B6E7284914488C
:105A30000CF050F827480CF0E9F8134B4FF40072C3
:105A4000ABE725490E480CF045F824480CF0DEF889
:105A50000D4B0022A1E708486AE700BF48A70020D5
:105A600053330108DD09002069330108F9260020BD
:105A7000A9330108DE090020BB3301082B270020D1
:105A80003B340108D2550108443300205D27002033
:105A9000505601088F2700208E560108C12700208C
:105AA000C4560108F3270020FC56010825280020D1
:105AB000F65301085728002048340108E04901083E
:105AC00089280020F3490108BB28002064550108FB
:105AD000ED2800200B4A01081F290020284A010850
