:020000040800F2
:100000000000082095C600086DBF00086FBF0008FB
:1000100071BF000873BF000875BF00080000000032
:1000200000000000000000000000000077BF000892
:1000300079BF0008000000007BBF00087DBF0008FA
:10004000E5C60008E5C60008E5C60008E5C60008E4
:10005000E5C60008E5C6000881BF000887BF0008A4
:10006000E5C60008E5C60008E5C60008E5C60008C4
:10007000E5C60008E5C60008E5C60008E5C60008B4
:10008000E5C60008E5C60008E5C60008E5C60008A4
:10009000E5C60008E5C60008E5C60008E5C6000894
:1000A000E5C60008E5C60008E5C60008E5C6000884
:1000B000E5C60008E5C600088DBF0008E5C60008D3
:1000C000E5C60008E5C60008E5C60008E5C6000864
:1000D000E5C6000899BF0008E5C60008E5C60008A7
:1000E000E5C60008E5C60008E5C60008E5C6000844
:1000F000E5C60008E5C60008E5C60008E5C6000834
:10010000E5C60008E5C60008A5BF0008E5C600086A
:10011000B1BF0008BDBF0008C9BF0008D5BF0008B7
:10012000E5C60008E5C60008E5C60008E5C6000803
:10013000E5C60008E1BF0008E5C60008E5C60008FE
:10014000EDBF0008F9BF0008E5C60008E5C60008D5
:10015000E5C60008E5C60008E5C60008E5C60008D3
:10016000E5C60008E5C60008E5C60008E5C60008C3
:10017000E5C60008E5C60008E5C600080000000066
:10018000E5C60008E5C60008FDBF0008E5C6000892
:10019000E5C60008E5C60008E5C60008E5C6000893
:1001A000E5C60008E5C60008E5C60008E5C6000883
:1001B000E5C60008E5C60008E5C60008E5C6000873
:1001C000E5C60008E5C60008E5C60008E5C6000863
:1001D000E5C60008E5C60008E5C60008E5C6000853
:1001E000E5C6000809C0000815C00008E5C60008FB
:0801F000E5C60008E5C60008A1
:1002000010B5054C237833B9044B13B10448AFF350
:1002100000800123237010BDD801002000000000E1
:100220002452010808B5034B1BB103490348AFF33F
:10023000008008BD00000000DC01002024520108FD
:1002400010F8012B11F8013B012A28BF9A42F7D080
:10025000D01A7047034613F8012B002AFBD1181A55
:10026000013870470000000000000000000000009E
:1002700001F0FF01102A2BDB10F0070F08D010F857
:10028000013B013A8B422DD010F0070F42B3F6D15B
:10029000F0B441EA012141EA014122F007047FF074
:1002A00000070023F0E80256083C85EA010586EACB
:1002B000010685FA47F5A3FA87F586FA47F6A5FA07
:1002C00087F68EB9EED1F0BC01F0FF0102F0070213
:1002D00032B110F8013B013A83EA010313B1F8D1BE
:1002E0000020704701387047002D06BF354603389F
:1002F000073815F0010F07D1013015F4807F02BFD8
:10030000013015F4C03F0130F0BC0138704700BF28
:1003100053B94AB9002908BF00281CBF4FF0FF316C
:100320004FF0FF3000F074B9ADF1080C6DE904CE68
:1003300000F006F8DDF804E0DDE9022304B07047C0
:100340002DE9F047089D04468E46002B4DD18A4288
:10035000944669D9B2FA82F252B101FA02F3C2F1BB
:10036000200120FA01F10CFA02FC41EA030E94404C
:100370004FEA1C48210CBEFBF8F61FFA8CF708FB6D
:1003800016E341EA034306FB07F199420AD91CEB45
:10039000030306F1FF3080F01F81994240F21C8177
:1003A000023E63445B1AA4B2B3FBF8F008FB1033BF
:1003B00044EA034400FB07F7A7420AD91CEB0404F4
:1003C00000F1FF3380F00A81A74240F207816444C4
:1003D000023840EA0640E41B00261DB1D440002349
:1003E000C5E900433146BDE8F0878B4209D9002DAD
:1003F00000F0EF800026C5E9000130463146BDE837
:10040000F087B3FA83F6002E4AD18B4202D38242A0
:1004100000F2F980841A61EB030301209E46002D4F
:10042000E0D0C5E9004EDDE702B9FFDEB2FA82F2A4
:10043000002A40F09280A1EB0C014FEA1C471FFA02
:100440008CFE0126200CB1FBF7F307FB131140EAE9
:1004500001410EFB03F0884208D91CEB010103F1B6
:10046000FF3802D2884200F2CB804346091AA4B278
:10047000B1FBF7F007FB101144EA01440EFB00FE4C
:10048000A64508D91CEB040400F1FF3102D2A645B1
:1004900000F2BB800846A4EB0E0440EA03409CE750
:1004A000C6F12007B34022FA07FC4CEA030C20FAFD
:1004B00007F401FA06F31C43F9404FEA1C4900FA1D
:1004C00006F3B1FBF9F8200C1FFA8CFE09FB18119A
:1004D00040EA014108FB0EF0884202FA06F20BD90D
:1004E0001CEB010108F1FF3A80F08880884240F25D
:1004F0008580A8F102086144091AA4B2B1FBF9F0A1
:1005000009FB101144EA014100FB0EFE8E4508D99B
:100510001CEB010100F1FF346CD28E456AD9023820
:10052000614440EA0840A0FB0294A1EB0E01A14205
:10053000C846A64656D353D05DB1B3EB080261EB73
:100540000E0101FA07F722FA06F3F1401F43C5E94D
:10055000007100263146BDE8F087C2F12003D84083
:100560000CFA02FC21FA03F3914001434FEA1C47C5
:100570001FFA8CFEB3FBF7F007FB10360B0C43EAB7
:10058000064300FB0EF69E4204FA02F408D91CEB67
:10059000030300F1FF382FD29E422DD90238634465
:1005A0009B1B89B2B3FBF7F607FB163341EA034105
:1005B00006FB0EF38B4208D91CEB010106F1FF3854
:1005C00016D28B4214D9023E6144C91A46EA00464B
:1005D00038E72E46284605E70646E3E61846F8E6DD
:1005E0004B45A9D2B9EB020864EB0C0E0138A3E726
:1005F0004646EAE7204694E74046D1E7D0467BE707
:10060000023B614432E7304609E76444023842E77E
:10061000704700BF10B54418A4B2082C12D8C0F11E
:100620000700002380B2127842EA0322C1F10103DD
:100630001844134B80B253F821308340134023FAFF
:1006400000F010BD102C08D8C0F10F00002480B2BB
:1006500012F8013B43EA0423E5E7182C137887BF1F
:1006600001321C46C0F11700002488BFC0F11F00F2
:1006700012F8013B94BF80B280B243EA0424E7E75A
:1006800040520108F0B54518ADB2082D24D8C0F18C
:10069000070014460125002680B22478032D44EA81
:1006A0000624214E56F82160C1F10101084403EAF5
:1006B000060380B206FA00F103FA00F024EA010111
:1006C00040EA01002CD0042D27D0022D02D1030ACC
:1006D00002F8013B1070F0BD102D0AD8C0F10F00D8
:1006E00014460225002780B214F8016B46EA07265B
:1006F000D3E7182D17780AD8C0F117001446032540
:10070000002780B214F8016B46EA0727ECE7C0F136
:100710001F00541C042580B2F4E7030E02F8013BCD
:10072000030C02F8013BD2E74052010810B5242324
:100730001C4C1D492370012304F1320063703023E7
:10074000A3704023E370C02323714E2363712623DB
:10075000A37113F088FB154904F1640013F083FBC7
:10076000134904F1960013F07EFB124904F1C8000E
:1007700013F079FB104904F1FA0013F074FB0F49F0
:1007800004F5967013F06FFB0D4904F5AF7013F08C
:100790006AFB0C4904F5C87013F065FB0A4B09228B
:1007A0001A7010BDF9010020C4520108CF5201088F
:1007B000DF520108EF5201080253010815530108E6
:1007C0002853010832530108F801002007B54FF6FD
:1007D000FF7301A90190012207480FF05AFE074B51
:1007E0000222186800238068194613F047FA01981E
:1007F00003B05DF804FB00BF50C6002034000020A9
:1008000010B508210E480DF045FB1021B0FA80F418
:100810000B480DF03FFB00284FEA54144FF40051F1
:100820000CBF02200020044306480DF033FB0028D3
:10083000054B0CBF0420002004431C7010BD00BFFA
:1008400000280240002002409C1000200D4B2DE9A2
:10085000F041074693F800800B4C0026F5B2A845FE
:1008600001D8FF250BE020460136FFF7F3FC2146B7
:1008700002463846323413F0DFF80028EED128461D
:10088000BDE8F081F8010020F901002030B5002515
:100890009BB06022294602A8019513F005F96B4B25
:1008A000186806F083FF09280AD81BB030BD002065
:1008B0000BF040FE04F168030DEB030404F8640C34
:1008C0000020ECB20BF022FE01350028EFD1002C05
:1008D000EBD004F1680301A90DEB030505F8640CE6
:1008E0005B4813F0E9F8214601A8FFF7AFFF09289C
:1008F00000F2A980DFE800F0050C284359718191CE
:100900009A9F544B012254481A7013F071F9CCE7A6
:1009100004F16703514952480DEB030414F8642CA9
:10092000303A13F0C9F814F8643C303BDBB2012BC9
:1009300006D84C4A137040F2052007F089FAB4E754
:10094000494813F055F9F6E704F167034749484869
:100950000DEB030414F8642C303A13F0ADF845485D
:1009600013F046F9444B14F8642C1968303A41F0FE
:1009700010011A711960414813F09EF8DBE704F189
:1009800067033F493A480DEB030414F8642C303AEE
:1009900013F092F83B4813F02BF914F8643C364AF4
:1009A0002021303B11601371E5E704F167033649FC
:1009B0002F480DEB030414F8642C303A13F07CF844
:1009C000324813F015F92C4B1A6842F400721A6081
:1009D00014F8642C303A1A71ADE704F167032C491E
:1009E00023480DEB030414F8642C303A13F064F838
:1009F000214B1A6842F00102E9E704F16703254937
:100A00001B480DEB030414F8642C303A13F054F82F
:100A1000194B1A6842F00202D9E71F491F4813F028
:100A20004BF80022144B1A60FF22D4E71C491D48E2
:100A300013F042F839E715F8652C1B49303A0C4899
:100A400013F03AF831E708485FE700BFB8B4002078
:100A500037530108E60900204D5301082B020020FE
:100A60008D530108E70900209F5301085D02002013
:100A7000B9530108D253010868160020E153010858
:100A80008F020020F4530108C10200200454010821
:100A9000F302002025030020570300201F54010803
:100AA000890300202C540108BB03002070B50E4CB4
:100AB000206806F07BFEB0F57A6F14D90B4D0C4E12
:100AC0002B8832889A420BD053B10A4813F090F821
:100AD0003188094812F0F0FF2988084812F0ECFF2D
:100AE0000BF006FF206070BDF4010020E209002039
:100AF000E4090020415401086354010872540108BC
:100B00002DE9F04105460BF0F3FE2F4B06465A192E
:100B100092F82D20022A16D018222C4C6A43144435
:100B200094F80380B8F1000F1ED129490A44D67801
:100B30005EB922793AB103EB85032648D3F89C11BC
:100B400012F0BAFF2671BDE8F081012EFBD12279A7
:100B5000002AF8D003EB85031F48D3F89C1112F04C
:100B6000ABFF84F80480EEE7B8F1010FEBD1184930
:100B70000A44D7788FB92279012AE4D003EB8503A0
:100B80001648D3F89C1112F097FF154B276143F8D4
:100B90002560144B43F82560E3E7012FD3D1227978
:100BA000012AD0D003EB85030F48D3F89C1112F033
:100BB00083FF0B4B277143F825600A4B43F82560F0
:100BC00000232361BFE700BF440D00208C220020DA
:100BD000D41F002082540108BC540108F5540108B8
:100BE000441A00206C1A00202D5501082DE9F84305
:100BF000DFF83C81044608EB000393F82D30022B0C
:100C000072D018223C4D3D4E4243A91832448B68A5
:100C10009268934231D082B30979012902D13849CF
:100C2000095C51BB9B1A374A002BB8BF5B42012BB2
:100C300002D1135D032B59D1182700233248674393
:100C4000135508EB840305EB07093744D3F89C11CF
:100C500012F032FFD9F808102C4812F02DFFB968B5
:100C60002B4812F029FF2B4812F0C2FF2A4BBA681A
:100C700003EB0413C9F808209A6018226243A918EC
:100C80003244CB68D26893422ED06AB309790129E5
:100C900002D11B49095D39BB9B1A204A002BB8BF02
:100CA0005B42012B02D1135D032B22D118270023B5
:100CB00008EB84081A48674313553D44D8F89C1143
:100CC0003E4412F0F9FEE968164812F0F5FEF168AC
:100CD000154812F0F1FE154812F08AFF0E48F3682D
:100CE00000EB0414EB60E360BDE8F88301331355B7
:100CF000C3E701331355F7E78C220020D41F0020EF
:100D000032170020EC10002067550108A955010892
:100D1000CD550108F155010888160020F610002075
:100D2000195601085B5601087F560108A3560108B1
:100D3000440D0020F8B50024164D174FE6B295F883
:100D40002030B34224D957F82600013406F02EFD96
:100D5000D5F818329842F1D91823104900220C20F6
:100D600073430F4DCC18CE5462700E4A00FB06221E
:100D70005278A2700FCC0FC594E8030085E80300F9
:100D800040F2012007F064F80BF0B2FD47F82600AE
:100D9000F8BD00BF440D0020B42100208C220020AB
:100DA00070220020F015002038B505460024E3B27B
:100DB0000134E95C01B938BD00200BF0DFFBF6E738
:100DC000F0B5ADF5057D0E4600210446174605A891
:100DD0004FF4FE72049112F067FE76B34F48FFF7AE
:100DE000E3FF621C10210020FFF714FC4C4902466F
:100DF00004A813F009F804A8FFF7D6FFE21C10219D
:100E00000020FFF707FC4749024604A812F0FCFF48
:100E100004A8FFF7C9FFE21D08210020FFF7FAFB35
:100E200005464148FFF7C0FFE8B20138052866D8FB
:100E3000DFE800F0055F656165633C48CFE7002EA1
:100E400055D03B48FFF7B0FF3A48FFF7ADFF621DB2
:100E500008210020FFF7DEFB3749024604A812F004
:100E6000D3FF04A8FFF7A0FFA21D08210020FFF771
:100E7000D1FB3249024604A812F0C6FF04A8FFF7CE
:100E800093FF04F1080210210020FFF7C3FB2C4957
:100E900082B2054604A812F0B7FF04A8FFF784FF4A
:100EA000AB062ED5E37B04A8A27A0393A37B254946
:100EB0000293637B0193237B0093E37A12F0A4FFF8
:100EC00004A8FFF771FF204B1B78012B0CD127449E
:100ED0001E4DBC4217D13EB9F6221C4904A812F09F
:100EE00093FF04A8FFF760FF0DF5057DF0BD1848DE
:100EF000A8E71848A6E71848A4E71848A2E7184842
:100F0000A0E71848DDE714F8012B294604A812F0E1
:100F10007BFF04A8FFF748FFDBE700BFCB560108C3
:100F2000D3560108DB560108E3560108CF560108E5
:100F3000E7560108CD560108125701081C57010851
:100F40002657010830570108E7090020956201087B
:100F5000EE560108F5560108F9560108FD5601083C
:100F600001570108525701082DE9F0439BB006468E
:100F70000F460021154602A86022019112F094FD4F
:100F80003378B4464FF0F00E8DF804300123184644
:100F90005C1C03F16802B842E4B20DEB020151D3CC
:100FA000F623DFF8F09001F8643C19F80530012BC6
:100FB0000AD1334B93F8803033B9324B1B78012B75
:100FC00002D13148FFF7F0FEDFF8CC8008EB0503D3
:100FD00093F82D30012B09D12C4B214601A853F851
:100FE000252006F01FFD002309F80530454495F83B
:100FF0002D30022B06D10DF104080025A4B2ABB2AE
:101000009C4236D81F4D2B78012B02D11E48FFF78A
:10101000CBFE1B4C94F8802032B101212046FFF713
:10102000CFFE002384F880303A4600213046FFF797
:10103000C7FE2B78012B02D11548FFF7B5FE1BB078
:10104000BDE8F0831CF8012F0130EF2AC0B281BF48
:1010500001F864EC04F16801023302F00F0289BF69
:101060000DEB010401F8642C04F8642CDCB2234677
:101070008EE718F8011B032001350BF07FFABEE75D
:10108000C4200020E709002065570108DC1E00206D
:10109000C3570108A0210020440D00202DE9F04392
:1010A000002791B0044638223946DFF8D89202A8CA
:1010B000019712F0F9FCF42301AA082138469F4E4B
:1010C000FFF7E0FA0DF1050209EB84031021384621
:1010D000D3F89C31FFF7D6FA0DF1070209EB840330
:1010E00010213846D3F8C431FFF7CCFA32685107E3
:1010F000C2F3800340F109813379A3421BD1C82593
:101100008F480EF03FF8B0FBF5F303FB15058D4853
:1011100012F06EFD394601358B4812F0CDFC8B483C
:10112000EDB2294612F0C8FC2B460DF10902082148
:101130003846FFF7A7FA33684FEA0418844F13F0D4
:10114000080FC3F3C00000F0E5803379A3421BD140
:10115000C8257B480EF016F8B0FBF5F303FB150528
:101160007C4812F045FD07EB08037B48997812F0A4
:10117000A3FC2946794812F09FFC2B460DF10A0288
:1011800008210020FFF77EFA01230DF10B02082150
:101190000020FFF777FA07EB0805052303AA1021C3
:1011A0000020EB80FFF76EFA17230DF10E020821E5
:1011B0000020FFF767FA01230DF10F021021002034
:1011C000FFF760FA664B0DF1110220210020FFF7B6
:1011D00059FA00230DF1150210211846FFF752FAB3
:1011E00000230DF1170210211846FFF74BFA0023D8
:1011F0000DF1190210211846FFF744FA00230DF1F2
:101200001B0210211846FFF73DFAAB68554A07EB61
:1012100008051821002093420DF11D028CBF03F137
:10122000FF330133EB60FFF72DFA18224E4B0821F4
:10123000002002FB0433EA68DA604C4B1A5DB22AE4
:1012400094BF01320A221A5508AA1B5DFFF71AFA49
:1012500001230DF1210208210020FFF713FA0123D9
:101260000DF1220208210020FFF70CFA00230DF1F6
:10127000230208211846FFF705FA33689A0653D56A
:101280003379A34250D17D252D480DF07BFF474493
:10129000B0FBF5F303FB1505354812F0A9FCF9780E
:1012A0000135344812F008FCFB78EDB23248AB420D
:1012B00004BF023DEDB2294612F0FEFB2B4609AAFF
:1012C00008210020FFF7DEF900230DF12502082197
:1012D0001846FFF7D7F9222101A808F0D9FF0DF130
:1012E0002602034620210020FFF7CCF933689B0536
:1012F0001ED53379A3421BD1204812F079FC204837
:1013000012F0DAFB11B0BDE8F0830DF109020821FB
:1013100018460EE707EB0802082193780133DBB289
:1013200093700DF10A022DE7A14499F8EB30C6E75E
:101330002246262101A8FFF717FEE3E768160020E2
:10134000ACA8002020580108435801086258010841
:101350008816002081580108A4580108C3580108C4
:10136000AF32E233EFFFFF008C22002001000020AB
:10137000E2580108125901082B5901084659010881
:101380005B590108440D00202DE9F0474FF000089B
:101390009EB004463822414610A89E4D2701CDF844
:1013A0003C8012F081FB3C22414668469A4E12F086
:1013B0007BFBF4236A4608214046FFF763F90DF1F1
:1013C000010205EB8403102105EB84054046D3F8A8
:1013D0009C31FFF757F9D5F8C431904D0DF1030258
:1013E00010214046FFF74EF92B6813F0040F00F070
:1013F000F7802B79A34240F0F3804FF0C80988486A
:101400000DF0C0FEB0FBF9F303FB1909854812F09B
:10141000EFFBF3198448597812F04EFB4946834894
:1014200012F04AFB4B4608210DF105020020FFF7A0
:1014300029F92B68190740F1D6802B79A34240F097
:10144000D2804FF0C80876480DF09CFEB0FBF8F350
:1014500003FB1808764812F0CBFBF319754899780E
:1014600012F02AFB4146744812F026FB43460DF168
:10147000060208210020DFF8E081FFF703F90223CC
:101480000DF1070208210020DFF8D0A1FFF7FAF8DC
:1014900018F80430012B40F0A98004F0FFFB674AE4
:1014A00004EB440310680AEB43014AF813009388E5
:1014B00063488B8012F09CFB0020682302AA102155
:1014C00008F804004FF00609FFF7DCF80DF10A02F6
:1014D000082109FB04F900200AEB090898F80530F7
:1014E000FFF7D0F898F804300DF10B020821002026
:1014F000FFF7C8F898F8033003AA08210020FFF787
:10150000C1F81AF809300DF10D0208210020FFF78B
:10151000B9F898F801300DF10E0208210020FFF70C
:10152000B1F898F802300DF110080DF10F02082102
:101530000020FFF7A7F80123424608210020FFF70B
:10154000A1F800230DF1110208211846FFF79AF8BF
:1015500001230DF1120208210020FFF793F82B68F8
:101560009A0748D52B79A34245D12D483E440DF02A
:1015700009FE8146334812F03BFBF168324812F015
:101580009BFA4946314812F097FA4B460FAA1821A8
:101590000020FFF777F86A460DF13F03164608333F
:1015A00003CE464543F8080C43F8041C3246F5D1F7
:1015B00031880FA8B278198016219A7008F068FE59
:1015C0000DF11302034620210020FFF75BF82B6882
:1015D0009B0513D4224617216846FFF7C5FC16E089
:1015E000F3195B781FE7F3199B7840E7282302AAD9
:1015F0001021002066E73E44F368C7E72B79A34239
:10160000E8D1134812F0F4FA124812F055FA1EB05D
:10161000BDE8F087440D00208816002068160020E1
:10162000ACA800206D59010890590108AE59010875
:1016300081580108A4580108C3580108A82B0020AC
:10164000CD590108E2590108055A0108265A010836
:10165000465901085B590108B9100020001100200B
:101660002DE9F04F4FF000089FB004463822414664
:1016700001A8AE4D2601CDF8008012F015FA3822EF
:10168000414610A8CDF83C8012F00EFAF4236A46C9
:1016900008214046A64FFEF7F5FF0DF1010205EBCC
:1016A0008403102105EB84054046D3F89C31FEF7F6
:1016B000E9FFD5F8C4310DF10302102140469D4DDC
:1016C000FEF7E0FF3B6813F0040F00F001813B7967
:1016D000A34240F0FD804FF0C80997480DF052FD3D
:1016E000B0FBF9F303FB1909944812F081FAAB1926
:1016F0009348597812F0E0F94946924812F0DCF923
:101700004B460DF1050208210020DFF868A2FEF724
:10171000B9FF3B6813F0080F00F0DD803B79A3426E
:1017200040F0D9804FF0C80883480DF02BFDB0FB86
:10173000F8F303FB1808844812F05AFAAB198348EF
:10174000997812F0B9F94146814812F0B5F943464B
:101750000DF1060208210020FEF794FF01238AF80C
:10176000003004230DF1070208210020FEF78AFF54
:10177000AB19DFF80482988818F8043010F00800DC
:1017800000F0B780012B02AA4FF010014FF00000CB
:101790000CBF68232823FEF775FFAB199B889906B9
:1017A00040F1AF8018F80430DFF8D0B1012B11D12F
:1017B00004F074FA674A04EB440310680BEB43012E
:1017C0004BF81300938864488B8012F011FA0023C1
:1017D00008F804304FF006090DF10A020821002034
:1017E00009FB04F90BEB090898F80530FEF74AFFEE
:1017F00098F804300DF10B0208210020FEF742FF9B
:1018000098F8033003AA08210020FEF73BFF1BF8DD
:1018100009300DF10D02082100204FF01009FEF7EC
:1018200031FF98F801300DF10E0208210020FEF77B
:1018300029FF98F802300DF10F0208210020FEF771
:1018400021FF3B689A075FD53B79A3425CD13A48B8
:1018500035440DF097FC414BB0FBF3F8C8EB08485A
:10186000A0EB08283E4812F0C3F9E9683D4812F0A1
:1018700023F941463C4812F01FF943460FAA1821AC
:101880000020FEF7FFFE0023DAB201334A4511467D
:101890003DD303310FA808F0FBFC202103460DEBDC
:1018A00009020020FEF7EEFE002309F104018AF888
:1018B00000303B689B0531D53B79A3422ED12B48A4
:1018C00012F096F92A4812F0F7F81FB0BDE8F08F31
:1018D000AB195B7815E7AA190020082193788AF8DC
:1018E00000000133DBB293700DF10602FEF7CAFE71
:1018F00037E7012B02AA4FF010010CBF6423242309
:1019000049E74FF00A099CE73544EB68B6E77832BF
:101910006A4412F8781C02F8391CB5E7224601F037
:10192000FE016846FFF720FBCFE700BF440D002013
:101930006816002088160020ACA800202058010856
:10194000495A0108665A010881580108855A010858
:10195000A25A0108A82B0020CD59010800FFFF0062
:10196000E2590108055A0108265A0108465901089A
:101970005B59010845210020B9100020001100200A
:101980002DE9F0434FF0000891B00446382241465B
:10199000744D02A8CDF8048012F086F8F42301AA51
:1019A00008214046704EFEF76DFE0DF1050205EB75
:1019B0008403102105EB84054046D3F89C312701B0
:1019C000FEF760FED5F8C4310DF107021021404644
:1019D000664DFEF757FE336813F0040F00F0AE803B
:1019E0003379A34240F0AA804FF0C80960480DF057
:1019F000C9FBB0FBF9F303FB19095E4812F0F8F8D4
:101A0000EB195D48597812F057F849465B4812F0D7
:101A100053F84B460DF1090208210020FEF732FE73
:101A200033681A0740F18D803379A34240F08980F2
:101A30004FF0C8084E480DF0A5FB3D44B0FBF8F34D
:101A400003FB18084E4812F0D3F8A9784D4812F05D
:101A500033F841464C4812F02FF843460DF10A0284
:101A600008210020494DFEF70DFE06230DF10B0263
:101A700008210020DFF82881FEF704FE2B5D012BF2
:101A800065D104F00BF9424A04EB4403106808EBFB
:101A9000430148F8130093883E488B8012F0A8F861
:101AA0000020692303AA102128550627FEF7EAFD26
:101AB0000DF10E0208216743002008EB07056B7942
:101AC000FEF7E0FD2B790DF10F0208210020FEF753
:101AD000D9FDEB7804AA08210020FEF7D3FD18F801
:101AE00007300DF1110208210020FEF7CBFD6B78C5
:101AF0000DF1120208210020FEF7C4FDAB780DF1B4
:101B0000130208210020FEF7BDFD102101A808F0F6
:101B1000BFFB05AA034620210020FEF7B3FD336872
:101B20009B0519D53379A34216D11B4812F060F8F2
:101B30001A4811F0C1FF11B0BDE8F083EB195B78D2
:101B400068E73D44AB780133DBB2AB7086E729230D
:101B500003AA10210020A8E72246142101A8FFF7BC
:101B600003FAE8E7440D00206816002088160020DC
:101B7000ACA8002020580108495A0108665A0108FB
:101B800081580108855A0108A25A0108B91000209D
:101B9000A82B0020CD590108465901085B590108BE
:101BA000001100202DE9FF47624C0027624812F027
:101BB0001FF894F82110614811F07EFFD4F8181234
:101BC0005F4811F079FFD4F81C125E4811F074FFE1
:101BD000D4F820125C4811F06FFFD4F824125B484F
:101BE00011F06AFFDFF89481B4F8F6105848DFF876
:101BF000909111F061FFDFF88CA194F821104F480B
:101C000011F05AFF94F82130FDB2AB4234D894F869
:101C10003A30002694F8382094F8371000934D4855
:101C200094F8393011F048FF94F8443094F840208B
:101C3000029394F8433094F83F10019394F84230A3
:101C400045480093DFF8408194F84130DFF83C913B
:101C500011F032FFDFF838A1B4F8F6103F4811F068
:101C60002BFF94F82030F5B2AB4223D8324804B0B1
:101C7000BDE8F04711F0BCBF04EB8506294640469D
:101C8000013796F84E30019396F84D30009396F850
:101C90004C3096F84B2011F00FFFB6F8FA20294689
:101CA000484611F009FFB6F8FC202946504611F0CD
:101CB00003FFA7E7691C404611F0FEFE484604EB0F
:101CC000850367190136D3F89C1111F0F5FE5046D3
:101CD00004EB8503D3F8C41111F0EEFE204804EBA9
:101CE0004503B3F8EC1111F0E7FE97F8EB101D482F
:101CF00011F0E2FE97F823101B4811F0DDFE97F873
:101D00002D101A4811F0D8FE05F18A03184854F82E
:101D1000231011F0D1FE05F194039E35154854F8B7
:101D2000231011F0C9FE54F82510134811F0C4FE19
:101D300097E700BF440D0020C35A0108145B010857
:101D4000365B0108595B0108835B0108AF5B010842
:101D5000DA5B0108425C01085E5C0108C77B010890
:101D6000D15C0108ED5C0108055D0108165D010804
:101D7000295D0108445D01085D5D0108055C0108FD
:101D8000225C0108325C01088C5C01089F5C010840
:101D9000B85C01082DE9F0470026214DDFF894805A
:101DA000DFF894A0F4B295F82030A34201D8BDE842
:101DB000F08758F8240088B304F1940705F0F6FC86
:101DC00055F82730984229D95AF8240005F0EEFC3E
:101DD00055F82730984221D9DFF8609019F804307F
:101DE000012B1BD00F4B53F82430B3F57A7F15D954
:101DF00058F82400012705F0D9FC4FF47A71B0FBA4
:101E0000F1F1094811F058FE084B214620461F55B4
:101E1000FFF744F9064B09F804701F550136C1E776
:101E2000440D0020F4190020775D0108A021002056
:101E300028170020441A0020F81B00204617002015
:101E40002DE9F8430026DFF86080DFF86090154F39
:101E5000F4B298F82030A34201D8BDE8F8831823E3
:101E600003FB04931B79012B05D008EB040393F8C3
:101E70002D30022B13D13B5D012B10D1A51C07EB9C
:101E80008505686805F092FC322808D9214620466D
:101E9000FFF77AFA00233B554FF0FF336B600136B2
:101EA000D6E700BFDC210020440D00208C2200205A
:101EB0002DE9F84300261B4FDFF87880DFF8789093
:101EC00097F82030F4B2A34201D8BDE8F88358F85F
:101ED000240020B3182505FB0495EB78FBB105F031
:101EE00065FC04F18A0357F82330984217D907EBB1
:101EF00084014FF47A720C48D1F89C11B3FBF2F2D2
:101F000011F0DAFD58F82410084811F0D5FD0AF058
:101F1000EFFC0146064811F0CFFD0023EB700136BF
:101F2000CEE700BF440D0020A35D0108D65D010887
:101F3000045E01086C1A00208C2200202DE9F0417B
:101F4000214E0546331893F82330012B02D001208F
:101F5000BDE8F0811D4B1B78012BF8D106231C4AEC
:101F60004FF46167434302EB0308D05C03F074FE57
:101F7000044698F8010003F06FFE02B298F80200E0
:101F8000C2EB0212920007FB042403F065FE044436
:101F900003F084FE0F4A53781078C3EB03139900C3
:101FA000937807FB00111944611A0029B8BF494210
:101FB0000129CCDD06EB85050748D5F89C2111F0F9
:101FC0007BFD0020C4E700BF440D00205417002013
:101FD00000110020AE2B00200F5E01082DE9F04F0C
:101FE0000E4605461446DFF8C093053E2DED028BE4
:101FF00083B008EE103A0AF07BFC0746B1B22846DF
:1020000008F046F98046AA1920210020FEF702FBBD
:102010008045009013D009EB8404C948D4F89C1182
:1020200011F04AFD0099C74811F046FD4146C648E7
:1020300003B0BDEC028BBDE8F04F11F03DBD04F1E3
:10204000F408C24B4FF0010AC14E09EB480805F1F4
:102050001D0203F804A01021002006F804A0FEF7DA
:10206000D9FAB8F8042083B283469A42B94B1DD0FE
:1020700003F804A009EB8403B748D3F89C1111F0CE
:102080001BFDB6481FFA8BF111F016FDB8F80410CD
:10209000B34811F011FDB34909EB0A00FEF7D0F87F
:1020A00030B103B0BDEC028BBDE8F08F00221A55B1
:1020B00009EB040A05F1240208210020FEF7AAFA20
:1020C0009AF8EB305FFA80F8434540F02081A64B48
:1020D0004FF0010BDFF8D482102143F8247005EB98
:1020E0000B02A24B4FEA441A06F804B000261E5514
:1020F00030469F4B43F8247008EB4417FEF78AFAEA
:1021000081B238829B4811F0D7FCEA1C102130467E
:10211000FEF780FAF88181B2974811F0CDFC6A1D74
:1021200008213046FEF776FAAA1D082108F80A00B1
:102130003046FEF76FFAEA1D082178703046FEF748
:1021400069FA05F10802B87010213046FEF762FA0C
:102150008A4B80B203EB04139880830600F1288138
:102160000A26AA190821002008EB441AFEF752FAA1
:10217000721C63018AF803002A4410210020019395
:10218000FEF748FAF21C0423AAF81200AF18A85868
:1021900003EB441306F10902A14448F8030008EBDD
:1021A0000301BB882A440020754F8B801021FEF765
:1021B00031FA06F10B02AAF8140010212A4400207B
:1021C000FEF728FA06F10D02AAF8160010212A449B
:1021D0000020FEF71FFA06F10F02AAF818001821D6
:1021E0002A440020FEF716FA1822644B082102FB4D
:1021F000047203EB041B906006F11202CBF8080096
:1022000000202A44FEF706FA5C4BC0B208212201E6
:102210008BF80200985406F1130200202A44FEF7BE
:10222000F9F906F114028AF80A0008212A4400206C
:10223000FEF7F0F999F8EB30C0B206F1150A8342C7
:102240008BF803000CD04F4811F0D2FC99F8EB103A
:102250004D4811F031FC9BF803104C4811F02CFC58
:1022600005EB0A0208210020FEF7D4F906F1160258
:10227000630108212A4408EB030989F80B000020B8
:10228000FEF7C8F9C1B2012989F80C1006F1170947
:1022900005D03F4811F010FC3E4811F0A9FC05EBB9
:1022A000090208210020FEF7B5F906F118026301C2
:1022B00020212A44384D984488F80D000020FEF76C
:1022C000A9F918EE101AC8F81C002046FEF7E6FE21
:1022D0001823009A6343FE18FC5404EB4403726114
:1022E000012207EBC307727172700FCF0FC597E819
:1022F000030085E8030040F2012005F0A9FD00235A
:1023000073700AF0F5FA254B43F82400C9E609EB8F
:1023100084032348D3F89C1111F0CEFB9AF8EB10FC
:10232000194811F0C9FB4146184811F0C5FB0D4989
:102330001C48FDF785FF00283FF4C9AEB1E600BF99
:102340004D5E0108685E0108775E010832170020C3
:10235000BC1E0020AF100020865E0108BE5E010892
:10236000E05E0108025F0108441A002046170020C1
:10237000F41900200E5F0108155F0108881600207F
:102380008C2200206C5F0108445F0108585F01083F
:10239000865F0108B15F010870220020B42100208F
:1023A0001C5F0108450D0020440D0020E0110020B5
:1023B0004FF0060A05F10A0208213046FEF72AF915
:1023C0000AFB04FA194B05F10B02082103EB0A077B
:1023D00078713046FEF71EF905F10C0208213871BC
:1023E0003046FEF717F905F10D020821F870304666
:1023F000FEF710F90D4B05F10E02082103F80A0053
:102400003046FEF707F905F10F02082178703046D3
:10241000FEF700F9B8702046FFF790FD044B10B1AD
:102420001E5510269DE603F804B0FAE700110020BF
:10243000B91000202DE9F8430026154FDFF854901D
:10244000DFF85480F4B297F82030A34201D8BDE8F9
:10245000F8830C252046FEF7C9FB05FB0495686848
:1024600005F0A4F904F18A0357F8233098420DD9F6
:102470006B78012B0AD158F824206B689A4205D05A
:1024800000236B700AF034FA48F824000136D9E7CB
:10249000440D0020F0150020601D00202DE9F74FAD
:1024A00042494348FDF7CCFE002878D103B0BDE88F
:1024B000F08F002955D1002223F814200AF018FAD1
:1024C00049F8240008F1010897F820305FFA88F4F1
:1024D000A342EBD93B1993F82D30012BF2D059F8D8
:1024E000240005F063F941F28733984204D9314B57
:1024F00033F81430012BE1D1DFF8DCB0DFF8DCA0D9
:102500001BF804302C4E012B0ED12C4B1B5D5BB9FC
:1025100014236343F218534402F1140152F8040BDC
:102520008A4243F8040BF9D1142565430AEB0502EE
:102530003544518A6B8A019299422ED0204B53F830
:10254000240005F033F9B0F57A7FBBD3019A01215D
:10255000184B528A23F81410698A002AA9D100293D
:10256000A9D1164B14251BF80420195D65431548A5
:1025700011F0A2FAAA4407EB84032E441248D3F8C0
:102580009C1111F099FABAF81210104811F094FA4F
:10259000718A0F4811F090FA90E7064B8BE74FF0E5
:1025A00000080C4FDFF838908EE700BF025F01088B
:1025B000450D0020B01B0020201C0020AA21002077
:1025C000941A0020CA5F0108D55F0108DF5F010887
:1025D000ED5F0108440D0020EC1B0020E81A0020EC
:1025E000C410002070B50446184E0AF081F9182373
:1025F0000546174803FB04639A78164B012A12D14B
:102600001549025541F824500C2101FB04335D604B
:102610005A70182303FB04667378012B04BF0F4B19
:1026200043F8245070BD0C22002102FB04330155F5
:102630009D600B485970142303FB0402104651821D
:102640001022013011F030FAE3E700BFD41F002060
:10265000EC1B0020E81C0020C41B0020F81B0020FD
:10266000201C0020084B034410B593F82D3004467D
:10267000022B04D0FEF744FA2046FEF7B7FA2046B4
:10268000BDE81040FFF7AEBF440D00202DE9F84F24
:1026900026492748FDF7D4FD002840D1BDE8F88F32
:1026A00058F8240005F082F804F19E0356F8233010
:1026B00098422DD958F8243059F824209A4227D02E
:1026C0004FF0140A49F8243006EB840319480AFB3A
:1026D00004FA194DD3F89C114FF0000B11F0ECF9EE
:1026E0000AF10100154B102228445544594603F8BD
:1026F00004B011F0D9F9A5F812B01823104D03FB5E
:102700000455286905F052F828612046FFF76AFF52
:102710000137FCB296F82030A342C1D8BEE70027AB
:10272000084EDFF82480DFF82490F2E7025F01080A
:10273000450D0020FC5F0108E81A0020AA210020B6
:102740008C220020440D0020BC1A0020781E00209E
:1027500038B5134D286805F029F8B0F57A7F1ED9F1
:10276000104C1421104B226801FB02330F4A5918F8
:1027700053F8040B8B4242F8040BF9D140F20720C6
:1027800005F066FB23680A4A013392F82020236093
:10279000934204BF002323600AF0AAF8286038BDE2
:1027A000041F002088220020E81A00207C2300203B
:1027B000440D00202DE9F04FB94CADF2B46DB9488D
:1027C00094F8221011F078F994F82230002B00F0E0
:1027D00063814FF4567200216846002611F064F9B7
:1027E0004FF4567201253746DFF8F08200210DEBD9
:1027F000020011F059F994F82020F3B29A4272D8ED
:10280000002D40F04281A6494FF45672A648A846D2
:1028100011F022F9A54B0122A548D6AE1A7011F08D
:10282000E7F9A448AE4694F820902B4600F27911BF
:1028300000F2C91C2A465FFA8EF7B94565D80DB17A
:102840008DF82020B8F1000F01D08DF8783394F87E
:1028500021506B46924A0021C8B2043204338542AB
:1028600000F2BE809DF82050002D31D0AE002A46E7
:102870000DF123018F4811F0EFF82A460DF12D01DB
:102880008D4811F0E9F8324667A92FB28B4811F054
:10289000E3F8324671A98A4811F0DEF87BA97A0084
:1028A000884811F0D9F82A460DF1EB01864811F05D
:1028B000D3F832468AA9854811F0CEF8324694A959
:1028C000834811F0C9F832469EA9824811F0C4F835
:1028D0009DF87833002B40F09D800DF2B46DBDE87B
:1028E000F04FFFF75FB9234493F82D30022B0AD045
:1028F000012B06D12FB1002594F82210404611F08B
:10290000DBF8013677E70127FBE7877A012F34D11F
:102910000DEB020A05780DEB820B8AF823500D6847
:102920008AF82D70CBF89C518D6ACBF8C4510DEB11
:102930004205BCF800B0A5F8ECB190F8C8508AF890
:10294000EB5002F18A0AD1F88C504DF82A5002F16E
:10295000940AD1F8B4504DF82A5002F19E0AD1F8E9
:10296000DC5001324DF82A50D2B23D460EF1010E34
:10297000013004310CF1020C5DE7022FF6D106EBB9
:10298000030890F800A088F82D7088F823A006EBC3
:10299000830A0F68CAF89C718F6ACAF8C47106EB83
:1029A0004307BCF800A0A7F8ECA190F8C87088F81D
:1029B000EB7003F18A08D1F88C7046F8287003F1A7
:1029C0009408D1F8B47046F8287003F19E08D1F845
:1029D000DC70013346F82870DBB24FF00108C5E720
:1029E00092F84700013183F8470092F8480083F8D5
:1029F000480092F8490083F8490092F84A0083F8A9
:102A00004A00B2F8F600A3F8F600B2F8F800A3F80E
:102A1000F80021E72B440DF27B310DF2F4420DF268
:102A20004456DBB2601911F8017B52F804CB80F8F0
:102A300023704F7A80F82D7004EB8507C7F89CC18E
:102A4000BC46576ACCF8C47104EB450736F802CB94
:102A5000A7F8ECC191F8C77080F8EB7005F18A0017
:102A6000D2F8887044F8207005F19400D2F8B07064
:102A700044F8207005F19E000135D2F8D870EDB20F
:102A800044F82070AB42CDD127E713480DF2B46D66
:102A9000BDE8F04F11F0ACB80DF2B46DBDE8F08FA9
:102AA000440D00201C600108E8090020D01F002010
:102AB00077600108670D0020710D0020E00E0020F6
:102AC000080F0020300F00202F0E00206C0F002078
:102AD000940F0020BC0F0020E3600108446001084F
:102AE0002DE9F8431B4B1B78012B30D11A4CA22245
:102AF000002100252046194E10F0D6FFDFF864C0F3
:102B0000BCF80030238096F82080EBB298451ED99F
:102B100003F16600124F002106EB8000CAB2904517
:102B200013D957F8049B8E46426801314A45F5D1C6
:102B30000CEB0E1204EB0313911C1232023351F80A
:102B4000040B914243F8040BF9D10135DBE7BDE8F2
:102B5000F88300BFD01F00203C110020440D00204E
:102B6000840B0020DC2300202DE9F04F4FF00009FA
:102B700014460646D44F4FEA04182DED028BA7B039
:102B800008EE103A029109F0B3FE7C22494600900B
:102B900007A8CDF8189010F087FFCC49CC48FDF776
:102BA0004FFB002800F03282CA4B1A68D20740F16E
:102BB000F8811B79A34240F0F481C74DC7480CF05F
:102BC000E1FAB0FBF5F5C5EB0545A0EB0525C448DA
:102BD00011F00EF807EB0803C248996810F06CFF7B
:102BE0002946C14810F068FF2B4606AA182100208C
:102BF000FDF748FD029A0023A2F1050AD9B201337C
:102C00005145C0F2D281033106A806EB0A0B07F04A
:102C10003FFB814620215A460020FDF7FBFC814501
:102C200005464BD0721D082100200192FDF7F2FCF1
:102C3000019A002840F0C081AC4810F0D9FF8022F2
:102C4000002106A810F030FF07EB080306AA1821A0
:102C50009B6800200133FDF715FD0023D9B2013335
:102C60008A4500F3B781033106A807F011FB8146BE
:102C70005A4620210020FDF7CDFC8145054640F055
:102C8000B08107EB08099A4810F0B2FF294699482D
:102C900010F012FFD9F80810974810F00DFFD9F87E
:102CA000081096480131C9F8081010F005FF1822E5
:102CB000934B02FB0433D9F808209A60009A002154
:102CC000904B4FF0300ADFF8689243F824208E4B87
:102CD00043F8242001228D4B1A5504EB4413402263
:102CE00009EB4303184610F0DFFE029A314610F05C
:102CF000B3FEBDF80830721C10210593422300205A
:102D000003FB0499059BA9F84030DFF82892FDF7F2
:102D100081FC81B20AFB049AAAF828007C4810F0D2
:102D2000CBFEF21C10210020FDF774FCAAF826004F
:102D300081B207EB080A774810F0BEFE721D082129
:102D40000020FDF767FCB21D8AF802000821002070
:102D5000FDF760FCC0B28AF80100D8B96E4B6F482D
:102D600003EB8403D3F89C1110F0A6FEDAF80C10E4
:102D70006B4810F0A1FEDAF80C106A480131CAF86D
:102D80000C1010F099FE18225D4B02FB0433DAF8A8
:102D90000C20DA60F21D0821002007EB080AFDF77D
:102DA00039FC3023102106F1080203FB049989F84D
:102DB00002000020FDF72EFC44491FFA80F9444828
:102DC000AAF80490FDF73CFA18B949F00809AAF8E6
:102DD0000490B844B8F804309B0640F11B814FF0D2
:102DE0000609DFF854A106F10A02082109FB04F9DB
:102DF0000020FDF70FFC06F10B020AEB0908082181
:102E000088F805000020FDF705FC06F10C020821FA
:102E100088F804000020FDF7FDFB06F10D020821F3
:102E200088F803000020FDF7F5FB06F10E020821EB
:102E30000AF809000020FDF7EDFB06F10F0208215A
:102E400088F801000020FDF7E5FB88F80200204625
:102E5000FFF774F8344B002800F0DA8000224FF0BE
:102E6000100A1A5507EB0417DFF8C8904FF0300826
:102E700006EB0A02BB88082108FB0498002003F037
:102E800008030AF102070393FDF7C4FBC1B288F8F7
:102E90000300264810F010FE0AF10102082100206C
:102EA0003244FDF7B7FB98F8033088F804004FF080
:102EB000000813F0070F4FEAD30314BF0133DBB24E
:102EC000019304EB440339E088160020025F0108F7
:102ED000450D00206816002000FFFF00ACA8002070
:102EE000F5600108146101083A6101086061010898
:102EF0007A61010891610108AE610108CB610108A6
:102F00008C220020441A00206C1A0020C61E0020CB
:102F10000E5F0108155F0108440D002026620108BC
:102F20006862010878620108B91000208762010810
:102F3000601700201014002000110020BDF804A02C
:102F40004FEA031B0BF105039944CDF810901FFACB
:102F500088F317FA88F29A4592B25ED857440A204D
:102F6000DFF85883BBB2049310F0BEFDBA4B234484
:102F700093F82D30022B08D13023B84803FB04838B
:102F8000597901F0010110F097FD0BF115074FF091
:102F9000300B4FF0000A4744DFF820830BFB048B13
:102FA00055E007EB08039B681FE601F19802715C8E
:102FB0006A4402F87D1C21E608210020FDF72AFB67
:102FC00001283FF439AEA44AA54802EB8404D4F8A2
:102FD0009C110CE001F19802715C6A4402F87D1CBE
:102FE0003CE69D4A9F4802EB8404D4F89C1110F003
:102FF00063FD29469C4810F05FFD49469B4810F050
:103000005BFD27B0BDEC028BBDE8F08F054655E6B1
:10301000012224E74FF00A0A24E732440821002065
:10302000FDF7F8FA049BC2B2414603F8010B08F120
:1030300001088F48049310F03FFD88E70AF1010A68
:10304000324408210020FDF7E5FA07F8010B1FFACA
:103050008AF3049A9BF8041012FA8AF2994292B207
:10306000ECD818EE101A2046FEF78AFC814B01229C
:10307000814F1A5503EB8403009ADA60182303FB8F
:1030800004731B79012B11D17C4B46220021184679
:1030900010F00AFD059A0480314682800630029ABB
:1030A00010F0DAFC40F2032004F0D2FE6A4B234415
:1030B00093F82D30022B00F0B880039B1E1E18BF22
:1030C000012604EB8403DFF8F881102200219B0025
:1030D00003F1010B029308EB0B0A504610F0E4FCDD
:1030E000019A4946504610F0B7FC5146019A00201B
:1030F00007F05CF81422019B6243DFF8C8A108EBDB
:10310000020108F802404B744882029B002E4AD00C
:103110000AEB0B09102200210193484610F0C4FC71
:10312000019B0AEB03024344114603F1140053F8D8
:1031300004CB834241F804CBF9D1514B009943F8B9
:103140002410142303FB04A3598A4E4B33F81400B4
:10315000884228D023F8141013464B4A03F1140177
:1031600053F8040B8B4242F8040BF9D140F20720CC
:1031700004F06EFE454B33F81430A3B9444B09F10B
:10318000100203EB0413023359F8041B914543F872
:10319000041BF9D1FFF7A4FC40F2191004F058FE0B
:1031A0003C4B009A1A6018234FF01409634309FB43
:1031B00004A907EB0308FC540123B9F81220C8F84E
:1031C000145088F8013004EB4403A8F806200222CA
:1031D00007EBC30788F8026088F805202E4D0FCF53
:1031E0000FC597E8030085E8030040F201200025A1
:1031F00004F02EFE294B009A294943F824200C2381
:10320000284A88F80150002E00F08380009D03FBBF
:1032100004222548556040F8245056700E554FF44E
:10322000807122480AF041FEEBE6302303FB04885C
:1032300098F8056016F0010646D11D4810F0D8FC3C
:103240001C4B0122314648461A5510221A4B1E5576
:1032500010F02AFC35E700BF440D00209B620108F6
:1032600012620108F5610108685E0108775E0108D5
:103270008E620108DC2100208C2200209023002097
:10328000941A0020A01E00207C230020B01B0020E8
:10329000DC230020E41A002070220020B42100204A
:1032A000AA210020F0150020BC1A0020001C0240BA
:1032B000B1620108A510002055170020101400204D
:1032C000081F0020E81A0020039B03B3DFF868A062
:1032D0001AF80480B8F1010F7FF4F3AE144E1548CC
:1032E000315D0131C9B2315510F0E6FB335D032B7E
:1032F00006D900230AF80430042333554646E0E695
:10330000102200214846002610F0CEFBD9E6039E8D
:10331000D7E60D550AEB0B0003FB0424009B10229B
:103320002946A360657010F0BFFBA9F8125076E73C
:1033300055170020C1620108A51000202DE9F04FAB
:10334000B5B00E461446814609F0D2FA002100902D
:103350007C2215A8149110F0A7FB0E49422303FB11
:103360000413B3F84030B3421AD104EB441332468D
:10337000484601EB430110F05FFB88B9064A074855
:1033800002EB8404D4F89C1110F096FB35B0BDE834
:10339000F08F00BF60170020440D0020D3620108A9
:1033A000053E20210020D04F09EB060B5A46FDF7C1
:1033B00031F9CE4B01901A6812F0010F00F0E6814E
:1033C0001B79A34240F0E281C94818250BF0DAFED0
:1033D000C84BB0FBF3F8C8EB0848A0EB0828C64878
:1033E00010F006FC05FB0473C448996810F064FBF8
:1033F0004146C34810F060FB434614AA294600200A
:10340000FDF740F90023D9B20133B142C0F2C481C3
:10341000033114A806F03CFF019B804609F1050A20
:10342000834248D0524608210020FDF7F3F80546B4
:10343000002840F0D081B34810F0DAFB8022294602
:1034400014A810F031FB182114AA284601FB0473BC
:103450009B680133FDF716F9E9B201358E4200F39E
:10346000A381033114A806F013FF05465A46202114
:103470000020FDF7CFF88542064640F09D811826D2
:10348000A14810F0B5FB29466643A04810F014FB94
:103490009F4837449F4DB96805EB041510F00CFBAD
:1034A000B9689D480131B960A96010F005FB9B4BDC
:1034B0001E44AB68B36009F1010210210020FDF742
:1034C000A9F8ADF8480081B2954810F0F5FA09F175
:1034D000030210210020FDF79DF8ADF8460081B2EF
:1034E000904810F0E9FA524608210020FDF792F8C2
:1034F00009F1060208210020FDF78CF809F1070206
:1035000008210020FDF786F809F108028DF8220055
:1035100010210020FDF77EF8820683B2019340F16E
:10352000688109F10A02082100201027FDF772F8CE
:1035300009F10B0208210020FDF76CF809F10C02DB
:1035400008210020FDF766F809F10D02082100208E
:10355000FDF760F809F10E0208210020FDF75AF886
:1035600009F10F0208210020FDF754F809EB0702CA
:10357000082100200DF1250AFDF74CF84FF0000856
:10358000C5B2694829468DF8235010F095FA7A1C87
:10359000082100204A440237FDF73CF815F0070FD8
:1035A0004FEAD5055FFA80FB14BF0135EDB28DF807
:1035B00024B0AEB21FFA88F317FA88F29E4292B294
:1035C00000F219813E440DF135080A20B6B210F020
:1035D0008BFAB3441FFA8BFB5E4540F01B8110222F
:1035E00000210DF10D0027B210F05EFA2A460DF110
:1035F00025010DF10D0010F02FFA2A460DF10D01F5
:10360000002006F0D3FD494BADF81E0023448DF891
:103610001D508DF80C4093F82D30012B40F0968012
:10362000019B1B0740F19280DFF81C81142303FBF0
:1036300004835B8A834200F0898007EB87051022B0
:103640000021AD00681C08EB0006304610F02CFA93
:1036500008EB05030DF10C0C0DF11C0E1A46654626
:10366000083203CD754542F8080C42F8041CAC46FC
:10367000F5D12868106000992D4A42F824101422D0
:1036800002FB0482518A2B4A32F8140088425DD032
:1036900022F8141003F11401274A53F8040B8B424B
:1036A00042F8040BF9D140F2072004F0D1FB234B80
:1036B00033F81430002B49D1214B304606F110026B
:1036C00003EB0413023350F8041B904243F8041B2D
:1036D000F9D1FFF705FA40F2191004F0B9FB194BC4
:1036E000009A1A6032E000BFD41F00206816002044
:1036F000ACA8002000FFFF00F5600108146101087C
:103700003A610108606101081463010891610108D0
:103710003663010888160020CB6101088C22002046
:103720000E5F0108155F01086B630108440D00205E
:10373000941A0020A01E00207C230020B01B002033
:10374000DC230020E41A0020E81A00201823374D5B
:1037500007EB4707364E6343EC5405EB03080123A0
:1037600005EBC70588F801300FCD0FC695E80300BB
:1037700086E8030040F2012004F06AFB0023009A6F
:1037800088F801302B4B43F82420FFE5182114AAB8
:1037900001FB04739B6832E601F1D00219F80110B5
:1037A0006A4402F87D1C2EE601F1D00319F80120CD
:1037B0006B4403F87D2C4FE61F4A204802EB84043B
:1037C000D4F89C1110F078F931461D4810F074F9C6
:1037D00029461C48D8E5184A184802EB8404D4F856
:1037E0009C1110F069F90199154810F065F94146EE
:1037F000EFE70A27BAE64A4408210020FCF70AFF4F
:103800004146C2B20AF8010B0F4808F1010810F056
:1038100053F9CFE609EB0602013608210020FCF738
:10382000F9FE08F8010BB6B2D6E600BF8C220020E4
:1038300070220020B4210020440D00204F630108B5
:10384000685E0108775E0108736301082DE9F04F97
:103850004FF000091446054624228A464946D64FB1
:103860004FEA04182DED028B8DB008EE103A03A834
:10387000CDF8089010F018F909F03AF8CF49009007
:10388000CF48FCF7DDFC002800F01882CD4B1A6809
:10389000D10740F1E0811B79A34240F0DC814FF673
:1038A000FF76C9480BF06EFCB0FBF6F6C6EB064699
:1038B000861BC64810F09CF907EB0803C4489968BA
:1038C00010F0FAF83146C34810F0F6F8334602AA71
:1038D00018210020AAF1050AFCF7D4FE0023D9B272
:1038E00001335145C0F2BB81033102A806F0D0FC80
:1038F000834605EB0A0220210020FCF78BFE83455E
:10390000064647D06A1D08210020DFF80493FCF723
:1039100081FE04F16603C0B2012800F2C28109EB06
:103920008303AD48596810F0C7F82822002102A887
:1039300010F0BAF807EB080302AA18219B680020D0
:103940000133FCF79FFE0023D9B201338A4500F30F
:103950008D81033102A806F09BFC8642824640F02E
:103960008C8107EB08099D4810F042F99C48D9F872
:10397000081010F0A1F8D9F808109A480131C9F8D8
:10398000081010F099F81822974B02FB0433D9F86D
:1039900008209A60DFF87C924FF00C0A6A1C102114
:1039A0000AFB049A0020FCF735FE07EB080BAAF887
:1039B0000600EA1C10210020FCF72CFE6A1DAAF864
:1039C000040008210020DFF848A2FCF723FEAA1D0E
:1039D0008BF8020008210020FCF71CFEC0B28BF817
:1039E0000100D0B90AEB84038048D3F89C1110F091
:1039F00063F8DBF80C107E4810F05EF8DBF80C1072
:103A00007C480131CBF80C1010F056F81822764B98
:103A100002FB0433DBF80C20DA60EA1D08210020E9
:103A200007EB080BFCF7F6FD0C23102105F108024B
:103A300003FB049989F802000020FCF7EBFD5F49C5
:103A40001FFA80F95E48ABF80490FCF7F9FB18B94F
:103A500049F00809ABF8049007EB08039B889A0625
:103A600040D505F10A0208210020DFF8ACB1FCF7CF
:103A7000D1FD062305F10B02082163430BEB03097B
:103A8000019389F805000020FCF7C4FD05F10C0244
:103A9000082189F804000020FCF7BCFD05F10D02A7
:103AA000082189F803000020FCF7B4FD019B05F113
:103AB0000E0208210BF803000020FCF7ABFD05F116
:103AC0000F02082189F801000020FCF7A3FD89F806
:103AD00002002046FEF732FA474B002800F0F08043
:103AE00000221A55474418EE101A20463E4DBF8852
:103AF0004FF01808FDF7B4FD009A404B08FB04583E
:103B000007F00807DFF8149143F824203C4BD8F85D
:103B1000100043F8242003F049FE0AEB0403C8F820
:103B2000100093F82D30022B40F0E280354BDFF887
:103B3000F0801A5DDFF8ECB0032A00F2C380302376
:103B400003FB04835B79DB0700F1BC801BF80430C6
:103B5000012B40F0B780002718234FF0140ADFF83C
:103B6000C8C063430AFB049B05EB0308EC54BBF895
:103B7000122004EB4403C8F814600126A8F80620BC
:103B800005EBC305042288F8016088F8027088F804
:103B900005200FCDACE80F0095E8030000258CE868
:103BA000030040F2012004F053F9174B009A174923
:103BB00043F824200C2239E088160020025F010817
:103BC000450D002068160020ACA80020F660010812
:103BD000826301083A610108A66301087A6101085D
:103BE000CA630108E16301088C22002026620108F3
:103BF0002D64010838640108B9100020441A00201F
:103C00006C1A002055170020B4210020AA210020A2
:103C1000440D00209813002000110020E81A002015
:103C200010140020A510002070220020624B88F89C
:103C30000150002F00F0AF80009D02FB04335F486D
:103C40005D6040F824505F700F554FF480715C4800
:103C50000AF02BF920E007EB08039B6837E601F137
:103C60003002695C6A4402F8251C38E601F1300232
:103C7000695C6A4402F8251C66E609EB8404514835
:103C8000D4F89C110FF018FF31464F480FF014FF85
:103C900051464E480FF010FF0DB0BDEC028BBDE851
:103CA000F08F09EB83094A48D9F804100FF004FF9C
:103CB000314645480FF000FF5946EAE7064669E6F7
:103CC00001220EE70AEB840A4248DAF89C110FF051
:103CD000F3FE1BF8041040480FF0EEFE30233F487F
:103CE00003FB048898F8051001F001010FF0E4FED1
:103CF000002F3FF430AF04EB840200214FEA82082A
:103D0000102208F1010009EB000738460FF0CCFE45
:103D1000334A09EB08034244194602F1140052F8F1
:103D200004CB824241F804CBF9D1142202FB049265
:103D3000518A2C4A32F81400884201D101270BE73E
:103D400022F8141003F11401274A53F8040B8B4294
:103D500042F8040BF9D140F2072004F079F8234B24
:103D600033F81430002BE9D1214B384607F110020B
:103D700003EB0413023350F8041B904243F8041B76
:103D8000F9D1FEF7ADFE40F2191004F061F8194BBD
:103D9000009A1A60D2E702FB04331AFB0460009A0F
:103DA0000D5548449A60294610225D700FF07CFE44
:103DB000ABF8125049E700BFF0150020BC1A0020F4
:103DC000001C0240F9630108685E0108775E010883
:103DD0001764010843640108506401086564010820
:103DE000081F0020A01E00207C230020B01B002004
:103DF000DC230020E41A00202DE9F04F0F46054691
:103E00001446053F2DED028B83B008EE103A08F002
:103E10006FFD0646B9B2284606F03AFA8146EA191D
:103E200020210020C64FFCF7F5FB8145804613D0CA
:103E300007EB8404C348D4F89C110FF03DFE4146C3
:103E4000C1480FF039FE4946C04803B0BDEC028BB3
:103E5000BDE8F04F0FF030BEBD4B6A1C10210020B2
:103E600043F824604FF00C0ABA4BDFF840B343F834
:103E70002460FCF7CFFBB84BEA1C10210AFB043A84
:103E80000BEB0419AAF806000020FCF7C3FB6A1D1F
:103E9000AAF8040008210020FCF7BCFBAA1D23019E
:103EA000082189F8020000200193FCF7B3FBEA1D0A
:103EB000082189F801000020FCF7ACFB10218AF8EA
:103EC000020005F108020020FCF7A4FBA3491FFA39
:103ED00080FA781CA9F804A0FCF7B2F918B94AF0E6
:103EE000080AA9F804A023015B449B889A063FD5E1
:103EF0004FF0060A05F10A0208210020FCF78AFBB0
:103F00000AFB04FA964B05F10B02082103EB0A09A0
:103F100089F805000020FCF77DFB05F10C02082163
:103F200089F804000020FCF775FB05F10D0208215B
:103F300089F803000020FCF76DFB894B05F10E02A8
:103F4000082103F80A000020FCF764FB05F10F02CA
:103F5000082189F801000020FCF75CFB89F80200C9
:103F60002046FDF7EBFF7F4B002865D000221A5555
:103F7000230118EE101A20460FFA84F95B449D883D
:103F8000FDF76EFB3B1905F0080593F82D30022B69
:103F900069D1754BDFF818A21A5DDFF818B2032A51
:103FA0004CD8302303FB04A35B79DB0746D41BF812
:103FB0000430012B42D1002718236C4D09EB49092D
:103FC00006226343DFF8F0C105EB030AEC5405EB6E
:103FD000C905CAF814804FF001088AF805208AF84C
:103FE00001808AF802700FCDACE80F0095E803005D
:103FF00000258CE8030040F2012003F029FF5C4B10
:104000005C4A43F824608AF801505B4B002F00F0B3
:10401000848017550C22594902FB043341F824606F
:104020005F705E604FF48071554803B0BDEC028B49
:10403000BDE8F04F09F039BF012298E707EB84078C
:104040005048D7F89C110FF037FD1BF804104E486C
:104050000FF032FD30234D4803FB04A3597901F0E2
:1040600001010FF029FD002DA5D009EB8902484F71
:1040700000214FEA820A10220AF101003D18284669
:104080000FF012FD434A07EB0A035244194602F1AE
:10409000140052F804CB824241F804CBF9D1142227
:1040A00002FB0472518A3C4A32F81400884201D162
:1040B000012781E722F8141003F11401374A53F85D
:1040C000040B8B4242F8040BF9D140F2072003F0B5
:1040D000BFFE1822254B02FB0433142202FB047797
:1040E0007A8ADA802E4B33F81430002BE0D12D4B36
:1040F000284605F1100203EB0413023350F8041BA9
:10410000904243F8041BF9D1FEF7EAFC40F2191083
:1041100003F09EFE244B1E60CAE715550C2214279F
:10412000294602FB0433102217FB04809E60184EC0
:104130005D7007FB046430440FF0B6FC658271E7E4
:10414000440D002073640108685E0108775E010871
:10415000441A00206C1A002020130020025F01087E
:1041600000110020B9100020551700208C220020DB
:10417000B4210020AA210020F0150020BC1A002044
:10418000001C024043640108506401086564010892
:10419000E81A0020081F0020A01E00207C23002019
:1041A000B01B0020DC230020E41A00208816002029
:1041B00010140020A5100020702200202DE9F74FD8
:1041C00006460F4608F094FB8F4B80461B78DBB108
:1041D0008E4DF21C10210020FCF71CFA95F82010DF
:1041E0001FFA80FA05F5CE7200235FFA83F949457C
:1041F0001CD8874B1B78012B15D15146854803B03D
:10420000BDE8F04F0FF058BC08F072FB42F20F739C
:104210009842DDD980480FF0EBFC80498048FCF7DC
:104220000FF80028D4D003B0BDE8F08F52F8040B8B
:104230001C4601335045D8D104F1700B1021721C7B
:10424000002005EB8B0BFCF7E5F9DBF8043081B2BD
:104250008B4210D0734801910FF0CAFC019972484B
:104260000FF02AFCDBF804205146704803B0BDE88B
:10427000F04F0FF021BC6E4B1A68D2061ED51B7989
:104280004B451BD16B4801910FF0B2FC01996A4874
:104290000FF012FC40F24D11684895F820A00FF085
:1042A0000BFC40F24D1195F82030534508D8644876
:1042B00001910FF09DFC01996248A0E7CA46F2E720
:1042C000534BDFF8C0B11B78012B0FD11BF8041042
:1042D000012908D0022964D02B1993F82D30022B24
:1042E00061D1594800E059480FF082FC584B1BF847
:1042F000042053F8241091420AD05649564841F8F8
:104300002480564943F8242041F824800FF070FCA3
:104310001BF80420524BDFF870B11A555BF82400EB
:1043200003F044FA04F18A0355F8233098420ED37F
:10433000484B05EB84054B4843F82480474BD5F8A0
:104340009C114BF8248043F824800FF0B5FB464BBA
:10435000812200214BF8248018460FF0A5FB3A4635
:10436000FFB231460FF078FB0821F21D80F8807013
:104370000020FCF74FF918223C4B0546484602FB4B
:1043800004330122DA703A4B43F82480FEF76AF9CD
:10439000E9B24B1E052B34D8DFE803F009121B21CC
:1043A000332A3448A0E734480FF086FB9EE7534693
:1043B0004A463946304603B0BDE8F04FFDF70EBE21
:1043C00053464A463946304603B0BDE8F04FFEF743
:1043D000CBBB2A4803B0BDE8F04F0FF009BC5346F1
:1043E0004A463946304603B0BDE8F04FFFF72EBAD3
:1043F00053464A463946304603B0BDE8F04FFFF712
:10440000FBBC1F48FBE600BF00000020440D00205D
:10441000E7090020D164010891640108025F0108E6
:10442000450D00200D650108296501084B6501084F
:104430006816002083650108076E0108A46501085D
:10444000B2650108E66501082166010803660108F6
:10445000501E0020441A0020576601086C1A0020E4
:104460003C1700206D660108C42000208C2200202B
:104470001C1A0020126601083666010889660108C8
:10448000AA660108D01E0020281E002070B5002456
:10449000A0B00D467C220646214601A80094ADB28C
:1044A0000FF002FB224623469D4291B204D8684693
:1044B000FFF784FE20B070BDF15C20A8F02910FA4F
:1044C00082F002F1010202BF01339BB2F15C03F101
:1044D000010308BF61F00F019BB200F8801CE3E705
:1044E00010B50024A0B07C22214601A800940FF052
:1044F000DBFA03F0BFFA08B920B010BD03F0C6FA2A
:10450000F42802D0F62809D094B104F18002631C8B
:104510000DEB020404F8800CDCB2EAE7611C04F144
:10452000800311F0FF010DEB030404F8800C01D1AE
:104530000024DEE70F29DFD96846FFF7A7FFDBE796
:1045400010B50024A0B07C22214601A800940FF0F1
:10455000ABFA1B4B93F822309BB11A4B186803F04F
:1045600025F913280DD9032007F0D0FF48B1032007
:1045700007F0E0FF7E2C06D98022214612480FF07A
:104580009BFA20B010BDF42803D0F6280AD0002CE6
:10459000E9D004F18002631C0DEB020404F8800CE6
:1045A000DCB2E0E7611C04F18003C9B20DEB030447
:1045B0000F2904F8800CE4D96846FFF767FFE0E7AD
:1045C000440D00203CB60020C666010870B5204DA1
:1045D0002B78012B01D106F025F81E491E48FBF768
:1045E0002FFE10B901232B7070BD1C4C1C4E20688F
:1045F00003F0DCF8D6F81C329842F5D3194B20684A
:104600001A688242F0D0002418602C7003F0CEF8B3
:104610004FF47A71B0FBF1F113480FF04DFA1348E3
:104620000FF0E6FA96F820202146114802EB4202EC
:10463000D2000FF039FA2146A2220E480FF034FAC8
:10464000FEF74EFA40F21910BDE8704003F000BCCE
:1046500000000020025F0108450D0020B81E002068
:10466000440D0020B41E0020EF6601081C670108FD
:10467000D41F0020DC2300202DE9F04F0026AFB02E
:10468000DFF8FC82A622314604A8A94F03960FF05A
:104690000BFAD8F8000003F089F8D7F820329842D6
:1046A00000F2E4802FB0BDE8F08F3AF8153009EB46
:1046B0000514012B04F1020440F092809D499E48AC
:1046C000FBF7BEFD002800F08B8007EB85059B48BB
:1046D000D5F89C110FF0F0F91022002120460FF0C0
:1046E000E3F9013697F82030F5B2AB42DDD89149B5
:1046F0009148FBF7A5FD924B002840F0BE800122B7
:104700001A70904D2B78012B1BD101F0C7FA8E49FE
:104710000026DFF870A2DFF870B2DFF870928B78B5
:104720004A788A4809780FF0C7F9FEF7D9F9B4B288
:1047300097F82030B4EB031FC0F2AF800A200FF0CF
:10474000D3F9FEF7CDF940F2191003F081FB794956
:104750007948FBF775FD00283DD17D4E306803F0A8
:1047600025F8B0F5FA6F4FF0A0027A497A48C0F008
:10477000A8800FF071F97E238DF80C308DF80D3084
:104780008DF80E302B78012B02D174480FF030FADF
:1047900073490DF10F0031F8024B22460FF05CF91E
:1047A00004F1B8037F222EA96B4403A803F8A92CB7
:1047B000231D11FA83F303F8AC2C631D11FA83F364
:1047C000A11D03F8AC2CC9B2664B1A6803F07CF942
:1047D00008F08EF8306008F08BF8C8F8000061E748
:1047E0001BF80510604B4A1E5B5D51425141012B85
:1047F000544B08BF41F002011B78012B08D107EB95
:1048000085035A480191D3F89C210FF055F901997D
:10481000022911D003291CD001297FF45DAF544B2C
:10482000142202FB05356B1C113553F8042BAB42E7
:1048300044F8042BF9D154E74E4B142202FB053502
:104840006B1C113553F8042BAB4244F8042BF9D1FF
:1048500047E7484B142202FB05356B1C113553F812
:10486000042BAB4244F8042BF9D13AE7DFF8F0907F
:10487000DFF81CA1DFF81CB134E71C78002C7FF4B2
:1048800040AF3D480FF0B4F93C480FF0B1F9A22217
:10489000214633480FF008F933E79AF800306BB936
:1048A0002F4B23440134997848460FF005F923072C
:1048B00002D10A200FF018F9013638E70BEB040398
:1048C000F0E70FF0B9F8002885D0A022214922484E
:1048D0000FF0C2F87E238DF80C308DF80D308DF876
:1048E0000E302B78012B02D11C480FF081F91C49A6
:1048F0000DF10F0031F8024B22460FF0ADF804F134
:10490000B8037F222EA96B4403A803F8A92C231D0A
:1049100011FA83F303F8AC2C631D11FA83F3A11D84
:1049200003F8AC2CC9B20F4B1A6803F0CDF852E76C
:10493000440D0020025F0108450D00203E6701087C
:1049400000000020E7090020AE2B0020A46701082A
:10495000D8230020DE230020881D0020C96701081D
:10496000DC230020DC1E0020AA2100205267010861
:10497000201C0020E81A00206367010887670108EF
:10498000E41A0020D01F00203C110020956201088D
:10499000B01B0020EC1B00201D4D1E4C08B50BF079
:1049A00037FF284609F035FE05F026FE03F0E2FC4D
:1049B000FBF76CFFFFF794FDFFF7C2FDFFF75CFE0E
:1049C000FCF7B8F9FFF702FEFDF760FEFDF732FDD8
:1049D000FDF736FAFDF7DEF9FDF76AFA01F026FA7F
:1049E000FDF75CFDFDF7B4FE07F072FAFCF75EF828
:1049F00023784BB1084B0322054C1A7007F0C8F915
:104A0000204609F006FEF9E707F01CFEC7E700BFE5
:104A10002CA00020E60900209E100020154B5A6FA4
:104A2000002A1ADB5A6F520019D45A6F910018D419
:104A30005A6FD20017D45A6F110116D45A6F52010F
:104A400015D45B6F13F0007F14BF07200020094AC4
:104A5000536F43F08073536770470120F7E70220DC
:104A6000F5E70320F3E70420F1E70520EFE7062050
:104A7000EDE700BF0038024007289ABF024B53F809
:104A800020000248704700BFA0680108E8670108DD
:104A90002DE9F0411C4CA06802F088FE1B4BD3F8B6
:104AA000342390422DD3D3F828331427184EC3F360
:104AB000CF055B07DFF860801CBF0135ADB207F0A2
:104AC00017FFA060002413480FF092F8AC4208D3FF
:104AD0000A200FF009F840F21910BDE8F04103F088
:104AE000B7B93CB1B4FBF7F307FB134313B90A2082
:104AF0000EF0FAFF16F8011B404601340EF0DCFF01
:104B0000E4E7BDE8F08100BFA02A0020440D0020AA
:104B1000B22A0020A474010895620108F8B54A4C35
:104B2000606802F043FE494906464948FBF788FBA6
:104B3000002800F08780474DB5F82633D5F82C23A0
:104B400053439E420AD3444B62681B689A4205D085
:104B5000424B5A7895F821339A4207D82378002B94
:104B600035D03F4BD3F88030002B30D021783D48F2
:104B70000EF0A2FF23783A48D9074FF0000144BF56
:104B800023F00103237023789A074FF0840244BF77
:104B900023F0020323700EF087FF322200213248F7
:104BA0000EF082FF8422002130480EF07DFF0023AA
:104BB0002F4A3048C2E90033284AC2E900332E4A5E
:104BC000C2E900330FF014F86268234B1A602B4ED1
:104BD000306802F0EBFDD5F83C33984223D9284FDA
:104BE0003B78012B1FD1002426480FF001F88422C6
:104BF00021461B483C700EF057FF322221461A48CE
:104C00000EF052FF8422214618480EF04DFF184B3B
:104C10001848C3E90044114BC3E90044164BC3E9EB
:104C200000440EF0E5FF306802F0C0FDD5F83C33DB
:104C3000984207D2124B1B78012B03D1BDE8F840F4
:104C400005F0F0BCF8BD00BFA02A0020025F0108FB
:104C5000450D0020440D002068280020682B00200E
:104C6000F8280020C0680108B02A0020E42A0020AB
:104C7000702B0020F0680108782B00206C280020A1
:104C8000F42800200769010838B51B4C1B4D6068EB
:104C900002F08CFDB5F82633D5F82C235343984207
:104CA00004D3174B1A780AB100221A70606802F018
:104CB0007DFDD5F8383398420BD9124B62681968DC
:104CC0008A4206D01A6040F20120BDE8384003F065
:104CD000BFB80D4D286802F069FDB0F57A7F09D99B
:104CE000606802F063FDB0F5FA6F03D907F000FECB
:104CF0002860E8E738BD00BFA02A0020440D00204E
:104D0000702B00208C2B0020902B0020F8B56149DF
:104D10006148FBF795FA002837D0604C604D206859
:104D20002B6898420AD007F0E3FD20605D4C5E4A94
:104D300023785BBB137803F0FE032AE002F036FD14
:104D4000B0F57A7FEFD2286802F030FD574BD3F8E8
:104D50003C33984219D9564B28681A68824214D0BD
:104D6000186002F023FD4FF47A71B0FBF1F1514865
:104D70000EF0A2FE296850480EF09EFE4F4A1378AE
:104D800099075CBF43F002031370F8BD137843F03A
:104D900001034B4E317841B143F002031370032BF2
:104DA00033D8DFE803F0744E056D03F0FD03F5E73B
:104DB000616873688B423CD0424F3B78012B24D111
:104DC00041480EF079FE716840480EF075FE0023F0
:104DD0003F483B700EF00CFF84223E493E480EF0E7
:104DE0003BFE3D4B3D4A03F1300C1F461E46083248
:104DF00003CE664542F8080C42F8041C3346F5D150
:104E000033881380D7F880306360284B627893F83A
:104E100021339A4297D3294F3B7813F0010692D160
:104E20002F480EF0E5FE3B78667043F001033B70BF
:104E300089E70023214A6370137823F0010313707C
:104E4000E3E7726863689A4212D026480EF0D0FEFB
:104E500063780133DBB2022B6370D6D91E4BD3F8D3
:104E60008030002BD1D040F2072002F0F1FFCCE7D8
:104E7000124A137823F00103137000236370C4E710
:104E8000726863689A42F3D016480EF0B1FE6378F8
:104E90000133F3E7025F0108450D0020802B00205D
:104EA0006C280020702B002067280020440D002073
:104EB000842B0020EF660108C0690108A02A0020A9
:104EC000682B0020882B0020246901083B69010819
:104ED0005269010870280020F8280020B02A00201C
:104EE000A96901088569010838B5204D204C28467C
:104EF0000EF07EFEB4F822131E480EF0DDFDB4F86D
:104F000024131D480EF0D8FD94F820131B480EF012
:104F1000D3FDD4F830131A480EF0CEFDD4F8381370
:104F200018480EF0C9FDD4F83C1317480EF0C4FD24
:104F300094F8211315480EF0BFFDD4F82813144837
:104F40000EF0BAFDD4F82C1312480EF0B5FDB4F8EB
:104F5000261311480EF0B0FDD4F834130F480EF0AC
:104F6000ABFD2846BDE838400EF042BEE6690108B8
:104F7000440D0020396A01085C6A01087F6A010853
:104F8000A26A0108C66A0108EA6A01080E6B0108F4
:104F9000316B0108556B0108796B01089C6B0108A6
:104FA00010B52423104C11492370012304F1320061
:104FB00063703023A3704023E370C02323714E231A
:104FC00063712623A3710EF04EFF094904F16400BA
:104FD0000EF049FF074904F196000EF044FF064B1E
:104FE00004221A7010BD00BF7F240020C4520108A3
:104FF00028530108325301087E2400200D4B2DE96F
:10500000F041074693F800800B4C0026F5B2A84506
:1050100001D8FF250BE020460136FBF71BF921469E
:105020000246384632340EF007FD0028EED12846FD
:10503000BDE8F0817E2400207F24002030B50025CB
:105040009BB06022294602A801950EF02DFD664B0B
:10505000186802F0ABFB09280AD81BB030BD00204D
:1050600007F068FA04F168030DEB030404F8640C1C
:105070000020ECB207F04AFA01350028EFD1002CED
:10508000EBD004F1680301A96B4403F8640C5748A2
:105090000EF012FD214601A8FFF7B0FF0C2800F228
:1050A000A080DFE800F0070E2A37424C56606A7491
:1050B0007E8994004E4B01224E481A700EF098FDE6
:1050C000CBE704F167034C494C480DEB030414F89B
:1050D000642C303A0EF0F0FC14F8643C303BDBB248
:1050E000022B06D8464A137040F2052002F0B0FEAB
:1050F000B3E744480EF07CFDF6E7434943480EF021
:10510000DBFC43480EF074FD424A136843F0010390
:105110001360E9E740493D480EF0CEFC3F480EF0F1
:1051200067FD3C4B02221A60DEE73D4937480EF02E
:10513000C3FC3C480EF05CFD364B0422F3E73A49D1
:1051400032480EF0B9FC39480EF052FD314B0822BE
:10515000E9E737492D480EF0AFFC36480EF048FD20
:105160002C4B1022DFE7344928480EF0A5FC3348C9
:105170000EF03EFD274B2022D5E7314931480EF095
:105180009BFC31480EF034FD224B4022CBE72F49E7
:105190001E480EF091FC2E480EF02AFD1D4B802279
:1051A000C1E72C4919480EF087FC2B480EF020FD72
:1051B000184B4FF48072B6E7284914480EF07CFC77
:1051C00027480EF015FD134B4FF40072ABE725494D
:1051D0000E480EF071FC24480EF00AFD0D4B002223
:1051E000A1E708486AE700BFB8B4002037530108B8
:1051F000E60900204D530108B12400208D53010819
:10520000E70900209F530108E32400201F540108F0
:10521000CB7701083838002015250020497801088F
:10522000472500208778010879250020BD780108EE
:10523000AB250020F5780108DD250020EF75010879
:105240000F2600202C540108C06B010841260020C5
:10525000D36B0108732600205D770108A526002086
:10526000EB6B0108D7260020086C010830B500243C
:10527000064D824201D8204630BD0B5C01306340B0
:10528000DBB255F8233083EA1424F2E7A46F010857
:105290002DE9F0410027CCB004464FF49472394612
:1052A00002A80EF001FC01AD264E532322460DF15B
:1052B00017002B7006F118017388A5F80130B38828
:1052C000A5F80330B3796B71E223AB71B37A6B72DB
:1052D000D6F80B30CDF80E30B6F80F30ADF81230EE
:1052E000737C8DF81430B38AA5F811300EF0B4FB3E
:1052F00004F11300224606F19801134E1FFA80F8BC
:1053000015FA80F00EF0A8FB294644443846A4B2B2
:10531000E31E2F55A21C0634A5F8073092B2A4B2A2
:10532000FFF7A4FFA850BBB29C4202D84CB0BDE826
:10533000F08115F8011B013796F8200307F01EF9DC
:10534000F1E700BF7C290020440D002070B5FFF775
:105350008DFF89580446884208D005480EF0ACFB02
:10536000214604480EF0A8FB002070BD0120FCE798
:10537000126C0108296C01082DE9F84381460F469B
:105380000026DFF8FC80394D484607F0BFF8044698
:10539000002857D0484607F0CDF898F80030013B78
:1053A000042BF1D801A252F823F000BFC15300082A
:1053B000D153000889530008E95300080754000836
:1053C0005328E1D101232B80022388F80030DBE74A
:1053D0002B88082B04D1092338722B800423F4E78F
:1053E000F85401332B80CFE72B880121FA1832F8CB
:1053F000026C1F4AF8540B44118002222B801D4B73
:105400001A800523E1E71A4A2C8813883855B342DD
:1054100028D2013317499BB21380621CB3422A8001
:105420000A8802F101020A80AED1033C0026012362
:10543000A4B22E8088F80030042C06D834460E48DA
:105440000EF0D6FB2046BDE8F883224639463046AA
:10545000FFF77CFF05460028F4D108482C460EF0E3
:10546000C7FBEFE7002601232E80AEE7962B002036
:10547000942B0020982B0020416C0108476C0108F8
:105480000B0000202DE9F04F0024ADF53D7D4FF4D9
:1054900094729B4F214672A871940EF005FB7C22FA
:1054A000214609A808940EF0FFFA4FF4967271A9EC
:1054B00097F82003FFF760FF0528054659D94FF4F8
:1054C0008071904871AEDFF86C924FF00A0808F0D6
:1054D000ECFC8D480EF08CFB013416F8011B48469D
:1054E000A4B20EF0E9FAA54238D10A200EF0FCFA77
:1054F0004FF49272002128A80EF0D6FA9DF8C4311C
:10550000BDF8C5818DF8A030B7F82433ADF8A4807C
:10551000434534D1BDF8C791B7F82233ADF8A29016
:105520004B450DD079480EF063FBB7F822134A467D
:1055300077480EF0C1FA77497748FAF781FED0B97B
:105540009DF8C961AA2E8DF8A66028D19DF8CA11D0
:10555000E1298DF8A71029D0704824E0B4FBF8F3B6
:1055600008FB13439BB2002BB6D10A200EF0BCFA05
:10557000B2E70028BCD10DF53D7DBDE8F08F68484D
:105580000EF036FBB7F82413424661480EF094FA49
:1055900060496148FAF754FE0028BBD0EBE7BB2E08
:1055A000D4D031465F480EF087FAE4E7BDF8CB313E
:1055B0009DF8D5110593ADF8A83011299DF8CD318E
:1055C0008DF8B21006938DF8AA30DDF8CE31CDF803
:1055D000AB30BDF8D231ADF8AF309DF8D4318DF895
:1055E000B13001D05048DEE7BDF8D631ADF8B43067
:1055F0002D9DB5F5806F02D929464C48D3E7D7F8E1
:105600002843A5420CD043494348FAF719FE28B174
:105610002A46214646480EF04FFAACE7C7F8285311
:105620006B07C5F3CF0408AF76A918BF01342EA8C5
:1056300018BFA4B222460EF00FFA76AB384600220D
:1056400091B28C4231D8630004F114020DF59C7ABA
:105650000DF5E27E9BB292B2D44603F1150080B202
:10566000511C89B2884227D103F1140B224608A9A4
:105670004EA804931FFA8BFB0EF0DEF9049B0790F3
:1056800070B300252B4E2C480EF0B2FAABB29C4200
:1056900018D80025274E29480EF0AAFAABB29C4232
:1056A00017D827480EF0A4FA65E713F8011B01325A
:1056B000C94300F8011BC3E71EF802200CF8012BB8
:1056C0000A46CDE71AF8011B304601350EF0F4F911
:1056D000DCE717F8011B304601350EF0EDF9DDE788
:1056E00071A95A4612200493FFF7C0FD51F80B2010
:1056F0000746049B90426E9226D0014611488AE7E5
:10570000440D0020001C02404F6C0108AC6C0108E5
:105710008B6C0108025F0108450D00200F6D010828
:10572000596C0108D96C0108446D0108886D0108A5
:10573000D96D010895620108156E0108616E0108B6
:10574000846E0108956E01081833DFF8A4B1DFF804
:10575000A4A19BB2CB5AADF8BC3107F0C9F828A977
:105760004FF49272CAF8040058460EF075F94E4B89
:10577000012220465F604D4F1A70FFF789FD2246D7
:105780002EA938460EF068F9DBF81831DFF868B159
:105790002246394604935846C7F880300EF04CF93B
:1057A00038B32246394658460EF056F9049B30224B
:1057B00007993F48CBF880300EF076F922463946FB
:1057C0003B480EF049F940F2191002F041FB07F096
:1057D0008FF8CAF8080037480EF00AFA40F20120A4
:1057E00002F036FB344B5B681BB940F2072002F035
:1057F0002FFB32480EF0FCF9414631480EF05CF9BF
:10580000494630484FF000090EF056F931462E480F
:105810000A260EF051F9E1212C480EF04DF90599B8
:105820002B480EF049F906992A480EF045F99DF8E3
:10583000B1309DF8AD2002939DF8B0309DF8AE10C8
:1058400001939DF8AF30244800939DF8AC300EF0E2
:1058500033F9112121480EF02FF9214F2946214813
:10586000124D0EF029F9DFF894801F480EF024F94C
:105870001FFA89F39C4204D80A200EF035F91B4820
:1058800010E743B1B3FBF6F206FB12339BB213B938
:1058900038460EF011F915F8011B404609F10109CF
:1058A0000EF00AF9E4E700BF702B0020F828002072
:1058B000B22A0020D56E0108682B0020EC6E01088A
:1058C000136F01081B6F0108236F01082C6F01087B
:1058D000356F01083D6F0108456F0108676F0108CA
:1058E0008D6F0108706F0108796F0108ED6E010876
:1058F0007C290020A02A0020E42A002095620108CB
:10590000144D154C08B506F0E3FA02F033FD04F02F
:1059100073FE284608F07DFEFFF7B4FDFFF7B8F8E8
:10592000FFF7FCF8FFF7B0F9FFF7F0F9FFF786FB98
:10593000FBF7BCF823784BB1084B0322054C1A70D7
:10594000204608F066FE06F023FAF9E706F07AFE34
:10595000D9E700BF2CA00020E60900209E100020FF
:105960002DE9F34707460C4690463B4EDFF804917D
:10597000FDB2284606F0CAFD48B34FF0010A374889
:1059800089F800A008F045FE284606F0D3FD05463C
:1059900006F058FE3278324B022A09D0032A51D041
:1059A000524547D1242D45D125701A8002223BE073
:1059B000242D36D0262D03D0052D37D1032233E0F8
:1059C0001F880022BD1E1A802DB2954204DA0026DF
:1059D000304602B0BDE8F08705F1010886F800A066
:1059E000625D294614F808301E48009343460EF0C5
:1059F00063F82946204604F0FFFB064638B114F848
:105A000008203EB2615D18480EF056F8E0E71748EE
:105A10000EF052F814F80820615D15480EF04CF8AD
:105A2000D6E72570A3F800A0327003E01A88A554C9
:105A300001321A801A8842459AD30122327000221C
:105A40001A8093E705F0FD02242A01D0052DADD17F
:105A50001A88A5540132A8E70D0000202CA00020D0
:105A60009C2B0020A4730108C9730108DB73010893
:105A7000D0730108A4100020F0B5002385B00446BF
:105A800040F2DB56ADF80C30154FCDE901338DF8FF
:105A90000610042124238DF807200DEB01008DF85A
:105AA000043004F0CDFB26239DF809209DF8081052
:105AB0000C488DF80A300DF0FFFF06F019FF05467F
:105AC000284601F073FEB04206D9062201A92046FD
:105AD00006F086FD05B0F0BD384608F09AFDEFE708
