:020000040800F2
:10000000000008205D880108017C0108077C0108C8
:100010000D7C0108137C0108197C01080000000018
:100020000000000000000000000000001F7C01082C
:100030002D7C0108000000003B7C0108497C010880
:10004000AD880108AD880108AD880108AD880108B8
:10005000AD880108AD880108557C0108637C010862
:10006000AD880108AD880108AD880108AD88010898
:10007000AD880108AD880108AD880108AD88010888
:10008000AD880108AD880108AD880108AD88010878
:10009000AD880108AD880108AD880108AD88010868
:1000A000AD880108AD880108AD880108AD88010858
:1000B000AD880108AD880108717C0108AD88010890
:1000C000AD880108AD880108AD880108AD88010838
:1000D000AD880108857C0108AD880108AD8801085C
:1000E000AD880108AD880108AD880108AD88010818
:1000F000AD880108AD880108AD880108AD88010808
:10010000AD880108AD880108997C0108AD88010817
:10011000AD7C0108C17C0108D57C0108E97C01089F
:10012000AD880108AD880108AD880108AD880108D7
:10013000AD880108FD7C0108AD880108AD88010883
:10014000117D0108257D0108AD880108AD880108F1
:10015000AD880108AD880108AD880108AD880108A7
:10016000AD880108AD880108AD880108AD88010897
:10017000AD880108AD880108AD88010800000000C5
:10018000AD880108AD880108397D0108AD880108F6
:10019000AD880108AD880108AD880108AD88010867
:1001A000AD880108AD880108AD880108AD88010857
:1001B000AD880108AD880108AD880108AD88010847
:1001C000AD880108AD880108AD880108AD88010837
:1001D000AD880108AD880108AD880108AD88010827
:1001E000AD8801084D7D0108617D0108AD880108D9
:0801F000AD880108AD8801088B
:1002000010B5054C237833B9044B13B10448AFF350
:1002100000800123237010BDE404002000000000D2
:10022000C86F020808B5034B1BB103490348AFF37D
:10023000008008BD00000000E8040020C86F02082C
:1002400010F8012B11F8013B012A28BF9A42F7D080
:10025000D01A7047034613F8012B002AFBD1181A55
:10026000013870470000000000000000000000009E
:1002700001F0FF01102A2BDB10F0070F08D010F857
:10028000013B013A8B422DD010F0070F42B3F6D15B
:10029000F0B441EA012141EA014122F007047FF074
:1002A00000070023F0E80256083C85EA010586EACB
:1002B000010685FA47F5A3FA87F586FA47F6A5FA07
:1002C00087F68EB9EED1F0BC01F0FF0102F0070213
:1002D00032B110F8013B013A83EA010313B1F8D1BE
:1002E0000020704701387047002D06BF354603389F
:1002F000073815F0010F07D1013015F4807F02BFD8
:10030000013015F4C03F0130F0BC0138704700BF28
:1003100053B94AB9002908BF00281CBF4FF0FF316C
:100320004FF0FF3000F074B9ADF1080C6DE904CE68
:1003300000F006F8DDF804E0DDE9022304B07047C0
:100340002DE9F047089D04468E46002B4DD18A4288
:10035000944669D9B2FA82F252B101FA02F3C2F1BB
:10036000200120FA01F10CFA02FC41EA030E94404C
:100370004FEA1C48210CBEFBF8F61FFA8CF708FB6D
:1003800016E341EA034306FB07F199420AD91CEB45
:10039000030306F1FF3080F01F81994240F21C8177
:1003A000023E63445B1AA4B2B3FBF8F008FB1033BF
:1003B00044EA034400FB07F7A7420AD91CEB0404F4
:1003C00000F1FF3380F00A81A74240F207816444C4
:1003D000023840EA0640E41B00261DB1D440002349
:1003E000C5E900433146BDE8F0878B4209D9002DAD
:1003F00000F0EF800026C5E9000130463146BDE837
:10040000F087B3FA83F6002E4AD18B4202D38242A0
:1004100000F2F980841A61EB030301209E46002D4F
:10042000E0D0C5E9004EDDE702B9FFDEB2FA82F2A4
:10043000002A40F09280A1EB0C014FEA1C471FFA02
:100440008CFE0126200CB1FBF7F307FB131140EAE9
:1004500001410EFB03F0884208D91CEB010103F1B6
:10046000FF3802D2884200F2CB804346091AA4B278
:10047000B1FBF7F007FB101144EA01440EFB00FE4C
:10048000A64508D91CEB040400F1FF3102D2A645B1
:1004900000F2BB800846A4EB0E0440EA03409CE750
:1004A000C6F12007B34022FA07FC4CEA030C20FAFD
:1004B00007F401FA06F31C43F9404FEA1C4900FA1D
:1004C00006F3B1FBF9F8200C1FFA8CFE09FB18119A
:1004D00040EA014108FB0EF0884202FA06F20BD90D
:1004E0001CEB010108F1FF3A80F08880884240F25D
:1004F0008580A8F102086144091AA4B2B1FBF9F0A1
:1005000009FB101144EA014100FB0EFE8E4508D99B
:100510001CEB010100F1FF346CD28E456AD9023820
:10052000614440EA0840A0FB0294A1EB0E01A14205
:10053000C846A64656D353D05DB1B3EB080261EB73
:100540000E0101FA07F722FA06F3F1401F43C5E94D
:10055000007100263146BDE8F087C2F12003D84083
:100560000CFA02FC21FA03F3914001434FEA1C47C5
:100570001FFA8CFEB3FBF7F007FB10360B0C43EAB7
:10058000064300FB0EF69E4204FA02F408D91CEB67
:10059000030300F1FF382FD29E422DD90238634465
:1005A0009B1B89B2B3FBF7F607FB163341EA034105
:1005B00006FB0EF38B4208D91CEB010106F1FF3854
:1005C00016D28B4214D9023E6144C91A46EA00464B
:1005D00038E72E46284605E70646E3E61846F8E6DD
:1005E0004B45A9D2B9EB020864EB0C0E0138A3E726
:1005F0004646EAE7204694E74046D1E7D0467BE707
:10060000023B614432E7304609E76444023842E77E
:10061000704700BF80B487B000AF03463A60FB80EC
:100620000B46BB80FA88BB8813443B823B8A082B6D
:1006300006D8FB88C3F10703FB8001237B8219E006
:100640003B8A102B06D8FB88C3F10F03FB800223E3
:100650007B820FE03B8A182B06D8FB88C3F1170377
:10066000FB8003237B8205E0FB88C3F11F03FB8033
:1006700004237B8200237B617B8A013B032B34D8DC
:1006800001A252F823F000BFD5060008BF060008FB
:10069000A9060008990600083B685A1C3A601B78B6
:1006A0001A467B6913437B617B691B027B613B6854
:1006B0005A1C3A601B781A467B6913437B617B693D
:1006C0001B027B613B685A1C3A601B781A467B69A7
:1006D00013437B617B691B027B613B685A1C3A6058
:1006E0001B781A467B6913437B61FA88BB88D31A4F
:1006F0009BB20133FB81BB880B4A52F82330BB60AD
:10070000FB89BA6802FA03F37A6913407B61FB89BB
:100710007A6922FA03F37B617B6918461C37BD4670
:100720005DF8047B704700BF0000002080B48BB0F0
:1007300000AFBA607B600346FB810B46BB81BB68A0
:10074000FB61FA89BB8913447B837B8B082B06D81A
:10075000FB89C3F10703FB8101237B8419E07B8BB9
:10076000102B06D8FB89C3F10F03FB8102237B8486
:100770000FE07B8B182B06D8FB89C3F11703FB8195
:1007800003237B8405E0FB89C3F11F03FB81042362
:100790007B8400237B627B8C013B032B31D801A23D
:1007A00052F823F0F1070008DB070008C50700082E
:1007B000B5070008BB685A1CBA601B781A467B6AEA
:1007C00013437B627B6A1B027B62BB685A1CBA6064
:1007D0001B781A467B6A13437B627B6A1B027B622F
:1007E000BB685A1CBA601B781A467B6A13437B624B
:1007F0007B6A1B027B62BB681B781A467B6A1343C9
:100800007B62FA89BB89D31A9BB201333B83BB89D4
:10081000234A52F823307B617A687B6913407B60FE
:100820003B8B7A6802FA03F37B603B8B7A6902FAAE
:1008300003F3DB437A6A13407B627A6A7B68134373
:100840007B627B8C013B032B23D801A252F823F05F
:100850008B0800087D0800086F0800086108000880
:100860007B6A190EFB695A1CFA61CAB21A707B6A5C
:10087000190CFB695A1CFA61CAB21A707B6A190A10
:10088000FB695A1CFA61CAB21A707B6ADAB2FB6958
:100890001A707B6A18462C37BD465DF8047B70479A
:1008A00084000020B0B483B000AF0023FB71FB795B
:1008B0006E4A322101FB03F3134424221A70FB79A0
:1008C0006A4A322101FB03F31344013301221A70F7
:1008D000FB79664A322101FB03F3134402333022D1
:1008E0001A70FB79614A322101FB03F3134403338D
:1008F00040221A70FB795D4A322101FB03F3134455
:100900000433C0221A70FB79584A322101FB03F3E9
:10091000134405334E221A70FB79544A322101FBED
:1009200003F31344063326221A70FB790133FB715B
:10093000FB795A1CFA711A46322302FB03F34B4A25
:1009400013444B491A460B4603CB1060516019887B
:100950009B7811819372FB795A1CFA711A463223E3
:1009600002FB03F3414A1344424A1C4615460FCD8D
:1009700020606160A260E360FB795A1CFA711A463C
:10098000322302FB03F3394A13443B4A1C46154603
:100990000FCD20606160A260E360FB795A1CFA71A0
:1009A0001A46322302FB03F3304A1344334A1D46EE
:1009B00014460FCC28606960AA60EB602388A27897
:1009C0002B821346AB74FB795A1CFA711A463223F8
:1009D00002FB03F3254A1344294A1D4614460FCC53
:1009E00028606960AA60EB602388A2782B82134696
:1009F000AB74FB795A1CFA711A46322302FB03F3DB
:100A00001A4A13441F4A1D4614460FCC28606960D9
:100A1000AA60EB602388A2782B821346AB74FB7923
:100A20005A1CFA711A46322302FB03F30F4A13448D
:100A300015491A460B4603CB106051601B88138181
:100A4000FB795A1CFA711A46322302FB03F3074A58
:100A500013440E4A1068186012791A710C4AFB7917
:100A6000137000BF0C37BD46B0BC7047C40F0020E8
:100A7000E06F0208EC6F0208FC6F02080C700208BD
:100A8000207002083470020848700208547002088E
:100A9000AC13002080B582B000AF7860391D4FF6EE
:100AA000FF73012207481DF097FD074B1B689868EC
:100AB00000230222002125F0C3F87B68184608377E
:100AC000BD4680BD78DB00204003002080B582B0A9
:100AD00000AF0023FB711D4B3B6008211C481AF03E
:100AE0006BFC0346002B0CBF01230023DBB25AB280
:100AF00097F9073013435BB2FB71102114481AF0C9
:100B00005BFC0346002B01D1022300E000235AB214
:100B100097F9073013435BB2FB714FF400510D4856
:100B20001AF04AFC0346002B01D1042300E0002305
:100B30005AB297F9073013435BB2FB713B68FA79FD
:100B40001A7000BF0837BD4680BD00BFBC0F002033
:100B5000002802400020024080B59AB000AF002378
:100B600087F86730002387F86630002387F8653000
:100B700000233B603B1D60220021184624F086FEC6
:100B8000C04B1B6818460FF01BFA0346092B40F2B6
:100B9000758110E0002017F023FD034687F86530CB
:100BA00097F866305A1C87F8662068333B4497F8FC
:100BB000652003F8682C002017F0D2FC0346002BB8
:100BC000E8D197F86630002B00F04E8197F8663038
:100BD00068333B44002203F8682C3B461946AA4878
:100BE00024F03CFF97F866203B461146184600F07B
:100BF00079F90346092B00F2338101A252F823F060
:100C0000290C0008370C00089B0C0008F10C0008A8
:100C10004D0D0008970D0008DB0D00081F0E0008A1
:100C20003B0E0008450E0008984B01221A709848A8
:100C300024F0B0FF19E197F86630013B68333B447C
:100C400013F8683C303B1A469249934824F006FF5B
:100C500097F86630013B68333B4413F8683C2F2B10
:100C600014D997F86630013B68333B4413F8683C6D
:100C7000312B0BD897F86630013B68333B4413F8AF
:100C8000683C303BDAB2854B1A7002E0844824F0AD
:100C900081FF012387F86730E7E097F86630013B72
:100CA00068333B4413F8683C303B1A467D497E4824
:100CB00024F0D4FE7D4824F06DFF7D4B1B6843F08B
:100CC00010037B4A136097F86630013B68333B445E
:100CD00013F8683C303BDAB2754B1A71012387F880
:100CE0006730734B1B681946724824F0B7FEBCE0AE
:100CF00097F86630013B68333B4413F8683C303B5F
:100D00001A466D49684824F0A9FE6C4824F042FF59
:100D1000674B00221A60664B1B6843F02003644A4D
:100D2000136097F86630013B68333B4413F8683C26
:100D3000303BDAB25E4B1A71012387F867305C4BA7
:100D40001B6819465B4824F089FE8EE097F86630F0
:100D5000013B68333B4413F8683C303B1A46584922
:100D6000514824F07BFE574824F014FF504B1B6879
:100D700043F400734E4A136097F86630013B6833C2
:100D80003B4413F8683C303BDAB2494B1A710123FB
:100D900087F8673069E097F86630013B68333B4479
:100DA00013F8683C303B1A4647493F4824F056FE4A
:100DB0003F4B1B6843F001033D4A136097F86630D0
:100DC000013B68333B4413F8683C303BDAB2384BA4
:100DD0001A71012387F8673047E097F86630013BC6
:100DE00068333B4413F8683C303B1A4637492E4879
:100DF00024F034FE2E4B1B6843F002032C4A136090
:100E000097F86630013B68333B4413F8683C303B4D
:100E1000DAB2274B1A71012387F8673025E02C4995
:100E20002C4824F01BFE224B00221A60204BFF228C
:100E30001A71012387F8673017E02749274824F003
:100E40000DFE12E097F86630013B68333B4413F81F
:100E5000683C303B1A462249134824F0FFFD04E069
:100E60000F4824F097FE00E000BF97F86730012B91
:100E700005D140F205200FF01FFE00E000BF6837EB
:100E8000BD4680BD34BF00205C700208BA0B002054
:100E900074700208F60F0020B4700208BB0B00202B
:100EA000C870020828100020E470020800710208CF
:100EB0008C300020107102085A10002024710208A2
:100EC0008C10002034710208BE100020F0100020A9
:100ED0002211002050710208541100206071020894
:100EE0008611002090B585B000AF78600B46FB708E
:100EF0000023FB731CE0FB7B322202FB03F3114A4D
:100F00009C18FB7B322202FB03F30E4A1344184663
:100F1000FFF7A0F903461A462146786824F07EFCC4
:100F20000346002B01D1FB7B08E0FB7B0133FB7305
:100F3000054B1B78FA7B9A42DDD3FF231846143702
:100F4000BD4690BDC40F0020AC13002080B500AF9B
:100F5000164B1B6818460FF033F80346B3F57A6F4B
:100F600021D9134B1A88134B1B889A4212D0114B6C
:100F70001B88002B0ED0104824F00CFE0C4B1B8855
:100F800019460E4824F06AFD0A4B1B8819460C4886
:100F900024F064FD40F20A200FF08EFD17F048FEA9
:100FA0000346024A136000BF80BD00BFB01300209B
:100FB000B40B0020B80B00209C710208C07102081D
:100FC000D071020880B500AF094B1B6818460EF0BF
:100FD000F7FF034641F65832934206D900F00AF86B
:100FE00017F026FE0346024A136000BF80BD00BF13
:100FF0007023002080B582B000AF0023BB710023B6
:101000007B710023FB7169E0FB796F4AD35C002B95
:1010100008D1BB7998B27B796C4A1A44002302212B
:10102000FFF784FBFB79684AD35C012B08D1BB79BD
:1010300098B27B79654A1A4401230221FFF776FBB7
:10104000FB79614AD35C022B08D1BB7998B27B79DA
:101050005E4A1A4402230221FFF768FBFB795A4AD1
:10106000D35C032B08D1BB7998B27B79574A1A44D9
:1010700003230221FFF75AFB554B1B6818460EF05D
:101080009FFF034643F69822934213D9FB794E4AB9
:10109000D35C002B0ED0BB7998B27B794B4A1A44B3
:1010A00003230221FFF742FB4A4B01221A604A4800
:1010B00024F0D4FCBB790233BB71BB79082B04D17B
:1010C0000023BB717B7901337B717B79072B02D1C4
:1010D000BB79062B06D0FB790133FB71FB791E2B04
:1010E00092D900E000BF0023FB7110E0FB79364A83
:1010F000D35C002B08D0FB79334AD35C032B03D895
:10110000364AFB79137005E0FB790133FB71FB79FB
:101110001E2BEBD9314B1A78314B1A70314AFB79BF
:1011200013702F4B1A782F4B1B789A4219D02E48E8
:1011300024F030FD2D4B01221A702D4B1B7801330A
:10114000DAB22B4B1A70234B1B68042B0CD9214BA2
:1011500000221A60264B04221A70264824F01AFD39
:1011600002E0234B00221A70214B1B78FA2B02D18C
:101170001F4B06221A701A4B1A781A4B1B789A4288
:1011800042D11D4B1B780133DAB21B4B1A701B483E
:1011900024F000FD1A4B1B78042B38D1134B1B781D
:1011A000012B34D10A4B1B6818460EF009FF034689
:1011B00042F6E06293422AD90C4B00221A70114881
:1011C00024F04CFC23E000BF68230020B41300206F
:1011D0006023002064230020E071020874230020B3
:1011E0007523002076230020547202080803002093
:1011F0005C2300209872020877230020D87202082E
:1012000009030020207302082E4B00221A702D4B78
:101210001B78FA2B02D12B4B06221A70294B1B7814
:10122000032B15D9274B1B78052B11D8264B1B7880
:10123000022B0DD1254824F0ADFC254B00221A705D
:10124000214B04221A7006220021224824F01EFBA2
:101250001F4B1B78032B07D91D4B1B78052B03D87D
:10126000194B1B78042B03D01B4B1B68012B16D981
:10127000194B1B68012B04D9174B1B680133164A05
:101280001360164824F086FC0E4B00221A700E4B99
:1012900002221A70062200210E4824F0F7FA4FF4B9
:1012A0007A6200210E4824F0F1FA0E4B00221A70E7
:1012B0000D4B00221A700D4B00221A7000BF083728
:1012C000BD4680BD77230020090300204873020833
:1012D0005C23002068230020642300207C73020824
:1012E000BC130020752300207623002074230020E7
:1012F00080B582B000AF00237B604FF496722F4917
:10130000022000F06BF803467B607B68002B51D015
:101310002A4B1B78002B48D0284B1B781F2B44D816
:10132000264B1B783B60254B9B7DFF2B08D1244A25
:101330003B68134400221A703968224824F08EFB5F
:101340001E4B9B7DBF2B0FD11D4A3B6813440122CE
:101350001A7039681C4824F081FB1C4B1B68012B58
:1013600002D11A4B02221A60144B9B7D7F2B0FD1A6
:10137000134A3B68134402221A703968144824F057
:101380006DFB124B1B68012B02D1104B02221A601D
:101390000A4B9B7D3F2B08D1094A3B68134403222B
:1013A0001A7039680B4824F059FB17F041FC0346CA
:1013B000094A136000BF0837BD4680BD782300206E
:1013C00068230020A8730208F47302086423002035
:1013D000407402088C7402086023002080B584B039
:1013E00000AF03463960FB801346BB800023FB73CC
:1013F000A6E0FB88DBB2184617F0F2F80346FB7351
:10140000FB7B1946554824F029FB554B1B780B3BB9
:10141000032B00F2918001A252F823F02D14000852
:101420005B14000879140008AB140008FB7B002B48
:1014300000F08680FB7B1F2B00F28280FB7B0E2B53
:101440007ED0484AFB7B1370474B1B680133464AEA
:101450001360434B0C221A7072E0FB7B032B6FD19D
:10146000424AFB7B1370404B1B6801333E4A1360BA
:101470003B4B0D221A7063E0FB7B1C2B0ED13C4AC8
:10148000FB7B1370384B1B680133374A1360344BB6
:101490000E221A70374B01221A7051E0324B002293
:1014A0001A602F4B0B221A704AE02E4B1A783B68B9
:1014B0001A703B6801332D4A12781A703B68023368
:1014C0002B4A12781A70284B1B683A681344FA7B2F
:1014D0001A70254B1B68202B04D8234B1B68013343
:1014E000214A1360204B1B68212B29D11E4B1B68FE
:1014F0009BB2023B9BB21946386800F041F80346A4
:10150000002B0ED0184B1B68DAB21A4B1A70144B12
:101510000B221A70144B00221A60164B1B789BB2D8
:1015200018E0154824F036FB0D4B0B221A700E4BB9
:1015300000221A6000230DE0104824F08FFA00BF4B
:10154000FB88DBB2184617F00BF80346002B7FF43C
:1015500050AF002318461037BD4680BDD87402082E
:101560000A030020A4240020A8240020AC2400208A
:10157000AD240020AE240020E0740208EC740208C0
:1015800080B584B000AF78600B467B807B881946BD
:10159000786800F01FF80346FB817B8801337A6886
:1015A00013441B78BB81BB891B02BB817B887A6893
:1015B00013441B789AB2BB891343BB81FA89BB8958
:1015C0009A4201D1012300E0002318461037BD469E
:1015D00080BD000080B485B000AF78600B467B8092
:1015E000FF23FB73FF23BB7313E07B685A1C7A60F5
:1015F0001A78BB7B5340DBB2BB60104ABB68134414
:101600001A78FB7B5340BB730D4ABB6813441B78AD
:10161000FB737B885A1E7A80002BE6D1FB7B9BB242
:101620001B02BB81BB7B9AB2BB891343BB81BB89C5
:1016300018461437BD465DF8047B7047080100204A
:101640000802002080B5A2B000AF002387F88530E3
:1016500000237B6007F108037C220021184624F058
:1016600015F9002387F88730002387F886303AE0A1
:101670000FF068F8034687F8853097F88530F42B2B
:1016800002D0F62B0CD01BE097F887305A1C87F855
:10169000872088333B4497F8852003F8842C1EE08C
:1016A00097F887305A1C87F8872088333B4497F88F
:1016B000852003F8842C97F8873087F886300EE071
:1016C00097F88730002B0AD097F887305A1C87F894
:1016D000872088333B4497F8852003F8842C97F8BB
:1016E0008630002B05D10FF019F80346002BBFD12F
:1016F00000E000BF97F88630002B0DD097F88730B8
:101700000F2B06D997F887203B1D1146184600F08D
:10171000ABF8002387F8873000BF8837BD4680BD0F
:1017200080B5A2B000AF002387F8853000237B602E
:1017300007F108037C220021184624F0A7F80023B3
:1017400087F88730002387F88630434B93F82230A0
:10175000002B7AD0414B1B6818460EF031FC034633
:10176000132B74D950E0032016F03AFF034687F894
:10177000853097F885301946394824F06FF997F885
:1017800087307E2B0AD997F8873080221946354852
:1017900024F064F9002387F887303DE097F885301E
:1017A000F42B02D0F62B0CD01BE097F887305A1C94
:1017B00087F8872088333B4497F8852003F8842CEA
:1017C0001EE097F887305A1C87F8872088333B44FF
:1017D00097F8852003F8842C97F8873087F88630AF
:1017E0000EE097F88730002B0AD097F887305A1C04
:1017F00087F8872088333B4497F8852003F8842CAA
:1018000097F88630002B06D1032016F0A9FE034678
:10181000002BA8D100E000BF97F88630002B17D02E
:1018200097F887300F2B06D997F887203B1D114674
:10183000184600F019F8002387F887303B1D8022F6
:101840000021184624F022F802E000BF00E000BFAB
:101850008837BD4680BD00BF0405002030BF002092
:10186000F87402080075020880B5A4B000AF786073
:101870000B46FB700023FB6007F110037C22002164
:10188000184624F003F80023A7F88E300023A7F8A9
:101890008C300023A7F88E300023A7F88C3034E07A
:1018A000B7F88C307A6813441B78F02B18D1B7F84E
:1018B0008C307A6813441978B7F88C3001337A6821
:1018C00013441A78B7F88E300A43D2B290333B44AF
:1018D00003F8842CB7F88C300133A7F88C300AE079
:1018E000B7F88C307A681A44B7F88E301278903393
:1018F0003B4403F8842CB7F88E300133A7F88E30C0
:10190000B7F88C300133A7F88C30FB789BB2B7F86E
:101910008C209A42C4D3B7F88E2007F10C031146ED
:10192000184600F005F800BF9037BD4680BD0000A6
:1019300080B588B000AF78600B467B800023FB75D4
:101940000023FB770023BB770023BB6100233B61AF
:1019500017F06EF9F860A74B1B78002B11D117F028
:1019600067F9034642F20F7293420AD9A24824F063
:1019700011F9A249A248FEF763FC0346002B40F090
:10198000A1817B6803331A4610210020FEF742FE36
:1019900003469BB23B610BE0FB7F9A4A66339B0098
:1019A00013445B683A699A4209D0FB7F0133FB77A5
:1019B000944B93F82030FA7F9A42EDD300E000BFB9
:1019C000904B93F82030FA7F9A4209D38E4B1B78C4
:1019D000012B40F0798139698C4824F03FF873E19C
:1019E0007B6801331A4610210020FEF713FE0346E0
:1019F0009BB2BB61FB7F834A70339B0013445B68DF
:101A0000BA699A4212D0824824F0C4F8B969814870
:101A100024F024F8FB7F7B4A70339B0013445B68FF
:101A20001A4639697C4824F019F84EE1FB7FBB77F0
:101A30007A4B1B681B0903F00103002B16D0774B70
:101A40001B79BA7F9A4211D1754824F0A3F8B9697D
:101A5000744824F003F840F24D13BB61694B93F8CE
:101A60002030BB77B969704823F0F8FF654B93F8D5
:101A70002030BA7F9A4207D36C4824F08BF8B969BA
:101A80006B4823F0EBFF20E15F4B1B78012B21D14A
:101A9000FB7F684AD35C012B02D0022B04D007E005
:101AA000654824F077F815E0644824F073F811E0F5
:101AB000FB7F544A134493F82D30022B03D1604826
:101AC00024F068F806E0FB7F5A4AD35C19465D486B
:101AD00023F0C4FFFB7F5C4A52F82330FA7F55495C
:101AE0008A5C934214D0FB7F5849FA6841F823205E
:101AF000FB7F5749FA6841F82320FB7F4D4AD25CAF
:101B0000FB7F1146504A42F82310524824F042F815
:101B1000FA7FFB7F4749895C4F4AD154FB7F4F4A8C
:101B200052F8233018460EF04BFA0246FB7F354937
:101B30008A3351F823309A4218D3FB7F4749FA6819
:101B400041F82320FB7F4149FA6841F82320FB7FBD
:101B50003F49FA6841F82320FB7F2A4A66339B00FD
:101B600013445B6819463E4823F078FFFB7F3B49EE
:101B7000FA6841F82320812200213A4823F086FEAA
:101B80007B881A467968374823F058FE7B88DAB29A
:101B9000344B83F880207B6807331A4608210020E5
:101BA000FEF738FD0346FB75FA7F2F4913465B00AD
:101BB0001344DB000B44033301221A70FB7F2B49D3
:101BC000FA6841F82320FB7F184606F09BFDFB7D59
:101BD000013B052B70D801A252F823F0711C0008BC
:101BE000811C0008911C0008991C0008B91C000801
:101BF000A91C00080B0300202C7502086C75020854
:101C00000505002004050020BB0B002078750208A4
:101C1000B4750208D0750208F47502088C300020F3
:101C20002C76020850760208607602087076020868
:101C3000A47602080C270020C4760208D476020895
:101C4000E4760208FC7602080826002030260020F0
:101C50005826002020770208B0260020BC2600204D
:101C60003877020828330020A42D0020E824002023
:101C70007B88D9B2BB7FFA7F786800F02DF824E02A
:101C80007B88D9B2BB7FFA7F786801F0C3FB1CE088
:101C90000F4823F07FFF18E07B88D9B2BB7FFA7F23
:101CA000786803F01FFF10E07B88D9B2BB7FFA7F12
:101CB000786805F08FF908E0FB7D1946054823F0A8
:101CC000CDFE02E000BF00E000BF2037BD4680BD72
:101CD000547702087877020890B589B000AF786031
:101CE000084611461A460346FB700B46BB70134666
:101CF0007B7000237B8300237B7600237B610023A2
:101D00003B6116F095FFF8600023FB830023BB8343
:101D1000FB789BB2053B9BB21946786813F05AFAE0
:101D20007861FB78053B7A681A44BB8B2021184602
:101D3000FEF770FC38613A697B699A4213D0BB7830
:101D4000294A66339B0013445B681946274823F0F1
:101D500085FE3969264823F081FE7969254823F0FC
:101D60007DFE00F032BEBB78234A0121D154BB78FE
:101D7000224A0121D1547B6803F11D02BB8B102143
:101D80001846FEF747FC03467B83BB78164AFE33B2
:101D90005B0013449B887A8B9A423DD0BB78184AEB
:101DA0000121D154BB78104A66339B0013445B6811
:101DB0001946144823F052FE7B8B1946124823F033
:101DC0004DFEBB78084AFE335B0013449B881946DE
:101DD0000E4823F043FE0E490E48FEF731FA034643
:101DE000002B1DD000F0F1BD0405002094770208FF
:101DF000B0770208C07702088026002098260020CD
:101E00008C260020D0770208087802082C78020877
:101E10006C75020805050020BB78AB4A0021D1543F
:101E20007B6803F12402BB8B08211846FEF7F2FB06
:101E300003467B76BB78A54A134493F8EB307A7E51
:101E40009A421FD0BB78A14A66339B0013445B685B
:101E500019469F4823F002FEBB789C4A134493F82E
:101E6000EB3019469B4823F0F9FD7B7E19469A48D2
:101E700023F0F4FD99499A48FEF7E2F90346002B56
:101E800040F0A285BB789749FA6841F82320BB78D7
:101E9000954A0121D154BB78944A0021D154BB7892
:101EA0009349FA6841F82320B7F91C300833002B16
:101EB00000DA0733DB109AB2FB8B1344FB83BB8B36
:101EC00008339BB21BB25A4203F0070302F0070229
:101ED00058BF53421BB2BB83FB8B7A681A44BB8B3F
:101EE00010211846FEF796FB0246BB7891B2814A54
:101EF0005B01134410330A461A80BB787D4A5B01AC
:101F0000134410331B8819467B4823F0A7FDB7F90B
:101F10001C301033002B00DA0733DB109AB2FB8B36
:101F20001344FB83BB8B10339BB21BB25A4203F0AA
:101F3000070302F0070258BF53421BB2BB83FB8B5F
:101F40007A681A44BB8B10211846FEF763FB0246E1
:101F5000BB7891B2674A5B0113440E330A461A807C
:101F6000BB78644A5B0113440E331B8819466348EF
:101F700023F074FDB7F91C301033002B00DA07335F
:101F8000DB109AB2FB8B1344FB83BB8B10339BB2E9
:101F90001BB25A4203F0070302F0070258BF534234
:101FA0001BB2BB83FB8B7A681A44BB8B0821184693
:101FB000FEF730FB0246BB78D1B24E4A5B011344B8
:101FC0000A461A70B7F91C300833002B00DA0733C1
:101FD000DB109AB2FB8B1344FB83BB8B08339BB2A1
:101FE0001BB25A4203F0070302F0070258BF5342E4
:101FF0001BB2BB83FB8B7A681A44BB8B0821184643
:10200000FEF708FB0246BB78D1B23A4A5B011344A3
:1020100001330A461A70B7F91C300833002B00DA76
:102020000733DB109AB2FB8B1344FB83BB8B083363
:102030009BB21BB25A4203F0070302F0070258BFDB
:1020400053421BB2BB83FB8B7A681A44BB8B0821BB
:102050001846FEF7DFFA0246BB78D1B2254A5B018B
:10206000134402330A461A70B7F91C300833002BA8
:1020700000DA0733DB109AB2FB8B1344FB83BB8B74
:1020800008339BB21BB25A4203F0070302F0070267
:1020900058BF53421BB2BB83FB8B7A681A44BB8B7D
:1020A00010211846FEF7B6FA0246BB7891B2144AE0
:1020B0001B01134404330A461A80B7F91C3010334D
:1020C000002B1FDA07331DE08C26002004050020BA
:1020D00050780208787802088C7802086C7502083B
:1020E0000505002030260020982600201827002013
:1020F0002427002094290020A0780208A87802084C
:10210000F4280020DB109AB2FB8B1344FB83BB8BBB
:1021100010339BB21BB25A4203F0070302F00702CE
:1021200058BF53421BB2BB83BB788E4A1B0113447A
:1021300004331B8803F02003002B00F01D81FB8B70
:102140007A681A44BB8B08211846FEF763FA0346E7
:10215000BA78D8B2844913465B0013445B000B4441
:10216000053302461A70B7F91C300833002B00DA29
:102170000733DB109AB2FB8B1344FB83BB8B083312
:102180009BB21BB25A4203F0070302F0070258BF8A
:1021900053421BB2BB83FB8B7A681A44BB8B08216A
:1021A0001846FEF737FA0346BA78D8B26E49134696
:1021B0005B0013445B000B44043302461A70B7F90A
:1021C0001C300833002B00DA0733DB109AB2FB8B8C
:1021D0001344FB83BB8B08339BB21BB25A4203F000
:1021E000070302F0070258BF53421BB2BB83FB8BAD
:1021F0007A681A44BB8B08211846FEF70BFA03468F
:10220000BA78D8B2584913465B0013445B000B44BC
:10221000033302461A70B7F91C300833002B00DA7A
:102220000733DB109AB2FB8B1344FB83BB8B083361
:102230009BB21BB25A4203F0070302F0070258BFD9
:1022400053421BB2BB83FB8B7A681A44BB8B0821B9
:102250001846FEF7DFF90346BA78D8B2424913466A
:102260005B0013445B000B4402461A70B7F91C3044
:102270000833002B00DA0733DB109AB2FB8B1344D0
:10228000FB83BB8B08339BB21BB25A4203F007039C
:1022900002F0070258BF53421BB2BB83FB8B7A6824
:1022A0001A44BB8B08211846FEF7B4F90346BA78E6
:1022B000D8B22D4913465B0013445B000B44013335
:1022C00002461A70B7F91C300833002B00DA0733C6
:1022D000DB109AB2FB8B1344FB83BB8B08339BB29E
:1022E0001BB25A4203F0070302F0070258BF5342E1
:1022F0001BB2BB83FB8B7A681A44BB8B0821184640
:10230000FEF788F90346BA78D8B2174913465B003E
:1023100013445B000B44023302461A70B7F91C30B9
:102320000833002B00DA0733DB109AB2FB8B13441F
:10233000FB83BB8B08339BB21BB25A4203F00703EB
:1023400002F0070258BF53421BB2BB83BB7818464A
:1023500007F000F90346002B0AD0BB78034A00219E
:10236000D15409E0F4280020B82800206427002078
:10237000BB78A44A0121D154FB8B7A681A44BB8BE9
:1023800008211846FEF746F90246BB78D1B29E4AAC
:102390005B01134403330A461A70B7F91C30083343
:1023A000002B00DA0733DB109AB2FB8B1344FB835C
:1023B000BB8B08339BB21BB25A4203F0070302F0F7
:1023C000070258BF53421BB2BB83FB8B7A681A4487
:1023D000BB8B10211846FEF71DF90246BB7891B25F
:1023E000894A5B01134412330A461A80B7F91C303C
:1023F0001033002B00DA0733DB109AB2FB8B134447
:10240000FB83BB8B10339BB21BB25A4203F0070312
:1024100002F0070258BF53421BB2BB83BB785B017B
:10242000794A1344181DFB8B7A6813440622194617
:1024300023F004FAB7F91C301033002B00DA07330D
:10244000DB109AB2FB8B1344FB83BB8B10339BB224
:102450001BB25A4203F0070302F0070258BF53426F
:102460001BB2BB83B7F91C301033002B00DA0733E3
:10247000DB109AB2FB8B1344FB83BB8B10339BB2F4
:102480001BB25A4203F0070302F0070258BF53423F
:102490001BB2BB83B7F91C301033002B00DA0733B3
:1024A000DB109AB2FB8B1344FB83BB8B10339BB2C4
:1024B0001BB25A4203F0070302F0070258BF53420F
:1024C0001BB2BB83FB8B7A681A44BB8B1021184666
:1024D000FEF7A0F80246BB7891B24B4A5B01134469
:1024E00014330A461A80B7F91C301033002B00DA77
:1024F0000733DB109AB2FB8B1344FB83BB8B103387
:102500009BB21BB25A4203F0070302F0070258BF06
:1025100053421BB2BB83FB8B7A681A44BB8B1021DE
:102520001846FEF777F80246BB7891B2364A5B014F
:10253000134416330A461A80B7F91C301033002BA7
:1025400000DA0733DB109AB2FB8B1344FB83BB8B9F
:1025500010339BB21BB25A4203F0070302F007028A
:1025600058BF53421BB2BB83FB8B7A681A44BB8BA8
:1025700010211846FEF74EF80246BB7891B2224A67
:102580005B01134418330A461A80B7F91C30103324
:10259000002B00DA0733DB109AB2FB8B1344FB836A
:1025A000BB8B10339BB21BB25A4203F0070302F0FD
:1025B000070258BF53421BB2BB83FB8B7A681A4495
:1025C000BC78BB8B18211846FEF724F802460F4949
:1025D00023010B4408331A60BB78BA780B491B01FE
:1025E0000B44083319680A4813465B001344DB00A8
:1025F000034408331960B7F91C301833002B09DA8B
:10260000073307E06427002094290020F4280020E5
:10261000A42D0020DB109AB2FB8B1344FB83BB8BF1
:1026200018339BB21BB25A4203F0070302F00702B1
:1026300058BF53421BB2BB83FB8B7A681A44BB8BD7
:1026400008211846FDF7E6FF0246BB78D1B2B14A31
:102650001B0113440A461A70BA78BB78AD491201BF
:102660000A441178AB4A1B01134402330A461A701C
:10267000B7F91C300833002B00DA0733DB109AB2AD
:10268000FB8B1344FB83BB8B08339BB21BB25A42B8
:1026900003F0070302F0070258BF53421BB2BB838B
:1026A000FB8B7A681A44BB8B08211846FDF7B2FFF2
:1026B0000246BB78D1B2984A5B0113440A330A46FA
:1026C0001A70B7F91C300833002B00DA0733DB101F
:1026D0009AB2FB8B1344FB83BB8B08339BB21BB2B8
:1026E0005A4203F0070302F0070258BF53421BB2DD
:1026F000BB83FB8B7A681A44BB8B08211846FDF715
:1027000089FF0246BB78D1B2824A1B0113440333CE
:102710000A461A70B7F91C300833002B00DA073369
:10272000DB109AB2FB8B1344FB83BB8B08339BB249
:102730001BB25A4203F0070302F0070258BF53428C
:102740001BB2BB83BB78734A1B01134403331A7853
:10275000BB7872490B4493F8EB309A4215D070481D
:1027600023F018FABB786D4A134493F8EB301946FE
:102770006C4823F073F9BB78664A1B01134403339A
:102780001B781946684823F069F9FB8B7A681A446C
:10279000BB8B08211846FDF73DFF0246BB78D1B23E
:1027A0005D4A5B0113440B330A461A70B7F91C30BB
:1027B0000833002B00DA0733DB109AB2FB8B13448B
:1027C000FB83BB8B08339BB21BB25A4203F0070357
:1027D00002F0070258BF53421BB2BB83FB8B7A68DF
:1027E0001A44BB8B08211846FDF714FF0246BB783C
:1027F000D1B2494A5B0113440C330A461A70B7F947
:102800001C300833002B00DA0733DB109AB2FB8B45
:102810001344FB83BB8B08339BB21BB25A4203F0B9
:10282000070302F0070258BF53421BB2BB83BB78B9
:10283000394A5B0113440C331B78012B0CD0BB7855
:10284000354A5B0113440C331B781946374823F093
:1028500005F9374823F09EF9FB8B7A681A44BB8B45
:1028600008211846FDF7D6FE0246BB78D1B22A4AA7
:102870005B0113440D330A461A70B7F91C30083354
:10288000002B00DA0733DB109AB2FB8B1344FB8377
:10289000BB8B08339BB21BB25A4203F0070302F012
:1028A000070258BF53421BB2BB83FB8B7A681A44A2
:1028B000BC78BB8B20211846FDF7ACFE02461649BA
:1028C00063010B441C331A60B7F91C302033002B12
:1028D00000DA0733DB109AB2FB8B1344FB83BB8B0C
:1028E00020339BB21BB25A4203F0070302F00702E7
:1028F00058BF53421BB2BB837A78BB781146184647
:1029000000F06CF8BA780B4913465B001344DB0007
:1029100012E000BFF42800209429002004050020C4
:10292000B0780208787802088C780208CC7802081F
:10293000F8780208A42D00200B4414333A691A6079
:10294000BA78234913465B001344DB000B4405337C
:1029500001221A70BA781E4913465B001344DB004B
:102960000B44BA781A70BA78194913465B001344BD
:10297000DB000B44013301221A7018220021154894
:1029800022F084FFBA7813465B001344DB00104A40
:102990001344182219460F4822F050FF40F202203B
:1029A0000EF08AF8BA780A4913465B001344DB003C
:1029B0000B44013300221A70BC7816F039F9034633
:1029C000054A42F8243000E000BF2437BD4690BDE0
:1029D000A42D0020842F0020B824002090B597B0AB
:1029E00000AF03460A46FB711346BB710023FB6030
:1029F00007F1100338220021184622F047FF002378
:102A00003B650023A7F84E300023A7F84C30B7F8F9
:102A10004E3007F10C021A44B7F84C00F423082199
:102A2000FDF784FEB7F94C300833002B00DA07338A
:102A3000DB109AB2B7F84E301344A7F84E30B7F80F
:102A40004C3008339BB21BB25A4203F0070302F02A
:102A5000070258BF53421BB2A7F84C30B7F84E30AC
:102A600007F10C021A44FB79774966339B000B444B
:102A70005B68B7F84C001021FDF758FEB7F94C30F1
:102A80001033002B00DA0733DB109AB2B7F84E3060
:102A90001344A7F84E30B7F84C3010339BB21BB23A
:102AA0005A4203F0070302F0070258BF53421BB219
:102AB000A7F84C30B7F84E3007F10C021A44FB79F6
:102AC000614970339B000B445B68B7F84C001021E0
:102AD000FDF72CFEB7F94C301033002B00DA07332A
:102AE000DB109AB2B7F84E301344A7F84E30B7F85F
:102AF0004C3010339BB21BB25A4203F0070302F072
:102B0000070258BF53421BB2A7F84C304F4B1B680B
:102B10009B0803F00103002B31D04C4B1B79FA7951
:102B20009A4237D1002387F84B3049481AF03EFCCF
:102B30000246484BA3FB02139B09C82101FB03F388
:102B4000D31ADBB2013387F84B30434823F022F825
:102B50000021424822F082FF97F84B301946404846
:102B600022F07CFFB7F84E3007F10C021A4497F8B8
:102B70004B30B7F84C000821FDF7D8FD0AE0B7F854
:102B80004E3007F10C021A44B7F84C00002308211C
:102B9000FDF7CCFDB7F94C300833002B00DA0733D2
:102BA000DB109AB2B7F84E301344A7F84E30B7F89E
:102BB0004C3008339BB21BB25A4203F0070302F0B9
:102BC000070258BF53421BB2A7F84C301F4B1B687B
:102BD000DB0803F00103002B4CD01C4B1B79FA7966
:102BE0009A4265D1002387F84A3019481AF0DEFB73
:102BF0000246184BA3FB02139B09C82101FB03F3F8
:102C0000D31A87F84A30174822F0C4FFFB79164AD6
:102C10001B01134402331B781946144822F01EFF8F
:102C200097F84A301946124822F018FFB7F84E308C
:102C300007F10C021A4497F84A30B7F84C00082103
:102C4000FDF774FD34E000BF040500208C30002047
:102C5000ACBB00201F85EB511479020838790208BB
:102C60005879020878790208F42800209C79020833
:102C7000BC790208B7F84E3007F10C02D118FB7985
:102C8000C4481A010244023212780132D4B2C14857
:102C90001A010244023220461070BE4A1B0113443E
:102CA00002331B78B7F84C000A460821FDF73EFDB9
:102CB000B7F94C300833002B00DA0733DB109AB237
:102CC000B7F84E301344A7F84E30B7F84C300833FD
:102CD0009BB21BB25A4203F0070302F0070258BF2F
:102CE00053421BB2A7F84C30B7F84E3007F10C0234
:102CF0001A44B7F84C0001230821FDF717FDB7F976
:102D00004C300833002B00DA0733DB109AB2B7F8E7
:102D10004E301344A7F84E30B7F84C3008339BB20E
:102D20001BB25A4203F0070302F0070258BF534296
:102D30001BB2A7F84C30FB79964A1B0113440633AB
:102D400005221A80B7F84E3007F10C021A44FB79BD
:102D500090491B010B4406331B88B7F84C00102127
:102D6000FDF7E4FCB7F94C301033002B00DA0733E1
:102D7000DB109AB2B7F84E301344A7F84E30B7F8CC
:102D80004C3010339BB21BB25A4203F0070302F0DF
:102D9000070258BF53421BB2A7F84C30B7F84E3069
:102DA00007F10C021A44B7F84C0017230821FDF76D
:102DB000BDFCB7F94C300833002B00DA0733DB10C9
:102DC0009AB2B7F84E301344A7F84E30B7F84C30EB
:102DD00008339BB21BB25A4203F0070302F007020A
:102DE00058BF53421BB2A7F84C30B7F84E3007F12A
:102DF0000C021A44B7F84C0001231021FDF796FC91
:102E0000B7F94C301033002B00DA0733DB109AB2DD
:102E1000B7F84E301344A7F84E30B7F84C301033A3
:102E20009BB21BB25A4203F0070302F0070258BFDD
:102E300053421BB2A7F84C30B7F84E3007F10C02E2
:102E40001A44B7F84C00544B2021FDF76FFCB7F93A
:102E50004C302033002B00DA0733DB109AB2B7F87E
:102E60004E301344A7F84E30B7F84C3020339BB2A5
:102E70001BB25A4203F0070302F0070258BF534245
:102E80001BB2A7F84C30B7F84E3007F10C021A44C9
:102E9000B7F84C0000231021FDF748FCB7F94C307F
:102EA0001033002B00DA0733DB109AB2B7F84E303C
:102EB0001344A7F84E30B7F84C3010339BB21BB216
:102EC0005A4203F0070302F0070258BF53421BB2F5
:102ED000A7F84C30B7F84E3007F10C021A44B7F897
:102EE0004C0000231021FDF721FCB7F94C301033C2
:102EF000002B00DA0733DB109AB2B7F84E301344D8
:102F0000A7F84E30B7F84C3010339BB21BB25A4280
:102F100003F0070302F0070258BF53421BB2A7F8A1
:102F20004C30B7F84E3007F10C021A44B7F84C0099
:102F300000231021FDF7FAFBB7F94C301033002BBA
:102F400000DA0733DB109AB2B7F84E301344A7F813
:102F50004E30B7F84C3010339BB21BB25A4203F0DC
:102F6000070302F0070258BF53421BB2A7F84C30C8
:102F7000B7F84E3007F10C021A44B7F84C000023A2
:102F80001021FDF7D3FBB7F94C301033002B05DAD5
:102F9000073303E0F4280020AF32E233DB109AB2AB
:102FA000B7F84E301344A7F84E30B7F84C30103312
:102FB0009BB21BB25A4203F0070302F0070258BF4C
:102FC00053421BB2A7F84C30FB79B24A1B011344A1
:102FD00008331B68B04A93420DD9FB79AD4A1B01F7
:102FE000134408331A68FB79013AAA491B010B44C0
:102FF0000C331A600CE0FB79A64A1B01134408331A
:103000001A68FB790132A3491B010B440C331A6087
:10301000B7F84E3007F10C021A44FB799D491B01A9
:103020000B440C331B68B7F84C001821FDF77EFBEE
:10303000FB79FA7997491B010B440C3319689748BF
:1030400013465B001344DB0003440C331960B7F9EB
:103050004C301833002B00DA0733DB109AB2B7F884
:103060004E301344A7F84E30B7F84C3018339BB2AB
:103070001BB25A4203F0070302F0070258BF534243
:103080001BB2A7F84C30FB79854AD25C0132D1B231
:10309000834AD154FB79824AD35CB32B04D8FB79A1
:1030A0007F4AD35C002B03D1FB797D4A0A21D1549E
:1030B000B7F84E3007F10C021A44FB797849CB5C23
:1030C000B7F84C000821FDF731FBB7F94C30083355
:1030D000002B00DA0733DB109AB2B7F84E301344F6
:1030E000A7F84E30B7F84C3008339BB21BB25A42A7
:1030F00003F0070302F0070258BF53421BB2A7F8C0
:103100004C30B7F84E3007F10C021A44B7F84C00B7
:1031100001230821FDF70AFBB7F94C300833002BD7
:1031200000DA0733DB109AB2B7F84E301344A7F831
:103130004E30B7F84C3008339BB21BB25A4203F002
:10314000070302F0070258BF53421BB2A7F84C30E6
:10315000B7F84E3007F10C021A44B7F84C000123BF
:103160000821FDF7E3FAB7F94C300833002B00DAF9
:103170000733DB109AB2B7F84E301344A7F84E303D
:10318000B7F84C3008339BB21BB25A4203F0070326
:1031900002F0070258BF53421BB2A7F84C30B7F8F1
:1031A0004E3007F10C021A44B7F84C0000230821F6
:1031B000FDF7BCFAB7F94C300833002B00DA0733BF
:1031C000DB109AB2B7F84E301344A7F84E30B7F878
:1031D0004C3008339BB21BB25A4203F0070302F093
:1031E000070258BF53421BB2A7F84C302D4B1B6847
:1031F0005B0903F00103002B60D02A4B1B79FA799D
:103200009A425BD10C2387F8573027481AF0CEF842
:103210000146264BA3FB0123DA0813465B019B1AE8
:103220009B001344CA1AD3B2013387F857302048A1
:1032300022F0B0FCFB79174A1B01134403331B78BF
:1032400019461C4822F00AFCFB79124A1B01134460
:1032500003331B7897F857209A4208D1FB790D4A1F
:103260001B01134403331B78023B87F8573097F850
:1032700057301946104822F0F1FBB7F84E3007F1ED
:103280000C021A4497F85730B7F84C000821FDF7A4
:103290004DFA22E0F4280020EFFFFF00A42D0020CB
:1032A0000C0300208C300020ACBB0020D34D6210FA
:1032B000DC7902080C7A0208287A0208B7F84E3046
:1032C00007F10C021A44FB794E490B4493F8EB309A
:1032D000B7F84C000821FDF729FAB7F94C3008334C
:1032E000002B00DA0733DB109AB2B7F84E301344E4
:1032F000A7F84E30B7F84C3008339BB21BB25A4295
:1033000003F0070302F0070258BF53421BB2A7F8AD
:103310004C30B7F84E3007F10C021A44B7F84C00A5
:1033200000230821FDF702FAB7F94C300833002BCF
:1033300000DA0733DB109AB2B7F84E301344A7F81F
:103340004E30B7F84C3008339BB21BB25A4203F0F0
:10335000070302F0070258BF53421BB2A7F84C30D4
:10336000B7F84E2007F10C031146184611F032FF52
:103370003865B7F84E3007F10C021A44B7F84C0024
:103380003B6D2021FDF7D2F9B7F94C302033002BEB
:1033900000DA0733DB109AB2B7F84E301344A7F8BF
:1033A0004E30B7F84C3020339BB21BB25A4203F078
:1033B000070302F0070258BF53421BB2A7F84C3074
:1033C000114B1B685B0A03F00103002B0BD00E4B63
:1033D0001B79FA799A4206D10C4822F0DBFB0C48A3
:1033E00022F03CFB09E0B7F84E30D9B2FA7907F188
:1033F0000C03184604F002FE00BF00BF5C37BD4658
:1034000090BD00BF040500208C300020447A0208E3
:103410005C7A020890B5ABB000AF78600846114600
:103420001A460346FB700B46BB7013467B700023A5
:10343000A7F8A6300023C7F894300023C7F8A030BF
:1034400015F0F6FBC7F89000002387F89F300023A3
:1034500087F89E30002387F89D300023FB6007F13A
:1034600010037C220021184622F010FA0023A7F84E
:103470009A300023A7F89830A949AA48FCF7E0FE43
:103480000346002B00F04981A74B1B6803F00103A2
:10349000002B31D0A44B1B79BA789A422CD1162339
:1034A000C7F88C30A14819F081FF0246A04BA3FB5E
:1034B0000213D90D0B461B045B1A1B02D31AC7F863
:1034C0008C309C4822F066FBBB789B4A1B0113445E
:1034D00008331B681946994822F0C0FAD7F88C10B7
:1034E000974822F0BBFA07F10C02D7F88C3018216C
:1034F0000020FDF71BF90BE0BB788F4A1B0113443A
:1035000008331B6807F10C0218210020FDF70EF9A3
:10351000002387F89E3010E097F89E307A681A44AE
:1035200097F89E3003331278A8333B4403F89C2C61
:1035300097F89E30013387F89E3097F89E20FB78ED
:10354000053B9A42E8DB97F89E309BB203339AB270
:1035500007F10C031146184611F03CFEC7F8940021
:10356000FB78053B7A681A44B7F898302021184652
:10357000FDF750F8C7F8A000D7F89420D7F8A0308E
:103580009A4200F0F5807B6805331A460821002036
:10359000FDF740F80346002B0AD07B6805331A4636
:1035A00008210020FDF736F80346012B40F09F80EC
:1035B000644822F0EFFA07F10C038022002118463C
:1035C00022F064F9BB785C4A1B01134408331B6882
:1035D000013307F10C0218210020FDF7A7F80023A2
:1035E00087F89E3010E097F89E307A681A4497F872
:1035F0009E3003331278A8333B4403F89C2C97F891
:103600009E30013387F89E3097F89E20FB78053B6B
:103610009A42E8DB97F89E309BB203339AB207F1E7
:103620000C031146184611F0D5FDC7F89400FB783D
:10363000053B7A681A44B7F8983020211846FCF701
:10364000E9FFC7F8A000D7F89420D7F8A0309A4235
:1036500037D13D4822F09EFAD7F8A0103B4822F01F
:10366000FDF9BB78344A1B01134408331B68194623
:10367000374822F0F3F9BB782F491A010A4408327F
:10368000126801322C491B010B4408331A60BB78C5
:10369000294A1B01134408331B6819462D4822F0A0
:1036A000DDF9BB78BA7824491B010B44083319684B
:1036B000294813465B001344DB00034408331960B8
:1036C00057E0BB78254A66339B0013445B68194674
:1036D000234822F0C3F9D7F8A010224822F0BEF9FF
:1036E000D7F89410204822F0B9F900F051BFBB7808
:1036F0001A4A66339B0013445B6819461B4822F044
:10370000ADF9D7F8A010174822F0A8F9D7F894100F
:10371000154822F0A3F900F03BBF00BF29E000BF2D
:103720006C750208050500208C300020ACBB002021
:1037300001800080707A0208F4280020907A020844
:10374000B87A0208E07A0208FC7A0208147B0208C0
:10375000347B0208547B0208A42D002004050020BD
:10376000807B0208B0770208C0770208A07B0208BD
:1037700000BFBB78C449D7F8902041F82320BB781C
:10378000C249D7F8902041F82320BB78C04A0121D4
:10379000D154BA7813465B0113445B00BD4A13440D
:1037A00040220021184622F071F8BA7813465B01D6
:1037B00013445B00B74A1344FA787968184622F03C
:1037C0003DF8BA78FB7898B2B24913465B011344CE
:1037D0005B000B44403302461A80B7F99830083337
:1037E000002B00DA0733DB109AB2B7F89A30134493
:1037F000A7F89A30B7F8983008339BB21BB25A42F8
:1038000003F0070302F0070258BF53421BB2A7F8A8
:103810009830B7F89A307A681A44B7F8983010217F
:103820001846FCF7F7FE0346BA7898B29A49134651
:103830005B0013441B010B44283302461A80BA78FC
:10384000954913465B0013441B010B4428331B8826
:103850001946924822F002F9B7F998301033002B3C
:1038600000DA0733DB109AB2B7F89A301344A7F89E
:103870009A30B7F8983010339BB21BB25A4203F01B
:10388000070302F0070258BF53421BB2A7F8983053
:10389000B7F89A307A681A44B7F898301021184669
:1038A000FCF7B8FE0346BA7898B27B4913465B0032
:1038B00013441B010B44263302461A80BA7876491A
:1038C00013465B0013441B010B4426331B88194627
:1038D000734822F0C3F8B7F998301033002B00DAA0
:1038E0000733DB109AB2B7F89A301344A7F89A302E
:1038F000B7F8983010339BB21BB25A4203F007035B
:1039000002F0070258BF53421BB2A7F89830B7F82D
:103910009A307A681A44B7F8983008211846FCF7AC
:1039200079FE0246BB78D1B25E4A1B0113440233D2
:103930000A461A70B7F998300833002B00DA0733BB
:10394000DB109AB2B7F89A301344A7F89A30B7F858
:10395000983008339BB21BB25A4203F0070302F0BF
:10396000070258BF53421BB2A7F89830B7F89A30F5
:103970007A681A44B7F8983008211846FCF74AFECE
:103980000246BB78D1B2474A1B01134401330A46B1
:103990001A70BB78434A1B01134401331B78002B78
:1039A00038D1BB78404A66339B0013445B681946A4
:1039B0003E4822F053F8BB783A4A1B0113440C33BB
:1039C0001B6819463A4822F049F8BB7835491A0174
:1039D0000A440C321268013232491B010B440C3389
:1039E0001A60BB782F4A1B0113440C331B6819461D
:1039F000304822F033F8BB78BA782A491B010B44CF
:103A00000C3319682C4813465B001344DB00034455
:103A10000C331960B7F998300833002B00DA0733FC
:103A2000DB109AB2B7F89A301344A7F89A30B7F877
:103A3000983008339BB21BB25A4203F0070302F0DE
:103A4000070258BF53421BB2A7F89830B7F89A3014
:103A50007A681A44B7F8983008211846FCF7DAFD5E
:103A60000346BA78D8B20C4913465B0013441B01D5
:103A70000B44023302461A70B7F998300833002B12
:103A80001CDA07331AE000BF302600205826002039
:103A9000A426002094300020D42A0020A078020818
:103AA000A8780208F428002004050020B47B02084E
:103AB000F87B0208087C0208A42D0020DB109AB2D3
:103AC000B7F89A301344A7F89A30B7F8983008330B
:103AD0009BB21BB25A4203F0070302F0070258BF21
:103AE00053421BB2A7F89830B7F89A307A681A4454
:103AF000B7F8983010211846FCF78CFD0246BB78C9
:103B000091B2BD4A1B01134404330A461A80BB49D3
:103B1000BB48FCF795FB0346002B0FD1BB78B64A98
:103B20001B01134404331A88BB7842F0080291B297
:103B3000B14A1B01134404330A461A80B7F998307E
:103B40001033002B00DA0733DB109AB2B7F89A3043
:103B50001344A7F89A30B7F8983010339BB21BB2D1
:103B60005A4203F0070302F0070258BF53421BB248
:103B7000A7F89830BB78A04A1B01134404331B8874
:103B800003F02003002B00F04581B7F89A307A68E3
:103B90001A44B7F8983008211846FCF73BFD034655
:103BA000BA78D8B2974913465B0013445B000B44C4
:103BB000053302461A70B7F998300833002B00DA43
:103BC0000733DB109AB2B7F89A301344A7F89A304B
:103BD000B7F8983008339BB21BB25A4203F0070380
:103BE00002F0070258BF53421BB2A7F89830B7F84B
:103BF0009A307A681A44B7F8983008211846FCF7CA
:103C000009FD0346BA78D8B27E4913465B001344D7
:103C10005B000B44043302461A70B7F9983008333E
:103C2000002B00DA0733DB109AB2B7F89A3013444E
:103C3000A7F89A30B7F8983008339BB21BB25A42B3
:103C400003F0070302F0070258BF53421BB2A7F864
:103C50009830B7F89A307A681A44B7F89830082143
:103C60001846FCF7D7FC0346BA78D8B26549134624
:103C70005B0013445B000B44033302461A70B7F930
:103C800098300833002B00DA0733DB109AB2B7F80C
:103C90009A301344A7F89A30B7F8983008339BB29B
:103CA0001BB25A4203F0070302F0070258BF534207
:103CB0001BB2A7F89830B7F89A307A681A44B7F868
:103CC000983008211846FCF7A5FC0346BA78D8B20C
:103CD0004C4913465B0013445B000B4402461A70C8
:103CE000B7F998300833002B00DA0733DB109AB2AB
:103CF000B7F89A301344A7F89A30B7F898300833D9
:103D00009BB21BB25A4203F0070302F0070258BFEE
:103D100053421BB2A7F89830B7F89A307A681A4421
:103D2000B7F8983008211846FCF774FC0346BA78B7
:103D3000D8B2344913465B0013445B000B44013393
:103D400002461A70B7F998300833002B00DA0733AF
:103D5000DB109AB2B7F89A301344A7F89A30B7F844
:103D6000983008339BB21BB25A4203F0070302F0AB
:103D7000070258BF53421BB2A7F89830B7F89A30E1
:103D80007A681A44B7F8983008211846FCF742FCC4
:103D90000346BA78D8B21B4913465B0013445B0054
:103DA0000B44023302461A70B7F998300833002BDF
:103DB00000DA0733DB109AB2B7F89A301344A7F849
:103DC0009A30B7F8983008339BB21BB25A4203F0CE
:103DD000070302F0070258BF53421BB2A7F89830FE
:103DE000BB78184605F0B6FB0346002B0ED0BB7817
:103DF000054A0021D1540DE0F42800206C7502081A
:103E000005050020B828002064270020BB78914ACF
:103E10000121D154BB78904A1B01134404331B8801
:103E200003F00803002B02D0012387F89D30B7F878
:103E30009A307A681A44B7F8983008211846FCF787
:103E4000E9FB0346BA78D8B2844913465B001344B1
:103E50001B010B44033302461A70B7F9983008333C
:103E6000002B00DA0733DB109AB2B7F89A3013440C
:103E7000A7F89A30B7F8983008339BB21BB25A4271
:103E800003F0070302F0070258BF53421BB2A7F822
:103E90009830BA78714913465B0013441B010B44F8
:103EA00003331B7819466E4821F0D8FDB7F89A30D5
:103EB0007A681A44B7F8983008211846FCF7AAFB2C
:103EC0000346BA78D8B2654913465B0013441B0118
:103ED0000B44043302461A70B7F998300833002BAC
:103EE00000DA0733DB109AB2B7F89A301344A7F818
:103EF0009A30B7F8983008339BB21BB25A4203F09D
:103F0000070302F0070258BF53421BB2A7F89830CC
:103F1000BA78524913465B0013441B010B44033328
:103F20001B7803F0070387F89F3097F89F30002B2A
:103F30000ED0BA78494913465B0013441B010B4469
:103F400003331B78DB08DBB2013387F89F300BE0CB
:103F5000BA78424913465B0013441B010B440333F8
:103F60001B78DB0887F89F300023A7F8A6304CE0C9
:103F7000B7F89A307A681A44B7F89830082118468A
:103F8000FCF748FB0346BA78B7F8A610DCB2334812
:103F900013465B0013441B0103440B4405332246C4
:103FA0001A70B7F8A600BA78B7F8A6102B4C1346CB
:103FB0005B0013441B0123440B4405331B781A4652
:103FC0000146284821F04AFDB7F998300833002B04
:103FD00000DA0733DB109AB2B7F89A301344A7F827
:103FE0009A30B7F8983008339BB21BB25A4203F0AC
:103FF000070302F0070258BF53421BB2A7F89830DC
:10400000B7F8A6300133A7F8A63097F89F309BB2D7
:10401000B7F8A6209A42ABD30A2021F037FDBB782F
:10402000114A134493F82D30022B0ED1BA780B4964
:1040300013465B0013441B010B4405331B7803F04C
:1040400001031946094821F009FD0023A7F8A6300D
:1040500048E000BF64270020F4280020D42A002074
:10406000187C0208207C020804050020307C02082D
:10407000B7F89A307A681A44B7F898300821184689
:10408000FCF7C8FA0346BA78B7F8A610DCB26B485A
:1040900013465B0013441B0103440B4415332246B3
:1040A0001A70B7F998300833002B00DA0733DB10A9
:1040B0009AB2B7F89A301344A7F89A30B7F8983004
:1040C00008339BB21BB25A4203F0070302F0070207
:1040D00058BF53421BB2A7F89830B7F8A630013347
:1040E000A7F8A630BA78554913465B0013441B0164
:1040F0000B4404331B789BB2B7F8A6209A42B7D37F
:104100007A78BB781146184603F0D8FBBB784C4A46
:104110000121D154BB784A4A02339B001344D7F89B
:1041200090205A60BA78474913465B001344DB007D
:104130000B4404331B78012B16D146220021424840
:1041400021F0A4FBBB789AB23F4B1A80FB789AB25D
:104150003D4B9A80FB781A4679683C4821F06EFB0B
:104160004FF401700CF0A8FCBB78394A134493F863
:104170002D30022B28D1BA78304913465B00134406
:104180001B010B4405331B7803F00103002B1BD1EB
:10419000304821F0FFFC002387F89D30BB782E4A81
:1041A0000121D154BB782D4A0021D154BA7813464D
:1041B0005B0013441B01214A1344053310220021E4
:1041C000184621F063FB5DE0BB78214A134493F865
:1041D0002D30022B56D1BA78184913465B00134490
:1041E0001B010B4405331B7803F00103002B49D05E
:1041F00097F89D30012B45D1BB78174AD35C012B32
:1042000040D1BB78154AD25C0132D1B2134AD154A5
:10421000BB78124AD35C1946114821F01FFCBB78C9
:104220000E4AD35C032B1DD9BB780B4A0021D15415
:10423000BB780A4A0421D15424E000BFD42A0020CC
:10424000AC330020A42D0020B42F0020BA2F002072
:1042500004050020487C0208382500204425002061
:10426000587C0208002387F89D30BA7813465B001B
:1042700013441B01C84A1344053310220021184679
:1042800021F004FBBA7813469B0013449B00C34AF9
:104290001344013310220021184621F0F7FABA78AE
:1042A00013469B0013449B00BC4A1344581CBA7825
:1042B00013465B0013441B01B74A1344053397F8B8
:1042C0009F20194621F0BAFABA7813469B0013448E
:1042D0009B00B24A1344013397F89F2012B2BC7876
:1042E0001946002010F0BCFE03461946AB4A23468F
:1042F0009B0023449B00134412330A461A80BA7869
:10430000A64913469B0013449B000B44113397F8B6
:104310009F201A70BA78A14913469B0013449B0052
:104320000B44BA781A7097F89D30012B6CD1BA788B
:1043300013469B0013449B00994A134401331022F7
:104340000021184621F0A2FABA7813469B001344C4
:104350009B00934A9818BA7813469B0013449B001D
:104360008E4A13441422194621F068FABB788D490D
:10437000D7F8902041F82320BB788B4A32F81310ED
:10438000BA78874813469B0013449B0003441233BA
:104390001B88994238D0BA78B978814813469B0077
:1043A00013449B00034412331A887F4B23F81120D7
:1043B000142200217D4821F069FABA7813469B0047
:1043C00013449B00764A134414221946774821F07F
:1043D00035FA4FF402700CF06FFBBB78744A32F878
:1043E0001330002B10D1BB781B01724A1344981C68
:1043F000BA7813469B0013449B00694A1344013367
:104400001022194621F01AFAB978BA7864480B4696
:104410009B000B449B0003441233188866491346E3
:104420005B001344DB000B44063302461A80BA7863
:10443000614913465B001344DB000B441433D7F887
:10444000A0201A60BA785C4913465B001344DB0075
:104450000B44053302221A70BA78574913465B00A1
:104460001344DB000B44BA781A70BA7852491346E9
:104470005B001344DB000B44013301221A70BA784D
:104480004D4913465B001344DB000B44023397F89D
:104490009D201A7018220021484821F0F7F9BA78B7
:1044A00013465B001344DB00434A134418221946A9
:1044B000424821F0C3F940F202200CF0FDFABA782C
:1044C0003D4913465B001344DB000B4401330022DB
:1044D0001A70BB783A49D7F8902041F8232097F812
:1044E0009D30012B1FD1BB783649D7F8902041F879
:1044F0002320BA78344913465B0013449B000B44D5
:104500000433D7F890201A60BA782F4913465B001D
:1045100013449B000B44013301221A70BB782B4AD1
:104520000121D1542FE0BB78284A0021D154BA7818
:10453000254913465B0013449B000B440833D7F80E
:1045400090201A60BA78204913465B0013449B0000
:104550000B44013300221A70BA7813469B001344AF
:104560009B000F4A1344013310220021184621F00A
:104570008DF9BA780A4913469B0013449B000B44FB
:10458000123300221A804FF48071114816F045FF53
:10459000AC37BD4690BD00BFD42A0020D0340020E7
:1045A00098350020642500208C2500202837002025
:1045B0005025002070270020A42D0020842F0020EB
:1045C000B8240020A0250020E0330020F0250020A2
:1045D000001C024090B5A5B000AF03460A46FB712F
:1045E0001346BB710023BB6407F14C033822002142
:1045F000184621F04BF90023FB6007F11003382225
:104600000021184621F042F9002387F88F3000235B
:10461000A7F88C300023A7F88A3007F148033C2222
:104620000021184621F032F9B7F88C3007F1480222
:104630001A44B7F88A00F4230821FCF777F8B7F991
:104640008A300833002B00DA0733DB109AB2B7F850
:104650008C301344A7F88C30B7F88A3008339BB2FB
:104660001BB25A4203F0070302F0070258BF53423D
:104670001BB2A7F88A30B7F88C3007F148021A4409
:10468000FB79C64966339B000B445B68B7F88A0028
:104690001021FCF74BF8B7F98A301033002B00DA01
:1046A0000733DB109AB2B7F88C301344A7F88C307C
:1046B000B7F88A3010339BB21BB25A4203F007039B
:1046C00002F0070258BF53421BB2A7F88A30B7F86E
:1046D0008C3007F148021A44FB79B04970339B00D3
:1046E0000B445B68B7F88A001021FCF71FF8B7F994
:1046F0008A301033002B00DA0733DB109AB2B7F898
:104700008C301344A7F88C30B7F88A3010339BB242
:104710001BB25A4203F0070302F0070258BF53428C
:104720001BB2A7F88A309E4B1B689B0803F001035D
:10473000002B35D09A4B1B79FA799A4230D100235D
:1047400087F88930974818F031FE0246964BA3FB54
:1047500002139B09C82101FB03F3D31A87F88930A0
:10476000924821F017FAFB79914A1B011344013357
:104770001B7819468F4821F071F997F8893019464E
:104780008D4821F06BF9B7F88C3007F148021A44D4
:1047900097F88930B7F88A000821FBF7C7FF0FE0C8
:1047A000B7F88C3007F148021A44FB7980491B01A5
:1047B0000B4401331B78B7F88A000821FBF7B6FFDA
:1047C000B7F98A300833002B00DA0733DB109AB2CE
:1047D000B7F88C301344A7F88C30B7F88A30083318
:1047E0009BB21BB25A4203F0070302F0070258BF04
:1047F00053421BB2A7F88A30694B1B68DB0803F0F1
:104800000103002B35D0664B1B79FA799A4230D1DF
:10481000002387F88830634818F0C8FD0246624BD1
:10482000A3FB02139B09C82101FB03F3D31A87F8EA
:104830008830624821F0AEF9FB795D4A1B011344D0
:1048400002331B7819465E4821F008F997F8883042
:1048500019465C4821F002F9B7F88C3007F148029C
:104860001A4497F88830B7F88A000821FBF75EFFF2
:104870000FE0B7F88C3007F148021A44FB794C4935
:104880001B010B4402331B78B7F88A000821FBF7A1
:104890004DFFB7F98A300833002B00DA0733DB10FD
:1048A0009AB2B7F88C301344A7F88C30B7F88A3036
:1048B00008339BB21BB25A4203F0070302F007020F
:1048C00058BF53421BB2A7F88A30B7F88C3007F1B3
:1048D00048021A44B7F88A0002230821FBF726FF92
:1048E000B7F98A300833002B00DA0733DB109AB2AD
:1048F000B7F88C301344A7F88C30B7F88A300833F7
:104900009BB21BB25A4203F0070302F0070258BFE2
:1049100053421BB2A7F88A30FB792B4AD35C012B98
:104920005AD107F001FFFA7913465B0013445B008C
:10493000264A1344264A1168196092889A802548AD
:1049400021F028F9FB79204A0021D154B7F88C30A6
:1049500007F148021A44B7F88A0068231021FBF7D0
:10496000E5FEB7F98A301033002B00DA0733DB108D
:104970009AB2B7F88C301344A7F88C30B7F88A3065
:1049800010339BB21BB25A4203F0070302F0070236
:1049900058BF53421BB2A7F88A3044E004050020F8
:1049A0008C300020ACBB00201F85EB516C7C0208D2
:1049B000F4280020907C0208B07C02087879020874
:1049C0009C790208BC79020864270020B8280020DE
:1049D000283F0020D07C0208B7F88C3007F148024D
:1049E0001A44B7F88A0028231021FBF79FFEB7F975
:1049F0008A301033002B00DA0733DB109AB2B7F895
:104A00008C301344A7F88C30B7F88A3010339BB23F
:104A10001BB25A4203F0070302F0070258BF534289
:104A20001BB2A7F88A30B7F88C3007F14802D118CA
:104A3000FA79CD4813465B0013445B000344053309
:104A40001B78B7F88A000A460821FBF76FFEB7F912
:104A50008A300833002B00DA0733DB109AB2B7F83C
:104A60008C301344A7F88C30B7F88A3008339BB2E7
:104A70001BB25A4203F0070302F0070258BF534229
:104A80001BB2A7F88A30B7F88C3007F14802D1186A
:104A9000FA79B54813465B0013445B0003440433C2
:104AA0001B78B7F88A000A460821FBF73FFEB7F9E2
:104AB0008A300833002B00DA0733DB109AB2B7F8DC
:104AC0008C301344A7F88C30B7F88A3008339BB287
:104AD0001BB25A4203F0070302F0070258BF5342C9
:104AE0001BB2A7F88A30B7F88C3007F14802D1180A
:104AF000FA799D4813465B0013445B00034403337B
:104B00001B78B7F88A000A460821FBF70FFEB7F9B1
:104B10008A300833002B00DA0733DB109AB2B7F87B
:104B20008C301344A7F88C30B7F88A3008339BB226
:104B30001BB25A4203F0070302F0070258BF534268
:104B40001BB2A7F88A30B7F88C3007F14802D118A9
:104B5000FA79854813465B0013445B0003441B78D5
:104B6000B7F88A000A460821FBF7E0FDB7F98A305A
:104B70000833002B00DA0733DB109AB2B7F88C3019
:104B80001344A7F88C30B7F88A3008339BB21BB2B5
:104B90005A4203F0070302F0070258BF53421BB208
:104BA000A7F88A30B7F88C3007F14802D118FA79A3
:104BB0006D4813465B0013445B00034401331B78CC
:104BC000B7F88A000A460821FBF7B0FDB7F98A302A
:104BD0000833002B00DA0733DB109AB2B7F88C30B9
:104BE0001344A7F88C30B7F88A3008339BB21BB255
:104BF0005A4203F0070302F0070258BF53421BB2A8
:104C0000A7F88A30B7F88C3007F14802D118FA7942
:104C1000554813465B0013445B00034402331B7882
:104C2000B7F88A000A460821FBF780FDB7F98A30F9
:104C30000833002B00DA0733DB109AB2B7F88C3058
:104C40001344A7F88C30B7F88A3008339BB21BB2F4
:104C50005A4203F0070302F0070258BF53421BB247
:104C6000A7F88A30B7F88C3007F148021A44B7F831
:104C70008A0001230821FBF759FDB7F98A30083370
:104C8000002B00DA0733DB109AB2B7F88C301344EC
:104C9000A7F88C30B7F88A3008339BB21BB25A425F
:104CA00003F0070302F0070258BF53421BB2A7F8F4
:104CB0008A30B7F88C3007F148021A44B7F88A00F6
:104CC00000230821FBF732FDB7F98A300833002BA7
:104CD00000DA0733DB109AB2B7F88C301344A7F828
:104CE0008C30B7F88A3008339BB21BB25A4203F0BB
:104CF000070302F0070258BF53421BB2A7F88A30DD
:104D0000B7F88C3007F148021A44B7F88A0001233B
:104D10000821FBF70BFDB7F98A300833002B00DAC6
:104D20000733DB109AB2B7F88C301344A7F88C30F5
:104D3000B7F88A3008339BB21BB25A4203F007031C
:104D400002F0070258BF53421BB2A7F88A30074B44
:104D50001B685B0803F00103002B2CD0034B1B796D
:104D6000FA799A4227D103E0B82800208C3000203D
:104D70000023C7F884304E4818F018FBC7F88400A9
:104D80004C4820F007FFFB794B4A1B0113440C33BE
:104D90001B681946494820F061FED7F8841048483E
:104DA00020F05CFE07F10C02D7F8843018210020B7
:104DB000FBF7BCFC0BE0FB793F4A1B0113440C33AF
:104DC0001B6807F10C0218210020FBF7AFFC002341
:104DD00087F88F3011E097F88F2097F88F300333E2
:104DE00090323A4412F8482C90333B4403F8842C18
:104DF00097F88F30013387F88F3097F88F309BB258
:104E0000B7F88C209A42E6D8B7F88C3007F1480200
:104E1000D41897F88F309BB203339AB207F10C0382
:104E20001146184610F0D6F90346B7F88A00224614
:104E30002021FBF77BFCB7F98A302033002B00DA06
:104E40000733DB109AB2B7F88C301344A7F88C30D4
:104E5000B7F88A3020339BB21BB25A4203F00703E3
:104E600002F0070258BF53421BB2A7F88A30154B15
:104E70001B685B0A03F00103002B0BD0114B1B795D
:104E8000FA799A4206D1104820F084FE0F4820F0AB
:104E9000E5FD09E0B7F88C30D9B2FA7907F148039B
:104EA000184603F0ABF800BF00BF9437BD4690BD75
:104EB000ACBB0020E87C0208F42800200C7D02082E
:104EC000307D02088C300020447A02085C7A0208A7
:104ED00080B5C0B000AF7860084611461A46034658
:104EE000FB700B46BB7013467B700023A7F8FE30A7
:104EF0000023C7F8F0300023C7F8EC3013F098FE19
:104F0000C7F8E800002387F8FD30002387F8FC305D
:104F1000002387F8FB3000237B6607F168037C22BF
:104F20000021184620F0B2FC0023A7F8F830002337
:104F3000A7F8F630FB7899B2BA78C34813465B01FC
:104F400013445B00034440331B8899421AD1BA785A
:104F500013465B0113445B00BB4A1344FA781946BD
:104F6000786820F05BFC0346002B0BD1BB78B74A76
:104F700066339B0013445B681946B54820F06EFD0C
:104F800000F098BDFB78053B7A681A44B7F8F63014
:104F900020211846FBF73EFBC7F8EC00AD4B1B6821
:104FA00003F00103002B34D0AA4B1B79BA789A4244
:104FB0002FD11623C7F8E430A74818F0F7F90246B6
:104FC000A64BA3FB0213D90D0B461B045B1A1B0255
:104FD000D31AC7F8E430A24820F0DCFDBA78A14922
:104FE00013465B001344DB000B4408331B6819466F
:104FF0009D4820F033FDD7F8E4109C4820F02EFDAA
:1050000007F16402D7F8E43018210020FBF78EFB8B
:105010000EE0BA78934913465B001344DB000B445F
:1050200008331B6807F1640218210020FBF77EFBA0
:10503000002387F8FC3011E097F8FC307A681A44B6
:1050400097F8FC300333127803F580733B4403F880
:105050009C2C97F8FC30013387F8FC3097F8FC2043
:10506000FB78053B9A42E7DB97F8FC309BB20333B1
:105070009AB207F164031146184610F0ABF8C7F86E
:10508000F000D7F8F020D7F8EC309A4200F0048115
:105090007B6805331A4608210020FBF7BBFA03465C
:1050A000002B40F0BA80724820F074FD07F16403D1
:1050B00080220021184620F0E9FBBA78694913469E
:1050C0005B001344DB000B4408331B68013307F11A
:1050D000640218210020FBF729FB002387F8FC302D
:1050E00011E097F8FC307A681A4497F8FC300333E3
:1050F000127803F580733B4403F89C2C97F8FC303E
:10510000013387F8FC3097F8FC20FB78053B9A4286
:10511000E7DB97F8FC309BB203339AB207F16403E4
:105120001146184610F056F8C7F8F000FB78053B1A
:105130007A681A44B7F8F63020211846FBF76AFA65
:10514000C7F8EC00D7F8F020D7F8EC309A424ED1EF
:10515000484820F01FFDD7F8EC10474820F07EFCAF
:10516000BA78404913465B001344DB000B44083314
:105170001B681946414820F071FCBA78394913463A
:105180005B001344DB000B4408331B68591C354893
:1051900013465B001344DB00034408331960B978FD
:1051A000304813465B001344DB00034408331A689D
:1051B00033480B01034408331A60BB78304A1B01A3
:1051C000134408331B6819462E4820F047FCBB786F
:1051D000BA782B491B010B44083319682A48134637
:1051E0005B001344DB0003440833196055E0BB78CF
:1051F000164A66339B0013445B681946234820F027
:105200002DFCD7F8EC10224820F028FCD7F8F0103D
:10521000204820F023FC00F04DBCBB780B4A6633DD
:105220009B0013445B681946184820F017FCD7F818
:10523000EC10174820F012FCD7F8F010154820F0B9
:105240000DFC00F037BC00BF9430002004050020A6
:10525000547D02088C300020ACBB0020018000800F
:10526000707A0208942E0020907A0208B87A020818
:10527000E07A0208987D0208147B0208BC7D0208CF
:10528000F4280020547B0208A42D0020D87D0208B9
:10529000B0770208C077020800BFB7F9F6300833CC
:1052A000002B00DA0733DB109AB2B7F8F83013445A
:1052B000A7F8F830B7F8F63008339BB21BB25A4261
:1052C00003F0070302F0070258BF53421BB2A7F8CE
:1052D000F630B7F8F8307A681A44B7F8F63010218B
:1052E0001846FBF797F903469BB2A7F85C30B7F86E
:1052F0005C301946C64820F0B1FBB7F9F6301033E0
:10530000002B00DA0733DB109AB2B7F8F8301344F9
:10531000A7F8F830B7F8F63010339BB21BB25A42F8
:1053200003F0070302F0070258BF53421BB2A7F86D
:10533000F630B7F8F8307A681A44B7F8F63010212A
:105340001846FBF767F903469BB2A7F85A30B7F83F
:105350005A301946AF4820F081FBB7F9F6301033C8
:10536000002B00DA0733DB109AB2B7F8F830134499
:10537000A7F8F830B7F8F63010339BB21BB25A4298
:1053800003F0070302F0070258BF53421BB2A7F80D
:10539000F630B7F8F8307A681A44B7F8F6300821D2
:1053A0001846FBF737F90346DBB287F82530B7F923
:1053B000F6300833002B00DA0733DB109AB2B7F867
:1053C000F8301344A7F8F830B7F8F63008339BB23A
:1053D0001BB25A4203F0070302F0070258BF5342C0
:1053E0001BB2A7F8F630B7F8F8307A681A44B7F865
:1053F000F63008211846FBF70DF90346DBB287F8B3
:105400002630B7F9F6300833002B00DA0733DB100B
:105410009AB2B7F8F8301344A7F8F830B7F8F63076
:1054200008339BB21BB25A4203F0070302F0070293
:1054300058BF53421BB2A7F8F630B7F8F8307A6875
:105440001A44B7F8F63008211846FBF7E3F803468C
:10545000DBB287F83630B7F9F6300833002B00DAC4
:105460000733DB109AB2B7F8F8301344A7F8F830D6
:10547000B7F8F63008339BB21BB25A4203F0070369
:1054800002F0070258BF53421BB2A7F8F630B7F834
:10549000F8307A681A44B7F8F63010211846FBF74E
:1054A000B9F803469BB23B85B7F9F6301033002BB1
:1054B00000DA0733DB109AB2B7F8F8301344A7F8D4
:1054C000F830B7F8F63010339BB21BB25A4203F0F3
:1054D000070302F0070258BF53421BB2A7F8F63089
:1054E0003B8D03F02003002B00F0FE80B7F8F8306E
:1054F0007A681A44B7F8F63008211846FBF78AF89C
:105500000346DBB287F82130B7F9F6300833002BB9
:1055100000DA0733DB109AB2B7F8F8301344A7F873
:10552000F830B7F8F63008339BB21BB25A4203F09A
:10553000070302F0070258BF53421BB2A7F8F63028
:10554000B7F8F8307A681A44B7F8F63008211846E8
:10555000FBF760F80346DBB287F82030B7F9F63086
:105560000833002B00DA0733DB109AB2B7F8F830B3
:105570001344A7F8F830B7F8F63008339BB21BB2E3
:105580005A4203F0070302F0070258BF53421BB20E
:10559000A7F8F630B7F8F8307A681A44B7F8F6305A
:1055A00008211846FBF736F80346DBB2FB77B7F95C
:1055B000F6300833002B00DA0733DB109AB2B7F865
:1055C000F8301344A7F8F830B7F8F63008339BB238
:1055D0001BB25A4203F0070302F0070258BF5342BE
:1055E0001BB2A7F8F630B7F8F8307A681A44B7F863
:1055F000F63008211846FBF70DF80346DBB23B777F
:10560000B7F9F6300833002B06DA073304E000BFA1
:10561000A0780208A8780208DB109AB2B7F8F83030
:105620001344A7F8F830B7F8F63008339BB21BB232
:105630005A4203F0070302F0070258BF53421BB25D
:10564000A7F8F630B7F8F8307A681A44B7F8F630A9
:1056500008211846FAF7DEFF0346DBB27B77B7F97D
:10566000F6300833002B00DA0733DB109AB2B7F8B4
:10567000F8301344A7F8F830B7F8F63008339BB287
:105680001BB25A4203F0070302F0070258BF53420D
:105690001BB2A7F8F630B7F8F8307A681A44B7F8B2
:1056A000F63008211846FAF7B5FF0346DBB2BB77A0
:1056B000B7F9F6300833002B00DA0733DB109AB263
:1056C000B7F8F8301344A7F8F830B7F8F6300833D5
:1056D0009BB21BB25A4203F0070302F0070258BF05
:1056E00053421BB2A7F8F6303B8D03F00803002BA2
:1056F00002D0012387F8FB30B7F8F8307A681A44F3
:10570000B7F8F63008211846FAF784FF0346DBB2F3
:1057100087F83730B7F9F6300833002B00DA073353
:10572000DB109AB2B7F8F8301344A7F8F830B7F89E
:10573000F63008339BB21BB25A4203F0070302F063
:10574000070258BF53421BB2A7F8F63097F837301C
:1057500019464B4820F082F9B7F8F8307A681A44B5
:10576000B7F8F63008211846FAF754FF0346DBB2C3
:1057700087F83830B7F9F6300833002B00DA0733F2
:10578000DB109AB2B7F8F8301344A7F8F830B7F83E
:10579000F63008339BB21BB25A4203F0070302F003
:1057A000070258BF53421BB2A7F8F63097F83730BC
:1057B00003F0070387F8FD3097F8FD30002B07D082
:1057C00097F83730DB08DBB2013387F8FD3004E0AF
:1057D00097F83730DB0887F8FD300023A7F8FE3054
:1057E00040E0B7F8F8307A681A44B7F8F630082184
:1057F0001846FAF70FFF0246B7F8FE30D2B203F5AB
:1058000080733B4403F8C72CB7F8FE10B7F8FE309E
:1058100003F580733B4413F8C73C1A46194820F03F
:105820001DF9B7F9F6300833002B00DA0733DB1027
:105830009AB2B7F8F8301344A7F8F830B7F8F63052
:1058400008339BB21BB25A4203F0070302F007026F
:1058500058BF53421BB2A7F8F630B7F8FE300133F9
:10586000A7F8FE3097F8FD309BB2B7F8FE209A42B9
:10587000B7D30A2020F00AF90023A7F8FE3037E05A
:10588000F47D0208FC7D0208B7F8F8307A681A4403
:10589000B7F8F63008211846FAF7BCFE0246B7F80A
:1058A000FE30D2B203F580733B4403F8B72CB7F94E
:1058B000F6300833002B00DA0733DB109AB2B7F862
:1058C000F8301344A7F8F830B7F8F63008339BB235
:1058D0001BB25A4203F0070302F0070258BF5342BB
:1058E0001BB2A7F8F630B7F8FE300133A7F8FE3048
:1058F00097F838309BB2B7F8FE209A42C4D307F12C
:10590000080301331022002118461FF0BFFF97F84B
:10591000FD2007F13403591D07F108030133184630
:105920001FF08CFF97F8FD301AB207F1080301331E
:10593000194600200FF094FB03467B8397F8FD3057
:105940007B76BB783B72BB785C4A134493F82D306E
:10595000012B77D197F8FB30012B73D1798BBA7873
:10596000574813469B0013449B00034412331B8883
:10597000994267D0BA7813469B0013449B00504A63
:10598000134401331022002118461FF07FFFBA781C
:1059900013469B0013449B00494A134407F1080136
:1059A000142218461FF04AFFBB784649D7F8E82072
:1059B00041F82320BB78444A32F81310BA784048A3
:1059C00013469B0013449B00034412331B889942E7
:1059D00038D0BA78B9783A4813469B0013449B00F4
:1059E000034412331A88384B23F811201422002163
:1059F00036481FF04BFFBA7813469B0013449B00B8
:105A00002F4A13441422194630481FF017FF4FF451
:105A100002700BF051F8BB782D4A32F81330002B8E
:105A200010D1BB781B012B4A1344981CBA7813463B
:105A30009B0013449B00224A134401331022194651
:105A40001FF0FCFEBA78244913465B001344DB00C8
:105A50000B44BA781A70BA781F4913465B00134496
:105A6000DB000B44013301221A70182200211B486D
:105A70001FF00CFFBA7813465B001344DB00164A94
:105A800013441822194615481FF0D8FE40F2022090
:105A90000BF012F8BA78104913465B001344DB0090
:105AA0000B44013300221A70BB780D49D7F8E82067
:105AB00041F8232007F58077BD4680BD040500200E
:105AC00098350020642500208C25002028370020F0
:105AD0005025002070270020A42D0020842F0020B6
