:020000040800F2
:1000000000000820C18D0108658101086B8101088D
:1000100071810108778101087D81010800000000DD
:1000200000000000000000000000000083810108C3
:1000300091810108000000009F810108AD81010845
:10004000118E0108118E0108118E0108118E010810
:10005000118E0108118E0108B9810108C7810108BC
:10006000118E0108118E0108118E0108118E0108F0
:10007000118E0108118E0108118E0108118E0108E0
:10008000118E0108118E0108118E0108118E0108D0
:10009000118E0108118E0108118E0108118E0108C0
:1000A000118E0108118E0108118E0108118E0108B0
:1000B000118E0108118E0108D5810108118E0108E9
:1000C000118E0108118E0108118E0108118E010890
:1000D000118E0108E9810108118E0108118E0108B5
:1000E000118E0108118E0108118E0108118E010870
:1000F000118E0108118E0108118E0108118E010860
:10010000118E0108118E0108FD810108118E010870
:100110001182010825820108398201084D820108F7
:10012000118E0108118E0108118E0108118E01082F
:10013000118E010861820108118E0108118E0108DB
:100140007582010889820108118E0108118E01084B
:10015000118E0108118E0108118E0108118E0108FF
:10016000118E0108118E0108118E0108118E0108EF
:10017000118E0108118E0108118E01080000000087
:10018000118E0108118E01089D820108118E01084F
:10019000118E0108118E0108118E0108118E0108BF
:1001A000118E0108118E0108118E0108118E0108AF
:1001B000118E0108118E0108118E0108118E01089F
:1001C000118E0108118E0108118E0108118E01088F
:1001D000118E0108118E0108118E0108118E01087F
:1001E000118E0108B1820108C5820108118E010833
:0801F000118E0108118E0108B7
:1002000010B5054C237833B9044B13B10448AFF350
:1002100000800123237010BDE404002000000000D2
:100220002C75020808B5034B1BB103490348AFF313
:10023000008008BD00000000E80400202C750208C2
:1002400010F8012B11F8013B012A28BF9A42F7D080
:10025000D01A7047034613F8012B002AFBD1181A55
:10026000013870470000000000000000000000009E
:1002700001F0FF01102A2BDB10F0070F08D010F857
:10028000013B013A8B422DD010F0070F42B3F6D15B
:10029000F0B441EA012141EA014122F007047FF074
:1002A00000070023F0E80256083C85EA010586EACB
:1002B000010685FA47F5A3FA87F586FA47F6A5FA07
:1002C00087F68EB9EED1F0BC01F0FF0102F0070213
:1002D00032B110F8013B013A83EA010313B1F8D1BE
:1002E0000020704701387047002D06BF354603389F
:1002F000073815F0010F07D1013015F4807F02BFD8
:10030000013015F4C03F0130F0BC0138704700BF28
:1003100053B94AB9002908BF00281CBF4FF0FF316C
:100320004FF0FF3000F074B9ADF1080C6DE904CE68
:1003300000F006F8DDF804E0DDE9022304B07047C0
:100340002DE9F047089D04468E46002B4DD18A4288
:10035000944669D9B2FA82F252B101FA02F3C2F1BB
:10036000200120FA01F10CFA02FC41EA030E94404C
:100370004FEA1C48210CBEFBF8F61FFA8CF708FB6D
:1003800016E341EA034306FB07F199420AD91CEB45
:10039000030306F1FF3080F01F81994240F21C8177
:1003A000023E63445B1AA4B2B3FBF8F008FB1033BF
:1003B00044EA034400FB07F7A7420AD91CEB0404F4
:1003C00000F1FF3380F00A81A74240F207816444C4
:1003D000023840EA0640E41B00261DB1D440002349
:1003E000C5E900433146BDE8F0878B4209D9002DAD
:1003F00000F0EF800026C5E9000130463146BDE837
:10040000F087B3FA83F6002E4AD18B4202D38242A0
:1004100000F2F980841A61EB030301209E46002D4F
:10042000E0D0C5E9004EDDE702B9FFDEB2FA82F2A4
:10043000002A40F09280A1EB0C014FEA1C471FFA02
:100440008CFE0126200CB1FBF7F307FB131140EAE9
:1004500001410EFB03F0884208D91CEB010103F1B6
:10046000FF3802D2884200F2CB804346091AA4B278
:10047000B1FBF7F007FB101144EA01440EFB00FE4C
:10048000A64508D91CEB040400F1FF3102D2A645B1
:1004900000F2BB800846A4EB0E0440EA03409CE750
:1004A000C6F12007B34022FA07FC4CEA030C20FAFD
:1004B00007F401FA06F31C43F9404FEA1C4900FA1D
:1004C00006F3B1FBF9F8200C1FFA8CFE09FB18119A
:1004D00040EA014108FB0EF0884202FA06F20BD90D
:1004E0001CEB010108F1FF3A80F08880884240F25D
:1004F0008580A8F102086144091AA4B2B1FBF9F0A1
:1005000009FB101144EA014100FB0EFE8E4508D99B
:100510001CEB010100F1FF346CD28E456AD9023820
:10052000614440EA0840A0FB0294A1EB0E01A14205
:10053000C846A64656D353D05DB1B3EB080261EB73
:100540000E0101FA07F722FA06F3F1401F43C5E94D
:10055000007100263146BDE8F087C2F12003D84083
:100560000CFA02FC21FA03F3914001434FEA1C47C5
:100570001FFA8CFEB3FBF7F007FB10360B0C43EAB7
:10058000064300FB0EF69E4204FA02F408D91CEB67
:10059000030300F1FF382FD29E422DD90238634465
:1005A0009B1B89B2B3FBF7F607FB163341EA034105
:1005B00006FB0EF38B4208D91CEB010106F1FF3854
:1005C00016D28B4214D9023E6144C91A46EA00464B
:1005D00038E72E46284605E70646E3E61846F8E6DD
:1005E0004B45A9D2B9EB020864EB0C0E0138A3E726
:1005F0004646EAE7204694E74046D1E7D0467BE707
:10060000023B614432E7304609E76444023842E77E
:10061000704700BF80B487B000AF03463A60FB80EC
:100620000B46BB80FA88BB8813443B823B8A082B6D
:1006300006D8FB88C3F10703FB8001237B8219E006
:100640003B8A102B06D8FB88C3F10F03FB800223E3
:100650007B820FE03B8A182B06D8FB88C3F1170377
:10066000FB8003237B8205E0FB88C3F11F03FB8033
:1006700004237B8200237B617B8A013B032B34D8DC
:1006800001A252F823F000BFD5060008BF060008FB
:10069000A9060008990600083B685A1C3A601B78B6
:1006A0001A467B6913437B617B691B027B613B6854
:1006B0005A1C3A601B781A467B6913437B617B693D
:1006C0001B027B613B685A1C3A601B781A467B69A7
:1006D00013437B617B691B027B613B685A1C3A6058
:1006E0001B781A467B6913437B61FA88BB88D31A4F
:1006F0009BB20133FB81BB880B4A52F82330BB60AD
:10070000FB89BA6802FA03F37A6913407B61FB89BB
:100710007A6922FA03F37B617B6918461C37BD4670
:100720005DF8047B704700BF0000002080B48BB0F0
:1007300000AFBA607B600346FB810B46BB81BB68A0
:10074000FB61FA89BB8913447B837B8B082B06D81A
:10075000FB89C3F10703FB8101237B8419E07B8BB9
:10076000102B06D8FB89C3F10F03FB8102237B8486
:100770000FE07B8B182B06D8FB89C3F11703FB8195
:1007800003237B8405E0FB89C3F11F03FB81042362
:100790007B8400237B627B8C013B032B31D801A23D
:1007A00052F823F0F1070008DB070008C50700082E
:1007B000B5070008BB685A1CBA601B781A467B6AEA
:1007C00013437B627B6A1B027B62BB685A1CBA6064
:1007D0001B781A467B6A13437B627B6A1B027B622F
:1007E000BB685A1CBA601B781A467B6A13437B624B
:1007F0007B6A1B027B62BB681B781A467B6A1343C9
:100800007B62FA89BB89D31A9BB201333B83BB89D4
:10081000234A52F823307B617A687B6913407B60FE
:100820003B8B7A6802FA03F37B603B8B7A6902FAAE
:1008300003F3DB437A6A13407B627A6A7B68134373
:100840007B627B8C013B032B23D801A252F823F05F
:100850008B0800087D0800086F0800086108000880
:100860007B6A190EFB695A1CFA61CAB21A707B6A5C
:10087000190CFB695A1CFA61CAB21A707B6A190A10
:10088000FB695A1CFA61CAB21A707B6ADAB2FB6958
:100890001A707B6A18462C37BD465DF8047B70479A
:1008A00084000020B0B483B000AF0023FB71FB795B
:1008B0006E4A322101FB03F3134424221A70FB79A0
:1008C0006A4A322101FB03F31344013301221A70F7
:1008D000FB79664A322101FB03F3134402333022D1
:1008E0001A70FB79614A322101FB03F3134403338D
:1008F00040221A70FB795D4A322101FB03F3134455
:100900000433C0221A70FB79584A322101FB03F3E9
:10091000134405334E221A70FB79544A322101FBED
:1009200003F31344063326221A70FB790133FB715B
:10093000FB795A1CFA711A46322302FB03F34B4A25
:1009400013444B491A460B4603CB1060516019887B
:100950009B7811819372FB795A1CFA711A463223E3
:1009600002FB03F3414A1344424A1C4615460FCD8D
:1009700020606160A260E360FB795A1CFA711A463C
:10098000322302FB03F3394A13443B4A1C46154603
:100990000FCD20606160A260E360FB795A1CFA71A0
:1009A0001A46322302FB03F3304A1344334A1D46EE
:1009B00014460FCC28606960AA60EB602388A27897
:1009C0002B821346AB74FB795A1CFA711A463223F8
:1009D00002FB03F3254A1344294A1D4614460FCC53
:1009E00028606960AA60EB602388A2782B82134696
:1009F000AB74FB795A1CFA711A46322302FB03F3DB
:100A00001A4A13441F4A1D4614460FCC28606960D9
:100A1000AA60EB602388A2782B821346AB74FB7923
:100A20005A1CFA711A46322302FB03F30F4A13448D
:100A300015491A460B4603CB106051601B88138181
:100A4000FB795A1CFA711A46322302FB03F3074A58
:100A500013440E4A1068186012791A710C4AFB7917
:100A6000137000BF0C37BD46B0BC7047C40F0020E8
:100A70004475020850750208607502087075020816
:100A80008475020898750208AC750208B8750208EA
:100A9000AC13002080B582B000AF7860391D4FF6EE
:100AA000FF73012207481EF049F8074B1B6898683E
:100AB00000230222002125F075FB7B6818460837C9
:100AC000BD4680BD20DC00204003002080B582B000
:100AD00000AF0023FB711D4B3B6008211C481AF03E
:100AE0001DFF0346002B0CBF01230023DBB25AB2CB
:100AF00097F9073013435BB2FB71102114481AF0C9
:100B00000DFF0346002B01D1022300E000235AB25F
:100B100097F9073013435BB2FB714FF400510D4856
:100B20001AF0FCFE0346002B01D1042300E0002351
:100B30005AB297F9073013435BB2FB713B68FA79FD
:100B40001A7000BF0837BD4680BD00BFBC0F002033
:100B5000002802400020024080B59AB000AF002378
:100B600087F86730002387F86630002387F8653000
:100B700000233B603B1D60220021184625F038F918
:100B8000C04B1B6818460FF037FC0346092B40F298
:100B9000758110E0002017F0D5FF034687F8653017
:100BA00097F866305A1C87F8662068333B4497F8FC
:100BB000652003F8682C002017F084FF0346002B03
:100BC000E8D197F86630002B00F04E8197F8663038
:100BD00068333B44002203F8682C3B461946AA4878
:100BE00025F0EEF997F866203B461146184600F0CE
:100BF00079F90346092B00F2338101A252F823F060
:100C0000290C0008370C00089B0C0008F10C0008A8
:100C10004D0D0008970D0008DB0D00081F0E0008A1
:100C20003B0E0008450E0008984B01221A709848A8
:100C300025F062FA19E197F86630013B68333B44CE
:100C400013F8683C303B1A469249934825F0B8F9AE
:100C500097F86630013B68333B4413F8683C2F2B10
:100C600014D997F86630013B68333B4413F8683C6D
:100C7000312B0BD897F86630013B68333B4413F8AF
:100C8000683C303BDAB2854B1A7002E0844825F0AC
:100C900033FA012387F86730E7E097F86630013BC5
:100CA00068333B4413F8683C303B1A467D497E4824
:100CB00025F086F97D4825F01FFA7D4B1B6843F02F
:100CC00010037B4A136097F86630013B68333B445E
:100CD00013F8683C303BDAB2754B1A71012387F880
:100CE0006730734B1B681946724825F069F9BCE000
:100CF00097F86630013B68333B4413F8683C303B5F
:100D00001A466D49684825F05BF96C4825F0F4F9FE
:100D1000674B00221A60664B1B6843F02003644A4D
:100D2000136097F86630013B68333B4413F8683C26
:100D3000303BDAB25E4B1A71012387F867305C4BA7
:100D40001B6819465B4825F03BF98EE097F8663042
:100D5000013B68333B4413F8683C303B1A46584922
:100D6000514825F02DF9574825F0C6F9504B1B681E
:100D700043F400734E4A136097F86630013B6833C2
:100D80003B4413F8683C303BDAB2494B1A710123FB
:100D900087F8673069E097F86630013B68333B4479
:100DA00013F8683C303B1A4647493F4825F008F99C
:100DB0003F4B1B6843F001033D4A136097F86630D0
:100DC000013B68333B4413F8683C303BDAB2384BA4
:100DD0001A71012387F8673047E097F86630013BC6
:100DE00068333B4413F8683C303B1A4637492E4879
:100DF00025F0E6F82E4B1B6843F002032C4A1360E3
:100E000097F86630013B68333B4413F8683C303B4D
:100E1000DAB2274B1A71012387F8673025E02C4995
:100E20002C4825F0CDF8224B00221A60204BFF22DF
:100E30001A71012387F8673017E02749274825F002
:100E4000BFF812E097F86630013B68333B4413F873
:100E5000683C303B1A462249134825F0B1F804E0BB
:100E60000F4825F049F900E000BF97F86730012BE3
:100E700005D140F2052010F073F800E000BF68379C
:100E8000BD4680BDDCBF0020C0750208BA0B002043
:100E9000D8750208F60F002018760208BB0B002058
:100EA0002C76020828100020487602086476020892
:100EB0008C300020747602085A10002088760208D0
:100EC0008C10002098760208BE100020F010002040
:100ED00022110020B476020854110020C4760208C2
:100EE0008611002090B585B000AF78600B46FB708E
:100EF0000023FB731CE0FB7B322202FB03F3114A4D
:100F00009C18FB7B322202FB03F30E4A1344184663
:100F1000FFF7A0F903461A462146786824F030FF0F
:100F20000346002B01D1FB7B08E0FB7B0133FB7305
:100F3000054B1B78FA7B9A42DDD3FF231846143702
:100F4000BD4690BDC40F0020AC13002080B500AF9B
:100F5000164B1B6818460FF04FFA0346B3F57A6F2D
:100F600021D9134B1A88134B1B889A4212D0114B6C
:100F70001B88002B0ED0104825F0BEF80C4B1B88A8
:100F800019460E4825F01CF80A4B1B8819460C48D8
:100F900025F016F840F209200FF0E2FF18F0FAF8F9
:100FA0000346024A136000BF80BD00BFB01300209B
:100FB000B40B0020B80B0020007702082477020849
:100FC0003477020880B500AF094B1B6818460FF054
:100FD00013FA034641F65832934206D900F00AF854
:100FE00018F0D8F80346024A136000BF80BD00BF66
:100FF0007023002080B582B000AF0023BB710023B6
:101000007B710023FB7169E0FB796F4AD35C002B95
:1010100008D1BB7998B27B796C4A1A44002302212B
:10102000FFF784FBFB79684AD35C012B08D1BB79BD
:1010300098B27B79654A1A4401230221FFF776FBB7
:10104000FB79614AD35C022B08D1BB7998B27B79DA
:101050005E4A1A4402230221FFF768FBFB795A4AD1
:10106000D35C032B08D1BB7998B27B79574A1A44D9
:1010700003230221FFF75AFB554B1B6818460FF05C
:10108000BBF9034643F69822934213D9FB794E4AA3
:10109000D35C002B0ED0BB7998B27B794B4A1A44B3
:1010A00003230221FFF742FB4A4B01221A604A4800
:1010B00024F086FFBB790233BB71BB79082B04D1C6
:1010C0000023BB717B7901337B717B79072B02D1C4
:1010D000BB79062B06D0FB790133FB71FB791E2B04
:1010E00092D900E000BF0023FB7110E0FB79364A83
:1010F000D35C002B08D0FB79334AD35C032B03D895
:10110000364AFB79137005E0FB790133FB71FB79FB
:101110001E2BEBD9314B1A78314B1A70314AFB79BF
:1011200013702F4B1A782F4B1B789A4219D02E48E8
:1011300024F0E2FF2D4B01221A702D4B1B78013356
:10114000DAB22B4B1A70234B1B68042B0CD9214BA2
:1011500000221A60264B04221A70264824F0CCFF85
:1011600002E0234B00221A70214B1B78FA2B02D18C
:101170001F4B06221A701A4B1A781A4B1B789A4288
:1011800042D11D4B1B780133DAB21B4B1A701B483E
:1011900024F0B2FF1A4B1B78042B38D1134B1B7869
:1011A000012B34D10A4B1B6818460FF025F9034672
:1011B00042F6E06293422AD90C4B00221A70114881
:1011C00024F0FEFE23E000BF68230020B4130020BB
:1011D0006023002064230020447702087423002049
:1011E0007523002076230020B8770208080300202A
:1011F0005C230020FC770208772300203C7802085B
:1012000009030020847802082E4B00221A702D4B0F
:101210001B78FA2B02D12B4B06221A70294B1B7814
:10122000032B15D9274B1B78052B11D8264B1B7880
:10123000022B0DD1254824F05FFF254B00221A70A8
:10124000214B04221A7006220021224824F0D0FDEE
:101250001F4B1B78032B07D91D4B1B78052B03D87D
:10126000194B1B78042B03D01B4B1B68012B16D981
:10127000194B1B68012B04D9174B1B680133164A05
:101280001360164824F038FF0E4B00221A700E4BE4
:1012900002221A70062200210E4824F0A9FD4FF404
:1012A0007A6200210E4824F0A3FD0E4B00221A7032
:1012B0000D4B00221A700D4B00221A7000BF083728
:1012C000BD4680BD7723002009030020AC780208CA
:1012D0005C2300206823002064230020E0780208BB
:1012E000BC130020752300207623002074230020E7
:1012F00080B582B000AF00237B604FF496722F4917
:10130000022000F06BF803467B607B68002B51D015
:101310002A4B1B78002B48D0284B1B781F2B44D816
:10132000264B1B783B60254B9B7DFF2B08D1244A25
:101330003B68134400221A703968224824F040FEAA
:101340001E4B9B7DBF2B0FD11D4A3B6813440122CE
:101350001A7039681C4824F033FE1C4B1B68012BA3
:1013600002D11A4B02221A60144B9B7D7F2B0FD1A6
:10137000134A3B68134402221A703968144824F057
:101380001FFE124B1B68012B02D1104B02221A6068
:101390000A4B9B7D3F2B08D1094A3B68134403222B
:1013A0001A7039680B4824F00BFE17F0F3FE034661
:1013B000094A136000BF0837BD4680BD782300206E
:1013C000682300200C790208587902086423002061
:1013D000A4790208F07902086023002080B584B067
:1013E00000AF03463960FB801346BB800023FB73CC
:1013F000A6E0FB88DBB2184617F0A4FB0346FB739C
:10140000FB7B1946554824F0DBFD554B1B780B3B05
:10141000032B00F2918001A252F823F02D14000852
:101420005B14000879140008AB140008FB7B002B48
:1014300000F08680FB7B1F2B00F28280FB7B0E2B53
:101440007ED0484AFB7B1370474B1B680133464AEA
:101450001360434B0C221A7072E0FB7B032B6FD19D
:10146000424AFB7B1370404B1B6801333E4A1360BA
:101470003B4B0D221A7063E0FB7B1C2B0ED13C4AC8
:10148000FB7B1370384B1B680133374A1360344BB6
:101490000E221A70374B01221A7051E0324B002293
:1014A0001A602F4B0B221A704AE02E4B1A783B68B9
:1014B0001A703B6801332D4A12781A703B68023368
:1014C0002B4A12781A70284B1B683A681344FA7B2F
:1014D0001A70254B1B68202B04D8234B1B68013343
:1014E000214A1360204B1B68212B29D11E4B1B68FE
:1014F0009BB2023B9BB21946386800F041F80346A4
:10150000002B0ED0184B1B68DAB21A4B1A70144B12
:101510000B221A70144B00221A60164B1B789BB2D8
:1015200018E0154824F0E8FD0D4B0B221A700E4B05
:1015300000221A6000230DE0104824F041FD00BF96
:10154000FB88DBB2184617F0BDFA0346002B7FF488
:1015500050AF002318461037BD4680BD3C7A0208C4
:101560000A030020A4240020A8240020AC2400208A
:10157000AD240020AE240020447A0208507A0208EC
:1015800080B584B000AF78600B467B807B881946BD
:10159000786800F01FF80346FB817B8801337A6886
:1015A00013441B78BB81BB891B02BB817B887A6893
:1015B00013441B789AB2BB891343BB81FA89BB8958
:1015C0009A4201D1012300E0002318461037BD469E
:1015D00080BD000080B485B000AF78600B467B8092
:1015E000FF23FB73FF23BB7313E07B685A1C7A60F5
:1015F0001A78BB7B5340DBB2BB60104ABB68134414
:101600001A78FB7B5340BB730D4ABB6813441B78AD
:10161000FB737B885A1E7A80002BE6D1FB7B9BB242
:101620001B02BB81BB7B9AB2BB891343BB81BB89C5
:1016300018461437BD465DF8047B7047080100204A
:101640000802002080B5A2B000AF002387F88530E3
:1016500000237B6007F108037C220021184624F058
:10166000C7FB002387F88730002387F886303AE0ED
:101670000FF084FA034687F8853097F88530F42B0D
:1016800002D0F62B0CD01BE097F887305A1C87F855
:10169000872088333B4497F8852003F8842C1EE08C
:1016A00097F887305A1C87F8872088333B4497F88F
:1016B000852003F8842C97F8873087F886300EE071
:1016C00097F88730002B0AD097F887305A1C87F894
:1016D000872088333B4497F8852003F8842C97F8BB
:1016E0008630002B05D10FF035FA0346002BBFD111
:1016F00000E000BF97F88630002B0DD097F88730B8
:101700000F2B06D997F887203B1D1146184600F08D
:10171000ABF8002387F8873000BF8837BD4680BD0F
:1017200080B5A2B000AF002387F8853000237B602E
:1017300007F108037C220021184624F059FB0023FE
:1017400087F88730002387F88630434B93F82230A0
:10175000002B7AD0414B1B6818460EF04DFE034615
:10176000132B74D950E0032017F0ECF9034687F8E7
:10177000853097F885301946394824F021FC97F8D0
:1017800087307E2B0AD997F8873080221946354852
:1017900024F016FC002387F887303DE097F8853069
:1017A000F42B02D0F62B0CD01BE097F887305A1C94
:1017B00087F8872088333B4497F8852003F8842CEA
:1017C0001EE097F887305A1C87F8872088333B44FF
:1017D00097F8852003F8842C97F8873087F88630AF
:1017E0000EE097F88730002B0AD097F887305A1C04
:1017F00087F8872088333B4497F8852003F8842CAA
:1018000097F88630002B06D1032017F05BF90346CA
:10181000002BA8D100E000BF97F88630002B17D02E
:1018200097F887300F2B06D997F887203B1D114674
:10183000184600F019F8002387F887303B1D8022F6
:101840000021184624F0D4FA02E000BF00E000BFF7
:101850008837BD4680BD00BF04050020D8BF0020EA
:101860005C7A0208647A020880B5A4B000AF7860A0
:101870000B46FB700023FB6007F110037C22002164
:10188000184624F0B5FA0023A7F88E300023A7F8F5
:101890008C300023A7F88E300023A7F88C3034E07A
:1018A000B7F88C307A6813441B78F02B18D1B7F84E
:1018B0008C307A6813441978B7F88C3001337A6821
:1018C00013441A78B7F88E300A43D2B290333B44AF
:1018D00003F8842CB7F88C300133A7F88C300AE079
:1018E000B7F88C307A681A44B7F88E301278903393
:1018F0003B4403F8842CB7F88E300133A7F88E30C0
:10190000B7F88C300133A7F88C30FB789BB2B7F86E
:101910008C209A42C4D3B7F88E2007F10C031146ED
:10192000184600F005F800BF9037BD4680BD0000A6
:1019300080B588B000AF78600B467B800023FB75D4
:101940000023FB770023BB770023BB6100233B61AF
:1019500017F020FCF860A74B1B78002B11D117F073
:1019600019FC034642F20F7293420AD9A24824F0AE
:10197000C3FBA249A248FEF763FC0346002B40F0DC
:10198000A1817B6803331A4610210020FEF742FE36
:1019900003469BB23B610BE0FB7F9A4A66339B0098
:1019A00013445B683A699A4209D0FB7F0133FB77A5
:1019B000944B93F82030FA7F9A42EDD300E000BFB9
:1019C000904B93F82030FA7F9A4209D38E4B1B78C4
:1019D000012B40F0798139698C4824F0F1FA73E1E8
:1019E0007B6801331A4610210020FEF713FE0346E0
:1019F0009BB2BB61FB7F834A70339B0013445B68DF
:101A0000BA699A4212D0824824F076FBB9698148BB
:101A100024F0D6FAFB7F7B4A70339B0013445B684B
:101A20001A4639697C4824F0CBFA4EE1FB7FBB773C
:101A30007A4B1B681B0903F00103002B16D0774B70
:101A40001B79BA7F9A4211D1754824F055FBB969C8
:101A5000744824F0B5FA40F24D13BB61694B93F81A
:101A60002030BB77B969704824F0AAFA654B93F827
:101A70002030BA7F9A4207D36C4824F03DFBB96905
:101A80006B4824F09DFA20E15F4B1B78012B21D19C
:101A9000FB7F684AD35C012B02D0022B04D007E005
:101AA000654824F029FB15E0644824F025FB11E08B
:101AB000FB7F544A134493F82D30022B03D1604826
:101AC00024F01AFB06E0FB7F5A4AD35C19465D48B6
:101AD00024F076FAFB7F5C4A52F82330FA7F5549AE
:101AE0008A5C934214D0FB7F5849FA6841F823205E
:101AF000FB7F5749FA6841F82320FB7F4D4AD25CAF
:101B0000FB7F1146504A42F82310524824F0F4FA61
:101B1000FA7FFB7F4749895C4F4AD154FB7F4F4A8C
:101B200052F8233018460EF067FC0246FB7F354919
:101B30008A3351F823309A4218D3FB7F4749FA6819
:101B400041F82320FB7F4149FA6841F82320FB7FBD
:101B50003F49FA6841F82320FB7F2A4A66339B00FD
:101B600013445B6819463E4824F02AFAFB7F3B4940
:101B7000FA6841F82320812200213A4824F038F9FC
:101B80007B881A467968374824F00AF97B88DAB2EC
:101B9000344B83F880207B6807331A4608210020E5
:101BA000FEF738FD0346FB75FA7F2F4913465B00AD
:101BB0001344DB000B44033301221A70FB7F2B49D3
:101BC000FA6841F82320FB7F184606F0E5FDFB7D0F
:101BD000013B052B70D801A252F823F0711C0008BC
:101BE000811C0008911C0008991C0008B91C000801
:101BF000A91C00080B030020907A0208D07A020882
:101C00000505002004050020BB0B0020DC7A02083B
:101C1000187B0208347B0208587B02088C300020B5
:101C2000907B0208B47B0208C47B0208D47B0208C4
:101C3000087C02080C270020287C0208387C020857
:101C4000487C0208607C020808260020302600201C
:101C500058260020847C0208B0260020BC260020E4
:101C60009C7C020828330020A42D0020E8240020BA
:101C70007B88D9B2BB7FFA7F786800F02DF824E02A
:101C80007B88D9B2BB7FFA7F786801F0C3FB1CE088
:101C90000F4824F031FA18E07B88D9B2BB7FFA7F75
:101CA000786803F03FFF10E07B88D9B2BB7FFA7FF2
:101CB000786805F0B9F908E0FB7D1946054824F07D
:101CC0007FF902E000BF00E000BF2037BD4680BDC5
:101CD000B87C0208DC7C020890B589B000AF78605F
:101CE000084611461A460346FB700B46BB70134666
:101CF0007B7000237B8300237B7600237B610023A2
:101D00003B6117F047FAF8600023FB830023BB8395
:101D1000FB789BB2053B9BB21946786813F0AEFC8A
:101D20007861FB78053B7A681A44BB8B2021184602
:101D3000FEF770FC38613A697B699A4213D0BB7830
:101D4000294A66339B0013445B681946274824F0F0
:101D500037F93969264824F033F97969254824F0A0
:101D60002FF900F032BEBB78234A0121D154BB7851
:101D7000224A0121D1547B6803F11D02BB8B102143
:101D80001846FEF747FC03467B83BB78164AF433BC
:101D90005B0013449B887A8B9A423DD0BB78184AEB
:101DA0000121D154BB78104A66339B0013445B6811
:101DB0001946144824F004F97B8B1946124824F084
:101DC000FFF8BB78084AF4335B0013449B8819463C
:101DD0000E4824F0F5F80E490E48FEF731FA034696
:101DE000002B1DD000F0F1BD04050020F87C020896
:101DF000147D0208247D02088026002098260020F9
:101E00008C260020347D02086C7D0208907D02083B
:101E1000D07A020805050020BB78AB4A0021D154D6
:101E20007B6803F12402BB8B08211846FEF7F2FB06
:101E300003467B76BB78A54A134493F8EB307A7E51
:101E40009A421FD0BB78A14A66339B0013445B685B
:101E500019469F4824F0B4F8BB789C4A134493F881
:101E6000EB3019469B4824F0ABF87B7E19469A4824
:101E700024F0A6F899499A48FEF7E2F90346002BA8
:101E800040F0A285BB789749FA6841F82320BB78D7
:101E9000954A0121D154BB78944A0021D154BB7892
:101EA0009349FA6841F82320B7F91C300833002B16
:101EB00000DA0733DB109AB2FB8B1344FB83BB8B36
:101EC00008339BB21BB25A4203F0070302F0070229
:101ED00058BF53421BB2BB83FB8B7A681A44BB8B3F
:101EE00010211846FEF796FB0246BB7891B2814A54
:101EF0005B01134410330A461A80BB787D4A5B01AC
:101F0000134410331B8819467B4824F059F8B7F95D
:101F10001C301033002B00DA0733DB109AB2FB8B36
:101F20001344FB83BB8B10339BB21BB25A4203F0AA
:101F3000070302F0070258BF53421BB2BB83FB8B5F
:101F40007A681A44BB8B10211846FEF763FB0246E1
:101F5000BB7891B2674A5B0113440E330A461A807C
:101F6000BB78644A5B0113440E331B8819466348EF
:101F700024F026F8B7F91C301033002B00DA0733B1
:101F8000DB109AB2FB8B1344FB83BB8B10339BB2E9
:101F90001BB25A4203F0070302F0070258BF534234
:101FA0001BB2BB83FB8B7A681A44BB8B0821184693
:101FB000FEF730FB0246BB78D1B24E4A5B011344B8
:101FC0000A461A70B7F91C300833002B00DA0733C1
:101FD000DB109AB2FB8B1344FB83BB8B08339BB2A1
:101FE0001BB25A4203F0070302F0070258BF5342E4
:101FF0001BB2BB83FB8B7A681A44BB8B0821184643
:10200000FEF708FB0246BB78D1B23A4A5B011344A3
:1020100001330A461A70B7F91C300833002B00DA76
:102020000733DB109AB2FB8B1344FB83BB8B083363
:102030009BB21BB25A4203F0070302F0070258BFDB
:1020400053421BB2BB83FB8B7A681A44BB8B0821BB
:102050001846FEF7DFFA0246BB78D1B2254A5B018B
:10206000134402330A461A70B7F91C300833002BA8
:1020700000DA0733DB109AB2FB8B1344FB83BB8B74
:1020800008339BB21BB25A4203F0070302F0070267
:1020900058BF53421BB2BB83FB8B7A681A44BB8B7D
:1020A00010211846FEF7B6FA0246BB7891B2144AE0
:1020B0001B01134404330A461A80B7F91C3010334D
:1020C000002B1FDA07331DE08C26002004050020BA
:1020D000B47D0208DC7D0208F07D0208D07A020897
:1020E0000505002030260020982600201827002013
:1020F0002427002094290020047E02080C7E020878
:10210000F4280020DB109AB2FB8B1344FB83BB8BBB
:1021100010339BB21BB25A4203F0070302F00702CE
:1021200058BF53421BB2BB83BB788E4A1B0113447A
:1021300004331B8803F02003002B00F01D81FB8B70
:102140007A681A44BB8B08211846FEF763FA0346E7
:10215000BA78D8B2844913465B0013445B000B4441
:10216000053302461A70B7F91C300833002B00DA29
:102170000733DB109AB2FB8B1344FB83BB8B083312
:102180009BB21BB25A4203F0070302F0070258BF8A
:1021900053421BB2BB83FB8B7A681A44BB8B08216A
:1021A0001846FEF737FA0346BA78D8B26E49134696
:1021B0005B0013445B000B44043302461A70B7F90A
:1021C0001C300833002B00DA0733DB109AB2FB8B8C
:1021D0001344FB83BB8B08339BB21BB25A4203F000
:1021E000070302F0070258BF53421BB2BB83FB8BAD
:1021F0007A681A44BB8B08211846FEF70BFA03468F
:10220000BA78D8B2584913465B0013445B000B44BC
:10221000033302461A70B7F91C300833002B00DA7A
:102220000733DB109AB2FB8B1344FB83BB8B083361
:102230009BB21BB25A4203F0070302F0070258BFD9
:1022400053421BB2BB83FB8B7A681A44BB8B0821B9
:102250001846FEF7DFF90346BA78D8B2424913466A
:102260005B0013445B000B4402461A70B7F91C3044
:102270000833002B00DA0733DB109AB2FB8B1344D0
:10228000FB83BB8B08339BB21BB25A4203F007039C
:1022900002F0070258BF53421BB2BB83FB8B7A6824
:1022A0001A44BB8B08211846FEF7B4F90346BA78E6
:1022B000D8B22D4913465B0013445B000B44013335
:1022C00002461A70B7F91C300833002B00DA0733C6
:1022D000DB109AB2FB8B1344FB83BB8B08339BB29E
:1022E0001BB25A4203F0070302F0070258BF5342E1
:1022F0001BB2BB83FB8B7A681A44BB8B0821184640
:10230000FEF788F90346BA78D8B2174913465B003E
:1023100013445B000B44023302461A70B7F91C30B9
:102320000833002B00DA0733DB109AB2FB8B13441F
:10233000FB83BB8B08339BB21BB25A4203F00703EB
:1023400002F0070258BF53421BB2BB83BB7818464A
:1023500007F0DAFA0346002B0AD0BB78034A0021C3
:10236000D15409E0F4280020B82800206427002078
:10237000BB78A44A0121D154FB8B7A681A44BB8BE9
:1023800008211846FEF746F90246BB78D1B29E4AAC
:102390005B01134403330A461A70B7F91C30083343
:1023A000002B00DA0733DB109AB2FB8B1344FB835C
:1023B000BB8B08339BB21BB25A4203F0070302F0F7
:1023C000070258BF53421BB2BB83FB8B7A681A4487
:1023D000BB8B10211846FEF71DF90246BB7891B25F
:1023E000894A5B01134412330A461A80B7F91C303C
:1023F0001033002B00DA0733DB109AB2FB8B134447
:10240000FB83BB8B10339BB21BB25A4203F0070312
:1024100002F0070258BF53421BB2BB83BB785B017B
:10242000794A1344181DFB8B7A6813440622194617
:1024300023F0B6FCB7F91C301033002B00DA073359
:10244000DB109AB2FB8B1344FB83BB8B10339BB224
:102450001BB25A4203F0070302F0070258BF53426F
:102460001BB2BB83B7F91C301033002B00DA0733E3
:10247000DB109AB2FB8B1344FB83BB8B10339BB2F4
:102480001BB25A4203F0070302F0070258BF53423F
:102490001BB2BB83B7F91C301033002B00DA0733B3
:1024A000DB109AB2FB8B1344FB83BB8B10339BB2C4
:1024B0001BB25A4203F0070302F0070258BF53420F
:1024C0001BB2BB83FB8B7A681A44BB8B1021184666
:1024D000FEF7A0F80246BB7891B24B4A5B01134469
:1024E00014330A461A80B7F91C301033002B00DA77
:1024F0000733DB109AB2FB8B1344FB83BB8B103387
:102500009BB21BB25A4203F0070302F0070258BF06
:1025100053421BB2BB83FB8B7A681A44BB8B1021DE
:102520001846FEF777F80246BB7891B2364A5B014F
:10253000134416330A461A80B7F91C301033002BA7
:1025400000DA0733DB109AB2FB8B1344FB83BB8B9F
:1025500010339BB21BB25A4203F0070302F007028A
:1025600058BF53421BB2BB83FB8B7A681A44BB8BA8
:1025700010211846FEF74EF80246BB7891B2224A67
:102580005B01134418330A461A80B7F91C30103324
:10259000002B00DA0733DB109AB2FB8B1344FB836A
:1025A000BB8B10339BB21BB25A4203F0070302F0FD
:1025B000070258BF53421BB2BB83FB8B7A681A4495
:1025C000BC78BB8B18211846FEF724F802460F4949
:1025D00023010B4408331A60BB78BA780B491B01FE
:1025E0000B44083319680A4813465B001344DB00A8
:1025F000034408331960B7F91C301833002B09DA8B
:10260000073307E06427002094290020F4280020E5
:10261000A42D0020DB109AB2FB8B1344FB83BB8BF1
:1026200018339BB21BB25A4203F0070302F00702B1
:1026300058BF53421BB2BB83FB8B7A681A44BB8BD7
:1026400008211846FDF7E6FF0246BB78D1B2B14A31
:102650001B0113440A461A70BA78BB78AD491201BF
:102660000A441178AB4A1B01134402330A461A701C
:10267000B7F91C300833002B00DA0733DB109AB2AD
:10268000FB8B1344FB83BB8B08339BB21BB25A42B8
:1026900003F0070302F0070258BF53421BB2BB838B
:1026A000FB8B7A681A44BB8B08211846FDF7B2FFF2
:1026B0000246BB78D1B2984A5B0113440A330A46FA
:1026C0001A70B7F91C300833002B00DA0733DB101F
:1026D0009AB2FB8B1344FB83BB8B08339BB21BB2B8
:1026E0005A4203F0070302F0070258BF53421BB2DD
:1026F000BB83FB8B7A681A44BB8B08211846FDF715
:1027000089FF0246BB78D1B2824A1B0113440333CE
:102710000A461A70B7F91C300833002B00DA073369
:10272000DB109AB2FB8B1344FB83BB8B08339BB249
:102730001BB25A4203F0070302F0070258BF53428C
:102740001BB2BB83BB78734A1B01134403331A7853
:10275000BB7872490B4493F8EB309A4215D070481D
:1027600023F0CAFCBB786D4A134493F8EB3019464A
:102770006C4823F025FCBB78664A1B0113440333E5
:102780001B781946684823F01BFCFB8B7A681A44B7
:10279000BB8B08211846FDF73DFF0246BB78D1B23E
:1027A0005D4A5B0113440B330A461A70B7F91C30BB
:1027B0000833002B00DA0733DB109AB2FB8B13448B
:1027C000FB83BB8B08339BB21BB25A4203F0070357
:1027D00002F0070258BF53421BB2BB83FB8B7A68DF
:1027E0001A44BB8B08211846FDF714FF0246BB783C
:1027F000D1B2494A5B0113440C330A461A70B7F947
:102800001C300833002B00DA0733DB109AB2FB8B45
:102810001344FB83BB8B08339BB21BB25A4203F0B9
:10282000070302F0070258BF53421BB2BB83BB78B9
:10283000394A5B0113440C331B78012B0CD0BB7855
:10284000354A5B0113440C331B781946374823F093
:10285000B7FB374823F050FCFB8B7A681A44BB8BDC
:1028600008211846FDF7D6FE0246BB78D1B22A4AA7
:102870005B0113440D330A461A70B7F91C30083354
:10288000002B00DA0733DB109AB2FB8B1344FB8377
:10289000BB8B08339BB21BB25A4203F0070302F012
:1028A000070258BF53421BB2BB83FB8B7A681A44A2
:1028B000BC78BB8B20211846FDF7ACFE02461649BA
:1028C00063010B441C331A60B7F91C302033002B12
:1028D00000DA0733DB109AB2FB8B1344FB83BB8B0C
:1028E00020339BB21BB25A4203F0070302F00702E7
:1028F00058BF53421BB2BB837A78BB781146184647
:1029000000F06CF8BA780B4913465B001344DB0007
:1029100012E000BFF42800209429002004050020C4
:10292000147E0208DC7D0208F07D0208307E020879
:102930005C7E0208A42D00200B4414333A691A600F
:10294000BA78234913465B001344DB000B4405337C
:1029500001221A70BA781E4913465B001344DB004B
:102960000B44BA781A70BA78194913465B001344BD
:10297000DB000B44013301221A7018220021154894
:1029800023F036FABA7813465B001344DB00104A92
:102990001344182219460F4823F002FA40F201208E
:1029A0000EF0DEFABA780A4913465B001344DB00E6
:1029B0000B44013300221A70BC7816F0EBFB03467F
:1029C000054A42F8243000E000BF2437BD4690BDE0
:1029D000A42D0020842F0020B824002090B597B0AB
:1029E00000AF03460A46FB711346BB710023FB6030
:1029F00007F1100338220021184623F0F9F90023CB
:102A00003B650023A7F84E300023A7F84C30B7F8F9
:102A10004E3007F10C021A44B7F84C00F423082199
:102A2000FDF784FEB7F94C300833002B00DA07338A
:102A3000DB109AB2B7F84E301344A7F84E30B7F80F
:102A40004C3008339BB21BB25A4203F0070302F02A
:102A5000070258BF53421BB2A7F84C30B7F84E30AC
:102A600007F10C021A44FB79774966339B000B444B
:102A70005B68B7F84C001021FDF758FEB7F94C30F1
:102A80001033002B00DA0733DB109AB2B7F84E3060
:102A90001344A7F84E30B7F84C3010339BB21BB23A
:102AA0005A4203F0070302F0070258BF53421BB219
:102AB000A7F84C30B7F84E3007F10C021A44FB79F6
:102AC000614970339B000B445B68B7F84C001021E0
:102AD000FDF72CFEB7F94C301033002B00DA07332A
:102AE000DB109AB2B7F84E301344A7F84E30B7F85F
:102AF0004C3010339BB21BB25A4203F0070302F072
:102B0000070258BF53421BB2A7F84C304F4B1B680B
:102B10009B0803F00103002B31D04C4B1B79FA7951
:102B20009A4237D1002387F84B3049481AF0F0FE1B
:102B30000246484BA3FB02139B09C82101FB03F388
:102B4000D31ADBB2013387F84B30434823F0D4FA71
:102B50000021424823F034FA97F84B301946404898
:102B600023F02EFAB7F84E3007F10C021A4497F80A
:102B70004B30B7F84C000821FDF7D8FD0AE0B7F854
:102B80004E3007F10C021A44B7F84C00002308211C
:102B9000FDF7CCFDB7F94C300833002B00DA0733D2
:102BA000DB109AB2B7F84E301344A7F84E30B7F89E
:102BB0004C3008339BB21BB25A4203F0070302F0B9
:102BC000070258BF53421BB2A7F84C301F4B1B687B
:102BD000DB0803F00103002B4CD01C4B1B79FA7966
:102BE0009A4265D1002387F84A3019481AF090FEBE
:102BF0000246184BA3FB02139B09C82101FB03F3F8
:102C0000D31A87F84A30174823F076FAFB79164A28
:102C10001B01134402331B781946144823F0D0F9E2
:102C200097F84A301946124823F0CAF9B7F84E30DF
:102C300007F10C021A4497F84A30B7F84C00082103
:102C4000FDF774FD34E000BF040500208C30002047
:102C500054BC00201F85EB51787E02089C7E020840
:102C6000BC7E0208DC7E0208F4280020007F0208F7
:102C7000207F0208B7F84E3007F10C02D118FB791B
:102C8000C4481A010244023212780132D4B2C14857
:102C90001A010244023220461070BE4A1B0113443E
:102CA00002331B78B7F84C000A460821FDF73EFDB9
:102CB000B7F94C300833002B00DA0733DB109AB237
:102CC000B7F84E301344A7F84E30B7F84C300833FD
:102CD0009BB21BB25A4203F0070302F0070258BF2F
:102CE00053421BB2A7F84C30B7F84E3007F10C0234
:102CF0001A44B7F84C0001230821FDF717FDB7F976
:102D00004C300833002B00DA0733DB109AB2B7F8E7
:102D10004E301344A7F84E30B7F84C3008339BB20E
:102D20001BB25A4203F0070302F0070258BF534296
:102D30001BB2A7F84C30FB79964A1B0113440633AB
:102D400005221A80B7F84E3007F10C021A44FB79BD
:102D500090491B010B4406331B88B7F84C00102127
:102D6000FDF7E4FCB7F94C301033002B00DA0733E1
:102D7000DB109AB2B7F84E301344A7F84E30B7F8CC
:102D80004C3010339BB21BB25A4203F0070302F0DF
:102D9000070258BF53421BB2A7F84C30B7F84E3069
:102DA00007F10C021A44B7F84C0017230821FDF76D
:102DB000BDFCB7F94C300833002B00DA0733DB10C9
:102DC0009AB2B7F84E301344A7F84E30B7F84C30EB
:102DD00008339BB21BB25A4203F0070302F007020A
:102DE00058BF53421BB2A7F84C30B7F84E3007F12A
:102DF0000C021A44B7F84C0001231021FDF796FC91
:102E0000B7F94C301033002B00DA0733DB109AB2DD
:102E1000B7F84E301344A7F84E30B7F84C301033A3
:102E20009BB21BB25A4203F0070302F0070258BFDD
:102E300053421BB2A7F84C30B7F84E3007F10C02E2
:102E40001A44B7F84C00544B2021FDF76FFCB7F93A
:102E50004C302033002B00DA0733DB109AB2B7F87E
:102E60004E301344A7F84E30B7F84C3020339BB2A5
:102E70001BB25A4203F0070302F0070258BF534245
:102E80001BB2A7F84C30B7F84E3007F10C021A44C9
:102E9000B7F84C0000231021FDF748FCB7F94C307F
:102EA0001033002B00DA0733DB109AB2B7F84E303C
:102EB0001344A7F84E30B7F84C3010339BB21BB216
:102EC0005A4203F0070302F0070258BF53421BB2F5
:102ED000A7F84C30B7F84E3007F10C021A44B7F897
:102EE0004C0000231021FDF721FCB7F94C301033C2
:102EF000002B00DA0733DB109AB2B7F84E301344D8
:102F0000A7F84E30B7F84C3010339BB21BB25A4280
:102F100003F0070302F0070258BF53421BB2A7F8A1
:102F20004C30B7F84E3007F10C021A44B7F84C0099
:102F300000231021FDF7FAFBB7F94C301033002BBA
:102F400000DA0733DB109AB2B7F84E301344A7F813
:102F50004E30B7F84C3010339BB21BB25A4203F0DC
:102F6000070302F0070258BF53421BB2A7F84C30C8
:102F7000B7F84E3007F10C021A44B7F84C000023A2
:102F80001021FDF7D3FBB7F94C301033002B05DAD5
:102F9000073303E0F4280020AF32E233DB109AB2AB
:102FA000B7F84E301344A7F84E30B7F84C30103312
:102FB0009BB21BB25A4203F0070302F0070258BF4C
:102FC00053421BB2A7F84C30FB79B24A1B011344A1
:102FD00008331B68B04A93420DD9FB79AD4A1B01F7
:102FE000134408331A68FB79013AAA491B010B44C0
:102FF0000C331A600CE0FB79A64A1B01134408331A
:103000001A68FB790132A3491B010B440C331A6087
:10301000B7F84E3007F10C021A44FB799D491B01A9
:103020000B440C331B68B7F84C001821FDF77EFBEE
:10303000FB79FA7997491B010B440C3319689748BF
:1030400013465B001344DB0003440C331960B7F9EB
:103050004C301833002B00DA0733DB109AB2B7F884
:103060004E301344A7F84E30B7F84C3018339BB2AB
:103070001BB25A4203F0070302F0070258BF534243
:103080001BB2A7F84C30FB79854AD25C0132D1B231
:10309000834AD154FB79824AD35CB32B04D8FB79A1
:1030A0007F4AD35C002B03D1FB797D4A0A21D1549E
:1030B000B7F84E3007F10C021A44FB797849CB5C23
:1030C000B7F84C000821FDF731FBB7F94C30083355
:1030D000002B00DA0733DB109AB2B7F84E301344F6
:1030E000A7F84E30B7F84C3008339BB21BB25A42A7
:1030F00003F0070302F0070258BF53421BB2A7F8C0
:103100004C30B7F84E3007F10C021A44B7F84C00B7
:1031100001230821FDF70AFBB7F94C300833002BD7
:1031200000DA0733DB109AB2B7F84E301344A7F831
:103130004E30B7F84C3008339BB21BB25A4203F002
:10314000070302F0070258BF53421BB2A7F84C30E6
:10315000B7F84E3007F10C021A44B7F84C000123BF
:103160000821FDF7E3FAB7F94C300833002B00DAF9
:103170000733DB109AB2B7F84E301344A7F84E303D
:10318000B7F84C3008339BB21BB25A4203F0070326
:1031900002F0070258BF53421BB2A7F84C30B7F8F1
:1031A0004E3007F10C021A44B7F84C0000230821F6
:1031B000FDF7BCFAB7F94C300833002B00DA0733BF
:1031C000DB109AB2B7F84E301344A7F84E30B7F878
:1031D0004C3008339BB21BB25A4203F0070302F093
:1031E000070258BF53421BB2A7F84C302D4B1B6847
:1031F0005B0903F00103002B60D02A4B1B79FA799D
:103200009A425BD10C2387F8573027481AF080FB8D
:103210000146264BA3FB0123DA0813465B019B1AE8
:103220009B001344CA1AD3B2013387F857302048A1
:1032300022F062FFFB79174A1B01134403331B780A
:1032400019461C4822F0BCFEFB79124A1B011344AC
:1032500003331B7897F857209A4208D1FB790D4A1F
:103260001B01134403331B78023B87F8573097F850
:1032700057301946104822F0A3FEB7F84E3007F138
:103280000C021A4497F85730B7F84C000821FDF7A4
:103290004DFA22E0F4280020EFFFFF00A42D0020CB
:1032A0000C0300208C30002054BC0020D34D621051
:1032B000407F0208707F02088C7F0208B7F84E300A
:1032C00007F10C021A44FB794E490B4493F8EB309A
:1032D000B7F84C000821FDF729FAB7F94C3008334C
:1032E000002B00DA0733DB109AB2B7F84E301344E4
:1032F000A7F84E30B7F84C3008339BB21BB25A4295
:1033000003F0070302F0070258BF53421BB2A7F8AD
:103310004C30B7F84E3007F10C021A44B7F84C00A5
:1033200000230821FDF702FAB7F94C300833002BCF
:1033300000DA0733DB109AB2B7F84E301344A7F81F
:103340004E30B7F84C3008339BB21BB25A4203F0F0
:10335000070302F0070258BF53421BB2A7F84C30D4
:10336000B7F84E2007F10C031146184612F086F903
:103370003865B7F84E3007F10C021A44B7F84C0024
:103380003B6D2021FDF7D2F9B7F94C302033002BEB
:1033900000DA0733DB109AB2B7F84E301344A7F8BF
:1033A0004E30B7F84C3020339BB21BB25A4203F078
:1033B000070302F0070258BF53421BB2A7F84C3074
:1033C000114B1B685B0A03F00103002B0BD00E4B63
:1033D0001B79FA799A4206D10C4822F08DFE0C48EE
:1033E00022F0EEFD09E0B7F84E30D9B2FA7907F1D4
:1033F0000C03184604F038FE00BF00BF5C37BD4622
:1034000090BD00BF040500208C300020A87F02087A
:10341000C07F020890B5ABB000AF78600846114697
:103420001A460346FB700B46BB7013467B700023A5
:10343000A7F8A6300023C7F894300023C7F8A030BF
:1034400015F0A8FEC7F89000002387F89F300023EE
:1034500087F89E30002387F89D300023FB6007F13A
:1034600010037C220021184622F0C2FC0023A7F89A
:103470009A300023A7F89830A949AA48FCF7E0FE43
:103480000346002B00F04981A74B1B6803F00103A2
:10349000002B31D0A44B1B79BA789A422CD1162339
:1034A000C7F88C30A1481AF033FA0246A04BA3FBB0
:1034B0000213D90D0B461B045B1A1B02D31AC7F863
:1034C0008C309C4822F018FEBB789B4A1B011344A9
:1034D00008331B681946994822F072FDD7F88C1002
:1034E000974822F06DFD07F10C02D7F88C301821B7
:1034F0000020FDF71BF90BE0BB788F4A1B0113443A
:1035000008331B6807F10C0218210020FDF70EF9A3
:10351000002387F89E3010E097F89E307A681A44AE
:1035200097F89E3003331278A8333B4403F89C2C61
:1035300097F89E30013387F89E3097F89E20FB78ED
:10354000053B9A42E8DB97F89E309BB203339AB270
:1035500007F10C031146184612F090F8C7F89400D2
:10356000FB78053B7A681A44B7F898302021184652
:10357000FDF750F8C7F8A000D7F89420D7F8A0308E
:103580009A4200F0F5807B6805331A460821002036
:10359000FDF740F80346002B0AD07B6805331A4636
:1035A00008210020FDF736F80346012B40F09F80EC
:1035B000644822F0A1FD07F10C0380220021184687
:1035C00022F016FCBB785C4A1B01134408331B68CD
:1035D000013307F10C0218210020FDF7A7F80023A2
:1035E00087F89E3010E097F89E307A681A4497F872
:1035F0009E3003331278A8333B4403F89C2C97F891
:103600009E30013387F89E3097F89E20FB78053B6B
:103610009A42E8DB97F89E309BB203339AB207F1E7
:103620000C031146184612F029F8C7F89400FB78ED
:10363000053B7A681A44B7F8983020211846FCF701
:10364000E9FFC7F8A000D7F89420D7F8A0309A4235
:1036500037D13D4822F050FDD7F8A0103B4822F06A
:10366000AFFCBB78344A1B01134408331B6819466E
:10367000374822F0A5FCBB782F491A010A440832CA
:10368000126801322C491B010B4408331A60BB78C5
:10369000294A1B01134408331B6819462D4822F0A0
:1036A0008FFCBB78BA7824491B010B440833196896
:1036B000294813465B001344DB00034408331960B8
:1036C00057E0BB78254A66339B0013445B68194674
:1036D000234822F075FCD7F8A010224822F070FC95
:1036E000D7F89410204822F06BFC00F07ABFBB782A
:1036F0001A4A66339B0013445B6819461B4822F044
:103700005FFCD7F8A010174822F05AFCD7F89410A5
:10371000154822F055FC00F064BF00BF29E000BF4F
:10372000D07A0208050500208C30002054BC00200F
:1037300001800080D47F0208F4280020F47F020872
:103740001C80020844800208608002087880020819
:1037500098800208B8800208A42D002004050020EB
:10376000E4800208147D0208247D02080481020816
:1037700000BFBB78C449D7F8902041F82320BB781C
:10378000C249D7F8902041F82320BB78C04A0121D4
:10379000D154BA7813465B0113445B00BD4A13440D
:1037A00040220021184622F023FBBA7813465B0121
:1037B00013445B00B74A1344FA787968184622F03C
:1037C000EFFABA78FB7898B2B24913465B0113441A
:1037D0005B000B44403302461A80B7F99830083337
:1037E000002B00DA0733DB109AB2B7F89A30134493
:1037F000A7F89A30B7F8983008339BB21BB25A42F8
:1038000003F0070302F0070258BF53421BB2A7F8A8
:103810009830B7F89A307A681A44B7F8983010217F
:103820001846FCF7F7FE0346BA7898B29A49134651
:103830005B0013441B010B44283302461A80BA78FC
:10384000954913465B0013441B010B4428331B8826
:103850001946924822F0B4FBB7F998301033002B88
:1038600000DA0733DB109AB2B7F89A301344A7F89E
:103870009A30B7F8983010339BB21BB25A4203F01B
:10388000070302F0070258BF53421BB2A7F8983053
:10389000B7F89A307A681A44B7F898301021184669
:1038A000FCF7B8FE0346BA7898B27B4913465B0032
:1038B00013441B010B44263302461A80BA7876491A
:1038C00013465B0013441B010B4426331B88194627
:1038D000734822F075FBB7F998301033002B00DAEB
:1038E0000733DB109AB2B7F89A301344A7F89A302E
:1038F000B7F8983010339BB21BB25A4203F007035B
:1039000002F0070258BF53421BB2A7F89830B7F82D
:103910009A307A681A44B7F8983008211846FCF7AC
:1039200079FE0246BB78D1B25E4A1B0113440233D2
:103930000A461A70B7F998300833002B00DA0733BB
:10394000DB109AB2B7F89A301344A7F89A30B7F858
:10395000983008339BB21BB25A4203F0070302F0BF
:10396000070258BF53421BB2A7F89830B7F89A30F5
:103970007A681A44B7F8983008211846FCF74AFECE
:103980000246BB78D1B2474A1B01134401330A46B1
:103990001A70BB78434A1B01134401331B78002B78
:1039A00038D1BB78404A66339B0013445B681946A4
:1039B0003E4822F005FBBB783A4A1B0113440C3306
:1039C0001B6819463A4822F0FBFABB7835491A01C0
:1039D0000A440C321268013232491B010B440C3389
:1039E0001A60BB782F4A1B0113440C331B6819461D
:1039F000304822F0E5FABB78BA782A491B010B441B
:103A00000C3319682C4813465B001344DB00034455
:103A10000C331960B7F998300833002B00DA0733FC
:103A2000DB109AB2B7F89A301344A7F89A30B7F877
:103A3000983008339BB21BB25A4203F0070302F0DE
:103A4000070258BF53421BB2A7F89830B7F89A3014
:103A50007A681A44B7F8983008211846FCF7DAFD5E
:103A60000346BA78D8B20C4913465B0013441B01D5
:103A70000B44023302461A70B7F998300833002B12
:103A80001CDA07331AE000BF302600205826002039
:103A9000A426002094300020D42A0020047E0208AE
:103AA0000C7E0208F428002004050020188102087A
:103AB0005C8102086C810208A42D0020DB109AB200
:103AC000B7F89A301344A7F89A30B7F8983008330B
:103AD0009BB21BB25A4203F0070302F0070258BF21
:103AE00053421BB2A7F89830B7F89A307A681A4454
:103AF000B7F8983010211846FCF78CFD0246BB78C9
:103B000091B2BD4A1B01134404330A461A80BB49D3
:103B1000BB48FCF795FB0346002B0FD1BB78B64A98
:103B20001B01134404331A88BB7842F0080291B297
:103B3000B14A1B01134404330A461A80B7F998307E
:103B40001033002B00DA0733DB109AB2B7F89A3043
:103B50001344A7F89A30B7F8983010339BB21BB2D1
:103B60005A4203F0070302F0070258BF53421BB248
:103B7000A7F89830BB78A04A1B01134404331B8874
:103B800003F02003002B00F04581B7F89A307A68E3
:103B90001A44B7F8983008211846FCF73BFD034655
:103BA000BA78D8B2974913465B0013445B000B44C4
:103BB000053302461A70B7F998300833002B00DA43
:103BC0000733DB109AB2B7F89A301344A7F89A304B
:103BD000B7F8983008339BB21BB25A4203F0070380
:103BE00002F0070258BF53421BB2A7F89830B7F84B
:103BF0009A307A681A44B7F8983008211846FCF7CA
:103C000009FD0346BA78D8B27E4913465B001344D7
:103C10005B000B44043302461A70B7F9983008333E
:103C2000002B00DA0733DB109AB2B7F89A3013444E
:103C3000A7F89A30B7F8983008339BB21BB25A42B3
:103C400003F0070302F0070258BF53421BB2A7F864
:103C50009830B7F89A307A681A44B7F89830082143
:103C60001846FCF7D7FC0346BA78D8B26549134624
:103C70005B0013445B000B44033302461A70B7F930
:103C800098300833002B00DA0733DB109AB2B7F80C
:103C90009A301344A7F89A30B7F8983008339BB29B
:103CA0001BB25A4203F0070302F0070258BF534207
:103CB0001BB2A7F89830B7F89A307A681A44B7F868
:103CC000983008211846FCF7A5FC0346BA78D8B20C
:103CD0004C4913465B0013445B000B4402461A70C8
:103CE000B7F998300833002B00DA0733DB109AB2AB
:103CF000B7F89A301344A7F89A30B7F898300833D9
:103D00009BB21BB25A4203F0070302F0070258BFEE
:103D100053421BB2A7F89830B7F89A307A681A4421
:103D2000B7F8983008211846FCF774FC0346BA78B7
:103D3000D8B2344913465B0013445B000B44013393
:103D400002461A70B7F998300833002B00DA0733AF
:103D5000DB109AB2B7F89A301344A7F89A30B7F844
:103D6000983008339BB21BB25A4203F0070302F0AB
:103D7000070258BF53421BB2A7F89830B7F89A30E1
:103D80007A681A44B7F8983008211846FCF742FCC4
:103D90000346BA78D8B21B4913465B0013445B0054
:103DA0000B44023302461A70B7F998300833002BDF
:103DB00000DA0733DB109AB2B7F89A301344A7F849
:103DC0009A30B7F8983008339BB21BB25A4203F0CE
:103DD000070302F0070258BF53421BB2A7F89830FE
:103DE000BB78184605F090FD0346002B0ED0BB783B
:103DF000054A0021D1540DE0F4280020D07A0208B1
:103E000005050020B828002064270020BB78914ACF
:103E10000121D154BB78904A1B01134404331B8801
:103E200003F00803002B02D0012387F89D30B7F878
:103E30009A307A681A44B7F8983008211846FCF787
:103E4000E9FB0346BA78D8B2844913465B001344B1
:103E50001B010B44033302461A70B7F9983008333C
:103E6000002B00DA0733DB109AB2B7F89A3013440C
:103E7000A7F89A30B7F8983008339BB21BB25A4271
:103E800003F0070302F0070258BF53421BB2A7F822
:103E90009830BA78714913465B0013441B010B44F8
:103EA00003331B7819466E4822F08AF8B7F89A3027
:103EB0007A681A44B7F8983008211846FCF7AAFB2C
:103EC0000346BA78D8B2654913465B0013441B0118
:103ED0000B44043302461A70B7F998300833002BAC
:103EE00000DA0733DB109AB2B7F89A301344A7F818
:103EF0009A30B7F8983008339BB21BB25A4203F09D
:103F0000070302F0070258BF53421BB2A7F89830CC
:103F1000BA78524913465B0013441B010B44033328
:103F20001B7803F0070387F89F3097F89F30002B2A
:103F30000ED0BA78494913465B0013441B010B4469
:103F400003331B78DB08DBB2013387F89F300BE0CB
:103F5000BA78424913465B0013441B010B440333F8
:103F60001B78DB0887F89F300023A7F8A6304CE0C9
:103F7000B7F89A307A681A44B7F89830082118468A
:103F8000FCF748FB0346BA78B7F8A610DCB2334812
:103F900013465B0013441B0103440B4405332246C4
:103FA0001A70B7F8A600BA78B7F8A6102B4C1346CB
:103FB0005B0013441B0123440B4405331B781A4652
:103FC0000146284821F0FCFFB7F998300833002B50
:103FD00000DA0733DB109AB2B7F89A301344A7F827
:103FE0009A30B7F8983008339BB21BB25A4203F0AC
:103FF000070302F0070258BF53421BB2A7F89830DC
:10400000B7F8A6300133A7F8A63097F89F309BB2D7
:10401000B7F8A6209A42ABD30A2021F0E9FFBB787B
:10402000114A134493F82D30022B0ED1BA780B4964
:1040300013465B0013441B010B4405331B7803F04C
:1040400001031946094821F0BBFF0023A7F8A63059
:1040500048E000BF64270020F4280020D42A002074
:104060007C810208848102080405002094810208F2
:10407000B7F89A307A681A44B7F898300821184689
:10408000FCF7C8FA0346BA78B7F8A610DCB26B485A
:1040900013465B0013441B0103440B4415332246B3
:1040A0001A70B7F998300833002B00DA0733DB10A9
:1040B0009AB2B7F89A301344A7F89A30B7F8983004
:1040C00008339BB21BB25A4203F0070302F0070207
:1040D00058BF53421BB2A7F89830B7F8A630013347
:1040E000A7F8A630BA78554913465B0013441B0164
:1040F0000B4404331B789BB2B7F8A6209A42B7D37F
:104100007A78BB781146184603F00EFCBB784C4A0F
:104110000121D154BB784A4A02339B001344D7F89B
:1041200090205A60BA78474913465B001344DB007D
:104130000B4404331B78012B16D146220021424840
:1041400021F056FEBB789AB23F4B1A80FB789AB2A8
:104150003D4B9A80FB781A4679683C4821F020FE56
:1041600040F203200CF0FCFEBB78394A134493F86C
:104170002D30022B28D1BA78304913465B00134406
:104180001B010B4405331B7803F00103002B1BD1EB
:10419000304821F0B1FF002387F89D30BB782E4ACC
:1041A0000121D154BB782D4A0021D154BA7813464D
:1041B0005B0013441B01214A1344053310220021E4
:1041C000184621F015FE5DE0BB78214A134493F8B0
:1041D0002D30022B56D1BA78184913465B00134490
:1041E0001B010B4405331B7803F00103002B49D05E
:1041F00097F89D30012B45D1BB78174AD35C012B32
:1042000040D1BB78154AD25C0132D1B2134AD154A5
:10421000BB78124AD35C1946114821F0D1FEBB7815
:104220000E4AD35C032B1DD9BB780B4A0021D15415
:10423000BB780A4A0421D15424E000BFD42A0020CC
:10424000AC330020A42D0020B42F0020BA2F002072
:1042500004050020AC8102083825002044250020F8
:10426000BC810208002387F89D30BA7813465B00B2
:1042700013441B01B14A1344053310220021184690
:1042800021F0B6FDBA7813469B0013449B00AC4A5C
:104290001344013310220021184621F0A9FDBA78F9
:1042A00013469B0013449B00A54A1344581CBA783C
:1042B00013465B0013441B01A04A1344053397F8CF
:1042C0009F20194621F06CFDBA7813469B001344D9
:1042D0009B009B4A1344013397F89F2012B2BC788D
:1042E0001946002011F010F903461946944A234656
:1042F0009B0023449B00134412330A461A80BA7869
:104300008F4913469B0013449B000B44113397F8CD
:104310009F201A70BA788A4913469B0013449B0069
:104320000B44BA781A7097F89D30012B76D1BA7881
:1043300013469B0013449B00824A1344013310220E
:104340000021184621F054FDBA7813469B0013440F
:104350009B007C4A9818BA7813469B0013449B0034
:10436000774A13441422194621F01AFDBB78764986
:10437000D7F8902041F82320BB78744A32F8131004
:10438000BA78704813469B0013449B0003441233D1
:104390001B88994242D0BA78B9786A4813469B0084
:1043A00013449B00034412331A88684B23F81120EE
:1043B00014220021664821F01BFDBA7813469B00A9
:1043C00013449B005F4A134414221946604821F0AD
:1043D000E7FC40F207200CF0C3FDBB785D4A32F8E1
:1043E0001330002B1AD1BB781B015B4A1344981C75
:1043F000BA7813469B0013449B00524A134401337E
:104400001022194621F0CCFC06F07CF940F219107C
:104410000CF0A6FD514AD7F890301360B978BA78FD
:1044200048480B469B000B449B00034412331888FA
:104430004B4913465B001344DB000B440633024632
:104440001A80BA78464913465B001344DB000B44DC
:104450001433D7F8A0201A60BA78414913465B009C
:104460001344DB000B44053302221A70BA783C492E
:1044700013465B001344DB000B44BA781A70BA7819
:10448000374913465B001344DB000B440133012220
:104490001A70BA78324913465B001344DB000B44B0
:1044A000023397F89D201A70182200212D4821F020
:1044B0009FFCBA7813465B001344DB00284A134480
:1044C00018221946274821F06BFC40F201200CF01D
:1044D00047FDBA78224913465B001344DB000B44C6
:1044E000013300221A70BB781F49D7F8902041F899
:1044F000232097F89D30012B3ED1BB781B49D7F87C
:10450000902041F82320BA78194913465B001344E0
:104510009B000B440433D7F890201A60BA781449F2
:1045200013465B0013449B000B44013301221A70B5
:10453000BB78104A0121D1544EE000BFD42A00209C
:10454000D034002098350020642500208C250020E0
:10455000283700205025002070270020E424002068
:10456000A42D0020842F0020B8240020A0250020A6
:10457000E0330020F0250020BB781B4A0021D154F5
:10458000BA781A4913465B0013449B000B44083366
:10459000D7F890201A60BA78144913465B00134488
:1045A0009B000B44013300221A70BA7813469B001B
:1045B00013449B000E4A1344013310220021184675
:1045C00021F016FCBA780A4913469B0013449B005D
:1045D0000B44123300221A804FF48071054817F003
:1045E000CEF9AC37BD4690BDF0250020E033002069
:1045F00098350020001C024090B5A5B000AF0346DE
:104600000A46FB711346BB710023BB6407F14C03E0
:1046100038220021184621F0EBFB0023FB6007F154
:10462000100338220021184621F0E2FB002387F80E
:104630008F300023A7F88C300023A7F88A3007F1C9
:1046400048033C220021184621F0D2FBB7F88C30F9
:1046500007F148021A44B7F88A00F4230821FCF74E
:1046600065F8B7F98A300833002B00DA0733DB101E
:104670009AB2B7F88C301344A7F88C30B7F88A3068
:1046800008339BB21BB25A4203F0070302F0070241
:1046900058BF53421BB2A7F88A30B7F88C3007F1E5
:1046A00048021A44FB79C64966339B000B445B6899
:1046B000B7F88A001021FCF739F8B7F98A301033BF
:1046C000002B00DA0733DB109AB2B7F88C301344B2
:1046D000A7F88C30B7F88A3010339BB21BB25A421D
:1046E00003F0070302F0070258BF53421BB2A7F8BA
:1046F0008A30B7F88C3007F148021A44FB79B04988
:1047000070339B000B445B68B7F88A001021FCF7FC
:104710000DF8B7F98A301033002B00DA0733DB10BD
:104720009AB2B7F88C301344A7F88C30B7F88A30B7
:1047300010339BB21BB25A4203F0070302F0070288
:1047400058BF53421BB2A7F88A309E4B1B689B0888
:1047500003F00103002B35D09A4B1B79FA799A426A
:1047600030D1002387F88930974819F0D1F80246F4
:10477000964BA3FB02139B09C82101FB03F3D31A39
:1047800087F88930924821F0B7FCFB79914A1B01E8
:10479000134401331B7819468F4821F011FC97F818
:1047A000893019468D4821F00BFCB7F88C3007F1A1
:1047B00048021A4497F88930B7F88A000821FBF7B5
:1047C000B5FF0FE0B7F88C3007F148021A44FB79C7
:1047D00080491B010B4401331B78B7F88A0008217C
:1047E000FBF7A4FFB7F98A300833002B00DA073350
:1047F000DB109AB2B7F88C301344A7F88C30B7F8B6
:104800008A3008339BB21BB25A4203F0070302F00E
:10481000070258BF53421BB2A7F88A30694B1B6886
:10482000DB0803F00103002B35D0664B1B79FA79C6
:104830009A4230D1002387F88830634819F068F82D
:104840000246624BA3FB02139B09C82101FB03F341
:10485000D31A87F88830624821F04EFCFB795D4A14
:104860001B01134402331B7819465E4821F0A8FB54
:1048700097F8883019465C4821F0A2FBB7F88C30D5
:1048800007F148021A4497F88830B7F88A000821DF
:10489000FBF74CFF0FE0B7F88C3007F148021A44E1
:1048A000FB794C491B010B4402331B78B7F88A0093
:1048B0000821FBF73BFFB7F98A300833002B00DAF9
:1048C0000733DB109AB2B7F88C301344A7F88C305A
:1048D000B7F88A3008339BB21BB25A4203F0070381
:1048E00002F0070258BF53421BB2A7F88A30B7F84C
:1048F0008C3007F148021A44B7F88A0002230821D5
:10490000FBF714FFB7F98A300833002B00DA0733BE
:10491000DB109AB2B7F88C301344A7F88C30B7F894
:104920008A3008339BB21BB25A4203F0070302F0ED
:10493000070258BF53421BB2A7F88A30FB792B4AB3
:10494000D35C012B5AD108F0D1F8FA7913465B00F9
:1049500013445B00264A1344264A11681960928862
:104960009A80254821F0C8FBFB79204A0021D154C8
:10497000B7F88C3007F148021A44B7F88A00682368
:104980001021FBF7D3FEB7F98A301033002B00DA81
:104990000733DB109AB2B7F88C301344A7F88C3089
:1049A000B7F88A3010339BB21BB25A4203F00703A8
:1049B00002F0070258BF53421BB2A7F88A3044E006
:1049C000040500208C30002054BC00201F85EB51D2
:1049D000D0810208F4280020F48102081482020821
:1049E000DC7E0208007F0208207F02086427002086
:1049F000B8280020CC3F002034820208B7F88C3061
:104A000007F148021A44B7F88A0028231021FBF75F
:104A10008DFEB7F98A301033002B00DA0733DB1034
:104A20009AB2B7F88C301344A7F88C30B7F88A30B4
:104A300010339BB21BB25A4203F0070302F0070285
:104A400058BF53421BB2A7F88A30B7F88C3007F131
:104A50004802D118FA79CD4813465B0013445B0035
:104A6000034405331B78B7F88A000A460821FBF790
:104A70005DFEB7F98A300833002B00DA0733DB100C
:104A80009AB2B7F88C301344A7F88C30B7F88A3054
:104A900008339BB21BB25A4203F0070302F007022D
:104AA00058BF53421BB2A7F88A30B7F88C3007F1D1
:104AB0004802D118FA79B54813465B0013445B00ED
:104AC000034404331B78B7F88A000A460821FBF731
:104AD0002DFEB7F98A300833002B00DA0733DB10DC
:104AE0009AB2B7F88C301344A7F88C30B7F88A30F4
:104AF00008339BB21BB25A4203F0070302F00702CD
:104B000058BF53421BB2A7F88A30B7F88C3007F170
:104B10004802D118FA799D4813465B0013445B00A4
:104B2000034403331B78B7F88A000A460821FBF7D1
:104B3000FDFDB7F98A300833002B00DA0733DB10AC
:104B40009AB2B7F88C301344A7F88C30B7F88A3093
:104B500008339BB21BB25A4203F0070302F007026C
:104B600058BF53421BB2A7F88A30B7F88C3007F110
:104B70004802D118FA79854813465B0013445B005C
:104B800003441B78B7F88A000A460821FBF7CEFDDC
:104B9000B7F98A300833002B00DA0733DB109AB2FA
:104BA000B7F88C301344A7F88C30B7F88A30083344
:104BB0009BB21BB25A4203F0070302F0070258BF30
:104BC00053421BB2A7F88A30B7F88C3007F148027D
:104BD000D118FA796D4813465B0013445B00034417
:104BE00001331B78B7F88A000A460821FBF79EFDBF
:104BF000B7F98A300833002B00DA0733DB109AB29A
:104C0000B7F88C301344A7F88C30B7F88A300833E3
:104C10009BB21BB25A4203F0070302F0070258BFCF
:104C200053421BB2A7F88A30B7F88C3007F148021C
:104C3000D118FA79554813465B0013445B000344CE
:104C400002331B78B7F88A000A460821FBF76EFD8D
:104C5000B7F98A300833002B00DA0733DB109AB239
:104C6000B7F88C301344A7F88C30B7F88A30083383
:104C70009BB21BB25A4203F0070302F0070258BF6F
:104C800053421BB2A7F88A30B7F88C3007F14802BC
:104C90001A44B7F88A0001230821FBF747FDB7F94A
:104CA0008A300833002B00DA0733DB109AB2B7F8EA
:104CB0008C301344A7F88C30B7F88A3008339BB295
:104CC0001BB25A4203F0070302F0070258BF5342D7
:104CD0001BB2A7F88A30B7F88C3007F148021A44A3
:104CE000B7F88A0000230821FBF720FDB7F98A30C6
:104CF0000833002B00DA0733DB109AB2B7F88C3098
:104D00001344A7F88C30B7F88A3008339BB21BB233
:104D10005A4203F0070302F0070258BF53421BB286
:104D2000A7F88A30B7F88C3007F148021A44B7F870
:104D30008A0001230821FBF7F9FCB7F98A30083310
:104D4000002B00DA0733DB109AB2B7F88C3013442B
:104D5000A7F88C30B7F88A3008339BB21BB25A429E
:104D600003F0070302F0070258BF53421BB2A7F833
:104D70008A30074B1B685B0803F00103002B2CD023
:104D8000034B1B79FA799A4227D103E0B828002017
:104D90008C3000200023C7F884304E4818F0B8FD4E
:104DA000C7F884004C4821F0A7F9FB794B4A1B0156
:104DB00013440C331B681946494821F001F9D7F810
:104DC0008410484821F0FCF807F10C02D7F8843031
:104DD00018210020FBF7AAFC0BE0FB793F4A1B01DE
:104DE00013440C331B6807F10C0218210020FBF759
:104DF0009DFC002387F88F3011E097F88F2097F8FB
:104E00008F30033390323A4412F8482C90333B44AD
:104E100003F8842C97F88F30013387F88F3097F898
:104E20008F309BB2B7F88C209A42E6D8B7F88C3016
:104E300007F14802D41897F88F309BB203339AB227
:104E400007F10C031146184610F018FC0346B7F89A
:104E50008A0022462021FBF769FCB7F98A3020330B
:104E6000002B00DA0733DB109AB2B7F88C3013440A
:104E7000A7F88C30B7F88A3020339BB21BB25A4265
:104E800003F0070302F0070258BF53421BB2A7F812
:104E90008A30154B1B685B0A03F00103002B0BD013
:104EA000114B1B79FA799A4206D1104821F024F966
:104EB0000F4821F085F809E0B7F88C30D9B2FA79BB
:104EC00007F14803184603F0CFF800BF00BF94373E
:104ED000BD4690BD54BC00204C820208F42800203E
:104EE00070820208948202088C300020A87F020899
:104EF000C07F020880B5C0B000AF78600846114698
:104F00001A460346FB700B46BB7013467B700023AA
:104F1000A7F8FE300023C7F8F0300023C7F8EC30C4
:104F200014F038F9C7F8E800002387F8FD300023B3
:104F300087F8FC30002387F8FB3000237B6607F1FD
:104F400068037C220021184620F052FF0023A7F8B6
:104F5000F8300023A7F8F630FB7899B2BA78C34846
:104F600013465B0113445B00034440331B889942A2
:104F70001AD1BA7813465B0113445B00BB4A134451
:104F8000FA781946786820F0FBFE0346002B0BD117
:104F9000BB78B74A66339B0013445B681946B54833
:104FA00021F00EF800F0A3BDFB78053B7A681A44A7
:104FB000B7F8F63020211846FBF72CFBC7F8EC00B9
:104FC000AD4B1B6803F00103002B34D0AA4B1B79B7
:104FD000BA789A422FD11623C7F8E430A74818F0C0
:104FE00097FC0246A64BA3FB0213D90D0B461B04EC
:104FF0005B1A1B02D31AC7F8E430A24821F07CF8F0
:10500000BA78A14913465B001344DB000B44083314
:105010001B6819469D4820F0D3FFD7F8E4109C4840
:1050200020F0CEFF07F16402D7F8E4301821002009
:10503000FBF77CFB0EE0BA78934913465B00134400
:10504000DB000B4408331B6807F1640218210020C1
:10505000FBF76CFB002387F8FC3011E097F8FC307D
:105060007A681A4497F8FC300333127803F580739A
:105070003B4403F89C2C97F8FC30013387F8FC3054
:1050800097F8FC20FB78053B9A42E7DB97F8FC3069
:105090009BB203339AB207F164031146184610F02D
:1050A000EDFAC7F8F000D7F8F020D7F8EC309A42C4
:1050B00000F004817B6805331A4608210020FBF7C5
:1050C000A9FA0346002B40F0BA80724821F014F888
:1050D00007F1640380220021184620F089FEBA7887
:1050E000694913465B001344DB000B4408331B681B
:1050F000013307F1640218210020FBF717FB00239E
:1051000087F8FC3011E097F8FC307A681A4497F879
:10511000FC300333127803F580733B4403F89C2C76
:1051200097F8FC30013387F8FC3097F8FC20FB78C7
:10513000053B9A42E7DB97F8FC309BB203339AB207
:1051400007F164031146184610F098FAC7F8F0000A
:10515000FB78053B7A681A44B7F8F63020211846E8
:10516000FBF758FAC7F8EC00D7F8F020D7F8EC3086
:105170009A424ED1484820F0BFFFD7F8EC1047487C
:1051800020F01EFFBA78404913465B001344DB0051
:105190000B4408331B681946414820F011FFBA78C8
:1051A000394913465B001344DB000B4408331B688A
:1051B000591C354813465B001344DB000344083395
:1051C0001960B978304813465B001344DB00034490
:1051D00008331A6833480B01034408331A60BB785C
:1051E000304A1B01134408331B6819462E4820F02F
:1051F000E7FEBB78BA782B491B010B4408331968CA
:105200002A4813465B001344DB000344083319604B
:1052100055E0BB78164A66339B0013445B68194619
:10522000234820F0CDFED7F8EC10224820F0C8FE2D
:10523000D7F8F010204820F0C3FE00F058BCBB782F
:105240000B4A66339B0013445B681946184820F0EC
:10525000B7FED7F8EC10174820F0B2FED7F8F010E0
:10526000154820F0ADFE00F042BC00BF9430002095
:1052700004050020B88202088C30002054BC0020B5
:1052800001800080D47F0208942E0020F47F020861
:105290001C80020844800208FC8202087880020810
:1052A00020830208F4280020B8800208A42D0020E2
:1052B0003C830208147D0208247D020800BFB7F970
:1052C000F6300833002B00DA0733DB109AB2B7F858
:1052D000F8301344A7F8F830B7F8F63008339BB22B
:1052E0001BB25A4203F0070302F0070258BF5342B1
:1052F0001BB2A7F8F630B7F8F8307A681A44B7F856
:10530000F63010211846FBF785F903469BB2A7F843
:105310005C30B7F85C301946C64820F051FEB7F94A
:10532000F6301033002B00DA0733DB109AB2B7F8EF
:10533000F8301344A7F8F830B7F8F63010339BB2C2
:105340001BB25A4203F0070302F0070258BF534250
:105350001BB2A7F8F630B7F8F8307A681A44B7F8F5
:10536000F63010211846FBF755F903469BB2A7F813
:105370005A30B7F85A301946AF4820F021FEB7F935
:10538000F6301033002B00DA0733DB109AB2B7F88F
:10539000F8301344A7F8F830B7F8F63010339BB262
:1053A0001BB25A4203F0070302F0070258BF5342F0
:1053B0001BB2A7F8F630B7F8F8307A681A44B7F895
:1053C000F63008211846FBF725F90346DBB287F8CB
:1053D0002530B7F9F6300833002B00DA0733DB103D
:1053E0009AB2B7F8F8301344A7F8F830B7F8F630A7
:1053F00008339BB21BB25A4203F0070302F00702C4
:1054000058BF53421BB2A7F8F630B7F8F8307A68A5
:105410001A44B7F8F63008211846FBF7FBF80346A4
:10542000DBB287F82630B7F9F6300833002B00DA04
:105430000733DB109AB2B7F8F8301344A7F8F83006
:10544000B7F8F63008339BB21BB25A4203F0070399
:1054500002F0070258BF53421BB2A7F8F630B7F864
:10546000F8307A681A44B7F8F63008211846FBF786
:10547000D1F80346DBB287F83630B7F9F630083397
:10548000002B00DA0733DB109AB2B7F8F830134478
:10549000A7F8F830B7F8F63008339BB21BB25A427F
:1054A00003F0070302F0070258BF53421BB2A7F8EC
:1054B000F630B7F8F8307A681A44B7F8F6301021A9
:1054C0001846FBF7A7F803469BB23B85B7F9F630C1
:1054D0001033002B00DA0733DB109AB2B7F8F8303C
:1054E0001344A7F8F830B7F8F63010339BB21BB26C
:1054F0005A4203F0070302F0070258BF53421BB29F
:10550000A7F8F6303B8D03F02003002B00F0FE805F
:10551000B7F8F8307A681A44B7F8F6300821184618
:10552000FBF778F80346DBB287F82130B7F9F6309D
:105530000833002B00DA0733DB109AB2B7F8F830E3
:105540001344A7F8F830B7F8F63008339BB21BB213
:105550005A4203F0070302F0070258BF53421BB23E
:10556000A7F8F630B7F8F8307A681A44B7F8F6308A
:1055700008211846FBF74EF80346DBB287F82030C7
:10558000B7F9F6300833002B00DA0733DB109AB294
:10559000B7F8F8301344A7F8F830B7F8F630083306
:1055A0009BB21BB25A4203F0070302F0070258BF36
:1055B00053421BB2A7F8F630B7F8F8307A681A44AD
:1055C000B7F8F63008211846FBF724F80346DBB29B
:1055D000FB77B7F9F6300833002B00DA0733DB101E
:1055E0009AB2B7F8F8301344A7F8F830B7F8F630A5
:1055F00008339BB21BB25A4203F0070302F00702C2
:1056000058BF53421BB2A7F8F630B7F8F8307A68A3
:105610001A44B7F8F63008211846FAF7FBFF03469C
:10562000DBB23B77B7F9F6300833002B06DA0733E5
:1056300004E000BF047E02080C7E0208DB109AB270
:10564000B7F8F8301344A7F8F830B7F8F630083355
:105650009BB21BB25A4203F0070302F0070258BF85
:1056600053421BB2A7F8F630B7F8F8307A681A44FC
:10567000B7F8F63008211846FAF7CCFF0346DBB23C
:105680007B77B7F9F6300833002B00DA0733DB10ED
:105690009AB2B7F8F8301344A7F8F830B7F8F630F4
:1056A00008339BB21BB25A4203F0070302F0070211
:1056B00058BF53421BB2A7F8F630B7F8F8307A68F3
:1056C0001A44B7F8F63008211846FAF7A3FF034644
:1056D000DBB2BB77B7F9F6300833002B00DA0733BB
:1056E000DB109AB2B7F8F8301344A7F8F830B7F8DF
:1056F000F63008339BB21BB25A4203F0070302F0A4
:10570000070258BF53421BB2A7F8F6303B8D03F097
:105710000803002B02D0012387F8FB30B7F8F830DC
:105720007A681A44B7F8F63008211846FAF772FF7B
:105730000346DBB287F83730B7F9F6300833002B71
:1057400000DA0733DB109AB2B7F8F8301344A7F841
:10575000F830B7F8F63008339BB21BB25A4203F068
:10576000070302F0070258BF53421BB2A7F8F630F6
:1057700097F8373019464B4820F022FCB7F8F8303C
:105780007A681A44B7F8F63008211846FAF742FF4B
:105790000346DBB287F83830B7F9F6300833002B10
:1057A00000DA0733DB109AB2B7F8F8301344A7F8E1
:1057B000F830B7F8F63008339BB21BB25A4203F008
:1057C000070302F0070258BF53421BB2A7F8F63096
:1057D00097F8373003F0070387F8FD3097F8FD306E
:1057E000002B07D097F83730DB08DBB2013387F89E
:1057F000FD3004E097F83730DB0887F8FD300023F0
:10580000A7F8FE3040E0B7F8F8307A681A44B7F8E5
:10581000F63008211846FAF7FDFE0246B7F8FE30CA
:10582000D2B203F580733B4403F8C72CB7F8FE10DF
:10583000B7F8FE3003F580733B4413F8C73C1A46B3
:10584000194820F0BDFBB7F9F6300833002B00DA19
:105850000733DB109AB2B7F8F8301344A7F8F830E2
:10586000B7F8F63008339BB21BB25A4203F0070375
:1058700002F0070258BF53421BB2A7F8F630B7F840
:10588000FE300133A7F8FE3097F8FD309BB2B7F831
:10589000FE209A42B7D30A2020F0AAFB0023A7F8E3
:1058A000FE3037E05883020860830208B7F8F8300A
:1058B0007A681A44B7F8F63008211846FAF7AAFEB3
:1058C0000246B7F8FE30D2B203F580733B4403F8CA
:1058D000B72CB7F9F6300833002B00DA0733DB10AA
:1058E0009AB2B7F8F8301344A7F8F830B7F8F630A2
:1058F00008339BB21BB25A4203F0070302F00702BF
:1059000058BF53421BB2A7F8F630B7F8FE30013348
:10591000A7F8FE3097F838309BB2B7F8FE209A42CD
:10592000C4D307F10803013310220021184620F0E8
:105930005FFA97F8FD2007F13403591D07F10803BA
:105940000133184620F02CFA97F8FD301AB207F10F
:1059500008030133194600200FF0D6FD03467B8370
:1059600097F8FD307B76BB783B72BB78624A134474
:1059700093F82D30012B40F0828097F8FB30012BFB
:105980007DD1798BBA785D4813469B0013449B0008
:10599000034412331B88994271D0BA7813469B0096
:1059A00013449B00554A134401331022002118462A
:1059B00020F01EFABA7813469B0013449B004F4A0E
:1059C000134407F108011422184620F0E9F9BB78C6
:1059D0004B49D7F8E82041F82320BB78494A32F8F0
:1059E0001310BA78454813469B0013449B000344A8
:1059F00012331B88994242D0BA78B9783F4813468F
:105A00009B0013449B00034412331A883D4B23F838
:105A10001120142200213C4820F0EAF9BA781346FC
:105A20009B0013449B00354A134414221946364800
:105A300020F0B6F940F207200BF092FABB78334A17
:105A400032F81330002B1AD1BB781B01304A1344B3
:105A5000981CBA7813469B0013449B00274A1344B2
:105A600001331022194620F09BF904F04BFE40F25E
:105A700019100BF075FA274AD7F8E8301360BA7896
:105A8000254913465B001344DB000B44BA781A70B7
:105A9000BA78214913465B001344DB000B44013301
:105AA00001221A70182200211C4820F0A1F9BA78AE
:105AB00013465B001344DB00174A134418221946AF
:105AC000164820F06DF940F201200BF049FABA783F
:105AD000114913465B001344DB000B4401330022E1
