:020000040800F2
:10000000000008207D510108B1450108B7450108ED
:10001000BD450108C3450108C945010800000000AD
:10002000000000000000000000000000CF450108B3
:10003000DD45010800000000EB450108F945010815
:10004000CD510108CD510108CD510108CD51010814
:10005000CD510108CD51010805460108134601089C
:10006000CD510108CD510108CD510108CD510108F4
:10007000CD510108CD510108CD510108CD510108E4
:10008000CD510108CD510108CD510108CD510108D4
:10009000CD510108CD510108CD510108CD510108C4
:1000A000CD510108CD510108CD510108CD510108B4
:1000B000CD510108CD51010821460108CD5101085B
:1000C000CD510108CD510108CD510108CD51010894
:1000D000CD51010835460108CD510108CD51010827
:1000E000CD510108CD510108CD510108CD51010874
:1000F000CD510108CD510108CD510108CD51010864
:10010000CD510108CD51010849460108CD510108E2
:100110005D460108714601088546010899460108B7
:10012000CD510108CD510108CD510108CD51010833
:10013000CD510108AD460108CD510108CD5101084E
:10014000C1460108D5460108CD510108CD5101082D
:10015000CD510108CD510108CD510108CD51010803
:10016000CD510108CD510108CD510108CD510108F3
:10017000CD510108CD510108CD510108000000000A
:10018000CD510108CD510108E9460108CD510108C2
:10019000CD510108CD510108CD510108CD510108C3
:1001A000CD510108CD510108CD510108CD510108B3
:1001B000CD510108CD510108CD510108CD510108A3
:1001C000CD510108CD510108CD510108CD51010893
:1001D000CD510108CD510108CD510108CD51010883
:1001E000CD510108FD46010811470108CD51010814
:0801F000CD510108CD510108B9
:1002000010B5054C237833B9044B13B10448AFF350
:1002100000800123237010BDE402002000000000D4
:10022000D03A020808B5034B1BB103490348AFF3AA
:10023000008008BD00000000E8020020D03A02085B
:1002400010F8012B11F8013B012A28BF9A42F7D080
:10025000D01A7047034613F8012B002AFBD1181A55
:10026000013870470000000000000000000000009E
:1002700001F0FF01102A2BDB10F0070F08D010F857
:10028000013B013A8B422DD010F0070F42B3F6D15B
:10029000F0B441EA012141EA014122F007047FF074
:1002A00000070023F0E80256083C85EA010586EACB
:1002B000010685FA47F5A3FA87F586FA47F6A5FA07
:1002C00087F68EB9EED1F0BC01F0FF0102F0070213
:1002D00032B110F8013B013A83EA010313B1F8D1BE
:1002E0000020704701387047002D06BF354603389F
:1002F000073815F0010F07D1013015F4807F02BFD8
:10030000013015F4C03F0130F0BC0138704700BF28
:1003100053B94AB9002908BF00281CBF4FF0FF316C
:100320004FF0FF3000F074B9ADF1080C6DE904CE68
:1003300000F006F8DDF804E0DDE9022304B07047C0
:100340002DE9F047089D04468E46002B4DD18A4288
:10035000944669D9B2FA82F252B101FA02F3C2F1BB
:10036000200120FA01F10CFA02FC41EA030E94404C
:100370004FEA1C48210CBEFBF8F61FFA8CF708FB6D
:1003800016E341EA034306FB07F199420AD91CEB45
:10039000030306F1FF3080F01F81994240F21C8177
:1003A000023E63445B1AA4B2B3FBF8F008FB1033BF
:1003B00044EA034400FB07F7A7420AD91CEB0404F4
:1003C00000F1FF3380F00A81A74240F207816444C4
:1003D000023840EA0640E41B00261DB1D440002349
:1003E000C5E900433146BDE8F0878B4209D9002DAD
:1003F00000F0EF800026C5E9000130463146BDE837
:10040000F087B3FA83F6002E4AD18B4202D38242A0
:1004100000F2F980841A61EB030301209E46002D4F
:10042000E0D0C5E9004EDDE702B9FFDEB2FA82F2A4
:10043000002A40F09280A1EB0C014FEA1C471FFA02
:100440008CFE0126200CB1FBF7F307FB131140EAE9
:1004500001410EFB03F0884208D91CEB010103F1B6
:10046000FF3802D2884200F2CB804346091AA4B278
:10047000B1FBF7F007FB101144EA01440EFB00FE4C
:10048000A64508D91CEB040400F1FF3102D2A645B1
:1004900000F2BB800846A4EB0E0440EA03409CE750
:1004A000C6F12007B34022FA07FC4CEA030C20FAFD
:1004B00007F401FA06F31C43F9404FEA1C4900FA1D
:1004C00006F3B1FBF9F8200C1FFA8CFE09FB18119A
:1004D00040EA014108FB0EF0884202FA06F20BD90D
:1004E0001CEB010108F1FF3A80F08880884240F25D
:1004F0008580A8F102086144091AA4B2B1FBF9F0A1
:1005000009FB101144EA014100FB0EFE8E4508D99B
:100510001CEB010100F1FF346CD28E456AD9023820
:10052000614440EA0840A0FB0294A1EB0E01A14205
:10053000C846A64656D353D05DB1B3EB080261EB73
:100540000E0101FA07F722FA06F3F1401F43C5E94D
:10055000007100263146BDE8F087C2F12003D84083
:100560000CFA02FC21FA03F3914001434FEA1C47C5
:100570001FFA8CFEB3FBF7F007FB10360B0C43EAB7
:10058000064300FB0EF69E4204FA02F408D91CEB67
:10059000030300F1FF382FD29E422DD90238634465
:1005A0009B1B89B2B3FBF7F607FB163341EA034105
:1005B00006FB0EF38B4208D91CEB010106F1FF3854
:1005C00016D28B4214D9023E6144C91A46EA00464B
:1005D00038E72E46284605E70646E3E61846F8E6DD
:1005E0004B45A9D2B9EB020864EB0C0E0138A3E726
:1005F0004646EAE7204694E74046D1E7D0467BE707
:10060000023B614432E7304609E76444023842E77E
:10061000704700BF80B487B000AF03463A60FB80EC
:100620000B46BB80FA88BB8813443B823B8A082B6D
:1006300006D8FB88C3F10703FB8001237B8219E006
:100640003B8A102B06D8FB88C3F10F03FB800223E3
:100650007B820FE03B8A182B06D8FB88C3F1170377
:10066000FB8003237B8205E0FB88C3F11F03FB8033
:1006700004237B8200237B617B8A013B032B34D8DC
:1006800001A252F823F000BFD5060008BF060008FB
:10069000A9060008990600083B685A1C3A601B78B6
:1006A0001A467B6913437B617B691B027B613B6854
:1006B0005A1C3A601B781A467B6913437B617B693D
:1006C0001B027B613B685A1C3A601B781A467B69A7
:1006D00013437B617B691B027B613B685A1C3A6058
:1006E0001B781A467B6913437B61FA88BB88D31A4F
:1006F0009BB20133FB81BB880B4A52F82330BB60AD
:10070000FB89BA6802FA03F37A6913407B61FB89BB
:100710007A6922FA03F37B617B6918461C37BD4670
:100720005DF8047B704700BF0000002080B48BB0F0
:1007300000AFBA607B600346FB810B46BB81BB68A0
:10074000FB61FA89BB8913447B837B8B082B06D81A
:10075000FB89C3F10703FB8101237B8419E07B8BB9
:10076000102B06D8FB89C3F10F03FB8102237B8486
:100770000FE07B8B182B06D8FB89C3F11703FB8195
:1007800003237B8405E0FB89C3F11F03FB81042362
:100790007B8400237B627B8C013B032B31D801A23D
:1007A00052F823F0F1070008DB070008C50700082E
:1007B000B5070008BB685A1CBA601B781A467B6AEA
:1007C00013437B627B6A1B027B62BB685A1CBA6064
:1007D0001B781A467B6A13437B627B6A1B027B622F
:1007E000BB685A1CBA601B781A467B6A13437B624B
:1007F0007B6A1B027B62BB681B781A467B6A1343C9
:100800007B62FA89BB89D31A9BB201333B83BB89D4
:10081000234A52F823307B617A687B6913407B60FE
:100820003B8B7A6802FA03F37B603B8B7A6902FAAE
:1008300003F3DB437A6A13407B627A6A7B68134373
:100840007B627B8C013B032B23D801A252F823F05F
:100850008B0800087D0800086F0800086108000880
:100860007B6A190EFB695A1CFA61CAB21A707B6A5C
:10087000190CFB695A1CFA61CAB21A707B6A190A10
:10088000FB695A1CFA61CAB21A707B6ADAB2FB6958
:100890001A707B6A18462C37BD465DF8047B70479A
:1008A00084000020B0B483B000AF0023FB71FB795B
:1008B0006E4A322101FB03F3134424221A70FB79A0
:1008C0006A4A322101FB03F31344013301221A70F7
:1008D000FB79664A322101FB03F3134402333022D1
:1008E0001A70FB79614A322101FB03F3134403338D
:1008F00040221A70FB795D4A322101FB03F3134455
:100900000433C0221A70FB79584A322101FB03F3E9
:10091000134405334E221A70FB79544A322101FBED
:1009200003F31344063326221A70FB790133FB715B
:10093000FB795A1CFA711A46322302FB03F34B4A25
:1009400013444B491A460B4603CB1060516019887B
:100950009B7811819372FB795A1CFA711A463223E3
:1009600002FB03F3414A1344424A1C4615460FCD8D
:1009700020606160A260E360FB795A1CFA711A463C
:10098000322302FB03F3394A13443B4A1C46154603
:100990000FCD20606160A260E360FB795A1CFA71A0
:1009A0001A46322302FB03F3304A1344334A1D46EE
:1009B00014460FCC28606960AA60EB602388A27897
:1009C0002B821346AB74FB795A1CFA711A463223F8
:1009D00002FB03F3254A1344294A1D4614460FCC53
:1009E00028606960AA60EB602388A2782B82134696
:1009F000AB74FB795A1CFA711A46322302FB03F3DB
:100A00001A4A13441F4A1D4614460FCC28606960D9
:100A1000AA60EB602388A2782B821346AB74FB7923
:100A20005A1CFA711A46322302FB03F30F4A13448D
:100A300015491A460B4603CB106051601B88138181
:100A4000FB795A1CFA711A46322302FB03F3074A58
:100A500013440E4A1068186012791A710C4AFB7917
:100A6000137000BF0C37BD46B0BC7047500A002061
:100A7000E83A0208F43A0208043B0208143B020870
:100A8000283B02083C3B0208503B02085C3B020842
:100A9000380E002080B582B000AF7860391D4FF667
:100AA000FF73012207481AF01BFB074B1B6898686D
:100AB00000230222002121F047FE7B6818460837F8
:100AC000BD4680BD44BC00204001002080B582B0FE
:100AD00000AF0023FB711D4B3B6008211C4817F041
:100AE000EFF90346002B0CBF01230023DBB25AB2FF
:100AF00097F9073013435BB2FB711021144817F0CC
:100B0000DFF90346002B01D1022300E000235AB293
:100B100097F9073013435BB2FB714FF400510D4856
:100B200017F0CEF90346002B01D1042300E0002387
:100B30005AB297F9073013435BB2FB713B68FA79FD
:100B40001A7000BF0837BD4680BD00BF480A0020AC
:100B5000002802400020024080B59AB000AF002378
:100B600087F86730002387F86630002387F8653000
:100B700000233B603B1D60220021184621F00AFC47
:100B8000C04B1B6818460DF001FF0346092B40F2CD
:100B9000758110E0002014F0B3F9034687F8653042
:100BA00097F866305A1C87F8662068333B4497F8FC
:100BB000652003F8682C002014F062F90346002B2E
:100BC000E8D197F86630002B00F04E8197F8663038
:100BD00068333B44002203F8682C3B461946AA4878
:100BE00021F0C0FC97F866203B461146184600F0FD
:100BF00079F90346092B00F2338101A252F823F060
:100C0000290C0008370C00089B0C0008F10C0008A8
:100C10004D0D0008970D0008DB0D00081F0E0008A1
:100C20003B0E0008450E0008984B01221A709848A8
:100C300021F034FD19E197F86630013B68333B44FD
:100C400013F8683C303B1A469249934821F08AFCDD
:100C500097F86630013B68333B4413F8683C2F2B10
:100C600014D997F86630013B68333B4413F8683C6D
:100C7000312B0BD897F86630013B68333B4413F8AF
:100C8000683C303BDAB2854B1A7002E0844821F0B0
:100C900005FD012387F86730E7E097F86630013BF0
:100CA00068333B4413F8683C303B1A467D497E4824
:100CB00021F058FC7D4821F0F1FC7D4B1B6843F08E
:100CC00010037B4A136097F86630013B68333B445E
:100CD00013F8683C303BDAB2754B1A71012387F880
:100CE0006730734B1B681946724821F03BFCBCE02F
:100CF00097F86630013B68333B4413F8683C303B5F
:100D00001A466D49684821F02DFC6C4821F0C6FC5C
:100D1000674B00221A60664B1B6843F02003644A4D
:100D2000136097F86630013B68333B4413F8683C26
:100D3000303BDAB25E4B1A71012387F867305C4BA7
:100D40001B6819465B4821F00DFC8EE097F8663071
:100D5000013B68333B4413F8683C303B1A46584922
:100D6000514821F0FFFB574821F098FC504B1B687D
:100D700043F400734E4A136097F86630013B6833C2
:100D80003B4413F8683C303BDAB2494B1A710123FB
:100D900087F8673069E097F86630013B68333B4479
:100DA00013F8683C303B1A4647493F4821F0DAFBCC
:100DB0003F4B1B6843F001033D4A136097F86630D0
:100DC000013B68333B4413F8683C303BDAB2384BA4
:100DD0001A71012387F8673047E097F86630013BC6
:100DE00068333B4413F8683C303B1A4637492E4879
:100DF00021F0B8FB2E4B1B6843F002032C4A136012
:100E000097F86630013B68333B4413F8683C303B4D
:100E1000DAB2274B1A71012387F8673025E02C4995
:100E20002C4821F09FFB224B00221A60204BFF220E
:100E30001A71012387F8673017E02749274821F006
:100E400091FB12E097F86630013B68333B4413F89E
:100E5000683C303B1A462249134821F083FB04E0EA
:100E60000F4821F01BFC00E000BF97F86730012B12
:100E700005D140F205200EF005FB00E000BF683709
:100E8000BD4680BD04A00020643B0208440600204B
:100E90007C3B0208820A0020BC3B02084506002079
:100EA000D03B0208B40A0020EC3B0208083C0208D0
:100EB0005C190020183C0208E60A00202C3C0208BD
:100EC000180B00203C3C02084A0B00207C0B002041
:100ED000AE0B0020583C0208E00B0020683C0208E2
:100EE000120C002090B585B000AF78600B46FB7007
:100EF0000023FB731CE0FB7B322202FB03F3114A4D
:100F00009C18FB7B322202FB03F30E4A1344184663
:100F1000FFF7A0F903461A462146786821F002FA45
:100F20000346002B01D1FB7B08E0FB7B0133FB7305
:100F3000054B1B78FA7B9A42DDD3FF231846143702
:100F4000BD4690BD500A0020380E002080B5A2B0EA
:100F500000AF002387F8853000237B6007F108038A
:100F60007C220021184621F015FA002387F88730EB
:100F7000002387F886303AE00EF0CAF8034687F877
:100F8000853097F88530F42B02D0F62B0CD01BE07F
:100F900097F887305A1C87F8872088333B4497F8A6
:100FA000852003F8842C1EE097F887305A1C87F8B8
:100FB000872088333B4497F8852003F8842C97F8E2
:100FC000873087F886300EE097F88730002B0AD0FC
:100FD00097F887305A1C87F8872088333B4497F866
:100FE000852003F8842C97F88630002B05D10EF06D
:100FF0007BF80346002BBFD100E000BF97F8863096
:10100000002B0DD097F887300F2B06D997F8872043
:101010003B1D1146184600F0A3F8002387F88730DF
:1010200000BF8837BD4680BD80B5A2B000AF0023A9
:1010300087F8853000237B6007F108037C220021BC
:10104000184621F0A7F9002387F88730002387F896
:101050008630404B93F82230002B74D03E4B1B68F7
:1010600018460DF093FC0346132B6ED94AE003207B
:1010700013F046FF034687F8853097F887307E2BBC
:101080000AD997F8873080221946344821F06AFA45
:10109000002387F887303DE097F88530F42B02D0A5
:1010A000F62B0CD01BE097F887305A1C87F8872066
:1010B00088333B4497F8852003F8842C1EE097F88A
:1010C00087305A1C87F8872088333B4497F885205F
:1010D00003F8842C97F8873087F886300EE097F86D
:1010E0008730002B0AD097F887305A1C87F8872062
:1010F00088333B4497F8852003F8842C97F8863092
:10110000002B06D1032013F0BBFE0346002BAED10B
:1011100000E000BF97F88630002B17D097F8873093
:101120000F2B06D997F887203B1D1146184600F073
:1011300017F8002387F887303B1D802200211846CE
:1011400021F028F902E000BF00E000BF8837BD466B
:1011500080BD00BF0403002000A00020A43C0208C2
:1011600080B5A4B000AF78600B46FB700023FB6035
:1011700007F110037C220021184621F00BF900230F
:10118000A7F88E300023A7F88C300023A7F88E3004
:101190000023A7F88C3034E0B7F88C307A68134419
:1011A0001B78F02B18D1B7F88C307A681344197873
:1011B000B7F88C3001337A6813441A78B7F88E3058
:1011C0000A43D2B290333B4403F8842CB7F88C30F6
:1011D0000133A7F88C300AE0B7F88C307A681A44EB
:1011E000B7F88E30127890333B4403F8842CB7F86C
:1011F0008E300133A7F88E30B7F88C300133A7F862
:101200008C30FB789BB2B7F88C209A42C4D3B7F8E5
:101210008E2007F10C031146184600F005F800BFB8
:101220009037BD4680BD000080B588B000AF7860C3
:101230000B467B800023FB750023FB770023BB77E5
:101240000023BB6100233B6114F082F9F860A74BD7
:101250001B78002B11D114F07BF9034642F20F7278
:1012600093420AD9A24821F019FAA249A248FEF7EE
:10127000E7FF0346002B40F0A1817B6803331A4649
:1012800010210020FFF7C6F903469BB23B610BE03B
:10129000FB7F9A4A66339B0013445B683A699A4223
:1012A00009D0FB7F0133FB77944B93F82030FA7F12
:1012B0009A42EDD300E000BF904B93F82030FA7FC4
:1012C0009A4209D38E4B1B78012B40F07981396902
:1012D0008C4821F047F973E17B6801331A461021ED
:1012E0000020FFF797F903469BB2BB61FB7F834A5F
:1012F00070339B0013445B68BA699A4212D08248EB
:1013000021F0CCF9B969814821F02CF9FB7F7B4AA7
:1013100070339B0013445B681A4639697C4821F09E
:1013200021F94EE1FB7FBB777A4B1B681B0903F069
:101330000103002B16D0774B1B79BA7F9A4211D14B
:10134000754821F0ABF9B969744821F00BF940F206
:101350004D13BB61694B93F82030BB77B969704876
:1013600021F000F9654B93F82030BA7F9A4207D3F9
:101370006C4821F093F9B9696B4821F0F3F820E14A
:101380005F4B1B78012B21D1FB7F684AD35C012B7B
:1013900002D0022B04D007E0654821F07FF915E068
:1013A000644821F07BF911E0FB7F544A134493F821
:1013B0002D30022B03D1604821F070F906E0FB7F4D
:1013C0005A4AD35C19465D4821F0CCF8FB7F5C4A51
:1013D00052F82330FA7F55498A5C934214D0FB7F40
:1013E0005849FA6841F82320FB7F5749FA6841F8C9
:1013F0002320FB7F4D4AD25CFB7F1146504A42F8C6
:101400002310524821F04AF9FA7FFB7F4749895C53
:101410004F4AD154FB7F4F4A52F8233018460DF003
:10142000B5FA0246FB7F35498A3351F823309A4298
:1014300018D3FB7F4749FA6841F82320FB7F4149D5
:10144000FA6841F82320FB7F3F49FA6841F82320DE
:10145000FB7F2A4A66339B0013445B6819463E486B
:1014600021F080F8FB7F3B49FA6841F82320812274
:1014700000213A4820F08EFF7B881A467968374869
:1014800020F060FF7B88DAB2344B83F880207B68E1
:1014900007331A4608210020FFF7BCF80346FB7506
:1014A000FA7F2F4913465B001344DB000B440333E0
:1014B00001221A70FB7F2B49FA6841F82320FB7F39
:1014C000184606F0D9FBFB7D013B052B70D801A225
:1014D00052F823F0691500087915000889150008ED
:1014E00091150008B1150008A11500080801002099
:1014F000D03C0208103D0208050300200403002030
:10150000450600201C3D0208583D0208743D0208B3
:10151000983D02085C190020D03D0208F43D020805
:10152000043E0208143E0208483E020880100020D3
:10153000683E0208783E0208883E0208A03E020883
:101540007C0F0020A40F0020CC0F0020C43E020816
:101550002410002030100020DC3E0208101C002067
:1015600074160020740E00207B88D9B2BB7FFA7FEE
:10157000786800F02DF824E07B88D9B2BB7FFA7F31
:10158000786801F0C3FB1CE00F4821F087F818E0F1
:101590007B88D9B2BB7FFA7F786803F04BFE10E0FE
:1015A0007B88D9B2BB7FFA7F786805F043F808E002
:1015B000FB7D1946054820F0D5FF02E000BF00E0A2
:1015C00000BF2037BD4680BDF83E02081C3F020820
:1015D00090B589B000AF7860084611461A460346B8
:1015E000FB700B46BB7013467B7000237B8300238C
:1015F0007B7600237B6100233B6113F0A9FFF86039
:101600000023FB830023BB83FB789BB2053B9BB28B
:101610001946786811F0C4FB7861FB78053B7A685D
:101620001A44BB8B20211846FEF7F4FF38613A6953
:101630007B699A4213D0BB78294A66339B001344D6
:101640005B681946274820F08DFF3969264820F04D
:1016500089FF7969254820F085FF00F032BEBB780C
:10166000234A0121D154BB78224A0121D1547B68FD
:1016700003F11D02BB8B10211846FEF7CBFF03467A
:101680007B83BB78164AFE335B0013449B887A8BBE
:101690009A423DD0BB78184A0121D154BB78104AF8
:1016A00066339B0013445B681946144820F05AFFC8
:1016B0007B8B1946124820F055FFBB78084AFE3351
:1016C0005B0013449B8819460E4820F04BFF0E49DF
:1016D0000E48FEF7B5FD0346002B1DD000F0F1BD0E
:1016E00004030020383F0208543F0208643F020808
:1016F000F40F00200C10002000100020743F02089E
:10170000AC3F0208D03F0208103D0208050300204C
:10171000BB78AB4A0021D1547B6803F12402BB8B18
:1017200008211846FEF776FF03467B76BB78A54A6C
:10173000134493F8EB307A7E9A421FD0BB78A14ACB
:1017400066339B0013445B6819469F4820F00AFFEC
:10175000BB789C4A134493F8EB3019469B4820F021
:1017600001FF7B7E19469A4820F0FCFE99499A4871
:10177000FEF766FD0346002B40F0A285BB78974933
:10178000FA6841F82320BB78954A0121D154BB78EF
:10179000944A0021D154BB789349FA6841F8232038
:1017A000B7F91C300833002B00DA0733DB109AB28C
:1017B000FB8B1344FB83BB8B08339BB21BB25A4297
:1017C00003F0070302F0070258BF53421BB2BB836A
:1017D000FB8B7A681A44BB8B10211846FEF71AFF60
:1017E0000246BB7891B2814A5B01134410330A462A
:1017F0001A80BB787D4A5B01134410331B8819465D
:101800007B4820F0AFFEB7F91C301033002B00DA14
:101810000733DB109AB2FB8B1344FB83BB8B103373
:101820009BB21BB25A4203F0070302F0070258BFF3
:1018300053421BB2BB83FB8B7A681A44BB8B1021CB
:101840001846FEF7E7FE0246BB7891B2674A5B0195
:1018500013440E330A461A80BB78644A5B01134472
:101860000E331B881946634820F07CFEB7F91C3004
:101870001033002B00DA0733DB109AB2FB8B1344D2
:10188000FB83BB8B10339BB21BB25A4203F007039E
:1018900002F0070258BF53421BB2BB83FB8B7A682E
:1018A0001A44BB8B08211846FEF7B4FE0246BB78EB
:1018B000D1B24E4A5B0113440A461A70B7F91C3084
:1018C0000833002B00DA0733DB109AB2FB8B13448A
:1018D000FB83BB8B08339BB21BB25A4203F0070356
:1018E00002F0070258BF53421BB2BB83FB8B7A68DE
:1018F0001A44BB8B08211846FEF78CFE0246BB78C3
:10190000D1B23A4A5B01134401330A461A70B7F95F
:101910001C300833002B00DA0733DB109AB2FB8B44
:101920001344FB83BB8B08339BB21BB25A4203F0B8
:10193000070302F0070258BF53421BB2BB83FB8B65
:101940007A681A44BB8B08211846FEF763FE0246EC
:10195000BB78D1B2254A5B01134402330A461A70A0
:10196000B7F91C300833002B00DA0733DB109AB2CA
:10197000FB8B1344FB83BB8B08339BB21BB25A42D5
:1019800003F0070302F0070258BF53421BB2BB83A8
:10199000FB8B7A681A44BB8B10211846FEF73AFE7F
:1019A0000246BB7891B2144A1B01134404330A4621
:1019B0001A80B7F91C301033002B1FDA07331DE0F3
:1019C0000010002004030020F43F02081C4002081D
:1019D00030400208103D020805030020A40F00203B
:1019E0000C1000208C1000209810002064120020A1
:1019F000444002084C400208C4110020DB109AB297
:101A0000FB8B1344FB83BB8B10339BB21BB25A423C
:101A100003F0070302F0070258BF53421BB2BB8317
:101A2000BB788E4A1B01134404331B8803F0200348
:101A3000002B00F01D81FB8B7A681A44BB8B0821B8
:101A40001846FEF7E7FD0346BA78D8B28449134634
:101A50005B0013445B000B44053302461A70B7F970
:101A60001C300833002B00DA0733DB109AB2FB8BF3
:101A70001344FB83BB8B08339BB21BB25A4203F067
:101A8000070302F0070258BF53421BB2BB83FB8B14
:101A90007A681A44BB8B08211846FEF7BBFD034643
:101AA000BA78D8B26E4913465B0013445B000B440E
:101AB000043302461A70B7F91C300833002B00DAE1
:101AC0000733DB109AB2FB8B1344FB83BB8B0833C9
:101AD0009BB21BB25A4203F0070302F0070258BF41
:101AE00053421BB2BB83FB8B7A681A44BB8B082121
:101AF0001846FEF78FFD0346BA78D8B25849134608
:101B00005B0013445B000B44033302461A70B7F9C1
:101B10001C300833002B00DA0733DB109AB2FB8B42
:101B20001344FB83BB8B08339BB21BB25A4203F0B6
:101B3000070302F0070258BF53421BB2BB83FB8B63
:101B40007A681A44BB8B08211846FEF763FD0346EA
:101B5000BA78D8B2424913465B0013445B000B4489
:101B600002461A70B7F91C300833002B00DA07332D
:101B7000DB109AB2FB8B1344FB83BB8B08339BB205
:101B80001BB25A4203F0070302F0070258BF534248
:101B90001BB2BB83FB8B7A681A44BB8B08211846A7
:101BA000FEF738FD0346BA78D8B22D4913465B00DC
:101BB00013445B000B44013302461A70B7F91C3022
:101BC0000833002B00DA0733DB109AB2FB8B134487
:101BD000FB83BB8B08339BB21BB25A4203F0070353
:101BE00002F0070258BF53421BB2BB83FB8B7A68DB
:101BF0001A44BB8B08211846FEF70CFD0346BA7841
:101C0000D8B2174913465B0013445B000B44023300
:101C100002461A70B7F91C300833002B00DA07337C
:101C2000DB109AB2FB8B1344FB83BB8B08339BB254
:101C30001BB25A4203F0070302F0070258BF534297
:101C40001BB2BB83BB78184606F066FE0346002B2A
:101C50000AD0BB78034A0021D15409E0C411002006
:101C600088110020D8100020BB78A44A0121D1544B
:101C7000FB8B7A681A44BB8B08211846FEF7CAFC16
:101C80000246BB78D1B29E4A5B01134403330A4635
:101C90001A70B7F91C300833002B00DA0733DB1059
:101CA0009AB2FB8B1344FB83BB8B08339BB21BB2F2
:101CB0005A4203F0070302F0070258BF53421BB217
:101CC000BB83FB8B7A681A44BB8B10211846FEF746
:101CD000A1FC0246BB7891B2894A5B0113441233DE
:101CE0000A461A80B7F91C301033002B00DA07338C
:101CF000DB109AB2FB8B1344FB83BB8B10339BB27C
:101D00001BB25A4203F0070302F0070258BF5342C6
:101D10001BB2BB83BB785B01794A1344181DFB8B54
:101D20007A6813440622194620F00CFBB7F91C30E0
:101D30001033002B00DA0733DB109AB2FB8B13440D
:101D4000FB83BB8B10339BB21BB25A4203F00703D9
:101D500002F0070258BF53421BB2BB83B7F91C30D5
:101D60001033002B00DA0733DB109AB2FB8B1344DD
:101D7000FB83BB8B10339BB21BB25A4203F00703A9
:101D800002F0070258BF53421BB2BB83B7F91C30A5
:101D90001033002B00DA0733DB109AB2FB8B1344AD
:101DA000FB83BB8B10339BB21BB25A4203F0070379
:101DB00002F0070258BF53421BB2BB83FB8B7A6809
:101DC0001A44BB8B10211846FEF724FC0246BB7850
:101DD00091B24B4A5B01134414330A461A80B7F997
:101DE0001C301033002B00DA0733DB109AB2FB8B68
:101DF0001344FB83BB8B10339BB21BB25A4203F0DC
:101E0000070302F0070258BF53421BB2BB83FB8B90
:101E10007A681A44BB8B10211846FEF7FBFB02467A
:101E2000BB7891B2364A5B01134416330A461A80D6
:101E3000B7F91C301033002B00DA0733DB109AB2ED
:101E4000FB8B1344FB83BB8B10339BB21BB25A42F8
:101E500003F0070302F0070258BF53421BB2BB83D3
:101E6000FB8B7A681A44BB8B10211846FEF7D2FB15
:101E70000246BB7891B2224A5B01134418330A46EA
:101E80001A80B7F91C301033002B00DA0733DB104F
:101E90009AB2FB8B1344FB83BB8B10339BB21BB2F8
:101EA0005A4203F0070302F0070258BF53421BB225
:101EB000BB83FB8B7A681A44BC78BB8B182118460D
:101EC000FEF7A8FB02460F4923010B4408331A60B2
:101ED000BB78BA780B491B010B44083319680A48D0
:101EE00013465B001344DB00034408331960B7F961
:101EF0001C301833002B09DA073307E0D810002014
:101F000064120020C411002074160020DB109AB265
:101F1000FB8B1344FB83BB8B18339BB21BB25A421F
:101F200003F0070302F0070258BF53421BB2BB8302
:101F3000FB8B7A681A44BB8B08211846FEF76AFBB4
:101F40000246BB78D1B2B14A1B0113440A461A704B
:101F5000BA78BB78AD4912010A441178AB4A1B012B
:101F6000134402330A461A70B7F91C300833002BA9
:101F700000DA0733DB109AB2FB8B1344FB83BB8B75
:101F800008339BB21BB25A4203F0070302F0070268
:101F900058BF53421BB2BB83FB8B7A681A44BB8B7E
:101FA00008211846FEF736FB0246BB78D1B2984AA4
:101FB0005B0113440A330A461A70B7F91C30083320
:101FC000002B00DA0733DB109AB2FB8B1344FB8340
:101FD000BB8B08339BB21BB25A4203F0070302F0DB
:101FE000070258BF53421BB2BB83FB8B7A681A446B
:101FF000BB8B08211846FEF70DFB0246BB78D1B219
:10200000824A1B01134403330A461A70B7F91C3085
:102010000833002B00DA0733DB109AB2FB8B134432
:10202000FB83BB8B08339BB21BB25A4203F00703FE
:1020300002F0070258BF53421BB2BB83BB78734AFE
:102040001B01134403331A78BB7872490B4493F88D
:10205000EB309A4215D0704820F020FBBB786D4AD7
:10206000134493F8EB3019466C4820F07BFABB78A8
:10207000664A1B01134403331B781946684820F055
:1020800071FAFB8B7A681A44BB8B08211846FEF75D
:10209000C1FA0246BB78D1B25D4A5B0113440B33EF
:1020A0000A461A70B7F91C300833002B00DA0733E0
:1020B000DB109AB2FB8B1344FB83BB8B08339BB2C0
:1020C0001BB25A4203F0070302F0070258BF534203
:1020D0001BB2BB83FB8B7A681A44BB8B0821184662
:1020E000FEF798FA0246BB78D1B2494A5B01134425
:1020F0000C330A461A70B7F91C300833002B00DA8B
:102100000733DB109AB2FB8B1344FB83BB8B083382
:102110009BB21BB25A4203F0070302F0070258BFFA
:1021200053421BB2BB83BB78394A5B0113440C3367
:102130001B78012B0CD0BB78354A5B0113440C3360
:102140001B781946374820F00DFA374820F0A6FAD8
:10215000FB8B7A681A44BB8B08211846FEF75AFAA3
:102160000246BB78D1B22A4A5B0113440D330A46BA
:102170001A70B7F91C300833002B00DA0733DB1074
:102180009AB2FB8B1344FB83BB8B08339BB21BB20D
:102190005A4203F0070302F0070258BF53421BB232
:1021A000BB83FB8B7A681A44BC78BB8B2021184612
:1021B000FEF730FA0246164963010B441C331A60DD
:1021C000B7F91C302033002B00DA0733DB109AB24A
:1021D000FB8B1344FB83BB8B20339BB21BB25A4255
:1021E00003F0070302F0070258BF53421BB2BB8340
:1021F0007A78BB781146184600F06CF8BA780B492B
:1022000013465B001344DB0012E000BFC411002042
:102210006412002004030020544002081C400208FD
:1022200030400208704002089C40020874160020EA
:102230000B4414333A691A60BA78234913465B0099
:102240001344DB000B44053301221A70BA781E498F
:1022500013465B001344DB000B44BA781A70BA785B
:10226000194913465B001344DB000B440133012280
:102270001A7018220021154820F08CF8BA781346FD
:102280005B001344DB00104A1344182219460F4820
:1022900020F058F840F202200DF0F4F8BA780A491C
:1022A00013465B001344DB000B44013300221A7019
:1022B000BC7813F04DF90346054A42F8243000E09B
:1022C00000BF2437BD4690BD74160020541800206E
:1022D000440E002090B597B000AF03460A46FB714C
:1022E0001346BB710023FB6007F110033822002165
:1022F000184620F04FF800233B650023A7F84E3026
:102300000023A7F84C30B7F84E3007F10C021A44FE
:10231000B7F84C00F4230821FEF708FAB7F94C305F
:102320000833002B00DA0733DB109AB2B7F84E30CF
:102330001344A7F84E30B7F84C3008339BB21BB2A9
:102340005A4203F0070302F0070258BF53421BB280
:10235000A7F84C30B7F84E3007F10C021A44FB795D
:10236000774966339B000B445B68B7F84C0010213B
:10237000FEF7DCF9B7F94C301033002B00DA0733E5
:10238000DB109AB2B7F84E301344A7F84E30B7F8C6
:102390004C3010339BB21BB25A4203F0070302F0D9
:1023A000070258BF53421BB2A7F84C30B7F84E3063
:1023B00007F10C021A44FB79614970339B000B440E
:1023C0005B68B7F84C001021FEF7B0F9B7F94C3054
:1023D0001033002B00DA0733DB109AB2B7F84E3017
:1023E0001344A7F84E30B7F84C3010339BB21BB2F1
:1023F0005A4203F0070302F0070258BF53421BB2D0
:10240000A7F84C304F4B1B689B0803F00103002BCF
:1024100031D04C4B1B79FA799A4237D1002387F897
:102420004B30494817F046FD0246484BA3FB0213C8
:102430009B09C82101FB03F3D31ADBB2013387F8F0
:102440004B30434820F02AF90021424820F08AF816
:1024500097F84B301946404820F084F8B7F84E30D2
:1024600007F10C021A4497F84B30B7F84C000821DA
:10247000FEF75CF90AE0B7F84E3007F10C021A4497
:10248000B7F84C0000230821FEF750F9B7F94C309B
:102490000833002B00DA0733DB109AB2B7F84E305E
:1024A0001344A7F84E30B7F84C3008339BB21BB238
:1024B0005A4203F0070302F0070258BF53421BB20F
:1024C000A7F84C301F4B1B68DB0803F00103002BFF
:1024D0004CD01C4B1B79FA799A4265D1002387F8BE
:1024E0004A30194817F0E6FC0246184BA3FB0213CA
:1024F0009B09C82101FB03F3D31A87F84A30174818
:1025000020F0CCF8FB79164A1B01134402331B78E8
:102510001946144820F026F897F84A301946124810
:1025200020F020F8B7F84E3007F10C021A4497F863
:102530004A30B7F84C000821FEF7F8F834E000BF45
:10254000040300205C1900207C9C00201F85EB51B7
:10255000B8400208DC400208FC4002081C410208A6
:10256000C41100204041020860410208B7F84E3013
:1025700007F10C02D118FB79C4481A010244023257
:1025800012780132D4B2C1481A0102440232204604
:102590001070BE4A1B01134402331B78B7F84C007D
:1025A0000A460821FEF7C2F8B7F94C300833002B71
:1025B00000DA0733DB109AB2B7F84E301344A7F8AD
:1025C0004E30B7F84C3008339BB21BB25A4203F07E
:1025D000070302F0070258BF53421BB2A7F84C3062
:1025E000B7F84E3007F10C021A44B7F84C0001233B
:1025F0000821FEF79BF8B7F94C300833002B00DABE
:102600000733DB109AB2B7F84E301344A7F84E30B8
:10261000B7F84C3008339BB21BB25A4203F00703A1
:1026200002F0070258BF53421BB2A7F84C30FB79A7
:10263000964A1B011344063305221A80B7F84E3020
:1026400007F10C021A44FB7990491B010B44063335
:102650001B88B7F84C001021FEF768F8B7F94C302A
:102660001033002B00DA0733DB109AB2B7F84E3084
:102670001344A7F84E30B7F84C3010339BB21BB25E
:102680005A4203F0070302F0070258BF53421BB23D
:10269000A7F84C30B7F84E3007F10C021A44B7F8DF
:1026A0004C0017230821FEF741F8B7F94C300833E6
:1026B000002B00DA0733DB109AB2B7F84E30134420
:1026C000A7F84E30B7F84C3008339BB21BB25A42D1
:1026D00003F0070302F0070258BF53421BB2A7F8EA
:1026E0004C30B7F84E3007F10C021A44B7F84C00E2
:1026F00001231021FEF71AF8B7F94C301033002BE4
:1027000000DA0733DB109AB2B7F84E301344A7F85B
:102710004E30B7F84C3010339BB21BB25A4203F024
:10272000070302F0070258BF53421BB2A7F84C3010
:10273000B7F84E3007F10C021A44B7F84C00544B6E
:102740002021FDF7F3FFB7F94C302033002B00DADE
:102750000733DB109AB2B7F84E301344A7F84E3067
:10276000B7F84C3020339BB21BB25A4203F0070338
:1027700002F0070258BF53421BB2A7F84C30B7F81B
:102780004E3007F10C021A44B7F84C000023102118
:10279000FDF7CCFFB7F94C301033002B00DA0733CC
:1027A000DB109AB2B7F84E301344A7F84E30B7F8A2
:1027B0004C3010339BB21BB25A4203F0070302F0B5
:1027C000070258BF53421BB2A7F84C30B7F84E303F
:1027D00007F10C021A44B7F84C0000231021FDF752
:1027E000A5FFB7F94C301033002B00DA0733DB10AC
:1027F0009AB2B7F84E301344A7F84E30B7F84C30C1
:1028000010339BB21BB25A4203F0070302F00702D7
:1028100058BF53421BB2A7F84C30B7F84E3007F1FF
:102820000C021A44B7F84C0000231021FDF77EFF7C
:10283000B7F94C301033002B00DA0733DB109AB2B3
:10284000B7F84E301344A7F84E30B7F84C30103379
:102850009BB21BB25A4203F0070302F0070258BFB3
:1028600053421BB2A7F84C30B7F84E3007F10C02B8
:102870001A44B7F84C0000231021FDF757FFB7F9B1
:102880004C301033002B05DA073303E0C41100206D
:10289000AF32E233DB109AB2B7F84E301344A7F8E8
:1028A0004E30B7F84C3010339BB21BB25A4203F093
:1028B000070302F0070258BF53421BB2A7F84C307F
:1028C000FB79B24A1B01134408331B68B04A934298
:1028D0000DD9FB79AD4A1B01134408331A68FB7903
:1028E000013AAA491B010B440C331A600CE0FB7936
:1028F000A64A1B01134408331A68FB790132A34925
:102900001B010B440C331A60B7F84E3007F10C0270
:102910001A44FB799D491B010B440C331B68B7F823
:102920004C001821FDF702FFFB79FA7997491B014A
:102930000B440C331968974813465B001344DB00C3
:1029400003440C331960B7F94C301833002B00DA0C
:102950000733DB109AB2B7F84E301344A7F84E3065
:10296000B7F84C3018339BB21BB25A4203F007033E
:1029700002F0070258BF53421BB2A7F84C30FB7954
:10298000854AD25C0132D1B2834AD154FB79824A62
:10299000D35CB32B04D8FB797F4AD35C002B03D1E3
:1029A000FB797D4A0A21D154B7F84E3007F10C0269
:1029B0001A44FB797849CB5CB7F84C000821FDF745
:1029C000B5FEB7F94C300833002B00DA0733DB10C3
:1029D0009AB2B7F84E301344A7F84E30B7F84C30DF
:1029E00008339BB21BB25A4203F0070302F00702FE
:1029F00058BF53421BB2A7F84C30B7F84E3007F11E
:102A00000C021A44B7F84C0001230821FDF78EFE92
:102A1000B7F94C300833002B00DA0733DB109AB2D9
:102A2000B7F84E301344A7F84E30B7F84C3008339F
:102A30009BB21BB25A4203F0070302F0070258BFD1
:102A400053421BB2A7F84C30B7F84E3007F10C02D6
:102A50001A44B7F84C0001230821FDF767FEB7F9C7
:102A60004C300833002B00DA0733DB109AB2B7F88A
:102A70004E301344A7F84E30B7F84C3008339BB2B1
:102A80001BB25A4203F0070302F0070258BF534239
:102A90001BB2A7F84C30B7F84E3007F10C021A44BD
:102AA000B7F84C0000230821FDF740FEB7F94C3081
:102AB0000833002B00DA0733DB109AB2B7F84E3038
:102AC0001344A7F84E30B7F84C3008339BB21BB212
:102AD0005A4203F0070302F0070258BF53421BB2E9
:102AE000A7F84C302D4B1B685B0903F00103002B4A
:102AF00060D02A4B1B79FA799A425BD10C2387F874
:102B00005730274817F0D6F90146264BA3FB01237F
:102B1000DA0813465B019B1A9B001344CA1AD3B20E
:102B2000013387F8573020481FF0B8FDFB79174A6A
:102B30001B01134403331B7819461C481FF012FD78
:102B4000FB79124A1B01134403331B7897F8572073
:102B50009A4208D1FB790D4A1B01134403331B78B9
:102B6000023B87F8573097F85730194610481FF046
:102B7000F9FCB7F84E3007F10C021A4497F85730B9
:102B8000B7F84C000821FDF7D1FD22E0C411002068
:102B9000EFFFFF00741600200C0100205C190020DC
:102BA0007C9C0020D34D621080410208B041020895
:102BB000CC410208B7F84E3007F10C021A44FB79F9
:102BC0004E490B4493F8EB30B7F84C000821FDF761
:102BD000ADFDB7F94C300833002B00DA0733DB10BA
:102BE0009AB2B7F84E301344A7F84E30B7F84C30CD
:102BF00008339BB21BB25A4203F0070302F00702EC
:102C000058BF53421BB2A7F84C30B7F84E3007F10B
:102C10000C021A44B7F84C0000230821FDF786FD8A
:102C2000B7F94C300833002B00DA0733DB109AB2C7
:102C3000B7F84E301344A7F84E30B7F84C3008338D
:102C40009BB21BB25A4203F0070302F0070258BFBF
:102C500053421BB2A7F84C30B7F84E2007F10C03D3
:102C60001146184610F09CF83865B7F84E3007F159
:102C70000C021A44B7F84C003B6D2021FDF756FDBD
:102C8000B7F94C302033002B00DA0733DB109AB24F
:102C9000B7F84E301344A7F84E30B7F84C30203315
:102CA0009BB21BB25A4203F0070302F0070258BF5F
:102CB00053421BB2A7F84C30114B1B685B0A03F060
:102CC0000103002B0BD00E4B1B79FA799A4206D1E7
:102CD0000C481FF0E3FC0C481FF044FC09E0B7F877
:102CE0004E30D9B2FA7907F10C03184604F040FCD3
:102CF00000BF00BF5C37BD4690BD00BF040300208D
:102D00005C190020E84102080042020890B599B021
:102D100000AF7860084611461A460346FB700B4622
:102D2000BB7013467B700023A7F85E300023FB6462
:102D30000023BB6512F00CFCB864002387F8573001
:102D4000002387F85630002387F855300023BB60F6
:102D500007F10C033822002118461FF01BFB00234B
:102D6000A7F852300023A7F85030A149A148FDF739
:102D700067FA0346002B00F038819F4B1B6803F075
:102D80000103002B2DD09C4B1B79BA789A4228D195
:102D900016237B64994817F08DF80246984BA3FBE5
:102DA0000213D90D0B461B045B1A1B02D31A7B645A
:102DB00094481FF073FCBB78934A1B0113440833FB
:102DC0001B68194691481FF0CDFB796C90481FF0A5
:102DD000C9FB07F108027B6C18210020FDF7A6FC57
:102DE0000BE0BB78884A1B01134408331B6807F1CA
:102DF000080218210020FDF799FC002387F85630BF
:102E000010E097F856307A681A4497F85630033332
:102E1000127860333B4403F8582C97F8563001334E
:102E200087F8563097F85620FB78053B9A42E8DB46
:102E300097F856309BB203339AB207F10803114654
:102E400018460FF0ADFFF864FB78053B7A681A442A
:102E5000B7F8503020211846FDF7DCFBB865FA6C56
:102E6000BB6D9A4200F0EC807B6805331A4608215E
:102E70000020FDF7CFFB0346002B0AD07B6805330B
:102E80001A4608210020FDF7C5FB0346012B40F040
:102E9000988060481FF002FC07F108033C220021E3
:102EA00018461FF077FABB78574A1B0113440833C2
:102EB0001B68013307F1080218210020FDF736FCDA
:102EC000002387F8563010E097F856307A681A4495
:102ED00097F856300333127860333B4403F8582C8C
:102EE00097F85630013387F8563097F85620FB781C
:102EF000053B9A42E8DB97F856309BB203339AB20F
:102F000007F10803114618460FF04AFFF864FB78F2
:102F1000053B7A681A44B7F8503020211846FDF76F
:102F200079FBB865FA6CBB6D9A4236D13A481FF00E
:102F3000B5FBB96D39481FF015FBBB78324A1B0150
:102F4000134408331B68194635481FF00BFBBB7848
:102F50002D491A010A440832126801322A491B011C
:102F60000B4408331A60BB78274A1B01134408330B
:102F70001B6819462B481FF0F5FABB78BA7822492E
:102F80001B010B4408331968274813465B001344A0
:102F9000DB0003440833196053E0BB78234A6633EF
:102FA0009B0013445B68194621481FF0DBFAB96D9A
:102FB00020481FF0D7FAF96C1F481FF0D3FA00F031
:102FC000A2BEBB78194A66339B0013445B6819465E
:102FD0001A481FF0C7FAB96D16481FF0C3FAF96C0A
:102FE00015481FF0BFFA00F08EBE00BF29E000BFF9
:102FF000103D0208050300205C1900207C9C002085
:103000000180008014420208C411002034420208EA
:103010005C42020884420208A0420208B842020848
:10302000D8420208F8420208741600200403002067
:1030300024430208543F0208643F02084443020844
:1030400000BFBB78C349BA6C41F82320BB78C249A2
:10305000BA6C41F82320BB78C04A0121D154BA7818
:1030600013465B0113445B00BD4A13444022002118
:1030700018461FF08FF9BA7813465B0113445B00C2
:10308000B74A1344FA78796818461FF05BF9BA78A2
:10309000FB7898B2B24913465B0113445B000B44C2
:1030A000403302461A80B7F950300833002B00DA5B
:1030B0000733DB109AB2B7F852301344A7F85230F6
:1030C000B7F8503008339BB21BB25A4203F00703E3
:1030D00002F0070258BF53421BB2A7F85030B7F8AE
:1030E00052307A681A44B7F8503010211846FDF76C
:1030F00091FA0346BA7898B29A4913465B00134492
:103100001B010B44283302461A80BA7895491346AE
:103110005B0013441B010B4428331B88194692485B
:103120001FF020FAB7F950301033002B00DA0733C4
:10313000DB109AB2B7F852301344A7F85230B7F800
:10314000503010339BB21BB25A4203F0070302F017
:10315000070258BF53421BB2A7F85030B7F852309D
:103160007A681A44B7F8503010211846FDF752FA21
:103170000346BA7898B27B4913465B0013441B019F
:103180000B44263302461A80BA78764913465B0010
:1031900013441B010B4426331B88194673481FF048
:1031A000E1F9B7F950301033002B00DA0733DB10A8
:1031B0009AB2B7F852301344A7F85230B7F85030EB
:1031C00010339BB21BB25A4203F0070302F007020E
:1031D00058BF53421BB2A7F85030B7F852307A6844
:1031E0001A44B7F8503008211846FDF713FA024682
:1031F000BB78D1B25E4A1B01134402330A461A70EF
:10320000B7F950300833002B00DA0733DB109AB2DD
:10321000B7F852301344A7F85230B7F8503008339B
:103220009BB21BB25A4203F0070302F0070258BFD9
:1032300053421BB2A7F85030B7F852307A681A449C
:10324000B7F8503008211846FDF7E4F90246BB787C
:10325000D1B2474A1B01134401330A461A70BB78A6
:10326000434A1B01134401331B78002B38D1BB7830
:10327000404A66339B0013445B6819463E481FF082
:1032800071F9BB783A4A1B0113440C331B68194689
:103290003A481FF067F9BB7835491A010A440C32E5
:1032A0001268013232491B010B440C331A60BB789F
:1032B0002F4A1B0113440C331B68194630481FF07A
:1032C00051F9BB78BA782A491B010B440C331968B1
:1032D0002C4813465B001344DB0003440C33196095
:1032E000B7F950300833002B00DA0733DB109AB2FD
:1032F000B7F852301344A7F85230B7F850300833BB
:103300009BB21BB25A4203F0070302F0070258BFF8
:1033100053421BB2A7F85030B7F852307A681A44BB
:10332000B7F8503008211846FDF774F90346BA780B
:10333000D8B20C4913465B0013441B010B44023303
:1033400002461A70B7F950300833002B1CDA0733E5
:103350001AE000BFA40F0020CC0F0020181000209E
:103360007C190020A4130020444002084C400208AD
:10337000C411002004030020584302089C430208A3
:10338000AC43020874160020DB109AB2B7F8523032
:103390001344A7F85230B7F8503008339BB21BB231
:1033A0005A4203F0070302F0070258BF53421BB210
:1033B000A7F85030B7F852307A681A44B7F850304E
:1033C00010211846FDF726F90246BB7891B2BD4A96
:1033D0001B01134404330A461A80BB49BB48FCF75F
:1033E0002FFF0346002B0FD1BB78B64A1B011344B5
:1033F00004331A88BB7842F0080291B2B14A1B012B
:10340000134404330A461A80B7F950301033002BA6
:1034100000DA0733DB109AB2B7F852301344A7F83A
:103420005230B7F8503010339BB21BB25A4203F0FF
:10343000070302F0070258BF53421BB2A7F85030EF
:10344000BB78A04A1B01134404331B8803F02003FC
:10345000002B00F04581B7F852307A681A44B7F86B
:10346000503008211846FDF7D5F80346BA78D8B28F
:10347000974913465B0013445B000B440533024637
:103480001A70B7F950300833002B00DA0733DB101D
:103490009AB2B7F852301344A7F85230B7F8503008
:1034A00008339BB21BB25A4203F0070302F0070233
:1034B00058BF53421BB2A7F85030B7F852307A6861
:1034C0001A44B7F8503008211846FDF7A3F8034610
:1034D000BA78D8B27E4913465B0013445B000B44B4
:1034E000043302461A70B7F950300833002B00DA63
:1034F0000733DB109AB2B7F852301344A7F85230B2
:10350000B7F8503008339BB21BB25A4203F007039E
:1035100002F0070258BF53421BB2A7F85030B7F869
:1035200052307A681A44B7F8503008211846FDF72F
:1035300071F80346BA78D8B2654913465B00134464
:103540005B000B44033302461A70B7F9503008335E
:10355000002B00DA0733DB109AB2B7F8523013446D
:10356000A7F85230B7F8503008339BB21BB25A421A
:1035700003F0070302F0070258BF53421BB2A7F83B
:103580005030B7F852307A681A44B7F850300821F2
:103590001846FDF73FF80346BA78D8B24C491346AF
:1035A0005B0013445B000B4402461A70B7F95030BD
:1035B0000833002B00DA0733DB109AB2B7F8523029
:1035C0001344A7F85230B7F8503008339BB21BB2FF
:1035D0005A4203F0070302F0070258BF53421BB2DE
:1035E000A7F85030B7F852307A681A44B7F850301C
:1035F00008211846FDF70EF80346BA78D8B23449C8
:1036000013465B0013445B000B44013302461A70FF
:10361000B7F950300833002B00DA0733DB109AB2C9
:10362000B7F852301344A7F85230B7F85030083387
:103630009BB21BB25A4203F0070302F0070258BFC5
:1036400053421BB2A7F85030B7F852307A681A4488
:10365000B7F8503008211846FCF7DCFF0346BA786B
:10366000D8B21B4913465B0013445B000B44023382
:1036700002461A70B7F950300833002B00DA0733CE
:10368000DB109AB2B7F852301344A7F85230B7F8AB
:10369000503008339BB21BB25A4203F0070302F0CA
:1036A000070258BF53421BB2A7F85030BB781846E8
:1036B00005F032F90346002B0ED0BB78054A0021F5
:1036C000D1540DE0C4110020103D02080503002074
:1036D00088110020D8100020BB78864A0121D154DF
:1036E000BB78854A1B01134404331B8803F008038D
:1036F000002B02D0012387F85530B7F852307A6892
:103700001A44B7F8503008211846FCF783FF0346E7
:10371000BA78D8B2794913465B0013441B010B44B5
:10372000033302461A70B7F950300833002B00DA21
:103730000733DB109AB2B7F852301344A7F852306F
:10374000B7F8503008339BB21BB25A4203F007035C
:1037500002F0070258BF53421BB2A7F85030BA78A4
:10376000664913465B0013441B010B4403331B786B
:10377000194663481EF0F6FEB7F852307A681A44CC
:10378000B7F8503008211846FCF744FF0346BA78D2
:10379000D8B25A4913465B0013441B010B4404334F
:1037A00002461A70B7F950300833002B00DA07339D
:1037B000DB109AB2B7F852301344A7F85230B7F87A
:1037C000503008339BB21BB25A4203F0070302F099
:1037D000070258BF53421BB2A7F85030BA78474986
:1037E00013465B0013441B010B4403331B7803F0A7
:1037F000070387F8573097F85730002B0ED0BA7868
:103800003E4913465B0013441B010B4403331B78F2
:10381000DB08DBB2013387F857300BE0BA78374961
:1038200013465B0013441B010B4403331B78DB0876
:1038300087F857300023A7F85E304CE0B7F85230D5
:103840007A681A44B7F8503008211846FCF7E2FEAF
:103850000346BA78B7F85E10DCB2284813465B001E
:1038600013441B0103440B44053322461A70B7F876
:103870005E00BA78B7F85E10204C13465B00134424
:103880001B0123440B4405331B781A4601461D488F
:103890001EF068FEB7F950300833002B00DA07330A
:1038A000DB109AB2B7F852301344A7F85230B7F889
:1038B000503008339BB21BB25A4203F0070302F0A8
:1038C000070258BF53421BB2A7F85030B7F85E301A
:1038D0000133A7F85E3097F857309BB2B7F85E20F7
:1038E0009A42ABD30A201EF055FE0023A7F85E30A3
:1038F00044E000BFD8100020C4110020A413002011
:10390000BC430208C4430208B7F852307A681A442C
:10391000B7F8503008211846FCF77CFE0346BA7809
:10392000B7F85E10DCB2C44813465B0013441B01B9
:1039300003440B44153322461A70B7F9503008334C
:10394000002B00DA0733DB109AB2B7F85230134479
:10395000A7F85230B7F8503008339BB21BB25A4226
:1039600003F0070302F0070258BF53421BB2A7F847
:103970005030B7F85E300133A7F85E30BA78AE4900
:1039800013465B0013441B010B4404331B789BB2AA
:10399000B7F85E209A42B7D37A78BB7811461846BA
:1039A00003F046FABB78A54A0121D154BB78A34A5B
:1039B00002339B001344BA6C5A60BA78A04913468C
:1039C0005B001344DB000B4404331B78012B16D13E
:1039D000462200219B481EF0DDFCBB789AB2994B31
:1039E0001A80FB789AB2974B9A80FB781A467968CE
:1039F00095481EF0A7FC4FF401700BF043FDBA7818
:103A000013469B0013449B00904A13440133102239
:103A1000002118461EF0BEFCBA7813469B001344E2
:103A20009B008A4A1344581CBA7813465B0013441F
:103A30001B01814A1344053397F8572019461EF09D
:103A400081FCBA7813469B0013449B007F4A1344C1
:103A5000013397F8572012B2BC78194600200FF0B6
:103A6000E5F803461946794A23469B0023449B0008
:103A7000134412330A461A80BA78744913469B00DD
:103A800013449B000B44113397F857201A70BA78EF
:103A90006E4913469B0013449B000B44BA781A707E
:103AA00097F85530012B6BD1BA7813469B0013441D
:103AB0009B00674A134401331022002118461EF070
:103AC00069FCBA7813469B0013449B00604A98181F
:103AD000BA7813469B0013449B005C4A134414229B
:103AE00019461EF02FFCBB785A49BA6C41F82320C6
:103AF000BB78594A32F81310BA78554813469B00E0
:103B000013449B00034412331B88994238D0BA787F
:103B1000B9784F4813469B0013449B00034412336B
:103B20001A884D4B23F81120142200214B481EF017
:103B300031FCBA7813469B0013449B00444A13445B
:103B40001422194645481EF0FDFB4FF402700BF09D
:103B500099FCBB78424A32F81330002B10D1BB7865
:103B60001B01404A1344981CBA7813469B00134427
:103B70009B00374A13440133102219461EF0E2FB22
:103B8000B978BA7832480B469B000B449B0003443B
:103B9000123318882A4913465B001344DB000B4498
:103BA000063302461A80BA78254913465B0013444F
:103BB000DB000B441433BA6D1A60BA7820491346FF
:103BC0005B001344DB000B44053302221A70BA7801
:103BD0001B4913465B001344DB000B44BA781A7090
:103BE000BA78174913465B001344DB000B440133DA
:103BF00001221A70BA78124913465B001344DB00A5
:103C00000B44023397F855201A70182200211648E9
:103C10001EF0C0FBBA7813465B001344DB00084A71
:103C200013441822194610481EF08CFB40F2022063
:103C30000BF028FCBA7819E0A4130020941C002093
:103C400074160020841800208A180020B81D002057
:103C5000801E0020D80E0020000F00201020002021
:103C6000C40E0020E41000205418002027491346F9
:103C70005B001344DB000B44013300221A70BB7855
:103C80002349BA6C41F8232097F85530012B1DD1F8
:103C9000BB782049BA6C41F82320BA781E491346F4
:103CA0005B0013449B000B440433BA6C1A60BA786F
:103CB000194913465B0013449B000B440133012256
:103CC0001A70BB78154A0121D15417E0BB78134A0A
:103CD0000021D154BA78104913465B0013449B006D
:103CE0000B440833BA6C1A60BA780B4913465B0070
:103CF00013449B000B44013300221A704FF480716F
:103D0000074814F00EF96437BD4690BD74160020C4
:103D1000440E0020140F0020C81C0020640F002057
:103D2000001C024090B5A5B000AF03460A46FB71E7
:103D30001346BB710023BB6407F14C0338220021FA
:103D400018461EF027FB0023FB6007F11003382202
:103D5000002118461EF01EFB002387F88F30002339
:103D6000A7F88C300023A7F88A3007F148033C22DB
:103D7000002118461EF00EFBB7F88C3007F1480200
:103D80001A44B7F88A00F4230821FCF7CFFCB7F9EE
:103D90008A300833002B00DA0733DB109AB2B7F809
:103DA0008C301344A7F88C30B7F88A3008339BB2B4
:103DB0001BB25A4203F0070302F0070258BF5342F6
:103DC0001BB2A7F88A30B7F88C3007F148021A44C2
:103DD000FB79C64966339B000B445B68B7F88A00E1
:103DE0001021FCF7A3FCB7F98A301033002B00DA5E
:103DF0000733DB109AB2B7F88C301344A7F88C3035
:103E0000B7F88A3010339BB21BB25A4203F0070353
:103E100002F0070258BF53421BB2A7F88A30B7F826
:103E20008C3007F148021A44FB79B04970339B008B
:103E30000B445B68B7F88A001021FCF777FCB7F9F0
:103E40008A301033002B00DA0733DB109AB2B7F850
:103E50008C301344A7F88C30B7F88A3010339BB2FB
:103E60001BB25A4203F0070302F0070258BF534245
:103E70001BB2A7F88A309E4B1B689B0803F0010316
:103E8000002B35D09A4B1B79FA799A4230D1002316
:103E900087F88930974816F00DF80246964BA3FB39
:103EA00002139B09C82101FB03F3D31A87F8893059
:103EB00092481EF0F3FBFB79914A1B011344013336
:103EC0001B7819468F481EF04DFB97F8893019462C
:103ED0008D481EF047FBB7F88C3007F148021A44B2
:103EE00097F88930B7F88A000821FCF71FFC0FE02B
:103EF000B7F88C3007F148021A44FB7980491B015E
:103F00000B4401331B78B7F88A000821FCF70EFC3C
:103F1000B7F98A300833002B00DA0733DB109AB286
:103F2000B7F88C301344A7F88C30B7F88A300833D0
:103F30009BB21BB25A4203F0070302F0070258BFBC
:103F400053421BB2A7F88A30694B1B68DB0803F0A9
:103F50000103002B35D0664B1B79FA799A4230D198
:103F6000002387F88830634815F0A4FF0246624BAF
:103F7000A3FB02139B09C82101FB03F3D31A87F8A3
:103F8000883062481EF08AFBFB795D4A1B011344AE
:103F900002331B7819465E481EF0E4FA97F8883021
:103FA00019465C481EF0DEFAB7F88C3007F148027B
:103FB0001A4497F88830B7F88A000821FCF7B6FB56
:103FC0000FE0B7F88C3007F148021A44FB794C49EE
:103FD0001B010B4402331B78B7F88A000821FCF759
:103FE000A5FBB7F98A300833002B00DA0733DB1062
:103FF0009AB2B7F88C301344A7F88C30B7F88A30EF
:1040000008339BB21BB25A4203F0070302F00702C7
:1040100058BF53421BB2A7F88A30B7F88C3007F16B
:1040200048021A44B7F88A0002230821FCF77EFBF5
:10403000B7F98A300833002B00DA0733DB109AB265
:10404000B7F88C301344A7F88C30B7F88A300833AF
:104050009BB21BB25A4203F0070302F0070258BF9B
:1040600053421BB2A7F88A30FB792B4AD35C012B51
:104070005AD107F041F8FA7913465B0013445B000C
:10408000264A1344264A1168196092889A80254866
:104090001EF004FBFB79204A0021D154B7F88C3084
:1040A00007F148021A44B7F88A0068231021FCF788
:1040B0003DFBB7F98A301033002B00DA0733DB10F1
:1040C0009AB2B7F88C301344A7F88C30B7F88A301E
:1040D00010339BB21BB25A4203F0070302F00702EF
:1040E00058BF53421BB2A7F88A3044E004030020B3
:1040F0005C1900207C9C00201F85EB51D4430208F2
:10410000C4110020F8430208184402081C410208A8
:104110004041020860410208D810002088110020A8
:10412000EC27002038440208B7F88C3007F1480229
:104130001A44B7F88A0028231021FCF7F7FAB7F9D8
:104140008A301033002B00DA0733DB109AB2B7F84D
:104150008C301344A7F88C30B7F88A3010339BB2F8
:104160001BB25A4203F0070302F0070258BF534242
:104170001BB2A7F88A30B7F88C3007F14802D11883
:10418000FA79CD4813465B0013445B0003440533C2
:104190001B78B7F88A000A460821FCF7C7FAB7F976
:1041A0008A300833002B00DA0733DB109AB2B7F8F5
:1041B0008C301344A7F88C30B7F88A3008339BB2A0
:1041C0001BB25A4203F0070302F0070258BF5342E2
:1041D0001BB2A7F88A30B7F88C3007F14802D11823
:1041E000FA79B54813465B0013445B00034404337B
:1041F0001B78B7F88A000A460821FCF797FAB7F946
:104200008A300833002B00DA0733DB109AB2B7F894
:104210008C301344A7F88C30B7F88A3008339BB23F
:104220001BB25A4203F0070302F0070258BF534281
:104230001BB2A7F88A30B7F88C3007F14802D118C2
:10424000FA799D4813465B0013445B000344033333
:104250001B78B7F88A000A460821FCF767FAB7F915
:104260008A300833002B00DA0733DB109AB2B7F834
:104270008C301344A7F88C30B7F88A3008339BB2DF
:104280001BB25A4203F0070302F0070258BF534221
:104290001BB2A7F88A30B7F88C3007F14802D11862
:1042A000FA79854813465B0013445B0003441B788E
:1042B000B7F88A000A460821FCF738FAB7F98A30BD
:1042C0000833002B00DA0733DB109AB2B7F88C30D2
:1042D0001344A7F88C30B7F88A3008339BB21BB26E
:1042E0005A4203F0070302F0070258BF53421BB2C1
:1042F000A7F88A30B7F88C3007F14802D118FA795C
:104300006D4813465B0013445B00034401331B7884
:10431000B7F88A000A460821FCF708FAB7F98A308C
:104320000833002B00DA0733DB109AB2B7F88C3071
:104330001344A7F88C30B7F88A3008339BB21BB20D
:104340005A4203F0070302F0070258BF53421BB260
:10435000A7F88A30B7F88C3007F14802D118FA79FB
:10436000554813465B0013445B00034402331B783B
:10437000B7F88A000A460821FCF7D8F9B7F98A305D
:104380000833002B00DA0733DB109AB2B7F88C3011
:104390001344A7F88C30B7F88A3008339BB21BB2AD
:1043A0005A4203F0070302F0070258BF53421BB200
:1043B000A7F88A30B7F88C3007F148021A44B7F8EA
:1043C0008A0001230821FCF7B1F9B7F98A300833D4
:1043D000002B00DA0733DB109AB2B7F88C301344A5
:1043E000A7F88C30B7F88A3008339BB21BB25A4218
:1043F00003F0070302F0070258BF53421BB2A7F8AD
:104400008A30B7F88C3007F148021A44B7F88A00AE
:1044100000230821FCF78AF9B7F98A300833002B0A
:1044200000DA0733DB109AB2B7F88C301344A7F8E0
:104430008C30B7F88A3008339BB21BB25A4203F073
:10444000070302F0070258BF53421BB2A7F88A3095
:10445000B7F88C3007F148021A44B7F88A000123F4
:104460000821FCF763F9B7F98A300833002B00DA2A
:104470000733DB109AB2B7F88C301344A7F88C30AE
:10448000B7F88A3008339BB21BB25A4203F00703D5
:1044900002F0070258BF53421BB2A7F88A30074BFD
:1044A0001B685B0803F00103002B2CD0034B1B7926
:1044B000FA799A4227D103E0881100205C19002084
:1044C0000023C7F884304E4815F0F4FCC7F8840088
:1044D0004C481EF0E3F8FB794B4A1B0113440C33A4
:1044E0001B68194649481EF03DF8D7F88410484823
:1044F0001EF038F807F10C02D7F88430182100209C
:10450000FCF714F90BE0FB793F4A1B0113440C3311
:104510001B6807F10C0218210020FCF707F90023A3
:1045200087F88F3011E097F88F2097F88F3003339A
:1045300090323A4412F8482C90333B4403F8842CD0
:1045400097F88F30013387F88F3097F88F309BB210
:10455000B7F88C209A42E6D8B7F88C3007F14802B9
:10456000D41897F88F309BB203339AB207F10C033B
:10457000114618460EF014FC0346B7F88A0022468E
:104580002021FCF7D3F8B7F98A302033002B00DA6A
:104590000733DB109AB2B7F88C301344A7F88C308D
:1045A000B7F88A3020339BB21BB25A4203F007039C
:1045B00002F0070258BF53421BB2A7F88A30154BCE
:1045C0001B685B0A03F00103002B0BD0114B1B7916
:1045D000FA799A4206D110481EF060F80F481DF093
:1045E000C1FF09E0B7F88C30D9B2FA7907F1480376
:1045F000184602F0BDFF00BF00BF9437BD4690BD16
:104600007C9C002050440208C4110020744402081D
:10461000984402085C190020E841020800420208A0
:1046200080B5C0B000AF7860084611461A46034610
:10463000FB700B46BB7013467B700023A7F8FE305F
:104640000023C7F8F0300023C7F8EC3010F080FFEB
:10465000C7F8E800002387F8FD30002387F8FC3016
:10466000002387F8FB3000237B6607F168037C2278
:10467000002118461DF08EFE0023A7F8F830002315
:10468000A7F8F630FB7899B2BA78C34813465B01B5
:1046900013445B00034440331B8899421AD1BA7813
:1046A00013465B0113445B00BB4A1344FA78194676
:1046B00078681DF037FE0346002B0BD1BB78B74A54
:1046C00066339B0013445B681946B5481DF04AFFEA
:1046D00000F098BDFB78053B7A681A44B7F8F630CD
:1046E00020211846FBF796FFC7F8EC00AD4B1B687E
:1046F00003F00103002B34D0AA4B1B79BA789A42FD
:104700002FD11623C7F8E430A74815F0D3FB024693
:10471000A64BA3FB0213D90D0B461B045B1A1B020D
:10472000D31AC7F8E430A2481DF0B8FFBA78A149FF
:1047300013465B001344DB000B4408331B68194627
:104740009D481DF00FFFD7F8E4109C481DF00AFFAC
:1047500007F16402D7F8E43018210020FBF7E6FFE8
:104760000EE0BA78934913465B001344DB000B4418
:1047700008331B6807F1640218210020FBF7D6FFFD
:10478000002387F8FC3011E097F8FC307A681A446F
:1047900097F8FC300333127803F580733B4403F839
:1047A0009C2C97F8FC30013387F8FC3097F8FC20FC
:1047B000FB78053B9A42E7DB97F8FC309BB203336A
:1047C0009AB207F16403114618460EF0E9FAC7F8E9
:1047D000F000D7F8F020D7F8EC309A4200F00481CE
:1047E0007B6805331A4608210020FBF713FF0346B8
:1047F000002B40F0BA8072481DF050FF07F16403AF
:104800008022002118461DF0C5FDBA78694913467B
:104810005B001344DB000B4408331B68013307F1D2
:10482000640218210020FBF781FF002387F8FC3089
:1048300011E097F8FC307A681A4497F8FC3003339B
:10484000127803F580733B4403F89C2C97F8FC30F6
:10485000013387F8FC3097F8FC20FB78053B9A423F
:10486000E7DB97F8FC309BB203339AB207F164039D
:10487000114618460EF094FAC7F8F000FB78053B95
:104880007A681A44B7F8F63020211846FBF7C2FEC2
:10489000C7F8EC00D7F8F020D7F8EC309A424ED1A8
:1048A00048481DF0FBFED7F8EC1047481DF05AFEB3
:1048B000BA78404913465B001344DB000B440833CD
:1048C0001B68194641481DF04DFEBA783949134618
:1048D0005B001344DB000B4408331B68591C35484C
:1048E00013465B001344DB00034408331960B978B6
:1048F000304813465B001344DB00034408331A6856
:1049000033480B01034408331A60BB78304A1B015B
:10491000134408331B6819462E481DF023FEBB784C
:10492000BA782B491B010B44083319682A481346EF
:104930005B001344DB0003440833196055E0BB7887
:10494000164A66339B0013445B68194623481DF0E2
:1049500009FED7F8EC1022481DF004FED7F8F0103D
:1049600020481DF0FFFD00F04DBCBB780B4A6633BC
:104970009B0013445B68194618481DF0F3FDD7F8F7
:10498000EC1017481DF0EEFDD7F8F01015481DF09B
:10499000E9FD00F037BC00BF7C19002004030020B3
:1049A000BC4402085C1900207C9C0020018000802F
:1049B0001442020864170020344202085C420208D4
:1049C0008442020800450208B84202082445020851
:1049D000C4110020F8420208741600204045020865
:1049E000543F0208643F020800BFB7F9F6300833AD
:1049F000002B00DA0733DB109AB2B7F8F830134413
:104A0000A7F8F830B7F8F63008339BB21BB25A4219
:104A100003F0070302F0070258BF53421BB2A7F886
:104A2000F630B7F8F8307A681A44B7F8F630102143
:104A30001846FBF7EFFD03469BB2A7F85C30B7F8CA
:104A40005C301946C6481DF08DFDB7F9F6301033BD
:104A5000002B00DA0733DB109AB2B7F8F8301344B2
:104A6000A7F8F830B7F8F63010339BB21BB25A42B1
:104A700003F0070302F0070258BF53421BB2A7F826
:104A8000F630B7F8F8307A681A44B7F8F6301021E3
:104A90001846FBF7BFFD03469BB2A7F85A30B7F89C
:104AA0005A301946AF481DF05DFDB7F9F6301033A6
:104AB000002B00DA0733DB109AB2B7F8F830134452
:104AC000A7F8F830B7F8F63010339BB21BB25A4251
:104AD00003F0070302F0070258BF53421BB2A7F8C6
:104AE000F630B7F8F8307A681A44B7F8F63008218B
:104AF0001846FBF78FFD0346DBB287F82530B7F980
:104B0000F6300833002B00DA0733DB109AB2B7F81F
:104B1000F8301344A7F8F830B7F8F63008339BB2F2
:104B20001BB25A4203F0070302F0070258BF534278
:104B30001BB2A7F8F630B7F8F8307A681A44B7F81D
:104B4000F63008211846FBF765FD0346DBB287F80F
:104B50002630B7F9F6300833002B00DA0733DB10C4
:104B60009AB2B7F8F8301344A7F8F830B7F8F6302F
:104B700008339BB21BB25A4203F0070302F007024C
:104B800058BF53421BB2A7F8F630B7F8F8307A682E
:104B90001A44B7F8F63008211846FBF73BFD0346E8
:104BA000DBB287F83630B7F9F6300833002B00DA7D
:104BB0000733DB109AB2B7F8F8301344A7F8F8308F
:104BC000B7F8F63008339BB21BB25A4203F0070322
:104BD00002F0070258BF53421BB2A7F8F630B7F8ED
:104BE000F8307A681A44B7F8F63010211846FBF707
:104BF00011FD03469BB23B85B7F9F6301033002B0D
:104C000000DA0733DB109AB2B7F8F8301344A7F88C
:104C1000F830B7F8F63010339BB21BB25A4203F0AB
:104C2000070302F0070258BF53421BB2A7F8F63041
:104C30003B8D03F02003002B00F0FE80B7F8F83026
:104C40007A681A44B7F8F63008211846FBF7E2FCF8
:104C50000346DBB287F82130B7F9F6300833002B72
:104C600000DA0733DB109AB2B7F8F8301344A7F82C
:104C7000F830B7F8F63008339BB21BB25A4203F053
:104C8000070302F0070258BF53421BB2A7F8F630E1
:104C9000B7F8F8307A681A44B7F8F63008211846A1
:104CA000FBF7B8FC0346DBB287F82030B7F9F630E3
:104CB0000833002B00DA0733DB109AB2B7F8F8306C
:104CC0001344A7F8F830B7F8F63008339BB21BB29C
:104CD0005A4203F0070302F0070258BF53421BB2C7
:104CE000A7F8F630B7F8F8307A681A44B7F8F63013
:104CF00008211846FBF78EFC0346DBB2FB77B7F9B9
:104D0000F6300833002B00DA0733DB109AB2B7F81D
:104D1000F8301344A7F8F830B7F8F63008339BB2F0
:104D20001BB25A4203F0070302F0070258BF534276
:104D30001BB2A7F8F630B7F8F8307A681A44B7F81B
:104D4000F63008211846FBF765FC0346DBB23B77DB
:104D5000B7F9F6300833002B06DA073304E000BF5A
:104D6000444002084C400208DB109AB2B7F8F83011
:104D70001344A7F8F830B7F8F63008339BB21BB2EB
:104D80005A4203F0070302F0070258BF53421BB216
:104D9000A7F8F630B7F8F8307A681A44B7F8F63062
:104DA00008211846FBF736FC0346DBB27B77B7F9E0
:104DB000F6300833002B00DA0733DB109AB2B7F86D
:104DC000F8301344A7F8F830B7F8F63008339BB240
:104DD0001BB25A4203F0070302F0070258BF5342C6
:104DE0001BB2A7F8F630B7F8F8307A681A44B7F86B
:104DF000F63008211846FBF70DFC0346DBB2BB7703
:104E0000B7F9F6300833002B00DA0733DB109AB21B
:104E1000B7F8F8301344A7F8F830B7F8F63008338D
:104E20009BB21BB25A4203F0070302F0070258BFBD
:104E300053421BB2A7F8F6303B8D03F00803002B5A
:104E400002D0012387F8FB30B7F8F8307A681A44AB
:104E5000B7F8F63008211846FBF7DCFB0346DBB257
:104E600087F83730B7F9F6300833002B00DA07330C
:104E7000DB109AB2B7F8F8301344A7F8F830B7F857
:104E8000F63008339BB21BB25A4203F0070302F01C
:104E9000070258BF53421BB2A7F8F63097F83730D5
:104EA00019464B481DF05EFBB7F8F8307A681A4493
:104EB000B7F8F63008211846FBF7ACFB0346DBB227
:104EC00087F83830B7F9F6300833002B00DA0733AB
:104ED000DB109AB2B7F8F8301344A7F8F830B7F8F7
:104EE000F63008339BB21BB25A4203F0070302F0BC
:104EF000070258BF53421BB2A7F8F63097F8373075
:104F000003F0070387F8FD3097F8FD30002B07D03A
:104F100097F83730DB08DBB2013387F8FD3004E067
:104F200097F83730DB0887F8FD300023A7F8FE300C
:104F300040E0B7F8F8307A681A44B7F8F63008213C
:104F40001846FBF767FB0246B7F8FE30D2B203F50E
:104F500080733B4403F8C72CB7F8FE10B7F8FE3057
:104F600003F580733B4413F8C73C1A4619481DF0FB
:104F7000F9FAB7F9F6300833002B00DA0733DB1003
:104F80009AB2B7F8F8301344A7F8F830B7F8F6300B
:104F900008339BB21BB25A4203F0070302F0070228
:104FA00058BF53421BB2A7F8F630B7F8FE300133B2
:104FB000A7F8FE3097F8FD309BB2B7F8FE209A4272
:104FC000B7D30A201DF0E6FA0023A7F8FE3037E039
:104FD0005C45020864450208B7F8F8307A681A445C
:104FE000B7F8F63008211846FBF714FB0246B7F86D
:104FF000FE30D2B203F580733B4403F8B72CB7F907
:10500000F6300833002B00DA0733DB109AB2B7F81A
:10501000F8301344A7F8F830B7F8F63008339BB2ED
:105020001BB25A4203F0070302F0070258BF534273
:105030001BB2A7F8F630B7F8FE300133A7F8FE3000
:1050400097F838309BB2B7F8FE209A42C4D307F1E4
:10505000080301331022002118461DF09BF997F830
:10506000FD2007F13403591D07F1080301331846E9
:105070001DF068F997F8FD301AB207F10803013303
:10508000194600200DF0D2FD03467B8397F8FD30D2
:105090007B76BB783B72BB785C4A134493F82D3027
:1050A000012B77D197F8FB30012B73D1798BBA782C
:1050B000574813469B0013449B00034412331B883C
:1050C000994267D0BA7813469B0013449B00504A1C
:1050D000134401331022002118461DF05BF9BA7801
:1050E00013469B0013449B00494A134407F10801EF
:1050F000142218461DF026F9BB784649D7F8E82057
:1051000041F82320BB78444A32F81310BA7840485B
:1051100013469B0013449B00034412331B8899429F
:1051200038D0BA78B9783A4813469B0013449B00AC
:10513000034412331A88384B23F81120142200211B
:1051400036481DF027F9BA7813469B0013449B009C
:105150002F4A13441422194630481DF0F3F84FF437
:1051600002700AF08FF9BB782D4A32F81330002B09
:1051700010D1BB781B012B4A1344981CBA781346F4
:105180009B0013449B00224A13440133102219460A
:105190001DF0D8F8BA78244913465B001344DB00AD
:1051A0000B44BA781A70BA781F4913465B0013444F
:1051B000DB000B44013301221A70182200211B4826
:1051C0001DF0E8F8BA7813465B001344DB00164A7A
:1051D00013441822194615481DF0B4F840F2022075
:1051E0000AF050F9BA78104913465B001344DB000B
:1051F0000B44013300221A70BB780D49D7F8E82020
:1052000041F8232007F58077BD4680BD04030020C8
:10521000801E0020D80E0020000F0020102000204B
:10522000C40E0020E4100020741600205418002042
:10523000440E002090B595B000AF78600846114646
:105240001A460346FB700B46BB7013467B70002367
:10525000BB6007F10C032422002118461DF09AF8C8
:10526000002387F84F3000233B640023BB640023F6
:1052700087F8473010F06CF9F863002387F83B306B
:1052800000233B870023FB869A499B48FAF7D8FF07
:105290000346002B00F02C81984B1B6803F00103A0
:1052A000002B2CD0954B1B79BA789A4227D100233A
:1052B0003B63934814F0FEFD0246924BA3FB02139E
:1052C000D90B0B461B045B1AD31A3B638E481DF0A7
:1052D000E5F9BB788D4A1B01134408331B68194656
:1052E0008B481DF03FF9396B8A481DF03BF907F1F7
:1052F00008023B6B18210020FBF718FA0BE0BB7883
:10530000824A1B01134408331B6807F10802182165
:105310000020FBF70BFA002387F84F3010E097F8D6
:105320004F307A681A4497F84F300333127850336D
:105330003B4403F8482C97F84F30013387F84F303F
:1053400097F84F20FB78053B9A42E8DB97F84F30FF
:105350009BB203339AB207F10803114618460DF0C9
:105360001FFD3864FB78053B7A681A44FB8E2021C8
:105370001846FBF74FF9B8643A6CBB6C9A4200F0E0
:10538000DF807B6805331A4608210020FBF742F9CD
:10539000034687F83B3097F83B30002B04D097F852
:1053A0003B30012B40F09080BB785B4A66339B001A
:1053B00013445B68194659481DF0D4F807F10803F7
:1053C0002822002118461CF0E5FFBB784F4A1B013C
:1053D000134408331B68013307F108021821002029
:1053E000FBF7A4F9002387F84F3010E097F84F300F
:1053F0007A681A4497F84F300333127850333B449D
:1054000003F8482C97F84F30013387F84F3097F85E
:105410004F20FB78053B9A42E8DB97F84F309BB270
:1054200003339AB207F10803114618460DF0B8FC91
:1054300038643A6CBB6C9A4232D139481DF02EF96F
:10544000BB78324A1B01134408331B6819463548A0
:105450001DF088F8BB782D491A010A4408321268F9
:1054600001322A491B010B4408331A60BB78274AD2
:105470001B01134408331B6819462B481DF072F8B2
:10548000BB78BA7821491B010B44083319682748B7
:1054900013465B001344DB0003440833196050E0FB
:1054A000BB781D4A66339B0013445B68194620484D
:1054B0001DF058F8B96C1F481DF054F8396C1E489F
:1054C0001DF050F800F02CBCBB78134A66339B00EB
:1054D00013445B68194619481DF044F8B96C154827
:1054E0001DF040F8396C14481DF03CF800F018BC71
:1054F00000BF26E0103D0208050300205C190020D3
:105500007C9C00200180008074450208C4110020AA
:10551000944502085C42020804030020B8450208D2
:10552000A0420208DC450208F44502087416002077
:105530000C460208543F0208643F02082C46020849
:1055400000BFB7F936300833002B00DA0733DB1021
:105550009AB23B8F13443B87FB8E08339BB21BB23E
:105560005A4203F0070302F0070258BF53421BB22E
:10557000FB863B8F7A681A44FB8E10211846FBF796
:1055800049F80346BA7898B2AB4913465B00134416
:105590009B000B44063302461A80B7F936301033AD
:1055A000002B00DA0733DB109AB23B8F13443B87A2
:1055B000FB8E10339BB21BB25A4203F0070302F07A
:1055C000070258BF53421BB2FB863B8F7A681A44CE
:1055D000FB8E10211846FBF71DF80346BA7898B2E7
:1055E000954913465B0013449B000B440433024669
:1055F0001A80B7F936301033002B00DA0733DB108E
:105600009AB23B8F13443B87FB8E10339BB21BB285
:105610005A4203F0070302F0070258BF53421BB27D
:10562000FB863B8F7A681A44FB8E08211846FAF7EE
:10563000F1FF0246BB78D1B2804A1B01134402330A
:105640000A461A70B7F936300833002B00DA0733F0
:10565000DB109AB23B8F13443B87FB8E08339BB21F
:105660001BB25A4203F0070302F0070258BF53422D
:105670001BB2FB863B8F7A681A44FB8E08211846C2
:10568000FAF7C8FF0246BB78D1B26C4A1B0113443B
:1056900001330A461A70BB78684A1B011344013370
:1056A0001B78002B38D1BB78654A66339B001344C6
:1056B0005B68194663481CF055FFBB785F4A1B01C5
:1056C00013440C331B6819465F481CF04BFFBB7832
:1056D0005A491A010A440C321268013257491B0117
:1056E0000B440C331A60BB78544A1B0113440C332F
:1056F0001B68194655481CF035FFBB78BA784F49EE
:105700001B010B440C331968514813465B001344CA
:10571000DB0003440C331960B7F936300833002B33
:1057200000DA0733DB109AB23B8F13443B87FB8EC2
:1057300008339BB21BB25A4203F0070302F0070280
:1057400058BF53421BB2FB863B8F7A681A44FB8ECC
:1057500008211846FAF75EFF0346BA78D8B23649F0
:1057600013465B0013449B000B44023302461A703D
:10577000B7F936300833002B00DA0733DB109AB262
:105780003B8F13443B87FB8E08339BB21BB25A42BC
:1057900003F0070302F0070258BF53421BB2FB8617
:1057A0003B8F7A681A44FB8E10211846FAF732FFB5
:1057B0000246BB7891B2214A1B01134404330A46C6
:1057C0001A8024492448FAF73BFD0346002B0FD1E9
:1057D000BB781A4A1B01134404331A88BB7842F081
:1057E000080291B2154A1B01134404330A461A8079
:1057F000B7F936301033002B00DA0733DB109AB2DA
:105800003B8F13443B87FB8E10339BB21BB25A4233
:1058100003F0070302F0070258BF53421BB2FB8696
:10582000BB78064A1B01134404331B8803F0200392
:10583000002B00F02F8111E0FC150020C411002086
:105840000403002058430208444602085046020858
:1058500074160020103D0208050300203B8F7A6873
:105860001A44FB8E08211846FAF7D4FE0346BA788C
:10587000D8B2844913465B0013445B000B440533E4
:1058800002461A70B7F936300833002B00DA0733B6
:10589000DB109AB23B8F13443B87FB8E08339BB2DD
:1058A0001BB25A4203F0070302F0070258BF5342EB
:1058B0001BB2FB863B8F7A681A44FB8E0821184680
:1058C000FAF7A8FE0346BA78D8B26E4913465B00D1
:1058D00013445B000B44043302461A70B7F93630A8
:1058E0000833002B00DA0733DB109AB23B8F1344E6
:1058F0003B87FB8E08339BB21BB25A4203F007036F
:1059000002F0070258BF53421BB2FB863B8F7A68F6
:105910001A44FB8E08211846FAF77CFE0346BA7833
:10592000D8B2584913465B0013445B000B44033361
:1059300002461A70B7F936300833002B00DA073305
:10594000DB109AB23B8F13443B87FB8E08339BB22C
:105950001BB25A4203F0070302F0070258BF53423A
:105960001BB2FB863B8F7A681A44FB8E08211846CF
:10597000FAF750FE0346BA78D8B2424913465B00A4
:1059800013445B000B4402461A70B7F936300833F3
:10599000002B00DA0733DB109AB23B8F13443B87AE
:1059A000FB8E08339BB21BB25A4203F0070302F08E
:1059B000070258BF53421BB2FB863B8F7A681A44DA
:1059C000FB8E08211846FAF725FE0346BA78D8B2AE
:1059D0002C4913465B0013445B000B440133024621
:1059E0001A70B7F936300833002B00DA0733DB10B2
:1059F0009AB23B8F13443B87FB8E08339BB21BB29A
:105A00005A4203F0070302F0070258BF53421BB289
:105A1000FB863B8F7A681A44FB8E08211846FAF7FA
:105A2000F9FD0346BA78D8B2164913465B00134411
:105A30005B000B44023302461A70B7F93630083364
:105A4000002B00DA0733DB109AB23B8F13443B87FD
:105A5000FB8E08339BB21BB25A4203F0070302F0DD
:105A6000070258BF53421BB2FB86BB78184602F0B0
:105A700053FF0346002B09D0BB78034A0021D154C1
:105A800008E000BF88110020D8100020BB78A64A8B
:105A90000121D154BB78A54A1B01134404331B8850
:105AA00003F00803002B02D0012387F847307A78EF
:105AB000BB781146184600F059F9BB789C49FA6B3F
:105AC00041F82320BB789B49FA6B41F82320BA7830
:105AD000994913465B001344DB000B4410331B68E9
