:020000040800F2
:1000000000000820E1CA000871C3000873C300089B
:1000100075C3000877C3000879C30008000000001A
:100020000000000000000000000000007BC300088A
:100030007DC30008000000007FC3000881C30008E2
:1000400031CB000831CB000831CB000831CB0008A0
:1000500031CB000831CB000885C300088BC30008F2
:1000600031CB000831CB000831CB000831CB000880
:1000700031CB000831CB000831CB000831CB000870
:1000800031CB000831CB000831CB000831CB000860
:1000900031CB000831CB000831CB000831CB000850
:1000A00031CB000831CB000831CB000831CB000840
:1000B00031CB000831CB000891C3000831CB0008D8
:1000C00031CB000831CB000831CB000831CB000820
:1000D00031CB00089DC3000831CB000831CB0008AC
:1000E00031CB000831CB000831CB000831CB000800
:1000F00031CB000831CB000831CB000831CB0008F0
:1001000031CB000831CB0008A9C3000831CB00086F
:10011000B5C30008C1C30008CDC30008D9C3000897
:1001200031CB000831CB000831CB000831CB0008BF
:1001300031CB0008E5C3000831CB000831CB000803
:10014000F1C30008FDC3000831CB000831CB000823
:1001500031CB000831CB000831CB000831CB00088F
:1001600031CB000831CB000831CB000831CB00087F
:1001700031CB000831CB000831CB00080000000073
:1001800031CB000831CB000801C4000831CB000896
:1001900031CB000831CB000831CB000831CB00084F
:1001A00031CB000831CB000831CB000831CB00083F
:1001B00031CB000831CB000831CB000831CB00082F
:1001C00031CB000831CB000831CB000831CB00081F
:1001D00031CB000831CB000831CB000831CB00080F
:1001E00031CB00080DC4000819C4000831CB000849
:0801F00031CB000831CB0008FF
:1002000010B5054C237833B9044B13B10448AFF350
:1002100000800123237010BDDC03002000000000DB
:100220007056010808B5034B1BB103490348AFF3EF
:10023000008008BD00000000E003002070560108A7
:1002400010F8012B11F8013B012A28BF9A42F7D080
:10025000D01A7047034613F8012B002AFBD1181A55
:10026000013870470000000000000000000000009E
:1002700001F0FF01102A2BDB10F0070F08D010F857
:10028000013B013A8B422DD010F0070F42B3F6D15B
:10029000F0B441EA012141EA014122F007047FF074
:1002A00000070023F0E80256083C85EA010586EACB
:1002B000010685FA47F5A3FA87F586FA47F6A5FA07
:1002C00087F68EB9EED1F0BC01F0FF0102F0070213
:1002D00032B110F8013B013A83EA010313B1F8D1BE
:1002E0000020704701387047002D06BF354603389F
:1002F000073815F0010F07D1013015F4807F02BFD8
:10030000013015F4C03F0130F0BC0138704700BF28
:1003100053B94AB9002908BF00281CBF4FF0FF316C
:100320004FF0FF3000F074B9ADF1080C6DE904CE68
:1003300000F006F8DDF804E0DDE9022304B07047C0
:100340002DE9F047089D04468E46002B4DD18A4288
:10035000944669D9B2FA82F252B101FA02F3C2F1BB
:10036000200120FA01F10CFA02FC41EA030E94404C
:100370004FEA1C48210CBEFBF8F61FFA8CF708FB6D
:1003800016E341EA034306FB07F199420AD91CEB45
:10039000030306F1FF3080F01F81994240F21C8177
:1003A000023E63445B1AA4B2B3FBF8F008FB1033BF
:1003B00044EA034400FB07F7A7420AD91CEB0404F4
:1003C00000F1FF3380F00A81A74240F207816444C4
:1003D000023840EA0640E41B00261DB1D440002349
:1003E000C5E900433146BDE8F0878B4209D9002DAD
:1003F00000F0EF800026C5E9000130463146BDE837
:10040000F087B3FA83F6002E4AD18B4202D38242A0
:1004100000F2F980841A61EB030301209E46002D4F
:10042000E0D0C5E9004EDDE702B9FFDEB2FA82F2A4
:10043000002A40F09280A1EB0C014FEA1C471FFA02
:100440008CFE0126200CB1FBF7F307FB131140EAE9
:1004500001410EFB03F0884208D91CEB010103F1B6
:10046000FF3802D2884200F2CB804346091AA4B278
:10047000B1FBF7F007FB101144EA01440EFB00FE4C
:10048000A64508D91CEB040400F1FF3102D2A645B1
:1004900000F2BB800846A4EB0E0440EA03409CE750
:1004A000C6F12007B34022FA07FC4CEA030C20FAFD
:1004B00007F401FA06F31C43F9404FEA1C4900FA1D
:1004C00006F3B1FBF9F8200C1FFA8CFE09FB18119A
:1004D00040EA014108FB0EF0884202FA06F20BD90D
:1004E0001CEB010108F1FF3A80F08880884240F25D
:1004F0008580A8F102086144091AA4B2B1FBF9F0A1
:1005000009FB101144EA014100FB0EFE8E4508D99B
:100510001CEB010100F1FF346CD28E456AD9023820
:10052000614440EA0840A0FB0294A1EB0E01A14205
:10053000C846A64656D353D05DB1B3EB080261EB73
:100540000E0101FA07F722FA06F3F1401F43C5E94D
:10055000007100263146BDE8F087C2F12003D84083
:100560000CFA02FC21FA03F3914001434FEA1C47C5
:100570001FFA8CFEB3FBF7F007FB10360B0C43EAB7
:10058000064300FB0EF69E4204FA02F408D91CEB67
:10059000030300F1FF382FD29E422DD90238634465
:1005A0009B1B89B2B3FBF7F607FB163341EA034105
:1005B00006FB0EF38B4208D91CEB010106F1FF3854
:1005C00016D28B4214D9023E6144C91A46EA00464B
:1005D00038E72E46284605E70646E3E61846F8E6DD
:1005E0004B45A9D2B9EB020864EB0C0E0138A3E726
:1005F0004646EAE7204694E74046D1E7D0467BE707
:10060000023B614432E7304609E76444023842E77E
:10061000704700BF10B54418A4B2082C12D8C0F11E
:100620000700002380B2127842EA0322C1F10103DD
:100630001844134B80B253F821308340134023FAFF
:1006400000F010BD102C08D8C0F10F00002480B2BB
:1006500012F8013B43EA0423E5E7182C137887BF1F
:1006600001321C46C0F11700002488BFC0F11F00F2
:1006700012F8013B94BF80B280B243EA0424E7E75A
:100680008C560108F0B54518ADB2082D24D8C0F13C
:10069000070014460125002680B22478032D44EA81
:1006A0000624214E56F82160C1F10101084403EAF5
:1006B000060380B206FA00F103FA00F024EA010111
:1006C00040EA01002CD0042D27D0022D02D1030ACC
:1006D00002F8013B1070F0BD102D0AD8C0F10F00D8
:1006E00014460225002780B214F8016B46EA07265B
:1006F000D3E7182D17780AD8C0F117001446032540
:10070000002780B214F8016B46EA0727ECE7C0F136
:100710001F00541C042580B2F4E7030E02F8013BCD
:10072000030C02F8013BD2E78C56010810B52423D4
:100730001C4C1D492370012304F1320063703023E7
:10074000A3704023E370C02323714E2363712623DB
:10075000A37113F0AEFD154904F1640013F0A9FD77
:10076000134904F1960013F0A4FD124904F1C800E6
:1007700013F09FFD104904F1FA0013F09AFD0F49A0
:1007800004F5967013F095FD0D4904F5AF7013F064
:1007900090FD0C4904F5C87013F08BFD0A4B09223B
:1007A0001A7010BDFD030020105701081B570108E7
:1007B0002B5701083B5701084E57010861570108A4
:1007C000745701087E570108FC03002007B54FF657
:1007D000FF7301A901900122074810F080F8074B30
:1007E0000222186800238068194613F06DFC0198F6
:1007F00003B05DF804FB00BF4CD900203802002094
:1008000010B508210E480DF06BFD1021B0FA80F4F0
:100810000B480DF065FD00284FEA54144FF40051C9
:100820000CBF02200020044306480DF059FD0028AB
:10083000054B0CBF0420002004431C7010BD00BFFA
:100840000028024000200240A01200200D4B2DE99C
:10085000F041074693F800800B4C0026F5B2A845FE
:1008600001D8FF250BE020460136FFF7F3FC2146B7
:1008700002463846323413F005FB0028EED12846F4
:10088000BDE8F081FC030020FD03002030B5002509
:100890009BB06022294602A8019513F02BFB6B4BFD
:1008A000186807F081F909280AD81BB030BD00206C
:1008B0000CF066F804F168030DEB030404F8640C13
:1008C0000020ECB20CF048F801350028EFD1002CE4
:1008D000EBD004F1680301A90DEB030505F8640CE6
:1008E0005B4813F00FFB214601A8FFF7AFFF092873
:1008F00000F2A980DFE800F0050C284359718191CE
:100900009A9F544B012254481A7013F097FBCCE77E
:1009100004F16703514952480DEB030414F8642CA9
:10092000303A13F0EFFA14F8643C303BDBB2012BA1
:1009300006D84C4A137040F2052007F087FCB4E754
:10094000494813F07BFBF6E704F167034749484841
:100950000DEB030414F8642C303A13F0D3FA454835
:1009600013F06CFB444B14F8642C1968303A41F0D6
:1009700010011A711960414813F0C4FADBE704F161
:1009800067033F493A480DEB030414F8642C303AEE
:1009900013F0B8FA3B4813F051FB14F8643C364AA4
:1009A0002021303B11601371E5E704F167033649FC
:1009B0002F480DEB030414F8642C303A13F0A2FA1C
:1009C000324813F03BFB2C4B1A6842F400721A6059
:1009D00014F8642C303A1A71ADE704F167032C491E
:1009E00023480DEB030414F8642C303A13F08AFA10
:1009F000214B1A6842F00102E9E704F16703254937
:100A00001B480DEB030414F8642C303A13F07AFA07
:100A1000194B1A6842F00202D9E71F491F4813F028
:100A200071FA0022144B1A60FF22D4E71C491D48BA
:100A300013F068FA39E715F8652C1B49303A0C4871
:100A400013F060FA31E708485FE700BFB4C7002041
:100A500083570108EA0B0020995701082F04002052
:100A6000D9570108EB0B0020EB5701086104002067
:100A7000055801081E580108642900202D58010856
:100A80009304002040580108C50400205058010874
:100A9000F7040020290500205B0500206B580108A1
:100AA0008D05002078580108BF05002070B5104C56
:100AB000206807F079F8B0F57A6F18D90D4D0E4E11
:100AC0002B8832889A420BD053B10C4813F0B6FAF7
:100AD00031880B4813F016FA29880A4813F012FAE5
:100AE00040F2092007F0B2FB0CF028F9206070BD3D
:100AF000F8030020E60B0020E80B00208D580108C9
:100B0000AF580108BE5801082DE9F84FDFF8C4912D
:100B10000025DFF8C4814F462C464E46DFF8BCB1B5
:100B200017F8013B2BB908EB050202212046FFF71D
:100B3000A9FD17F8013C012B05D108EB05020221A4
:100B40002046FFF79FFD17F8013C022B05D108EB6B
:100B5000050219462046FFF795FD17F8013C032BC7
:100B600005D108EB050202212046FFF78BFDDBF8DB
:100B7000000007F019F843F6982398420FD917F8A8
:100B8000013C63B1032308EB050202212046FFF775
:100B900079FD444B012244481A6013F0B3F9023442
:100BA000E4B2082C03D101350024EDB2B8E7072DDB
:100BB000B6D1062CB4D1002119F8012BCBB20131EA
:100BC000013A022AF8D8394A4FF0000A384DDFF8C6
:100BD0001091DFF81081137089F8003088F8003028
:100BE0002B78344F0133344C34482B7087F800A0F5
:100BF00013F024FA2378042B11D1314B1A78012AEF
:100C00000DD1DBF8000006F0CFFF42F6E0622C4B7E
:100C1000904204D92B4883F800A013F073F92B7885
:100C2000DFF880A0FA2B16D106232B703B78043B0B
:100C3000012B1FD82378042B1CD1DAF80030012BAC
:100C40002BD8214813F0FAF9002302222B702270CE
:100C50003360B38012E0043B012BE7D82378022BEA
:100C6000E4D11A4813F0EAF9002304223B70227001
:100C70003360B380DAF80030012BDED84FF47A62AB
:100C80000021134813F036F90023084A89F8003090
:100C900088F800301370BDE8F88F0133CAF80030CF
:100CA000CFE700BFE8130020CE58010898230020AA
:100CB000A9120020D613002000020020405901088C
:100CC0000102002086590108DF590108AE590108C8
:100CD000F4130020DF130020D713002094230020FA
:100CE000992300209A23002010B5074C206806F0B5
:100CF0005BFF41F65833984204D9FFF705FF0CF02B
:100D00001DF8206010BD00BF9C230020FF2301447C
:100D100070B51C46064D074E884202D143EA0420B6
:100D200070BD10F8012B5A40AB5C6340B45CF3E734
:100D3000000000200001002038B505460C46FFF7F2
:100D4000E5FF2B195A782B5D43EA02231B1A584200
:100D5000584138BD2DE9F84380460D46334E344C9A
:100D60005FFA88F738460BF0F7FD002851D0384677
:100D70000BF006FE33780B3B032B53D8DFE803F070
:100D800002111B29431EDBB21E2BE9D80E28E7D027
:100D9000284B294A18701368013313600C233370F1
:100DA000DEE70328DCD1254B234A18701368013392
:100DB00013600D23F3E71C281F4B06D1204A107047
:100DC0001A6801321A600E23E9E700221A600B2329
:100DD000E5E7184B184F1B782B70184B1B786B707E
:100DE000174B1B78AB703B68202BE8549CBF01333A
:100DF0003B60D7F80090B9F1210FB1D128461F21EF
:100E0000FFF79AFF0B25044628B1002348463570AA
:100E10003B60BDE8F8830B4813F010F920463570AD
:100E20003C60F6E7204613F06DF899E702020020D7
:100E3000175A0108EC130020F0130020ED130020D6
:100E4000EE1300200B5A010870B5224D4FF4967234
:100E500001202946FFF77EFF00283AD02C78631E38
:100E60001E2B32D8AB7DFF2B06D11B4B0022214617
:100E70001A481A5513F046F8AB7DBF2B0CD1164B10
:100E80000122214616481A5513F03CF8154B1A68F2
:100E9000012A04BF02221A60AB7D7F2B0BD10E4BBF
:100EA0000226214610481E5513F02CF80D4B1A68E7
:100EB000012A08BF1E60AB7D3F2B06D1064B0322E3
:100EC00021460A481A5513F01DF80BF037FF084B5E
:100ED000186070BDAA120020DF130020225A0108FA
:100EE0006C5A0108E8130020B55A0108015B01089B
:100EF000942300202DE9F04105460BF01FFF2F4BF6
:100F000006465A1992F82D20022A16D018222C4C87
:100F10006A43144494F80380B8F1000F1ED12949A4
:100F20000A44D6785EB922793AB103EB85032648A4
:100F3000D3F89C1112F0E6FF2671BDE8F081012E76
:100F4000FBD12279002AF8D003EB85031F48D3F8A0
:100F50009C1112F0D7FF84F80480EEE7B8F1010F7E
:100F6000EBD118490A44D7788FB92279012AE4D005
:100F700003EB85031648D3F89C1112F0C3FF154B01
:100F8000276143F82560144B43F82560E3E7012F00
:100F9000D3D12279012AD0D003EB85030F48D3F8AF
:100FA0009C1112F0AFFF0B4B277143F825600A4BE1
:100FB00043F8256000232361BFE700BF480F0020EE
:100FC00088350020D03200204C5B0108865B010888
:100FD000BF5B0108402D0020682D0020F75B010851
:100FE0002DE9F843DFF83C81044608EB000393F851
:100FF0002D30022B72D018223C4D3D4E4243A91891
:1010000032448B689268934231D082B309790129C6
:1010100002D13849095C51BB9B1A374A002BB8BF33
:101020005B42012B02D1135D032B59D118270023FA
:1010300032486743135508EB840305EB070937442F
:10104000D3F89C1112F05EFFD9F808102C4812F06A
:1010500059FFB9682B4812F055FF2B4812F0EEFFEC
:101060002A4BBA6803EB0413C9F808209A601822C7
:101070006243A9183244CB68D26893422ED06AB337
:101080000979012902D11B49095D39BB9B1A204A04
:10109000002BB8BF5B42012B02D1135D032B22D181
:1010A0001827002308EB84081A48674313553D446A
:1010B000D8F89C113E4412F025FFE968164812F05A
:1010C00021FFF168154812F01DFF154812F0B6FF18
:1010D0000E48F36800EB0414EB60E360BDE8F883AE
:1010E00001331355C3E701331355F7E78835002063
:1010F000D03200202E2A0020E8230020315C010895
:10110000735C0108975C0108BB5C0108842900201E
:10111000F2230020E35C0108255D0108495D010818
:101120006D5D0108480F0020F8B50024164D174FDB
:10113000E6B295F82030B34224D957F8260001349E
:1011400006F032FDD5F818329842F1D9182310492B
:1011500000220C2073430F4DCC18CE5462700E4AFF
:1011600000FB06225278A2700FCC0FC594E8030052
:1011700085E8030040F2012007F068F80BF0DEFD7F
:1011800047F82600F8BD00BF480F0020B03400200B
:10119000883500206C350020EC28002038B5054645
:1011A0000024E3B20134E95C01B938BD00200BF042
:1011B0000BFCF6E7F0B5ADF5057D0E4600210446C3
:1011C000174605A84FF4FE72049112F093FE76B311
:1011D0004F48FFF7E3FF621C10210020FFF71AFAC7
:1011E0004C49024604A813F035F804A8FFF7D6FFCF
:1011F000E21C10210020FFF70DFA4749024604A81F
:1012000013F028F804A8FFF7C9FFE21D0821002009
:10121000FFF700FA05464148FFF7C0FFE8B2013882
:10122000052866D8DFE800F0055F656165633C4826
:10123000CFE7002E55D03B48FFF7B0FF3A48FFF705
:10124000ADFF621D08210020FFF7E4F9374902468F
:1012500004A812F0FFFF04A8FFF7A0FFA21D0821B9
:101260000020FFF7D7F93249024604A812F0F2FF36
:1012700004A8FFF793FF04F1080210210020FFF7F4
:10128000C9F92C4982B2054604A812F0E3FF04A86C
:10129000FFF784FFAB062ED5E37B04A8A27A039365
:1012A000A37B25490293637B0193237B0093E37A1D
:1012B00012F0D0FF04A8FFF771FF204B1B78012B21
:1012C0000CD127441E4DBC4217D13EB9F6221C4911
:1012D00004A812F0BFFF04A8FFF760FF0DF5057D1D
:1012E000F0BD1848A8E71848A6E71848A4E718482A
:1012F000A2E71848A0E71848DDE714F8012B2946B3
:1013000004A812F0A7FF04A8FFF748FFDBE700BF1F
:10131000955D01089D5D0108A55D0108AD5D0108B1
:10132000995D0108B15D0108975D0108DC5D010868
:10133000E65D0108F05D0108FA5D0108EB0B002095
:101340005F690108B85D0108BF5D0108C35D010860
:10135000C75D0108CB5D01081C5E01082DE9F04363
:101360009BB006460F460021154602A86022019157
:1013700012F0C0FD3378B4464FF0F00E8DF8043013
:10138000012318465C1C03F16802B842E4B20DEB7D
:10139000020151D3F623DFF8F09001F8643C19F80C
:1013A0000530012B0AD1334B93F8803033B9324BDF
:1013B0001B78012B02D13148FFF7F0FEDFF8CC801B
:1013C00008EB050393F82D30012B09D12C4B214656
:1013D00001A853F8252006F023FD002309F8053065
:1013E000454495F82D30022B06D10DF10408002557
:1013F000A4B2ABB29C4236D81F4D2B78012B02D140
:101400001E48FFF7CBFE1B4C94F8802032B101211F
:101410002046FFF7CFFE002384F880303A460021B3
:101420003046FFF7C7FE2B78012B02D11548FFF796
:10143000B5FE1BB0BDE8F0831CF8012F0130EF2A88
:10144000C0B281BF01F864EC04F16801023302F01C
:101450000F0289BF0DEB010401F8642C04F8642C21
:10146000DCB223468EE718F8011B032001350BF090
:10147000ABFABEE7C0330020EB0B00202F5E010863
:10148000D83100208D5E01089C340020480F0020D8
:101490002DE9F043002791B0044638223946DFF8A1
:1014A000D89202A8019712F025FDF42301AA082181
:1014B00038469F4EFFF7E6F80DF1050209EB84036D
:1014C00010213846D3F89C31FFF7DCF80DF1070204
:1014D00009EB840310213846D3F8C431FFF7D2F862
:1014E00032685107C2F3800340F109813379A34286
:1014F0001BD1C8258F480EF06BF8B0FBF5F303FB4A
:1015000015058D4812F09AFD394601358B4812F0C9
:10151000F9FC8B48EDB2294612F0F4FC2B460DF194
:10152000090208213846FFF7ADF833684FEA04187E
:10153000844F13F0080FC3F3C00000F0E580337947
:10154000A3421BD1C8257B480EF042F8B0FBF5F34F
:1015500003FB15057C4812F071FD07EB08037B487F
:10156000997812F0CFFC2946794812F0CBFC2B4633
:101570000DF10A0208210020FFF784F801230DF184
:101580000B0208210020FFF77DF807EB0805052373
:1015900003AA10210020EB80FFF774F817230DF148
:1015A0000E0208210020FFF76DF801230DF10F0254
:1015B00010210020FFF766F8664B0DF11102202183
:1015C0000020FFF75FF800230DF1150210211846E7
:1015D000FFF758F800230DF1170210211846FFF706
:1015E00051F800230DF1190210211846FFF74AF8AF
:1015F00000230DF11B0210211846FFF743F8AB68DA
:10160000554A07EB08051821002093420DF11D02F1
:101610008CBF03F1FF330133EB60FFF733F818227F
:101620004E4B0821002002FB0433EA68DA604C4B81
:101630001A5DB22A94BF01320A221A5508AA1B5D0C
:10164000FFF720F801230DF1210208210020FFF708
:1016500019F801230DF1220208210020FFF712F8EA
:1016600000230DF1230208211846FFF70BF8336819
:101670009A0653D53379A34250D17D252D480DF0DC
:10168000A7FF4744B0FBF5F303FB1505354812F0FF
:10169000D5FCF9780135344812F034FCFB78EDB212
:1016A0003248AB4204BF023DEDB2294612F02AFC9B
:1016B0002B4609AA08210020FEF7E4FF00230DF1C4
:1016C000250208211846FEF7DDFF222101A808F0B7
:1016D000DDFF0DF12602034620210020FEF7D2FF98
:1016E00033689B051ED53379A3421BD1204812F0E5
:1016F000A5FC204812F006FC11B0BDE8F0830DF106
:101700000902082118460EE707EB08020821937822
:101710000133DBB293700DF10A022DE7A14499F871
:10172000EB30C6E72246262101A8FFF717FEE3E7C4
:1017300064290020A8BB0020EA5E01080D5F0108B3
:101740002C5F0108842900204B5F01086E5F0108AF
:101750008D5F0108AF32E233EFFFFF0088350020D4
:1017600004020020AC5F0108DC5F0108F55F01089E
:101770001060010825600108480F00202DE9F0479E
:101780004FF000089EB004463822414610A89E4DF6
:101790002701CDF83C8012F0ADFB3C224146684663
:1017A0009A4E12F0A7FBF4236A4608214046FEF742
:1017B00069FF0DF1010205EB8403102105EB84059F
:1017C0004046D3F89C31FEF75DFFD5F8C431904D0B
:1017D0000DF1030210214046FEF754FF2B6813F071
:1017E000040F00F0F7802B79A34240F0F3804FF014
:1017F000C80988480DF0ECFEB0FBF9F303FB1909AA
:10180000854812F01BFCF3198448597812F07AFBD2
:101810004946834812F076FB4B4608210DF105023C
:101820000020FEF72FFF2B68190740F1D6802B7997
:10183000A34240F0D2804FF0C80876480DF0C8FEB1
:10184000B0FBF8F303FB1808764812F0F7FBF31926
:101850007548997812F056FB4146744812F052FBD5
:1018600043460DF1060208210020DFF8E081FEF773
:1018700009FF02230DF1070208210020DFF8D0A1A3
:10188000FEF700FF18F80430012B40F0A98004F0A7
:1018900003FC674A04EB440310680AEB43014AF86F
:1018A0001300938863488B8012F0C8FB00206823E4
:1018B00002AA102108F804004FF00609FEF7E2FE24
:1018C0000DF10A02082109FB04F900200AEB0908BE
:1018D00098F80530FEF7D6FE98F804300DF10B02AB
:1018E00008210020FEF7CEFE98F8033003AA082155
:1018F0000020FEF7C7FE1AF809300DF10D0208218D
:101900000020FEF7BFFE98F801300DF10E0208210D
:101910000020FEF7B7FE98F802300DF110080DF127
:101920000F0208210020FEF7ADFE012342460821E8
:101930000020FEF7A7FE00230DF111020821184632
:10194000FEF7A0FE01230DF1120208210020FEF790
:1019500099FE2B689A0748D52B79A34245D12D488B
:101960003E440DF035FE8146334812F067FBF168C6
:10197000324812F0C7FA4946314812F0C3FA4B46D2
:101980000FAA18210020FEF77DFE6A460DF13F03E5
:101990001646083303CE464543F8080C43F8041CAA
:1019A0003246F5D131880FA8B278198016219A7085
:1019B00008F06CFE0DF11302034620210020FEF713
:1019C00061FE2B689B0513D4224617216846FFF75A
:1019D000C5FC16E0F3195B781FE7F3199B7840E725
:1019E000282302AA1021002066E73E44F368C7E7D7
:1019F0002B79A342E8D1134812F020FB124812F0D1
:101A000081FA1EB0BDE8F087480F0020842900202D
:101A100064290020A8BB0020376001085A60010833
:101A2000786001084B5F01086E5F01088D5F010857
:101A3000A43E002097600108AC600108CF60010857
:101A4000F06001081060010825600108B42300203F
:101A5000FC2300202DE9F04F4FF000089FB0044612
:101A60003822414601A8AE4D2601CDF8008012F083
:101A700041FA3822414610A8CDF83C8012F03AFADB
:101A8000F4236A4608214046A64FFEF7FBFD0DF100
:101A9000010205EB8403102105EB84054046D3F8D1
:101AA0009C31FEF7EFFDD5F8C4310DF10302102192
:101AB00040469D4DFEF7E6FD3B6813F0040F00F035
:101AC00001813B79A34240F0FD804FF0C80997485F
:101AD0000DF07EFDB0FBF9F303FB1909944812F0F9
:101AE000ADFAAB199348597812F00CFA494692486E
:101AF00012F008FA4B460DF1050208210020DFF82C
:101B000068A2FEF7BFFD3B6813F0080F00F0DD8010
:101B10003B79A34240F0D9804FF0C80883480DF0CC
:101B200057FDB0FBF8F303FB1808844812F086FA5F
:101B3000AB198348997812F0E5F94146814812F0D3
:101B4000E1F943460DF1060208210020FEF79AFD57
:101B500001238AF8003004230DF107020821002038
:101B6000FEF790FDAB19DFF80482988818F804306E
:101B700010F0080000F0B780012B02AA4FF010010E
:101B80004FF000000CBF68232823FEF77BFDAB1944
:101B90009B88990640F1AF8018F80430DFF8D0B187
:101BA000012B11D104F078FA674A04EB4403106862
:101BB0000BEB43014BF81300938864488B8012F0C1
:101BC0003DFA002308F804304FF006090DF10A022F
:101BD0000821002009FB04F90BEB090898F80530EF
:101BE000FEF750FD98F804300DF10B02082100209B
:101BF000FEF748FD98F8033003AA08210020FEF7FD
:101C000041FD1BF809300DF10D02082100204FF0B5
:101C10001009FEF737FD98F801300DF10E0208218A
:101C20000020FEF72FFD98F802300DF10F02082179
:101C30000020FEF727FD3B689A075FD53B79A3425A
:101C40005CD13A4835440DF0C3FC414BB0FBF3F88E
:101C5000C8EB0848A0EB08283E4812F0EFF9E96805
:101C60003D4812F04FF941463C4812F04BF94346CB
:101C70000FAA18210020FEF705FD0023DAB2013378
:101C80004A4511463DD303310FA808F0FFFC20213F
:101C900003460DEB09020020FEF7F4FC002309F1D6
:101CA00004018AF800303B689B0531D53B79A3429B
:101CB0002ED12B4812F0C2F92A4812F023F91FB096
:101CC000BDE8F08FAB195B7815E7AA190020082151
:101CD00093788AF800000133DBB293700DF10602AD
:101CE000FEF7D0FC37E7012B02AA4FF010010CBF22
:101CF0006423242349E74FF00A099CE73544EB6845
:101D0000B6E778326A4412F8781C02F8391CB5E755
:101D1000224601F0FE016846FFF720FBCFE700BF37
:101D2000480F00206429002084290020A8BB00203F
:101D3000EA5E010813610108306101084B5F010888
:101D40004F6101086C610108A43E00209760010802
:101D500000FFFF00AC600108CF600108F0600108DF
:101D6000106001082560010841340020B4230020E0
:101D7000FC2300202DE9F0434FF0000891B0044609
:101D800038224146744D02A8CDF8048012F0B2F812
:101D9000F42301AA08214046704EFEF773FC0DF1B2
:101DA000050205EB8403102105EB84054046D3F8BA
:101DB0009C312701FEF766FCD5F8C4310DF107020E
:101DC00010214046664DFEF75DFC336813F0040FAA
:101DD00000F0AE803379A34240F0AA804FF0C809EA
:101DE00060480DF0F5FBB0FBF9F303FB19095E4801
:101DF00012F024F9EB195D48597812F083F849463E
:101E00005B4812F07FF84B460DF1090208210020D3
:101E1000FEF738FC33681A0740F18D803379A3420E
:101E200040F089804FF0C8084E480DF0D1FB3D448A
:101E3000B0FBF8F303FB18084E4812F0FFF8A9783E
:101E40004D4812F05FF841464C4812F05BF84346AB
:101E50000DF10A0208210020494DFEF713FC06236C
:101E60000DF10B0208210020DFF82881FEF70AFCA3
:101E70002B5D012B65D104F00FF9424A04EB4403BA
:101E8000106808EB430148F8130093883E488B80A4
:101E900012F0D4F80020692303AA10212855062740
:101EA000FEF7F0FB0DF10E0208216743002008EB5E
:101EB00007056B79FEF7E6FB2B790DF10F02082180
:101EC0000020FEF7DFFBEB7804AA08210020FEF7D4
:101ED000D9FB18F807300DF1110208210020FEF798
:101EE000D1FB6B780DF1120208210020FEF7CAFB2E
:101EF000AB780DF1130208210020FEF7C3FB10217F
:101F000001A808F0C3FB05AA034620210020FEF724
:101F1000B9FB33689B0519D53379A34216D11B4809
:101F200012F08CF81A4811F0EDFF11B0BDE8F08303
:101F3000EB195B7868E73D44AB780133DBB2AB70FB
:101F400086E7292303AA10210020A8E722461421AE
:101F500001A8FFF703FAE8E7480F002064290020F2
:101F600084290020A8BB0020EA5E01081361010853
:101F7000306101084B5F01084F6101086C61010885
:101F8000B4230020A43E00209760010810600108DF
:101F900025600108FC2300202DE9FF47624C002743
:101FA000624812F04BF894F82110614811F0AAFF32
:101FB000D4F818125F4811F0A5FFD4F81C125E483F
:101FC00011F0A0FFD4F820125C4811F09BFFD4F868
:101FD00024125B4811F096FFDFF89481B4F8F610F4
:101FE0005848DFF8909111F08DFFDFF88CA194F83C
:101FF00021104F4811F086FF94F82130FDB2AB421A
:1020000034D894F83A30002694F8382094F83710F1
:1020100000934D4894F8393011F074FF94F844302F
:1020200094F84020029394F8433094F83F100193C1
:1020300094F8423045480093DFF8408194F84130ED
:10204000DFF83C9111F05EFFDFF838A1B4F8F6102C
:102050003F4811F057FF94F82030F5B2AB4223D837
:10206000324804B0BDE8F04711F0E8BF04EB850644
:1020700029464046013796F84E30019396F84D3088
:10208000009396F84C3096F84B2011F03BFFB6F8D1
:10209000FA202946484611F035FFB6F8FC202946BB
:1020A000504611F02FFFA7E7691C404611F02AFFA8
:1020B000484604EB850367190136D3F89C1111F0EB
:1020C00021FF504604EB8503D3F8C41111F01AFF29
:1020D000204804EB4503B3F8EC1111F013FF97F817
:1020E000EB101D4811F00EFF97F823101B4811F05C
:1020F00009FF97F82D101A4811F004FF05F18A0323
:10210000184854F8231011F0FDFE05F194039E3594
:10211000154854F8231011F0F5FE54F82510134813
:1021200011F0F0FE97E700BF480F00208D61010815
:10213000DE61010800620108236201084D620108A6
:1021400079620108A46201080C6301082863010890
:102150008B8201089B630108B7630108CF63010804
:10216000E0630108F36301080E64010827640108B5
:10217000CF620108EC620108FC62010856630108A5
:1021800069630108826301082DE9F0470026214DAB
:10219000DFF89480DFF894A0F4B295F82030A342E1
:1021A00001D8BDE8F08758F8240088B304F19407FB
:1021B00005F0FAFC55F82730984229D95AF824003E
:1021C00005F0F2FC55F82730984221D9DFF86090ED
:1021D00019F80430012B1BD00F4B53F82430B3F502
:1021E0007A7F15D958F82400012705F0DDFC4FF45B
:1021F0007A71B0FBF1F1094811F084FE084B2146D9
:1022000020461F55FFF744F9064B09F804701F5587
:102210000136C1E7480F0020F02C0020416401087E
:102220009C340020242A0020402D0020F42E002081
:10223000422A00202DE9F8430026DFF86080DFF80D
:102240006090154FF4B298F82030A34201D8BDE851
:10225000F883182303FB04931B79012B05D008EBAB
:10226000040393F82D30022B13D13B5D012B10D1C9
:10227000A51C07EB8505686805F096FC322808D98F
:1022800021462046FFF77AFA00233B554FF0FF33F3
:102290006B600136D6E700BFD8340020480F00201D
:1022A000883500202DE9F84300261B4FDFF87880A1
:1022B000DFF8789097F82030F4B2A34201D8BDE857
:1022C000F88358F8240020B3182505FB0495EB7813
:1022D000FBB105F069FC04F18A0357F823309842FA
:1022E00017D907EB84014FF47A720C48D1F89C118E
:1022F000B3FBF2F211F006FE58F82410084811F072
:1023000001FE0AF01BFD0146064811F0FBFD00230B
:10231000EB700136CEE700BF480F00206D64010866
:10232000A0640108CE640108682D002088350020D3
:102330002DE9F041214E0546331893F82330012B47
:1023400002D00120BDE8F0811D4B1B78012BF8D194
:1023500006231C4A4FF46167434302EB0308D05C39
:1023600003F078FE044698F8010003F073FE02B211
:1023700098F80200C2EB0212920007FB042403F05B
:1023800069FE044403F088FE0F4A53781078C3EBCB
:1023900003139900937807FB00111944611A00296F
:1023A000B8BF49420129CCDD06EB85050748D5F8C1
:1023B0009C2111F0A7FD0020C4E700BF480F0020BA
:1023C000502A0020FC230020AA3E0020D9640108E6
:1023D0002DE9F04F0E4605461446DFF8C093053E42
:1023E0002DED028B83B008EE103A0AF0A7FC0746E9
:1023F000B1B2284608F04AF98046AA1920210020E7
:10240000FEF708F98045009013D009EB8404C94811
:10241000D4F89C1111F076FD0099C74811F072FDB7
:102420004146C64803B0BDEC028BBDE8F04F11F049
:1024300069BD04F1F408C24B4FF0010AC14E09EB2B
:10244000480805F11D0203F804A01021002006F839
:1024500004A0FEF7DFF8B8F8042083B283469A425E
:10246000B94B1DD003F804A009EB8403B748D3F897
:102470009C1111F047FDB6481FFA8BF111F042FD97
:10248000B8F80410B34811F03DFDB34909EB0A0058
:10249000FDF7D6FE30B103B0BDEC028BBDE8F08F86
:1024A00000221A5509EB040A05F124020821002034
:1024B000FEF7B0F89AF8EB305FFA80F8434540F049
:1024C0002081A64B4FF0010BDFF8D482102143F896
:1024D000247005EB0B02A24B4FEA441A06F804B035
:1024E00000261E5530469F4B43F8247008EB4417D6
:1024F000FEF790F881B238829B4811F003FDEA1C88
:1025000010213046FEF786F8F88181B2974811F025
:10251000F9FC6A1D08213046FEF77CF8AA1D082147
:1025200008F80A003046FEF775F8EA1D08217870B1
:102530003046FEF76FF805F10802B87010213046FA
:10254000FEF768F88A4B80B203EB04139880830689
:1025500000F128810A26AA190821002008EB441A54
:10256000FEF758F8721C63018AF803002A44102110
:1025700000200193FEF74EF8F21C0423AAF8120083
:10258000AF18A85803EB441306F10902A14448F818
:10259000030008EB0301BB882A440020754F8B80A1
:1025A0001021FEF737F806F10B02AAF814001021EB
:1025B0002A440020FEF72EF806F10D02AAF81600B4
:1025C00010212A440020FEF725F806F10F02AAF890
:1025D000180018212A440020FEF71CF81822644B2A
:1025E000082102FB047203EB041B906006F1120247
:1025F000CBF8080000202A44FEF70CF85C4BC0B270
:10260000082122018BF80200985406F113020020E1
:102610002A44FDF7FFFF06F114028AF80A00082198
:102620002A440020FDF7F6FF99F8EB30C0B206F11E
:10263000150A83428BF803000CD04F4811F0FEFCC2
:1026400099F8EB104D4811F05DFC9BF803104C48D5
:1026500011F058FC05EB0A0208210020FDF7DAFF13
:1026600006F11602630108212A4408EB030989F8E0
:102670000B000020FDF7CEFFC1B2012989F80C1034
:1026800006F1170905D03F4811F03CFC3E4811F017
:10269000D5FC05EB090208210020FDF7BBFF06F180
:1026A0001802630120212A44384D984488F80D000F
:1026B0000020FDF7AFFF18EE101AC8F81C002046E6
:1026C000FEF7E6FE1823009A6343FE18FC5404EB61
:1026D00044037261012207EBC307727172700FCF5E
:1026E0000FC597E8030085E8030040F2012005F0DC
:1026F000ADFD002373700AF021FB254B43F8240045
:10270000C9E609EB84032348D3F89C1111F0FAFBC6
:102710009AF8EB10194811F0F5FB4146184811F0F2
:10272000F1FB0D491C48FDF78BFD00283FF4C9AEB5
:10273000B1E600BF1765010832650108416501086F
:102740002E2A0020B8310020AA230020506501085D
:1027500088650108AA650108CC650108402D0020A4
:10276000422A0020F02C0020D8650108DF6501080E
:102770008429002088350020366601080E6601088D
:1027800022660108506601087B6601086C3500204E
:10279000B0340020E6650108490F0020480F0020F2
:1027A000DC2400204FF0060A05F10A020821304619
:1027B000FDF730FF0AFB04FA194B05F10B02082163
:1027C00003EB0A0778713046FDF724FF05F10C0290
:1027D000082138713046FDF71DFF05F10D02082173
:1027E000F8703046FDF716FF0D4B05F10E0208217B
:1027F00003F80A003046FDF70DFF05F10F0208212E
:1028000078703046FDF706FFB8702046FFF790FD60
:10281000044B10B11E5510269DE603F804B0FAE7EC
:10282000FC230020B42300202DE9F8430026154F97
:10283000DFF85490DFF85480F4B297F82030A342C8
:1028400001D8BDE8F8830C252046FEF7C9FB05FB3F
:102850000495686805F0A8F904F18A0357F8233055
:1028600098420DD96B78012B0AD158F824206B6857
:102870009A4205D000236B700AF060FA48F82400F1
:102880000136D9E7480F0020EC2800205C300020FA
:102890002DE9F74F42494348FDF7D2FC002878D193
:1028A00003B0BDE8F08F002955D1002223F8142091
:1028B0000AF044FA49F8240008F1010897F820309A
:1028C0005FFA88F4A342EBD93B1993F82D30012B22
:1028D000F2D059F8240005F067F941F287339842A5
:1028E00004D9314B33F81430012BE1D1DFF8DCB0DF
:1028F000DFF8DCA01BF804302C4E012B0ED12C4B42
:102900001B5D5BB914236343F218534402F11401B5
:1029100052F8040B8A4243F8040BF9D1142565439D
:102920000AEB05023544518A6B8A019299422ED0F6
:10293000204B53F8240005F037F9B0F57A7FBBD36C
:10294000019A0121184B528A23F81410698A002A2F
:10295000A9D10029A9D1164B14251BF80420195D13
:102960006543154811F0CEFAAA4407EB84032E44C0
:102970001248D3F89C1111F0C5FABAF81210104899
:1029800011F0C0FA718A0F4811F0BCFA90E7064BBB
:102990008BE74FF000080C4FDFF838908EE700BF50
:1029A000CC650108490F0020AC2E00201C2F002010
:1029B000A6340020902D0020946601089F6601082F
:1029C000A9660108B7660108480F0020E82E00201C
:1029D000E42D0020C023002070B50446184E0AF0F4
:1029E000ADF918230546174803FB04639A78164B84
:1029F000012A12D11549025541F824500C2101FB3E
:102A000004335D605A70182303FB04667378012B4E
:102A100004BF0F4B43F8245070BD0C22002102FB71
:102A2000043301559D600B485970142303FB0402C5
:102A3000104651821022013011F05CFAE3E700BF2A
:102A4000D0320020E82E0020E42F0020C02E0020ED
:102A5000F42E00201C2F0020084B034410B593F8DF
:102A60002D300446022B04D0FEF744FA2046FEF730
:102A7000B7FA2046BDE81040FFF7AEBF480F002070
:102A80002DE9F84F26492748FDF7DAFB002840D109
:102A9000BDE8F88F58F8240005F086F804F19E038D
:102AA00056F8233098422DD958F8243059F824206C
:102AB0009A4227D04FF0140A49F8243006EB8403D9
:102AC00019480AFB04FA194DD3F89C114FF0000B7A
:102AD00011F018FA0AF10100154B10222844554450
:102AE000594603F804B011F005FAA5F812B01823FE
:102AF000104D03FB0455286905F056F8286120465F
:102B0000FFF76AFF0137FCB296F82030A342C1D824
:102B1000BEE70027084EDFF82480DFF82490F2E7B4
:102B2000CC650108490F0020C6660108E42D00208D
:102B3000A634002088350020480F0020B82D002042
:102B40007431002038B5134D286805F02DF8B0F524
:102B50007A7F1ED9104C1421104B226801FB0233DE
:102B60000F4A591853F8040B8B4242F8040BF9D161
:102B700040F2072005F06AFB23680A4A013392F805
:102B800020202360934204BF002323600AF0D6F87C
:102B9000286038BD0032002084350020E42D00205C
:102BA00078360020480F00202DE9F04FB94CADF2E7
:102BB000B46DB94894F8221011F0A4F994F82230B9
:102BC000002B00F063814FF4567200216846002606
:102BD00011F090F94FF4567201253746DFF8F08274
:102BE00000210DEB020011F085F994F82020F3B2DA
:102BF0009A4272D8002D40F04281A6494FF4567295
:102C0000A648A84611F04EF9A54B0122A548D6AE1C
:102C10001A7011F013FAA448AE4694F820902B468F
:102C200000F2791100F2C91C2A465FFA8EF7B94505
:102C300065D80DB18DF82020B8F1000F01D08DF8C6
:102C4000783394F821506B46924A0021C8B204327E
:102C50000433854200F2BE809DF82050002D31D013
:102C6000AE002A460DF123018F4811F01BF92A46C8
:102C70000DF12D018D4811F015F9324667A92FB2DB
:102C80008B4811F00FF9324671A98A4811F00AF900
:102C90007BA97A00884811F005F92A460DF1EB016D
:102CA000864811F0FFF832468AA9854811F0FAF8F3
:102CB000324694A9834811F0F5F832469EA982481D
:102CC00011F0F0F89DF87833002B40F09D800DF264
:102CD000B46DBDE8F04FFFF75FB9234493F82D3092
:102CE000022B0AD0012B06D12FB1002594F8221017
:102CF000404611F007F9013677E70127FBE7877AAD
:102D0000012F34D10DEB020A05780DEB820B8AF806
:102D100023500D688AF82D70CBF89C518D6ACBF842
:102D2000C4510DEB4205BCF800B0A5F8ECB190F829
:102D3000C8508AF8EB5002F18A0AD1F88C504DF84D
:102D40002A5002F1940AD1F8B4504DF82A5002F1F9
:102D50009E0AD1F8DC5001324DF82A50D2B23D46DD
:102D60000EF1010E013004310CF1020C5DE7022F6F
:102D7000F6D106EB030890F800A088F82D7088F8CB
:102D800023A006EB830A0F68CAF89C718F6ACAF801
:102D9000C47106EB4307BCF800A0A7F8ECA190F8BB
:102DA000C87088F8EB7003F18A08D1F88C7046F887
:102DB000287003F19408D1F8B47046F8287003F134
:102DC0009E08D1F8DC70013346F82870DBB24FF072
:102DD0000108C5E792F84700013183F8470092F8EF
:102DE000480083F8480092F8490083F8490092F8B7
:102DF0004A0083F84A00B2F8F600A3F8F600B2F8E9
:102E0000F800A3F8F80021E72B440DF27B310DF216
:102E1000F4420DF24456DBB2601911F8017B52F80E
:102E200004CB80F823704F7A80F82D7004EB85076F
:102E3000C7F89CC1BC46576ACCF8C47104EB45077F
:102E400036F802CBA7F8ECC191F8C77080F8EB70A8
:102E500005F18A00D2F8887044F8207005F19400DA
:102E6000D2F8B07044F8207005F19E000135D2F818
:102E7000D870EDB244F82070AB42CDD127E71348AB
:102E80000DF2B46DBDE8F04F11F0D8B80DF2B46D8D
:102E9000BDE8F08F480F0020E6660108EC0B00202B
:102EA000CC320020416701086B0F0020750F002015
:102EB000E41000200C1100203411002033100020F9
:102EC0007011002098110020C0110020AD6701088A
:102ED0000E6701082DE9F8431B4B1B78012B30D1FD
:102EE0001A4CA222002100252046194E11F002F8AA
:102EF000DFF864C0BCF80030238096F82080EBB285
:102F000098451ED903F16600124F002106EB8000A0
:102F1000CAB2904513D957F8049B8E4642680131D6
:102F20004A45F5D10CEB0E1204EB0313911C12323F
:102F3000023351F8040B914243F8040BF9D10135E7
:102F4000DBE7BDE8F88300BFCC3200203824002046
:102F5000480F0020880D0020D83600202DE9F04FC2
:102F60004FF0000914460646D44F4FEA04182DEDE1
:102F7000028BA7B008EE103A029109F0DFFE7C2226
:102F80004946009007A8CDF8189010F0B3FFCC493F
:102F9000CC48FDF755F9002800F03282CA4B1A6878
:102FA000D20740F1F8811B79A34240F0F481C74D6C
:102FB000C7480CF00DFBB0FBF5F5C5EB0545A0EBE4
:102FC0000525C44811F03AF807EB0803C248996890
:102FD00010F098FF2946C14810F094FF2B4606AA2E
:102FE00018210020FDF74EFB029A0023A2F1050AEA
:102FF000D9B201335145C0F2D281033106A806EBA4
:103000000A0B07F043FB814620215A460020FDF7BA
:1030100001FB814505464BD0721D0821002001921D
:10302000FDF7F8FA019A002840F0C081AC4811F091
:1030300005F88022002106A810F05CFF07EB0803CA
:1030400006AA18219B6800200133FDF71BFB002313
:10305000D9B201338A4500F3B781033106A807F0DE
:1030600015FB81465A4620210020FDF7D3FA814501
:10307000054640F0B08107EB08099A4810F0DEFFE2
:103080002946994810F03EFFD9F80810974810F0EB
:1030900039FFD9F8081096480131C9F8081010F026
:1030A00031FF1822934B02FB0433D9F808209A60B1
:1030B000009A0021904B4FF0300ADFF8689243F8F5
:1030C00024208E4B43F8242001228D4B1A5504EB0B
:1030D0004413402209EB4303184610F00BFF029AF9
:1030E000314610F0DFFEBDF80830721C1021059348
:1030F0004223002003FB0499059BA9F84030DFF828
:103100002892FDF787FA81B20AFB049AAAF82800F0
:103110007C4810F0F7FEF21C10210020FDF77AFA2F
:10312000AAF8260081B207EB080A774810F0EAFEF9
:10313000721D08210020FDF76DFAB21D8AF8020009
:1031400008210020FDF766FAC0B28AF80100D8B95C
:103150006E4B6F4803EB8403D3F89C1110F0D2FE42
:10316000DAF80C106B4810F0CDFEDAF80C106A4853
:103170000131CAF80C1010F0C5FE18225D4B02FB9D
:103180000433DAF80C20DA60F21D0821002007EB86
:10319000080AFDF73FFA3023102106F1080203FB6D
:1031A000049989F802000020FDF734FA44491FFA17
:1031B00080F94448AAF80490FDF742F818B949F09C
:1031C0000809AAF80490B844B8F804309B0640F106
:1031D0001B814FF00609DFF854A106F10A0208210D
:1031E00009FB04F90020FDF715FA06F10B020AEBC2
:1031F0000908082188F805000020FDF70BFA06F100
:103200000C02082188F804000020FDF703FA06F1FB
:103210000D02082188F803000020FDF7FBF906F1F4
:103220000E0208210AF809000020FDF7F3F906F163
:103230000F02082188F801000020FDF7EBF988F85B
:1032400002002046FFF774F8344B002800F0DA80C3
:1032500000224FF0100A1A5507EB0417DFF8C89048
:103260004FF0300806EB0A02BB88082108FB0498DF
:10327000002003F008030AF102070393FDF7CAF9DF
:10328000C1B288F80300264810F03CFE0AF10102A2
:10329000082100203244FDF7BDF998F8033088F882
:1032A00004004FF0000813F0070F4FEAD30314BFD8
:1032B0000133DBB2019304EB440339E0842900209D
:1032C000CC650108490F00206429002000FFFF00A1
:1032D000A8BB0020BF670108DE6701080468010879
:1032E0002A680108446801085B68010878680108D9
:1032F0009568010888350020402D0020682D0020A9
:10330000C2310020D8650108DF650108480F0020A0
:10331000F06801083269010842690108B4230020FD
:10332000516901085C2A00200C270020FC230020A2
:10333000BDF804A04FEA031B0BF105039944CDF837
:1033400010901FFA88F317FA88F29A4592B25ED865
:1033500057440A20DFF85883BBB2049310F0EAFD0B
:10336000BA4B234493F82D30022B08D13023B848B0
:1033700003FB0483597901F0010110F0C3FD0BF147
:1033800015074FF0300B4FF0000A4744DFF8208359
:103390000BFB048B55E007EB08039B681FE601F16C
:1033A0009802715C6A4402F87D1C21E60821002025
:1033B000FDF730F901283FF439AEA44AA54802EBE5
:1033C0008404D4F89C110CE001F19802715C6A4409
:1033D00002F87D1C3CE69D4A9F4802EB8404D4F829
:1033E0009C1110F08FFD29469C4810F08BFD49463A
:1033F0009B4810F087FD27B0BDEC028BBDE8F08F35
:10340000054655E6012224E74FF00A0A24E7324434
:1034100008210020FDF7FEF8049BC2B2414603F8E4
:10342000010B08F101088F48049310F06BFD88E749
:103430000AF1010A324408210020FDF7EBF807F8F1
:10344000010B1FFA8AF3049A9BF8041012FA8AF20D
:10345000994292B2ECD818EE101A2046FEF78AFC78
:10346000814B0122814F1A5503EB8403009ADA60E5
:10347000182303FB04731B79012B11D17C4B4622CB
:103480000021184610F036FD059A048031468280EE
:103490000630029A10F006FD40F2032004F0D6FE3A
:1034A0006A4B234493F82D30022B00F0B880039B25
:1034B0001E1E18BF012604EB8403DFF8F8811022DA
:1034C00000219B0003F1010B029308EB0B0A50460D
:1034D00010F010FD019A4946504610F0E3FC5146A9
:1034E000019A002007F060F81422019B6243DFF884
:1034F000C8A108EB020108F802404B744882029B05
:10350000002E4AD00AEB0B091022002101934846F5
:1035100010F0F0FC019B0AEB03024344114603F157
:10352000140053F804CB834241F804CBF9D1514B3A
:10353000009943F82410142303FB04A3598A4E4B2B
:1035400033F81400884228D023F8141013464B4A4D
:1035500003F1140153F8040B8B4242F8040BF9D128
:1035600040F2072004F072FE454B33F81430A3B943
:10357000444B09F1100203EB0413023359F8041B06
:10358000914543F8041BF9D1FFF7A4FC40F2191050
:1035900004F05CFE3C4B009A1A6018234FF01409AB
:1035A000634309FB04A907EB0308FC540123B9F8A2
:1035B0001220C8F8145088F8013004EB4403A8F82E
:1035C0000620022207EBC30788F8026088F805206E
:1035D0002E4D0FCF0FC597E8030085E8030040F29A
:1035E0000120002504F032FE294B009A294943F8B6
:1035F00024200C23284A88F80150002E00F08380F4
:10360000009D03FB04222548556040F82450567065
:103610000E554FF4807122480AF06DFEEBE6302320
:1036200003FB048898F8056016F0010646D11D4892
:1036300010F004FD1C4B0122314648461A55102259
:103640001A4B1E5510F056FC35E700BF480F0020FE
:1036500065690108DC680108BF6801083265010876
:103660004165010858690108D834002088350020D8
:103670008C360020902D00209C31002078360020D0
:10368000AC2E0020D8360020E02D00206C35002024
:10369000B0340020A6340020EC280020B82D0020F3
:1036A000001C02407B690108A0230020512A002051
:1036B0000C27002004320020E42D0020039B03B3DC
:1036C000DFF868A01AF80480B8F1010F7FF4F3AEB8
:1036D000144E1548315D0131C9B2315510F012FC5C
:1036E000335D032B06D900230AF804300423335535
:1036F0004646E0E6102200214846002610F0FAFB7C
:10370000D9E6039ED7E60D550AEB0B0003FB042414
:10371000009B10222946A360657010F0EBFBA9F80E
:10372000125076E7512A00208B690108A02300205F
:103730002DE9F04FB5B00E461446814609F0FEFA69
:10374000002100907C2215A8149110F0D3FB0E49A3
:10375000422303FB0413B3F84030B3421AD104EB05
:1037600044133246484601EB430110F08BFB88B905
:10377000064A074802EB8404D4F89C1110F0C2FBFF
:1037800035B0BDE8F08F00BF5C2A0020480F002054
:103790009D690108053E20210020D04F09EB060B52
:1037A0005A46FCF737FFCE4B01901A6812F0010F12
:1037B00000F0E6811B79A34240F0E281C948182558
:1037C0000BF006FFC84BB0FBF3F8C8EB0848A0EBC2
:1037D0000828C64810F032FC05FB0473C4489968F9
:1037E00010F090FB4146C34810F08CFB434614AAEE
:1037F00029460020FCF746FF0023D9B20133B1422D
:10380000C0F2C481033114A806F040FF019B80463A
:1038100009F1050A834248D0524608210020FCF7EE
:10382000F9FE0546002840F0D081B34810F006FCB0
:103830008022294614A810F05DFB182114AA2846FE
:1038400001FB04739B680133FCF71CFFE9B20135EF
:103850008E4200F3A381033114A806F017FF05463A
:103860005A4620210020FCF7D5FE8542064640F04E
:103870009D811826A14810F0E1FB29466643A04827
:1038800010F040FB9F4837449F4DB96805EB041585
:1038900010F038FBB9689D480131B960A96010F09B
:1038A00031FB9B4B1E44AB68B36009F10102102150
:1038B0000020FCF7AFFEADF8480081B2954810F04B
:1038C00021FB09F1030210210020FCF7A3FEADF853
:1038D000460081B2904810F015FB524608210020A6
:1038E000FCF798FE09F1060208210020FCF792FE81
:1038F00009F1070208210020FCF78CFE09F10802FB
:103900008DF8220010210020FCF784FE820683B28D
:10391000019340F1688109F10A0208210020102773
:10392000FCF778FE09F10B0208210020FCF772FE7B
:1039300009F10C0208210020FCF76CFE09F10D02D0
:1039400008210020FCF766FE09F10E020821002084
:10395000FCF760FE09F10F0208210020FCF75AFE77
:1039600009EB0702082100200DF1250AFCF752FEA1
:103970004FF00008C5B2694829468DF8235010F071
:10398000C1FA7A1C082100204A440237FCF742FEA3
:1039900015F0070F4FEAD5055FFA80FB14BF01351C
:1039A000EDB28DF824B0AEB21FFA88F317FA88F2A0
:1039B0009E4292B200F219813E440DF135080A2070
:1039C000B6B210F0B7FAB3441FFA8BFB5E4540F075
:1039D0001B81102200210DF10D0027B210F08AFA90
:1039E0002A460DF125010DF10D0010F05BFA2A4673
:1039F0000DF10D01002006F0D7FD494BADF81E007A
:103A000023448DF81D508DF80C4093F82D30012B78
:103A100040F09680019B1B0740F19280DFF81C81EB
:103A2000142303FB04835B8A834200F0898007EB45
:103A3000870510220021AD00681C08EB0006304607
:103A400010F058FA08EB05030DF10C0C0DF11C0EEB
:103A50001A466546083203CD754542F8080C42F80F
:103A6000041CAC46F5D12868106000992D4A42F834
:103A70002410142202FB0482518A2B4A32F81400CB
:103A800088425DD022F8141003F11401274A53F83C
:103A9000040B8B4242F8040BF9D140F2072004F0EA
:103AA000D5FB234B33F81430002B49D1214B304642
:103AB00006F1100203EB0413023350F8041B90428A
:103AC00043F8041BF9D1FFF705FA40F2191004F08E
:103AD000BDFB194B009A1A6032E000BFD0320020C3
:103AE00064290020A8BB002000FFFF00BF67010879
:103AF000DE670108046801082A680108DE69010818
:103B00005B680108006A01088429002095680108A3
:103B100088350020D8650108DF650108356A01088D
:103B2000480F0020902D00209C3100207836002086
:103B3000AC2E0020D8360020E02D0020E42D0020FF
:103B40001823374D07EB4707364E6343EC5405EB1C
:103B50000308012305EBC70588F801300FCD0FC618
:103B600095E8030086E8030040F2012004F06EFBB4
:103B70000023009A88F801302B4B43F82420FFE5FE
:103B8000182114AA01FB04739B6832E601F1D002EC
:103B900019F801106A4402F87D1C2EE601F1D003E9
:103BA00019F801206B4403F87D2C4FE61F4A20488A
:103BB00002EB8404D4F89C1110F0A4F931461D489E
:103BC00010F0A0F929461C48D8E5184A184802EB1D
:103BD0008404D4F89C1110F095F90199154810F05F
:103BE00091F94146EFE70A27BAE64A440821002046
:103BF000FCF710FD4146C2B20AF8010B0F4808F16C
:103C0000010810F07FF9CFE609EB06020136082122
:103C10000020FCF7FFFC08F8010BB6B2D6E600BFA7
:103C2000883500206C350020B0340020480F00207B
:103C3000196A010832650108416501083D6A0108F9
:103C40002DE9F04F4FF000091446054624228A461C
:103C50004946D64F4FEA04182DED028B8DB008EE81
:103C6000103A03A8CDF8089010F044F909F066F86E
:103C7000CF490090CF48FCF7E3FA002800F0188203
:103C8000CD4B1A68D10740F1E0811B79A34240F087
:103C9000DC814FF6FF76C9480BF09AFCB0FBF6F6D4
:103CA000C6EB0646861BC64810F0C8F907EB0803AA
:103CB000C448996810F026F93146C34810F022F93B
:103CC000334602AA18210020AAF1050AFCF7DAFC03
:103CD0000023D9B201335145C0F2BB81033102A8A0
:103CE00006F0D4FC834605EB0A0220210020FCF7F5
:103CF00091FC8345064647D06A1D08210020DFF865
:103D00000493FCF787FC04F16603C0B2012800F2BB
:103D1000C28109EB8303AD48596810F0F3F82822FB
:103D2000002102A810F0E6F807EB080302AA182108
:103D30009B6800200133FCF7A5FC0023D9B20133B6
:103D40008A4500F38D81033102A806F09FFC86426C
:103D5000824640F08C8107EB08099D4810F06EF90F
:103D60009C48D9F8081010F0CDF8D9F808109A48F6
:103D70000131C9F8081010F0C5F81822974B02FB62
:103D80000433D9F808209A60DFF87C924FF00C0ACF
:103D90006A1C10210AFB049A0020FCF73BFC07EB8D
:103DA000080BAAF80600EA1C10210020FCF732FCE0
:103DB0006A1DAAF8040008210020DFF848A2FCF7D9
:103DC00029FCAA1D8BF8020008210020FCF722FC28
:103DD000C0B28BF80100D0B90AEB84038048D3F855
:103DE0009C1110F08FF8DBF80C107E4810F08AF868
:103DF000DBF80C107C480131CBF80C1010F082F885
:103E00001822764B02FB0433DBF80C20DA60EA1D43
:103E10000821002007EB080BFCF7FCFB0C2310210A
:103E200005F1080203FB049989F802000020FCF761
:103E3000F1FB5F491FFA80F95E48ABF80490FCF78C
:103E4000FFF918B949F00809ABF8049007EB08032B
:103E50009B889A0640D505F10A0208210020DFF868
:103E6000ACB1FCF7D7FB062305F10B020821634335
:103E70000BEB0309019389F805000020FCF7CAFB4E
:103E800005F10C02082189F804000020FCF7C2FBB0
:103E900005F10D02082189F803000020FCF7BAFBA8
:103EA000019B05F10E0208210BF803000020FCF72E
:103EB000B1FB05F10F02082189F801000020FCF791
:103EC000A9FB89F802002046FEF732FA474B00288A
:103ED00000F0F08000221A55474418EE101A2046D0
:103EE0003E4DBF884FF01808FDF7B4FD009A404BD7
:103EF00008FB045807F00807DFF8149143F8242062
:103F00003C4BD8F8100043F8242003F04DFE0AEB98
:103F10000403C8F8100093F82D30022B40F0E28023
:103F2000354BDFF8F0801A5DDFF8ECB0032A00F2C1
:103F3000C380302303FB04835B79DB0700F1BC8083
:103F40001BF80430012B40F0B780002718234FF0F6
:103F5000140ADFF8C8C063430AFB049B05EB03089F
:103F6000EC54BBF8122004EB4403C8F8146001269B
:103F7000A8F8062005EBC305042288F8016088F83C
:103F8000027088F805200FCDACE80F0095E803001B
:103F900000258CE8030040F2012004F057F9174B8C
:103FA000009A174943F824200C2239E08429002084
:103FB000CC650108490F002064290020A8BB00201F
:103FC000C06701084C6A010804680108706A0108AA
:103FD00044680108946A0108AB6A0108883500202A
:103FE000F0680108F76A0108026B0108B423002099
:103FF000402D0020682D0020512A0020B0340020E0
:10400000A6340020480F002094260020FC23002026
:10401000E42D00200C270020A02300206C35002078
:10402000624B88F80150002F00F0AF80009D02FB2A
:1040300004335F485D6040F824505F700F554FF4C3
:1040400080715C480AF057F920E007EB08039B6891
:1040500037E601F13002695C6A4402F8251C38E653
:1040600001F13002695C6A4402F8251C66E609EB3E
:1040700084045148D4F89C110FF044FF31464F4856
:104080000FF040FF51464E480FF03CFF0DB0BDEC25
:10409000028BBDE8F08F09EB83094A48D9F8041078
:1040A0000FF030FF314645480FF02CFF5946EAE744
:1040B000064669E601220EE70AEB840A4248DAF86E
:1040C0009C110FF01FFF1BF8041040480FF01AFF5F
:1040D00030233F4803FB048898F8051001F00101E4
:1040E0000FF010FF002F3FF430AF04EB84020021EB
:1040F0004FEA8208102208F1010009EB0007384658
:104100000FF0F8FE334A09EB08034244194602F166
:10411000140052F804CB824241F804CBF9D11422A6
:1041200002FB0492518A2C4A32F81400884201D1D1
:1041300001270BE722F8141003F11401274A53F862
:10414000040B8B4242F8040BF9D140F2072004F033
:104150007DF8234B33F81430002BE9D1214B38463E
:1041600007F1100203EB0413023350F8041B9042D2
:1041700043F8041BF9D1FEF7ADFE40F2191004F02C
:1041800065F8194B009A1A60D2E702FB04331AFB58
:104190000460009A0D5548449A60294610225D70CB
:1041A0000FF0A8FEABF8125049E700BFEC28002042
:1041B000B82D0020001C0240C36A010832650108C6
:1041C00041650108E16A01080D6B01081A6B0108DD
:1041D0002F6B0108043200209C310020783600202B
:1041E000AC2E0020D8360020E02D00202DE9F04F25
:1041F0000F4605461446053F2DED028B83B008EEB1
:10420000103A08F09BFD0646B9B2284606F03EFA81
:104210008146EA1920210020C64FFCF7FBF98145B1
:10422000804613D007EB8404C348D4F89C110FF0E8
:1042300069FE4146C1480FF065FE4946C04803B0DB
:10424000BDEC028BBDE8F04F0FF05CBEBD4B6A1CAD
:104250001021002043F824604FF00C0ABA4BDFF81D
:1042600040B343F82460FCF7D5F9B84BEA1C1021A1
:104270000AFB043A0BEB0419AAF806000020FCF72D
:10428000C9F96A1DAAF8040008210020FCF7C2F948
:10429000AA1D2301082189F8020000200193FCF7E0
:1042A000B9F9EA1D082189F801000020FCF7B2F9EC
:1042B00010218AF8020005F108020020FCF7AAF993
:1042C000A3491FFA80FA781CA9F804A0FBF7B8FFED
:1042D00018B94AF0080AA9F804A023015B449B8896
:1042E0009A063FD54FF0060A05F10A020821002080
:1042F000FCF790F90AFB04FA964B05F10B02082132
:1043000003EB0A0989F805000020FCF783F905F1A1
:104310000C02082189F804000020FCF77BF905F164
:104320000D02082189F803000020FCF773F9894B7E
:1043300005F10E02082103F80A000020FCF76AF9D3
:1043400005F10F02082189F801000020FCF762F94D
:1043500089F802002046FDF7EBFF7F4B002865D06F
:1043600000221A55230118EE101A20460FFA84F97C
:104370005B449D88FDF76EFB3B1905F0080593F83B
:104380002D30022B69D1754BDFF818A21A5DDFF8CA
:1043900018B2032A4CD8302303FB04A35B79DB0754
:1043A00046D41BF80430012B42D1002718236C4D52
:1043B00009EB490906226343DFF8F0C105EB030A64
:1043C000EC5405EBC905CAF814804FF001088AF8CF
:1043D00005208AF801808AF802700FCDACE80F0042
:1043E00095E8030000258CE8030040F2012003F06B
:1043F0002DFF5C4B5C4A43F824608AF801505B4B0C
:10440000002F00F0848017550C22594902FB043319
:1044100041F824605F705E604FF48071554803B0CE
:10442000BDEC028BBDE8F04F09F065BF012298E7B3
:1044300007EB84075048D7F89C110FF063FD1BF879
:1044400004104E480FF05EFD30234D4803FB04A3DB
:10445000597901F001010FF055FD002DA5D009EBB0
:104460008902484F00214FEA820A10220AF1010016
:104470003D1828460FF03EFD434A07EB0A0352441D
:10448000194602F1140052F804CB824241F804CBE1
:10449000F9D1142202FB0472518A3C4A32F814000A
:1044A000884201D1012781E722F8141003F1140199
:1044B000374A53F8040B8B4242F8040BF9D140F20F
:1044C000072003F0C3FE1822254B02FB04331422FD
:1044D00002FB04777A8ADA802E4B33F81430002BF3
:1044E000E0D12D4B284605F1100203EB04130233F3
:1044F00050F8041B904243F8041BF9D1FEF7EAFC84
:1045000040F2191003F0A2FE244B1E60CAE71555B5
:104510000C221427294602FB0433102217FB0480C7
:104520009E60184E5D7007FB046430440FF0E2FC9F
:10453000658271E7480F00203D6B01083265010874
:1045400041650108402D0020682D00201C26002018
:10455000CC650108FC230020B4230020512A002050
:1045600088350020B0340020A6340020EC2800203C
:10457000B82D0020001C02400D6B01081A6B0108C9
:104580002F6B0108E42D0020043200209C31002014
:1045900078360020AC2E0020D8360020E02D0020F8
:1045A000842900200C270020A02300206C35002047
:1045B0002DE9F74F06460F4608F0C0FB8F4B8046AB
:1045C0001B78DBB18E4DF21C10210020FCF722F885
:1045D00095F820101FFA80FA05F5CE7200235FFAD5
:1045E00083F949451CD8874B1B78012B15D15146BF
:1045F000854803B0BDE8F04F0FF084BC08F09EFB87
:1046000042F20F739842DDD980480FF017FD8049C0
:104610008048FBF715FE0028D4D003B0BDE8F08F2A
:1046200052F8040B1C4601335045D8D104F1700BED
:104630001021721C002005EB8B0BFBF7EBFFDBF866
:10464000043081B28B4210D0734801910FF0F6FC18
:10465000019972480FF056FCDBF80420514670486F
:1046600003B0BDE8F04F0FF04DBC6E4B1A68D20698
:104670001ED51B794B451BD16B4801910FF0DEFC19
:1046800001996A480FF03EFC40F24D11684895F8D8
:1046900020A00FF037FC40F24D1195F82030534523
:1046A00008D8644801910FF0C9FC01996248A0E75D
:1046B000CA46F2E7534BDFF8C0B11B78012B0FD18C
:1046C0001BF80410012908D0022964D02B1993F893
:1046D0002D30022B61D1594800E059480FF0AEFC53
:1046E000584B1BF8042053F8241091420AD0564925
:1046F000564841F82480564943F8242041F8248044
:104700000FF09CFC1BF80420524BDFF870B11A55D7
:104710005BF8240003F048FA04F18A0355F82330CB
:1047200098420ED3484B05EB84054B4843F8248050
:10473000474BD5F89C114BF8248043F824800FF0A8
:10474000E1FB464B812200214BF8248018460FF0F4
:10475000D1FB3A46FFB231460FF0A4FB0821F21D0F
:1047600080F880700020FBF755FF18223C4B05466F
:10477000484602FB04330122DA703A4B43F82480A6
:10478000FEF76AF9E9B24B1E052B34D8DFE803F0D7
:1047900009121B21332A3448A0E734480FF0B2FB3A
:1047A0009EE753464A463946304603B0BDE8F04FCF
:1047B000FDF70EBE53464A463946304603B0BDE8C3
:1047C000F04FFEF7CBBB2A4803B0BDE8F04F0FF027
:1047D00035BC53464A463946304603B0BDE8F04F33
:1047E000FFF72EBA53464A463946304603B0BDE875
:1047F000F04FFFF7FBBC1F48FBE600BF03020020A1
:10480000480F0020EB0B00209B6B01085B6B01083D
:10481000CC650108490F0020D76B0108F36B010834
:10482000156C0108642900204D6C0108CB74010847
:104830006E6C01087C6C0108B06C0108EB6C01081F
:10484000CD6C01084C310020402D0020216D010865
:10485000682D0020382A0020376D0108C033002061
:1048600088350020182D0020DC6C0108006D01083F
:10487000536D0108746D0108CC31002024310020F3
:1048800070B50024A0B00D467C220646214601A842
:104890000094ADB20FF02EFB224623469D4291B20A
:1048A00004D86846FFF784FE20B070BDF15C20A8F4
:1048B000F02910FA82F002F1010202BF01339BB22B
:1048C000F15C03F1010308BF61F00F019BB200F836
:1048D000801CE3E710B50024A0B07C22214601A88B
:1048E00000940FF007FB03F0C3FA08B920B010BD25
:1048F00003F0CAFAF42802D0F62809D094B104F1E2
:104900008002631C0DEB020404F8800CDCB2EAE7C1
:10491000611C04F1800311F0FF010DEB030404F8A6
:10492000800C01D10024DEE70F29DFD96846FFF7AC
:10493000A7FFDBE710B50024A0B07C22214601A828
:1049400000940FF0D7FA1B4B93F822309BB11A4B0F
:10495000186803F029F913280DD9032007F0FCFF8C
:1049600048B1032008F00CF87E2C06D9802221469D
:1049700012480FF0C7FA20B010BDF42803D0F62873
:104980000AD0002CE9D004F18002631C0DEB020474
:1049900004F8800CDCB2E0E7611C04F18003C9B2CA
:1049A0000DEB03040F2904F8800CE4D96846FFF7E7
:1049B00067FFE0E7480F002038C90020906D01082C
:1049C00070B5204D2B78012B01D106F029F81E4936
:1049D0001E48FBF735FC10B901232B7070BD1C4C31
:1049E0001C4E206803F0E0F8D6F81C329842F5D34C
:1049F000194B20681A688242F0D0002418602C708D
:104A000003F0D2F84FF47A71B0FBF1F113480FF0D4
:104A100079FA13480FF012FB96F82020214611482E
:104A200002EB4202D2000FF065FA2146A2220E48A4
:104A30000FF060FAFEF74EFA40F21910BDE8704030
:104A400003F004BC03020020CC650108490F0020DC
:104A5000B4310020480F0020B0310020B96D0108AA
:104A6000E66D0108D0320020D83600202DE9F04F45
:104A70000026AFB0DFF8FC82A622314604A8A94F79
:104A800003960FF037FAD8F8000003F08DF8D7F846
:104A90002032984200F2E4802FB0BDE8F08F3AF85F
:104AA000153009EB0514012B04F1020440F092804B
:104AB0009D499E48FBF7C4FB002800F08B8007EB64
:104AC00085059B48D5F89C110FF01CFA1022002197
:104AD00020460FF00FFA013697F82030F5B2AB42BE
:104AE000DDD891499148FBF7ABFB924B002840F091
:104AF000BE8001221A70904D2B78012B1BD101F042
:104B0000CBFA8E490026DFF870A2DFF870B2DFF82A
:104B100070928B784A788A4809780FF0F3F9FEF79B
:104B2000D9F9B4B297F82030B4EB031FC0F2AF80CC
:104B30000A200FF0FFF9FEF7CDF940F2191003F04B
:104B400085FB79497948FBF77BFB00283DD17D4EF9
:104B5000306803F029F8B0F5FA6F4FF0A0027A49F7
:104B60007A48C0F0A8800FF09DF97E238DF80C30B4
:104B70008DF80D308DF80E302B78012B02D1744852
:104B80000FF05CFA73490DF10F0031F8024B224629
:104B90000FF088F904F1B8037F222EA96B4403A813
:104BA00003F8A92C231D11FA83F303F8AC2C631D21
:104BB00011FA83F3A11D03F8AC2CC9B2664B1A6835
:104BC00003F080F908F0BAF8306008F0B7F8C8F8D8
:104BD000000061E71BF80510604B4A1E5B5D514207
:104BE0005141012B544B08BF41F002011B78012BAE
:104BF00008D107EB85035A480191D3F89C210FF0A7
:104C000081F90199022911D003291CD001297FF4CF
:104C10005DAF544B142202FB05356B1C113553F864
:104C2000042BAB4244F8042BF9D154E74E4B142229
:104C300002FB05356B1C113553F8042BAB4244F8CD
:104C4000042BF9D147E7484B142202FB05356B1CB6
:104C5000113553F8042BAB4244F8042BF9D13AE751
:104C6000DFF8F090DFF81CA1DFF81CB134E71C7806
:104C7000002C7FF440AF3D480FF0E0F93C480FF0C6
:104C8000DDF9A222214633480FF034F933E79AF8D0
:104C900000306BB92F4B23440134997848460FF00C
:104CA00031F9230702D10A200FF044F9013638E721
:104CB0000BEB0403F0E70FF0E5F8002885D0A02205
:104CC000214922480FF0EEF87E238DF80C308DF844
:104CD0000D308DF80E302B78012B02D11C480FF0CF
:104CE000ADF91C490DF10F0031F8024B22460FF0CF
:104CF000D9F804F1B8037F222EA96B4403A803F866
:104D0000A92C231D11FA83F303F8AC2C631D11FAAF
:104D100083F3A11D03F8AC2CC9B20F4B1A6803F042
:104D2000D1F852E7480F0020CC650108490F002058
:104D3000086E010803020020EB0B0020AA3E0020B1
:104D40006E6E0108D4360020DA3600208430002050
:104D5000936E0108D8360020D8310020A6340020F8
:104D60001C6E01081C2F0020E42D00202D6E010870
:104D7000516E0108E02D0020CC32002038240020A4
:104D80005F690108AC2E0020E82E00201F4D204C4A
:104D900008B5FCF759F8FBF7A7FF0BF05FFF2846B3
:104DA00009F05DFE05F026FE03F0E2FCFBF76EFD68
:104DB000FFF790FDFFF7BEFDFFF758FEFCF7B4F9D3
:104DC000FFF7FEFDFDF75CFEFDF72EFDFDF732FA65
:104DD000FDF7DAF9FDF766FA01F026FAFDF758FD5E
:104DE000FDF7B0FE07F076FAFBF760FE23784BB1D3
:104DF000084B0322054C1A7007F0CCF9204609F045
:104E00002EFEF9E707F044FEC3E700BF28B30020F9
:104E1000EA0B0020A2120020154B5A6F002A1ADB61
:104E20005A6F520019D45A6F910018D45A6FD20099
:104E300017D45A6F110116D45A6F520115D45B6FF3
:104E400013F0007F14BF07200020094A536F43F07E
:104E50008073536770470120F7E70220F5E70320CE
:104E6000F3E70420F1E70520EFE70620EDE700BFB8
:104E70000038024007289ABF024B53F8200002482E
:104E8000704700BF6C6F0108B26E01082DE9F04158
:104E90001C4CA06802F088FE1B4BD3F834239042D0
:104EA0002DD3D3F828331427184EC3F3CF055B074F
:104EB000DFF860801CBF0135ADB207F03FFFA06096
:104EC000002413480FF0BAF8AC4208D30A200FF0C0
:104ED00031F840F21910BDE8F04103F0B7B93CB128
:104EE000B4FBF7F307FB134313B90A200FF022F8C2
:104EF00016F8011B404601340FF004F8E4E7BDE862
:104F0000F08100BF9C3D0020480F0020AE3D0020F6
:104F1000687B01085F690108F8B54A4C606802F0D7
:104F200043FE494906464948FBF78AF9002800F044
:104F30008780474DB5F82633D5F82C2353439E423E
:104F40000AD3444B62681B689A4205D0424B5A7898
:104F500095F821339A4207D82378002B35D03F4B60
:104F6000D3F88030002B30D021783D480EF0CAFFB6
:104F700023783A48D9074FF0000144BF23F00103DA
:104F8000237023789A074FF0840244BF23F0020372
:104F900023700EF0AFFF3222002132480EF0AAFF3C
:104FA0008422002130480EF0A5FF00232F4A30480C
:104FB000C2E90033284AC2E900332E4AC2E900336D
:104FC0000FF03CF86268234B1A602B4E306802F0F9
:104FD000EBFDD5F83C33984223D9284F3B78012B81
:104FE0001FD1002426480FF029F8842221461B48AF
:104FF0003C700EF07FFF322221461A480EF07AFFF5
:105000008422214618480EF075FF184B1848C3E952
:105010000044114BC3E90044164BC3E900440FF0B0
:105020000DF8306802F0C0FDD5F83C33984207D245
:10503000124B1B78012B03D1BDE8F84005F0F0BC02
:10504000F8BD00BF9C3D0020CC650108490F002041
:10505000480F0020643B0020643E0020F43B002009
:105060008C6F0108AC3D0020E03D00206C3E00202C
:10507000BC6F0108743E0020683B0020F03B00201C
:10508000D36F010838B51B4C1B4D606802F08CFDD6
:10509000B5F82633D5F82C235343984204D3174B45
:1050A0001A780AB100221A70606802F07DFDD5F806
:1050B000383398420BD9124B626819688A4206D07D
:1050C0001A6040F20120BDE8384003F0BFB80D4D32
:1050D000286802F069FDB0F57A7F09D9606802F0AE
:1050E00063FDB0F5FA6F03D907F028FE2860E8E702
:1050F00038BD00BF9C3D0020480F00206C3E0020C2
:10510000883E00208C3E0020F8B561496148FBF7DD
:1051100097F8002837D0604C604D20682B68984283
:105120000AD007F00BFE20605D4C5E4A23785BBB23
:10513000137803F0FE032AE002F036FDB0F57A7F23
:10514000EFD2286802F030FD574BD3F83C33984239
:1051500019D9564B28681A68824214D0186002F098
:1051600023FD4FF47A71B0FBF1F151480EF0CAFE05
:10517000296850480EF0C6FE4F4A137899075CBF65
:1051800043F002031370F8BD137843F001034B4E54
:10519000317841B143F002031370032B33D8DFE8B9
:1051A00003F0744E056D03F0FD03F5E76168736865
:1051B0008B423CD0424F3B78012B24D141480EF02A
:1051C000A1FE716840480EF09DFE00233F483B70F1
:1051D0000EF034FF84223E493E480EF063FE3D4B04
:1051E0003D4A03F1300C1F461E46083203CE664589
:1051F00042F8080C42F8041C3346F5D1338813807A
:10520000D7F880306360284B627893F821339A4254
:1052100097D3294F3B7813F0010692D12F480EF017
:105220000DFF3B78667043F001033B7089E7002374
:10523000214A6370137823F001031370E3E7726867
:1052400063689A4212D026480EF0F8FE6378013364
:10525000DBB2022B6370D6D91E4BD3F88030002B03
:10526000D1D040F2072002F0F1FFCCE7124A1378C8
:1052700023F00103137000236370C4E7726863684E
:105280009A42F3D016480EF0D9FE63780133F3E763
:10529000CC650108490F00207C3E0020683B0020BF
:1052A0006C3E0020633B0020480F0020803E002021
:1052B000B96D01088C7001089C3D0020643E0020FF
:1052C000843E0020F06F0108077001081E7001087D
:1052D0006C3B0020F43B0020AC3D002075700108C1
:1052E0005170010838B5204D204C28460EF0A6FE1E
:1052F000B4F822131E480EF005FEB4F824131D481E
:105300000EF000FE94F820131B480EF0FBFDD4F8BD
:1053100030131A480EF0F6FDD4F8381318480EF082
:10532000F1FDD4F83C1317480EF0ECFD94F821136E
:1053300015480EF0E7FDD4F8281314480EF0E2FDEE
:10534000D4F82C1312480EF0DDFDB4F826131148E2
:105350000EF0D8FDD4F834130F480EF0D3FD2846D4
:10536000BDE838400EF06ABEB2700108480F002058
:1053700005710108287101084B7101086E7101085F
:1053800092710108B6710108DA710108FD71010816
:1053900021720108457201086872010810B52423C2
:1053A000104C11492370012304F132006370302343
:1053B000A3704023E370C02323714E23637126231F
:1053C000A3710EF076FF094904F164000EF071FF3D
:1053D000074904F196000EF06CFF064B04221A7088
:1053E00010BD00BF7B37002010570108745701081B
:1053F0007E5701087A3700200D4B2DE9F041074612
:1054000093F800800B4C0026F5B2A84501D8FF2583
:105410000BE020460136FAF71DFF214602463846CA
:1054200032340EF02FFD0028EED12846BDE8F08181
:105430007A3700207B37002030B500259BB06022F2
:10544000294602A801950EF055FD664B186802F03A
:10545000ABFB09280AD81BB030BD002007F090FA3A
:1054600004F168030DEB030404F8640C0020ECB2B3
:1054700007F072FA01350028EFD1002CEBD004F1CF
:10548000680301A96B4403F8640C57480EF03AFD19
:10549000214601A8FFF7B0FF0C2800F2A080DFE84A
:1054A00000F0070E2A37424C56606A747E899400D9
:1054B0004E4B01224E481A700EF0C0FDCBE704F1AE
:1054C00067034C494C480DEB030414F8642C303A44
:1054D0000EF018FD14F8643C303BDBB2022B06D80A
:1054E000464A137040F2052002F0B0FEB3E744488C
:1054F0000EF0A4FDF6E7434943480EF003FD434890
:105500000EF09CFD424A136843F001031360E9E783
:1055100040493D480EF0F6FC3F480EF08FFD3C4BF5
:1055200002221A60DEE73D4937480EF0EBFC3C48AA
:105530000EF084FD364B0422F3E73A4932480EF070
:10554000E1FC39480EF07AFD314B0822E9E7374992
:105550002D480EF0D7FC36480EF070FD2C4B102273
:10556000DFE7344928480EF0CDFC33480EF066FDE5
:10557000274B2022D5E7314931480EF0C3FC314892
:105580000EF05CFD224B4022CBE72F491E480EF067
:10559000B9FC2E480EF052FD1D4B8022C1E72C496C
:1055A00019480EF0AFFC2B480EF048FD184B4FF495
:1055B0008072B6E7284914480EF0A4FC27480EF084
:1055C0003DFD134B4FF40072ABE725490E480EF03A
:1055D00099FC24480EF032FD0D4B0022A1E708484B
:1055E0006AE700BFB4C7002083570108EA0B002018
:1055F00099570108AD370020D9570108EB0B00205F
:10560000EB570108DF3700206B5801088F7E010837
:10561000344B0020113800200D7F01084338002052
:105620004B7F010875380020817F0108A7380020D2
:10563000B97F0108D9380020B37C01080B3900205C
:10564000785801088C7201083D3900209F720108CA
:105650006F390020217E0108A1390020B7720108AE
:10566000D3390020D472010830B50024064D82429F
:1056700001D8204630BD0B5C01306340DBB255F8E9
:10568000233083EA1424F2E7687601082DE9F0411B
:105690000027CCB004464FF49472394602A80EF0AD
:1056A00029FC01AD264E532322460DF117002B7025
:1056B00006F118017388A5F80130B388A5F8033006
:1056C000B3796B71E223AB71B37A6B72D6F80B309E
:1056D000CDF80E30B6F80F30ADF81230737C8DF87F
:1056E0001430B38AA5F811300EF0DCFB04F113007E
:1056F000224606F19801134E1FFA80F815FA80F041
:105700000EF0D0FB294644443846A4B2E31E2F5580
:10571000A21C0634A5F8073092B2A4B2FFF7A4FF8A
:10572000A850BBB29C4202D84CB0BDE8F08115F83D
:10573000011B013796F8200307F046F9F1E700BF97
:10574000783C0020480F002070B5FFF78DFF895886
:105750000446884208D005480EF0D4FB2146044890
:105760000EF0D0FB002070BD0120FCE7DE720108C6
:10577000F57201082DE9F84381460F460026DFF84F
:10578000FC80394D484607F0E7F80446002857D01A
:10579000484607F0F5F898F80030013B042BF1D8A3
:1057A00001A252F823F000BFBD570008CD570008F2
:1057B00085570008E5570008035800085328E1D131
:1057C00001232B80022388F80030DBE72B88082B8D
:1057D00004D1092338722B800423F4E7F8540133F1
:1057E0002B80CFE72B880121FA1832F8026C1F4A70
:1057F000F8540B44118002222B801D4B1A80052384
:10580000E1E71A4A2C8813883855B34228D201336D
:1058100017499BB21380621CB3422A800A8802F1A6
:1058200001020A80AED1033C00260123A4B22E80DF
:1058300088F80030042C06D834460E480EF0FEFBE3
:105840002046BDE8F883224639463046FFF77CFF04
:1058500005460028F4D108482C460EF0EFFBEFE790
:10586000002601232E80AEE7923E0020903E0020CD
:10587000943E00200D7301080F5A01080E0200200B
:105880002DE9F04F0024ADF53D7D4FF494729B4F10
:10589000214672A871940EF02DFB7C22214609A8A6
:1058A00008940EF027FB4FF4967271A997F8200325
:1058B000FFF760FF0528054659D94FF480719048DD
:1058C00071AEDFF86C924FF00A0808F014FD8D48B5
:1058D0000EF0B4FB013416F8011B4846A4B20EF0DA
:1058E00011FBA54238D10A200EF024FB4FF492722E
:1058F000002128A80EF0FEFA9DF8C431BDF8C5813C
:105900008DF8A030B7F82433ADF8A480434534D1E6
:10591000BDF8C791B7F82233ADF8A2904B450DD032
:1059200079480EF08BFBB7F822134A4677480EF001
:10593000E9FA77497748FAF783FCD0B99DF8C9614D
:10594000AA2E8DF8A66028D19DF8CA11E1298DF8FC
:10595000A71029D0704824E0B4FBF8F308FB1343E8
:105960009BB2002BB6D10A200EF0E4FAB2E7002871
:10597000BCD10DF53D7DBDE8F08F68480EF05EFBB3
:10598000B7F82413424661480EF0BCFA60496148FA
:10599000FAF756FC0028BBD0EBE7BB2ED4D031463B
:1059A0005F480EF0AFFAE4E7BDF8CB319DF8D511B2
:1059B0000593ADF8A83011299DF8CD318DF8B210BE
:1059C00006938DF8AA30DDF8CE31CDF8AB30BDF8B6
:1059D000D231ADF8AF309DF8D4318DF8B13001D06F
:1059E0005048DEE7BDF8D631ADF8B4302D9DB5F5A1
:1059F000806F02D929464C48D3E7D7F82843A542FF
:105A00000CD043494348FAF71BFC28B12A462146EB
:105A100046480EF077FAACE7C7F828536B07C5F392
:105A2000CF0408AF76A918BF01342EA818BFA4B2BE
:105A300022460EF037FA76AB3846002291B28C42FD
:105A400031D8630004F114020DF59C7A0DF5E27E65
:105A50009BB292B2D44603F1150080B2511C89B2B8
:105A6000884227D103F1140B224608A94EA80493BB
:105A70001FFA8BFB0EF006FA049B079070B300250B
:105A80002B4E2C480EF0DAFAABB29C4218D8002507
:105A9000274E29480EF0D2FAABB29C4217D82748BD
:105AA0000EF0CCFA65E713F8011B0132C94300F888
:105AB000011BC3E71EF802200CF8012B0A46CDE7B4
:105AC0001AF8011B304601350EF01CFADCE717F816
:105AD000011B304601350EF015FADDE771A95A4673
