:020000040800F2
:1000000000000820FDA80008F1A10008F3A10008E5
:10001000F5A10008F7A10008F9A100080000000000
:10002000000000000000000000000000FBA100082C
:10003000FDA1000800000000FFA1000801A20008C7
:100040004DA900084DA900084DA900084DA90008B8
:100050004DA900084DA9000805A200080BA2000840
:100060004DA900084DA900084DA900084DA9000898
:100070004DA900084DA900084DA900084DA9000888
:100080004DA900084DA900084DA900084DA9000878
:100090004DA900084DA900084DA900084DA9000868
:1000A0004DA900084DA900084DA900084DA9000858
:1000B0004DA900084DA9000811A200084DA900088B
:1000C0004DA900084DA900084DA900084DA9000838
:1000D0004DA900081DA200084DA900084DA900085F
:1000E0004DA900084DA900084DA900084DA9000818
:1000F0004DA900084DA900084DA900084DA9000808
:100100004DA900084DA9000829A200084DA9000822
:1001100035A2000841A200084DA2000859A200081B
:100120004DA900084DA900084DA900084DA90008D7
:100130004DA9000865A200084DA900084DA90008B6
:1001400071A200087DA200084DA900084DA9000871
:100150004DA900084DA900084DA900084DA90008A7
:100160004DA900084DA900084DA900084DA9000897
:100170004DA900084DA900084DA900080000000085
:100180004DA900084DA9000881A200084DA900084A
:100190004DA900084DA900084DA900084DA9000867
:1001A0004DA900084DA900084DA900084DA9000857
:1001B0004DA900084DA900084DA900084DA9000847
:1001C0004DA900084DA900084DA900084DA9000837
:1001D0004DA900084DA900084DA900084DA9000827
:1001E0004DA900088DA2000899A200084DA9000899
:0801F0004DA900084DA900080B
:1002000010B5054C237833B9044B13B10448AFF350
:1002100000800123237010BDD801002000000000E1
:100220008C34010808B5034B1BB103490348AFF3F5
:10023000008008BD00000000DC0100208C340108B3
:1002400010F8012B11F8013B012A28BF9A42F7D080
:10025000D01A7047034613F8012B002AFBD1181A55
:10026000013870470000000000000000000000009E
:1002700001F0FF01102A2BDB10F0070F08D010F857
:10028000013B013A8B422DD010F0070F42B3F6D15B
:10029000F0B441EA012141EA014122F007047FF074
:1002A00000070023F0E80256083C85EA010586EACB
:1002B000010685FA47F5A3FA87F586FA47F6A5FA07
:1002C00087F68EB9EED1F0BC01F0FF0102F0070213
:1002D00032B110F8013B013A83EA010313B1F8D1BE
:1002E0000020704701387047002D06BF354603389F
:1002F000073815F0010F07D1013015F4807F02BFD8
:10030000013015F4C03F0130F0BC0138704700BF28
:1003100053B94AB9002908BF00281CBF4FF0FF316C
:100320004FF0FF3000F074B9ADF1080C6DE904CE68
:1003300000F006F8DDF804E0DDE9022304B07047C0
:100340002DE9F047089D04468E46002B4DD18A4288
:10035000944669D9B2FA82F252B101FA02F3C2F1BB
:10036000200120FA01F10CFA02FC41EA030E94404C
:100370004FEA1C48210CBEFBF8F61FFA8CF708FB6D
:1003800016E341EA034306FB07F199420AD91CEB45
:10039000030306F1FF3080F01F81994240F21C8177
:1003A000023E63445B1AA4B2B3FBF8F008FB1033BF
:1003B00044EA034400FB07F7A7420AD91CEB0404F4
:1003C00000F1FF3380F00A81A74240F207816444C4
:1003D000023840EA0640E41B00261DB1D440002349
:1003E000C5E900433146BDE8F0878B4209D9002DAD
:1003F00000F0EF800026C5E9000130463146BDE837
:10040000F087B3FA83F6002E4AD18B4202D38242A0
:1004100000F2F980841A61EB030301209E46002D4F
:10042000E0D0C5E9004EDDE702B9FFDEB2FA82F2A4
:10043000002A40F09280A1EB0C014FEA1C471FFA02
:100440008CFE0126200CB1FBF7F307FB131140EAE9
:1004500001410EFB03F0884208D91CEB010103F1B6
:10046000FF3802D2884200F2CB804346091AA4B278
:10047000B1FBF7F007FB101144EA01440EFB00FE4C
:10048000A64508D91CEB040400F1FF3102D2A645B1
:1004900000F2BB800846A4EB0E0440EA03409CE750
:1004A000C6F12007B34022FA07FC4CEA030C20FAFD
:1004B00007F401FA06F31C43F9404FEA1C4900FA1D
:1004C00006F3B1FBF9F8200C1FFA8CFE09FB18119A
:1004D00040EA014108FB0EF0884202FA06F20BD90D
:1004E0001CEB010108F1FF3A80F08880884240F25D
:1004F0008580A8F102086144091AA4B2B1FBF9F0A1
:1005000009FB101144EA014100FB0EFE8E4508D99B
:100510001CEB010100F1FF346CD28E456AD9023820
:10052000614440EA0840A0FB0294A1EB0E01A14205
:10053000C846A64656D353D05DB1B3EB080261EB73
:100540000E0101FA07F722FA06F3F1401F43C5E94D
:10055000007100263146BDE8F087C2F12003D84083
:100560000CFA02FC21FA03F3914001434FEA1C47C5
:100570001FFA8CFEB3FBF7F007FB10360B0C43EAB7
:10058000064300FB0EF69E4204FA02F408D91CEB67
:10059000030300F1FF382FD29E422DD90238634465
:1005A0009B1B89B2B3FBF7F607FB163341EA034105
:1005B00006FB0EF38B4208D91CEB010106F1FF3854
:1005C00016D28B4214D9023E6144C91A46EA00464B
:1005D00038E72E46284605E70646E3E61846F8E6DD
:1005E0004B45A9D2B9EB020864EB0C0E0138A3E726
:1005F0004646EAE7204694E74046D1E7D0467BE707
:10060000023B614432E7304609E76444023842E77E
:10061000704700BF10B54418A4B2082C12D8C0F11E
:100620000700002380B2127842EA0322C1F10103DD
:100630001844134B80B253F821308340134023FAFF
:1006400000F010BD102C08D8C0F10F00002480B2BB
:1006500012F8013B43EA0423E5E7182C137887BF1F
:1006600001321C46C0F11700002488BFC0F11F00F2
:1006700012F8013B94BF80B280B243EA0424E7E75A
:10068000A8340108F0B54518ADB2082D24D8C0F142
:10069000070014460125002680B22478032D44EA81
:1006A0000624214E56F82160C1F10101084403EAF5
:1006B000060380B206FA00F103FA00F024EA010111
:1006C00040EA01002CD0042D27D0022D02D1030ACC
:1006D00002F8013B1070F0BD102D0AD8C0F10F00D8
:1006E00014460225002780B214F8016B46EA07265B
:1006F000D3E7182D17780AD8C0F117001446032540
:10070000002780B214F8016B46EA0727ECE7C0F136
:100710001F00541C042580B2F4E7030E02F8013BCD
:10072000030C02F8013BD2E7A834010810B52423DA
:100730001C4C1D492370012304F1320063703023E7
:10074000A3704023E370C02323714E2363712623DB
:10075000A37111F0BCFC154904F1640011F0B7FC61
:10076000134904F1960011F0B2FC124904F1C800DB
:1007700011F0ADFC104904F1FA0011F0A8FC0F498A
:1007800004F5967011F0A3FC0D4904F5AF7011F05B
:100790009EFC0C4904F5C87011F099FC0A4B092223
:1007A0001A7010BDF50100202C35010837350108FD
:1007B00047350108573501086A3501087D350108BC
:1007C000903501089A350108F401002007B54FF66D
:1007D000FF7301A90190012207480DF08EFF074B1E
:1007E0000222186800238068194611F07BFB0198EB
:1007F00003B05DF804FB00BF94B900203400002072
:1008000010B508210E480BF079FC1021B0FA80F4E5
:100810000B480BF073FC00284FEA54144FF40051BE
:100820000CBF02200020044306480BF067FC0028A0
:10083000054B0CBF0420002004431C7010BD00BFFA
:100840000028024000200240300D00200D4B2DE911
:10085000F041074693F800800B4C0026F5B2A845FE
:1008600001D8FF250BE020460136FFF7F3FC2146B7
:1008700002463846323411F013FA0028EED12846E9
:10088000BDE8F081F4010020F501002030B500251D
:100890009BB06022294602A8019511F039FA6B4BF2
:1008A000186806F019FC09280AD81BB030BD0020D2
:1008B00009F074FF04F168030DEB030404F8640C01
:1008C0000020ECB209F056FF01350028EFD1002CD2
:1008D000EBD004F1680301A90DEB030505F8640CE6
:1008E0005B4811F01DFA214601A8FFF7AFFF092868
:1008F00000F2A980DFE800F0050C284359718191CE
:100900009A9F544B012254481A7011F0A5FACCE773
:1009100004F16703514952480DEB030414F8642CA9
:10092000303A11F0FDF914F8643C303BDBB2012B96
:1009300006D84C4A137040F2052006F025FFB4E7B4
:10094000494811F089FAF6E704F167034749484836
:100950000DEB030414F8642C303A11F0E1F945482A
:1009600011F07AFA444B14F8642C1968303A41F0CB
:1009700010011A711960414811F0D2F9DBE704F156
:1009800067033F493A480DEB030414F8642C303AEE
:1009900011F0C6F93B4811F05FFA14F8643C364A8E
:1009A0002021303B11601371E5E704F167033649FC
:1009B0002F480DEB030414F8642C303A11F0B0F911
:1009C000324811F049FA2C4B1A6842F400721A604E
:1009D00014F8642C303A1A71ADE704F167032C491E
:1009E00023480DEB030414F8642C303A11F098F905
:1009F000214B1A6842F00102E9E704F16703254937
:100A00001B480DEB030414F8642C303A11F088F9FC
:100A1000194B1A6842F00202D9E71F491F4811F02A
:100A20007FF90022144B1A60FF22D4E71C491D48AD
:100A300011F076F939E715F8652C1B49303A0C4866
:100A400011F06EF931E708485FE700BFFCA700200E
:100A50009F350108DD090020B53501082702002077
:100A6000F5350108DE09002007360108590200208B
:100A7000213601083A3601082C12002049360108B7
:100A80008B0200205C360108BD0200206C36010894
:100A9000EF020020210300205303002087360108C5
:100AA0008503002094360108B70300202DE9F843A0
:100AB0001F4D286806F010FB40F6B83398421CD949
:100AC0001C4B0021DFF87C901A781B4E012A1B4F2B
:100AD000DFF874800CBF93F82030012389F80020E0
:100AE00089F8013099F801308B4208D84FF4FA7038
:100AF00006F04AFE0AF030F82860BDE8F8833B882B
:100B0000B9F802400B413278DB070AD52143012AAC
:100B1000CCB203D121460A4811F002F9611CC9B2D6
:100B2000E0E7012A21EA0404F8D121464046F3E730
:100B30002C0D0020E8090020DE090020E409002037
:100B4000A9360108280D0020B53601082DE9F04F1F
:100B5000B5B00E461446814609F0FEFF0021009014
:100B60007C2215A8149111F0D3F80E49422303FBFF
:100B70000413B3F84030B3421AD104EB44133246A5
:100B8000484601EB430111F08BF888B9064A074843
:100B900002EB8404D4F89C1111F0C2F835B0BDE822
:100BA000F08F00BF1A130020E8090020C0360108AA
:100BB000053E20210020CF4F09EB060B5A46FFF7D8
:100BC00029FDCD4B01901A6812F0010F00F0E08171
:100BD0001B79A34240F0DC81C84818250CF006FCC4
:100BE000C74BB0FBF3F8C8EB0848A0EB0828C54892
:100BF00011F032F905FB0473C348996811F090F8BD
:100C00004146C24811F08CF8434614AA29460020F8
:100C1000FFF738FD0023D9B20133B142C0F2BE81E3
:100C2000033114A808F05EFA019B804609F1050A19
:100C3000834248D0524608210020FFF7EBFC0546CE
:100C4000002840F0CA81B24811F006F980222946F6
:100C500014A811F05DF8182114AA284601FB0473AA
:100C60009B680133FFF70EFDE9B201358E4200F3B8
:100C70009D81033114A808F035FA05465A46202113
:100C80000020FFF7C7FC8542064640F097811826F2
:100C9000A04811F0E1F8294666439F4811F040F85A
:100CA0009E4837449E4DB96805EB041511F038F89D
:100CB000B9689C480131B960A96011F031F89A4BCC
:100CC0001E44AB68B36009F1010210210020FFF758
:100CD000A1FCADF8480081B2944811F021F809F167
:100CE000030210210020FFF795FCADF8460081B209
:100CF0008F4811F015F8524608210020FFF78AFCB2
:100D000009F1060208210020FFF784FC09F107021F
:100D100008210020FFF77EFC09F108028DF822006F
:100D200010210020FFF776FC820683B2019340F188
:100D3000628109F10A02082100201027FFF76AFCEE
:100D400009F10B0208210020FFF764FC09F10C02F5
:100D500008210020FFF75EFC09F10D0208210020A8
:100D6000FFF758FC09F10E0208210020FFF752FCA2
:100D700009F10F0208210020FFF74CFC09EB0702E4
:100D8000082100200DF1250AFFF744FC4FF0000870
:100D9000C5B2684829468DF8235010F0C1FF7A1C6F
:100DA000082100204A440237FFF734FC15F0070FF2
:100DB0004FEAD5055FFA80FB14BF0135EDB28DF81F
:100DC00024B0AEB21FFA88F317FA88F29E4292B2AC
:100DD00000F213813E440DF135080A20B6B210F03E
:100DE000B7FFB3441FFA8BFB5E4540F0158110221C
:100DF00000210DF10D0027B210F08AFF2A460DF1F7
:100E000025010DF10D0010F05BFF2A460DF10D01DB
:100E1000002008F0F5F8484BADF81E0023448DF88B
:100E20001D508DF80C4093F82D30012B5CD1019BA7
:100E30001B0759D5DFF81C81142303FB04835B8A4D
:100E4000834251D007EB870510220021AD00681CBA
:100E500008EB0006304610F05BFF08EB05030DF1D0
:100E60000C0C0DF11C0E1A466546083203CD754573
:100E700042F8080C42F8041CAC46F5D12868106012
:100E800000992E4A42F82410142202FB0482518A4F
:100E90002B4A32F81400884226D022F8141003F1AD
:100EA0001401284A53F8040B8B4242F8040BF9D181
:100EB00040F2072006F068FC234B33F814309BB94E
:100EC000224B304606F1100203EB0413023350F8B4
:100ED000041B904243F8041BF9D140F2191006F0AC
:100EE00053FC1B4B009A1A6018230F4D07EB470762
:100EF00032E000BF981B00202C120020F49B002041
:100F000000FFFF00013701082037010846370108BC
:100F10006C37010886370108A8370108C537010872
:100F20004C120020DE370108481E0020423801081C
:100F30004938010850380108E809002050160020FF
:100F4000681A0020381F002078170020981F002002
:100F5000AC160020B0160020354E6343EC5405EB70
:100F60000308012305EBC70588F801300FCD0FC634
:100F700095E8030086E8030040F2012006F004FC37
:100F80000023009A88F801302A4B43F8242005E614
:100F9000182114AA01FB04739B6838E601F1D00202
:100FA00019F801106A4402F87D1C34E601F1D003FF
:100FB00019F801206B4403F87D2C55E61E4A1F48A2
:100FC00002EB8404D4F89C1110F0AAFE31461C48B0
:100FD00010F0A6FE29461B48DEE5174A174802EB2B
:100FE0008404D4F89C1110F09BFE0199144810F071
:100FF00097FE4146EFE70A27C0E64A440821002051
:10100000FFF708FB4146C2B20AF8010B0E4808F18F
:10101000010810F085FED5E609EB0602013608212D
:101020000020FFF7F7FA08F8010BB6B2DCE600BFC4
:101030002C1E0020701D0020E8090020083801083F
:101040002438010833380108583801082DE9F041E7
:10105000054609F081FD2F4B06465A1992F82D20BE
:10106000022A16D018222C4C6A43144494F80380A8
:10107000B8F1000F1ED129490A44D6785EB9227909
:101080003AB103EB85032648D3F89C1110F048FED3
:101090002671BDE8F081012EFBD12279002AF8D01B
:1010A00003EB85031F48D3F89C1110F039FE84F838
:1010B0000480EEE7B8F1010FEBD118490A44D77864
:1010C0008FB92279012AE4D003EB85031648D3F8BF
:1010D0009C1110F025FE154B276143F82560144B39
:1010E00043F82560E3E7012FD3D12279012AD0D03C
:1010F00003EB85030F48D3F89C1110F011FE0B4B46
:10110000277143F825600A4B43F8256000232361CB
:10111000BFE700BFE8090020481E0020981B002000
:1011200067380108A1380108DA38010800160020E4
:1011300028160020123901082DE9F843DFF83C8118
:10114000044608EB000393F82D30022B72D01822CE
:101150003C4D3D4E4243A91832448B6892689342FD
:1011600031D082B30979012902D13849095C51BBD8
:101170009B1A374A002BB8BF5B42012B02D1135D8B
:10118000032B59D11827002332486743135508EB26
:10119000840305EB07093744D3F89C1110F0C0FD18
:1011A000D9F808102C4810F0BBFDB9682B4810F096
:1011B000B7FD2B4810F050FE2A4BBA6803EB04131E
:1011C000C9F808209A6018226243A9183244CB68F3
:1011D000D26893422ED06AB30979012902D11B4902
:1011E000095D39BB9B1A204A002BB8BF5B42012B1B
:1011F00002D1135D032B22D11827002308EB8408AA
:101200001A48674313553D44D8F89C113E4410F0EA
:1012100087FDE968164810F083FDF168154810F065
:101220007FFD154810F018FE0E48F36800EB04141B
:10123000EB60E360BDE8F88301331355C3E7013386
:101240001355F7E7481E0020981B0020F6120020D7
:10125000540D00204C3901088E390108B2390108BB
:10126000D63901084C1200205E0D0020FE3901081D
:10127000403A0108643A0108883A0108E809002068
:10128000F8B50024154D164F95F82030E6B2B3425C
:1012900023D957F82600013405F01EFFD5F818327F
:1012A0009842F1D918230F4C0C220F4D03FB064432
:1012B000002363700D4B02FB06335B78A3700FCCE9
:1012C0000FC594E8030085E8030040F2012006F012
:1012D0005BFA09F041FC47F82600F8BDE809002058
:1012E000701D0020481E00202C1E0020B41100207C
:1012F00038B51D4D2B78012B01D108F0BDF81B49E5
:101300001B48FEF79DFF10B901232B7038BD194C07
:10131000206805F0E1FE184BD3F81C329842F5D353
:10132000164B20681A688242F0D0002418602C7096
:1013300005F0D2FE4FF47A71B0FBF1F1104810F0D5
:10134000EFFC104810F088FD214618220E4810F0DE
:10135000DFFC2146A2220D4810F0DAFC40F2191001
:10136000BDE8384006F010BA00000020B03A01088D
:10137000E9090020801A0020E80900207C1A0020DA
:10138000BC3A0108E93A0108981B0020981F002088
:101390002DE9F04F0024ADB09D4EA622214602A8B3
:1013A0009C4F019410F0B4FC306805F095FED7F81E
:1013B0002032984200F2CE802DB0BDE8F08F4FF081
:1013C000100B39F814300BFB0485012B05F10205D5
:1013D00040F08F8090499148FEF732FF002800F0DE
:1013E000888007EB84038E48D3F89C1110F098FC9A
:1013F0005A460021284610F08BFC0134E4B297F8DD
:101400002030A342DBD884498448FEF719FF854B7E
:10141000002840F0A68001221A70834D2B78012B02
:1014200019D104F0C7F881494FF00008DFF8149291
:10143000DFF830A28B784A787D48097810F070FC8C
:101440001FFA88F497F82030B4EB031FC0F299809C
:101450000A2010F07DFC40F2191006F095F96E4953
:101460006E48FEF7EDFE00283DD1724F386805F05A
:1014700033FEB0F5FA6F4FF0A0026F496F48C0F02D
:101480008F8010F01DFC7E238DF804308DF8053020
:101490008DF806302B78012B02D1694810F0DCFC66
:1014A00068490DF1070031F8024B224610F008FCA4
:1014B00004F1B0037F222CA96B4401A803F8A92CE6
:1014C000231D11FA83F303F8AC2C631D11FA83F387
:1014D000A11D03F8AC2CC9B25B4B1A6805F090FF54
:1014E00009F03AFB3860FFF7E1FA09F035FB3060AC
:1014F00062E7564BBAF800B01A5D012A13D0544B7C
:101500001A5D012A1DD1142313FB0422514B1344ED
:1015100003F1100253F8041B934245F8041BF9D160
:1015200024EA0B0469E7142313FB04224A4B1344F7
:1015300003F1100253F8041B934245F8041BF9D140
:10154000EEE744EA0B04102200212846E4B210F032
:10155000DFFB52E7DFF8EC80DFF80C91DFF80CA13D
:101560004DE71C78002C7FF458AF3C4810F074FC19
:101570003B4810F071FCA2222146324810F0C8FB13
:101580004BE709EB040301345046997810F0C8FB8F
:10159000230702D10A2010F0DBFB08F101084FE716
:1015A00010F07EFB00289ED0A0222349234810F093
:1015B00087FB7E238DF804308DF805308DF80630DA
:1015C0002B78012B02D11E4810F046FC1D490DF16D
:1015D000070031F8024B224610F072FB04F1B00311
:1015E0007F222CA96B4401A803F8A92C231D11FA12
:1015F00083F303F8AC2C631D11FA83F3A11D03F8E8
:10160000AC2CC9B2104B1A6805F0FAFE6BE700BFAC
:10161000AC160020E8090020B03A0108E9090020D2
:101620000B3B010800000020DE0900206E2700208F
:10163000603B0108941F00209A1F002050190020D1
:10164000853B0108981F0020A41A0020A016002046
:10165000B4170020E8170020B01600201F3B010837
:10166000433B01084145010878170020E4090020A8
:1016700038B505460024E3B20134E95C01B938BD50
:10168000002009F0AFF8F6E7F0B5ADF5057D0E46A0
:1016900000210446174605A84FF4FE72049110F08D
:1016A00037FB76B34F48FFF7E3FF621C10210020A1
:1016B000FEF7B0FF4C49024604A810F0D9FC04A87C
:1016C000FFF7D6FFE21C10210020FEF7A3FF4749D9
:1016D000024604A810F0CCFC04A8FFF7C9FFE21DE5
:1016E00008210020FEF796FF05464148FFF7C0FF9E
:1016F000E8B20138052866D8DFE800F0055F6561CB
:1017000065633C48CFE7002E55D03B48FFF7B0FF5C
:101710003A48FFF7ADFF621D08210020FEF77AFF6F
:101720003749024604A810F0A3FC04A8FFF7A0FF65
:10173000A21D08210020FEF76DFF3249024604A8D1
:1017400010F096FC04A8FFF793FF04F108021021A3
:101750000020FEF75FFF2C4982B2054604A810F076
:1017600087FC04A8FFF784FFAB062ED5E37B04A813
:10177000A27A0393A37B25490293637B0193237B86
:101780000093E37A10F074FC04A8FFF771FF204B7C
:101790001B78012B0CD127441E4DBC4217D13EB9FA
:1017A000F6221C4904A810F063FC04A8FFF760FFB0
:1017B0000DF5057DF0BD1848A8E71848A6E71848BC
:1017C000A4E71848A2E71848A0E71848DDE714F88E
:1017D000012B294604A810F04BFC04A8FFF748FF92
:1017E000DBE700BFA43B0108AC3B0108B43B0108A8
:1017F000BC3B0108A83B0108C03B0108A63B01080F
:10180000EB3B0108F53B0108FF3B0108093C0108DF
:10181000DE09002041450108C73B0108CE3B010815
:10182000D23B0108D63B0108DA3B01082B3C0108FA
:101830002DE9F0439BB006460F460021154602A84D
:101840006022019110F064FA3378B4464FF0F00E44
:101850008DF80430012318465C1C03F16802B8427D
:10186000E4B20DEB020151D3F623DFF8F09001F85A
:10187000643C19F80530012B0AD1334B93F88030C2
:1018800033B9324B1B78012B02D13148FFF7F0FE00
:10189000DFF8CC8008EB050393F82D30012B09D13C
:1018A0002C4B214601A853F8252005F057FD0023B5
:1018B00009F80530454495F82D30022B06D10DF17D
:1018C00004080025A4B2ABB29C4236D81F4D2B7839
:1018D000012B02D11E48FFF7CBFE1B4C94F8802051
:1018E00032B101212046FFF7CFFE002384F880307B
:1018F0003A4600213046FFF7C7FE2B78012B02D174
:101900001548FFF7B5FE1BB0BDE8F0831CF8012FAA
:101910000130EF2AC0B281BF01F864EC04F1680124
:10192000023302F00F0289BF0DEB010401F8642CB1
:1019300004F8642CDCB223468EE718F8011B032060
:10194000013508F04FFFBEE7881C0020DE090020AB
:101950003E3C0108A41A00209C3C0108641D0020A4
:10196000E80900202DE9F043002791B00446382211
:101970003946DFF8D89202A8019710F0C9F9F4238C
:1019800001AA082138469F4EFEF77CFE0DF10502A4
:1019900009EB840310213846D3F89C31FEF772FE20
:1019A0000DF1070209EB840310213846D3F8C43146
:1019B000FEF768FE32685107C2F3800340F10981E7
:1019C0003379A3421BD1C8258F480BF00FFDB0FB24
:1019D000F5F303FB15058D4810F03EFA3946013545
:1019E0008B4810F09DF98B48EDB2294610F098F91C
:1019F0002B460DF1090208213846FEF743FE3368F5
:101A00004FEA0418844F13F0080FC3F3C00000F02E
:101A1000E5803379A3421BD1C8257B480BF0E6FC57
:101A2000B0FBF5F303FB15057C4810F015FA07EB46
:101A300008037B48997810F073F92946794810F02B
:101A40006FF92B460DF10A0208210020FEF71AFE5D
:101A500001230DF10B0208210020FEF713FE07EB16
:101A60000805052303AA10210020EB80FEF70AFEDB
:101A700017230DF10E0208210020FEF703FE0123BB
:101A80000DF10F0210210020FEF7FCFD664B0DF159
:101A9000110220210020FEF7F5FD00230DF11502B3
:101AA00010211846FEF7EEFD00230DF1170210215C
:101AB0001846FEF7E7FD00230DF119021021184624
:101AC000FEF7E0FD00230DF11B0210211846FEF782
:101AD000D9FDAB68554A07EB080518210020934251
:101AE0000DF11D028CBF03F1FF330133EB60FEF7F4
:101AF000C9FD18224E4B0821002002FB0433EA687E
:101B0000DA604C4B1A5DB22A94BF01320A221A5590
:101B100008AA1B5DFEF7B6FD01230DF12102082185
:101B20000020FEF7AFFD01230DF122020821002065
:101B3000FEF7A8FD00230DF1230208211846FEF749
:101B4000A1FD33689A0653D53379A34250D17D2540
:101B50002D480BF04BFC4744B0FBF5F303FB150598
:101B6000354810F079F9F9780135344810F0D8F893
:101B7000FB78EDB23248AB4204BF023DEDB22946DC
:101B800010F0CEF82B4609AA08210020FEF77AFDB6
:101B900000230DF1250208211846FEF773FD2221CE
:101BA00001A807F09FFA0DF126020346202100202C
:101BB000FEF768FD33689B051ED53379A3421BD120
:101BC000204810F049F9204810F0AAF811B0BDE8FB
:101BD000F0830DF10902082118460EE707EB080211
:101BE000082193780133DBB293700DF10A022DE7DF
:101BF000A14499F8EB30C6E72246262101A8FFF759
:101C000017FEE3E72C120020F49B0020F93C0108AA
:101C10001C3D01083B3D01084C1200205A3D0108C3
:101C20007D3D01089C3D0108AF32E233EFFFFF002C
:101C3000481E002001000020BB3D0108EB3D0108CB
:101C4000043E01081F3E0108343E0108E809002057
:101C50002DE9F0474FF000089EB004463822414677
:101C600010A89E4D2701CDF83C8010F051F83C2281
:101C7000414668469A4E10F04BF8F4236A46082114
:101C80004046FEF7FFFC0DF1010205EB8403102135
:101C900005EB84054046D3F89C31FEF7F3FCD5F8FC
:101CA000C431904D0DF1030210214046FEF7EAFCCD
:101CB0002B6813F0040F00F0F7802B79A34240F05B
:101CC000F3804FF0C80988480BF090FBB0FBF9F3A4
:101CD00003FB1909854810F0BFF8F31984485978B7
:101CE00010F01EF84946834810F01AF84B460821B8
:101CF0000DF105020020FEF7C5FC2B68190740F125
:101D0000D6802B79A34240F0D2804FF0C8087648A5
:101D10000BF06CFBB0FBF8F303FB1808764810F0EF
:101D20009BF8F319754899780FF0FAFF414674480B
:101D30000FF0F6FF43460DF1060208210020DFF800
:101D4000E081FEF79FFC02230DF10702082100202D
:101D5000DFF8D0A1FEF796FC18F80430012B40F014
:101D6000A98003F027FC674A04EB440310680AEBE0
:101D700043014AF81300938863488B8010F06CF895
:101D80000020682302AA102108F804004FF0060979
:101D9000FEF778FC0DF10A02082109FB04F9002086
:101DA0000AEB090898F80530FEF76CFC98F8043047
:101DB0000DF10B0208210020FEF764FC98F80330B7
:101DC00003AA08210020FEF75DFC1AF809300DF186
:101DD0000D0208210020FEF755FC98F801300DF1A6
:101DE0000E0208210020FEF74DFC98F802300DF19C
:101DF00010080DF10F0208210020FEF743FC01231B
:101E0000424608210020FEF73DFC00230DF111029F
:101E100008211846FEF736FC01230DF112020821B5
:101E20000020FEF72FFC2B689A0748D52B79A34298
:101E300045D12D483E440BF0D9FA8146334810F085
:101E40000BF8F16832480FF06BFF494631480FF04C
:101E500067FF4B460FAA18210020FEF713FC6A46C5
:101E60000DF13F031646083303CE464543F8080CF0
:101E700043F8041C3246F5D131880FA8B278198096
:101E800016219A7007F02EF90DF113020346202156
:101E90000020FEF7F7FB2B689B0513D42246172181
:101EA0006846FFF7C5FC16E0F3195B781FE7F319E6
:101EB0009B7840E7282302AA1021002066E73E44D1
:101EC000F368C7E72B79A342E8D113480FF0C4FFAA
:101ED00012480FF025FF1EB0BDE8F087E80900208A
:101EE0004C1200202C120020F49B0020463E0108DA
:101EF000693E0108873E01085A3D01087D3D010801
:101F00009C3D010868270020A63E0108BB3E010851
:101F1000DE3E0108FF3E01081F3E0108343E010875
:101F2000430D0020680D00202DE9F04F4FF0000810
:101F30009FB004463822414601A8AE4D2601CDF897
:101F400000800FF0E5FE3822414610A8CDF83C8015
:101F50000FF0DEFEF4236A4608214046A64FFEF746
:101F600091FB0DF1010205EB8403102105EB8405C3
:101F70004046D3F89C31FEF785FBD5F8C4310DF10E
:101F80000302102140469D4DFEF77CFB3B6813F099
:101F9000040F00F001813B79A34240F0FD804FF037
:101FA000C80997480BF022FAB0FBF9F303FB1909B3
:101FB00094480FF051FFAB19934859780FF0B0FED9
:101FC000494692480FF0ACFE4B460DF10502082140
:101FD0000020DFF868A2FEF755FB3B6813F0080FFE
:101FE00000F0DD803B79A34240F0D9804FF0C80873
:101FF00083480BF0FBF9B0FBF8F303FB18088448A7
:102000000FF02AFFAB19834899780FF089FE4146FB
:1020100081480FF085FE43460DF10602082100209D
:10202000FEF730FB01238AF8003004230DF107028C
:1020300008210020FEF726FBAB19DFF80482988800
:1020400018F8043010F0080000F0B780012B02AA45
:102050004FF010014FF000000CBF68232823FEF75B
:1020600011FBAB199B88990640F1AF8018F804303A
:10207000DFF8D0B1012B11D103F09CFA674A04EBD1
:10208000440310680BEB43014BF81300938864483A
:102090008B800FF0E1FE002308F804304FF00609B2
:1020A0000DF10A020821002009FB04F90BEB0908D5
:1020B00098F80530FEF7E6FA98F804300DF10B02B7
:1020C00008210020FEF7DEFA98F8033003AA082161
:1020D0000020FEF7D7FA1BF809300DF10D02082198
:1020E00000204FF01009FEF7CDFA98F801300DF1FD
:1020F0000E0208210020FEF7C5FA98F802300DF113
:102100000F0208210020FEF7BDFA3B689A075FD551
:102110003B79A3425CD13A4835440BF067F9414B17
:10212000B0FBF3F8C8EB0848A0EB08283E480FF0D6
:1021300093FEE9683D480FF0F3FD41463C480FF03F
:10214000EFFD43460FAA18210020FEF79BFA00235B
:10215000DAB201334A4511463DD303310FA806F0E8
:10216000C1FF202103460DEB09020020FEF78AFA89
:10217000002309F104018AF800303B689B0531D542
:102180003B79A3422ED12B480FF066FE2A480FF070
:10219000C7FD1FB0BDE8F08FAB195B7815E7AA1932
:1021A0000020082193788AF800000133DBB2937095
:1021B0000DF10602FEF766FA37E7012B02AA4FF08F
:1021C00010010CBF6423242349E74FF00A099CE760
:1021D0003544EB68B6E778326A4412F8781C02F8A6
:1021E000391CB5E7224601F0FE016846FFF720FBE7
:1021F000CFE700BFE80900202C1200204C1200207D
:10220000F49B0020F93C0108223F01083F3F0108F0
:102210005A3D01085E3F01087B3F01086827002006
:10222000A63E010800FFFF00BB3E0108DE3E01089C
:10223000FF3E01081F3E0108343E0108091D002031
:10224000430D0020680D00202DE9F0434FF00008F9
:1022500091B0044638224146744D02A8CDF804805E
:102260000FF056FDF42301AA08214046704EFEF7F8
:1022700009FA0DF1050205EB8403102105EB840535
:102280004046D3F89C312701FEF7FCF9D5F8C4315C
:102290000DF1070210214046664DFEF7F3F9336851
:1022A00013F0040F00F0AE803379A34240F0AA800F
:1022B0004FF0C80960480BF099F8B0FBF9F303FB45
:1022C00019095E480FF0C8FDEB195D4859780FF009
:1022D00027FD49465B480FF023FD4B460DF10902EF
:1022E00008210020FEF7CEF933681A0740F18D80EF
:1022F0003379A34240F089804FF0C8084E480BF074
:1023000075F83D44B0FBF8F303FB18084E480FF096
:10231000A3FDA9784D480FF003FD41464C480FF04E
:10232000FFFC43460DF10A0208210020494DFEF74B
:10233000A9F906230DF10B0208210020DFF82881FE
:10234000FEF7A0F92B5D012B65D103F033F9424A6A
:1023500004EB4403106808EB430148F8130093882A
:102360003E488B800FF078FD0020692303AA1021DE
:1023700028550627FEF786F90DF10E02082167435E
:10238000002008EB07056B79FEF77CF92B790DF13E
:102390000F0208210020FEF775F9EB7804AA082146
:1023A0000020FEF76FF918F807300DF1110208212F
:1023B0000020FEF767F96B780DF11202082100206A
:1023C000FEF760F9AB780DF1130208210020FEF74B
:1023D00059F9102101A806F085FE05AA034620211F
:1023E0000020FEF74FF933689B0519D53379A342D6
:1023F00016D11B480FF030FD1A480FF091FC11B0B8
:10240000BDE8F083EB195B7868E73D44AB780133B6
:10241000DBB2AB7086E7292303AA10210020A8E7CE
:102420002246142101A8FFF703FAE8E7E809002093
:102430002C1200204C120020F49B0020F93C0108D3
:10244000223F01083F3F01085A3D01085E3F010855
:102450007B3F0108430D002068270020A63E0108AD
:102460001F3E0108343E0108680D00202DE9FF479A
:10247000624C002762480FF0EFFC94F8211061488D
:102480000FF04EFCD4F818125F480FF049FCD4F856
:102490001C125E480FF044FCD4F820125C480FF088
:1024A0003FFCD4F824125B480FF03AFCDFF894812B
:1024B000B4F8F6105848DFF890910FF031FCDFF8CF
:1024C0008CA194F821104F480FF02AFC94F8213089
:1024D000FDB2AB4234D894F83A30002694F8382054
:1024E00094F8371000934D4894F839300FF018FCE9
:1024F00094F8443094F84020029394F8433094F8D0
:102500003F10019394F8423045480093DFF8408132
:1025100094F84130DFF83C910FF002FCDFF838A16D
:10252000B4F8F6103F480FF0FBFB94F82030F5B2FA
:10253000AB4223D8324804B0BDE8F0470FF08CBC62
:1025400004EB850629464046013796F84E30019344
:1025500096F84D30009396F84C3096F84B200FF0DB
:10256000DFFBB6F8FA20294648460FF0D9FBB6F84B
:10257000FC20294650460FF0D3FBA7E7691C4046D4
:102580000FF0CEFB484604EB850367190136D3F8FC
:102590009C110FF0C5FB504604EB8503D3F8C41122
:1025A0000FF0BEFB204804EB4503B3F8EC110FF02D
:1025B000B7FB97F8EB101D480FF0B2FB97F823100C
:1025C0001B480FF0ADFB97F82D101A480FF0A8FB31
:1025D00005F18A03184854F823100FF0A1FB05F108
:1025E00094039E35154854F823100FF099FB54F8C6
:1025F000251013480FF094FB97E700BFE80900206F
:102600009C3F0108EF3F01081140010834400108D8
:102610005E4001088A400108B54001081D410108DB
:1026200039410108475C0108AC410108C841010873
:10263000E0410108F1410108044201081F4201087C
:1026400038420108E0400108FD4001080D41010841
:10265000674101087A410108934101082DE9F047DB
:102660000026214DDFF89480DFF894A0F4B295F8AD
:102670002030A34201D8BDE8F08758F8240088B381
:1026800004F1940704F028FD55F82730984229D921
:102690005AF8240004F020FD55F82730984221D93B
:1026A000DFF8609019F80430012B1BD00F4B53F862
:1026B0002430B3F57A7F15D958F82400012704F0A7
:1026C0000BFD4FF47A71B0FBF1F109480FF028FBD4
:1026D000084B214620461F55FFF744F9064B09F8E1
:1026E00004701F550136C1E7E8090020B01500202D
:1026F00052420108641D0020EC1200200016002048
:10270000C01700200A1300202DE9F8430026DFF847
:102710006080DFF86090154FF4B298F82030A34243
:1027200001D8BDE8F883182303FB04931B79012B20
:1027300005D008EB040393F82D30022B13D13B5D39
:10274000012B10D1A51C07EB8505686804F0C4FCBB
:10275000322808D921462046FFF77AFA00233B5554
:102760004FF0FF336B600136D6E700BF981D0020A5
:10277000E8090020481E00202DE9F84300261B4FE1
:10278000DFF87880DFF8789097F82030F4B2A34231
:1027900001D8BDE8F88358F8240020B3182505FBBC
:1027A0000495EB78FBB104F097FC04F18A0357F829
:1027B0002330984217D907EB84014FF47A720C4802
:1027C000D1F89C11B3FBF2F20FF0AAFA58F82410DA
:1027D00008480FF0A5FA08F0BFF9014606480FF0C7
:1027E0009FFA0023EB700136CEE700BFE809002016
:1027F0007E420108B1420108DF420108281600208C
:10280000481E00202DE9F041214E0546331893F86B
:102810002330012B02D00120BDE8F0811D4B1B7835
:10282000012BF8D106231C4A4FF46167434302EBA6
:102830000308D05C02F09CFE044698F8010002F008
:1028400097FE02B298F80200C2EB0212920007FB58
:10285000042402F08DFE044402F0ACFE0F4A5378CB
:102860001078C3EB03139900937807FB0011194408
:10287000611A0029B8BF49420129CCDD06EB850564
:102880000748D5F89C210FF04BFA0020C4E700BFA1
:10289000E809002018130020680D00206E27002092
:1028A000EA4201082DE9F04F0E4605461446DFF8CE
:1028B000C093053E2DED028B83B008EE103A08F070
:1028C0004BF90746B1B2284606F00CFC8046AA191F
:1028D00020210020FDF79EFE8045009013D009EBDB
:1028E0008404C948D4F89C110FF01AFA0099C7481B
:1028F0000FF016FA4146C64803B0BDEC028BBDE8A6
:10290000F04F0FF00DBA04F1F408C24B4FF0010A7A
:10291000C14E09EB480805F11D0203F804A010217F
:10292000002006F804A0FDF775FEB8F8042083B275
:1029300083469A42B94B1DD003F804A009EB8403E7
:10294000B748D3F89C110FF0EBF9B6481FFA8BF19A
:102950000FF0E6F9B8F80410B3480FF0E1F9B34905
:1029600009EB0A00FDF76CFC30B103B0BDEC028B43
:10297000BDE8F08F00221A5509EB040A05F1240284
:1029800008210020FDF746FE9AF8EB305FFA80F848
:10299000434540F02081A64B4FF0010BDFF8D48275
:1029A000102143F8247005EB0B02A24B4FEA441AA6
:1029B00006F804B000261E5530469F4B43F824709D
:1029C00008EB4417FDF726FE81B238829B480FF0D2
:1029D000A7F9EA1C10213046FDF71CFEF88181B2F0
:1029E00097480FF09DF96A1D08213046FDF712FE49
:1029F000AA1D082108F80A003046FDF70BFEEA1D63
:102A0000082178703046FDF705FE05F10802B87020
:102A100010213046FDF7FEFD8A4B80B203EB041314
:102A20009880830600F128810A26AA19082100202F
:102A300008EB441AFDF7EEFD721C63018AF80300EF
:102A40002A44102100200193FDF7E4FDF21C042329
:102A5000AAF81200AF18A85803EB441306F10902B4
:102A6000A14448F8030008EB0301BB882A44002076
:102A7000754F8B801021FDF7CDFD06F10B02AAF8F2
:102A8000140010212A440020FDF7C4FD06F10D02B8
:102A9000AAF8160010212A440020FDF7BBFD06F11C
:102AA0000F02AAF8180018212A440020FDF7B2FDF1
:102AB0001822644B082102FB047203EB041B906094
:102AC00006F11202CBF8080000202A44FDF7A2FD0F
:102AD0005C4BC0B2082122018BF80200985406F129
:102AE000130200202A44FDF795FD06F114028AF82E
:102AF0000A0008212A440020FDF78CFD99F8EB30EC
:102B0000C0B206F1150A83428BF803000CD04F487F
:102B10000FF0A2F999F8EB104D480FF001F99BF86E
:102B200003104C480FF0FCF805EB0A0208210020C6
:102B3000FDF770FD06F11602630108212A4408EB37
:102B4000030989F80B000020FDF764FDC1B20129DB
:102B500089F80C1006F1170905D03F480FF0E0F88E
:102B60003E480FF079F905EB090208210020FDF736
:102B700051FD06F11802630120212A44384D984482
:102B800088F80D000020FDF745FD18EE101AC8F872
:102B90001C002046FEF7E6FE1823009A6343FE1849
:102BA000FC5404EB44037261012207EBC30772710A
:102BB00072700FCF0FC597E8030085E8030040F25D
:102BC000012004F0E1FD0023737007F0C5FF254BE1
:102BD00043F82400C9E609EB84032348D3F89C1189
:102BE0000FF09EF89AF8EB1019480FF099F841464B
:102BF00018480FF095F80D491C48FDF721FB0028F7
:102C00003FF4C9AEB1E600BF2843010824380108EB
:102C100033380108F6120020841A0020390D0020F4
:102C2000434301087B4301089D430108B03A010872
:102C3000001600200A130020B015002042380108B9
:102C4000493801084C120020481E00200F4401089A
:102C5000E7430108FB4301082944010854440108E3
:102C60002C1E0020701D0020BF430108E909002030
:102C7000E8090020A40D00204FF0060A05F10A0221
:102C800008213046FDF7C6FC0AFB04FA194B05F192
:102C90000B02082103EB0A0778713046FDF7BAFCF6
:102CA00005F10C02082138713046FDF7B3FC05F13F
:102CB0000D020821F8703046FDF7ACFC0D4B05F114
:102CC0000E02082103F80A003046FDF7A3FC05F1C7
:102CD0000F02082178703046FDF79CFCB870204642
:102CE000FFF790FD044B10B11E5510269DE603F82A
:102CF00004B0FAE7680D0020430D00202DE9F04FE5
:102D00004FF0000914460546D44F4FEA04182DED44
:102D1000028B99B008EE103A039107F01DFF38229C
:102D2000494601900AA8CDF824900EF0F1FFCC4955
:102D3000CC48FDF785FA002800F0F482CA4B1A68E7
:102D4000D20740F1BA821B79A34240F0B682C74E47
:102D5000C7480AF04BFBB0FBF6F6C6EB0646A0EB05
:102D60000626C4480FF078F807EB0803C2489968B4
:102D70000EF0D6FF3146C1480EF0D2FF334609AA05
:102D800018210020FDF77EFC039A0023A2F1050A1A
:102D9000D9B201335145C0F29482033109A805EB41
:102DA0000A0B06F09FF9814620215A460020FDF7C4
:102DB00031FC814506464BD06A1D08210020029255
:102DC000FDF728FC029A002840F08282AC480FF000
:102DD00043F83C22002109A80EF09AFF07EB0803F4
:102DE00009AA18219B6800200133FDF74BFC002342
:102DF000D9B201338A4500F37982033109A806F07C
:102E000071F981465A4620210020FDF703FC8145D7
:102E1000064640F0728207EB08099A480FF01CF84A
:102E2000314699480EF07CFFD9F8081097480EF00B
:102E300077FFD9F8081096480131C9F808100EF04C
:102E40006FFF1822934B02FB0433D9F808209A60D5
:102E5000019A0021904B4FF0300ADFF8689243F856
:102E600024208E4B43F8242001228D4B1A5504EB6D
:102E70004413402209EB430318460EF049FF039A1E
:102E800029460EF01DFFBDF80C306A1C102104937A
:102E90004223002003FB0499049BA9F84030DFF88B
:102EA0002892FDF7B7FB81B20AFB049AAAF8280022
:102EB0007C480EF035FFEA1C10210020FDF7AAFB2C
:102EC000AAF8260081B207EB080A77480EF028FF1F
:102ED0006A1D08210020FDF79DFBAA1D8AF802004B
:102EE00008210020FDF796FBC0B28AF80100D8B98E
:102EF0006E4B6F4803EB8403D3F89C110EF010FF68
:102F0000DAF80C106B480EF00BFFDAF80C106A4878
:102F10000131CAF80C100EF003FF18225D4B02FBC2
:102F20000433DAF80C20DA60EA1D0821002007EBF0
:102F3000080AFDF76FFB3023102105F1080203FB9F
:102F4000049989F802000020FDF764FB44491FFA48
:102F500080F94448AAF80490FDF772F918B949F0CD
:102F60000809AAF80490B844B8F804309B0640F168
:102F7000DD814FF00609DFF854A105F10A020821AE
:102F800009FB04F90020FDF745FB05F10B020AEBF4
:102F90000908082188F805000020FDF73BFB05F132
:102FA0000C02082188F804000020FDF733FB05F12E
:102FB0000D02082188F803000020FDF72BFB05F126
:102FC0000E0208210AF809000020FDF723FB05F195
:102FD0000F02082188F801000020FDF71BFB88F88C
:102FE00002002046FFF70EFC344B002800F09C81C5
:102FF00000224FF010081A5507EB0417DFF8C890AD
:1030000008210020BB88302703F0080207FB049743
:10301000C3F3C003029205EB08020793FDF7FAFA27
:10302000C1B2F87026480EF07BFE08F101020821BB
:1030300000202A4408F10208FDF7ECFA387104EB8D
:103040004403FF784FEA031A17F0070F4FEAD70738
:103050000AF1050314BF0137FFB239E04C1200201A
:10306000B03A0108E90900202C12002000FFFF00FF
:10307000F49B00200137010820370108463701087A
:103080006C3701086D440108A83701088444010821
:10309000DE370108481E00200016002028160020F8
:1030A0008E1A00204238010849380108E80900203A
:1030B000D24401081445010824450108430D0020AD
:1030C000334501081A130020D40F0020680D00209A
:1030D0004B444FF000091FFA87FBCDE905331FFA77
:1030E00089F318FA89F29B4592B200F222810A20F4
:1030F000C3444FF030090AF115080EF029FE9E4B2B
:103100001FFA8BFB4FF0000A984409FB04391FFAA1
:103110008AF399F804101BFA8AF2994292B200F2EB
:10312000198118EE101A2046FFF78EF8934B0122F2
:103130001A5503EB8403019ADA601822904B02FBC4
:1031400004331B79012B11D18E4B462200211846E6
:103150000EF0DEFD049A0480294682800630039A30
:103160000EF0AEFD40F2032004F00EFB04EB840AE7
:10317000DFF86082102200214FEA8A0A0FFA84F9F0
:103180000AF1010508EB050318460EF0C1FD3A46A9
:1031900005990EF095FD3A460146002005F030FFF6
:1031A0001423634308EB030208F80340029B57749F
:1031B0005082754F002B44D03D4410220021D04452
:1031C00028460EF0A5FD07EB0A0308F114011A4684
:1031D00058F8040B884542F8040BF9D16B4A019961
:1031E00042F82410142202FB0472518A684A32F811
:1031F0001400884225D022F8141003F11401654A06
:1032000053F8040B8B4242F8040BF9D140F207202B
:1032100004F0BAFA604B33F8143093B95F4B05F100
:10322000100203EB0413023355F8041B954243F8D4
:10323000041BF9D140F2191004F0A6FA584B019A78
:103240001A60142118224E4B09EB4909624301FB15
:10325000047703EBC9099D189C54798A6E61012695
:10326000E9800221079A69716E70AA704D4FB9E822
:103270000F000FC799E8030087E8030040F2012020
:1032800004F082FA0023019A6B700298464B47497A
:1032900043F824200C23464A002865D0019D03FBF7
:1032A00004224448556040F8245056700E554FF49F
:1032B0008071414808F02DFF2FE007EB08039B6861
:1032C0005DE501F16002695C6A4402F8391C5FE562
:1032D00008210020FDF79EF901283FF477AD374A19
:1032E000374802EB8404D4F89C110CE001F1600231
:1032F000695C6A4402F8391C7AE5304A314802EBCD
:103300008404D4F89C110EF00BFD31462E480EF0CB
:1033100007FD49462D480EF003FD19B0BDEC028BA8
:10332000BDE8F08F064693E5012262E64FF00A08F9
:1033300062E62A4408210020FDF76CF9069BC2B220
:10334000494603F8010B09F10109214806930EF0E3
:10335000E7FCC4E62A44082100200AF1010AFDF72F
:1033600059F908F8010BD2E60298085503FB04242A
:10337000019B6070A3609AE7D40F0020981D002085
:10338000481E00204C1F0020B016002050160020C0
:10339000681A0020381F002078170020981F00208E
:1033A000AC1600202C1E0020701D0020A01600204E
:1033B000B411002078160020001C0240E80900200B
:1033C000BE440108A144010824380108333801082B
:1033D0003A450108D01A00202DE9F04F4FF0000ABD
:1033E00014460546242289465146D14F4FEA041817
:1033F0002DED028B8DB008EE103A03A8CDF808A091
:103400000EF086FC07F0A8FBCA490090CA48FCF7FA
:1034100017FF002800F04282C84B1A68D20740F11B
:103420000A821B79A34240F006824FF6FF76C44819
:1034300009F0DCFFB0FBF6F6C6EB0646861BC1487A
:103440000EF00AFD07EB0803BF4899680EF068FC10
:103450003146BE480EF064FC334602AA1821002013
:10346000A9F10509FDF70EF90023D9B20133494549
:10347000C0F2E581033102A805F034FE834605EB76
:10348000090220210020FDF7C5F88345064647D0F4
:103490006A1D08210020DFF8CCA2FDF7BBF804F17B
:1034A0006603C0B2012800F2EC810AEB8303A8484E
:1034B00059680EF035FC2822002102A80EF028FCE5
:1034C00007EB080302AA18219B6800200133FDF7CF
:1034D000D9F80023D9B20133894500F3B78103310C
:1034E00002A805F0FFFD8642814640F0B68107EB59
:1034F000080998480EF0B0FC9748D9F808100EF06B
:103500000FFCD9F8081095480131C9F808100EF0E1
:1035100007FC1822924B02FB0433D9F808209A606A
:10352000DFF870A24FF00C096A1C102109FB04A9F6
:103530000020FDF76FF807EB080BA9F80600EA1C5E
:1035400010210020FDF766F86A1DA9F80400082183
:103550000020DFF80C92FDF75DF8AA1D8BF8020041
:1035600008210020FDF756F8C0B28BF80100D0B951
:103570007C4B7D4803EB8403D3F89C110EF0D0FB09
:10358000DBF80C1079480EF0CBFBDBF80C10784818
:103590000131CBF80C100EF0C3FB1823DBF80C2024
:1035A00003FB0493DA60EA1D0821002007EB080BF7
:1035B000FDF730F80C23102105F1080203FB04AAE3
:1035C0008AF802000020FDF725F85A491FFA80FA10
:1035D0005948ABF804A0FCF733FE18B94AF0080AC2
:1035E000ABF804A007EB08039B889B0640D505F1C8
:1035F0000A0208210020DFF8A0B1FDF70BF806232E
:1036000005F10B02082163430BEB030A01938AF8CF
:1036100005000020FCF7FEFF05F10C0208218AF8E6
:1036200004000020FCF7F6FF05F10D0208218AF8DE
:1036300003000020FCF7EEFF019B05F10E020821BC
:103640000BF803000020FCF7E5FF05F10F0208214D
:103650008AF801000020FCF7DDFF8AF8020020460E
:10366000FFF7D0F8434B002800F01A8100221A55CA
:10367000474418EE101A20461825B7F804B0FEF794
:1036800053FC009A05FB04953B4B0BF00808286996
:10369000CBF3C00B43F8242027B2384BDFF8FCA053
:1036A00043F8242003F018FD2861B8F1000F00F062
:1036B000848007EB8703102200219B005D1C01938F
:1036C000554428460EF024FB019B2D490AEB0302CA
:1036D0000B44114603F1140053F804CB834241F824
:1036E00004CBF9D1142303FB04A3598A254B33F8E7
:1036F0001400884261D023F814101346224A03F1C3
:10370000140153F8040B8B4242F8040BF9D140F238
:10371000072004F039F81D4B33F81430002B4CD13E
:103720001B4B05F1100203EB0413023338E000BF1A
:103730004C120020B03A0108E90900202C120020A8
:10374000F49B00200237010847450108463701086D
:103750006B4501086D4401088F450108A645010825
:10376000481E0020E8090020D2440108F245010863
:10377000FD450108430D00200016002028160020FA
:10378000D01A0020681A0020381F00207817002067
:10379000981F00205C0F0020680D0020B01600204C
:1037A00055F8041B954243F8041BF9D140F2191057
:1037B00003F0EAFF404B009A1A601422182302FB20
:1037C00004AA6343BAF8122009EB030509F8034081
:1037D00007EB4703394FEA8004226E6109EBC30906
:1037E00001266A7185F802B06E70B9E80F000FC744
:1037F00099E8030087E8030040F2012003F0C4FFCA
:103800000023009A6B702E4B2E4943F824200C2382
:103810002D4AB8F1000F45D0009D03FB04222B4830
:10382000556040F8245056700E554FF4807128486A
:1038300008F06FFC20E007EB08039B680DE601F140
:103840003002695C6A4402F8251C0EE601F1300280
:10385000695C6A4402F8251C3CE60AEB84041D48B6
:10386000D4F89C110EF05CFA31461B480EF058FA61
:1038700049461A480EF054FA0DB0BDEC028BBDE873
:10388000F08F0AEB830A1648DAF804100EF048FAB3
:10389000314611480EF044FA5946EAE706463FE63B
:1038A0000122E4E601F8048003FB0424009B84F871
:1038B0000180A360B9E700BFAC1600202C1E0020D9
:1038C000701D0020A0160020B411002078160020E2
:1038D000001C0240BE4501082438010833380108A5
:1038E000DC4501082DE9F04F0F4605461446053F1B
:1038F0002DED028B83B008EE103A07F02DF9064645
:10390000B9B2284605F0EEFB8046EA1920210020D6
:10391000FCF780FE8045074614D0A94AA94802EB6F
:103920008404D4F89C110EF0FBF93946A6480EF039
:10393000F7F94146A54803B0BDEC028BBDE8F04F56
:103940000EF0EEB9A24B6A1C1021002043F824604F
:103950004FF00C0A9F4B4FEA041BDFF8C08243F87C
:103960002460FCF757FE9C4B08EB0419EA1C0AFB89
:10397000043A1021AAF806000020FCF74BFE6A1D4D
:10398000AAF8040008210020FCF744FEAA1D082123
:1039900089F802000020FCF73DFEEA1D082189F8A5
:1039A00001000020FCF736FE10218AF8020005F124
:1039B00008020020FCF72EFE88491FFA80FA88488A
:1039C000A9F804A0FCF73CFC18B94AF0080AA9F8C9
:1039D00004A008EB0B039B889B0640D54FF0060A1A
:1039E00005F10A0208210020FCF714FE0AFB04FA84
:1039F0007C4B05F10B02082103EB0A0989F805004D
:103A00000020FCF707FE05F10C02082189F80400EC
:103A10000020FCF7FFFD05F10D02082189F80300E5
:103A20000020FCF7F7FD6F4B05F10E02082103F8AB
:103A30000A000020FCF7EEFD05F10F02082189F8CD
:103A400001000020FCF7E6FD89F802002046FEF7A1
:103A5000D9FE654B002800F0A88000221A55D844F2
:103A600018EE101A2046B8F804500FFA84F8FEF742
:103A70005BFA05F0080AC5F3C005BAF1000F55D08E
:103A800008EB8803DFF898B1102200219B00581C36
:103A900001930BEB000948460EF03AF9019B53499C
:103AA0000BEB03020B44114603F1140053F804CB53
:103AB000834241F804CBF9D1142303FB04B3598AA0
:103AC0004B4B33F81400884230D023F814101346BF
:103AD000484A03F1140153F8040B8B4242F8040BDB
:103AE000F9D140F2072003F04FFE1822424B02FBAF
:103AF0000433142202FB04BBBBF81220DA803F4BD4
:103B000033F8143093B93E4B484609F1100203EBE9
:103B10000413023350F8041B904243F8041BF9D1FC
:103B200040F2191003F030FE364B1E601822324B63
:103B300008EB480806216243DFF8E8C003EB0209FE
:103B40009C54C9F81470012789F8025003EBC8058A
:103B500089F8051089F801700FCDACE80F0095E8E1
:103B600003008CE8030040F2012003F00DFE002367
:103B7000254A89F80130254B43F82460244BBAF1DB
:103B8000000F14D01F550C23224941F8246003FB79
:103B90000424677066604FF480711F4803B0BDEC69
:103BA000028BBDE8F04F08F0B4BA012256E703F8E3
:103BB00004A00C2303FB0424A66084F801A0EAE718
:103BC000E8090020084601082438010833380108B4
:103BD0000016002028160020E40E0020B03A01084C
:103BE000E9090020680D0020430D0020D01A0020B4
:103BF000681A0020381F0020481E00207817002077
:103C0000981F0020AC160020B4110020701D002069
:103C1000A016002078160020001C02404C12002044
:103C2000B01600202C1E00202DE9F8430026154F69
:103C3000DFF85490DFF85480F4B297F82030A342B4
:103C400001D8BDE8F8830C252046FDF775FA05FB81
:103C50000495686803F040FA04F18A0357F82330AA
:103C600098420DD96B78012B0AD158F824206B6843
:103C70009A4205D000236B7006F06EFF48F82400CE
:103C80000136D9E7E8090020B411002028190020E6
:103C90002DE9F0472E492F48FCF7D2FA28B12E4ED5
:103CA000306803F019FAC8284BD8BDE8F08718F837
:103CB00004302A49012B2A4D0ED12A4B1B5D5BB9DA
:103CC00014236343EA180B4402F1140052F804CBA6
:103CD000824243F804CBF9D11423634301EB030977
:103CE0001D44B9F812206B8A9A4227D01E4B53F814
:103CF000240003F0F1F9B0F57A7F13D307EB8403C6
:103D00001A48D3F89C110EF00BF8B9F812101848A5
:103D10000EF006F8698A17480EF002F8164B0122D9
:103D200023F814200AF1010A97F820305FFA8AF488
:103D3000A342BCD806F010FF3060B6E70E4B00225D
:103D4000EEE74FF0000A0D4FDFF83480ECE700BFDC
:103D5000B03A0108E9090020500D0020B0160020FB
:103D6000E8170020A0160020501600202646010863
:103D7000304601083E46010878170020E809002077
:103D8000B417002070B5044606F0E6FE114A182369
:103D9000114D03FB04239978104B012912D1104EC9
:103DA000295546F824000C2606FB04335860597048
:103DB000182303FB04225378012B04BF094B43F85B
:103DC000240070BD002129550C2505FB04339860A3
:103DD0005970EDE7981B0020B4170020B0180020A0
:103DE0008C170020C0170020084B034410B593F82F
:103DF0002D300446022B04D0FDF728F92046FDF7AC
:103E00009BF92046BDE81040FFF7BCBFE809002041
:103E10002DE9F74F06460F4606F09EFE8F4B804673
:103E20001B78DBB18E4DF21C10210020FCF7F2FB59
:103E300095F820101FFA80FA05F5CE7200235FFA7C
:103E400083F949451CD8874B1B78012B15D1514666
:103E5000854803B0BDE8F04F0DF062BF06F07CFE70
:103E600042F20F739842DDD980480DF0F5FF80498A
:103E70008048FCF7E5F90028D4D003B0BDE8F08F06
:103E800052F8040B1C4601335045D8D104F1700B95
:103E90001021721C002005EB8B0BFCF7BBFBDBF841
:103EA000043081B28B4210D0734801910DF0D4FFE1
:103EB000019972480DF034FFDBF804205146704838
:103EC00003B0BDE8F04F0DF02BBF6E4B1A68D20661
:103ED0001ED51B794B451BD16B4801910DF0BCFFE2
:103EE00001996A480DF01CFF40F24D11684895F8A1
:103EF00020A00DF015FF40F24D1195F820305345EC
:103F000008D8644801910DF0A7FF01996248A0E725
:103F1000CA46F2E7534BDFF8C0B11B78012B0FD133
:103F20001BF80410012908D0022964D02B1993F83A
:103F30002D30022B61D1594800E059480DF08CFF1B
:103F4000584B1BF8042053F8241091420AD05649CC
:103F5000564841F82480564943F8242041F82480EB
:103F60000DF07AFF1BF80420524BDFF870B11A55A0
:103F70005BF8240003F0B0F804F18A0355F823300D
:103F800098420ED3484B05EB84054B4843F82480F8
:103F9000474BD5F89C114BF8248043F824800DF052
:103FA000BFFE464B812200214BF8248018460DF0BD
:103FB000AFFE3A46FFB231460DF082FE0821F21DF7
:103FC00080F880700020FCF725FB18223C4B05464A
:103FD000484602FB04330122DA703A4B43F824804E
:103FE000FFF702FFE9B24B1E052B34D8DFE803F0E0
:103FF00009121B21332A3448A0E734480DF090FE03
:104000009EE753464A463946304603B0BDE8F04F76
:10401000FEF748BC53464A463946304603B0BDE831
:10402000F04FFEF76BBE2A4803B0BDE8F04F0DF02D
:1040300013BF53464A463946304603B0BDE8F04FF9
:10404000FFF7CAB953464A463946304603B0BDE881
:10405000F04FFFF747BC1F48FBE600BF0000002001
:10406000E8090020DE0900208D4601084D460108C0
:10407000B03A0108E9090020C9460108E5460108EF
:10408000074701082C1200203F470108604701083C
:104090006E4701087C470108B0470108EB4701085B
:1040A000CD470108181A00200016002021480108F9
:1040B000281600200013002037480108881C002023
:1040C000481E0020D8150020DC47010800480108E0
:1040D0005348010874480108981A0020F01900207C
:1040E00070B50024A0B00D467C220646214601A8EA
:1040F0000094ADB20DF00CFE224623469D4291B2D3
:1041000004D86846FFF784FE20B070BDF15C20A89B
:10411000F02910FA82F002F1010202BF01339BB2D2
:10412000F15C03F1010308BF61F00F019BB200F8DD
:10413000801CE3E710B50024A0B07C22214601A832
:1041400000940DF0E5FD03F031F908B920B010BD81
:1041500003F038F9F42802D0F62809D094B104F11C
:104160008002631C0DEB020404F8800CDCB2EAE769
:10417000611C04F1800311F0FF010DEB030404F84E
:10418000800C01D10024DEE70F29DFD96846FFF754
:10419000A7FFDBE710B50024A0B07C22214601A8D0
:1041A00000940DF0B5FD1B4B93F822309BB11A4BD8
:1041B000186802F091FF13280DD9032006F0DAFAEF
:1041C00048B1032006F0EAFA7E2C06D98022214667
:1041D00012480DF0A5FD20B010BDF42803D0F6283C
:1041E0000AD0002CE9D004F18002631C0DEB02041C
:1041F00004F8800CDCB2E0E7611C04F18003C9B272
:104200000DEB03040F2904F8800CE4D96846FFF78E
:1042100067FFE0E7E809002080A900209048010836
:104220002DE9F8431D491E48FCF70AF878BBBDE8A4
:10423000F88358F8240002F04FFF04F19E0356F86B
:10424000233098421CD958F8243059F824209A4237
:1042500016D049F8243006EB84031248D3F89C1199
:104260000DF05EFD104B0022104D1A55182303FB74
:104270000455286902F030FF28612046FFF782FDCF
:104280000137FCB296F82030A342D2D8CFE70027FE
:10429000074EDFF82080DFF82090F2E7B03A0108FF
:1042A000E9090020B9480108A0160020481E002096
:1042B000E809002078160020401A002038B5134D78
:1042C000286802F009FFB0F57A7F1ED9104C14213E
:1042D000104B226801FB02330F4A591853F8040BA4
:1042E0008B4242F8040BF9D140F2072003F04CFA5C
:1042F00023680A4A013392F820202360934204BFC6
:104300000023236006F028FC286038BDCC1A00206A
:10431000441E0020B0160020381F0020E8090020AD
:104320001C4D1D4C08B50AF0A7FB284608F0A5FA5D
:1043300005F08CF803F020FCFCF7A8FAFFF7FAFE72
:10434000FFF728FFFDF724F8FCF79AFFFCF7D0FFF2
:10435000FFF766FFFFF768FCFEF7D6F9FEF77EF978
:10436000FEF70AFA01F0EEF9FFF792FCFFF7A6FF5D
:1043700005F0F0FE23784BB1084B0322054C1A7070
:1043800005F068FE204608F078FAF9E706F08EFAA4
:10439000C9E700BFE49B0020DD090020320D0020AA
:1043A000154B5A6F002A1ADB5A6F520019D45A6FF4
:1043B000910018D45A6FD20017D45A6F110116D435
:1043C0005A6F520115D45B6F13F0007F14BF0720A2
:1043D0000020094A536F43F08073536770470120F0
:1043E000F7E70220F5E70320F3E70420F1E70520D3
:1043F000EFE70620EDE700BF0038024007289ABF2C
:10440000024B53F820000248704700BF944901084E
:10441000D94801082DE9F041214CA06802F05CFE6A
:10442000204BD3F83423904219D3B3F82833142700
:104430001D4EDD085B07DFF87C8018BF013506F0F4
:104440008BFBA060002419480DF006FDA54217D88B
:104450000A200DF07DFC40F2191003F095F9144C80
:10446000206802F039FE40F6B833984206D94FF47E
:10447000FA7003F089F906F06FFB2060BDE8F08167
:104480003CB1B4FBF7F307FB134313B90A200DF05B
:104490005FFC16F8011B404601340DF041FCD5E7E6
:1044A00064260020E8090020742600202455010815
:1044B0003C2000204145010838B53C4C606802F0C2
:1044C0000BFE3B4905463B48FBF7BAFE002850D09F
:1044D000394AB2F82633D2F82C134B439D420AD303
:1044E000364960680968884205D03549487892F8AD
:1044F0002113884207D8217800293BD03148D0F8D1
:10450000800000284FD021782F480DF009FC237837
:104510002C48D9074FF0000144BF23F0010323705A
:1045200023789A074FF0840244BF23F002032370DC
:104530000DF0EEFB3022002124480DF0E9FB84222F
:10454000002123480DF0E4FB0023224A2248C2E95F
:1045500000331B4AC2E90033204AC2E900330DF0A0
:104560007BFC6268154B1A601D4A138843F00103F7
:10457000138038BD9D420CD8104B60681B68984270
:1045800005D00F4B587892F82133984206D900296C
:10459000EFD10C4BD3F88030002BEAD0104A1388AF
:1045A00023F00103E4E79D42E6D9E2E76426002018
:1045B000B03A0108E9090020E80900202C24002075
:1045C00028270020BC240020B449010874260020BC
:1045D000A426002030270020E449010838270020C5
:1045E000E409002038B51B4C1B4D606802F074FDD7
:1045F000B5F82633D5F82C235343984204D3174BF0
:104600001A780AB100221A70606802F065FDD5F8C8
:10461000383398420BD9124B626819688A4206D027
:104620001A6040F20120BDE8384003F0ADB80D4DEE
:10463000286802F051FDB0F57A7F09D9606802F070
:104640004BFDB0F5FA6F03D906F086FA2860E8E76B
:1046500038BD00BF64260020E80900203027002074
:104660004C27002050270020F8B55D4C5D4D206898
:104670002B6898420AD006F06FFA20605A4C5B4AC9
:1046800023785BBB137803F0FE032AE002F024FDDD
:10469000B0F57A7FEFD2286802F01EFD544BD3F8B4
:1046A0003C33984219D9534B28681A68824214D077
:1046B000186002F011FD4FF47A71B0FBF1F14E4831
:1046C0000DF02EFB29684D480DF02AFB4C4A13785B
:1046D00099075CBF43F002031370F8BD137843F0F1
:1046E0000103484E317841B143F002031370032BAC
:1046F00031D8DFE803F0724C056B03F0FD03F5E7FA
:10470000616873688B423AD03F4F3B78012B22D1CE
:104710003E480DF005FB71683D480DF001FB00239C
:104720003C483B700DF098FB84223B493B480DF020
:10473000C7FA3A4A3A4E02F1300C17461346083689
:1047400003CB634546F8080C46F8041C1A46F5D11D
:10475000D7F880306360264B627893F821339A4211
:1047600099D3274F3B7813F0010694D12D480DF0D3
:1047700073FB3B78667043F001033B708BE70023CB
:104780001F4A6370137823F001031370E3E7726824
:1047900063689A4212D024480DF05EFB63780133BF
:1047A000DBB2022B6370D6D91C4BD3F88030002BC0
:1047B000D1D040F2072002F0E7FFCCE7104A13788F
:1047C00023F00103137000236370C4E77268636809
:1047D0009A42F3D014480DF03FFB63780133F3E7BE
:1047E00040270020302400203027002029240020EA
:1047F000E809002044270020BC3A0108974A010834
:10480000642600202827002048270020FB490108B3
:10481000124A0108294A010834240020BC2400203F
:1048200074260020804A01085C4A010838B5204DF2
:10483000204C28460DF010FBB4F822131E480DF052
:104840006FFAB4F824131D480DF06AFA94F8201397
:104850001B480DF065FAD4F830131A480DF060FAD1
:10486000D4F8381318480DF05BFAD4F83C13174805
:104870000DF056FA94F8211315480DF051FAB4F8DA
:10488000281314480DF04CFAD4F82C1312480DF0EC
:1048900047FAB4F8261311480DF042FAD4F834134D
:1048A0000F480DF03DFA2846BDE838400DF0D4BA67
:1048B0009C3F0108E8090020BD4A0108E04A0108C0
:1048C000034B0108264B01084A4B01086E4B0108B7
:1048D000924B0108B54B0108D84B0108FC4B01086D
:1048E0001F4C010810B52423104C114923700123DB
:1048F00004F1320063703023A3704023E370C023BF
:1049000023714E2363712623A3710DF0E0FB094947
:1049100004F164000DF0DBFB074904F196000DF093
:10492000D6FB064B04221A7010BD00BF41200020A8
:104930002C350108903501089A35010840200020E7
:104940000D4B2DE9F041074693F800800B4C0026F3
:10495000F5B2A84501D8FF250BE020460136FBF74C
:1049600079FC21460246384632340DF099F9002888
:10497000EED12846BDE8F0814020002041200020F3
:1049800030B500259BB06022294602A801950DF0A4
:10499000BFF9664B186802F09FFB09280AD81BB0C4
:1049A00030BD002005F0FAFE04F168030DEB0304AE
:1049B00004F8640C0020ECB205F0DCFE01350028A0
:1049C000EFD1002CEBD004F1680301A96B4403F88C
:1049D000640C57480DF0A4F9214601A8FFF7B0FF79
:1049E0000C2800F2A080DFE800F0070E2A37424CC6
:1049F00056606A747E8994004E4B01224E481A70AC
:104A00000DF02AFACBE704F167034C494C480DEB53
:104A1000030414F8642C303A0DF082F914F8643C65
:104A2000303BDBB2022B06D8464A137040F2052019
:104A300002F0AAFEB3E744480DF00EFAF6E7434948
:104A400043480DF06DF943480DF006FA424A1368E9
:104A500043F001031360E9E740493D480DF060F978
:104A60003F480DF0F9F93C4B02221A60DEE73D4960
:104A700037480DF055F93C480DF0EEF9364B04225D
:104A8000F3E73A4932480DF04BF939480DF0E4F9B3
:104A9000314B0822E9E737492D480DF041F93648F6
:104AA0000DF0DAF92C4B1022DFE7344928480DF0DD
:104AB00037F933480DF0D0F9274B2022D5E731499B
:104AC00031480DF02DF931480DF0C6F9224B402246
:104AD000CBE72F491E480DF023F92E480DF0BCF905
:104AE0001D4B8022C1E72C4919480DF019F92B48BC
:104AF0000DF0B2F9184B4FF48072B6E7284914480C
:104B00000DF00EF927480DF0A7F9134B4FF4007282
:104B1000ABE725490E480DF003F924480DF09CF948
:104B20000D4B0022A1E708486AE700BFFCA7002060
:104B30009F350108DD090020B535010873200020EC
:104B4000F5350108DE09002007360108A520002000
:104B5000873601084B580108F8330020D720002081
:104B6000C958010809210020075901083B210020EC
:104B70003D5901086D210020755901089F21002031
:104B80006F560108D121002094360108434C0108DA
:104B900003220020564C010835220020DD57010871
:104BA000672200206E4C0108992200208B4C0108DE
:104BB00030B50024064D824201D8204630BD0B5C42
:104BC00001306340DBB255F8233083EA1424F2E766
:104BD000245001082DE9F0410027CCB004464FF4E1
:104BE0009472394602A80DF093F801AD264E532376
:104BF00022460DF117002B7006F116017388A5F8F7
:104C00000130B388A5F80330B3796B71E223AB713F
:104C1000B37A6B72D6F80B30CDF80E30B6F80F3091
:104C2000ADF81230737C8DF81430B38AA5F81130CA
:104C30000DF046F804F11300224606F19601134EDA
:104C40001FFA80F815FA80F00DF03AF8294644442E
:104C50003846A4B2E31E2F55A21C0634A5F807302F
:104C600092B2A4B2FFF7A4FFA850BBB29C4202D8F4
:104C70004CB0BDE8F08115F8011B013796F8200310
:104C800005F0B0FDF1E700BF40250020E809002055
:104C900070B5FFF78DFF89580446884208D0054853
:104CA0000DF03EF8214604480DF03AF8002070BDA2
:104CB0000120FCE7954C0108AC4C01082DE9F843B4
:104CC00081460F460026DFF8FC80394D484605F046
:104CD00051FD0446002857D0484605F05FFD98F87E
:104CE0000030013B042BF1D801A252F823F000BFA1
:104CF000054D0008154D0008CD4C00082D4D00084D
:104D00004B4D00085328E1D101232B80022388F862
:104D10000030DBE72B88082B04D1092338722B8065
:104D20000423F4E7F85401332B80CFE72B880121CB
:104D3000FA1832F8026C1F4AF8540B441180022210
:104D40002B801D4B1A800523E1E71A4A2C88138813
:104D50003855B34228D2013317499BB21380621CE5
:104D6000B3422A800A8802F101020A80AED1033CD4
:104D700000260123A4B22E8088F80030042C06D827
:104D800034460E480DF068F82046BDE8F883224608
:104D900039463046FFF77CFF05460028F4D1084825
:104DA0002C460DF059F8EFE7002601232E80AEE7E0
:104DB000562700205427002058270020C44C010803
:104DC000CA4C01080B0000202DE9F04F0024ADF57E
:104DD0003D7D4FF49472924F214672A871940CF06D
:104DE00097FF7C22214609A808940CF091FF4FF40C
:104DF000967271A997F82003FFF760FF0528054612
:104E00003AD971AEDFF83C924FF00A0885480DF0B0
:104E100023F8013416F8011B4846A4B20CF080FFB9
:104E2000A5421ED10A200CF093FF4FF4927200218C
:104E300028A80CF06DFF9DF8C431BDF8C5818DF830
:104E4000A030B7F82433ADF8A48043451AD0764893
:104E50000DF002F84246B7F8241374480CF060FFD6
:104E60000CE0B4FBF8F308FB13439BB2002BD0D14A
:104E70000A200CF06DFFCCE70028D6D10DF53D7D62
:104E8000BDE8F08FBDF8C791B7F82233ADF8A29016
:104E90004B4506D066480CF0DFFF4A46B7F82213B0
:104EA000DBE79DF8C961AA2E8DF8A66006D0BB2E5F
:104EB00004D031465F480CF033FFDFE79DF8CA119C
:104EC000E1298DF8A71001D05B48F4E7BDF8CB319C
:104ED0009DF8D5110593ADF8A83011299DF8CD3175
:104EE0008DF8B21006938DF8AA30DDF8CE31CDF8EA
:104EF000AB30BDF8D231ADF8AF309DF8D4318DF87C
:104F0000B13001D04D48D6E7BDF8D651B5F5806F28
:104F1000ADF8B45002D929464948CCE7B7F8281370
:104F2000A94244D16B074FEAD5044BD108AF2246C2
:104F300076A90DF1B6000CF0C3FE76AB3846002220
:104F400091B28C4241D8630004F114020DF59B7AB2
:104F50000DF5E27E9BB292B2D44603F1150080B209
:104F6000511C89B2884237D103F1140B224608A99B
:104F70000DF59B7004931FFA8BFB0CF091FE049BC4
:104F8000079000283CD000252E4E2F480CF064FFDF
:104F9000ABB29C4226D800252A4E2C480CF05CFF70
:104FA000ABB29C4225D82A480CF056FF66E72A4649
:104FB00028480CF0B5FE28492848FBF741F900289D
:104FC000B0D15BE70134A4B2B0E713F8011B0132A2
:104FD000C94300F8011BB3E71EF802200CF8012BAF
:104FE0000A46BDE71AF8011B304601350CF098FE61
:104FF000CEE717F8011B304601350CF091FECFE7E4
:1050000071A95A4612200493FFF7D2FD51F80B20E4
:105010000746049B90426E9224D0014610481DE73B
:10502000E8090020D24C0108DC4C01080E4D0108B3
:105030002F4D01085C4D0108924D0108C74D010834
:105040000B4E010841450108954E0108E14E01084B
:10505000044F01085B4E0108B03A0108E90900203D
:10506000154F01081833DFF8A4B1DFF8A4A19BB2F3
:10507000CB5AADF8BC3105F06FFD28A94FF4927200
:10508000CAF8040058460CF01BFE4E4B0122204685
:105090005F604D4F1A70FFF79DFD22460DF1B6017E
:1050A00038460CF00DFEDBF81831DFF868B1224607
:1050B000394604935846C7F880300CF0F1FD38B3F8
:1050C0002246394658460CF0FBFD049B30220799D6
:1050D0003E48CBF880300CF01BFE224639463B4858
:1050E0000CF0EEFD40F2191002F04EFB05F034FD1D
:1050F000CAF8080036480CF0AFFE40F2012002F07A
:1051000043FB344B5B681BB940F2072002F03CFBC9
:1051100031480CF0A1FE414630480CF001FE4946F2
:105120002F484FF000090CF0FBFD31462D480A26B0
:105130000CF0F6FDE1212C480CF0F2FD05992B480E
:105140000CF0EEFD06992A480CF0EAFD9DF8B1300E
:105150009DF8AD2002939DF8B0309DF8AE100193FC
:105160009DF8AF30234800939DF8AC300CF0D8FD8B
:10517000112121480CF0D4FD204F29462048124D22
:105180000CF0CEFDDFF890801E480CF0C9FD1FFA30
:1051900089F39C4204D80A200CF0DAFD1A4803E790
:1051A00043B1B3FBF6F206FB12339BB213B9384698
:1051B0000CF0B6FD15F8011B404609F101090CF091
:1051C000AFFDE4E730270020BC2400207426002037
:1051D000554F0108282700206C4F0108934F010804
:1051E0009B4F0108A34F0108AC4F0108B54F0108C0
:1051F000BD4F0108C54F0108E74F01080C500108D9
:10520000F04F0108F84F01086D4F010840250020BC
:1052100064260020A426002041450108134D144CAB
:1052200008B504F097FF02F0A7FC04F00FF9284638
:1052300007F023FBFFF7C8FDFFF7ECF8FFF73CF999
:10524000FFF7D0F9FFF710FAFFF79AFB23784BB17D
:10525000084B0322054C1A70204607F00EFB04F0A1
:10526000F9FEF9E705F022FBDBE700BFE49B002035
:10527000DD090020320D00202DE9F34707460C46DA
:1052800090463B4EDFF80491FDB2284605F072FAD5
:1052900048B34FF0010A374889F800A007F0EDFA4B
:1052A000284605F07BFA054605F000FB3278324BC4
:1052B000022A09D0032A51D0524547D1242D45D185
:1052C00025701A8002223BE0242D36D0262D03D0F3
:1052D000052D37D1032233E01F880022BD1E1A801E
:1052E0002DB2954204DA0026304602B0BDE8F087C0
:1052F00005F1010886F800A0625D294614F808301F
:105300001E48009343460CF00BFD2946204603F04F
:105310009DFE064638B114F808203EB2615D18487B
:105320000CF0FEFCE0E717480CF0FAFC14F808203B
:10533000615D15480CF0F4FCD6E72570A3F800A0D9
:10534000327003E01A88A55401321A801A88424547
:105350009AD30122327000221A8093E705F0FD02F1
:10536000242A01D0052DADD11A88A5540132A8E711
:105370000D000020E49B00205C270020245401083D
:10538000495401085B54010850540108380D0020AD
:10539000F0B5002385B0044640F2DB56ADF80C3082
:1053A000154FCDE901338DF80610042124238DF823
:1053B00007200DEB01008DF8043003F06BFE26236F
:1053C0009DF809209DF808100C488DF80A300CF063
:1053D000A7FC05F0C1FB0546284601F07DFEB04262
:1053E00006D9062201A9204605F02EFA05B0F0BD27
:1053F000384607F042FAEFE7E49B002065540108C5
:1054000030B585B000240A22054601A9ADF80C404C
:10541000CDE90144FFF730FFA04216DD9DF80530CD
:10542000F3B99DF80640012C12D19DF80740012CDC
:1054300016D10E480CF010FD022221462846FFF737
:10544000A7FF05F089FB0A4B1860204605B030BD68
:10545000022C05D19DF80730012B01D10548E9E761
:10546000054800240CF0F8FCEFE700BF8054010869
:10547000340D002096540108AE5401082DE9F8437C
:1054800007460D469046344EDFF8E090FCB22046C9
:1054900005F070F928B3204605F080F9044605F0C0
:1054A00005FA484607F0E9F932782C4B022A09D070
:1054B000032A47D0012A3DD1242C3BD12C701A80DD
:1054C000022231E0242C2CD0262C03D0052C2DD107
:1054D000032229E01F880022BC1E1A8024B29442B5
:1054E00003DA00263046BDE8F8830123214628462A
:1054F00004F10108337003F0A9FD064638B115F830
:1055000008203EB2295D16480CF00AFCEAE715486F
:105510000CF006FC15F80820295D13480CF000FC7F
:10552000E0E701212C701980327003E01A88AC5436
:1055300001321A801A884245A8D301223270002213
:105540001A80A1E704F0FD02242A01D0052CB7D16E
:105550001A88AC540132B2E70C0000205A27002010
:10556000BE5401085B54010876540108E49B0020F6
:10557000030900F00F0003EB830300EB4300C0B20C
:1055800070470A22B0FBF2F302FB130000EB03109A
:10559000C0B27047064B5A79092A06D9187928B142
:1055A000D878003818BF012070470020704700BF2E
:1055B0005E2700202DE9F041072386B04FF47A7171
:1055C00000221E480492CDF81320CDE9013104AB2E
:1055D000D0210093012306F0F9FF9DF81080184AAE
:1055E0004046FFF7C5FF9DF8117090703846FFF7F1
:1055F000BFFF9DF8126050703046FFF7B9FF9DF86D
:10560000145010702846FFF7B3FF9DF81540D07076
:105610002046FFF7ADFF9DF8161010710846FFF702
:10562000A7FF084B507183F802805F701E70DD7019
:105630001C71597106B0BDE8F08100BF3C9B002091
:105640006E27002068270020F0B587B0002605AF40
:105650000496ADF81460BE70FFF79CFF20B9354882
:105660000CF0FAFB07B0F0BD33490124334B4FF483
:105670007A7588781C70FFF784FF8DF810004878E1
:10568000FFF77FFF8DF811000878FFF77AFF8DF89C
:105690001200C878FFF775FF8DF813000879FFF73F
:1056A00070FF8DF814004879D021FFF76AFF04AB32
:1056B00032468DF81500009323462148CDE9014577
:1056C00006F0AAFE0DF111032246D02100932346D5
:1056D0001B48CDE9014506F09FFE0DF112030222A1
:1056E000D021009323461648CDE9014506F094FEEB
:1056F0000DF113030422D021009323461048CDE975
:10570000014506F089FE23460522D02100970C486A
:10571000CDE9014506F080FE0DF115030622D021EA
:10572000009323460648CDE9014506F075FEFFF7D4
:1057300041FF97E7CF5401085E270020181300208F
:105740003C9B002010B5064C206801F0C5FCB0F56C
:105750007A7F04D3FFF72EFF05F0FEF9206010BD1D
:105760006427002038B54B0801380024023B9BB267
:105770009D1CA2B2934201D801200BE010F8011F3A
:105780000134425DD243D2B29142F2D002480CF0D1
:10579000C7FA002038BD00BFEE540108F0B5C900BB
:1057A000002506464FF0010C8CB22B462846A9B2C4
:1057B0008C4200D8F0BDCF0801F00701072913D0B3
:1057C000F75D47FA01F1C90744BF175C0CFA03F112
:1057D00003F1010348BF3943DBB248BF1154082B22
:1057E00002BF0130002380B20135E0E72DE9F84324
:1057F0003E4D3F4E686801F06FFCD6F81833984272
:105800004AD92988DFF81081DFF81091B1F5807F3F
:1058100098F8003099F8002040D1012B46D1012A98
:105820003ED1344931F8042B33480CF049FAD6F80C
:105830001C33B9F80220314F9A423C8843D3B8F860
:10584000022093423FD844F001044FF4007200213B
:1058500029480CF05DFAB6F8FE22294ED30852070B
:10586000284918BF013328483C803380FAF7E8FC08
:1058700060B340F219100024244F01F085FF244842
:105880000CF04EFA3288A3B29A4226D80A200CF0C5
:105890005FFA05F061F96860BDE8F883012B05D176
:1058A00052B96B78012B07D11A49BBE7012A03D102
:1058B00013B96B78012BB4D04FF4007200210E485D
:1058C0000CF026FAB3E724F00104C4E70949B01C40
:1058D00031F8042B0CF0F4F9CBE716FA84F33846D0
:1058E000013499780CF01CFACCE700BF842B00201F
:1058F000E8090020A02B002030490020E409002006
:105900002E490020B03A0108E9090020414501086C
:1059100023550108A42D0020762B00202A490020C1
:1059200010B50A4CA06801F0D7FB094BD3F8083337
:10593000984209D9074B002240F201205A7001F029
:1059400023FF05F009F9A06010BD00BF842B0020E3
:10595000E80900202A49002038B5114B114DD868BC
:10596000114C60B101F0B8FBD5F81433984206D958
:10597000237823B10D480CF06FFA00232370D5F87B
:105980001C3362889A420AD9094A5288934206D245
:10599000237823B107480CF05FFA0023237038BD49
:1059A000842B0020E80900202A49002038550108EE
:1059B000762B00205555010810B5074C206901F0E1
:1059C0008BFBB0F57A7F06D940F2072001F0DCFEB0
:1059D00005F0C2F8206110BD842B002010B5104CDA
:1059E000606901F079FBB0F5FA7F17D90D4B1B7890
:1059F0004BB90D4B1B78012B05D14FF401720B49AC
:105A00000B480CF05DF9094B094A5B8852889B1AD8
:105A100018BF0123237005F09FF8606110BD00BF1F
:105A2000842B00202A490020762B0020A42D002062
:105A3000A02B002010B5114C6378012B01D103F08D
:105A40001BFDA06901F048FB0D4BD3F80C339842C5
:105A500012D30C4BA0691A6890420DD00022186036
:105A6000627001F039FB4FF47A71BDE81040B0FB71
:105A7000F1F105480CF054B910BD00BF842B002093
:105A8000E8090020702B0020BC3A010810B524233F
:105A9000294C2A492370012304F13200637030231A
:105AA000A3704023E370C02323714E236371262328
:105AB000A3710CF00CFB224904F164000CF007FB0D
:105AC000204904F196000CF002FB1F4904F1C800C4
:105AD0000CF0FDFA1D4904F1FA000CF0F8FA1C492B
