:020000040800F2
:100000000000082039A600082D9F00082F9F000837
:10001000319F0008339F0008359F00080000000052
:10002000000000000000000000000000379F0008F2
:10003000399F0008000000003B9F00083D9F00081A
:1000400089A6000889A6000889A6000889A60008D4
:1000500089A6000889A60008419F0008479F00085C
:1000600089A6000889A6000889A6000889A60008B4
:1000700089A6000889A6000889A6000889A60008A4
:1000800089A6000889A6000889A6000889A6000894
:1000900089A6000889A6000889A6000889A6000884
:1000A00089A6000889A6000889A6000889A6000874
:1000B00089A6000889A600084D9F000889A60008A7
:1000C00089A6000889A6000889A6000889A6000854
:1000D00089A60008599F000889A6000889A600087B
:1000E00089A6000889A6000889A6000889A6000834
:1000F00089A6000889A6000889A6000889A6000824
:1001000089A6000889A60008659F000889A600083E
:10011000719F00087D9F0008899F0008959F000837
:1001200089A6000889A6000889A6000889A60008F3
:1001300089A60008A19F000889A6000889A60008D2
:10014000AD9F0008B99F000889A6000889A600088D
:1001500089A6000889A6000889A6000889A60008C3
:1001600089A6000889A6000889A6000889A60008B3
:1001700089A6000889A6000889A6000800000000DA
:1001800089A6000889A60008BD9F000889A6000866
:1001900089A6000889A6000889A6000889A6000883
:1001A00089A6000889A6000889A6000889A6000873
:1001B00089A6000889A6000889A6000889A6000863
:1001C00089A6000889A6000889A6000889A6000853
:1001D00089A6000889A6000889A6000889A6000843
:1001E00089A60008C99F0008D59F000889A60008B5
:0801F00089A6000889A6000899
:1002000010B5054C237833B9044B13B10448AFF350
:1002100000800123237010BDD801002000000000E1
:10022000C831010808B5034B1BB103490348AFF3BC
:10023000008008BD00000000DC010020C83101087A
:1002400010F8012B11F8013B012A28BF9A42F7D080
:10025000D01A7047034613F8012B002AFBD1181A55
:10026000013870470000000000000000000000009E
:1002700001F0FF01102A2BDB10F0070F08D010F857
:10028000013B013A8B422DD010F0070F42B3F6D15B
:10029000F0B441EA012141EA014122F007047FF074
:1002A00000070023F0E80256083C85EA010586EACB
:1002B000010685FA47F5A3FA87F586FA47F6A5FA07
:1002C00087F68EB9EED1F0BC01F0FF0102F0070213
:1002D00032B110F8013B013A83EA010313B1F8D1BE
:1002E0000020704701387047002D06BF354603389F
:1002F000073815F0010F07D1013015F4807F02BFD8
:10030000013015F4C03F0130F0BC0138704700BF28
:1003100053B94AB9002908BF00281CBF4FF0FF316C
:100320004FF0FF3000F074B9ADF1080C6DE904CE68
:1003300000F006F8DDF804E0DDE9022304B07047C0
:100340002DE9F047089D04468E46002B4DD18A4288
:10035000944669D9B2FA82F252B101FA02F3C2F1BB
:10036000200120FA01F10CFA02FC41EA030E94404C
:100370004FEA1C48210CBEFBF8F61FFA8CF708FB6D
:1003800016E341EA034306FB07F199420AD91CEB45
:10039000030306F1FF3080F01F81994240F21C8177
:1003A000023E63445B1AA4B2B3FBF8F008FB1033BF
:1003B00044EA034400FB07F7A7420AD91CEB0404F4
:1003C00000F1FF3380F00A81A74240F207816444C4
:1003D000023840EA0640E41B00261DB1D440002349
:1003E000C5E900433146BDE8F0878B4209D9002DAD
:1003F00000F0EF800026C5E9000130463146BDE837
:10040000F087B3FA83F6002E4AD18B4202D38242A0
:1004100000F2F980841A61EB030301209E46002D4F
:10042000E0D0C5E9004EDDE702B9FFDEB2FA82F2A4
:10043000002A40F09280A1EB0C014FEA1C471FFA02
:100440008CFE0126200CB1FBF7F307FB131140EAE9
:1004500001410EFB03F0884208D91CEB010103F1B6
:10046000FF3802D2884200F2CB804346091AA4B278
:10047000B1FBF7F007FB101144EA01440EFB00FE4C
:10048000A64508D91CEB040400F1FF3102D2A645B1
:1004900000F2BB800846A4EB0E0440EA03409CE750
:1004A000C6F12007B34022FA07FC4CEA030C20FAFD
:1004B00007F401FA06F31C43F9404FEA1C4900FA1D
:1004C00006F3B1FBF9F8200C1FFA8CFE09FB18119A
:1004D00040EA014108FB0EF0884202FA06F20BD90D
:1004E0001CEB010108F1FF3A80F08880884240F25D
:1004F0008580A8F102086144091AA4B2B1FBF9F0A1
:1005000009FB101144EA014100FB0EFE8E4508D99B
:100510001CEB010100F1FF346CD28E456AD9023820
:10052000614440EA0840A0FB0294A1EB0E01A14205
:10053000C846A64656D353D05DB1B3EB080261EB73
:100540000E0101FA07F722FA06F3F1401F43C5E94D
:10055000007100263146BDE8F087C2F12003D84083
:100560000CFA02FC21FA03F3914001434FEA1C47C5
:100570001FFA8CFEB3FBF7F007FB10360B0C43EAB7
:10058000064300FB0EF69E4204FA02F408D91CEB67
:10059000030300F1FF382FD29E422DD90238634465
:1005A0009B1B89B2B3FBF7F607FB163341EA034105
:1005B00006FB0EF38B4208D91CEB010106F1FF3854
:1005C00016D28B4214D9023E6144C91A46EA00464B
:1005D00038E72E46284605E70646E3E61846F8E6DD
:1005E0004B45A9D2B9EB020864EB0C0E0138A3E726
:1005F0004646EAE7204694E74046D1E7D0467BE707
:10060000023B614432E7304609E76444023842E77E
:10061000704700BF10B54418A4B2082C12D8C0F11E
:100620000700002380B2127842EA0322C1F10103DD
:100630001844134B80B253F821308340134023FAFF
:1006400000F010BD102C08D8C0F10F00002480B2BB
:1006500012F8013B43EA0423E5E7182C137887BF1F
:1006600001321C46C0F11700002488BFC0F11F00F2
:1006700012F8013B94BF80B280B243EA0424E7E75A
:10068000E4310108F0B54518ADB2082D24D8C0F109
:10069000070014460125002680B22478032D44EA81
:1006A0000624214E56F82160C1F10101084403EAF5
:1006B000060380B206FA00F103FA00F024EA010111
:1006C00040EA01002CD0042D27D0022D02D1030ACC
:1006D00002F8013B1070F0BD102D0AD8C0F10F00D8
:1006E00014460225002780B214F8016B46EA07265B
:1006F000D3E7182D17780AD8C0F117001446032540
:10070000002780B214F8016B46EA0727ECE7C0F136
:100710001F00541C042580B2F4E7030E02F8013BCD
:10072000030C02F8013BD2E7E431010810B52423A1
:100730001C4C1D492370012304F1320063703023E7
:10074000A3704023E370C02323714E2363712623DB
:10075000A37111F05AFB154904F1640011F055FB27
:10076000134904F1960011F050FB124904F1C8003E
:1007700011F04BFB104904F1FA0011F046FB0F4950
:1007800004F5967011F041FB0D4904F5AF7011F0BE
:100790003CFB0C4904F5C87011F037FB0A4B0922E9
:1007A0001A7010BDF501002068320108733201088B
:1007B0008332010893320108A6320108B9320108D8
:1007C000CC320108D6320108F401002007B54FF6FB
:1007D000FF7301A90190012207480DF02CFE074B81
:1007E0000222186800238068194611F019FA01984E
:1007F00003B05DF804FB00BFE8B80020340000201F
:1008000010B508210E480BF017FB1021B0FA80F448
:100810000B480BF011FB00284FEA54144FF4005121
:100820000CBF02200020044306480BF005FB002803
:10083000054B0CBF0420002004431C7010BD00BFFA
:100840000028024000200240300D00200D4B2DE911
:10085000F041074693F800800B4C0026F5B2A845FE
:1008600001D8FF250BE020460136FFF7F3FC2146B7
:1008700002463846323411F0B1F80028EED128464D
:10088000BDE8F081F4010020F501002030B500251D
:100890009BB06022294602A8019511F0D7F86B4B56
:1008A000186806F0DBFA09280AD81BB030BD002012
:1008B00009F012FE04F168030DEB030404F8640C64
:1008C0000020ECB209F0F4FD01350028EFD1002C36
:1008D000EBD004F1680301A90DEB030505F8640CE6
:1008E0005B4811F0BBF8214601A8FFF7AFFF0928CC
:1008F00000F2A980DFE800F0050C284359718191CE
:100900009A9F544B012254481A7011F043F9CCE7D6
:1009100004F16703514952480DEB030414F8642CA9
:10092000303A11F09BF814F8643C303BDBB2012BF9
:1009300006D84C4A137040F2052006F0C3FDB4E718
:10094000494811F027F9F6E704F167034749484899
:100950000DEB030414F8642C303A11F07FF845488D
:1009600011F018F9444B14F8642C1968303A41F02E
:1009700010011A711960414811F070F8DBE704F1B9
:1009800067033F493A480DEB030414F8642C303AEE
:1009900011F064F83B4811F0FDF814F8643C364A55
:1009A0002021303B11601371E5E704F167033649FC
:1009B0002F480DEB030414F8642C303A11F04EF874
:1009C000324811F0E7F82C4B1A6842F400721A60B2
:1009D00014F8642C303A1A71ADE704F167032C491E
:1009E00023480DEB030414F8642C303A11F036F868
:1009F000214B1A6842F00102E9E704F16703254937
:100A00001B480DEB030414F8642C303A11F026F85F
:100A1000194B1A6842F00202D9E71F491F4811F02A
:100A20001DF80022144B1A60FF22D4E71C491D4810
:100A300011F014F839E715F8652C1B49303A0C48C9
:100A400011F00CF831E708485FE700BF50A700201D
:100A5000DB320108DD090020F13201082702002005
:100A600031330108DE090020433301085902002018
:100A70005D330108763301082C120020853301080C
:100A80008B02002098330108BD020020A833010822
:100A9000EF0200202103002053030020C33301088C
:100AA00085030020D0330108B70300202DE9F84367
:100AB0001F4D286806F0D2F940F6B83398421CD989
:100AC0001C4B0021DFF87C901A781B4E012A1B4F2B
:100AD000DFF874800CBF93F82030012389F80020E0
:100AE00089F8013099F801308B4208D84FF4FA7038
:100AF00006F0E8FC09F0CEFE2860BDE8F8833B88EC
:100B0000B9F802400B413278DB070AD52143012AAC
:100B1000CCB203D121460A4810F0A0FF611CC9B233
:100B2000E0E7012A21EA0404F8D121464046F3E730
:100B30002C0D0020E8090020DE090020E409002037
:100B4000E5330108280D0020F13301082DE9F04FAD
:100B5000B5B00E461446824609F09CFE0021009076
:100B60007C2215A8149110F071FF0E49422303FB5B
:100B70000413B3F84030B3421AD104EB44133246A5
:100B8000504601EB430110F029FF88B9064A074897
:100B900002EB8404D4F89C1110F060FF35B0BDE87E
:100BA000F08F00BF1A130020E8090020FC33010871
:100BB000053E20210020CF4F0AEB060B5A46FFF7D7
:100BC00029FDCD4B81461A6812F0010F00F0D88143
:100BD0001B79A34240F0D481C84818250CF0A4FA30
:100BE000C74BB0FBF3F8C8EB0848A0EB0828C54892
:100BF00010F0D0FF05FB0473C348996810F02EFF76
:100C00004146C24810F02AFF434614AA2946002054
:100C1000FFF738FD0023D9B20133B142C0F2B681EB
:100C2000033114A808F0FCF881450AF10508019089
:100C300048D0424608210020FFF7ECFC054600287A
:100C400040F0C381B24810F0A5FF8022294614A8C5
:100C500010F0FCFE182114AA284601FB04739B68BF
:100C60000133FFF70FFDE9B201358E4200F39681A3
:100C7000033114A808F0D4F805465A462021002074
:100C8000FFF7C8FC8542064640F090811826A1482F
:100C900010F080FF294666439F4810F0DFFE9F4812
:100CA00037449F4DB96805EB041510F0D7FEB968BD
:100CB0009C480131B960A96010F0D0FE9A4B1E44E7
:100CC000AB68B3600AF1010210210020FFF7A2FC1B
:100CD000ADF8480081B2954810F0C0FE0AF1030259
:100CE00010210020FFF796FCADF8460081B2904835
:100CF00010F0B4FE424608210020FFF78BFC0AF1F9
:100D0000060208210020FFF785FC0AF107020821EE
:100D10000020FFF77FFC0AF108028DF82200102165
:100D20000020FFF777FC820683B2019340F15B81DC
:100D30000AF10A02082100204FF01008FFF76AFCB0
:100D40000AF10B0208210020FFF764FC0AF10C02F3
:100D500008210020FFF75EFC0AF10D0208210020A7
:100D6000FFF758FC0AF10E0208210020FFF752FCA1
:100D70000AF10F0208210020FFF74CFC0AEB0802E1
:100D8000082100200DF1250BFFF744FC4FF000096E
:100D9000C5B2684829468DF8235010F05FFE08F16F
:100DA000010208210020524408F10208FFF732FC3A
:100DB00015F0070F4FEAD505C7B214BF0135EDB2E4
:100DC0008DF82470AEB21FFA89F318FA89F29E42A8
:100DD00092B200F20B8146440DF135090A20B6B2F9
:100DE00010F054FE3744BFB2BE4240F00E811022D4
:100DF00000210DF10D0027B210F028FE2A460DF15A
:100E000025010DF10D0010F0F9FD2A460DF10D013F
:100E1000002007F093FF484BADF81E0023448DF8E7
:100E20001D508DF80C4093F82D30012B55D1019BAE
:100E30001B0752D5DFF81C81142303FB04835B8A54
:100E400083424AD007EB870510220021AD00681CC1
:100E500008EB0006304610F0F9FD08EB05030DF134
:100E60000C0C0DF11C0E1A466546083203CD754573
:100E700042F8080C42F8041CAC46F5D12868106012
:100E800000992E4A42F82410142202FB0482518A4F
:100E90002B4A32F8140088421FD022F8141003F1B4
:100EA0001401284A53F8040B8B4242F8040BF9D181
:100EB0004FF4027006F006FB234B33F8143063B98D
:100EC000224B304606F1100203EB0413023350F8B4
:100ED000041B904243F8041BF9D11823124D07EB71
:100EE00047071B4E6343EC5405EB0308012305EB56
:100EF000C70531E0F81A00202C120020489B002082
:100F000000FFFF003D3401085C3401088234010811
:100F1000A8340108C2340108E4340108013501088D
:100F20004C1200201A350108A81D00207E3501084A
:100F3000853501088C350108E8090020501600208D
:100F4000C8190020981E002078170020F21E0020EB
:100F50008C1D0020B016002088F801300FCD0FC680
:100F600095E8030086E8030040F2022006F0AAFAA2
:100F70000023009A88F80130294B43F824200DE61D
:100F8000182114AA01FB04739B6840E601F1D0020A
:100F90001AF801106A4402F87D1C3CE601F1D00306
:100FA0001AF801206B4403F87D2C5CE61D4A1E48AC
:100FB00002EB8404D4F89C1110F050FD31461B481C
:100FC00010F04CFD29461A48E6E5164A164802EB91
:100FD0008404D4F89C1110F041FD4946134810F0E8
:100FE0003DFD0199EFE74FF00A08C7E6524408219A
:100FF0000020FFF70FFB4946C2B20BF8010B0D486A
:1010000009F1010910F02AFDDDE60AEB06020136BE
:1010100008210020FFF7FEFA09F8010BB6B2E3E65B
:10102000D01C0020E8090020443501086035010883
:101030006F350108943501082DE9F041054609F0A6
:1010400029FC2B4B07465A1992F82D20022A13D05F
:101050001822284C6A431444E678EEB926490A441B
:10106000D7785FB922793AB103EB85032348D3F8E7
:101070009C1110F0F3FC2771BDE8F081012FFBD12A
:101080002279002AF8D003EB85031D48D3F89C1180
:1010900010F0E4FC2671EFE7012EEDD116490A4469
:1010A00092F80380B8F1000F12D12279012AE3D01F
:1010B00003EB85031348D3F89C1110F0CFFC124BBF
:1010C000C4F8108043F82570104B43F82570E1E711
:1010D000B8F1010FD0D12279002ACDD003EB8503DE
:1010E0000B48D3F89C1110F0B9FC00232371C3E71F
:1010F000E8090020A81D0020F81A0020A3350108E7
:10110000DD350108163601080016002028160020DB
:101110004E3601082DE9F843DFF83C81044608EB20
:10112000000393F82D30022B72D018223C4D3D4E17
:101130004243A91832448B689268934231D082B3FB
:101140000979012902D13849095C51BB9B1A374AF8
:10115000002BB8BF5B42012B02D1135D032B59D189
:101160001827002332486743135508EB840305EB27
:1011700007093744D3F89C1110F070FCD9F8081017
:101180002C4810F06BFCB9682B4810F067FC2B481A
:1011900010F000FD2A4BBA6803EB0413C9F80820CD
:1011A0009A6018226243A9183244CB68D2689342ED
:1011B0002ED06AB30979012902D11B49095D39BBD7
:1011C0009B1A204A002BB8BF5B42012B02D1135D52
:1011D000032B22D11827002308EB84081A48674301
:1011E00013553D44D8F89C113E4410F037FCE96893
:1011F000164810F033FCF168154810F02FFC154824
:1012000010F0C8FC0E48F36800EB0414EB60E360D8
:10121000BDE8F88301331355C3E701331355F7E7EE
:10122000A81D0020F81A0020F6120020540D0020FE
:101230008A360108CC360108F03601081437010857
:101240004C1200205E0D00203C3701087E3701085B
:10125000A2370108C6370108E8090020F8B50024C4
:10126000154D164F95F82030E6B2B34223D957F802
:101270002600013405F0F2FDD5F818329842F1D974
:1012800018230F4C0C220F4D03FB06440023637000
:101290000D4B02FB06335B78A3700FCC0FC594E8AF
:1012A000030085E8030040F2022006F00BF909F084
:1012B000F1FA47F82600F8BDE8090020D01C00200C
:1012C000A81D00208C1D0020B411002038B51D4D34
:1012D0002B78012B01D107F06DFF1B491B48FEF74E
:1012E000AFFF10B901232B7038BD194C206805F0F1
:1012F000B5FD184BD3F81C329842F5D3164B206835
:101300001A688242F0D0002418602C7005F0A6FD07
:101310004FF47A71B0FBF1F1104810F09FFB1048C8
:1013200010F038FC214618220E4810F08FFB2146A1
:10133000A2220D4810F08AFB40F21910BDE8384097
:1013400006F0C0B800000020EE370108E9090020CF
:10135000E0190020E8090020DC190020FA37010814
:1013600027380108F81A0020F21E00202DE9F84362
:10137000354E364D306805F071FDD5F82032984273
:101380003DD93349681CFEF75BFF324B38B9012267
:101390001A700021304C314F4FF0140C3FE01C7894
:1013A000002CF6D12E4810F0F5FB2E4810F0F2FB81
:1013B000A2222146284810F049FB40F2191006F0FD
:1013C00081F8FFF773FB284B1B78012B14D12749B9
:1013D0000027DFF88480DFF89C908B784A782448D7
:1013E000097810F03BFBBCB295F82030B4EB031F3A
:1013F0001BDB0A2010F04AFB09F04CFA3060BDE814
:10140000F88304EB03120CFB03730232581C1133F4
:1014100050F804EB984242F804EBF9D1013195F809
:101420002020CBB29A42ECD8CDE708EB040301347C
:101430004846997810F012FB230702D10A2010F0D9
:1014400025FB0137CFE700BFAC160020E8090020DC
:10145000EE37010800000020F21E0020B016002028
:10146000493801086D380108DE090020C226002035
:101470008A3801084C42010838B505460024E3B219
:101480000134E95C01B938BD002009F049F8F6E7FC
:10149000F0B5ADF5057D0E4600210446174605A8BA
:1014A0004FF4FE72049110F0D1FA76B34F48FFF773
:1014B000E3FF621C10210020FFF7ACF84C49024604
:1014C00004A810F073FC04A8FFF7D6FFE21C10215B
:1014D0000020FFF79FF84749024604A810F066FC79
:1014E00004A8FFF7C9FFE21D08210020FFF792F8CA
:1014F00005464148FFF7C0FFE8B20138052866D825
:10150000DFE800F0055F656165633C48CFE7002ECA
:1015100055D03B48FFF7B0FF3A48FFF7ADFF621DDB
:1015200008210020FFF776F83749024604A810F09A
:101530003DFC04A8FFF7A0FFA21D08210020FFF733
:1015400069F83249024604A810F030FC04A8FFF7FD
:1015500093FF04F1080210210020FFF75BF82C49EB
:1015600082B2054604A810F021FC04A8FFF784FF0E
:10157000AB062ED5E37B04A8A27A0393A37B25496F
:101580000293637B0193237B0093E37A10F00EFCBC
:1015900004A8FFF771FF204B1B78012B0CD12744C7
:1015A0001E4DBC4217D13EB9F6221C4904A810F0CA
:1015B000FDFB04A8FFF760FF0DF5057DF0BD1848A1
:1015C000A8E71848A6E71848A4E71848A2E718486B
:1015D000A0E71848DDE714F8012B294604A810F00D
:1015E000E5FB04A8FFF748FFDBE700BFAF380108C1
:1015F000B7380108BF380108C7380108B3380108F7
:10160000CB380108B1380108F63801080039010863
:101610000A39010814390108DE0900204C4201088A
:10162000D2380108D9380108DD380108E13801084D
:10163000E5380108363901082DE9F0439BB006462C
:101640000F460021154602A86022019110F0FEF914
:101650003378B4464FF0F00E8DF80430012318466D
:101660005C1C03F16802B842E4B20DEB020151D3F5
:10167000F623DFF8F09001F8643C19F80530012BEF
:101680000AD1334B93F8803033B9324B1B78012B9E
:1016900002D13148FFF7F0FEDFF8CC8008EB0503FC
:1016A00093F82D30012B09D12C4B214601A853F87A
:1016B000252005F015FD002309F80530454495F86F
:1016C0002D30022B06D10DF104080025A4B2ABB2D7
:1016D0009C4236D81F4D2B78012B02D11E48FFF7B4
:1016E000CBFE1B4C94F8802032B101212046FFF73D
:1016F000CFFE002384F880303A4600213046FFF7C1
:10170000C7FE2B78012B02D11548FFF7B5FE1BB0A1
:10171000BDE8F0831CF8012F0130EF2AC0B281BF71
:1017200001F864EC04F16801023302F00F0289BF92
:101730000DEB010401F8642C04F8642CDCB22346A0
:101740008EE718F8011B0320013508F0E9FEBEE71B
:10175000E81B0020DE09002049390108041A002096
:10176000A7390108C41C0020E80900202DE9F04336
:10177000002791B0044638223946DFF8D89202A8F3
:10178000019710F063F9F42301AA082138469F4E0F
:10179000FEF778FF0DF1050209EB840310213846AE
:1017A000D3F89C31FEF76EFF0DF1070209EB8403BD
:1017B00010213846D3F8C431FEF764FF3268510770
:1017C000C2F3800340F109813379A3421BD1C825BC
:1017D0008F480BF0A9FCB0FBF5F303FB15058D4812
:1017E00010F0D8F9394601358B4810F037F98B489D
:1017F000EDB2294610F032F92B460DF1090208210D
:101800003846FEF73FFF33684FEA0418844F13F061
:10181000080FC3F3C00000F0E5803379A3421BD169
:10182000C8257B480BF080FCB0FBF5F303FB1505E6
:101830007C4810F0AFF907EB08037B48997810F06B
:101840000DF92946794810F009F92B460DF10A02E5
:1018500008210020FEF716FF01230DF10B020821DD
:101860000020FEF70FFF07EB0805052303AA102150
:101870000020EB80FEF706FF17230DF10E02082172
:101880000020FEF7FFFE01230DF10F0210210020C2
:10189000FEF7F8FE664B0DF1110220210020FEF745
:1018A000F1FE00230DF1150210211846FEF7EAFEA5
:1018B00000230DF1170210211846FEF7E3FE002366
:1018C0000DF1190210211846FEF7DCFE00230DF180
:1018D0001B0210211846FEF7D5FEAB68554A07EBF0
:1018E00008051821002093420DF11D028CBF03F161
:1018F000FF330133EB60FEF7C5FE18224E4B082183
:10190000002002FB0433EA68DA604C4B1A5DB22A0D
:1019100094BF01320A221A5508AA1B5DFEF7B2FED7
:1019200001230DF1210208210020FEF7ABFE012367
:101930000DF1220208210020FEF7A4FE00230DF184
:10194000230208211846FEF79DFE33689A0653D5F8
:101950003379A34250D17D252D480BF0E5FB474458
:10196000B0FBF5F303FB1505354810F013F9F978D2
:101970000135344810F072F8FB78EDB23248AB42D2
:1019800004BF023DEDB2294610F068F82B4609AAC3
:1019900008210020FEF776FE00230DF12502082124
:1019A0001846FEF76FFE222101A807F039FA0DF163
:1019B0002602034620210020FEF764FE33689B05C3
:1019C0001ED53379A3421BD1204810F0E3F82048FC
:1019D00010F044F811B0BDE8F0830DF109020821C0
:1019E00018460EE707EB0802082193780133DBB2B3
:1019F00093700DF10A022DE7A14499F8EB30C6E788
:101A00002246262101A8FFF717FEE3E72C1200204B
:101A1000489B0020043A0108273A0108463A010889
:101A20004C120020653A0108883A0108A73A0108DB
:101A3000AF32E233EFFFFF00A81D002001000020BD
:101A4000C63A0108F63A01080F3B01082A3B010893
:101A50003F3B0108E80900202DE9F0474FF000085E
:101A60009EB004463822414610A89E4D2701CDF86D
:101A70003C800FF0EBFF3C22414668469A4E0FF047
:101A8000E5FFF4236A4608214046FEF7FBFD0DF111
:101A9000010205EB8403102105EB84054046D3F8D1
:101AA0009C31FEF7EFFDD5F8C431904D0DF10302E6
:101AB00010214046FEF7E6FD2B6813F0040F00F0FE
:101AC000F7802B79A34240F0F3804FF0C809884893
:101AD0000BF02AFBB0FBF9F303FB1909854810F062
:101AE00059F8F319844859780FF0B8FF49468348EC
:101AF0000FF0B4FF4B4608210DF105020020FEF760
:101B0000C1FD2B68190740F1D6802B79A34240F024
:101B1000D2804FF0C80876480BF006FBB0FBF8F314
:101B200003FB1808764810F035F8F31975489978D2
:101B30000FF094FF414674480FF090FF43460DF1BB
:101B4000060208210020DFF8E081FEF79BFD02235A
:101B50000DF1070208210020DFF8D0A1FEF792FD69
:101B600018F80430012B40F0A98003F0F9FB674A14
:101B700004EB440310680AEB43014AF8130093880E
:101B800063488B8010F006F80020682302AA102119
:101B900008F804004FF00609FEF774FD0DF10A0283
:101BA000082109FB04F900200AEB090898F8053020
:101BB000FEF768FD98F804300DF10B0208210020B3
:101BC000FEF760FD98F8033003AA08210020FEF715
:101BD00059FD1AF809300DF10D0208210020FEF719
:101BE00051FD98F801300DF10E0208210020FEF79A
:101BF00049FD98F802300DF110080DF10F0208218F
:101C00000020FEF73FFD0123424608210020FEF799
:101C100039FD00230DF1110208211846FEF732FDAF
:101C200001230DF1120208210020FEF72BFD2B6885
:101C30009A0748D52B79A34245D12D483E440BF055
:101C400073FA814633480FF0A5FFF16832480FF070
:101C500005FF494631480FF001FF4B460FAA1821F6
:101C60000020FEF70FFD6A460DF13F0316460833CC
:101C700003CE464543F8080C43F8041C3246F5D120
:101C800031880FA8B278198016219A7007F0C8F829
:101C90000DF11302034620210020FEF7F3FC2B6810
:101CA0009B0513D4224617216846FFF7C5FC16E0B2
:101CB000F3195B781FE7F3199B7840E7282302AA02
:101CC0001021002066E73E44F368C7E72B79A34262
:101CD000E8D113480FF05EFF12480FF0BFFE1EB0B0
:101CE000BDE8F087E80900204C1200202C120020EB
:101CF000489B0020513B0108743B0108923B0108BE
:101D0000653A0108883A0108A73A0108BC26002074
:101D1000B13B0108C63B0108E93B01080A3C010848
:101D20002A3B01083F3B0108430D0020680D0020BD
:101D30002DE9F04F4FF000089FB00446382241468D
:101D400001A8AE4D2601CDF800800FF07FFE3822AD
:101D5000414610A8CDF83C800FF078FEF4236A4687
:101D600008214046A64FFEF78DFC0DF1010205EB60
:101D70008403102105EB84054046D3F89C31FEF71F
:101D800081FCD5F8C4310DF10302102140469D4D70
:101D9000FEF778FC3B6813F0040F00F001813B79FB
:101DA000A34240F0FD804FF0C80997480BF0BCF902
:101DB000B0FBF9F303FB190994480FF0EBFEAB19E4
:101DC000934859780FF04AFE494692480FF046FE74
:101DD0004B460DF1050208210020DFF868A2FEF74E
:101DE00051FC3B6813F0080F00F0DD803B79A34203
:101DF00040F0D9804FF0C80883480BF095F9B0FB4C
:101E0000F8F303FB180884480FF0C4FEAB198348AD
:101E100099780FF023FE414681480FF01FFE43469C
:101E20000DF1060208210020FEF72CFC01238AF8A0
:101E3000003004230DF1070208210020FEF722FCE8
:101E4000AB19DFF80482988818F8043010F0080005
:101E500000F0B780012B02AA4FF010014FF00000F4
:101E60000CBF68232823FEF70DFCAB199B8899064D
:101E700040F1AF8018F80430DFF8D0B1012B11D158
:101E800003F06EFA674A04EB440310680BEB43015E
:101E90004BF81300938864488B800FF07BFE00237F
:101EA00008F804304FF006090DF10A02082100205D
:101EB00009FB04F90BEB090898F80530FEF7E2FB83
:101EC00098F804300DF10B0208210020FEF7DAFB30
:101ED00098F8033003AA08210020FEF7D3FB1BF873
:101EE00009300DF10D02082100204FF01009FEF716
:101EF000C9FB98F801300DF10E0208210020FEF711
:101F0000C1FB98F802300DF10F0208210020FEF706
:101F1000B9FB3B689A075FD53B79A3425CD13A484D
:101F200035440BF001F9414BB0FBF3F8C8EB08481E
:101F3000A0EB08283E480FF02DFEE9683D480FF061
:101F40008DFD41463C480FF089FD43460FAA1821FC
:101F50000020FEF797FB0023DAB201334A45114611
:101F60003DD303310FA806F05BFF202103460DEBA4
:101F700009020020FEF786FB002309F104018AF81C
:101F800000303B689B0531D53B79A3422ED12B48CD
:101F90000FF000FE2A480FF061FD1FB0BDE8F08F82
:101FA000AB195B7815E7AA190020082193788AF805
:101FB00000000133DBB293700DF10602FEF762FB05
:101FC00037E7012B02AA4FF010010CBF6423242332
:101FD00049E74FF00A099CE73544EB68B6E77832E9
:101FE0006A4412F8781C02F8391CB5E7224601F061
:101FF000FE016846FFF720FBCFE700BFE80900209D
:102000002C1200204C120020489B0020043A0108AA
:102010002D3C01084A3C0108653A0108693C010869
:10202000863C0108BC260020B13B010800FFFF00F0
:10203000C63B0108E93B01080A3C01082A3B0108AC
:102040003F3B0108691C0020430D0020680D002063
:102050002DE9F0434FF0000891B004463822414684
:10206000744D02A8CDF804800FF0F0FCF42301AA0F
:1020700008214046704EFEF705FB0DF1050205EB09
:102080008403102105EB84054046D3F89C312701D9
:10209000FEF7F8FAD5F8C4310DF1070210214046D9
:1020A000664DFEF7EFFA336813F0040F00F0AE80D0
:1020B0003379A34240F0AA804FF0C80960480BF082
:1020C00033F8B0FBF9F303FB19095E480FF062FD2A
:1020D000EB195D4859780FF0C1FC49465B480FF099
:1020E000BDFC4B460DF1090208210020FEF7CAFA9B
:1020F00033681A0740F18D803379A34240F089801C
:102100004FF0C8084E480BF00FF83D44B0FBF8F311
:1021100003FB18084E480FF03DFDA9784D480FF01D
:102120009DFC41464C480FF099FC43460DF10A02D4
:1021300008210020494DFEF7A5FA06230DF10B02F8
:1021400008210020DFF82881FEF79CFA2B5D012B87
:1021500065D103F005F9424A04EB4403106808EB2B
:10216000430148F8130093883E488B800FF012FD1E
:102170000020692303AA102128550627FEF782FABA
:102180000DF10E0208216743002008EB07056B796B
:10219000FEF778FA2B790DF10F0208210020FEF7E7
:1021A00071FAEB7804AA08210020FEF76BFA18F800
:1021B00007300DF1110208210020FEF763FA6B7859
:1021C0000DF1120208210020FEF75CFAAB780DF148
:1021D000130208210020FEF755FA102101A806F08D
:1021E0001FFE05AA034620210020FEF74BFA3368A4
:1021F0009B0519D53379A34216D11B480FF0CAFCB1
:102200001A480FF02BFC11B0BDE8F083EB195B7896
:1022100068E73D44AB780133DBB2AB7086E7292336
:1022200003AA10210020A8E72246142101A8FFF7E5
:1022300003FAE8E7E80900202C1200204C120020E5
:10224000489B0020043A01082D3C01084A3C010843
:10225000653A0108693C0108863C0108430D0020ED
:10226000BC260020B13B01082A3B01083F3B010886
:10227000680D00202DE9FF47624C002762480FF0EF
:1022800089FC94F8211061480FF0E8FBD4F818128B
:102290005F480FF0E3FBD4F81C125E480FF0DEFB42
:1022A000D4F820125C480FF0D9FBD4F824125B4814
:1022B0000FF0D4FBDFF89481B4F8F8105848DFF839
:1022C00090910FF0CBFBDFF88CA194F821104F48D0
:1022D0000FF0C4FB94F82130FDB2AB4234D894F82F
:1022E0003E30002694F83C2094F83B1000934D4873
:1022F00094F83D300FF0B2FB94F84A3094F8462041
:10230000029394F8493094F84510019394F84830BA
:1023100045480093DFF8408194F84730DFF83C915E
:102320000FF09CFBDFF838A1B4F8F8103F480FF02D
:1023300095FB94F82030F5B2AB4223D8324804B074
:10234000BDE8F0470FF026BC04EB85062946404661
:10235000013796F89E30019396F89D30009396F8D9
:102360009C3096F89B200FF079FBB6F84A2129465D
:1023700048460FF073FBB6F84C21294650460FF043
:102380006DFBA7E7691C40460FF068FB484604EB6D
:10239000850367190136D3F89C110FF05FFB504697
:1023A00004EB8503D3F8C4110FF058FB204804EB6D
:1023B0004503B3F800120FF051FB97F8EB101D48DE
:1023C0000FF04CFB97F823101B480FF047FB97F8D2
:1023D0002D101A480FF042FB05F18A03184854F8F3
:1023E00023100FF03BFB05F194039E35154854F87C
:1023F00023100FF033FB54F8251013480FF02EFB79
:1024000097E700BFE8090020A73C0108FA3C010853
:102410001C3D01083F3D0108693D0108953D01084B
:10242000C03D0108283E0108443E01084E590108FC
:10243000B73E0108D33E0108EB3E0108FC3E01080F
:102440000F3F01082A3F0108433F0108EB3D010807
:10245000083E0108183E0108723E0108853E010849
:102460009E3E01082DE9F0470026234DDFF89C80B1
:10247000DFF89C90F4B295F82030A34201D8BDE873
:10248000F08758F82400A8B304F1940704F0E6FCA0
:1024900055F8273003F57A7398422BD959F8240060
:1024A00004F0DCFC55F8273003F57A73984221D903
:1024B000DFF860A01AF80430012B1BD00F4B53F843
:1024C0002430B3F57A7F15D958F82400012704F099
:1024D000C5FC4FF47A71B0FBF1F109480FF0BEFA78
:1024E000084B214620461F55FFF740F9064B0AF8D6
:1024F00004701F550136BDE7E8090020B015002023
:102500005D3F0108C41C0020EC12002000160020D2
:10251000C01700200A1300202DE9F8430026DFF839
:102520006080DFF86090154FF4B298F82030A34235
:1025300001D8BDE8F883182303FB04931B79012B12
:1025400005D008EB040393F82D30022B13D13B5D2B
:10255000012B10D1A51C07EB8505686804F07EFCF3
:10256000322808D921462046FFF776FA00233B554A
:102570004FF0FF336B600136D6E700BFF81C002038
:10258000E8090020A81D00202DE9F84300261B4F74
:10259000DFF87880DFF8789097F82030F4B2A34223
:1025A00001D8BDE8F88358F8240020B3182505FBAE
:1025B0000495EB78FBB104F051FC04F18A0357F861
:1025C0002330984217D907EB84014FF47A720C48F4
:1025D000D1F89C11B3FBF2F20FF040FA58F8241036
:1025E00008480FF03BFA08F055F9014606480FF08D
:1025F00035FA0023EB700136CEE700BFE809002072
:10260000893F0108BC3F0108EA3F01082816002065
:10261000A81D00202DE9F041214E0546331893F8FE
:102620002330012B02D00120BDE8F0811D4B1B7827
:10263000012BF8D106231C4A4FF46167434302EB98
:102640000308D05C02F06AFE044698F8010002F02C
:1026500065FE02B298F80200C2EB0212920007FB7C
:10266000042402F05BFE044402F07AFE0F4A537821
:102670001078C3EB03139900937807FB00111944FA
:10268000611A0029B8BF49420129CCDD06EB850556
:102690000748D5F89C210FF0E1F90020C4E700BFFE
:1026A000E809002018130020680D0020C226002031
:1026B000F53F01082DE9F04F0E4605461446DFF8B8
:1026C000C093053E2DED028B83B008EE103A08F062
:1026D000E1F80746B1B2284606F0A2FB8046AA19E7
:1026E00020210020FDF796FF8045009013D009EBD4
:1026F0008404C948D4F89C110FF0B0F90099C74878
:102700000FF0ACF94146C64803B0BDEC028BBDE802
:10271000F04F0FF0A3B904F1FE08C24B4FF0010ACD
:10272000C14E09EB480805F11D0203F804A0102171
:10273000002006F804A0FDF76DFFB8F8042083B26E
:1027400083469A42B94B1DD003F804A009EB8403D9
:10275000B748D3F89C110FF081F9B6481FFA8BF1F6
:102760000FF07CF9B8F80410B3480FF077F9B349CB
:1027700009EB0A00FDF764FD30B103B0BDEC028B3C
:10278000BDE8F08F00221A5509EB040A05F1240276
:1027900008210020FDF73EFF9AF8EB305FFA80F841
:1027A000434540F02081A64B4FF0010BDFF8D48267
:1027B000102143F8247005EB0B02A24B4FEA441A98
:1027C00006F804B000261E5530469F4B43F824708F
:1027D00008EB4417FDF71EFF81B238829B480FF0CB
:1027E0003DF9EA1C10213046FDF714FFF88181B253
:1027F00097480FF033F96A1D08213046FDF70AFFAC
:10280000AA1D082108F80A003046FDF703FFEA1D5B
:10281000082178703046FDF7FDFE05F10802B8701A
:1028200010213046FDF7F6FE8A4B80B203EB04130D
:102830009880830600F128810A26AA190821002021
:1028400008EB441AFDF7E6FE721C63018AF80300E8
:102850002A44102100200193FDF7DCFEF21C042322
:10286000AAF81200AF18A85803EB441306F10902A6
:10287000A14448F8030008EB0301BB882A44002068
:10288000754F8B801021FDF7C5FE06F10B02AAF8EB
:10289000140010212A440020FDF7BCFE06F10D02B1
:1028A000AAF8160010212A440020FDF7B3FE06F115
:1028B0000F02AAF8180018212A440020FDF7AAFEEA
:1028C0001822644B082102FB047203EB041B906086
:1028D00006F11202CBF8080000202A44FDF79AFE08
:1028E0005C4BC0B2082122018BF80200985406F11B
:1028F000130200202A44FDF78DFE06F114028AF827
:102900000A0008212A440020FDF784FE99F8EB30E4
:10291000C0B206F1150A83428BF803000CD04F4871
:102920000FF038F999F8EB104D480FF097F89BF835
:1029300003104C480FF092F805EB0A020821002022
:10294000FDF768FE06F11602630108212A4408EB30
:10295000030989F80B000020FDF75CFEC1B20129D4
:1029600089F80C1006F1170905D03F480FF076F8EA
:102970003E480FF00FF905EB090208210020FDF792
:1029800049FE06F11802630120212A44384D98447B
:1029900088F80D000020FDF73DFE18EE101AC8F86B
:1029A0001C002046FEF7E2FE1823009A6343FE183F
:1029B000FC5404EB44037261012207EBC3077271FC
:1029C00072700FCF0FC597E8030085E8030040F24F
:1029D000022004F077FD0023737007F05BFF254BA6
:1029E00043F82400C9E609EB84032348D3F89C117B
:1029F0000FF034F89AF8EB1019480FF02FF8414611
:102A000018480FF02BF80D491C48FDF719FC002859
:102A10003FF4C9AEB1E600BF33400108603501089C
:102A20006F350108F6120020E4190020390D00204E
:102A30004E40010886400108A8400108EE37010811
:102A4000001600200A130020B01500207E35010872
:102A5000853501084C120020A81D00201A410108EC
:102A6000F240010806410108344101085F410108B4
:102A70008C1D0020D01C0020CA400108E90900205C
:102A8000E8090020A40D00204FF0060A05F10A0213
:102A900008213046FDF7BEFD0AFB04FA194B05F18B
:102AA0000B02082103EB0A0778713046FDF7B2FDEF
:102AB00005F10C02082138713046FDF7ABFD05F138
:102AC0000D020821F8703046FDF7A4FD0D4B05F10D
:102AD0000E02082103F80A003046FDF79BFD05F1C0
:102AE0000F02082178703046FDF794FDB87020463B
:102AF000FFF790FD044B10B11E5510269DE603F81C
:102B000004B0FAE7680D0020430D00202DE9F04FD6
:102B10004FF0000914460546D44F4FEA04182DED36
:102B2000028B99B008EE103A039107F0B3FE3822F9
:102B3000494601900AA8CDF824900EF087FFCC49B1
:102B4000CC48FDF77DFB002800F0ED82CA4B1A68E7
:102B5000D20740F1B3821B79A34240F0AF82C74E47
:102B6000C7480AF0E1FAB0FBF6F6C6EB0646A0EB62
:102B70000626C4480FF00EF807EB0803C248996810
:102B80000EF06CFF3146C1480EF068FF334609AACB
:102B900018210020FDF776FD039A0023A2F1050A13
:102BA000D9B201335145C0F28D82033109A805EB3A
:102BB0000A0B06F035F9814620215A460020FDF720
:102BC00029FD814506464BD06A1D0821002002924E
:102BD000FDF720FD029A002840F07B82AC480EF001
:102BE000D9FF3C22002109A80EF030FF07EB0803B3
:102BF00009AA18219B6800200133FDF743FD00233B
:102C0000D9B201338A4500F37282033109A806F074
:102C100007F981465A4620210020FDF7FBFC81453B
:102C2000064640F06B8207EB08099A480EF0B2FFA7
:102C3000314699480EF012FFD9F8081097480EF067
:102C40000DFFD9F8081096480131C9F808100EF0A8
:102C500005FF1822934B02FB0433D9F808209A6031
:102C6000019A0021904B4FF0300ADFF8689243F848
:102C700024208E4B43F8242001228D4B1A5504EB5F
:102C80004413402209EB430318460EF0DFFE039A7B
:102C900029460EF0B3FEBDF80C306A1C10210493D7
:102CA0004223002003FB0499049BA9F84030DFF87D
:102CB0002892FDF7AFFC81B20AFB049AAAF828001B
:102CC0007C480EF0CBFEEA1C10210020FDF7A2FC90
:102CD000AAF8260081B207EB080A77480EF0BEFE7C
:102CE0006A1D08210020FDF795FCAA1D8AF8020044
:102CF00008210020FDF78EFCC0B28AF80100D8B987
:102D00006E4B6F4803EB8403D3F89C110EF0A6FEC4
:102D1000DAF80C106B480EF0A1FEDAF80C106A48D5
:102D20000131CAF80C100EF099FE18225D4B02FB1F
:102D30000433DAF80C20DA60EA1D0821002007EBE2
:102D4000080AFDF767FC3023102105F1080203FB98
:102D5000049989F802000020FDF75CFC44491FFA41
:102D600080F94448AAF80490FDF76AFA18B949F0C6
:102D70000809AAF80490B844B8F804309B0640F15A
:102D8000D6814FF00609DFF854A105F10A020821A7
:102D900009FB04F90020FDF73DFC05F10B020AEBED
:102DA0000908082188F805000020FDF733FC05F12B
:102DB0000C02082188F804000020FDF72BFC05F127
:102DC0000D02082188F803000020FDF723FC05F11F
:102DD0000E0208210AF809000020FDF71BFC05F18E
:102DE0000F02082188F801000020FDF713FC88F885
:102DF00002002046FFF70EFC344B002800F09581BE
:102E000000224FF010081A5507EB0417DFF8C8909E
:102E100008210020BB88302703F0080207FB049735
:102E2000C3F3C003029205EB08020793FDF7F2FB20
:102E3000C1B2F87026480EF011FE08F10102082117
:102E400000202A4408F10208FDF7E4FB387104EB86
:102E50004403FF784FEA031A17F0070F4FEAD7072A
:102E60000AF1050314BF0137FFB239E04C1200200C
:102E7000EE370108E90900202C12002000FFFF00B6
:102E8000489B00203D3401085C340108823401086D
:102E9000A834010878410108E43401088F41010891
:102EA0001A350108A81D0020001600202816002051
:102EB000EE1900207E35010885350108E80900205B
:102EC000DD4101081F4201082F420108430D002087
:102ED0003E4201081A130020D40F0020680D002084
:102EE0004B444FF000091FFA87FBCDE905331FFA69
:102EF00089F318FA89F29B4592B200F21B810A20ED
:102F0000C3444FF030090AF115080EF0BFFD9B4B8A
:102F10001FFA8BFB4FF0000A984409FB04391FFA93
:102F20008AF399F804101BFA8AF2994292B200F2DD
:102F3000128118EE101A2046FFF78AF8904B0122F2
:102F40001A5503EB8403019ADA6018228D4B02FBB9
:102F500004331B79012B11D18B4B462200211846DB
:102F60000EF074FD049A0480294682800630039A8C
:102F70000EF044FD4FF4017004F0A4FA04EB840A4F
:102F8000DFF85082102200214FEA8A0A0FFA84F9F2
:102F90000AF1010508EB050318460EF057FD3A4605
:102FA00005990EF02BFD3A460146002005F0C6FEBD
:102FB0001423634308EB030208F80340029B577491
:102FC0005082724F002B3DD03D4410220021D0444E
:102FD00028460EF03BFD07EB0A0308F114011A46E0
:102FE00058F8040B884542F8040BF9D1684A019956
:102FF00042F82410142202FB0472518A654A32F806
:10300000140088421ED022F8141003F11401624A01
:1030100053F8040B8B4242F8040BF9D14FF40270C1
:1030200004F050FA5D4B33F814305BB95C4B05F19A
:10303000100203EB0413023355F8041B954243F8C6
:10304000041BF9D1142118224E4B09EB49096243A4
:1030500001FB047703EBC9099D189C54798A6E61C2
:103060000126E9800221079A69716E70AA704D4F9E
:10307000B9E80F000FC799E8030087E8030040F2A2
:10308000022004F01FFA0023019A6B700298464B4D
:10309000464943F824200C23454A002865D0019D69
:1030A00003FB04224348556040F8245056700E55E7
:1030B0004FF48071404808F0CAFE2FE007EB080388
:1030C0009B6864E501F16002695C6A4402F8391C9E
:1030D00066E508210020FDF79DFA01283FF47EAD4A
:1030E000364A374802EB8404D4F89C110CE001F115
:1030F0006002695C6A4402F8391C81E52F4A314854
:1031000002EB8404D4F89C110EF0A8FC31462E4842
:103110000EF0A4FC49462D480EF0A0FC19B0BDEC01
:10312000028BBDE8F08F06469AE5012269E64FF072
:103130000A0869E62A4408210020FDF76BFA069B7D
:10314000C2B2494603F8010B09F101092048069370
:103150000EF084FCCBE62A44082100200AF1010A83
:10316000FDF758FA08F8010BD9E60298085503FB59
:103170000424019B6070A3609AE700BFD40F002075
:10318000F81C0020A81D0020AC1E0020B016002056
:1031900050160020C8190020981E00207817002023
:1031A000F21E00208C1D0020D01C0020A016002044
:1031B000B411002078160020001C0240E80900200D
:1031C000C9410108AC410108603501086F350108AB
:1031D00045420108301A00202DE9F04F4FF0000A57
:1031E00014460546242289465146D34F4FEA041817
:1031F0002DED028B8DB008EE103A03A8CDF808A093
:103200000EF024FC07F046FBCC490090CC48FDF7BB
:1032100017F8002800F03A82CA4B1A68D20740F12A
:1032200002821B79A34240F0FE814FF6FF76C6482A
:1032300009F07AFFB0FBF6F6C6EB0646861BC348DC
:103240000EF0A8FC07EB0803C14899680EF006FCD5
:103250003146C0480EF002FC334602AA1821002075
:10326000A9F10509FDF70EFA0023D9B2013349454A
:10327000C0F2DD81033102A805F0D2FD834605EBE3
:10328000090220210020FDF7C5F98345064647D0F5
:103290006A1D08210020DFF8D4A2FDF7BBF904F174
:1032A0006603C0B2012800F2E4810AEB8303AA4856
:1032B00059680EF0D3FB2822002102A80EF0C6FBAD
:1032C00007EB080302AA18219B6800200133FDF7D1
:1032D000D9F90023D9B20133894500F3AF81033115
:1032E00002A805F09DFD8642814640F0AE8107EBC5
:1032F00008099A480EF04EFC9948D9F808100EF0CB
:10330000ADFBD9F8081097480131C9F808100EF044
:10331000A5FB1822944B02FB0433D9F808209A60CD
:10332000DFF878A24FF00C096A1C102109FB04A9F0
:103330000020FDF76FF907EB080BA9F80600EA1C5F
:1033400010210020FDF766F96A1DA9F80400082184
:103350000020DFF81492FDF75DF9AA1D8BF802003A
:1033600008210020FDF756F9C0B28BF80100D0B952
:103370007E4B7F4803EB8403D3F89C110EF06EFB69
:10338000DBF80C107B480EF069FBDBF80C107A4878
:103390000131CBF80C100EF061FB1823DBF80C2088
:1033A00003FB0493DA60EA1D0821002007EB080BF9
:1033B000FDF730F90C23102105F1080203FB04AAE4
:1033C0008AF802000020FDF725F95C491FFA80FA0F
:1033D0005B48ABF804A0FCF733FF18B94AF0080AC1
:1033E000ABF804A007EB08039B889B0640D505F1CA
:1033F0000A0208210020DFF8A8B1FDF70BF9062327
:1034000005F10B02082163430BEB030A01938AF8D1
:1034100005000020FDF7FEF805F10C0208218AF8EE
:1034200004000020FDF7F6F805F10D0208218AF8E6
:1034300003000020FDF7EEF8019B05F10E020821C4
:103440000BF803000020FDF7E5F805F10F02082155
:103450008AF801000020FDF7DDF88AF80200204616
:10346000FFF7D8F8454B002800F0128100221A55CA
:10347000474418EE101A20461825BB880FFA84F826
:1034800005FB0495DFF81CA103F00807C3F3C00394
:103490000193FEF74DFC009A394B286943F824202C
:1034A000384B43F8242003F0D9FC2861002F7BD04F
:1034B00008EB880B102200214FEA8B0B0BF1010562
:1034C000554428460EF0C2FA2F4A0AEB0B039344E8
:1034D0001A460BF114015BF8040B8B4542F8040B00
:1034E000F9D1142202FB04A2518A284A32F81400AE
:1034F000884259D022F8141003F11401244A53F8D9
:10350000040B8B4242F8040BF9D14FF4027003F024
:10351000D9FF204B33F81430002B45D11E4B05F159
:10352000100203EB0413023355F8041B954243F8D1
:10353000041BF9D138E000BF4C120020EE3701081F
:10354000E90900202C120020489B00203E3401088D
:10355000524201088234010876420108784101088C
:103560009A420108B1420108A81D0020E809002084
:10357000DD410108FD42010808430108430D002018
:103580000016002028160020301A0020C81900203C
:10359000981E002078170020F21E00205C0F0020EB
:1035A000680D0020B01600201422182308EB4808EC
:1035B000DFF814C1634302FB04AA09EB030509F811
:1035C0000340BAF8122009EBC8096E610126EA80AF
:1035D0000422019B6A716E70AB70B9E80F00ACE811
:1035E0000F0099E803008CE8030040F2022003F08A
:1035F00069FF0023009A6B702A4B2B4943F8242063
:103600000C232A4A002F45D0009D03FB04222848A2
:10361000556040F8245056700E554FF4807125487F
:1036200008F015FC20E007EB08039B6815E601F1A4
:103630003002695C6A4402F8251C16E601F130028A
:10364000695C6A4402F8251C44E60AEB84041A48C3
:10365000D4F89C110EF002FA314618480EF0FEF92B
:10366000494617480EF0FAF90DB0BDEC028BBDE8E3
:10367000F08F0AEB830A1348DAF804100EF0EEF923
:1036800031460E480EF0EAF95946EAE7064647E6A3
:103690000122ECE60F5503FB0424009B6770A36036
:1036A000BBE700BFD01C0020A0160020B4110020F2
:1036B00078160020001C0240C9420108603501084C
:1036C0006F350108E74201088C1D00202DE9F04FFD
:1036D0000F4605461446053F2DED028B83B008EEDC
:1036E000103A07F0D7F80646B9B2284605F098FB1D
:1036F0008046EA1920210020FCF78CFF8045074610
:1037000014D0A64AA64802EB8404D4F89C110EF00B
:10371000A5F93946A3480EF0A1F94146A24803B0E5
:10372000BDEC028BBDE8F04F0EF098B99F4B6A1CC0
:103730001021002043F824604FF00C0A9C4B4FEA04
:10374000041BDFF8B08243F82460FCF763FF994B59
:1037500008EB0419EA1C0AFB043A1021AAF8060037
:103760000020FCF757FF6A1DAAF80400082100207A
:10377000FCF750FFAA1D082189F802000020FCF781
:1037800049FFEA1D082189F801000020FCF742FFEB
:1037900010218AF8020005F108020020FCF73AFF28
:1037A00085491FFA80FA8548A9F804A0FCF748FD6E
:1037B00018B94AF0080AA9F804A008EB0B039B8883
:1037C0009B0640D54FF0060A05F10A0208210020A9
:1037D000FCF720FF0AFB04FA794B05F10B020821E4
:1037E00003EB0A0989F805000020FCF713FF05F137
:1037F0000C02082189F804000020FCF70BFF05F1FA
:103800000D02082189F803000020FCF703FF6C4B30
:1038100005F10E02082103F80A000020FCF7FAFE69
:1038200005F10F02082189F801000020FCF7F2FEE3
:1038300089F802002046FEF7EDFE624B002800F0FA
:10384000A28000221A55D84418EE101A20460FFA0A
:1038500084FBB8F804A0FEF76BFA0AF00808CAF374
:10386000C00AB8F1000F4FD00BEB8B03DFF8889143
:10387000102200219B00581C019309EB00052846EB
:103880000EF0E4F8019B504909EB03020B4411468A
:1038900003F1140053F804CB834241F804CBF9D16F
:1038A000142303FB0493598A484B33F814008842CD
:1038B0002AD023F814101346454A03F1140153F893
:1038C000040B8B4242F8040BF9D14FF4027003F061
:1038D000F9FD18223F4B02FB0433142202FB04992A
:1038E000B9F81220DA803C4B33F8143063B93B4B03
:1038F000284605F1100203EB0413023350F8041BB1
:10390000904243F8041BF9D11823324D0BEB4B0BBB
:1039100006226343DFF8E4C005EB0309EC5405EB32
:10392000CB05C9F81470012789F8052089F80170C2
:1039300089F802A00FCDACE80F0095E803008CE8F1
:10394000030040F2022003F0BDFD0023244A89F861
:103950000130244B43F82460234BB8F1000F14D0FE
:103960001F550C23214941F8246003FB0424677090
:1039700066604FF480711E4803B0BDEC028BBDE859
:10398000F04F08F064BA01225CE703F804800C23CE
:1039900003FB0424A66084F80180EAE7E80900201C
:1039A00013430108603501086F3501080016002037
:1039B00028160020E40E0020EE370108E909002057
:1039C000680D0020430D0020301A0020C819002087
:1039D000981E0020A81D002078170020F21E00204D
:1039E000B4110020D01C0020A01600207816002062
:1039F000001C02404C120020B01600208C1D00203C
:103A00002DE9F8430026154FDFF85490DFF8548075
:103A1000F4B297F82030A34201D8BDE8F8830C2512
:103A20002046FDF777FB05FB0495686803F016FA5E
:103A300004F18A0357F8233098420DD96B78012B93
:103A40000AD158F824206B689A4205D000236B7085
:103A500006F020FF48F824000136D9E7E8090020E5
:103A6000B4110020281900202DE9F0472E492F48D5
:103A7000FCF7E6FB28B12E4E306803F0EFF9C828BA
:103A80004BD8BDE8F08718F804302A49012B2A4D9D
:103A90000ED12A4B1B5D5BB914236343EA180B4418
:103AA00002F1140052F804CB824243F804CBF9D15E
:103AB0001423634301EB03091D44B9F812206B8AF8
:103AC0009A4227D01E4B53F8240003F0C7F9B0F5F3
:103AD0007A7F13D307EB84031A48D3F89C110DF0B7
:103AE000BDFFB9F8121018480DF0B8FF698A1748E1
:103AF0000DF0B4FF164B012223F814200AF1010A3D
:103B000097F820305FFA8AF4A342BCD806F0C2FED0
:103B10003060B6E70E4B0022EEE74FF0000A0D4F83
:103B2000DFF83480ECE700BFEE370108E909002038
:103B3000500D0020B0160020E8170020A01600202D
:103B400050160020314301083B4301084943010856
:103B500078170020E8090020B417002070B504464B
:103B600006F098FE114A1823114D03FB042399789F
:103B7000104B012912D1104E295546F824000C266D
:103B800006FB043358605970182303FB0422537852
:103B9000012B04BF094B43F8240070BD00212955B7
:103BA0000C2505FB043398605970EDE7F81A0020E6
:103BB000B4170020B01800208C170020C017002078
:103BC000084B034410B593F82D300446022B04D063
:103BD000FDF732FA2046FDF79DFA2046BDE8104079
:103BE000FFF7BCBFE80900202DE9F74F06460F4656
:103BF00006F050FE8F4B80461B78DBB18E4DF21CD9
:103C000010210020FCF706FD95F820101FFA80FA1D
:103C100005F5CE7200235FFA83F949451CD8874B1E
:103C20001B78012B15D15146854803B0BDE8F04FF4
:103C30000DF014BF06F02EFE42F20F739842DDD94C
:103C400080480DF0A7FF80498048FCF7F9FA00286A
:103C5000D4D003B0BDE8F08F52F8040B1C460133FA
:103C60005045D8D104F1700B1021721C002005EBD7
:103C70008B0BFCF7CFFCDBF8043081B28B4210D009
:103C8000734801910DF086FF019972480DF0E6FE30
:103C9000DBF804205146704803B0BDE8F04F0DF04A
:103CA000DDBE6E4B1A68D2061ED51B794B451BD163
:103CB0006B4801910DF06EFF01996A480DF0CEFE40
:103CC00040F24D11684895F820A00DF0C7FE40F273
:103CD0004D1195F82030534508D8644801910DF0F6
:103CE00059FF01996248A0E7CA46F2E7534BDFF853
:103CF000C0B11B78012B0FD11BF80410012908D08B
:103D0000022964D02B1993F82D30022B61D1594828
:103D100000E059480DF03EFF584B1BF8042053F8C3
:103D2000241091420AD05649564841F824805649F9
:103D300043F8242041F824800DF02CFF1BF80420C8
:103D4000524BDFF870B11A555BF8240003F086F887
:103D500004F18A0355F8233098420ED3484B05EB03
:103D600084054B4843F82480474BD5F89C114BF809
:103D7000248043F824800DF071FE464B81220021FF
:103D80004BF8248018460DF061FE3A46FFB23146EA
:103D90000DF034FE0821F21D80F880700020FCF741
:103DA00039FC18223C4B0546484602FB04330122ED
:103DB000DA703A4B43F82480FFF702FFE9B24B1E5A
:103DC000052B34D8DFE803F009121B21332A3448CD
:103DD000A0E734480DF042FE9EE753464A46394676
:103DE000304603B0BDE8F04FFEF764BC53464A4688
:103DF0003946304603B0BDE8F04FFEF787BE2A488B
:103E000003B0BDE8F04F0DF0C5BE53464A463946F3
:103E1000304603B0BDE8F04FFFF7DEB953464A46DF
:103E20003946304603B0BDE8F04FFFF74FBC1F489E
:103E3000FBE600BF00000020E8090020DE090020AA
:103E40009843010858430108EE370108E9090020AA
:103E5000D4430108F0430108124401082C12002049
:103E60004A4401086B440108794401088744010869
:103E7000BB440108F6440108D84401087819002021
:103E8000001600202C4501082816002000130020F1
:103E900042450108E81B0020A81D0020D81500207D
:103EA000E74401080B4501085E4501087F4501080C
:103EB000F81900205019002070B50024A0B00D465C
:103EC0007C220646214601A80094ADB20DF0BEFD4D
:103ED000224623469D4291B204D86846FFF784FEED
:103EE00020B070BDF15C20A8F02910FA82F002F138
:103EF000010202BF01339BB2F15C03F1010308BF71
:103F000061F00F019BB200F8801CE3E710B50024BC
:103F1000A0B07C22214601A800940DF097FD03F08B
:103F200007F908B920B010BD03F00EF9F42802D04B
:103F3000F62809D094B104F18002631C0DEB020451
:103F400004F8800CDCB2EAE7611C04F1800311F094
:103F5000FF010DEB030404F8800C01D10024DEE71F
:103F60000F29DFD96846FFF7A7FFDBE710B500246C
:103F7000A0B07C22214601A800940DF067FD1B4BE8
:103F800093F822309BB11A4B186802F067FF132890
:103F90000DD9032006F08CFA48B1032006F09CFAF4
:103FA0007E2C06D98022214612480DF057FD20B004
:103FB00010BDF42803D0F6280AD0002CE9D004F173
:103FC0008002631C0DEB020404F8800CDCB2E0E715
:103FD000611C04F18003C9B20DEB03040F2904F83E
:103FE000800CE4D96846FFF767FFE0E7E8090020A6
:103FF000D4A800209B4501082DE9F8431D491E481F
:10400000FCF71EF978BBBDE8F88358F8240002F0ED
:1040100025FF04F19E0356F8233098421CD958F826
:10402000243059F824209A4216D049F8243006EB5F
:1040300084031248D3F89C110DF010FD104B0022A0
:10404000104D1A55182303FB0455286902F006FF8A
:1040500028612046FFF782FD0137FCB296F8203038
:10406000A342D2D8CFE70027074EDFF82080DFF841
:104070002090F2E7EE370108E9090020C445010865
:10408000A0160020A81D0020E809002078160020B6
:10409000A019002038B5134D286802F0DFFEB0F5F6
:1040A0007A7F1ED9104C1421104B226801FB023379
:1040B0000F4A591853F8040B8B4242F8040BF9D1FC
:1040C0004FF4027003F0FEF923680A4A013392F8B4
:1040D00020202360934204BF0023236006F0DAFB14
:1040E000286038BD2C1A0020A41D0020B016002026
:1040F000981E0020E80900201C4D1D4C08B50AF050
:1041000059FB284608F057FA05F03EF803F0D2FBB9
:10411000FCF7BCFBFFF7FAFEFFF728FFFDF726F9D7
:10412000FDF79CF8FDF7D2F8FFF766FFFFF768FC94
:10413000FEF7F2F9FEF796F9FEF726FA01F0D8F944
:10414000FFF792FCFFF7A6FF05F0A2FE23784BB124
:10415000084B0322054C1A7005F01AFE204608F0A1
:104160002AFAF9E706F040FAC9E700BF389B0020B9
:10417000DD090020320D0020154B5A6F002A1ADB92
:104180005A6F520019D45A6F910018D45A6FD20046
:1041900017D45A6F110116D45A6F520115D45B6FA0
:1041A00013F0007F14BF07200020094A536F43F02B
:1041B0008073536770470120F7E70220F5E703207B
:1041C000F3E70420F1E70520EFE70620EDE700BF65
:1041D0000038024007289ABF024B53F820000248DB
:1041E000704700BF9C460108E44501082DE9F041F5
:1041F000194CA06802F032FE184BD3F834239042D9
:1042000027D3B3F828331427154EDD085B07DFF8F2
:10421000588018BF013506F03DFBA060002411480E
:104220000DF0B8FCAC4204D30A20BDE8F0410DF01B
:104230002DBC3CB1B4FBF7F307FB134313B90A20C1
:104240000DF024FC16F8011B404601340DF006FC6D
:10425000E8E7BDE8F08100BFB8250020E8090020AC
:10426000C8250020BC4601084C42010838B53C4C2A
:10427000606802F0F3FD3B4905463B48FBF7E0FF71
:10428000002850D0394AB2F82633D2F82C134B43C9
:104290009D420AD3364960680968884205D035498D
:1042A000487892F82113884207D8217800293BD01A
:1042B0003148D0F8800000284FD021782F480DF0E9
:1042C000CDFB23782C48D9074FF0000144BF23F0E1
:1042D0000103237023789A074FF0840244BF23F030
:1042E000020323700DF0B2FB3022002124480DF0B0
:1042F000ADFB8422002123480DF0A8FB0023224AB5
:104300002248C2E900331B4AC2E90033204AC2E90D
:1043100000330DF03FFC6268154B1A601D4A13888C
:1043200043F00103138038BD9D420CD8104B6068E8
:104330001B68984205D00F4B587892F82133984269
:1043400006D90029EFD10C4BD3F88030002BEAD0EE
:10435000104A138823F00103E4E79D42E6D9E2E71F
:10436000B8250020EE370108E9090020E8090020FF
:10437000802300207C26002010240020D046010845
:10438000C8250020F82500208426002000470108C9
:104390008C260020E409002038B51B4C1B4D6068BA
:1043A00002F05CFDB5F82633D5F82C235343984230
:1043B00004D3174B1A780AB100221A70606802F011
:1043C0004DFDD5F8383398420BD9124B6268196805
:1043D0008A4206D01A6040F20220BDE8384003F05D
:1043E00071B80D4D286802F039FDB0F57A7F09D912
:1043F000606802F033FDB0F5FA6F03D906F04AFAAF
:104400002860E8E738BD00BFB8250020E809002093
:1044100084260020A0260020A4260020F8B55D4CAC
:104420005D4D20682B6898420AD006F033FA206070
:104430005A4C5B4A23785BBB137803F0FE032AE0F7
:1044400002F00CFDB0F57A7FEFD2286802F006FD8D
:10445000544BD3F83C33984219D9534B28681A6807
:10446000824214D0186002F0F9FC4FF47A71B0FB6C
:10447000F1F14E480DF0F2FA29684D480DF0EEFAD0
:104480004C4A137899075CBF43F002031370F8BDE0
:10449000137843F00103484E317841B143F00203F1
:1044A0001370032B31D8DFE803F0724C056B03F077
:1044B000FD03F5E7616873688B423AD03F4F3B7864
:1044C000012B22D13E480DF0C9FA71683D480DF02C
:1044D000C5FA00233C483B700DF05CFB84223B494D
:1044E0003B480DF08BFA3A4A3A4E02F1300C17462F
:1044F0001346083603CB634546F8080C46F8041CFF
:104500001A46F5D1D7F880306360264B627893F86D
:1045100021339A4299D3274F3B7813F0010694D167
:104520002D480DF037FB3B78667043F001033B707C
:104530008BE700231F4A6370137823F00103137085
:10454000E3E7726863689A4212D024480DF022FBB8
:1045500063780133DBB2022B6370D6D91C4BD3F8DE
:104560008030002BD1D04FF4027002F0ABFFCCE7CB
:10457000104A137823F00103137000236370C4E71B
:10458000726863689A42F3D014480DF003FB6378B5
:104590000133F3E7942600208423002084260020A2
:1045A0007D230020E809002098260020FA37010822
:1045B000B3470108B82500207C2600209C26002057
:1045C000174701082E4701084547010888230020A6
:1045D00010240020C82500209C47010878470108C6
:1045E00038B5204D204C28460DF0D4FAB4F82213EB
:1045F0001E480DF033FAB4F824131D480DF02EFABE
:1046000094F820131B480DF029FAD4F830131A48F7
:104610000DF024FAD4F8381318480DF01FFAD4F826
:104620003C1317480DF01AFA94F8211315480DF0B1
:1046300015FAB4F8281314480DF010FAD4F82C1316
:1046400012480DF00BFAB4F8261311480DF006FAD3
:10465000D4F834130F480DF001FA2846BDE838406D
:104660000DF098BAA73C0108E8090020D9470108D5
:10467000FC4701081F480108424801086648010834
:104680008A480108AE480108D1480108F4480108E9
:10469000184901083B49010810B52423104C114961
:1046A0002370012304F1320063703023A370402390
:1046B000E370C02323714E2363712623A3710DF091
:1046C000A4FB094904F164000DF09FFB074904F1C4
:1046D00096000DF09AFB064B04221A7010BD00BF25
:1046E000951F002068320108CC320108D63201083B
:1046F000941F00200D4B2DE9F041074693F80080F0
:104700000B4C0026F5B2A84501D8FF250BE020464A
:104710000136FBF79FFD21460246384632340DF044
:104720005DF90028EED12846BDE8F081941F0020F5
:10473000951F002030B500259BB06022294602A8B5
:1047400001950DF083F9664B186802F087FB092884
:104750000AD81BB030BD002005F0BEFE04F168038E
:104760000DEB030404F8640C0020ECB205F0A0FE8D
:1047700001350028EFD1002CEBD004F1680301A92A
:104780006B4403F8640C57480DF068F9214601A802
:10479000FFF7B0FF0C2800F2A080DFE800F0070E62
:1047A0002A37424C56606A747E8994004E4B01222F
:1047B0004E481A700DF0EEF9CBE704F167034C494F
:1047C0004C480DEB030414F8642C303A0DF046F914
:1047D00014F8643C303BDBB2022B06D8464A137017
:1047E00040F2052002F06EFEB3E744480DF0D2F926
:1047F000F6E7434943480DF031F943480DF0CAF953
:10480000424A136843F001031360E9E740493D4819
:104810000DF024F93F480DF0BDF93C4B02221A601F
:10482000DEE73D4937480DF019F93C480DF0B2F983
:10483000364B0422F3E73A4932480DF00FF9394874
:104840000DF0A8F9314B0822E9E737492D480DF062
:1048500005F936480DF09EF92C4B1022DFE734495C
:1048600028480DF0FBF833480DF094F9274B20222F
:10487000D5E7314931480DF0F1F831480DF08AF9AA
:10488000224B4022CBE72F491E480DF0E7F82E4877
:104890000DF080F91D4B8022C1E72C4919480DF01D
:1048A000DDF82B480DF076F9184B4FF48072B6E71F
:1048B000284914480DF0D2F827480DF06BF9134B36
:1048C0004FF40072ABE725490E480DF0C7F82448B5
:1048D0000DF060F90D4B0022A1E708486AE700BF20
:1048E00050A70020DB320108DD090020F132010869
:1048F000C71F002031330108DE09002043330108BF
:10490000F91F0020C3330108525501084C33002021
:104910002B200020D05501085D2000200E560108F4
:104920008F20002044560108C12000207C56010839
:10493000F32000207653010825210020D033010800
:104940005F49010857210020724901088921002090
:10495000E4540108BB2100208A490108ED21002010
:10496000A749010830B50024064D824201D82046EF
:1049700030BD0B5C01306340DBB255F8233083EA75
:104980001424F2E7404D01082DE9F0410027CCB096
:1049900004464FF49472394602A80DF057F801AD61
:1049A000264E532322460DF117002B7006F11601F7
:1049B0007388A5F80130B388A5F80330B3796B711B
:1049C000E223AB71B37A6B72D6F80B30CDF80E30B0
:1049D000B6F80F30ADF81230737C8DF81430B38A0E
:1049E000A5F811300DF00AF804F11300224606F183
:1049F0009601134E1FFA80F815FA80F00CF0FEFFB6
:104A0000294644443846A4B2E31E2F55A21C06345E
:104A1000A5F8073092B2A4B2FFF7A4FFA850BBB22A
:104A20009C4202D84CB0BDE8F08115F8011B01375B
:104A300096F8200305F074FDF1E700BF94240020F0
:104A4000E809002070B5FFF78DFF895804468842B9
:104A500008D005480DF002F8214604480CF0FEFF8E
:104A6000002070BD0120FCE7B1490108C8490108D8
:104A70002DE9F84381460F460026DFF8FC80394DCA
:104A8000484605F015FD0446002857D0484605F075
:104A900023FD98F80030013B042BF1D801A252F815
:104AA00023F000BFB94A0008C94A0008814A00083B
:104AB000E14A0008FF4A00085328E1D101232B8076
:104AC000022388F80030DBE72B88082B04D1092368
:104AD00038722B800423F4E7F85401332B80CFE79E
:104AE0002B880121FA1832F8026C1F4AF8540B4443
:104AF000118002222B801D4B1A800523E1E71A4A00
:104B00002C8813883855B34228D2013317499BB2F9
:104B10001380621CB3422A800A8802F101020A80D3
:104B2000AED1033C00260123A4B22E8088F80030C9
:104B3000042C06D834460E480DF02CF82046BDE86B
:104B4000F883224639463046FFF77CFF05460028A9
:104B5000F4D108482C460DF01DF8EFE7002601239C
:104B60002E80AEE7AA260020A8260020AC26002032
:104B7000E0490108E64901080B0000202DE9F04F4B
:104B80000024ADF53D7D4FF49472924F214672A8FA
:104B900071940CF05BFF7C22214609A808940CF06C
:104BA00055FF4FF4967271A997F82003FFF760FF45
:104BB000052805463AD971AEDFF83C924FF00A0855
:104BC00085480CF0E7FF013416F8011B4846A4B2F3
:104BD0000CF044FFA5421ED10A200CF057FF4FF401
:104BE0009272002128A80CF031FF9DF8C431BDF865
:104BF000C5818DF8A030B7F82433ADF8A4804345C3
:104C00001AD076480CF0C6FF4246B7F82413744811
:104C10000CF024FF0CE0B4FBF8F308FB13439BB249
:104C2000002BD0D10A200CF031FFCCE70028D6D1E0
:104C30000DF53D7DBDE8F08FBDF8C791B7F8223383
:104C4000ADF8A2904B4506D066480CF0A3FF4A464B
:104C5000B7F82213DBE79DF8C961AA2E8DF8A6608C
:104C600006D0BB2E04D031465F480CF0F7FEDFE7DC
:104C70009DF8CA11E1298DF8A71001D05B48F4E72F
:104C8000BDF8CB319DF8D5110593ADF8A8301129A9
:104C90009DF8CD318DF8B21006938DF8AA30DDF86D
:104CA000CE31CDF8AB30BDF8D231ADF8AF309DF894
:104CB000D4318DF8B13001D04D48D6E7BDF8D6518A
:104CC000B5F5806FADF8B45002D929464948CCE714
:104CD000B7F82813A94244D16B074FEAD5044BD14A
:104CE00008AF224676A90DF1B6000CF087FE76AB30
:104CF0003846002291B28C4241D8630004F114027C
:104D00000DF59B7A0DF5E27E9BB292B2D44603F18B
:104D1000150080B2511C89B2884237D103F1140BBF
:104D2000224608A90DF59B7004931FFA8BFB0CF02B
:104D300055FE049B079000283CD000252E4E2F489E
:104D40000CF028FFABB29C4226D800252A4E2C48F6
:104D50000CF020FFABB29C4225D82A480CF01AFF79
:104D600066E72A4628480CF079FE28492848FBF7D0
:104D700067FA0028B0D15BE70134A4B2B0E713F8BA
:104D8000011B0132C94300F8011BB3E71EF80220E2
:104D90000CF8012B0A46BDE71AF8011B3046013515
:104DA0000CF05CFECEE717F8011B304601350CF025
:104DB00055FECFE771A95A4612200493FFF7D2FDA2
:104DC00051F80B200746049B90426E9224D0014676
:104DD00010481DE7E8090020EE490108F8490108DC
:104DE0002A4A01084B4A0108784A0108AE4A0108DC
:104DF000E34A0108274B01084C420108B14B010866
:104E0000FD4B0108204C0108774B0108EE370108E3
:104E1000E9090020314C01081833DFF89CB1DFF8B4
:104E20009CA19BB2CB5AADF8BC3105F033FD28A94B
:104E30004FF49272CAF8040058460CF0DFFD4C4B58
:104E4000012220465F604B4F1A70FFF79DFD2246FE
:104E50000DF1B60138460CF0D1FDDBF81831DFF862
:104E600060B12246394604935846C7F880300CF0AA
:104E7000B5FD18B32246394658460CF0BFFD049BD9
:104E8000302207993C48CBF880300CF0DFFD2246F9
:104E9000394639480CF0B2FD05F0FCFCCAF80800B0
:104EA00036480CF077FE40F2022002F00BFB344B48
:104EB0005B681BB94FF4027002F004FB31480CF040
:104EC00069FE414630480CF0C9FD49462F484FF075
:104ED00000090CF0C3FD31462D480A260CF0BEFD3A
:104EE000E1212C480CF0BAFD05992B480CF0B6FDD9
:104EF00006992A480CF0B2FD9DF8B1309DF8AD201E
:104F000002939DF8B0309DF8AE1001939DF8AF303C
:104F1000234800939DF8AC300CF0A0FD11212148EE
:104F20000CF09CFD204F29462048124D0CF096FDB8
:104F3000DFF890801E480CF091FD1FFA89F39C4227
:104F400004D80A200CF0A2FD1A4807E743B1B3FBCE
:104F5000F6F206FB12339BB213B938460CF07EFD15
:104F600015F8011B404609F101090CF077FDE4E753
:104F70008426002010240020C8250020714C010840
:104F80007C260020884C0108AF4C0108B74C010872
:104F9000BF4C0108C84C0108D14C0108D94C01088C
:104FA000E14C0108034D0108284D01080C4D010892
:104FB000144D0108894C010894240020B8250020D4
:104FC000F82500204C420108134D144C08B504F09C
:104FD0005FFF02F06FFC04F0D7F8284607F0EBFA09
:104FE000FFF7CCFDFFF702F9FFF740F9FFF7D4F91F
:104FF000FFF714FAFFF79EFB23784BB1084B03220F
:10500000054C1A70204607F0D6FA04F0C1FEF9E705
:1050100005F0EAFADBE700BF389B0020DD0900203D
:10502000320D00202DE9F34707460C4690463B4ED3
:10503000DFF80491FDB2284605F03AFA48B34FF084
:10504000010A374889F800A007F0B5FA284605F0AC
:1050500043FA054605F0C8FA3278324B022A09D0E5
:10506000032A51D0524547D1242D45D125701A80AD
:1050700002223BE0242D36D0262D03D0052D37D13A
:10508000032233E01F880022BD1E1A802DB29542F4
:1050900004DA0026304602B0BDE8F08705F10108C9
:1050A00086F800A0625D294614F808301E48009377
:1050B00043460CF0D3FC2946204603F065FE064625
:1050C00038B114F808203EB2615D18480CF0C6FCF7
:1050D000E0E717480CF0C2FC14F80820615D1548A1
:1050E0000CF0BCFCD6E72570A3F800A0327003E0FA
:1050F0001A88A55401321A801A8842459AD301228F
:10510000327000221A8093E705F0FD02242A01D0B4
:10511000052DADD11A88A5540132A8E70D00002055
:10512000389B0020B026002040510108655101083D
:10513000775101086C510108380D0020F0B50023AB
:1051400085B0044640F2DB56ADF80C30154FCDE982
:1051500001338DF80610042124238DF807200DEB70
:1051600001008DF8043003F033FE26239DF809205A
:105170009DF808100C488DF80A300CF06FFC05F013
:1051800089FB0546284601F069FEB04206D9062291
:1051900001A9204605F0F6F905B0F0BD384607F044
:1051A0000AFAEFE7389B00208151010830B585B03D
:1051B00000240A22054601A9ADF80C40CDE90144BE
:1051C000FFF730FFA04216DD9DF80530F3B99DF8DA
:1051D0000640012C12D19DF80740012C16D10E4833
:1051E0000CF0D8FC022221462846FFF7A7FF05F065
:1051F00051FB0A4B1860204605B030BD022C05D18A
:105200009DF80730012B01D10548E9E70548002446
:105210000CF0C0FCEFE700BF9C510108340D0020EA
:10522000B2510108CA5101082DE9F84307460D465D
:105230009046344EDFF8E090FCB2204605F038F995
:1052400028B3204605F048F9044605F0CDF9484654
:1052500007F0B1F932782C4B022A09D0032A47D043
:10526000012A3DD1242C3BD12C701A80022231E03E
:10527000242C2CD0262C03D0052C2DD1032229E060
:105280001F880022BC1E1A8024B2944203DA002632
:105290003046BDE8F88301232146284604F1010881
:1052A000337003F071FD064638B115F808203EB2A0
:1052B000295D16480CF0D2FBEAE715480CF0CEFB4E
:1052C00015F80820295D13480CF0C8FBE0E7012120
:1052D0002C701980327003E01A88AC5401321A80A5
:1052E0001A884245A8D30122327000221A80A1E711
:1052F00004F0FD02242A01D0052CB7D11A88AC5441
:105300000132B2E70C000020AE260020DA5101087D
:105310007751010892510108389B0020030900F0E1
:105320000F0003EB830300EB4300C0B270470A2277
:10533000B0FBF2F302FB130000EB0310C0B27047A6
:10534000064B5A79092A06D9187928B1D878003835
:1053500018BF012070470020704700BFB226002010
:105360002DE9F041072386B04FF47A7100221E48E0
:105370000492CDF81320CDE9013104ABD021009384
:10538000012306F0C1FF9DF81080184A4046FFF740
:10539000C5FF9DF8117090703846FFF7BFFF9DF86C
:1053A000126050703046FFF7B9FF9DF8145010702E
:1053B0002846FFF7B3FF9DF81540D0702046FFF751
:1053C000ADFF9DF8161010710846FFF7A7FF084BB8
:1053D000507183F802805F701E70DD701C7159710E
:1053E00006B0BDE8F08100BF909A0020C2260020E0
:1053F000BC260020F0B587B0002605AF0496ADF8B6
:105400001460BE70FFF79CFF20B935480CF0C2FB5A
:1054100007B0F0BD33490124334B4FF47A758878D7
:105420001C70FFF784FF8DF810004878FFF77FFFAE
:105430008DF811000878FFF77AFF8DF81200C87810
:10544000FFF775FF8DF813000879FFF770FF8DF8EF
:1054500014004879D021FFF76AFF04AB32468DF87B
:105460001500009323462148CDE9014506F072FE60
:105470000DF111032246D021009323461B48CDE9AC
:10548000014506F067FE0DF112030222D0210093C0
:1054900023461648CDE9014506F05CFE0DF11303E5
:1054A0000422D021009323461048CDE9014506F09F
:1054B00051FE23460522D02100970C48CDE9014535
:1054C00006F048FE0DF115030622D0210093234675
:1054D0000648CDE9014506F03DFEFFF741FF97E79D
:1054E000EB510108B226002018130020909A0020EA
:1054F00010B5064C206801F0B1FCB0F57A7F04D3FA
:10550000FFF72EFF05F0C6F9206010BDB826002079
:1055100038B54B0801380024023B9BB29D1CA2B257
:10552000934201D801200BE010F8011F0134425DC5
:10553000D243D2B29142F2D002480CF08FFA00204E
:1055400038BD00BF0A520108F0B5C9000025064663
:105550004FF0010C8CB22B462846A9B28C4200D8E1
:10556000F0BDCF0801F00701072913D0F75D47FA16
:1055700001F1C90744BF175C0CFA03F103F1010301
:1055800048BF3943DBB248BF1154082B02BF01307A
:10559000002380B20135E0E72DE9F843314C324E6B
:1055A000606801F05BFCD6F81833984240D9218836
:1055B000DFF8D480DFF8D490B1F5807F98F8003020
:1055C00099F8002036D1012B3CD1012A34D127494A
:1055D00031F8042B26480CF011FAD6F81C33B9F830
:1055E0000220244F9A423D8839D3B8F802209342D2
:1055F00035D845F001054FF4007200211C480CF02D
:1056000025FAB6F8FE221C49D30852071B4A18BFD8
:1056100001331B483D801380FAF712FE28B16378EE
:105620001BB940F2191001F04DFF05F033F960602D
:10563000BDE8F883012B05D152B96378012B07D15E
:105640001049C5E7012A03D113B96378012BBED0F5
:105650004FF40072002106480CF0F8F9BDE725F080
:105660000105CEE7D82A0020E8090020F42A00200E
:1056700084480020E4090020EE3701088248002019
:10568000E9090020F82C0020CA2A00207E480020CA
:1056900010B50A4CA06801F0E1FB094BD3F80833C0
:1056A000984209D9074B002240F202205A7001F0BB
:1056B00009FF05F0EFF8A06010BD00BFD82A002058
:1056C000E80900207E48002038B5114B114DD868FC
:1056D000114C60B101F0C2FBD5F81433984206D9E1
:1056E000237823B10D480CF055FA00232370D5F828
:1056F0001C3362889A420AD9094A5288934206D2D8
:10570000237823B107480CF045FA0023237038BDF5
:10571000D82A0020E80900207E4800203F520108D6
:10572000CA2A00205C52010810B5074C206901F01C
:1057300095FBB0F57A7F06D94FF4027001F0C2FEF6
:1057400005F0A8F8206110BDD82A002010B5104C33
:10575000606901F083FBB0F5FA7F17D90D4B1B7818
:105760004BB90D4B1B78012B05D14FF401720B493E
:105770000B480CF043F9094B094A5B8852889B1A85
:1057800018BF0123237005F085F8606110BD00BFCC
:10579000D82A00207E480020CA2A0020F82C0020A9
:1057A000F42A002010B5114C6378012B01D103F0CD
:1057B00001FDA06901F052FB0D4BD3F80C33984268
:1057C00012D30C4BA0691A6890420DD000221860C9
:1057D000627001F043FB4FF47A71BDE81040B0FBFA
:1057E000F1F105480CF03AB910BD00BFD82A0020ED
:1057F000E8090020C42A0020FA37010810B5242344
:10580000294C2A492370012304F1320063703023AC
:10581000A3704023E370C02323714E2363712623BA
:10582000A3710CF0F2FA224904F164000CF0EDFAD5
:10583000204904F196000CF0E8FA1F4904F1C80071
:105840000CF0E3FA1D4904F1FA000CF0DEFA1C49F1
:1058500004F596700CF0D9FA1A4904F5AF700CF003
:10586000D4FA194904F5C8700CF0CFFA174904F5B9
:10587000E1700CF0CAFA164904F5FA700CF0C5FA9A
:10588000144904F226200CF0C0FA134904F51670EE
:105890000CF0BBFA114904F28A200CF0B6FA104B56
:1058A0000E221A7010BD00BFCF26002068320108FA
:1058B00052550108D05501080E56010844560108FA
:1058C0007C5601087F5201085F49010872490108AE
:1058D000E45401088A490108CC320108D632010893
:1058E000CE2600200D4B2DE9F041074693F80080AD
:1058F0000B4C0026F5B2A84501D8FF250BE0204649
:105900000136FAF7A7FC21460246384632340CF03D
:1059100065F80028EED12846BDE8F081CE260020AB
:10592000CF26002030B500259BB06022294602A872
:1059300001950CF08BF8664B186801F08FFA092876
:105940000AD81BB030BD002004F0C6FD04F1680386
:105950000DEB030404F8640C0020ECB204F0A8FD85
:1059600001350028EFD1002CEBD004F1680301A928
:105970006B4403F8640C57480CF070F8214601A8FA
:10598000FFF7B0FF0C2800F2A080DFE800F0070E60
:105990002A37424C56606A747E8994004E4B01222D
:1059A0004E481A700CF0F6F8CBE704F167034C4947
:1059B0004C480DEB030414F8642C303A0CF04EF80C
:1059C00014F8643C303BDBB2022B06D8464A137015
:1059D00040F2052001F076FDB3E744480CF0DAF818
:1059E000F6E7434943480CF039F843480CF0D2F845
:1059F000424A136843F001031360E9E740493D4818
:105A00000CF02CF83F480CF0C5F83C4B02221A6011
:105A1000DEE73D4937480CF021F83C480CF0BAF875
:105A2000364B0422F3E73A4932480CF017F839486C
:105A30000CF0B0F8314B0822E9E737492D480CF05B
:105A40000DF836480CF0A6F82C4B1022DFE734494D
:105A500028480CF003F833480CF09CF8274B202220
:105A6000D5E7314931480BF0F9FF31480CF092F895
:105A7000224B4022CBE72F491E480BF0EFFF2E4868
:105A80000CF088F81D4B8022C1E72C4919480BF017
:105A9000E5FF2B480CF07EF8184B4FF48072B6E708
:105AA000284914480BF0DAFF27480CF073F8134B21
:105AB0004FF40072ABE725490E480BF0CFFF2448A6
:105AC0000CF068F80D4B0022A1E708486AE700BF18
:105AD00050A70020DB320108DD090020F132010867
