:020000040800F2
:100000000000082035A8000829A100082BA100083D
:100010002DA100082FA1000831A100080000000058
:1000200000000000000000000000000033A10008F4
:1000300035A100080000000037A1000839A1000820
:1000400085A8000885A8000885A8000885A80008DC
:1000500085A8000885A800083DA1000843A1000864
:1000600085A8000885A8000885A8000885A80008BC
:1000700085A8000885A8000885A8000885A80008AC
:1000800085A8000885A8000885A8000885A800089C
:1000900085A8000885A8000885A8000885A800088C
:1000A00085A8000885A8000885A8000885A800087C
:1000B00085A8000885A8000849A1000885A80008AF
:1000C00085A8000885A8000885A8000885A800085C
:1000D00085A8000855A1000885A8000885A8000883
:1000E00085A8000885A8000885A8000885A800083C
:1000F00085A8000885A8000885A8000885A800082C
:1001000085A8000885A8000861A1000885A8000846
:100110006DA1000879A1000885A1000891A100083F
:1001200085A8000885A8000885A8000885A80008FB
:1001300085A800089DA1000885A8000885A80008DA
:10014000A9A10008B5A1000885A8000885A8000895
:1001500085A8000885A8000885A8000885A80008CB
:1001600085A8000885A8000885A8000885A80008BB
:1001700085A8000885A8000885A8000800000000E0
:1001800085A8000885A80008B9A1000885A800086E
:1001900085A8000885A8000885A8000885A800088B
:1001A00085A8000885A8000885A8000885A800087B
:1001B00085A8000885A8000885A8000885A800086B
:1001C00085A8000885A8000885A8000885A800085B
:1001D00085A8000885A8000885A8000885A800084B
:1001E00085A80008C5A10008D1A1000885A80008BD
:0801F00085A8000885A800089D
:1002000010B5054C237833B9044B13B10448AFF350
:1002100000800123237010BDD801002000000000E1
:10022000AC33010808B5034B1BB103490348AFF3D6
:10023000008008BD00000000DC010020AC33010894
:1002400010F8012B11F8013B012A28BF9A42F7D080
:10025000D01A7047034613F8012B002AFBD1181A55
:10026000013870470000000000000000000000009E
:1002700001F0FF01102A2BDB10F0070F08D010F857
:10028000013B013A8B422DD010F0070F42B3F6D15B
:10029000F0B441EA012141EA014122F007047FF074
:1002A00000070023F0E80256083C85EA010586EACB
:1002B000010685FA47F5A3FA87F586FA47F6A5FA07
:1002C00087F68EB9EED1F0BC01F0FF0102F0070213
:1002D00032B110F8013B013A83EA010313B1F8D1BE
:1002E0000020704701387047002D06BF354603389F
:1002F000073815F0010F07D1013015F4807F02BFD8
:10030000013015F4C03F0130F0BC0138704700BF28
:1003100053B94AB9002908BF00281CBF4FF0FF316C
:100320004FF0FF3000F074B9ADF1080C6DE904CE68
:1003300000F006F8DDF804E0DDE9022304B07047C0
:100340002DE9F047089D04468E46002B4DD18A4288
:10035000944669D9B2FA82F252B101FA02F3C2F1BB
:10036000200120FA01F10CFA02FC41EA030E94404C
:100370004FEA1C48210CBEFBF8F61FFA8CF708FB6D
:1003800016E341EA034306FB07F199420AD91CEB45
:10039000030306F1FF3080F01F81994240F21C8177
:1003A000023E63445B1AA4B2B3FBF8F008FB1033BF
:1003B00044EA034400FB07F7A7420AD91CEB0404F4
:1003C00000F1FF3380F00A81A74240F207816444C4
:1003D000023840EA0640E41B00261DB1D440002349
:1003E000C5E900433146BDE8F0878B4209D9002DAD
:1003F00000F0EF800026C5E9000130463146BDE837
:10040000F087B3FA83F6002E4AD18B4202D38242A0
:1004100000F2F980841A61EB030301209E46002D4F
:10042000E0D0C5E9004EDDE702B9FFDEB2FA82F2A4
:10043000002A40F09280A1EB0C014FEA1C471FFA02
:100440008CFE0126200CB1FBF7F307FB131140EAE9
:1004500001410EFB03F0884208D91CEB010103F1B6
:10046000FF3802D2884200F2CB804346091AA4B278
:10047000B1FBF7F007FB101144EA01440EFB00FE4C
:10048000A64508D91CEB040400F1FF3102D2A645B1
:1004900000F2BB800846A4EB0E0440EA03409CE750
:1004A000C6F12007B34022FA07FC4CEA030C20FAFD
:1004B00007F401FA06F31C43F9404FEA1C4900FA1D
:1004C00006F3B1FBF9F8200C1FFA8CFE09FB18119A
:1004D00040EA014108FB0EF0884202FA06F20BD90D
:1004E0001CEB010108F1FF3A80F08880884240F25D
:1004F0008580A8F102086144091AA4B2B1FBF9F0A1
:1005000009FB101144EA014100FB0EFE8E4508D99B
:100510001CEB010100F1FF346CD28E456AD9023820
:10052000614440EA0840A0FB0294A1EB0E01A14205
:10053000C846A64656D353D05DB1B3EB080261EB73
:100540000E0101FA07F722FA06F3F1401F43C5E94D
:10055000007100263146BDE8F087C2F12003D84083
:100560000CFA02FC21FA03F3914001434FEA1C47C5
:100570001FFA8CFEB3FBF7F007FB10360B0C43EAB7
:10058000064300FB0EF69E4204FA02F408D91CEB67
:10059000030300F1FF382FD29E422DD90238634465
:1005A0009B1B89B2B3FBF7F607FB163341EA034105
:1005B00006FB0EF38B4208D91CEB010106F1FF3854
:1005C00016D28B4214D9023E6144C91A46EA00464B
:1005D00038E72E46284605E70646E3E61846F8E6DD
:1005E0004B45A9D2B9EB020864EB0C0E0138A3E726
:1005F0004646EAE7204694E74046D1E7D0467BE707
:10060000023B614432E7304609E76444023842E77E
:10061000704700BF10B54418A4B2082C12D8C0F11E
:100620000700002380B2127842EA0322C1F10103DD
:100630001844134B80B253F821308340134023FAFF
:1006400000F010BD102C08D8C0F10F00002480B2BB
:1006500012F8013B43EA0423E5E7182C137887BF1F
:1006600001321C46C0F11700002488BFC0F11F00F2
:1006700012F8013B94BF80B280B243EA0424E7E75A
:10068000C8330108F0B54518ADB2082D24D8C0F123
:10069000070014460125002680B22478032D44EA81
:1006A0000624214E56F82160C1F10101084403EAF5
:1006B000060380B206FA00F103FA00F024EA010111
:1006C00040EA01002CD0042D27D0022D02D1030ACC
:1006D00002F8013B1070F0BD102D0AD8C0F10F00D8
:1006E00014460225002780B214F8016B46EA07265B
:1006F000D3E7182D17780AD8C0F117001446032540
:10070000002780B214F8016B46EA0727ECE7C0F136
:100710001F00541C042580B2F4E7030E02F8013BCD
:10072000030C02F8013BD2E7C833010810B52423BB
:100730001C4C1D492370012304F1320063703023E7
:10074000A3704023E370C02323714E2363712623DB
:10075000A37111F04CFC154904F1640011F047FC41
:10076000134904F1960011F042FC124904F1C8004B
:1007700011F03DFC104904F1FA0011F038FC0F496A
:1007800004F5967011F033FC0D4904F5AF7011F0CB
:100790002EFC0C4904F5C87011F029FC0A4B092203
:1007A0001A7010BDF50100204C34010857340108BF
:1007B00067340108773401088A3401089D34010840
:1007C000B0340108BA340108F401002007B54FF62F
:1007D000FF7301A90190012207480DF02AFF074B82
:1007E0000222186800238068194611F00BFB01985B
:1007F00003B05DF804FB00BF84B900203400002082
:1008000010B508210E480BF015FC1021B0FA80F449
:100810000B480BF00FFC00284FEA54144FF4005122
:100820000CBF02200020044306480BF003FC002804
:10083000054B0CBF0420002004431C7010BD00BFFA
:100840000028024000200240240D00200D4B2DE91D
:10085000F041074693F800800B4C0026F5B2A845FE
:1008600001D8FF250BE020460136FFF7F3FC2146B7
:1008700002463846323411F0A3F90028EED128465A
:10088000BDE8F081F4010020F501002030B500251D
:100890009BB06022294602A8019511F0C9F96B4B63
:1008A000186806F0CDFB09280AD81BB030BD00201F
:1008B00009F010FF04F168030DEB030404F8640C65
:1008C0000020ECB209F0F2FE01350028EFD1002C37
:1008D000EBD004F1680301A90DEB030505F8640CE6
:1008E0005B4811F0ADF9214601A8FFF7AFFF0928D9
:1008F00000F2A980DFE800F0050C284359718191CE
:100900009A9F544B012254481A7011F035FACCE7E3
:1009100004F16703514952480DEB030414F8642CA9
:10092000303A11F08DF914F8643C303BDBB2012B06
:1009300006D84C4A137040F2052006F0D3FEB4E707
:10094000494811F019FAF6E704F1670347494848A6
:100950000DEB030414F8642C303A11F071F945489A
:1009600011F00AFA444B14F8642C1968303A41F03B
:1009700010011A711960414811F062F9DBE704F1C6
:1009800067033F493A480DEB030414F8642C303AEE
:1009900011F056F93B4811F0EFF914F8643C364A6F
:1009A0002021303B11601371E5E704F167033649FC
:1009B0002F480DEB030414F8642C303A11F040F981
:1009C000324811F0D9F92C4B1A6842F400721A60BF
:1009D00014F8642C303A1A71ADE704F167032C491E
:1009E00023480DEB030414F8642C303A11F028F975
:1009F000214B1A6842F00102E9E704F16703254937
:100A00001B480DEB030414F8642C303A11F018F96C
:100A1000194B1A6842F00202D9E71F491F4811F02A
:100A20000FF90022144B1A60FF22D4E71C491D481D
:100A300011F006F939E715F8652C1B49303A0C48D6
:100A400011F0FEF831E708485FE700BFECA700208F
:100A5000BF340108DD090020D53401082702002039
:100A600015350108DE09002027350108590200204C
:100A7000413501085A350108201200206935010866
:100A80008B0200207C350108BD0200208C35010856
:100A9000EF0200202103002053030020A7350108A6
:100AA00085030020B4350108B70300202DE9F04F7D
:100AB000B5B00E461446814609F0EAFF00210090C9
:100AC0007C2215A8149111F0B3F80E49422303FBC0
:100AD0000413B3F84030B3421AD104EB4413324646
:100AE000484601EB430111F06BF888B9064A074804
:100AF00002EB8404D4F89C1111F0A2F835B0BDE8E3
:100B0000F08F00BF0E130020E4090020C935010852
:100B1000053E20210020CF4F09EB060B5A46FFF778
:100B200079FDCD4B01901A6812F0010F00F0E081C1
:100B30001B79A34240F0DC81C84818250CF0F2FB79
:100B4000C74BB0FBF3F8C8EB0848A0EB0828C54832
:100B500011F012F905FB0473C348996811F070F89D
:100B60004146C24811F06CF8434614AA29460020B9
:100B7000FFF788FD0023D9B20133B142C0F2BE8134
:100B8000033114A808F04AFA019B804609F1050ACE
:100B9000834248D0524608210020FFF73BFD05461E
:100BA000002840F0CA81B24811F0E6F880222946B8
:100BB00014A811F03DF8182114AA284601FB04736B
:100BC0009B680133FFF75EFDE9B201358E4200F309
:100BD0009D81033114A808F021FA05465A462021C8
:100BE0000020FFF717FD8542064640F09781182642
:100BF000A04811F0C1F8294666439F4811F020F83B
:100C00009E4837449E4DB96805EB041511F018F85D
:100C1000B9689C480131B960A96011F011F89A4B8C
:100C20001E44AB68B36009F1010210210020FFF7F8
:100C3000F1FCADF8480081B2944811F001F809F1D7
:100C4000030210210020FFF7E5FCADF8460081B259
:100C50008F4810F0F5FF524608210020FFF7DAFC1C
:100C600009F1060208210020FFF7D4FC09F1070270
:100C700008210020FFF7CEFC09F108028DF82200C0
:100C800010210020FFF7C6FC820683B2019340F1D9
:100C9000628109F10A02082100201027FFF7BAFC3F
:100CA00009F10B0208210020FFF7B4FC09F10C0246
:100CB00008210020FFF7AEFC09F10D0208210020F9
:100CC000FFF7A8FC09F10E0208210020FFF7A2FCA3
:100CD00009F10F0208210020FFF79CFC09EB070235
:100CE000082100200DF1250AFFF794FC4FF00008C1
:100CF000C5B2684829468DF8235010F0A1FF7A1C30
:100D0000082100204A440237FFF784FC15F0070F42
:100D10004FEAD5055FFA80FB14BF0135EDB28DF8BF
:100D200024B0AEB21FFA88F317FA88F29E4292B24C
:100D300000F213813E440DF135080A20B6B210F0DE
:100D400097FFB3441FFA8BFB5E4540F015811022DC
:100D500000210DF10D0027B210F06AFF2A460DF1B7
:100D600025010DF10D0010F03BFF2A460DF10D019C
:100D7000002008F0E1F8484BADF81E0023448DF840
:100D80001D508DF80C4093F82D30012B5CD1019B48
:100D90001B0759D5DFF81C81142303FB04835B8AEE
:100DA000834251D007EB870510220021AD00681C5B
:100DB00008EB0006304610F03BFF08EB05030DF191
:100DC0000C0C0DF11C0E1A466546083203CD754514
:100DD00042F8080C42F8041CAC46F5D128681060B3
:100DE00000992E4A42F82410142202FB0482518AF0
:100DF0002B4A32F81400884226D022F8141003F14E
:100E00001401284A53F8040B8B4242F8040BF9D121
:100E100040F2072006F066FC234B33F814309BB9F0
:100E2000224B304606F1100203EB0413023350F854
:100E3000041B904243F8041BF9D140F2191006F04C
:100E400051FC1B4B009A1A6018230F4D07EB470704
:100E500032E000BF901B002020120020E49B002005
:100E600000FFFF000A360108293601084F36010845
:100E7000753601088F360108B1360108CE360108F3
:100E800040120020E7360108401E00204B370108C1
:100E90005237010859370108E409002044160020A0
:100EA0005C1A0020301F00206C170020901F0020CB
:100EB000A0160020A4160020354E6343EC5405EB29
:100EC0000308012305EBC70588F801300FCD0FC6D5
:100ED00095E8030086E8030040F2012006F002FCDA
:100EE0000023009A88F801302A4B43F8242005E6B5
:100EF000182114AA01FB04739B6838E601F1D002A3
:100F000019F801106A4402F87D1C34E601F1D0039F
:100F100019F801206B4403F87D2C55E61E4A1F4842
:100F200002EB8404D4F89C1110F08AFE31461C4870
:100F300010F086FE29461B48DEE5174A174802EBEB
:100F40008404D4F89C1110F07BFE0199144810F031
:100F500077FE4146EFE70A27C0E64A440821002011
:100F6000FFF758FB4146C2B20AF8010B0E4808F1E0
:100F7000010810F065FED5E609EB060201360821EE
:100F80000020FFF747FB08F8010BB6B2DCE600BF14
:100F9000241E0020681D0020E409002011370108EC
:100FA0002D3701083C370108613701082DE9F04170
:100FB000054609F06DFD2F4B06465A1992F82D2073
:100FC000022A16D018222C4C6A43144494F8038049
:100FD000B8F1000F1ED129490A44D6785EB92279AA
:100FE0003AB103EB85032648D3F89C1110F028FE94
:100FF0002671BDE8F081012EFBD12279002AF8D0BC
:1010000003EB85031F48D3F89C1110F019FE84F8F8
:101010000480EEE7B8F1010FEBD118490A44D77804
:101020008FB92279012AE4D003EB85031648D3F85F
:101030009C1110F005FE154B276143F82560144BF9
:1010400043F82560E3E7012FD3D12279012AD0D0DC
:1010500003EB85030F48D3F89C1110F0F1FD0B4B07
:10106000277143F825600A4B43F82560002323616C
:10107000BFE700BFE4090020401E0020901B0020B5
:1010800070370108AA370108E3370108F41500207A
:101090001C1600201B3801082DE9F843DFF83C81BD
:1010A000044608EB000393F82D30022B72D018226F
:1010B0003C4D3D4E4243A91832448B68926893429E
:1010C00031D082B30979012902D13849095C51BB79
:1010D0009B1A374A002BB8BF5B42012B02D1135D2C
:1010E000032B59D11827002332486743135508EBC7
:1010F000840305EB07093744D3F89C1110F0A0FDD9
:10110000D9F808102C4810F09BFDB9682B4810F056
:1011100097FD2B4810F030FE2A4BBA6803EB0413FE
:10112000C9F808209A6018226243A9183244CB6893
:10113000D26893422ED06AB30979012902D11B49A2
:10114000095D39BB9B1A204A002BB8BF5B42012BBB
:1011500002D1135D032B22D11827002308EB84084A
:101160001A48674313553D44D8F89C113E4410F08B
:1011700067FDE968164810F063FDF168154810F046
:101180005FFD154810F0F8FD0E48F36800EB0414FD
:10119000EB60E360BDE8F88301331355C3E7013327
:1011A0001355F7E7401E0020901B0020EA12002094
:1011B000480D00205538010897380108BB38010850
:1011C000DF38010840120020520D002007390108C5
:1011D000493901086D39010891390108E4090020F5
:1011E000F8B50024154D164F95F82030E6B2B342FD
:1011F00023D957F82600013405F022FFD5F818321C
:101200009842F1D918230F4C0C220F4D03FB0644D2
:10121000002363700D4B02FB06335B78A3700FCC89
:101220000FC594E8030085E8030040F2012006F0B2
:1012300059FA09F02DFC47F82600F8BDE409002012
:10124000681D0020401E0020241E0020A811002040
:1012500038B51D4D2B78012B01D108F0A9F81B4999
:101260001B48FEF7EDFF10B901232B7038BD194C58
:10127000206805F0E5FE184BD3F81C329842F5D3F0
:10128000164B20681A688242F0D0002418602C7037
:1012900005F0D6FE4FF47A71B0FBF1F1104810F072
:1012A000CFFC104810F068FD214618220E4810F0BF
:1012B000BFFC2146A2220D4810F0BAFC40F21910E2
:1012C000BDE8384006F00EBA00000020B939010828
:1012D000E5090020781A0020E4090020741A002093
:1012E000C5390108F2390108901B0020901F002029
:1012F0002DE9F04F0026ADB08F4FA622314602A84F
:10130000DFF88082019610F093FC386805F098FEB3
:10131000D8F82032984200F2B4802DB0BDE8F08FAA
:101320003AF8153009EB0514012B04F1020411D130
:1013300082498348FEF784FF60B108EB8505814848
:10134000D5F89C1110F07CFC10220021204610F0F2
:101350006FFC14E01BF80530012B00F085807A4B00
:101360005B5D012BF0D1794B142202FB05356B1C20
:10137000113553F8042BAB4244F8042BF9D1013654
:1013800098F82030F5B2AB42CAD86C496C48FEF7E9
:1013900057FF6F4B00287BD101221A706D4D2B78BF
:1013A000012B16D104F0CCF86B490026DFF8C09170
:1013B000DFF8D4A18B784A786848097810F040FCAF
:1013C000B4B298F82030B4EB031F70DB0A2010F0A1
:1013D0004FFC40F2191006F085F958495848FEF7BD
:1013E0002FFF00283CD15E4E306805F029FEB0F595
:1013F000FA6F4FF0A0025B495B4866D310F0F0FB38
:101400007E238DF804308DF805308DF806302B786A
:10141000012B02D1554810F0AFFC55490DF10700E2
:1014200031F8024B224610F0DBFB04F1B0037F22BF
:101430002CA96B4401A803F8A92C231D11FA83F3EE
:1014400003F8AC2C631D11FA83F3A11D03F8AC2C37
:10145000C9B2484B1A6805F081FF09F019FB3060EA
:1014600009F016FB386058E7434B142202FB0535A0
:101470006B1C113553F8042BAB4244F8042BF9D103
:101480007DE7DFF8EC90DFF804A1DFF804B177E73F
:101490001C78002C82D1394810F06EFC384810F0CE
:1014A0006BFCA2222146324810F0C2FB76E709EB22
:1014B000040301345046997810F0C2FB230702D18F
:1014C0000A2010F0D5FB01367AE710F079FB0028EE
:1014D000C6D0A0222349244810F082FB7E238DF839
:1014E00004308DF805308DF806302B78012B02D1B1
:1014F0001E4810F041FC1E490DF1070031F8024B67
:10150000224610F06DFB04F1B0037F222CA96B443E
:1015100001A803F8A92C231D11FA83F303F8AC2CBE
:10152000631D11FA83F3A11D03F8AC2CC9B2114B52
:101530001A6805F013FF93E7A0160020B9390108D7
:10154000E5090020143A0108A8170020DC17002044
:1015500000000020DE0900205E270020693A010813
:101560008C1F0020921F0020441900208E3A010891
:10157000901F00209C1A0020A4160020283A010881
:101580004C3A0108E40900204A4401086C17002085
:101590009416002038B505460024E3B20134E95C16
:1015A00001B938BD002009F0B9F8F6E7F0B5ADF59E
:1015B000057D0E4600210446174605A84FF4FE722D
:1015C000049110F035FB76B34F48FFF7E3FF621C40
:1015D00010210020FFF71EF84C49024604A810F025
:1015E000D7FC04A8FFF7D6FFE21C10210020FFF76C
:1015F00011F84749024604A810F0CAFC04A8FFF7F6
:10160000C9FFE21D08210020FFF704F80546414804
:10161000FFF7C0FFE8B20138052866D8DFE800F020
:10162000055F656165633C48CFE7002E55D03B48B8
:10163000FFF7B0FF3A48FFF7ADFF621D0821002019
:10164000FEF7E8FF3749024604A810F0A1FC04A801
:10165000FFF7A0FFA21D08210020FEF7DBFF3249A3
:10166000024604A810F094FC04A8FFF793FF04F1CD
:10167000080210210020FEF7CDFF2C4982B205465A
:1016800004A810F085FC04A8FFF784FFAB062ED554
:10169000E37B04A8A27A0393A37B25490293637B8F
:1016A0000193237B0093E37A10F072FC04A8FFF708
:1016B00071FF204B1B78012B0CD127441E4DBC42DF
:1016C00017D13EB9F6221C4904A810F061FC04A809
:1016D000FFF760FF0DF5057DF0BD1848A8E7184835
:1016E000A6E71848A4E71848A2E71848A0E7184852
:1016F000DDE714F8012B294604A810F049FC04A8E2
:10170000FFF748FFDBE700BFAD3A0108B53A010833
:10171000BD3A0108C53A0108B13A0108C93A0108C1
:10172000AF3A0108F43A0108FE3A0108083B010803
:10173000123B0108DE0900204A440108D03A0108A2
:10174000D73A0108DB3A0108DF3A0108E33A010819
:10175000343B01082DE9F0439BB006460F460021BB
:10176000154602A86022019110F062FA3378B4465F
:101770004FF0F00E8DF80430012318465C1C03F185
:101780006802B842E4B20DEB020151D3F623DFF850
:10179000F09001F8643C19F80530012B0AD1334B65
:1017A00093F8803033B9324B1B78012B02D131488A
:1017B000FFF7F0FEDFF8CC8008EB050393F82D303F
:1017C000012B09D12C4B214601A853F8252005F007
:1017D00073FD002309F80530454495F82D30022BA0
:1017E00006D10DF104080025A4B2ABB29C4236D854
:1017F0001F4D2B78012B02D11E48FFF7CBFE1B4C4F
:1018000094F8802032B101212046FFF7CFFE00235B
:1018100084F880303A4600213046FFF7C7FE2B7827
:10182000012B02D11548FFF7B5FE1BB0BDE8F083D0
:101830001CF8012F0130EF2AC0B281BF01F864EC1F
:1018400004F16801023302F00F0289BF0DEB0104BD
:1018500001F8642C04F8642CDCB223468EE718F8F7
:10186000011B0320013508F059FFBEE7801C002052
:10187000DE090020473B01089C1A0020A53B010817
:101880005C1D0020E40900202DE9F043002791B001
:10189000044638223946DFF8D89202A8019710F0A2
:1018A000C7F9F42301AA082138469F4EFEF7EAFE45
:1018B0000DF1050209EB840310213846D3F89C3161
:1018C000FEF7E0FE0DF1070209EB84031021384614
:1018D000D3F8C431FEF7D6FE32685107C2F3800355
:1018E00040F109813379A3421BD1C8258F480BF001
:1018F00019FDB0FBF5F303FB15058D4810F03CFA1C
:10190000394601358B4810F09BF98B48EDB22946DA
:1019100010F096F92B460DF1090208213846FEF722
:10192000B1FE33684FEA0418844F13F0080FC3F375
:10193000C00000F0E5803379A3421BD1C8257B4865
:101940000BF0F0FCB0FBF5F303FB15057C4810F041
:1019500013FA07EB08037B48997810F071F92946D0
:10196000794810F06DF92B460DF10A02082100208C
:10197000FEF788FE01230DF10B0208210020FEF77F
:1019800081FE07EB0805052303AA10210020EB8048
:10199000FEF778FE17230DF10E0208210020FEF756
:1019A00071FE01230DF10F0210210020FEF76AFEE7
:1019B000664B0DF1110220210020FEF763FE00238B
:1019C0000DF1150210211846FEF75CFE00230DF103
:1019D000170210211846FEF755FE00230DF11902DB
:1019E00010211846FEF74EFE00230DF11B021021B8
:1019F0001846FEF747FEAB68554A07EB0805182165
:101A0000002093420DF11D028CBF03F1FF3301331F
:101A1000EB60FEF737FE18224E4B0821002002FB38
:101A20000433EA68DA604C4B1A5DB22A94BF013283
:101A30000A221A5508AA1B5DFEF724FE01230DF1A8
:101A4000210208210020FEF71DFE01230DF12202D4
:101A500008210020FEF716FE00230DF123020821C5
:101A60001846FEF70FFE33689A0653D53379A34222
:101A700050D17D252D480BF055FC4744B0FBF5F3C4
:101A800003FB1505354810F077F9F978013534482E
:101A900010F0D6F8FB78EDB23248AB4204BF023DFD
:101AA000EDB2294610F0CCF82B4609AA08210020F7
:101AB000FEF7E8FD00230DF1250208211846FEF788
:101AC000E1FD222101A807F0A9FA0DF12602034643
:101AD00020210020FEF7D6FD33689B051ED5337903
:101AE000A3421BD1204810F047F9204810F0A8F875
:101AF00011B0BDE8F0830DF10902082118460EE788
:101B000007EB0802082193780133DBB293700DF1E3
:101B10000A022DE7A14499F8EB30C6E722462621B8
:101B200001A8FFF717FEE3E720120020E49B002046
:101B3000023C0108253C0108443C010840120020F9
:101B4000633C0108863C0108A53C0108AF32E23342
:101B5000EFFFFF00401E002001000020C43C0108F0
:101B6000F43C01080D3D0108283D01083D3D0108F8
:101B7000E40900202DE9F0474FF000089EB004462C
:101B80003822414610A89E4D2701CDF83C8010F028
:101B90004FF83C22414668469A4E10F049F8F4232B
:101BA0006A4608214046FEF76DFD0DF1010205EB86
:101BB0008403102105EB84054046D3F89C31FEF7E1
:101BC00061FDD5F8C431904D0DF10302102140465E
:101BD000FEF758FD2B6813F0040F00F0F7802B7907
:101BE000A34240F0F3804FF0C80988480BF09AFBFD
:101BF000B0FBF9F303FB1909854810F0BDF8F319A0
:101C00008448597810F01CF84946834810F018F8B9
:101C10004B4608210DF105020020FEF733FD2B682D
:101C2000190740F1D6802B79A34240F0D2804FF0C3
:101C3000C80876480BF076FBB0FBF8F303FB1808F6
:101C4000764810F099F8F319754899780FF0F8FF75
:101C5000414674480FF0F4FF43460DF10602082197
:101C60000020DFF8E081FEF70DFD02230DF10702F1
:101C700008210020DFF8D0A1FEF704FD18F8043099
:101C8000012B40F0A98003F05BFC674A04EB44039E
:101C900010680AEB43014AF81300938863488B806D
:101CA00010F06AF80020682302AA102108F8040046
:101CB0004FF00609FEF7E6FC0DF10A02082109FBC8
:101CC00004F900200AEB090898F80530FEF7DAFC61
:101CD00098F804300DF10B0208210020FEF7D2FC29
:101CE00098F8033003AA08210020FEF7CBFC1AF86D
:101CF00009300DF10D0208210020FEF7C3FC98F811
:101D000001300DF10E0208210020FEF7BBFC98F80F
:101D100002300DF110080DF10F0208210020FEF72E
:101D2000B1FC0123424608210020FEF7ABFC002352
:101D30000DF1110208211846FEF7A4FC01230DF154
:101D4000120208210020FEF79DFC2B689A0748D557
:101D50002B79A34245D12D483E440BF0E3FA81464E
:101D6000334810F009F8F16832480FF069FF49462E
:101D700031480FF065FF4B460FAA18210020FEF7EF
:101D800081FC6A460DF13F031646083303CE4645F3
:101D900043F8080C43F8041C3246F5D131880FA8EB
:101DA000B278198016219A7007F038F90DF11302F4
:101DB000034620210020FEF765FC2B689B0513D409
:101DC000224617216846FFF7C5FC16E0F3195B7839
:101DD0001FE7F3199B7840E7282302AA102100206F
:101DE00066E73E44F368C7E72B79A342E8D113487E
:101DF0000FF0C2FF12480FF023FF1EB0BDE8F087BE
:101E0000E40900204012002020120020E49B002062
:101E10004F3D0108723D0108903D0108633C0108F7
:101E2000863C0108A53C010858270020AF3D010869
:101E3000C43D0108E73D0108083E0108283D0108AE
:101E40003D3D0108370D00205C0D00202DE9F04FCD
:101E50004FF000089FB004463822414601A8AE4D1D
:101E60002601CDF800800FF0E3FE3822414610A88D
:101E7000CDF83C800FF0DCFEF4236A460821404692
:101E8000A64FFEF7FFFB0DF1010205EB84031021C5
:101E900005EB84054046D3F89C31FEF7F3FBD5F8FB
:101EA000C4310DF10302102140469D4DFEF7EAFBBF
:101EB0003B6813F0040F00F001813B79A34240F02E
:101EC000FD804FF0C80997480BF02CFAB0FBF9F3EE
:101ED00003FB190994480FF04FFFAB199348597849
:101EE0000FF0AEFE494692480FF0AAFE4B460DF1A8
:101EF000050208210020DFF868A2FEF7C3FB3B685B
:101F000013F0080F00F0DD803B79A34240F0D98048
:101F10004FF0C80883480BF005FAB0FBF8F303FB59
:101F2000180884480FF028FFAB19834899780FF000
:101F300087FE414681480FF083FE43460DF10602BD
:101F400008210020FEF79EFB01238AF800300423BD
:101F50000DF1070208210020FEF794FBAB19DFF812
:101F60000482988818F8043010F0080000F0B78058
:101F7000012B02AA4FF010014FF000000CBF6823A4
:101F80002823FEF77FFBAB199B88990640F1AF80B1
:101F900018F80430DFF8D0B1012B11D103F0D0FADA
:101FA000674A04EB440310680BEB43014BF8130042
:101FB000938864488B800FF0DFFE002308F804301C
:101FC0004FF006090DF10A020821002009FB04F96F
:101FD0000BEB090898F80530FEF754FB98F804302D
:101FE0000DF10B0208210020FEF74CFB98F803309E
:101FF00003AA08210020FEF745FB1BF809300DF16C
:102000000D02082100204FF01009FEF73BFB98F865
:1020100001300DF10E0208210020FEF733FB98F885
:1020200002300DF10F0208210020FEF72BFB3B6868
:102030009A075FD53B79A3425CD13A4835440BF00F
:1020400071F9414BB0FBF3F8C8EB0848A0EB082846
:102050003E480FF091FEE9683D480FF0F1FD414622
:102060003C480FF0EDFD43460FAA18210020FEF773
:1020700009FB0023DAB201334A4511463DD303314F
:102080000FA806F0CBFF202103460DEB090200202C
:10209000FEF7F8FA002309F104018AF800303B68E2
:1020A0009B0531D53B79A3422ED12B480FF064FE1E
:1020B0002A480FF0C5FD1FB0BDE8F08FAB195B7863
:1020C00015E7AA190020082193788AF80000013347
:1020D000DBB293700DF10602FEF7D4FA37E7012B5D
:1020E00002AA4FF010010CBF6423242349E74FF0EC
:1020F0000A099CE73544EB68B6E778326A4412F87F
:10210000781C02F8391CB5E7224601F0FE0168464A
:10211000FFF720FBCFE700BFE409002020120020DA
:1021200040120020E49B0020023C01082B3E0108E5
:10213000483E0108633C0108673E0108843E0108EF
:1021400058270020AF3D010800FFFF00C43D0108F3
:10215000E73D0108083E0108283D01083D3D010812
:10216000011D0020370D00205C0D00202DE9F043FB
:102170004FF0000891B0044638224146744D02A841
:10218000CDF804800FF054FDF42301AA0821404645
:10219000704EFEF777FA0DF1050205EB840310216E
:1021A00005EB84054046D3F89C312701FEF76AFA17
:1021B000D5F8C4310DF1070210214046664DFEF7F7
:1021C00061FA336813F0040F00F0AE803379A34254
:1021D00040F0AA804FF0C80960480BF0A3F8B0FBAC
:1021E000F9F303FB19095E480FF0C6FDEB195D48D2
:1021F00059780FF025FD49465B480FF021FD4B460D
:102200000DF1090208210020FEF73CFA33681A0795
:1022100040F18D803379A34240F089804FF0C808A7
:102220004E480BF07FF83D44B0FBF8F303FB180871
:102230004E480FF0A1FDA9784D480FF001FD414631
:102240004C480FF0FDFC43460DF10A020821002026
:10225000494DFEF717FA06230DF10B020821002065
:10226000DFF82881FEF70EFA2B5D012B65D103F014
:1022700067F9424A04EB4403106808EB430148F84D
:10228000130093883E488B800FF076FD0020692371
:1022900003AA102128550627FEF7F4F90DF10E02C6
:1022A00008216743002008EB07056B79FEF7EAF980
:1022B0002B790DF10F0208210020FEF7E3F9EB78EE
:1022C00004AA08210020FEF7DDF918F807300DF107
:1022D000110208210020FEF7D5F96B780DF11202EA
:1022E00008210020FEF7CEF9AB780DF1130208218A
:1022F0000020FEF7C7F9102101A806F08FFE05AAFD
:10230000034620210020FEF7BDF933689B0519D54F
:102310003379A34216D11B480FF02EFD1A480FF057
:102320008FFC11B0BDE8F083EB195B7868E73D44A2
:10233000AB780133DBB2AB7086E7292303AA102107
:102340000020A8E72246142101A8FFF703FAE8E7D6
:10235000E40900202012002040120020E49B00200D
:10236000023C01082B3E0108483E0108633C01087D
:10237000673E0108843E0108370D002058270020E1
:10238000AF3D0108283D01083D3D01085C0D0020DE
:102390002DE9FF47624C002762480FF0EDFC94F8EE
:1023A000211061480FF04CFCD4F818125F480FF070
:1023B00047FCD4F81C125E480FF042FCD4F82012FF
:1023C0005C480FF03DFCD4F824125B480FF038FC59
:1023D000DFF89481B4F8F6105848DFF890910FF0C8
:1023E0002FFCDFF88CA194F821104F480FF028FC47
:1023F00094F82130FDB2AB4234D894F83A3000263C
:1024000094F8382094F8371000934D4894F83930F8
:102410000FF016FC94F8443094F84020029394F89E
:10242000433094F83F10019394F8423045480093AC
:10243000DFF8408194F84130DFF83C910FF000FC68
:10244000DFF838A1B4F8F6103F480FF0F9FB94F824
:102450002030F5B2AB4223D8324804B0BDE8F04793
:102460000FF08ABC04EB850629464046013796F8F2
:102470004E30019396F84D30009396F84C3096F814
:102480004B200FF0DDFBB6F8FA20294648460FF046
:10249000D7FBB6F8FC20294650460FF0D1FBA7E742
:1024A000691C40460FF0CCFB484604EB85036719D6
:1024B0000136D3F89C110FF0C3FB504604EB8503A3
:1024C000D3F8C4110FF0BCFB204804EB4503B3F86C
:1024D000EC110FF0B5FB97F8EB101D480FF0B0FBB7
:1024E00097F823101B480FF0ABFB97F82D101A48F4
:1024F0000FF0A6FB05F18A03184854F823100FF0DB
:102500009FFB05F194039E35154854F823100FF0F6
:1025100097FB54F8251013480FF092FB97E700BF84
:10252000E4090020A53E0108F83E01081A3F010811
:102530003D3F0108673F0108933F0108BE3F010886
:102540002640010842400108DF5D0108B54001084E
:10255000D1400108E9400108FA4001080D41010895
:102560002841010841410108E93F010806400108EE
:102570001640010870400108834001089C40010892
:102580002DE9F0470026214DDFF89480DFF894A074
:10259000F4B295F82030A34201D8BDE8F08758F88E
:1025A000240088B304F1940704F04AFD55F827305D
:1025B000984229D95AF8240004F042FD55F82730F2
:1025C000984221D9DFF8609019F80430012B1BD014
:1025D0000F4B53F82430B3F57A7F15D958F82400FF
:1025E000012704F02DFD4FF47A71B0FBF1F1094899
:1025F0000FF026FB084B214620461F55FFF744F9F4
:10260000064B09F804701F550136C1E7E4090020A4
:10261000A41500205B4101085C1D0020E012002091
:10262000F4150020B4170020FE1200202DE9F84315
:102630000026DFF86080DFF86090154FF4B298F85C
:102640002030A34201D8BDE8F883182303FB04938C
:102650001B79012B05D008EB040393F82D30022BD6
:1026600013D13B5D012B10D1A51C07EB85056868D4
:1026700004F0E6FC322808D921462046FFF77AFA12
:1026800000233B554FF0FF336B600136D6E700BFA8
:10269000901D0020E4090020401E00202DE9F84391
:1026A00000261B4FDFF87880DFF8789097F820300D
:1026B000F4B2A34201D8BDE8F88358F8240020B34F
:1026C000182505FB0495EB78FBB104F0B9FC04F187
:1026D0008A0357F82330984217D907EB84014FF447
:1026E0007A720C48D1F89C11B3FBF2F20FF0A8FA01
:1026F00058F8241008480FF0A3FA08F0C9F9014669
:1027000006480FF09DFA0023EB700136CEE700BFBC
:10271000E409002087410108BA410108E8410108A5
:102720001C160020401E00202DE9F041214E0546D8
:10273000331893F82330012B02D00120BDE8F0813B
:102740001D4B1B78012BF8D106231C4A4FF46167FF
:10275000434302EB0308D05C02F0D0FE044698F835
:10276000010002F0CBFE02B298F80200C2EB0212A6
:10277000920007FB042402F0C1FE044402F0E0FED4
:102780000F4A53781078C3EB03139900937807FB33
:1027900000111944611A0029B8BF49420129CCDD52
:1027A00006EB85050748D5F89C210FF049FA002073
:1027B000C4E700BFE40900200C1300205C0D0020DA
:1027C0005E270020F34101082DE9F04F0E46054633
:1027D0001446DFF8C093053E2DED028B83B008EE62
:1027E000103A08F055F90746B1B2284606F016FC33
:1027F0008046AA1920210020FDF70CFF804500909B
:1028000013D009EB8404C948D4F89C110FF018FACE
:102810000099C7480FF014FA4146C64803B0BDEC12
:10282000028BBDE8F04F0FF00BBA04F1F408C24B75
:102830004FF0010AC14E09EB480805F11D0203F8EB
:1028400004A01021002006F804A0FDF7E3FEB8F86C
:10285000042083B283469A42B94B1DD003F804A0EA
:1028600009EB8403B748D3F89C110FF0E9F9B64897
:102870001FFA8BF10FF0E4F9B8F80410B3480FF029
:10288000DFF9B34909EB0A00FDF7DAFC30B103B018
:10289000BDEC028BBDE8F08F00221A5509EB040A4B
:1028A00005F1240208210020FDF7B4FE9AF8EB3070
:1028B0005FFA80F8434540F02081A64B4FF0010BB2
:1028C000DFF8D482102143F8247005EB0B02A24BF1
:1028D0004FEA441A06F804B000261E5530469F4BB6
:1028E00043F8247008EB4417FDF794FE81B2388258
:1028F0009B480FF0A5F9EA1C10213046FDF78AFE2F
:10290000F88181B297480FF09BF96A1D0821304683
:10291000FDF780FEAA1D082108F80A003046FDF7E1
:1029200079FEEA1D082178703046FDF773FE05F147
:102930000802B87010213046FDF76CFE8A4B80B259
:1029400003EB04139880830600F128810A26AA1954
:102950000821002008EB441AFDF75CFE721C63019D
:102960008AF803002A44102100200193FDF752FE4B
:10297000F21C0423AAF81200AF18A85803EB441362
:1029800006F10902A14448F8030008EB0301BB88E3
:102990002A440020754F8B801021FDF73BFE06F185
:1029A0000B02AAF8140010212A440020FDF732FE81
:1029B00006F10D02AAF8160010212A440020FDF7A6
:1029C00029FE06F10F02AAF8180018212A44002057
:1029D000FDF720FE1822644B082102FB047203EB72
:1029E000041B906006F11202CBF8080000202A4474
:1029F000FDF710FE5C4BC0B2082122018BF80200EB
:102A0000985406F1130200202A44FDF703FE06F154
:102A100014028AF80A0008212A440020FDF7FAFD72
:102A200099F8EB30C0B206F1150A83428BF8030027
:102A30000CD04F480FF0A0F999F8EB104D480FF06B
:102A4000FFF89BF803104C480FF0FAF805EB0A0268
:102A500008210020FDF7DEFD06F1160263010821C2
:102A60002A4408EB030989F80B000020FDF7D2FD8A
:102A7000C1B2012989F80C1006F1170905D03F48A9
:102A80000FF0DEF83E480FF077F905EB0902082158
:102A90000020FDF7BFFD06F11802630120212A4442
:102AA000384D984488F80D000020FDF7B3FD18EE6E
:102AB000101AC8F81C002046FEF7E6FE1823009AFC
:102AC0006343FE18FC5404EB44037261012207EBDC
:102AD000C307727172700FCF0FC597E8030085E8C6
:102AE000030040F2012004F0FDFD0023737007F0A5
:102AF000CFFF254B43F82400C9E609EB84032348A4
:102B0000D3F89C110FF09CF89AF8EB1019480FF0CD
:102B100097F8414618480FF093F80D491C48FDF707
:102B20008FFB00283FF4C9AEB1E600BF3142010877
:102B30002D3701083C370108EA1200207C1A0020DA
:102B40002D0D00204C42010884420108A6420108D4
:102B5000B9390108F4150020FE120020A415002048
:102B60004B3701085237010840120020401E002058
:102B700018430108F04201080443010832430108E8
:102B80005D430108241E0020681D0020C842010882
:102B9000E5090020E4090020980D00204FF0060A06
:102BA00005F10A0208213046FDF734FD0AFB04FA5C
:102BB000194B05F10B02082103EB0A077871304627
:102BC000FDF728FD05F10C02082138713046FDF7AC
:102BD00021FD05F10D020821F8703046FDF71AFDC0
:102BE0000D4B05F10E02082103F80A003046FDF7EF
:102BF00011FD05F10F02082178703046FDF70AFD3E
:102C0000B8702046FFF790FD044B10B11E551026FA
:102C10009DE603F804B0FAE75C0D0020370D0020B4
:102C20002DE9F04F4FF0000914460546D44F4FEA06
:102C300004182DED028B99B008EE103A039107F0BD
:102C400027FF3822494601900AA8CDF824900EF0BB
:102C5000EFFFCC49CC48FDF7F3FA002800F0F482EE
:102C6000CA4B1A68D20740F1BA821B79A34240F0DE
:102C7000B682C74EC7480AF055FBB0FBF6F6C6EB66
:102C80000646A0EB0626C4480FF076F807EB0803CB
:102C9000C24899680EF0D4FF3146C1480EF0D0FF0B
:102CA000334609AA18210020FDF7ECFC039A002303
:102CB000A2F1050AD9B201335145C0F29482033121
:102CC00009A805EB0A0B06F0A9F9814620215A460E
:102CD0000020FDF79FFC814506464BD06A1D082168
:102CE00000200292FDF796FC029A002840F08282B2
:102CF000AC480FF041F83C22002109A80EF098FFE3
:102D000007EB080309AA18219B6800200133FDF78F
:102D1000B9FC0023D9B201338A4500F3798203312B
:102D200009A806F07BF981465A4620210020FDF7CC
:102D300071FC8145064640F0728207EB08099A480B
:102D40000FF01AF8314699480EF07AFFD9F80810BA
:102D500097480EF075FFD9F8081096480131C9F868
:102D600008100EF06DFF1822934B02FB0433D9F8C4
:102D700008209A60019A0021904B4FF0300ADFF84A
:102D8000689243F824208E4B43F8242001228D4B77
:102D90001A5504EB4413402209EB430318460EF086
:102DA00047FF039A29460EF01BFFBDF80C306A1C42
:102DB000102104934223002003FB0499049BA9F8EB
:102DC0004030DFF82892FDF725FC81B20AFB049A17
:102DD000AAF828007C480EF033FFEA1C10210020DE
:102DE000FDF718FCAAF8260081B207EB080A77481D
:102DF0000EF026FF6A1D08210020FDF70BFCAA1D1E
:102E00008AF8020008210020FDF704FCC0B28AF80D
:102E10000100D8B96E4B6F4803EB8403D3F89C11C3
:102E20000EF00EFFDAF80C106B480EF009FFDAF81E
:102E30000C106A480131CAF80C100EF001FF18227C
:102E40005D4B02FB0433DAF80C20DA60EA1D08213E
:102E5000002007EB080AFDF7DDFB3023102105F108
:102E6000080203FB049989F802000020FDF7D2FB59
:102E700044491FFA80F94448AAF80490FDF7E0F9A4
:102E800018B949F00809AAF80490B844B8F8043011
:102E90009B0640F1DD814FF00609DFF854A105F1F2
:102EA0000A02082109FB04F90020FDF7B3FB05F134
:102EB0000B020AEB0908082188F805000020FDF73D
:102EC000A9FB05F10C02082188F804000020FDF799
:102ED000A1FB05F10D02082188F803000020FDF791
:102EE00099FB05F10E0208210AF809000020FDF700
:102EF00091FB05F10F02082188F801000020FDF781
:102F000089FB88F802002046FFF70EFC344B0028AE
:102F100000F09C8100224FF010081A5507EB0417AF
:102F2000DFF8C89008210020BB88302703F0080292
:102F300007FB0497C3F3C003029205EB0802079353
:102F4000FDF768FBC1B2F87026480EF079FE08F173
:102F50000102082100202A4408F10208FDF75AFB6B
:102F6000387104EB4403FF784FEA031A17F0070F98
:102F70004FEAD7070AF1050314BF0137FFB239E062
:102F800040120020B9390108E50900202012002074
:102F900000FFFF00E49B00200A36010829360108E3
:102FA0004F3601087536010876430108B13601082D
:102FB0008D430108E7360108401E0020F41500206B
:102FC0001C160020861A00204B37010852370108D2
:102FD000E4090020DB4301081D4401082D440108D9
:102FE000370D00203C4401080E130020C80F0020BC
:102FF0005C0D00204B444FF000091FFA87FBCDE920
:1030000005331FFA89F318FA89F29B4592B200F250
:1030100022810A20C3444FF030090AF115080EF04E
:1030200027FE9E4B1FFA8BFB4FF0000A984409FBCA
:1030300004391FFA8AF399F804101BFA8AF29942AC
:1030400092B200F2198118EE101A2046FFF78EF89E
:10305000934B01221A5503EB8403019ADA6018227C
:10306000904B02FB04331B79012B11D18E4B46226E
:10307000002118460EF0DCFD049A04802946828067
:103080000630039A0EF0ACFD40F2032004F02AFB58
:1030900004EB840ADFF86082102200214FEA8A0ADA
:1030A0000FFA84F90AF1010508EB050318460EF042
:1030B000BFFD3A4605990EF093FD3A4601460020C1
:1030C00005F03AFF1423634308EB030208F80340BA
:1030D000029B57745082754F002B44D03D44102200
:1030E0000021D04428460EF0A3FD07EB0A0308F1A7
:1030F00014011A4658F8040B884542F8040BF9D11C
:103100006B4A019942F82410142202FB0472518A7E
:10311000684A32F81400884225D022F8141003F1CE
:103120001401654A53F8040B8B4242F8040BF9D1A1
:1031300040F2072004F0D6FA604B33F8143093B90C
:103140005F4B05F1100203EB0413023355F8041B27
:10315000954243F8041BF9D140F2191004F0C2FA69
:10316000584B019A1A60142118224E4B09EB490959
:10317000624301FB047703EBC9099D189C54798ACB
:103180006E610126E9800221079A69716E70AA704A
:103190004D4FB9E80F000FC799E8030087E8030017
:1031A00040F2012004F09EFA0023019A6B7002980D
:1031B000464B474943F824200C23464A002865D053
:1031C000019D03FB04224448556040F8245056708A
:1031D0000E554FF48071414808F037FF2FE007EBA0
:1031E00008039B685DE501F16002695C6A4402F8CE
:1031F000391C5FE508210020FDF70CFA01283FF497
:1032000077AD374A374802EB8404D4F89C110CE0C0
:1032100001F16002695C6A4402F8391C7AE5304ABF
:10322000314802EB8404D4F89C110EF009FD3146BC
:103230002E480EF005FD49462D480EF001FD19B04F
:10324000BDEC028BBDE8F08F064693E5012262E6F5
:103250004FF00A0862E62A4408210020FDF7DAF957
:10326000069BC2B2494603F8010B09F10109214846
:1032700006930EF0E5FCC4E62A44082100200AF17A
:10328000010AFDF7C7F908F8010BD2E602980855C4
:1032900003FB0424019B6070A3609AE7C80F002021
:1032A000901D0020401E0020441F0020A416002076
:1032B000441600205C1A0020301F00206C170020EC
:1032C000901F0020A0160020241E0020681D002052
:1032D00094160020A81100206C160020001C02404B
:1032E000E4090020C7430108AA4301082D3701085B
:1032F0003C37010843440108C81A00202DE9F04F6B
:103300004FF0000A14460546242289465146D14F03
:103310004FEA04182DED028B8DB008EE103A03A889
:10332000CDF808A00EF084FC07F0B2FBCA4900906B
:10333000CA48FCF785FF002800F04282C84B1A6893
:10334000D20740F10A821B79A34240F006824FF671
:10335000FF76C44809F0E6FFB0FBF6F6C6EB06467A
:10336000861BC1480EF008FD07EB0803BF489968AB
:103370000EF066FC3146BE480EF062FC334602AAEF
:1033800018210020A9F10509FDF77CF90023D9B225
:1033900001334945C0F2E581033102A805F03EFE44
:1033A000834605EB090220210020FDF733F9834510
:1033B000064647D06A1D08210020DFF8CCA2FDF7A1
:1033C00029F904F16603C0B2012800F2EC810AEB8E
:1033D0008303A84859680EF033FC2822002102A874
:1033E0000EF026FC07EB080302AA18219B680020B8
:1033F0000133FDF747F90023D9B20133894500F3C2
:10340000B781033102A805F009FE8642814640F0EB
:10341000B68107EB080998480EF0AEFC9748D9F83A
:1034200008100EF00DFCD9F8081095480131C9F8C4
:1034300008100EF005FC1822924B02FB0433D9F859
:1034400008209A60DFF870A24FF00C096A1C102166
:1034500009FB04A90020FDF7DDF807EB080BA9F82C
:103460000600EA1C10210020FDF7D4F86A1DA9F817
:10347000040008210020DFF80C92FDF7CBF8AA1D0C
:103480008BF8020008210020FDF7C4F8C0B28BF8C9
:103490000100D0B97C4B7D4803EB8403D3F89C1129
:1034A0000EF0CEFBDBF80C1079480EF0C9FBDBF810
:1034B0000C1078480131CBF80C100EF0C1FB18232A
:1034C000DBF80C2003FB0493DA60EA1D08210020DE
:1034D00007EB080BFDF79EF80C23102105F10802FD
:1034E00003FB04AA8AF802000020FDF793F85A496A
:1034F0001FFA80FA5948ABF804A0FCF7A1FE18B9EE
:103500004AF0080AABF804A007EB08039B889B0667
:1035100040D505F10A0208210020DFF8A0B1FDF72F
:1035200079F8062305F10B02082163430BEB030A2C
:1035300001938AF805000020FDF76CF805F10C02F4
:1035400008218AF804000020FDF764F805F10D0257
:1035500008218AF803000020FDF75CF8019B05F1C3
:103560000E0208210BF803000020FDF753F805F1C7
:103570000F0208218AF801000020FDF74BF88AF8B5
:1035800002002046FFF7D0F8434B002800F01A81D4
:1035900000221A55474418EE101A20461825B7F88D
:1035A00004B0FEF753FC009A05FB04953B4B0BF06F
:1035B00008082869CBF3C00B43F8242027B2384B06
:1035C000DFF8FCA043F8242003F03AFD2861B8F1AD
:1035D000000F00F0848007EB8703102200219B007E
:1035E0005D1C0193554428460EF022FB019B2D499A
:1035F0000AEB03020B44114603F1140053F804CB09
:10360000834241F804CBF9D1142303FB04A3598A64
:10361000254B33F81400884261D023F81410134668
:10362000224A03F1140153F8040B8B4242F8040BB5
:10363000F9D140F2072004F055F81D4B33F814304F
:10364000002B4CD11B4B05F1100203EB041302338A
:1036500038E000BF40120020B9390108E509002018
:1036600020120020E49B00200B3601085044010882
:103670004F36010874440108764301089844010854
:10368000AF440108401E0020E4090020DB4301088C
:10369000FB44010806450108370D0020F415002001
:1036A0001C160020C81A00205C1A0020301F0020C1
:1036B0006C170020901F0020500F00205C0D002090
:1036C000A416002055F8041B954243F8041BF9D1B9
:1036D00040F2191004F006F8404B009A1A601422C8
:1036E000182302FB04AA6343BAF8122009EB03056E
:1036F00009F8034007EB4703394FEA8004226E6163
:1037000009EBC30901266A7185F802B06E70B9E849
:103710000F000FC799E8030087E8030040F201207B
:1037200003F0E0FF0023009A6B702E4B2E4943F804
:1037300024200C232D4AB8F1000F45D0009D03FB37
:1037400004222B48556040F8245056700E554FF413
:103750008071284808F079FC20E007EB08039B689B
:103760000DE601F13002695C6A4402F8251C0EE6A0
:1037700001F13002695C6A4402F8251C3CE60AEB60
:1037800084041D48D4F89C110EF05AFA31461B48A7
:103790000EF056FA49461A480EF052FA0DB0BDEC3A
:1037A000028BBDE8F08F0AEB830A1648DAF80410A2
:1037B0000EF046FA314611480EF042FA5946EAE751
:1037C00006463FE60122E4E601F8048003FB0424F8
:1037D000009B84F80180A360B9E700BFA016002019
:1037E000241E0020681D002094160020A81100202F
:1037F0006C160020001C0240C74401082D37010848
:103800003C370108E54401082DE9F04F0F46054615
:103810001446053F2DED028B83B008EE103A07F0F9
:1038200037F90646B9B2284605F0F8FB8046EA1992
:1038300020210020FCF7EEFE8045074614D0A94A5F
:10384000A94802EB8404D4F89C110EF0F9F939462A
:10385000A6480EF0F5F94146A54803B0BDEC028B31
:10386000BDE8F04F0EF0ECB9A24B6A1C102100200D
:1038700043F824604FF00C0A9F4B4FEA041BDFF81B
:10388000C08243F82460FCF7C5FE9C4B08EB04198A
:10389000EA1C0AFB043A1021AAF806000020FCF7F3
:1038A000B9FE6A1DAAF8040008210020FCF7B2FE48
:1038B000AA1D082189F802000020FCF7ABFEEA1DD2
:1038C000082189F801000020FCF7A4FE10218AF8E5
:1038D000020005F108020020FCF79CFE88491FFA4F
:1038E00080FA8848A9F804A0FCF7AAFC18B94AF0A5
:1038F000080AA9F804A008EB0B039B889B0640D597
:103900004FF0060A05F10A0208210020FCF782FEAA
:103910000AFB04FA7C4B05F10B02082103EB0A09B0
:1039200089F805000020FCF775FE05F10C0208215E
:1039300089F804000020FCF76DFE05F10D02082156
:1039400089F803000020FCF765FE6F4B05F10E02BD
:10395000082103F80A000020FCF75CFE05F10F02C5
:10396000082189F801000020FCF754FE89F80200C4
:103970002046FEF7D9FE654B002800F0A880002203
:103980001A55D84418EE101A2046B8F804500FFA09
:1039900084F8FEF75BFA05F0080AC5F3C005BAF132
:1039A000000F55D008EB8803DFF898B110220021F2
:1039B0009B00581C01930BEB000948460EF038F9A8
:1039C000019B53490BEB03020B44114603F1140016
:1039D00053F804CB834241F804CBF9D1142303FB01
:1039E00004B3598A4B4B33F81400884230D023F883
:1039F00014101346484A03F1140153F8040B8B4288
:103A000042F8040BF9D140F2072003F06BFE1822B4
:103A1000424B02FB0433142202FB04BBBBF812200E
:103A2000DA803F4B33F8143093B93E4B484609F1E6
:103A3000100203EB0413023350F8041B904243F8C6
:103A4000041BF9D140F2191003F04CFE364B1E60F6
:103A50001822324B08EB480806216243DFF8E8C021
:103A600003EB02099C54C9F81470012789F802502D
:103A700003EBC80589F8051089F801700FCDACE893
:103A80000F0095E803008CE8030040F2012003F0EA
:103A900029FE0023254A89F80130254B43F824608C
:103AA000244BBAF1000F14D01F550C23224941F8C2
:103AB000246003FB0424677066604FF480711F4824
:103AC00003B0BDEC028BBDE8F04F08F0BEBA012296
:103AD00056E703F804A00C2303FB0424A66084F833
:103AE00001A0EAE7E4090020114501082D3701088B
:103AF0003C370108F41500201C160020D80E0020C9
:103B0000B9390108E50900205C0D0020370D0020BF
:103B1000C81A00205C1A0020301F0020401E002020
:103B20006C170020901F0020A0160020A811002074
:103B3000681D0020941600206C160020001C024016
:103B400040120020A4160020241E00202DE9F84376
:103B50000026154FDFF85490DFF85480F4B297F840
:103B60002030A34201D8BDE8F8830C252046FDF79C
:103B700093FA05FB0495686803F062FA04F18A037E
:103B800057F8233098420DD96B78012B0AD158F899
:103B900024206B689A4205D000236B7006F078FFF2
:103BA00048F824000136D9E7E4090020A8110020D4
:103BB0001C1900202DE9F0472E492F48FCF740FB47
:103BC00028B12E4E306803F03BFAC8284BD8BDE828
:103BD000F08718F804302A49012B2A4D0ED12A4BC0
:103BE0001B5D5BB914236343EA180B4402F1140014
:103BF00052F804CB824243F804CBF9D11423634337
:103C000001EB03091D44B9F812206B8A9A4227D0B0
:103C10001E4B53F8240003F013FAB0F57A7F13D348
:103C200007EB84031A48D3F89C110EF009F8B9F891
:103C3000121018480EF004F8698A17480EF000F8C0
:103C4000164B012223F814200AF1010A97F82030BC
:103C50005FFA8AF4A342BCD806F01AFF3060B6E7D8
:103C60000E4B0022EEE74FF0000A0D4FDFF83480D4
:103C7000ECE700BFB9390108E5090020440D002038
:103C8000A4160020DC170020941600204416002003
:103C90002F45010839450108474501086C170020E8
:103CA000E4090020A817002070B5044606F0F0FED5
:103CB000114A1823114D03FB04239978104B012955
:103CC00012D1104E295546F824000C2606FB043369
:103CD00058605970182303FB04225378012B04BF4A
:103CE000094B43F8240070BD002129550C2505FB24
:103CF000043398605970EDE7901B0020A81700204E
:103D0000A418002080170020B4170020084B03449B
:103D100010B593F82D300446022B04D0FDF746F978
:103D20002046FDF7B9F92046BDE81040FFF7BCBFBB
:103D3000E40900202DE9F74F06460F4606F0A8FEDD
:103D40008F4B80461B78DBB18E4DF21C102100207A
:103D5000FCF760FC95F820101FFA80FA05F5CE728A
:103D600000235FFA83F949451CD8874B1B78012B48
:103D700015D15146854803B0BDE8F04F0DF060BF46
:103D800006F086FE42F20F739842DDD980480DF0AE
:103D9000F3FF80498048FCF753FA0028D4D003B0E1
:103DA000BDE8F08F52F8040B1C4601335045D8D1C2
:103DB00004F1700B1021721C002005EB8B0BFCF73B
:103DC00029FCDBF8043081B28B4210D0734801919A
:103DD0000DF0D2FF019972480DF032FFDBF804209C
:103DE0005146704803B0BDE8F04F0DF029BF6E4B4F
:103DF0001A68D2061ED51B794B451BD16B48019121
:103E00000DF0BAFF01996A480DF01AFF40F24D110A
:103E1000684895F820A00DF013FF40F24D1195F879
:103E20002030534508D8644801910DF0A5FF019951
:103E30006248A0E7CA46F2E7534BDFF8C0B11B78EF
:103E4000012B0FD11BF80410012908D0022964D0DE
:103E50002B1993F82D30022B61D1594800E05948B5
:103E60000DF08AFF584B1BF8042053F824109142A0
:103E70000AD05649564841F82480564943F8242030
:103E800041F824800DF078FF1BF80420524BDFF836
:103E900070B11A555BF8240003F0D2F804F18A03DC
:103EA00055F8233098420ED3484B05EB84054B4818
:103EB00043F82480474BD5F89C114BF8248043F8F5
:103EC00024800DF0BDFE464B812200214BF824805A
:103ED00018460DF0ADFE3A46FFB231460DF080FEB9
:103EE0000821F21D80F880700020FCF793FB182257
:103EF0003C4B0546484602FB04330122DA703A4B3C
:103F000043F82480FFF702FFE9B24B1E052B34D89B
:103F1000DFE803F009121B21332A3448A0E73448B4
:103F20000DF08EFE9EE753464A463946304603B0B2
:103F3000BDE8F04FFEF748BC53464A463946304686
:103F400003B0BDE8F04FFEF76BBE2A4803B0BDE8F2
:103F5000F04F0DF011BF53464A463946304603B084
:103F6000BDE8F04FFFF7CAB953464A4639463046D6
:103F700003B0BDE8F04FFFF747BC1F48FBE600BFAA
:103F800000000020E4090020DE0900209645010819
:103F900056450108B9390108E5090020D245010854
:103FA000EE4501081046010820120020484601088D
:103FB000694601087746010885460108B9460108A7
:103FC000F4460108D64601080C1A0020F41500201A
:103FD0002A4701081C160020F4120020404701085F
:103FE000801C0020401E0020CC150020E546010862
:103FF000094701085C4701087D470108901A002025
:10400000E419002070B50024A0B00D467C220646BD
:10401000214601A80094ADB20DF00AFE22462346C7
:104020009D4291B204D86846FFF784FE20B070BD6F
:10403000F15C20A8F02910FA82F002F1010202BF1F
:1040400001339BB2F15C03F1010308BF61F00F0182
:104050009BB200F8801CE3E710B50024A0B07C22DE
:10406000214601A800940DF0E3FD03F04DF908B9D5
:1040700020B010BD03F054F9F42802D0F62809D07E
:1040800094B104F18002631C0DEB020404F8800C6F
:10409000DCB2EAE7611C04F1800311F0FF010DEBD3
:1040A000030404F8800C05D10024DEE76846FFF71E
:1040B000A9FFDDE70F29F9D801480DF0C1FDD7E7C9
:1040C0009947010810B50024A0B07C22214601A820
:1040D00000940DF0ADFD1B4B93F822309BB11A4BB1
:1040E000186802F0ADFF13280DD9032006F0DEFAA0
:1040F00048B1032006F0EEFA7E2C06D98022214634
:1041000012480DF09DFD20B010BDF42803D0F62814
:104110000AD0002CE9D004F18002631C0DEB0204EC
:1041200004F8800CDCB2E0E7611C04F18003C9B242
:104130000DEB03040F2904F8800CE4D96846FFF75F
:1041400061FFE0E7E409002070A90020CB470108E7
:104150002DE9F8431D491E48FCF772F878BBBDE80D
:10416000F88358F8240002F06BFF04F19E0356F820
:10417000233098421CD958F8243059F824209A4208
:1041800016D049F8243006EB84031248D3F89C116A
:104190000DF056FD104B0022104D1A55182303FB4D
:1041A0000455286902F04CFF28612046FFF77CFD8A
:1041B0000137FCB296F82030A342D2D8CFE70027CF
:1041C000074EDFF82080DFF82090F2E7B9390108C8
:1041D000E5090020F447010894160020401E002045
:1041E000E40900206C160020341A002038B5134D65
:1041F000286802F025FFB0F57A7F1ED9104C1421F3
:10420000104B226801FB02330F4A591853F8040B74
:104210008B4242F8040BF9D140F2072003F062FA16
:1042200023680A4A013392F820202360934204BF96
:104230000023236006F02CFC286038BDC41A00203F
:104240003C1E0020A4160020301F0020E40900209E
:1042500010B51D4806F08CFB1C4B04461A688242C0
:1042600030D0186001461A480DF0EAFC631D0B2B94
:1042700022D8DFE803F0060B0D0F11131517191BD9
:104280001D1F1448BDE810400DF076BD1248F9E737
:104290001248F7E71248F5E71248F3E71248F1E74A
:1042A0001248EFE71248EDE71248EBE71248E9E75A
:1042B0001248E7E71248E5E721461248BDE81040FA
:1042C0000DF0BEBC10BD00BFC4BC0020701A0020A1
:1042D000144801082C480108564801088148010883
:1042E000AE480108DC4801080249010825490108D7
:1042F0004F49010883490108B7490108EA49010803
:104300001D4A01084E4A01081D4D1E4C08B50AF011
:104310004FFBFFF79DFF284608F04BFA05F032F8F7
:1043200003F0C6FBFCF7B2FAFFF796FEFFF7CAFEF2
:10433000FCF7DEFFFCF754FFFCF78AFFFFF708FFEE
:10434000FFF704FCFEF772F9FEF71AF9FEF7A6F97B
:1043500001F0BEF9FFF72EFCFFF748FF05F096FECF
:1043600023784BB1084B0322054C1A7005F00EFE62
:10437000204608F01EFAF9E706F034FAC7E700BF56
:10438000D49B0020DD090020260D0020154B5A6F1C
:10439000002A1ADB5A6F520019D45A6F910018D4B0
:1043A0005A6FD20017D45A6F110116D45A6F5201A6
:1043B00015D45B6F13F0007F14BF07200020094A5B
:1043C000536F43F08073536770470120F7E7022073
:1043D000F5E70320F3E70420F1E70520EFE70620E7
:1043E000EDE700BF0038024007289ABF024B53F8A0
:1043F00020000248704700BF2C4B0108714A010899
:104400002DE9F0411B4CA06802F01AFE1A4BD3F8BC
:10441000342390422BD3B3F828331427174EDD08EA
:104420005B07DFF8608018BF013506F031FBA06044
:10443000002413480DF0A0FCAC4208D30A200DF074
:1044400017FC40F21910BDE8F04103F04BB93CB144
:10445000B4FBF7F307FB134313B90A200DF008FC74
:1044600016F8011B404601340DF0EAFBE4E7BDE815
:10447000F08100BF54260020E409002064260020BB
:10448000BC5601084A44010838B52C4C606802F05B
:10449000D7FD2B4905462B48FBF7D2FE00284BD011
:1044A000294BB3F82623D3F82C134A4395420AD359
:1044B000264A61681268914205D0254A93F8213353
:1044C00052789A4207D82378002B35D0214BD3F865
:1044D0008030002B30D021781F480DF0B1FB2378BD
:1044E0001C48D9074FF0000144BF23F0010323709B
:1044F00023789A074FF0840244BF23F0020323700D
:104500000DF096FB3022002114480DF091FB84221F
:10451000002113480DF08CFB0023124A1248C2E917
:1045200000330B4AC2E90033104AC2E900330DF0F0
:1045300023FC6268054B1A6038BD00BF542600207A
:10454000B9390108E5090020E40900201C240020F5
:1045500018270020AC2400204C4B010864260020C2
:1045600094260020202700207C4B010828270020CB
:1045700038B51B4C1B4D606802F062FDB5F8263360
:10458000D5F82C235343984204D3174B1A780AB119
:1045900000221A70606802F053FDD5F83833984253
:1045A0000BD9124B626819688A4206D01A6040F231
:1045B0000120BDE8384003F095B80D4D286802F0A1
:1045C0003FFDB0F57A7F09D9606802F039FDB0F59A
:1045D000FA6F03D906F05CFA2860E8E738BD00BF3F
:1045E00054260020E4090020202700203C2700203A
:1045F00040270020F8B55D4C5D4D20682B6898423F
:104600000AD006F045FA20605A4C5B4A23785BBB1F
:10461000137803F0FE032AE002F012FDB0F57A7F72
:10462000EFD2286802F00CFD544BD3F83C3398428B
:1046300019D9534B28681A68824214D0186002F0C6
:10464000FFFC4FF47A71B0FBF1F14E480DF0F8FA2F
:1046500029684D480DF0F4FA4C4A137899075CBF6D
:1046600043F002031370F8BD137843F00103484E82
:10467000317841B143F002031370032B31D8DFE8E6
:1046800003F0724C056B03F0FD03F5E76168736896
:104690008B423AD03F4F3B78012B22D13E480DF060
:1046A000CFFA71683D480DF0CBFA00233C483B70CF
:1046B0000DF062FB84223B493B480DF091FA3A4AE7
:1046C0003A4E02F1300C17461346083603CB6345C9
:1046D00046F8080C46F8041C1A46F5D1D7F8803085
:1046E0006360264B627893F821339A4299D3274F1F
:1046F0003B7813F0010694D12D480DF03DFB3B783B
:10470000667043F001033B708BE700231F4A637020
:10471000137823F001031370E3E7726863689A4229
:1047200012D024480DF028FB63780133DBB2022B52
:104730006370D6D91C4BD3F88030002BD1D040F217
:10474000072002F0CFFFCCE7104A137823F00103D3
:10475000137000236370C4E7726863689A42F3D0F1
:1047600014480DF009FB63780133F3E7302700208C
:1047700020240020202700201B240020E409002002
:1047800034270020C53901082F4C01085426002089
:104790001827002038270020934B0108AA4B010856
:1047A000C14B010824240020AC24002064260020F2
:1047B000184C0108F44B010838B5204D204C284610
:1047C0000DF0DAFAB4F822131E480DF039FAB4F8F5
:1047D00024131D480DF034FA94F820131B480DF0F3
:1047E0002FFAD4F830131A480DF02AFAD4F83813F7
:1047F00018480DF025FAD4F83C1317480DF020FAAC
:1048000094F8211315480DF01BFAB4F82813144836
:104810000DF016FAD4F82C1312480DF011FAB4F872
:10482000261311480DF00CFAD4F834130F480DF08C
:1048300007FA2846BDE838400DF09EBAA53E0108AB
:10484000E4090020554C0108784C01089B4C0108F4
:10485000BE4C0108E24C0108064D01082A4D010832
:104860004D4D0108704D0108944D0108B74D0108E8
:1048700010B52423104C11492370012304F1320098
:1048800063703023A3704023E370C02323714E2351
:1048900063712623A3710DF0AAFB094904F164009A
:1048A0000DF0A5FB074904F196000DF0A0FB064BA7
:1048B00004221A7010BD00BF332000204C340108C0
:1048C000B0340108BA340108322000200D4B2DE924
:1048D000F041074693F800800B4C0026F5B2A8453E
:1048E00001D8FF250BE020460136FBF7B3FC21463B
:1048F0000246384632340DF063F90028EED12846DE
:10490000BDE8F081322000203320002030B50025A2
:104910009BB06022294602A801950DF089F9664BEB
:10492000186802F08DFB09280AD81BB030BD0020A2
:1049300005F0D0FE04F168030DEB030404F8640CE9
:104940000020ECB205F0B2FE01350028EFD1002CBA
:10495000EBD004F1680301A96B4403F8640C5748D9
:104960000DF06EF9214601A8FFF7B0FF0C2800F208
:10497000A080DFE800F0070E2A37424C56606A74C8
:104980007E8994004E4B01224E481A700DF0F4F9C6
:10499000CBE704F167034C494C480DEB030414F8D2
:1049A000642C303A0DF04CF914F8643C303BDBB227
:1049B000022B06D8464A137040F2052002F092FE00
:1049C000B3E744480DF0D8F9F6E7434943480DF002
:1049D00037F943480DF0D0F9424A136843F0010318
:1049E0001360E9E740493D480DF02AF93F480DF0D2
:1049F000C3F93C4B02221A60DEE73D4937480DF00F
:104A00001FF93C480DF0B8F9364B0422F3E73A4958
:104A100032480DF015F939480DF0AEF9314B082246
:104A2000E9E737492D480DF00BF936480DF0A4F9A8
:104A30002C4B1022DFE7344928480DF001F93348A8
:104A40000DF09AF9274B2022D5E7314931480DF076
:104A5000F7F831480DF090F9224B4022CBE72F496F
:104A60001E480DF0EDF82E480DF086F91D4B802202
:104A7000C1E72C4919480DF0E3F82B480DF07CF9FB
:104A8000184B4FF48072B6E7284914480DF0D8F857
:104A900027480DF071F9134B4FF40072ABE725492D
:104AA0000E480DF0CDF824480DF066F90D4B0022AC
:104AB000A1E708486AE700BFECA70020BF3401085F
:104AC000DD090020D53401086520002015350108D6
:104AD000DE0900202735010897200020A7350108AE
:104AE000E3590108E8330020C9200020615A010879
:104AF000FB2000209F5A01082D210020D55A0108D3
:104B00005F2100200D5B010891210020075801085A
:104B1000C3210020B4350108DB4D0108F521002038
:104B2000EE4D010827220020755901085922002066
:104B3000064E01088B220020234E010830B50024C8
:104B4000064D824201D8204630BD0B5C01306340E7
:104B5000DBB255F8233083EA1424F2E7BC51010894
:104B60002DE9F0410027CCB004464FF49472394649
:104B700002A80DF05DF801AD264E532322460DF13B
:104B800017002B7006F116017388A5F80130B38861
:104B9000A5F80330B3796B71E223AB71B37A6B7212
:104BA000D6F80B30CDF80E30B6F80F30ADF8123025
:104BB000737C8DF81430B38AA5F811300DF010F81D
:104BC00004F11300224606F19601134E1FFA80F8F5
:104BD00015FA80F00DF004F8294644443846A4B292
:104BE000E31E2F55A21C0634A5F8073092B2A4B2DA
:104BF000FFF7A4FFA850BBB29C4202D84CB0BDE85E
:104C0000F08115F8011B013796F8200305F086FDA9
:104C1000F1E700BF30250020E409002070B5FFF760
:104C20008DFF89580446884208D005480DF008F8E1
:104C3000214604480DF004F8002070BD0120FCE777
:104C40002D4E0108444E01082DE9F84381460F46D8
:104C50000026DFF8FC80394D484605F027FD044664
:104C6000002857D0484605F035FD98F80030013B44
:104C7000042BF1D801A252F823F000BF914C000898
:104C8000A14C0008594C0008B94C0008D74C00084A
:104C90005328E1D101232B80022388F80030DBE781
:104CA0002B88082B04D1092338722B800423F4E7C6
:104CB000F85401332B80CFE72B880121FA1832F802
:104CC000026C1F4AF8540B44118002222B801D4BAA
:104CD0001A800523E1E71A4A2C8813883855B34215
:104CE00028D2013317499BB21380621CB3422A8039
:104CF0000A8802F101020A80AED1033C002601239A
:104D0000A4B22E8088F80030042C06D834460E4811
:104D10000DF032F82046BDE8F88322463946304689
:104D2000FFF77CFF05460028F4D108482C460DF01B
:104D300023F8EFE7002601232E80AEE74627002068
:104D400044270020482700205C4E0108624E0108DD
:104D50000B0000202DE9F04F0024ADF53D7D4FF410
:104D60009472924F214672A871940CF061FF7C22DC
:104D7000214609A808940CF05BFF4FF4967271A9C4
:104D800097F82003FFF760FF052805463AD971AE72
:104D9000DFF83C924FF00A0885480CF0EDFF013433
:104DA00016F8011B4846A4B20CF04AFFA5421ED1DA
:104DB0000A200CF05DFF4FF49272002128A80CF03D
:104DC00037FF9DF8C431BDF8C5818DF8A030B7F824
:104DD0002433ADF8A48043451AD076480CF0CCFFBC
:104DE0004246B7F8241374480CF02AFF0CE0B4FBD9
:104DF000F8F308FB13439BB2002BD0D10A200CF030
:104E000037FFCCE70028D6D10DF53D7DBDE8F08F0A
:104E1000BDF8C791B7F82233ADF8A2904B4506D044
:104E200066480CF0A9FF4A46B7F82213DBE79DF865
:104E3000C961AA2E8DF8A66006D0BB2E04D03146DB
:104E40005F480CF0FDFEDFE79DF8CA11E1298DF8FF
:104E5000A71001D05B48F4E7BDF8CB319DF8D51120
:104E60000593ADF8A83011299DF8CD318DF8B21019
:104E700006938DF8AA30DDF8CE31CDF8AB30BDF811
:104E8000D231ADF8AF309DF8D4318DF8B13001D0CA
:104E90004D48D6E7BDF8D651B5F5806FADF8B450A2
:104EA00002D929464948CCE7B7F82813A94244D18A
:104EB0006B074FEAD5044BD108AF224676A90DF116
:104EC000B6000CF08DFE76AB3846002291B28C42D3
:104ED00041D8630004F114020DF59B7A0DF5E27ED2
:104EE0009BB292B2D44603F1150080B2511C89B234
:104EF000884237D103F1140B224608A90DF59B70A7
:104F000004931FFA8BFB0CF05BFE049B07900028B8
:104F10003CD000252E4E2F480CF02EFFABB29C4209
:104F200026D800252A4E2C480CF026FFABB29C4216
:104F300025D82A480CF020FF66E72A4628480CF0BE
:104F40007FFE28492848FBF77BF90028B0D15BE7B2
:104F50000134A4B2B0E713F8011B0132C94300F8D1
:104F6000011BB3E71EF802200CF8012B0A46BDE72F
:104F70001AF8011B304601350CF062FECEE717F837
:104F8000011B304601350CF05BFECFE771A95A4694
:104F900012200493FFF7D2FD51F80B200746049B23
:104FA00090426E9224D0014610481DE7E40900208B
:104FB0006A4E0108744E0108A64E0108C74E01084A
:104FC000F44E01082A4F01085F4F0108A34F010862
:104FD0004A4401082D500108795001089C500108ED
:104FE000F34F0108B9390108E5090020AD50010867
:104FF0001833DFF8A4B1DFF8A4A19BB2CB5AADF807
:10500000BC3105F045FD28A94FF49272CAF804009E
:1050100058460CF0E5FD4E4B012220465F604D4F97
:105020001A70FFF79DFD22460DF1B60138460CF0CF
:10503000D7FDDBF81831DFF868B122463946049312
:105040005846C7F880300CF0BBFD38B322463946CD
:1050500058460CF0C5FD049B302207993E48CBF81A
:1050600080300CF0E5FD224639463B480CF0B8FD97
:1050700040F2191002F036FB05F00AFDCAF80800EC
:1050800036480CF079FE40F2012002F02BFB344B45
:105090005B681BB940F2072002F024FB31480CF09A
:1050A0006BFE414630480CF0CBFD49462F484FF08F
:1050B00000090CF0C5FD31462D480A260CF0C0FD54
:1050C000E1212C480CF0BCFD05992B480CF0B8FDF3
:1050D00006992A480CF0B4FD9DF8B1309DF8AD203A
:1050E00002939DF8B0309DF8AE1001939DF8AF305B
:1050F000234800939DF8AC300CF0A2FD112121480B
:105100000CF09EFD204F29462048124D0CF098FDD2
:10511000DFF890801E480CF093FD1FFA89F39C4243
:1051200004D80A200CF0A4FD1A4803E743B1B3FBEE
:10513000F6F206FB12339BB213B938460CF080FD31
:1051400015F8011B404609F101090CF079FDE4E76F
:1051500020270020AC24002064260020ED50010808
:1051600018270020045101082B5101083351010870
:105170003B510108445101084D51010855510108A6
:105180005D5101087F510108A451010888510108AF
:1051900090510108055101083025002054260020B7
:1051A000942600204A440108134D144C08B504F01D
:1051B0006DFF02F07DFC04F0E5F8284607F0F9FAEF
:1051C000FFF7C8FDFFF71CF9FFF75EF9FFF7D0F90D
:1051D000FFF710FAFFF79AFB23784BB1084B032235
:1051E000054C1A70204607F0E4FA04F0CFFEF9E708
:1051F00005F0F8FADBE700BFD49B0020DD090020B2
:10520000260D00202DE9F34707460C4690463B4EFD
:10521000DFF80491FDB2284605F048FA48B34FF094
:10522000010A374889F800A007F0C3FA284605F0BC
:1052300051FA054605F0D6FA3278324B022A09D0E7
:10524000032A51D0524547D1242D45D125701A80CB
:1052500002223BE0242D36D0262D03D0052D37D158
:10526000032233E01F880022BD1E1A802DB2954212
:1052700004DA0026304602B0BDE8F08705F10108E7
:1052800086F800A0625D294614F808301E48009395
:1052900043460CF0D5FC2946204603F073FE064633
:1052A00038B114F808203EB2615D18480CF0C8FC13
:1052B000E0E717480CF0C4FC14F80820615D1548BD
:1052C0000CF0BEFCD6E72570A3F800A0327003E016
:1052D0001A88A55401321A801A8842459AD30122AD
:1052E000327000221A8093E705F0FD02242A01D0D3
:1052F000052DADD11A88A5540132A8E70D00002074
:10530000D49B00204C270020BC550108E155010822
:10531000F3550108E85501082C0D0020F0B50023D5
:1053200085B0044640F2DB56ADF80C30154FCDE9A0
:1053300001338DF80610042124238DF807200DEB8E
:1053400001008DF8043003F041FE26239DF809206A
:105350009DF808100C488DF80A300CF071FC05F02F
:1053600097FB0546284601F06BFEB04206D906229F
:1053700001A9204605F004FA05B0F0BD384607F053
:1053800018FAEFE7D49B0020FD55010830B585B031
:1053900000240A22054601A9ADF80C40CDE90144DC
:1053A000FFF730FFA04216DD9DF80530F3B99DF8F8
:1053B0000640012C12D19DF80740012C16D10E4851
:1053C0000CF0DAFC022221462846FFF7A7FF05F081
:1053D0005FFB0A4B1860204605B030BD022C05D19A
:1053E0009DF80730012B01D10548E9E70548002465
:1053F0000CF0C2FCEFE700BF18560108280D002092
:105400002E560108465601082DE9F84307460D4679
:105410009046344EDFF8E090FCB2204605F046F9A5
:1054200028B3204605F056F9044605F0DBF9484656
:1054300007F0BFF932782C4B022A09D0032A47D053
:10544000012A3DD1242C3BD12C701A80022231E05C
:10545000242C2CD0262C03D0052C2DD1032229E07E
:105460001F880022BC1E1A8024B2944203DA002650
:105470003046BDE8F88301232146284604F101089F
:10548000337003F07FFD064638B115F808203EB2B0
:10549000295D16480CF0D4FBEAE715480CF0D0FB68
:1054A00015F80820295D13480CF0CAFBE0E701213C
:1054B0002C701980327003E01A88AC5401321A80C3
:1054C0001A884245A8D30122327000221A80A1E72F
:1054D00004F0FD02242A01D0052CB7D11A88AC545F
:1054E0000132B2E70C0000204A270020565601087E
:1054F000F35501080E560108D49B0020030900F063
:105500000F0003EB830300EB4300C0B270470A2295
:10551000B0FBF2F302FB130000EB0310C0B27047C4
:10552000064B5A79092A06D9187928B1D878003853
:1055300018BF012070470020704700BF4E27002091
:105540002DE9F041072386B04FF47A7100221E48FE
:105550000492CDF81320CDE9013104ABD0210093A2
:10556000012306F0CFFF9DF81080184A4046FFF750
:10557000C5FF9DF8117090703846FFF7BFFF9DF88A
:10558000126050703046FFF7B9FF9DF8145010704C
:105590002846FFF7B3FF9DF81540D0702046FFF76F
:1055A000ADFF9DF8161010710846FFF7A7FF084BD6
:1055B000507183F802805F701E70DD701C7159712C
:1055C00006B0BDE8F08100BF2C9B00205E270020C4
:1055D00058270020F0B587B0002605AF0496ADF837
:1055E0001460BE70FFF79CFF20B935480CF0C4FB77
:1055F00007B0F0BD33490124334B4FF47A758878F6
:105600001C70FFF784FF8DF810004878FFF77FFFCC
:105610008DF811000878FFF77AFF8DF81200C8782E
:10562000FFF775FF8DF813000879FFF770FF8DF80D
:1056300014004879D021FFF76AFF04AB32468DF899
:105640001500009323462148CDE9014506F080FE70
:105650000DF111032246D021009323461B48CDE9CA
:10566000014506F075FE0DF112030222D0210093D0
:1056700023461648CDE9014506F06AFE0DF11303F5
:105680000422D021009323461048CDE9014506F0BD
:105690005FFE23460522D02100970C48CDE9014545
:1056A00006F056FE0DF115030622D0210093234685
:1056B0000648CDE9014506F04BFEFFF741FF97E7AD
:1056C000675601084E2700200C1300202C9B002059
:1056D00010B5064C206801F0B3FCB0F57A7F04D316
:1056E000FFF72EFF05F0D4F9206010BD54270020ED
:1056F00038B54B0801380024023B9BB29D1CA2B276
:10570000934201D801200BE010F8011F0134425DE3
:10571000D243D2B29142F2D002480CF091FA00206A
:1057200038BD00BF86560108F0B5C9000025064601
:105730004FF0010C8CB22B462846A9B28C4200D8FF
:10574000F0BDCF0801F00701072913D0F75D47FA34
:1057500001F1C90744BF175C0CFA03F103F101031F
:1057600048BF3943DBB248BF1154082B02BF013098
:10577000002380B20135E0E7F8B5374C374D60685B
:1057800001F05EFCD5F8183398423FD92188344E99
:10579000344FB1F5807F33783A7838D1012B3ED140
:1057A000012A36D1304931F8042B30480CF018FA70
:1057B000D5F81C337A889A4208D37288934205D868
:1057C0004FF40072002129480CF032FAB5F8FE229D
:1057D000274ED3085207274918BF01332648338084
:1057E000FAF72EFD40B340F219100025234F01F0C7
:1057F00079FF23480CF024FA3288ABB29A4222D8BF
:105800000A200CF035FA05F043F96060F8BD012B71
:1058100005D152B96378012B07D11A49C3E7012A90
:1058200003D113B96378012BBCD04FF4007200216F
:105830000E480CF0FDF9BBE70B49B01C31F8042B06
:105840000CF0CEF9CFE716FA85F338460135997892
:105850000CF0F6F9D0E700BF742B0020E40900201B
:10586000662B00201A490020902B002020490020A0
:105870001E490020B9390108E50900204A44010801
:10588000BB560108942D002010B50A4CA06801F009
:10589000D7FB094BD3F80833984209D9074B0022AC
:1058A00040F201205A7001F01DFF05F0F1F8A060F0
:1058B00010BD00BF742B0020E40900201A4900200D
:1058C00038B5114B114DD868114C60B101F0B8FBDF
:1058D000D5F81433984206D9237823B10D480CF03B
:1058E0004BFA00232370D5F81C3362889A420AD9F8
:1058F000094A5288934206D2237823B107480CF014
:105900003BFA0023237038BD742B0020E4090020EB
:105910001A490020D0560108662B0020ED560108D8
:1059200010B5074C206901F08BFBB0F57A7F06D9E2
:1059300040F2072001F0D6FE05F0AAF8206110BD64
:10594000742B002010B5104C606901F079FBB0F5A4
:10595000FA7F17D90D4B1B784BB90D4B1B78012BD8
:1059600005D14FF401720B490B480CF039F9094B82
:10597000094A5B8852889B1A18BF0123237005F0DF
:1059800087F8606110BD00BF742B00201A49002009
:10599000662B0020942D0020902B002010B5114C78
:1059A0006378012B01D103F003FDA06901F048FBEE
:1059B0000D4BD3F80C33984212D30C4BA0691A68E4
:1059C00090420DD000221860627001F039FB4FF454
:1059D0007A71BDE81040B0FBF1F105480CF030B928
:1059E00010BD00BF742B0020E4090020602B0020B4
:1059F000C539010810B52423294C2A4923700123F5
:105A000004F1320063703023A3704023E370C0239D
:105A100023714E2363712623A3710CF0E8FA224907
:105A200004F164000CF0E3FA204904F196000CF054
:105A3000DEFA1F4904F1C8000CF0D9FA1D4904F13F
:105A4000FA000CF0D4FA1C4904F596700CF0CFFA69
:105A50001A4904F5AF700CF0CAFA194904F5C87078
:105A60000CF0C5FA174904F5E1700CF0C0FA1649BC
:105A700004F5FA700CF0BBFA144904F226200CF07D
:105A8000B6FA134904F516700CF0B1FA114904F294
:105A90008A200CF0ACFA104B0E221A7010BD00BF19
:105AA0006B2700204C340108E3590108615A0108B2
:105AB0009F5A0108D55A01080D5B010810570108CB
:105AC000DB4D0108EE4D010875590108064E01082D
:105AD000B0340108BA3401086A2700200D4B2DE9C3
